{
	"VotingSystem.sol": {
		"VotingSystem": {
			"abi": [
				{
					"inputs": [],
					"stateMutability": "nonpayable",
					"type": "constructor"
				},
				{
					"inputs": [],
					"name": "AllCandidates",
					"outputs": [
						{
							"internalType": "string[]",
							"name": "",
							"type": "string[]"
						}
					],
					"stateMutability": "view",
					"type": "function"
				},
				{
					"inputs": [],
					"name": "Winner",
					"outputs": [
						{
							"internalType": "string",
							"name": "",
							"type": "string"
						}
					],
					"stateMutability": "view",
					"type": "function"
				},
				{
					"inputs": [],
					"name": "endElection",
					"outputs": [],
					"stateMutability": "nonpayable",
					"type": "function"
				},
				{
					"inputs": [
						{
							"internalType": "string",
							"name": "_id",
							"type": "string"
						}
					],
					"name": "getCandidateById",
					"outputs": [
						{
							"internalType": "address",
							"name": "",
							"type": "address"
						},
						{
							"internalType": "string",
							"name": "",
							"type": "string"
						},
						{
							"internalType": "uint256",
							"name": "Votes_Received",
							"type": "uint256"
						}
					],
					"stateMutability": "view",
					"type": "function"
				},
				{
					"inputs": [],
					"name": "getRegisteredCandidatesCount",
					"outputs": [
						{
							"internalType": "uint256",
							"name": "",
							"type": "uint256"
						}
					],
					"stateMutability": "view",
					"type": "function"
				},
				{
					"inputs": [
						{
							"internalType": "string",
							"name": "_name",
							"type": "string"
						},
						{
							"internalType": "string",
							"name": "_proposal",
							"type": "string"
						}
					],
					"name": "registerAsCandidate",
					"outputs": [],
					"stateMutability": "nonpayable",
					"type": "function"
				},
				{
					"inputs": [],
					"name": "registerAsVoter",
					"outputs": [],
					"stateMutability": "nonpayable",
					"type": "function"
				},
				{
					"inputs": [],
					"name": "startElection",
					"outputs": [],
					"stateMutability": "nonpayable",
					"type": "function"
				},
				{
					"inputs": [],
					"name": "viewVoterDetails",
					"outputs": [
						{
							"internalType": "bool",
							"name": "Registered",
							"type": "bool"
						},
						{
							"internalType": "bool",
							"name": "Voted",
							"type": "bool"
						}
					],
					"stateMutability": "view",
					"type": "function"
				},
				{
					"inputs": [
						{
							"internalType": "string",
							"name": "_idOrAddress",
							"type": "string"
						}
					],
					"name": "voteById",
					"outputs": [],
					"stateMutability": "nonpayable",
					"type": "function"
				}
			],
			"devdoc": {
				"kind": "dev",
				"methods": {},
				"version": 1
			},
			"evm": {
				"assembly": "    /* \"VotingSystem.sol\":62:8022  contract VotingSystem {... */\n  mstore(0x40, 0x80)\n    /* \"VotingSystem.sol\":457:508  constructor() {... */\n  callvalue\n  dup1\n  iszero\n  tag_1\n  jumpi\n  0x00\n  dup1\n  revert\ntag_1:\n  pop\n    /* \"VotingSystem.sol\":490:500  msg.sender */\n  caller\n    /* \"VotingSystem.sol\":482:487  admin */\n  0x00\n  dup1\n    /* \"VotingSystem.sol\":482:500  admin = msg.sender */\n  0x0100\n  exp\n  dup2\n  sload\n  dup2\n  0xffffffffffffffffffffffffffffffffffffffff\n  mul\n  not\n  and\n  swap1\n  dup4\n  0xffffffffffffffffffffffffffffffffffffffff\n  and\n  mul\n  or\n  swap1\n  sstore\n  pop\n    /* \"VotingSystem.sol\":62:8022  contract VotingSystem {... */\n  dataSize(sub_0)\n  dup1\n  dataOffset(sub_0)\n  0x00\n  codecopy\n  0x00\n  return\nstop\n\nsub_0: assembly {\n        /* \"VotingSystem.sol\":62:8022  contract VotingSystem {... */\n      mstore(0x40, 0x80)\n      callvalue\n      dup1\n      iszero\n      tag_1\n      jumpi\n      0x00\n      dup1\n      revert\n    tag_1:\n      pop\n      jumpi(tag_2, lt(calldatasize, 0x04))\n      shr(0xe0, calldataload(0x00))\n      dup1\n      0x66444e86\n      gt\n      tag_13\n      jumpi\n      dup1\n      0x66444e86\n      eq\n      tag_8\n      jumpi\n      dup1\n      0x78668658\n      eq\n      tag_9\n      jumpi\n      dup1\n      0xb2b98ed2\n      eq\n      tag_10\n      jumpi\n      dup1\n      0xf342c4de\n      eq\n      tag_11\n      jumpi\n      dup1\n      0xf526dab4\n      eq\n      tag_12\n      jumpi\n      jump(tag_2)\n    tag_13:\n      dup1\n      0x04b8789b\n      eq\n      tag_3\n      jumpi\n      dup1\n      0x1231f78e\n      eq\n      tag_4\n      jumpi\n      dup1\n      0x567484ee\n      eq\n      tag_5\n      jumpi\n      dup1\n      0x59f78468\n      eq\n      tag_6\n      jumpi\n      dup1\n      0x62d73eb8\n      eq\n      tag_7\n      jumpi\n    tag_2:\n      0x00\n      dup1\n      revert\n        /* \"VotingSystem.sol\":4278:4514  function registerAsCandidate(string memory _name, string memory _proposal) public {... */\n    tag_3:\n      tag_14\n      0x04\n      dup1\n      calldatasize\n      sub\n      dup2\n      add\n      swap1\n      tag_15\n      swap2\n      swap1\n      tag_16\n      jump\t// in\n    tag_15:\n      tag_17\n      jump\t// in\n    tag_14:\n      stop\n        /* \"VotingSystem.sol\":6774:7202  function AllCandidates() public view returns (string[] memory){... */\n    tag_4:\n      tag_18\n      tag_19\n      jump\t// in\n    tag_18:\n      mload(0x40)\n      tag_20\n      swap2\n      swap1\n      tag_21\n      jump\t// in\n    tag_20:\n      mload(0x40)\n      dup1\n      swap2\n      sub\n      swap1\n      return\n        /* \"VotingSystem.sol\":6249:6766  function getCandidateById(string memory _id) public view returns (address, string memory, uint Votes_Received) {... */\n    tag_5:\n      tag_22\n      0x04\n      dup1\n      calldatasize\n      sub\n      dup2\n      add\n      swap1\n      tag_23\n      swap2\n      swap1\n      tag_24\n      jump\t// in\n    tag_23:\n      tag_25\n      jump\t// in\n    tag_22:\n      mload(0x40)\n      tag_26\n      swap4\n      swap3\n      swap2\n      swap1\n      tag_27\n      jump\t// in\n    tag_26:\n      mload(0x40)\n      dup1\n      swap2\n      sub\n      swap1\n      return\n        /* \"VotingSystem.sol\":1382:1460  function endElection() public onlyAdmin{... */\n    tag_6:\n      tag_28\n      tag_29\n      jump\t// in\n    tag_28:\n      stop\n        /* \"VotingSystem.sol\":1259:1374  function startElection() public onlyAdmin {... */\n    tag_7:\n      tag_30\n      tag_31\n      jump\t// in\n    tag_30:\n      stop\n        /* \"VotingSystem.sol\":4522:4834  function getRegisteredCandidatesCount() public view returns (uint256) {... */\n    tag_8:\n      tag_32\n      tag_33\n      jump\t// in\n    tag_32:\n      mload(0x40)\n      tag_34\n      swap2\n      swap1\n      tag_35\n      jump\t// in\n    tag_34:\n      mload(0x40)\n      dup1\n      swap2\n      sub\n      swap1\n      return\n        /* \"VotingSystem.sol\":4842:4930  function registerAsVoter() public {... */\n    tag_9:\n      tag_36\n      tag_37\n      jump\t// in\n    tag_36:\n      stop\n        /* \"VotingSystem.sol\":7212:8017  function Winner() public view returns (string memory) {... */\n    tag_10:\n      tag_38\n      tag_39\n      jump\t// in\n    tag_38:\n      mload(0x40)\n      tag_40\n      swap2\n      swap1\n      tag_41\n      jump\t// in\n    tag_40:\n      mload(0x40)\n      dup1\n      swap2\n      sub\n      swap1\n      return\n        /* \"VotingSystem.sol\":5793:5945  function viewVoterDetails() public view returns(bool Registered, bool Voted) {... */\n    tag_11:\n      tag_42\n      tag_43\n      jump\t// in\n    tag_42:\n      mload(0x40)\n      tag_44\n      swap3\n      swap2\n      swap1\n      tag_45\n      jump\t// in\n    tag_44:\n      mload(0x40)\n      dup1\n      swap2\n      sub\n      swap1\n      return\n        /* \"VotingSystem.sol\":5341:5784  function voteById(string memory _idOrAddress) public electionInProgress {... */\n    tag_12:\n      tag_46\n      0x04\n      dup1\n      calldatasize\n      sub\n      dup2\n      add\n      swap1\n      tag_47\n      swap2\n      swap1\n      tag_24\n      jump\t// in\n    tag_47:\n      tag_48\n      jump\t// in\n    tag_46:\n      stop\n        /* \"VotingSystem.sol\":4278:4514  function registerAsCandidate(string memory _name, string memory _proposal) public {... */\n    tag_17:\n        /* \"VotingSystem.sol\":4380:4400  registeredCandidates */\n      0x04\n        /* \"VotingSystem.sol\":4380:4412  registeredCandidates[msg.sender] */\n      0x00\n        /* \"VotingSystem.sol\":4401:4411  msg.sender */\n      caller\n        /* \"VotingSystem.sol\":4380:4412  registeredCandidates[msg.sender] */\n      0xffffffffffffffffffffffffffffffffffffffff\n      and\n      0xffffffffffffffffffffffffffffffffffffffff\n      and\n      dup2\n      mstore\n      0x20\n      add\n      swap1\n      dup2\n      mstore\n      0x20\n      add\n      0x00\n      keccak256\n      0x00\n      swap1\n      sload\n      swap1\n      0x0100\n      exp\n      swap1\n      div\n      0xff\n      and\n        /* \"VotingSystem.sol\":4379:4412  !registeredCandidates[msg.sender] */\n      iszero\n        /* \"VotingSystem.sol\":4371:4448  require(!registeredCandidates[msg.sender], \"Candidate is alredy registrerd.\") */\n      tag_50\n      jumpi\n      mload(0x40)\n      0x08c379a000000000000000000000000000000000000000000000000000000000\n      dup2\n      mstore\n      0x04\n      add\n      tag_51\n      swap1\n      tag_52\n      jump\t// in\n    tag_51:\n      mload(0x40)\n      dup1\n      swap2\n      sub\n      swap1\n      revert\n    tag_50:\n        /* \"VotingSystem.sol\":4459:4506  registerCandidate(msg.sender, _name, _proposal) */\n      tag_53\n        /* \"VotingSystem.sol\":4477:4487  msg.sender */\n      caller\n        /* \"VotingSystem.sol\":4489:4494  _name */\n      dup4\n        /* \"VotingSystem.sol\":4496:4505  _proposal */\n      dup4\n        /* \"VotingSystem.sol\":4459:4476  registerCandidate */\n      tag_54\n        /* \"VotingSystem.sol\":4459:4506  registerCandidate(msg.sender, _name, _proposal) */\n      jump\t// in\n    tag_53:\n        /* \"VotingSystem.sol\":4278:4514  function registerAsCandidate(string memory _name, string memory _proposal) public {... */\n      pop\n      pop\n      jump\t// out\n        /* \"VotingSystem.sol\":6774:7202  function AllCandidates() public view returns (string[] memory){... */\n    tag_19:\n        /* \"VotingSystem.sol\":6820:6835  string[] memory */\n      0x60\n        /* \"VotingSystem.sol\":6847:6869  string[] memory result */\n      0x00\n        /* \"VotingSystem.sol\":6885:6903  candidateAddresses */\n      0x01\n        /* \"VotingSystem.sol\":6885:6910  candidateAddresses.length */\n      dup1\n      sload\n      swap1\n      pop\n        /* \"VotingSystem.sol\":6872:6911  new string[](candidateAddresses.length) */\n      0xffffffffffffffff\n      dup2\n      gt\n      iszero\n      tag_56\n      jumpi\n      tag_57\n      tag_58\n      jump\t// in\n    tag_57:\n    tag_56:\n      mload(0x40)\n      swap1\n      dup1\n      dup3\n      mstore\n      dup1\n      0x20\n      mul\n      0x20\n      add\n      dup3\n      add\n      0x40\n      mstore\n      dup1\n      iszero\n      tag_59\n      jumpi\n      dup2\n      0x20\n      add\n    tag_60:\n      0x60\n      dup2\n      mstore\n      0x20\n      add\n      swap1\n      0x01\n      swap1\n      sub\n      swap1\n      dup2\n      tag_60\n      jumpi\n      swap1\n      pop\n    tag_59:\n      pop\n        /* \"VotingSystem.sol\":6847:6911  string[] memory result = new string[](candidateAddresses.length) */\n      swap1\n      pop\n        /* \"VotingSystem.sol\":6929:6935  uint i */\n      0x00\n        /* \"VotingSystem.sol\":6924:7169  for (uint i = 0; i < candidateAddresses.length; i++) {... */\n    tag_61:\n        /* \"VotingSystem.sol\":6945:6963  candidateAddresses */\n      0x01\n        /* \"VotingSystem.sol\":6945:6970  candidateAddresses.length */\n      dup1\n      sload\n      swap1\n      pop\n        /* \"VotingSystem.sol\":6941:6942  i */\n      dup2\n        /* \"VotingSystem.sol\":6941:6970  i < candidateAddresses.length */\n      lt\n        /* \"VotingSystem.sol\":6924:7169  for (uint i = 0; i < candidateAddresses.length; i++) {... */\n      iszero\n      tag_62\n      jumpi\n        /* \"VotingSystem.sol\":6992:7018  Candidate memory candidate */\n      0x00\n        /* \"VotingSystem.sol\":7021:7038  candidatesDetails */\n      0x05\n        /* \"VotingSystem.sol\":7021:7061  candidatesDetails[candidateAddresses[i]] */\n      0x00\n        /* \"VotingSystem.sol\":7039:7057  candidateAddresses */\n      0x01\n        /* \"VotingSystem.sol\":7058:7059  i */\n      dup5\n        /* \"VotingSystem.sol\":7039:7060  candidateAddresses[i] */\n      dup2\n      sload\n      dup2\n      lt\n      tag_64\n      jumpi\n      tag_65\n      tag_66\n      jump\t// in\n    tag_65:\n    tag_64:\n      swap1\n      0x00\n      mstore\n      keccak256(0x00, 0x20)\n      add\n      0x00\n      swap1\n      sload\n      swap1\n      0x0100\n      exp\n      swap1\n      div\n      0xffffffffffffffffffffffffffffffffffffffff\n      and\n        /* \"VotingSystem.sol\":7021:7061  candidatesDetails[candidateAddresses[i]] */\n      0xffffffffffffffffffffffffffffffffffffffff\n      and\n      0xffffffffffffffffffffffffffffffffffffffff\n      and\n      dup2\n      mstore\n      0x20\n      add\n      swap1\n      dup2\n      mstore\n      0x20\n      add\n      0x00\n      keccak256\n        /* \"VotingSystem.sol\":6992:7061  Candidate memory candidate = candidatesDetails[candidateAddresses[i]] */\n      mload(0x40)\n      dup1\n      0x80\n      add\n      0x40\n      mstore\n      swap1\n      dup2\n      0x00\n      dup3\n      add\n      dup1\n      sload\n      tag_68\n      swap1\n      tag_69\n      jump\t// in\n    tag_68:\n      dup1\n      0x1f\n      add\n      0x20\n      dup1\n      swap2\n      div\n      mul\n      0x20\n      add\n      mload(0x40)\n      swap1\n      dup2\n      add\n      0x40\n      mstore\n      dup1\n      swap3\n      swap2\n      swap1\n      dup2\n      dup2\n      mstore\n      0x20\n      add\n      dup3\n      dup1\n      sload\n      tag_70\n      swap1\n      tag_69\n      jump\t// in\n    tag_70:\n      dup1\n      iszero\n      tag_71\n      jumpi\n      dup1\n      0x1f\n      lt\n      tag_72\n      jumpi\n      0x0100\n      dup1\n      dup4\n      sload\n      div\n      mul\n      dup4\n      mstore\n      swap2\n      0x20\n      add\n      swap2\n      jump(tag_71)\n    tag_72:\n      dup3\n      add\n      swap2\n      swap1\n      0x00\n      mstore\n      keccak256(0x00, 0x20)\n      swap1\n    tag_73:\n      dup2\n      sload\n      dup2\n      mstore\n      swap1\n      0x01\n      add\n      swap1\n      0x20\n      add\n      dup1\n      dup4\n      gt\n      tag_73\n      jumpi\n      dup3\n      swap1\n      sub\n      0x1f\n      and\n      dup3\n      add\n      swap2\n    tag_71:\n      pop\n      pop\n      pop\n      pop\n      pop\n      dup2\n      mstore\n      0x20\n      add\n      0x01\n      dup3\n      add\n      dup1\n      sload\n      tag_74\n      swap1\n      tag_69\n      jump\t// in\n    tag_74:\n      dup1\n      0x1f\n      add\n      0x20\n      dup1\n      swap2\n      div\n      mul\n      0x20\n      add\n      mload(0x40)\n      swap1\n      dup2\n      add\n      0x40\n      mstore\n      dup1\n      swap3\n      swap2\n      swap1\n      dup2\n      dup2\n      mstore\n      0x20\n      add\n      dup3\n      dup1\n      sload\n      tag_75\n      swap1\n      tag_69\n      jump\t// in\n    tag_75:\n      dup1\n      iszero\n      tag_76\n      jumpi\n      dup1\n      0x1f\n      lt\n      tag_77\n      jumpi\n      0x0100\n      dup1\n      dup4\n      sload\n      div\n      mul\n      dup4\n      mstore\n      swap2\n      0x20\n      add\n      swap2\n      jump(tag_76)\n    tag_77:\n      dup3\n      add\n      swap2\n      swap1\n      0x00\n      mstore\n      keccak256(0x00, 0x20)\n      swap1\n    tag_78:\n      dup2\n      sload\n      dup2\n      mstore\n      swap1\n      0x01\n      add\n      swap1\n      0x20\n      add\n      dup1\n      dup4\n      gt\n      tag_78\n      jumpi\n      dup3\n      swap1\n      sub\n      0x1f\n      and\n      dup3\n      add\n      swap2\n    tag_76:\n      pop\n      pop\n      pop\n      pop\n      pop\n      dup2\n      mstore\n      0x20\n      add\n      0x02\n      dup3\n      add\n      dup1\n      sload\n      tag_79\n      swap1\n      tag_69\n      jump\t// in\n    tag_79:\n      dup1\n      0x1f\n      add\n      0x20\n      dup1\n      swap2\n      div\n      mul\n      0x20\n      add\n      mload(0x40)\n      swap1\n      dup2\n      add\n      0x40\n      mstore\n      dup1\n      swap3\n      swap2\n      swap1\n      dup2\n      dup2\n      mstore\n      0x20\n      add\n      dup3\n      dup1\n      sload\n      tag_80\n      swap1\n      tag_69\n      jump\t// in\n    tag_80:\n      dup1\n      iszero\n      tag_81\n      jumpi\n      dup1\n      0x1f\n      lt\n      tag_82\n      jumpi\n      0x0100\n      dup1\n      dup4\n      sload\n      div\n      mul\n      dup4\n      mstore\n      swap2\n      0x20\n      add\n      swap2\n      jump(tag_81)\n    tag_82:\n      dup3\n      add\n      swap2\n      swap1\n      0x00\n      mstore\n      keccak256(0x00, 0x20)\n      swap1\n    tag_83:\n      dup2\n      sload\n      dup2\n      mstore\n      swap1\n      0x01\n      add\n      swap1\n      0x20\n      add\n      dup1\n      dup4\n      gt\n      tag_83\n      jumpi\n      dup3\n      swap1\n      sub\n      0x1f\n      and\n      dup3\n      add\n      swap2\n    tag_81:\n      pop\n      pop\n      pop\n      pop\n      pop\n      dup2\n      mstore\n      0x20\n      add\n      0x03\n      dup3\n      add\n      sload\n      dup2\n      mstore\n      pop\n      pop\n      swap1\n      pop\n        /* \"VotingSystem.sol\":7116:7125  candidate */\n      dup1\n        /* \"VotingSystem.sol\":7116:7130  candidate.name */\n      0x00\n      add\n      mload\n        /* \"VotingSystem.sol\":7138:7147  candidate */\n      dup2\n        /* \"VotingSystem.sol\":7138:7150  candidate.id */\n      0x20\n      add\n      mload\n        /* \"VotingSystem.sol\":7095:7156  abi.encodePacked(\" \",candidate.name, \" (\", candidate.id, \")\") */\n      add(0x20, mload(0x40))\n      tag_84\n      swap3\n      swap2\n      swap1\n      tag_85\n      jump\t// in\n    tag_84:\n      mload(0x40)\n      0x20\n      dup2\n      dup4\n      sub\n      sub\n      dup2\n      mstore\n      swap1\n      0x40\n      mstore\n        /* \"VotingSystem.sol\":7076:7082  result */\n      dup4\n        /* \"VotingSystem.sol\":7083:7084  i */\n      dup4\n        /* \"VotingSystem.sol\":7076:7085  result[i] */\n      dup2\n      mload\n      dup2\n      lt\n      tag_86\n      jumpi\n      tag_87\n      tag_66\n      jump\t// in\n    tag_87:\n    tag_86:\n      0x20\n      mul\n      0x20\n      add\n      add\n        /* \"VotingSystem.sol\":7076:7157  result[i] = string(abi.encodePacked(\" \",candidate.name, \" (\", candidate.id, \")\")) */\n      dup2\n      swap1\n      mstore\n      pop\n        /* \"VotingSystem.sol\":6977:7169  {... */\n      pop\n        /* \"VotingSystem.sol\":6972:6975  i++ */\n      dup1\n      dup1\n      tag_88\n      swap1\n      tag_89\n      jump\t// in\n    tag_88:\n      swap2\n      pop\n      pop\n        /* \"VotingSystem.sol\":6924:7169  for (uint i = 0; i < candidateAddresses.length; i++) {... */\n      jump(tag_61)\n    tag_62:\n      pop\n        /* \"VotingSystem.sol\":7188:7194  result */\n      dup1\n        /* \"VotingSystem.sol\":7181:7194  return result */\n      swap2\n      pop\n      pop\n        /* \"VotingSystem.sol\":6774:7202  function AllCandidates() public view returns (string[] memory){... */\n      swap1\n      jump\t// out\n        /* \"VotingSystem.sol\":6249:6766  function getCandidateById(string memory _id) public view returns (address, string memory, uint Votes_Received) {... */\n    tag_25:\n        /* \"VotingSystem.sol\":6315:6322  address */\n      0x00\n        /* \"VotingSystem.sol\":6324:6337  string memory */\n      0x60\n        /* \"VotingSystem.sol\":6339:6358  uint Votes_Received */\n      0x00\n        /* \"VotingSystem.sol\":6371:6381  uint count */\n      dup1\n        /* \"VotingSystem.sol\":6384:6414  getRegisteredCandidatesCount() */\n      tag_91\n        /* \"VotingSystem.sol\":6384:6412  getRegisteredCandidatesCount */\n      tag_33\n        /* \"VotingSystem.sol\":6384:6414  getRegisteredCandidatesCount() */\n      jump\t// in\n    tag_91:\n        /* \"VotingSystem.sol\":6371:6414  uint count = getRegisteredCandidatesCount() */\n      swap1\n      pop\n        /* \"VotingSystem.sol\":6432:6438  uint i */\n      0x00\n        /* \"VotingSystem.sol\":6427:6726  for (uint i = 0; i < count; i++){... */\n    tag_92:\n        /* \"VotingSystem.sol\":6448:6453  count */\n      dup2\n        /* \"VotingSystem.sol\":6444:6445  i */\n      dup2\n        /* \"VotingSystem.sol\":6444:6453  i < count */\n      lt\n        /* \"VotingSystem.sol\":6427:6726  for (uint i = 0; i < count; i++){... */\n      iszero\n      tag_93\n      jumpi\n        /* \"VotingSystem.sol\":6480:6518  compareStrings(_id, getCandidateId(i)) */\n      tag_95\n        /* \"VotingSystem.sol\":6495:6498  _id */\n      dup7\n        /* \"VotingSystem.sol\":6500:6517  getCandidateId(i) */\n      tag_96\n        /* \"VotingSystem.sol\":6515:6516  i */\n      dup4\n        /* \"VotingSystem.sol\":6500:6514  getCandidateId */\n      tag_97\n        /* \"VotingSystem.sol\":6500:6517  getCandidateId(i) */\n      jump\t// in\n    tag_96:\n        /* \"VotingSystem.sol\":6480:6494  compareStrings */\n      tag_98\n        /* \"VotingSystem.sol\":6480:6518  compareStrings(_id, getCandidateId(i)) */\n      jump\t// in\n    tag_95:\n        /* \"VotingSystem.sol\":6476:6714  if (compareStrings(_id, getCandidateId(i))) {... */\n      iszero\n      tag_99\n      jumpi\n        /* \"VotingSystem.sol\":6539:6565  Candidate memory candidate */\n      0x00\n        /* \"VotingSystem.sol\":6568:6585  candidatesDetails */\n      0x05\n        /* \"VotingSystem.sol\":6568:6608  candidatesDetails[candidateAddresses[i]] */\n      0x00\n        /* \"VotingSystem.sol\":6586:6604  candidateAddresses */\n      0x01\n        /* \"VotingSystem.sol\":6605:6606  i */\n      dup5\n        /* \"VotingSystem.sol\":6586:6607  candidateAddresses[i] */\n      dup2\n      sload\n      dup2\n      lt\n      tag_100\n      jumpi\n      tag_101\n      tag_66\n      jump\t// in\n    tag_101:\n    tag_100:\n      swap1\n      0x00\n      mstore\n      keccak256(0x00, 0x20)\n      add\n      0x00\n      swap1\n      sload\n      swap1\n      0x0100\n      exp\n      swap1\n      div\n      0xffffffffffffffffffffffffffffffffffffffff\n      and\n        /* \"VotingSystem.sol\":6568:6608  candidatesDetails[candidateAddresses[i]] */\n      0xffffffffffffffffffffffffffffffffffffffff\n      and\n      0xffffffffffffffffffffffffffffffffffffffff\n      and\n      dup2\n      mstore\n      0x20\n      add\n      swap1\n      dup2\n      mstore\n      0x20\n      add\n      0x00\n      keccak256\n        /* \"VotingSystem.sol\":6539:6608  Candidate memory candidate = candidatesDetails[candidateAddresses[i]] */\n      mload(0x40)\n      dup1\n      0x80\n      add\n      0x40\n      mstore\n      swap1\n      dup2\n      0x00\n      dup3\n      add\n      dup1\n      sload\n      tag_103\n      swap1\n      tag_69\n      jump\t// in\n    tag_103:\n      dup1\n      0x1f\n      add\n      0x20\n      dup1\n      swap2\n      div\n      mul\n      0x20\n      add\n      mload(0x40)\n      swap1\n      dup2\n      add\n      0x40\n      mstore\n      dup1\n      swap3\n      swap2\n      swap1\n      dup2\n      dup2\n      mstore\n      0x20\n      add\n      dup3\n      dup1\n      sload\n      tag_104\n      swap1\n      tag_69\n      jump\t// in\n    tag_104:\n      dup1\n      iszero\n      tag_105\n      jumpi\n      dup1\n      0x1f\n      lt\n      tag_106\n      jumpi\n      0x0100\n      dup1\n      dup4\n      sload\n      div\n      mul\n      dup4\n      mstore\n      swap2\n      0x20\n      add\n      swap2\n      jump(tag_105)\n    tag_106:\n      dup3\n      add\n      swap2\n      swap1\n      0x00\n      mstore\n      keccak256(0x00, 0x20)\n      swap1\n    tag_107:\n      dup2\n      sload\n      dup2\n      mstore\n      swap1\n      0x01\n      add\n      swap1\n      0x20\n      add\n      dup1\n      dup4\n      gt\n      tag_107\n      jumpi\n      dup3\n      swap1\n      sub\n      0x1f\n      and\n      dup3\n      add\n      swap2\n    tag_105:\n      pop\n      pop\n      pop\n      pop\n      pop\n      dup2\n      mstore\n      0x20\n      add\n      0x01\n      dup3\n      add\n      dup1\n      sload\n      tag_108\n      swap1\n      tag_69\n      jump\t// in\n    tag_108:\n      dup1\n      0x1f\n      add\n      0x20\n      dup1\n      swap2\n      div\n      mul\n      0x20\n      add\n      mload(0x40)\n      swap1\n      dup2\n      add\n      0x40\n      mstore\n      dup1\n      swap3\n      swap2\n      swap1\n      dup2\n      dup2\n      mstore\n      0x20\n      add\n      dup3\n      dup1\n      sload\n      tag_109\n      swap1\n      tag_69\n      jump\t// in\n    tag_109:\n      dup1\n      iszero\n      tag_110\n      jumpi\n      dup1\n      0x1f\n      lt\n      tag_111\n      jumpi\n      0x0100\n      dup1\n      dup4\n      sload\n      div\n      mul\n      dup4\n      mstore\n      swap2\n      0x20\n      add\n      swap2\n      jump(tag_110)\n    tag_111:\n      dup3\n      add\n      swap2\n      swap1\n      0x00\n      mstore\n      keccak256(0x00, 0x20)\n      swap1\n    tag_112:\n      dup2\n      sload\n      dup2\n      mstore\n      swap1\n      0x01\n      add\n      swap1\n      0x20\n      add\n      dup1\n      dup4\n      gt\n      tag_112\n      jumpi\n      dup3\n      swap1\n      sub\n      0x1f\n      and\n      dup3\n      add\n      swap2\n    tag_110:\n      pop\n      pop\n      pop\n      pop\n      pop\n      dup2\n      mstore\n      0x20\n      add\n      0x02\n      dup3\n      add\n      dup1\n      sload\n      tag_113\n      swap1\n      tag_69\n      jump\t// in\n    tag_113:\n      dup1\n      0x1f\n      add\n      0x20\n      dup1\n      swap2\n      div\n      mul\n      0x20\n      add\n      mload(0x40)\n      swap1\n      dup2\n      add\n      0x40\n      mstore\n      dup1\n      swap3\n      swap2\n      swap1\n      dup2\n      dup2\n      mstore\n      0x20\n      add\n      dup3\n      dup1\n      sload\n      tag_114\n      swap1\n      tag_69\n      jump\t// in\n    tag_114:\n      dup1\n      iszero\n      tag_115\n      jumpi\n      dup1\n      0x1f\n      lt\n      tag_116\n      jumpi\n      0x0100\n      dup1\n      dup4\n      sload\n      div\n      mul\n      dup4\n      mstore\n      swap2\n      0x20\n      add\n      swap2\n      jump(tag_115)\n    tag_116:\n      dup3\n      add\n      swap2\n      swap1\n      0x00\n      mstore\n      keccak256(0x00, 0x20)\n      swap1\n    tag_117:\n      dup2\n      sload\n      dup2\n      mstore\n      swap1\n      0x01\n      add\n      swap1\n      0x20\n      add\n      dup1\n      dup4\n      gt\n      tag_117\n      jumpi\n      dup3\n      swap1\n      sub\n      0x1f\n      and\n      dup3\n      add\n      swap2\n    tag_115:\n      pop\n      pop\n      pop\n      pop\n      pop\n      dup2\n      mstore\n      0x20\n      add\n      0x03\n      dup3\n      add\n      sload\n      dup2\n      mstore\n      pop\n      pop\n      swap1\n      pop\n        /* \"VotingSystem.sol\":6635:6653  candidateAddresses */\n      0x01\n        /* \"VotingSystem.sol\":6654:6655  i */\n      dup3\n        /* \"VotingSystem.sol\":6635:6656  candidateAddresses[i] */\n      dup2\n      sload\n      dup2\n      lt\n      tag_118\n      jumpi\n      tag_119\n      tag_66\n      jump\t// in\n    tag_119:\n    tag_118:\n      swap1\n      0x00\n      mstore\n      keccak256(0x00, 0x20)\n      add\n      0x00\n      swap1\n      sload\n      swap1\n      0x0100\n      exp\n      swap1\n      div\n      0xffffffffffffffffffffffffffffffffffffffff\n      and\n        /* \"VotingSystem.sol\":6658:6667  candidate */\n      dup2\n        /* \"VotingSystem.sol\":6658:6672  candidate.name */\n      0x00\n      add\n      mload\n        /* \"VotingSystem.sol\":6674:6683  candidate */\n      dup3\n        /* \"VotingSystem.sol\":6674:6697  candidate.votesReceived */\n      0x60\n      add\n      mload\n        /* \"VotingSystem.sol\":6627:6698  return (candidateAddresses[i], candidate.name, candidate.votesReceived) */\n      swap6\n      pop\n      swap6\n      pop\n      swap6\n      pop\n      pop\n      pop\n      pop\n      jump(tag_90)\n        /* \"VotingSystem.sol\":6476:6714  if (compareStrings(_id, getCandidateId(i))) {... */\n    tag_99:\n        /* \"VotingSystem.sol\":6455:6458  i++ */\n      dup1\n      dup1\n      tag_121\n      swap1\n      tag_89\n      jump\t// in\n    tag_121:\n      swap2\n      pop\n      pop\n        /* \"VotingSystem.sol\":6427:6726  for (uint i = 0; i < count; i++){... */\n      jump(tag_92)\n    tag_93:\n      pop\n        /* \"VotingSystem.sol\":6736:6758  revert(\"ID not found\") */\n      mload(0x40)\n      0x08c379a000000000000000000000000000000000000000000000000000000000\n      dup2\n      mstore\n      0x04\n      add\n      tag_122\n      swap1\n      tag_123\n      jump\t// in\n    tag_122:\n      mload(0x40)\n      dup1\n      swap2\n      sub\n      swap1\n      revert\n        /* \"VotingSystem.sol\":6249:6766  function getCandidateById(string memory _id) public view returns (address, string memory, uint Votes_Received) {... */\n    tag_90:\n      swap2\n      swap4\n      swap1\n      swap3\n      pop\n      jump\t// out\n        /* \"VotingSystem.sol\":1382:1460  function endElection() public onlyAdmin{... */\n    tag_29:\n        /* \"VotingSystem.sol\":574:579  admin */\n      0x00\n      dup1\n      sload\n      swap1\n      0x0100\n      exp\n      swap1\n      div\n      0xffffffffffffffffffffffffffffffffffffffff\n      and\n        /* \"VotingSystem.sol\":560:579  msg.sender == admin */\n      0xffffffffffffffffffffffffffffffffffffffff\n      and\n        /* \"VotingSystem.sol\":560:570  msg.sender */\n      caller\n        /* \"VotingSystem.sol\":560:579  msg.sender == admin */\n      0xffffffffffffffffffffffffffffffffffffffff\n      and\n      eq\n        /* \"VotingSystem.sol\":552:618  require(msg.sender == admin, \"Only admin can perform this action\") */\n      tag_125\n      jumpi\n      mload(0x40)\n      0x08c379a000000000000000000000000000000000000000000000000000000000\n      dup2\n      mstore\n      0x04\n      add\n      tag_126\n      swap1\n      tag_127\n      jump\t// in\n    tag_126:\n      mload(0x40)\n      dup1\n      swap2\n      sub\n      swap1\n      revert\n    tag_125:\n        /* \"VotingSystem.sol\":1448:1452  true */\n      0x01\n        /* \"VotingSystem.sol\":1432:1445  electionEnded */\n      0x00\n      0x15\n        /* \"VotingSystem.sol\":1432:1452  electionEnded = true */\n      0x0100\n      exp\n      dup2\n      sload\n      dup2\n      0xff\n      mul\n      not\n      and\n      swap1\n      dup4\n      iszero\n      iszero\n      mul\n      or\n      swap1\n      sstore\n      pop\n        /* \"VotingSystem.sol\":1382:1460  function endElection() public onlyAdmin{... */\n      jump\t// out\n        /* \"VotingSystem.sol\":1259:1374  function startElection() public onlyAdmin {... */\n    tag_31:\n        /* \"VotingSystem.sol\":574:579  admin */\n      0x00\n      dup1\n      sload\n      swap1\n      0x0100\n      exp\n      swap1\n      div\n      0xffffffffffffffffffffffffffffffffffffffff\n      and\n        /* \"VotingSystem.sol\":560:579  msg.sender == admin */\n      0xffffffffffffffffffffffffffffffffffffffff\n      and\n        /* \"VotingSystem.sol\":560:570  msg.sender */\n      caller\n        /* \"VotingSystem.sol\":560:579  msg.sender == admin */\n      0xffffffffffffffffffffffffffffffffffffffff\n      and\n      eq\n        /* \"VotingSystem.sol\":552:618  require(msg.sender == admin, \"Only admin can perform this action\") */\n      tag_130\n      jumpi\n      mload(0x40)\n      0x08c379a000000000000000000000000000000000000000000000000000000000\n      dup2\n      mstore\n      0x04\n      add\n      tag_131\n      swap1\n      tag_127\n      jump\t// in\n    tag_131:\n      mload(0x40)\n      dup1\n      swap2\n      sub\n      swap1\n      revert\n    tag_130:\n        /* \"VotingSystem.sol\":1330:1334  true */\n      0x01\n        /* \"VotingSystem.sol\":1312:1327  electionStarted */\n      0x00\n      0x14\n        /* \"VotingSystem.sol\":1312:1334  electionStarted = true */\n      0x0100\n      exp\n      dup2\n      sload\n      dup2\n      0xff\n      mul\n      not\n      and\n      swap1\n      dup4\n      iszero\n      iszero\n      mul\n      or\n      swap1\n      sstore\n      pop\n        /* \"VotingSystem.sol\":1361:1366  false */\n      0x00\n        /* \"VotingSystem.sol\":1345:1358  electionEnded */\n      dup1\n      0x15\n        /* \"VotingSystem.sol\":1345:1366  electionEnded = false */\n      0x0100\n      exp\n      dup2\n      sload\n      dup2\n      0xff\n      mul\n      not\n      and\n      swap1\n      dup4\n      iszero\n      iszero\n      mul\n      or\n      swap1\n      sstore\n      pop\n        /* \"VotingSystem.sol\":1259:1374  function startElection() public onlyAdmin {... */\n      jump\t// out\n        /* \"VotingSystem.sol\":4522:4834  function getRegisteredCandidatesCount() public view returns (uint256) {... */\n    tag_33:\n        /* \"VotingSystem.sol\":4583:4590  uint256 */\n      0x00\n        /* \"VotingSystem.sol\":4603:4616  uint256 count */\n      dup1\n        /* \"VotingSystem.sol\":4619:4620  0 */\n      0x00\n        /* \"VotingSystem.sol\":4603:4620  uint256 count = 0 */\n      swap1\n      pop\n        /* \"VotingSystem.sol\":4636:4645  uint256 i */\n      0x00\n        /* \"VotingSystem.sol\":4631:4804  for (uint256 i = 0; i < candidateAddresses.length; i++) {... */\n    tag_134:\n        /* \"VotingSystem.sol\":4655:4673  candidateAddresses */\n      0x01\n        /* \"VotingSystem.sol\":4655:4680  candidateAddresses.length */\n      dup1\n      sload\n      swap1\n      pop\n        /* \"VotingSystem.sol\":4651:4652  i */\n      dup2\n        /* \"VotingSystem.sol\":4651:4680  i < candidateAddresses.length */\n      lt\n        /* \"VotingSystem.sol\":4631:4804  for (uint256 i = 0; i < candidateAddresses.length; i++) {... */\n      iszero\n      tag_135\n      jumpi\n        /* \"VotingSystem.sol\":4706:4726  registeredCandidates */\n      0x04\n        /* \"VotingSystem.sol\":4706:4749  registeredCandidates[candidateAddresses[i]] */\n      0x00\n        /* \"VotingSystem.sol\":4727:4745  candidateAddresses */\n      0x01\n        /* \"VotingSystem.sol\":4746:4747  i */\n      dup4\n        /* \"VotingSystem.sol\":4727:4748  candidateAddresses[i] */\n      dup2\n      sload\n      dup2\n      lt\n      tag_137\n      jumpi\n      tag_138\n      tag_66\n      jump\t// in\n    tag_138:\n    tag_137:\n      swap1\n      0x00\n      mstore\n      keccak256(0x00, 0x20)\n      add\n      0x00\n      swap1\n      sload\n      swap1\n      0x0100\n      exp\n      swap1\n      div\n      0xffffffffffffffffffffffffffffffffffffffff\n      and\n        /* \"VotingSystem.sol\":4706:4749  registeredCandidates[candidateAddresses[i]] */\n      0xffffffffffffffffffffffffffffffffffffffff\n      and\n      0xffffffffffffffffffffffffffffffffffffffff\n      and\n      dup2\n      mstore\n      0x20\n      add\n      swap1\n      dup2\n      mstore\n      0x20\n      add\n      0x00\n      keccak256\n      0x00\n      swap1\n      sload\n      swap1\n      0x0100\n      exp\n      swap1\n      div\n      0xff\n      and\n        /* \"VotingSystem.sol\":4702:4793  if (registeredCandidates[candidateAddresses[i]]) {... */\n      iszero\n      tag_140\n      jumpi\n        /* \"VotingSystem.sol\":4770:4777  count++ */\n      dup2\n      dup1\n      tag_141\n      swap1\n      tag_89\n      jump\t// in\n    tag_141:\n      swap3\n      pop\n      pop\n        /* \"VotingSystem.sol\":4702:4793  if (registeredCandidates[candidateAddresses[i]]) {... */\n    tag_140:\n        /* \"VotingSystem.sol\":4682:4685  i++ */\n      dup1\n      dup1\n      tag_142\n      swap1\n      tag_89\n      jump\t// in\n    tag_142:\n      swap2\n      pop\n      pop\n        /* \"VotingSystem.sol\":4631:4804  for (uint256 i = 0; i < candidateAddresses.length; i++) {... */\n      jump(tag_134)\n    tag_135:\n      pop\n        /* \"VotingSystem.sol\":4821:4826  count */\n      dup1\n        /* \"VotingSystem.sol\":4814:4826  return count */\n      swap2\n      pop\n      pop\n        /* \"VotingSystem.sol\":4522:4834  function getRegisteredCandidatesCount() public view returns (uint256) {... */\n      swap1\n      jump\t// out\n        /* \"VotingSystem.sol\":4842:4930  function registerAsVoter() public {... */\n    tag_37:\n        /* \"VotingSystem.sol\":4918:4922  true */\n      0x01\n        /* \"VotingSystem.sol\":4887:4903  registeredVoters */\n      0x02\n        /* \"VotingSystem.sol\":4887:4915  registeredVoters[msg.sender] */\n      0x00\n        /* \"VotingSystem.sol\":4904:4914  msg.sender */\n      caller\n        /* \"VotingSystem.sol\":4887:4915  registeredVoters[msg.sender] */\n      0xffffffffffffffffffffffffffffffffffffffff\n      and\n      0xffffffffffffffffffffffffffffffffffffffff\n      and\n      dup2\n      mstore\n      0x20\n      add\n      swap1\n      dup2\n      mstore\n      0x20\n      add\n      0x00\n      keccak256\n      0x00\n        /* \"VotingSystem.sol\":4887:4922  registeredVoters[msg.sender] = true */\n      0x0100\n      exp\n      dup2\n      sload\n      dup2\n      0xff\n      mul\n      not\n      and\n      swap1\n      dup4\n      iszero\n      iszero\n      mul\n      or\n      swap1\n      sstore\n      pop\n        /* \"VotingSystem.sol\":4842:4930  function registerAsVoter() public {... */\n      jump\t// out\n        /* \"VotingSystem.sol\":7212:8017  function Winner() public view returns (string memory) {... */\n    tag_39:\n        /* \"VotingSystem.sol\":7251:7264  string memory */\n      0x60\n        /* \"VotingSystem.sol\":7285:7298  electionEnded */\n      0x00\n      0x15\n      swap1\n      sload\n      swap1\n      0x0100\n      exp\n      swap1\n      div\n      0xff\n      and\n        /* \"VotingSystem.sol\":7277:7326  require(electionEnded, \"Election in progress...\") */\n      tag_145\n      jumpi\n      mload(0x40)\n      0x08c379a000000000000000000000000000000000000000000000000000000000\n      dup2\n      mstore\n      0x04\n      add\n      tag_146\n      swap1\n      tag_147\n      jump\t// in\n    tag_146:\n      mload(0x40)\n      dup1\n      swap2\n      sub\n      swap1\n      revert\n    tag_145:\n        /* \"VotingSystem.sol\":7337:7353  uint256 maxVotes */\n      0x00\n        /* \"VotingSystem.sol\":7368:7392  address winningCandidate */\n      dup1\n        /* \"VotingSystem.sol\":7403:7413  uint count */\n      dup1\n        /* \"VotingSystem.sol\":7416:7417  0 */\n      0x00\n        /* \"VotingSystem.sol\":7403:7417  uint count = 0 */\n      swap1\n      pop\n        /* \"VotingSystem.sol\":7435:7444  uint256 i */\n      0x00\n        /* \"VotingSystem.sol\":7430:7861  for (uint256 i = 0; i < candidateAddresses.length; i++) {... */\n    tag_148:\n        /* \"VotingSystem.sol\":7454:7472  candidateAddresses */\n      0x01\n        /* \"VotingSystem.sol\":7454:7479  candidateAddresses.length */\n      dup1\n      sload\n      swap1\n      pop\n        /* \"VotingSystem.sol\":7450:7451  i */\n      dup2\n        /* \"VotingSystem.sol\":7450:7479  i < candidateAddresses.length */\n      lt\n        /* \"VotingSystem.sol\":7430:7861  for (uint256 i = 0; i < candidateAddresses.length; i++) {... */\n      iszero\n      tag_149\n      jumpi\n        /* \"VotingSystem.sol\":7562:7570  maxVotes */\n      dup4\n        /* \"VotingSystem.sol\":7505:7522  candidatesDetails */\n      0x05\n        /* \"VotingSystem.sol\":7505:7545  candidatesDetails[candidateAddresses[i]] */\n      0x00\n        /* \"VotingSystem.sol\":7523:7541  candidateAddresses */\n      0x01\n        /* \"VotingSystem.sol\":7542:7543  i */\n      dup5\n        /* \"VotingSystem.sol\":7523:7544  candidateAddresses[i] */\n      dup2\n      sload\n      dup2\n      lt\n      tag_151\n      jumpi\n      tag_152\n      tag_66\n      jump\t// in\n    tag_152:\n    tag_151:\n      swap1\n      0x00\n      mstore\n      keccak256(0x00, 0x20)\n      add\n      0x00\n      swap1\n      sload\n      swap1\n      0x0100\n      exp\n      swap1\n      div\n      0xffffffffffffffffffffffffffffffffffffffff\n      and\n        /* \"VotingSystem.sol\":7505:7545  candidatesDetails[candidateAddresses[i]] */\n      0xffffffffffffffffffffffffffffffffffffffff\n      and\n      0xffffffffffffffffffffffffffffffffffffffff\n      and\n      dup2\n      mstore\n      0x20\n      add\n      swap1\n      dup2\n      mstore\n      0x20\n      add\n      0x00\n      keccak256\n        /* \"VotingSystem.sol\":7505:7559  candidatesDetails[candidateAddresses[i]].votesReceived */\n      0x03\n      add\n      sload\n        /* \"VotingSystem.sol\":7505:7570  candidatesDetails[candidateAddresses[i]].votesReceived > maxVotes */\n      gt\n        /* \"VotingSystem.sol\":7501:7850  if (candidatesDetails[candidateAddresses[i]].votesReceived > maxVotes) {... */\n      iszero\n      tag_154\n      jumpi\n        /* \"VotingSystem.sol\":7602:7619  candidatesDetails */\n      0x05\n        /* \"VotingSystem.sol\":7602:7642  candidatesDetails[candidateAddresses[i]] */\n      0x00\n        /* \"VotingSystem.sol\":7620:7638  candidateAddresses */\n      0x01\n        /* \"VotingSystem.sol\":7639:7640  i */\n      dup4\n        /* \"VotingSystem.sol\":7620:7641  candidateAddresses[i] */\n      dup2\n      sload\n      dup2\n      lt\n      tag_155\n      jumpi\n      tag_156\n      tag_66\n      jump\t// in\n    tag_156:\n    tag_155:\n      swap1\n      0x00\n      mstore\n      keccak256(0x00, 0x20)\n      add\n      0x00\n      swap1\n      sload\n      swap1\n      0x0100\n      exp\n      swap1\n      div\n      0xffffffffffffffffffffffffffffffffffffffff\n      and\n        /* \"VotingSystem.sol\":7602:7642  candidatesDetails[candidateAddresses[i]] */\n      0xffffffffffffffffffffffffffffffffffffffff\n      and\n      0xffffffffffffffffffffffffffffffffffffffff\n      and\n      dup2\n      mstore\n      0x20\n      add\n      swap1\n      dup2\n      mstore\n      0x20\n      add\n      0x00\n      keccak256\n        /* \"VotingSystem.sol\":7602:7656  candidatesDetails[candidateAddresses[i]].votesReceived */\n      0x03\n      add\n      sload\n        /* \"VotingSystem.sol\":7591:7656  maxVotes = candidatesDetails[candidateAddresses[i]].votesReceived */\n      swap4\n      pop\n        /* \"VotingSystem.sol\":7694:7712  candidateAddresses */\n      0x01\n        /* \"VotingSystem.sol\":7713:7714  i */\n      dup2\n        /* \"VotingSystem.sol\":7694:7715  candidateAddresses[i] */\n      dup2\n      sload\n      dup2\n      lt\n      tag_158\n      jumpi\n      tag_159\n      tag_66\n      jump\t// in\n    tag_159:\n    tag_158:\n      swap1\n      0x00\n      mstore\n      keccak256(0x00, 0x20)\n      add\n      0x00\n      swap1\n      sload\n      swap1\n      0x0100\n      exp\n      swap1\n      div\n      0xffffffffffffffffffffffffffffffffffffffff\n      and\n        /* \"VotingSystem.sol\":7675:7715  winningCandidate = candidateAddresses[i] */\n      swap3\n      pop\n        /* \"VotingSystem.sol\":7501:7850  if (candidatesDetails[candidateAddresses[i]].votesReceived > maxVotes) {... */\n      jump(tag_161)\n    tag_154:\n        /* \"VotingSystem.sol\":7799:7807  maxVotes */\n      dup4\n        /* \"VotingSystem.sol\":7741:7758  candidatesDetails */\n      0x05\n        /* \"VotingSystem.sol\":7741:7781  candidatesDetails[candidateAddresses[i]] */\n      0x00\n        /* \"VotingSystem.sol\":7759:7777  candidateAddresses */\n      0x01\n        /* \"VotingSystem.sol\":7778:7779  i */\n      dup5\n        /* \"VotingSystem.sol\":7759:7780  candidateAddresses[i] */\n      dup2\n      sload\n      dup2\n      lt\n      tag_162\n      jumpi\n      tag_163\n      tag_66\n      jump\t// in\n    tag_163:\n    tag_162:\n      swap1\n      0x00\n      mstore\n      keccak256(0x00, 0x20)\n      add\n      0x00\n      swap1\n      sload\n      swap1\n      0x0100\n      exp\n      swap1\n      div\n      0xffffffffffffffffffffffffffffffffffffffff\n      and\n        /* \"VotingSystem.sol\":7741:7781  candidatesDetails[candidateAddresses[i]] */\n      0xffffffffffffffffffffffffffffffffffffffff\n      and\n      0xffffffffffffffffffffffffffffffffffffffff\n      and\n      dup2\n      mstore\n      0x20\n      add\n      swap1\n      dup2\n      mstore\n      0x20\n      add\n      0x00\n      keccak256\n        /* \"VotingSystem.sol\":7741:7795  candidatesDetails[candidateAddresses[i]].votesReceived */\n      0x03\n      add\n      sload\n        /* \"VotingSystem.sol\":7741:7807  candidatesDetails[candidateAddresses[i]].votesReceived == maxVotes */\n      sub\n        /* \"VotingSystem.sol\":7737:7850  if (candidatesDetails[candidateAddresses[i]].votesReceived == maxVotes) {... */\n      tag_165\n      jumpi\n        /* \"VotingSystem.sol\":7827:7834  count++ */\n      dup2\n      dup1\n      tag_166\n      swap1\n      tag_89\n      jump\t// in\n    tag_166:\n      swap3\n      pop\n      pop\n        /* \"VotingSystem.sol\":7737:7850  if (candidatesDetails[candidateAddresses[i]].votesReceived == maxVotes) {... */\n    tag_165:\n        /* \"VotingSystem.sol\":7501:7850  if (candidatesDetails[candidateAddresses[i]].votesReceived > maxVotes) {... */\n    tag_161:\n        /* \"VotingSystem.sol\":7481:7484  i++ */\n      dup1\n      dup1\n      tag_167\n      swap1\n      tag_89\n      jump\t// in\n    tag_167:\n      swap2\n      pop\n      pop\n        /* \"VotingSystem.sol\":7430:7861  for (uint256 i = 0; i < candidateAddresses.length; i++) {... */\n      jump(tag_148)\n    tag_149:\n      pop\n        /* \"VotingSystem.sol\":7886:7887  1 */\n      0x01\n        /* \"VotingSystem.sol\":7877:7882  count */\n      dup2\n        /* \"VotingSystem.sol\":7877:7887  count >= 1 */\n      lt\n        /* \"VotingSystem.sol\":7873:7950  if (count >= 1) {... */\n      tag_168\n      jumpi\n        /* \"VotingSystem.sol\":7908:7934  return(\"Election Tied...\") */\n      mload(0x40)\n      dup1\n      0x40\n      add\n      0x40\n      mstore\n      dup1\n      0x10\n      dup2\n      mstore\n      0x20\n      add\n      0x456c656374696f6e20546965642e2e2e00000000000000000000000000000000\n      dup2\n      mstore\n      pop\n      swap4\n      pop\n      pop\n      pop\n      pop\n      jump(tag_144)\n        /* \"VotingSystem.sol\":7873:7950  if (count >= 1) {... */\n    tag_168:\n        /* \"VotingSystem.sol\":7969:7986  candidatesDetails */\n      0x05\n        /* \"VotingSystem.sol\":7969:8004  candidatesDetails[winningCandidate] */\n      0x00\n        /* \"VotingSystem.sol\":7987:8003  winningCandidate */\n      dup4\n        /* \"VotingSystem.sol\":7969:8004  candidatesDetails[winningCandidate] */\n      0xffffffffffffffffffffffffffffffffffffffff\n      and\n      0xffffffffffffffffffffffffffffffffffffffff\n      and\n      dup2\n      mstore\n      0x20\n      add\n      swap1\n      dup2\n      mstore\n      0x20\n      add\n      0x00\n      keccak256\n        /* \"VotingSystem.sol\":7969:8009  candidatesDetails[winningCandidate].name */\n      0x00\n      add\n        /* \"VotingSystem.sol\":7962:8009  return candidatesDetails[winningCandidate].name */\n      dup1\n      sload\n      tag_169\n      swap1\n      tag_69\n      jump\t// in\n    tag_169:\n      dup1\n      0x1f\n      add\n      0x20\n      dup1\n      swap2\n      div\n      mul\n      0x20\n      add\n      mload(0x40)\n      swap1\n      dup2\n      add\n      0x40\n      mstore\n      dup1\n      swap3\n      swap2\n      swap1\n      dup2\n      dup2\n      mstore\n      0x20\n      add\n      dup3\n      dup1\n      sload\n      tag_170\n      swap1\n      tag_69\n      jump\t// in\n    tag_170:\n      dup1\n      iszero\n      tag_171\n      jumpi\n      dup1\n      0x1f\n      lt\n      tag_172\n      jumpi\n      0x0100\n      dup1\n      dup4\n      sload\n      div\n      mul\n      dup4\n      mstore\n      swap2\n      0x20\n      add\n      swap2\n      jump(tag_171)\n    tag_172:\n      dup3\n      add\n      swap2\n      swap1\n      0x00\n      mstore\n      keccak256(0x00, 0x20)\n      swap1\n    tag_173:\n      dup2\n      sload\n      dup2\n      mstore\n      swap1\n      0x01\n      add\n      swap1\n      0x20\n      add\n      dup1\n      dup4\n      gt\n      tag_173\n      jumpi\n      dup3\n      swap1\n      sub\n      0x1f\n      and\n      dup3\n      add\n      swap2\n    tag_171:\n      pop\n      pop\n      pop\n      pop\n      pop\n      swap4\n      pop\n      pop\n      pop\n      pop\n        /* \"VotingSystem.sol\":7212:8017  function Winner() public view returns (string memory) {... */\n    tag_144:\n      swap1\n      jump\t// out\n        /* \"VotingSystem.sol\":5793:5945  function viewVoterDetails() public view returns(bool Registered, bool Voted) {... */\n    tag_43:\n        /* \"VotingSystem.sol\":5841:5856  bool Registered */\n      0x00\n        /* \"VotingSystem.sol\":5858:5868  bool Voted */\n      dup1\n        /* \"VotingSystem.sol\":5889:5905  registeredVoters */\n      0x02\n        /* \"VotingSystem.sol\":5889:5917  registeredVoters[msg.sender] */\n      0x00\n        /* \"VotingSystem.sol\":5906:5916  msg.sender */\n      caller\n        /* \"VotingSystem.sol\":5889:5917  registeredVoters[msg.sender] */\n      0xffffffffffffffffffffffffffffffffffffffff\n      and\n      0xffffffffffffffffffffffffffffffffffffffff\n      and\n      dup2\n      mstore\n      0x20\n      add\n      swap1\n      dup2\n      mstore\n      0x20\n      add\n      0x00\n      keccak256\n      0x00\n      swap1\n      sload\n      swap1\n      0x0100\n      exp\n      swap1\n      div\n      0xff\n      and\n        /* \"VotingSystem.sol\":5919:5924  voted */\n      0x03\n        /* \"VotingSystem.sol\":5919:5936  voted[msg.sender] */\n      0x00\n        /* \"VotingSystem.sol\":5925:5935  msg.sender */\n      caller\n        /* \"VotingSystem.sol\":5919:5936  voted[msg.sender] */\n      0xffffffffffffffffffffffffffffffffffffffff\n      and\n      0xffffffffffffffffffffffffffffffffffffffff\n      and\n      dup2\n      mstore\n      0x20\n      add\n      swap1\n      dup2\n      mstore\n      0x20\n      add\n      0x00\n      keccak256\n      0x00\n      swap1\n      sload\n      swap1\n      0x0100\n      exp\n      swap1\n      div\n      0xff\n      and\n        /* \"VotingSystem.sol\":5881:5937  return (registeredVoters[msg.sender], voted[msg.sender]) */\n      swap2\n      pop\n      swap2\n      pop\n        /* \"VotingSystem.sol\":5793:5945  function viewVoterDetails() public view returns(bool Registered, bool Voted) {... */\n      swap1\n      swap2\n      jump\t// out\n        /* \"VotingSystem.sol\":5341:5784  function voteById(string memory _idOrAddress) public electionInProgress {... */\n    tag_48:\n        /* \"VotingSystem.sol\":990:1005  electionStarted */\n      0x00\n      0x14\n      swap1\n      sload\n      swap1\n      0x0100\n      exp\n      swap1\n      div\n      0xff\n      and\n        /* \"VotingSystem.sol\":981:1034  require (electionStarted, \"Election has not started\") */\n      tag_176\n      jumpi\n      mload(0x40)\n      0x08c379a000000000000000000000000000000000000000000000000000000000\n      dup2\n      mstore\n      0x04\n      add\n      tag_177\n      swap1\n      tag_178\n      jump\t// in\n    tag_177:\n      mload(0x40)\n      dup1\n      swap2\n      sub\n      swap1\n      revert\n    tag_176:\n        /* \"VotingSystem.sol\":1054:1067  electionEnded */\n      0x00\n      0x15\n      swap1\n      sload\n      swap1\n      0x0100\n      exp\n      swap1\n      div\n      0xff\n      and\n        /* \"VotingSystem.sol\":1053:1067  !electionEnded */\n      iszero\n        /* \"VotingSystem.sol\":1045:1098  require(!electionEnded, \"Election has already ended\") */\n      tag_179\n      jumpi\n      mload(0x40)\n      0x08c379a000000000000000000000000000000000000000000000000000000000\n      dup2\n      mstore\n      0x04\n      add\n      tag_180\n      swap1\n      tag_181\n      jump\t// in\n    tag_180:\n      mload(0x40)\n      dup1\n      swap2\n      sub\n      swap1\n      revert\n    tag_179:\n        /* \"VotingSystem.sol\":5458:5460  42 */\n      0x2a\n        /* \"VotingSystem.sol\":5434:5446  _idOrAddress */\n      dup2\n        /* \"VotingSystem.sol\":5428:5454  bytes(_idOrAddress).length */\n      mload\n        /* \"VotingSystem.sol\":5428:5460  bytes(_idOrAddress).length == 42 */\n      sub\n        /* \"VotingSystem.sol\":5424:5777  if (bytes(_idOrAddress).length == 42) { // Assuming addresses are 42 characters long (including '0x' prefix)... */\n      tag_183\n      jumpi\n        /* \"VotingSystem.sol\":5546:5570  address candidateAddress */\n      0x00\n        /* \"VotingSystem.sol\":5573:5602  stringToAddress(_idOrAddress) */\n      tag_184\n        /* \"VotingSystem.sol\":5589:5601  _idOrAddress */\n      dup3\n        /* \"VotingSystem.sol\":5573:5588  stringToAddress */\n      tag_185\n        /* \"VotingSystem.sol\":5573:5602  stringToAddress(_idOrAddress) */\n      jump\t// in\n    tag_184:\n        /* \"VotingSystem.sol\":5546:5602  address candidateAddress = stringToAddress(_idOrAddress) */\n      swap1\n      pop\n        /* \"VotingSystem.sol\":5617:5639  vote(candidateAddress) */\n      tag_186\n        /* \"VotingSystem.sol\":5622:5638  candidateAddress */\n      dup2\n        /* \"VotingSystem.sol\":5617:5621  vote */\n      tag_187\n        /* \"VotingSystem.sol\":5617:5639  vote(candidateAddress) */\n      jump\t// in\n    tag_186:\n        /* \"VotingSystem.sol\":5462:5651  { // Assuming addresses are 42 characters long (including '0x' prefix)... */\n      pop\n        /* \"VotingSystem.sol\":5424:5777  if (bytes(_idOrAddress).length == 42) { // Assuming addresses are 42 characters long (including '0x' prefix)... */\n      jump(tag_188)\n    tag_183:\n        /* \"VotingSystem.sol\":5673:5694  address returnAddress */\n      0x00\n        /* \"VotingSystem.sol\":5701:5731  getCandidateById(_idOrAddress) */\n      tag_189\n        /* \"VotingSystem.sol\":5718:5730  _idOrAddress */\n      dup3\n        /* \"VotingSystem.sol\":5701:5717  getCandidateById */\n      tag_25\n        /* \"VotingSystem.sol\":5701:5731  getCandidateById(_idOrAddress) */\n      jump\t// in\n    tag_189:\n        /* \"VotingSystem.sol\":5672:5731  (address returnAddress, ,) = getCandidateById(_idOrAddress) */\n      pop\n      pop\n      swap1\n      pop\n        /* \"VotingSystem.sol\":5746:5765  vote(returnAddress) */\n      tag_190\n        /* \"VotingSystem.sol\":5751:5764  returnAddress */\n      dup2\n        /* \"VotingSystem.sol\":5746:5750  vote */\n      tag_187\n        /* \"VotingSystem.sol\":5746:5765  vote(returnAddress) */\n      jump\t// in\n    tag_190:\n        /* \"VotingSystem.sol\":5657:5777  {... */\n      pop\n        /* \"VotingSystem.sol\":5424:5777  if (bytes(_idOrAddress).length == 42) { // Assuming addresses are 42 characters long (including '0x' prefix)... */\n    tag_188:\n        /* \"VotingSystem.sol\":5341:5784  function voteById(string memory _idOrAddress) public electionInProgress {... */\n      pop\n      jump\t// out\n        /* \"VotingSystem.sol\":3868:4266  function registerCandidate(address _candidate, string memory _name, string memory _proposal) internal {... */\n    tag_54:\n        /* \"VotingSystem.sol\":4016:4020  true */\n      0x01\n        /* \"VotingSystem.sol\":3981:4001  registeredCandidates */\n      0x04\n        /* \"VotingSystem.sol\":3981:4013  registeredCandidates[_candidate] */\n      0x00\n        /* \"VotingSystem.sol\":4002:4012  _candidate */\n      dup6\n        /* \"VotingSystem.sol\":3981:4013  registeredCandidates[_candidate] */\n      0xffffffffffffffffffffffffffffffffffffffff\n      and\n      0xffffffffffffffffffffffffffffffffffffffff\n      and\n      dup2\n      mstore\n      0x20\n      add\n      swap1\n      dup2\n      mstore\n      0x20\n      add\n      0x00\n      keccak256\n      0x00\n        /* \"VotingSystem.sol\":3981:4020  registeredCandidates[_candidate] = true */\n      0x0100\n      exp\n      dup2\n      sload\n      dup2\n      0xff\n      mul\n      not\n      and\n      swap1\n      dup4\n      iszero\n      iszero\n      mul\n      or\n      swap1\n      sstore\n      pop\n        /* \"VotingSystem.sol\":4065:4212  Candidate({... */\n      mload(0x40)\n      dup1\n      0x80\n      add\n      0x40\n      mstore\n      dup1\n        /* \"VotingSystem.sol\":4096:4101  _name */\n      dup4\n        /* \"VotingSystem.sol\":4065:4212  Candidate({... */\n      dup2\n      mstore\n      0x20\n      add\n        /* \"VotingSystem.sol\":4120:4135  createId(_name) */\n      tag_192\n        /* \"VotingSystem.sol\":4129:4134  _name */\n      dup5\n        /* \"VotingSystem.sol\":4120:4128  createId */\n      tag_193\n        /* \"VotingSystem.sol\":4120:4135  createId(_name) */\n      jump\t// in\n    tag_192:\n        /* \"VotingSystem.sol\":4065:4212  Candidate({... */\n      dup2\n      mstore\n      0x20\n      add\n        /* \"VotingSystem.sol\":4160:4169  _proposal */\n      dup3\n        /* \"VotingSystem.sol\":4065:4212  Candidate({... */\n      dup2\n      mstore\n      0x20\n      add\n        /* \"VotingSystem.sol\":4199:4200  0 */\n      0x00\n        /* \"VotingSystem.sol\":4065:4212  Candidate({... */\n      dup2\n      mstore\n      pop\n        /* \"VotingSystem.sol\":4033:4050  candidatesDetails */\n      0x05\n        /* \"VotingSystem.sol\":4033:4062  candidatesDetails[_candidate] */\n      0x00\n        /* \"VotingSystem.sol\":4051:4061  _candidate */\n      dup6\n        /* \"VotingSystem.sol\":4033:4062  candidatesDetails[_candidate] */\n      0xffffffffffffffffffffffffffffffffffffffff\n      and\n      0xffffffffffffffffffffffffffffffffffffffff\n      and\n      dup2\n      mstore\n      0x20\n      add\n      swap1\n      dup2\n      mstore\n      0x20\n      add\n      0x00\n      keccak256\n        /* \"VotingSystem.sol\":4033:4212  candidatesDetails[_candidate] = Candidate({... */\n      0x00\n      dup3\n      add\n      mload\n      dup2\n      0x00\n      add\n      swap1\n      dup2\n      tag_194\n      swap2\n      swap1\n      tag_195\n      jump\t// in\n    tag_194:\n      pop\n      0x20\n      dup3\n      add\n      mload\n      dup2\n      0x01\n      add\n      swap1\n      dup2\n      tag_196\n      swap2\n      swap1\n      tag_195\n      jump\t// in\n    tag_196:\n      pop\n      0x40\n      dup3\n      add\n      mload\n      dup2\n      0x02\n      add\n      swap1\n      dup2\n      tag_197\n      swap2\n      swap1\n      tag_195\n      jump\t// in\n    tag_197:\n      pop\n      0x60\n      dup3\n      add\n      mload\n      dup2\n      0x03\n      add\n      sstore\n      swap1\n      pop\n      pop\n        /* \"VotingSystem.sol\":4223:4241  candidateAddresses */\n      0x01\n        /* \"VotingSystem.sol\":4247:4257  _candidate */\n      dup4\n        /* \"VotingSystem.sol\":4223:4258  candidateAddresses.push(_candidate) */\n      swap1\n      dup1\n      0x01\n      dup2\n      sload\n      add\n      dup1\n      dup3\n      sstore\n      dup1\n      swap2\n      pop\n      pop\n      0x01\n      swap1\n      sub\n      swap1\n      0x00\n      mstore\n      keccak256(0x00, 0x20)\n      add\n      0x00\n      swap1\n      swap2\n      swap1\n      swap2\n      swap1\n      swap2\n      0x0100\n      exp\n      dup2\n      sload\n      dup2\n      0xffffffffffffffffffffffffffffffffffffffff\n      mul\n      not\n      and\n      swap1\n      dup4\n      0xffffffffffffffffffffffffffffffffffffffff\n      and\n      mul\n      or\n      swap1\n      sstore\n      pop\n        /* \"VotingSystem.sol\":3868:4266  function registerCandidate(address _candidate, string memory _name, string memory _proposal) internal {... */\n      pop\n      pop\n      pop\n      jump\t// out\n        /* \"VotingSystem.sol\":5953:6241  function getCandidateId(uint256 index) internal view returns (string memory) {... */\n    tag_97:\n        /* \"VotingSystem.sol\":6015:6028  string memory */\n      0x60\n        /* \"VotingSystem.sol\":6057:6075  candidateAddresses */\n      0x01\n        /* \"VotingSystem.sol\":6057:6082  candidateAddresses.length */\n      dup1\n      sload\n      swap1\n      pop\n        /* \"VotingSystem.sol\":6049:6054  index */\n      dup3\n        /* \"VotingSystem.sol\":6049:6082  index < candidateAddresses.length */\n      lt\n        /* \"VotingSystem.sol\":6041:6115  require(index < candidateAddresses.length, \"Candidate index out of range\") */\n      tag_200\n      jumpi\n      mload(0x40)\n      0x08c379a000000000000000000000000000000000000000000000000000000000\n      dup2\n      mstore\n      0x04\n      add\n      tag_201\n      swap1\n      tag_202\n      jump\t// in\n    tag_201:\n      mload(0x40)\n      dup1\n      swap2\n      sub\n      swap1\n      revert\n    tag_200:\n        /* \"VotingSystem.sol\":6128:6154  Candidate memory candidate */\n      0x00\n        /* \"VotingSystem.sol\":6157:6174  candidatesDetails */\n      0x05\n        /* \"VotingSystem.sol\":6157:6201  candidatesDetails[candidateAddresses[index]] */\n      0x00\n        /* \"VotingSystem.sol\":6175:6193  candidateAddresses */\n      0x01\n        /* \"VotingSystem.sol\":6194:6199  index */\n      dup6\n        /* \"VotingSystem.sol\":6175:6200  candidateAddresses[index] */\n      dup2\n      sload\n      dup2\n      lt\n      tag_203\n      jumpi\n      tag_204\n      tag_66\n      jump\t// in\n    tag_204:\n    tag_203:\n      swap1\n      0x00\n      mstore\n      keccak256(0x00, 0x20)\n      add\n      0x00\n      swap1\n      sload\n      swap1\n      0x0100\n      exp\n      swap1\n      div\n      0xffffffffffffffffffffffffffffffffffffffff\n      and\n        /* \"VotingSystem.sol\":6157:6201  candidatesDetails[candidateAddresses[index]] */\n      0xffffffffffffffffffffffffffffffffffffffff\n      and\n      0xffffffffffffffffffffffffffffffffffffffff\n      and\n      dup2\n      mstore\n      0x20\n      add\n      swap1\n      dup2\n      mstore\n      0x20\n      add\n      0x00\n      keccak256\n        /* \"VotingSystem.sol\":6128:6201  Candidate memory candidate = candidatesDetails[candidateAddresses[index]] */\n      mload(0x40)\n      dup1\n      0x80\n      add\n      0x40\n      mstore\n      swap1\n      dup2\n      0x00\n      dup3\n      add\n      dup1\n      sload\n      tag_206\n      swap1\n      tag_69\n      jump\t// in\n    tag_206:\n      dup1\n      0x1f\n      add\n      0x20\n      dup1\n      swap2\n      div\n      mul\n      0x20\n      add\n      mload(0x40)\n      swap1\n      dup2\n      add\n      0x40\n      mstore\n      dup1\n      swap3\n      swap2\n      swap1\n      dup2\n      dup2\n      mstore\n      0x20\n      add\n      dup3\n      dup1\n      sload\n      tag_207\n      swap1\n      tag_69\n      jump\t// in\n    tag_207:\n      dup1\n      iszero\n      tag_208\n      jumpi\n      dup1\n      0x1f\n      lt\n      tag_209\n      jumpi\n      0x0100\n      dup1\n      dup4\n      sload\n      div\n      mul\n      dup4\n      mstore\n      swap2\n      0x20\n      add\n      swap2\n      jump(tag_208)\n    tag_209:\n      dup3\n      add\n      swap2\n      swap1\n      0x00\n      mstore\n      keccak256(0x00, 0x20)\n      swap1\n    tag_210:\n      dup2\n      sload\n      dup2\n      mstore\n      swap1\n      0x01\n      add\n      swap1\n      0x20\n      add\n      dup1\n      dup4\n      gt\n      tag_210\n      jumpi\n      dup3\n      swap1\n      sub\n      0x1f\n      and\n      dup3\n      add\n      swap2\n    tag_208:\n      pop\n      pop\n      pop\n      pop\n      pop\n      dup2\n      mstore\n      0x20\n      add\n      0x01\n      dup3\n      add\n      dup1\n      sload\n      tag_211\n      swap1\n      tag_69\n      jump\t// in\n    tag_211:\n      dup1\n      0x1f\n      add\n      0x20\n      dup1\n      swap2\n      div\n      mul\n      0x20\n      add\n      mload(0x40)\n      swap1\n      dup2\n      add\n      0x40\n      mstore\n      dup1\n      swap3\n      swap2\n      swap1\n      dup2\n      dup2\n      mstore\n      0x20\n      add\n      dup3\n      dup1\n      sload\n      tag_212\n      swap1\n      tag_69\n      jump\t// in\n    tag_212:\n      dup1\n      iszero\n      tag_213\n      jumpi\n      dup1\n      0x1f\n      lt\n      tag_214\n      jumpi\n      0x0100\n      dup1\n      dup4\n      sload\n      div\n      mul\n      dup4\n      mstore\n      swap2\n      0x20\n      add\n      swap2\n      jump(tag_213)\n    tag_214:\n      dup3\n      add\n      swap2\n      swap1\n      0x00\n      mstore\n      keccak256(0x00, 0x20)\n      swap1\n    tag_215:\n      dup2\n      sload\n      dup2\n      mstore\n      swap1\n      0x01\n      add\n      swap1\n      0x20\n      add\n      dup1\n      dup4\n      gt\n      tag_215\n      jumpi\n      dup3\n      swap1\n      sub\n      0x1f\n      and\n      dup3\n      add\n      swap2\n    tag_213:\n      pop\n      pop\n      pop\n      pop\n      pop\n      dup2\n      mstore\n      0x20\n      add\n      0x02\n      dup3\n      add\n      dup1\n      sload\n      tag_216\n      swap1\n      tag_69\n      jump\t// in\n    tag_216:\n      dup1\n      0x1f\n      add\n      0x20\n      dup1\n      swap2\n      div\n      mul\n      0x20\n      add\n      mload(0x40)\n      swap1\n      dup2\n      add\n      0x40\n      mstore\n      dup1\n      swap3\n      swap2\n      swap1\n      dup2\n      dup2\n      mstore\n      0x20\n      add\n      dup3\n      dup1\n      sload\n      tag_217\n      swap1\n      tag_69\n      jump\t// in\n    tag_217:\n      dup1\n      iszero\n      tag_218\n      jumpi\n      dup1\n      0x1f\n      lt\n      tag_219\n      jumpi\n      0x0100\n      dup1\n      dup4\n      sload\n      div\n      mul\n      dup4\n      mstore\n      swap2\n      0x20\n      add\n      swap2\n      jump(tag_218)\n    tag_219:\n      dup3\n      add\n      swap2\n      swap1\n      0x00\n      mstore\n      keccak256(0x00, 0x20)\n      swap1\n    tag_220:\n      dup2\n      sload\n      dup2\n      mstore\n      swap1\n      0x01\n      add\n      swap1\n      0x20\n      add\n      dup1\n      dup4\n      gt\n      tag_220\n      jumpi\n      dup3\n      swap1\n      sub\n      0x1f\n      and\n      dup3\n      add\n      swap2\n    tag_218:\n      pop\n      pop\n      pop\n      pop\n      pop\n      dup2\n      mstore\n      0x20\n      add\n      0x03\n      dup3\n      add\n      sload\n      dup2\n      mstore\n      pop\n      pop\n      swap1\n      pop\n        /* \"VotingSystem.sol\":6220:6229  candidate */\n      dup1\n        /* \"VotingSystem.sol\":6220:6232  candidate.id */\n      0x20\n      add\n      mload\n        /* \"VotingSystem.sol\":6212:6233  return (candidate.id) */\n      swap2\n      pop\n      pop\n        /* \"VotingSystem.sol\":5953:6241  function getCandidateId(uint256 index) internal view returns (string memory) {... */\n      swap2\n      swap1\n      pop\n      jump\t// out\n        /* \"VotingSystem.sol\":1468:1645  function compareStrings(string memory a, string memory b) internal pure returns (bool) {... */\n    tag_98:\n        /* \"VotingSystem.sol\":1549:1553  bool */\n      0x00\n        /* \"VotingSystem.sol\":1634:1635  b */\n      dup2\n        /* \"VotingSystem.sol\":1617:1636  abi.encodePacked(b) */\n      add(0x20, mload(0x40))\n      tag_222\n      swap2\n      swap1\n      tag_223\n      jump\t// in\n    tag_222:\n      mload(0x40)\n      0x20\n      dup2\n      dup4\n      sub\n      sub\n      dup2\n      mstore\n      swap1\n      0x40\n      mstore\n        /* \"VotingSystem.sol\":1607:1637  keccak256(abi.encodePacked(b)) */\n      dup1\n      mload\n      swap1\n      0x20\n      add\n      keccak256\n        /* \"VotingSystem.sol\":1600:1601  a */\n      dup4\n        /* \"VotingSystem.sol\":1583:1602  abi.encodePacked(a) */\n      add(0x20, mload(0x40))\n      tag_224\n      swap2\n      swap1\n      tag_223\n      jump\t// in\n    tag_224:\n      mload(0x40)\n      0x20\n      dup2\n      dup4\n      sub\n      sub\n      dup2\n      mstore\n      swap1\n      0x40\n      mstore\n        /* \"VotingSystem.sol\":1573:1603  keccak256(abi.encodePacked(a)) */\n      dup1\n      mload\n      swap1\n      0x20\n      add\n      keccak256\n        /* \"VotingSystem.sol\":1573:1637  keccak256(abi.encodePacked(a)) == keccak256(abi.encodePacked(b)) */\n      eq\n        /* \"VotingSystem.sol\":1566:1637  return keccak256(abi.encodePacked(a)) == keccak256(abi.encodePacked(b)) */\n      swap1\n      pop\n        /* \"VotingSystem.sol\":1468:1645  function compareStrings(string memory a, string memory b) internal pure returns (bool) {... */\n      swap3\n      swap2\n      pop\n      pop\n      jump\t// out\n        /* \"VotingSystem.sol\":2030:2842  function stringToAddress(string memory _input) internal pure returns (address) {... */\n    tag_185:\n        /* \"VotingSystem.sol\":2100:2107  address */\n      0x00\n        /* \"VotingSystem.sol\":2116:2139  bytes memory inputBytes */\n      dup1\n        /* \"VotingSystem.sol\":2148:2154  _input */\n      dup3\n        /* \"VotingSystem.sol\":2116:2155  bytes memory inputBytes = bytes(_input) */\n      swap1\n      pop\n        /* \"VotingSystem.sol\":2191:2193  42 */\n      0x2a\n        /* \"VotingSystem.sol\":2170:2180  inputBytes */\n      dup2\n        /* \"VotingSystem.sol\":2170:2187  inputBytes.length */\n      mload\n        /* \"VotingSystem.sol\":2170:2193  inputBytes.length == 42 */\n      eq\n        /* \"VotingSystem.sol\":2162:2218  require(inputBytes.length == 42, \"Invalid input length\") */\n      tag_226\n      jumpi\n      mload(0x40)\n      0x08c379a000000000000000000000000000000000000000000000000000000000\n      dup2\n      mstore\n      0x04\n      add\n      tag_227\n      swap1\n      tag_228\n      jump\t// in\n    tag_227:\n      mload(0x40)\n      dup1\n      swap2\n      sub\n      swap1\n      revert\n    tag_226:\n        /* \"VotingSystem.sol\":2227:2238  uint result */\n      0x00\n        /* \"VotingSystem.sol\":2249:2263  uint charValue */\n      dup1\n        /* \"VotingSystem.sol\":2277:2283  uint i */\n      dup1\n        /* \"VotingSystem.sol\":2286:2287  2 */\n      0x02\n        /* \"VotingSystem.sol\":2277:2287  uint i = 2 */\n      swap1\n      pop\n        /* \"VotingSystem.sol\":2272:2797  for (uint i = 2; i < inputBytes.length; i++) {... */\n    tag_229:\n        /* \"VotingSystem.sol\":2293:2303  inputBytes */\n      dup4\n        /* \"VotingSystem.sol\":2293:2310  inputBytes.length */\n      mload\n        /* \"VotingSystem.sol\":2289:2290  i */\n      dup2\n        /* \"VotingSystem.sol\":2289:2310  i < inputBytes.length */\n      lt\n        /* \"VotingSystem.sol\":2272:2797  for (uint i = 2; i < inputBytes.length; i++) {... */\n      iszero\n      tag_230\n      jumpi\n        /* \"VotingSystem.sol\":2328:2339  uint8 digit */\n      0x00\n        /* \"VotingSystem.sol\":2348:2358  inputBytes */\n      dup5\n        /* \"VotingSystem.sol\":2359:2360  i */\n      dup3\n        /* \"VotingSystem.sol\":2348:2361  inputBytes[i] */\n      dup2\n      mload\n      dup2\n      lt\n      tag_232\n      jumpi\n      tag_233\n      tag_66\n      jump\t// in\n    tag_233:\n    tag_232:\n      0x20\n      add\n      add\n      mload\n      0xf8\n      shr\n      0xf8\n      shl\n        /* \"VotingSystem.sol\":2342:2362  uint8(inputBytes[i]) */\n      0xf8\n      shr\n        /* \"VotingSystem.sol\":2328:2362  uint8 digit = uint8(inputBytes[i]) */\n      swap1\n      pop\n        /* \"VotingSystem.sol\":2388:2390  48 */\n      0x30\n        /* \"VotingSystem.sol\":2379:2384  digit */\n      dup2\n        /* \"VotingSystem.sol\":2379:2390  digit >= 48 */\n      0xff\n      and\n      lt\n      iszero\n        /* \"VotingSystem.sol\":2379:2405  digit >= 48 && digit <= 57 */\n      dup1\n      iszero\n      tag_234\n      jumpi\n      pop\n        /* \"VotingSystem.sol\":2403:2405  57 */\n      0x39\n        /* \"VotingSystem.sol\":2394:2399  digit */\n      dup2\n        /* \"VotingSystem.sol\":2394:2405  digit <= 57 */\n      0xff\n      and\n      gt\n      iszero\n        /* \"VotingSystem.sol\":2379:2405  digit >= 48 && digit <= 57 */\n    tag_234:\n        /* \"VotingSystem.sol\":2375:2745  if (digit >= 48 && digit <= 57) {... */\n      iszero\n      tag_235\n      jumpi\n        /* \"VotingSystem.sol\":2442:2444  48 */\n      0x30\n        /* \"VotingSystem.sol\":2434:2439  digit */\n      dup2\n        /* \"VotingSystem.sol\":2434:2444  digit - 48 */\n      tag_236\n      swap2\n      swap1\n      tag_237\n      jump\t// in\n    tag_236:\n        /* \"VotingSystem.sol\":2422:2444  charValue = digit - 48 */\n      0xff\n      and\n      swap3\n      pop\n        /* \"VotingSystem.sol\":2375:2745  if (digit >= 48 && digit <= 57) {... */\n      jump(tag_238)\n    tag_235:\n        /* \"VotingSystem.sol\":2490:2492  65 */\n      0x41\n        /* \"VotingSystem.sol\":2481:2486  digit */\n      dup2\n        /* \"VotingSystem.sol\":2481:2492  digit >= 65 */\n      0xff\n      and\n      lt\n      iszero\n        /* \"VotingSystem.sol\":2481:2507  digit >= 65 && digit <= 70 */\n      dup1\n      iszero\n      tag_239\n      jumpi\n      pop\n        /* \"VotingSystem.sol\":2505:2507  70 */\n      0x46\n        /* \"VotingSystem.sol\":2496:2501  digit */\n      dup2\n        /* \"VotingSystem.sol\":2496:2507  digit <= 70 */\n      0xff\n      and\n      gt\n      iszero\n        /* \"VotingSystem.sol\":2481:2507  digit >= 65 && digit <= 70 */\n    tag_239:\n        /* \"VotingSystem.sol\":2477:2745  if (digit >= 65 && digit <= 70) {... */\n      iszero\n      tag_240\n      jumpi\n        /* \"VotingSystem.sol\":2544:2546  55 */\n      0x37\n        /* \"VotingSystem.sol\":2536:2541  digit */\n      dup2\n        /* \"VotingSystem.sol\":2536:2546  digit - 55 */\n      tag_241\n      swap2\n      swap1\n      tag_237\n      jump\t// in\n    tag_241:\n        /* \"VotingSystem.sol\":2524:2546  charValue = digit - 55 */\n      0xff\n      and\n      swap3\n      pop\n        /* \"VotingSystem.sol\":2477:2745  if (digit >= 65 && digit <= 70) {... */\n      jump(tag_242)\n    tag_240:\n        /* \"VotingSystem.sol\":2592:2594  97 */\n      0x61\n        /* \"VotingSystem.sol\":2583:2588  digit */\n      dup2\n        /* \"VotingSystem.sol\":2583:2594  digit >= 97 */\n      0xff\n      and\n      lt\n      iszero\n        /* \"VotingSystem.sol\":2583:2610  digit >= 97 && digit <= 102 */\n      dup1\n      iszero\n      tag_243\n      jumpi\n      pop\n        /* \"VotingSystem.sol\":2607:2610  102 */\n      0x66\n        /* \"VotingSystem.sol\":2598:2603  digit */\n      dup2\n        /* \"VotingSystem.sol\":2598:2610  digit <= 102 */\n      0xff\n      and\n      gt\n      iszero\n        /* \"VotingSystem.sol\":2583:2610  digit >= 97 && digit <= 102 */\n    tag_243:\n        /* \"VotingSystem.sol\":2579:2745  if (digit >= 97 && digit <= 102) {... */\n      iszero\n      tag_244\n      jumpi\n        /* \"VotingSystem.sol\":2647:2649  87 */\n      0x57\n        /* \"VotingSystem.sol\":2639:2644  digit */\n      dup2\n        /* \"VotingSystem.sol\":2639:2649  digit - 87 */\n      tag_245\n      swap2\n      swap1\n      tag_237\n      jump\t// in\n    tag_245:\n        /* \"VotingSystem.sol\":2627:2649  charValue = digit - 87 */\n      0xff\n      and\n      swap3\n      pop\n        /* \"VotingSystem.sol\":2579:2745  if (digit >= 97 && digit <= 102) {... */\n      jump(tag_246)\n    tag_244:\n        /* \"VotingSystem.sol\":2697:2733  revert(\"Invalid character in input\") */\n      mload(0x40)\n      0x08c379a000000000000000000000000000000000000000000000000000000000\n      dup2\n      mstore\n      0x04\n      add\n      tag_247\n      swap1\n      tag_248\n      jump\t// in\n    tag_247:\n      mload(0x40)\n      dup1\n      swap2\n      sub\n      swap1\n      revert\n        /* \"VotingSystem.sol\":2579:2745  if (digit >= 97 && digit <= 102) {... */\n    tag_246:\n        /* \"VotingSystem.sol\":2477:2745  if (digit >= 65 && digit <= 70) {... */\n    tag_242:\n        /* \"VotingSystem.sol\":2375:2745  if (digit >= 48 && digit <= 57) {... */\n    tag_238:\n        /* \"VotingSystem.sol\":2780:2789  charValue */\n      dup3\n        /* \"VotingSystem.sol\":2775:2777  16 */\n      0x10\n        /* \"VotingSystem.sol\":2766:2772  result */\n      dup6\n        /* \"VotingSystem.sol\":2766:2777  result * 16 */\n      tag_249\n      swap2\n      swap1\n      tag_250\n      jump\t// in\n    tag_249:\n        /* \"VotingSystem.sol\":2766:2789  result * 16 + charValue */\n      tag_251\n      swap2\n      swap1\n      tag_252\n      jump\t// in\n    tag_251:\n        /* \"VotingSystem.sol\":2757:2789  result = result * 16 + charValue */\n      swap4\n      pop\n        /* \"VotingSystem.sol\":2317:2797  {... */\n      pop\n        /* \"VotingSystem.sol\":2312:2315  i++ */\n      dup1\n      dup1\n      tag_253\n      swap1\n      tag_89\n      jump\t// in\n    tag_253:\n      swap2\n      pop\n      pop\n        /* \"VotingSystem.sol\":2272:2797  for (uint i = 2; i < inputBytes.length; i++) {... */\n      jump(tag_229)\n    tag_230:\n      pop\n        /* \"VotingSystem.sol\":2829:2835  result */\n      dup2\n        /* \"VotingSystem.sol\":2805:2838  return (address(uint160(result))) */\n      swap4\n      pop\n      pop\n      pop\n      pop\n        /* \"VotingSystem.sol\":2030:2842  function stringToAddress(string memory _input) internal pure returns (address) {... */\n      swap2\n      swap1\n      pop\n      jump\t// out\n        /* \"VotingSystem.sol\":4938:5327  function vote(address _candidate) private electionInProgress {... */\n    tag_187:\n        /* \"VotingSystem.sol\":990:1005  electionStarted */\n      0x00\n      0x14\n      swap1\n      sload\n      swap1\n      0x0100\n      exp\n      swap1\n      div\n      0xff\n      and\n        /* \"VotingSystem.sol\":981:1034  require (electionStarted, \"Election has not started\") */\n      tag_255\n      jumpi\n      mload(0x40)\n      0x08c379a000000000000000000000000000000000000000000000000000000000\n      dup2\n      mstore\n      0x04\n      add\n      tag_256\n      swap1\n      tag_178\n      jump\t// in\n    tag_256:\n      mload(0x40)\n      dup1\n      swap2\n      sub\n      swap1\n      revert\n    tag_255:\n        /* \"VotingSystem.sol\":1054:1067  electionEnded */\n      0x00\n      0x15\n      swap1\n      sload\n      swap1\n      0x0100\n      exp\n      swap1\n      div\n      0xff\n      and\n        /* \"VotingSystem.sol\":1053:1067  !electionEnded */\n      iszero\n        /* \"VotingSystem.sol\":1045:1098  require(!electionEnded, \"Election has already ended\") */\n      tag_257\n      jumpi\n      mload(0x40)\n      0x08c379a000000000000000000000000000000000000000000000000000000000\n      dup2\n      mstore\n      0x04\n      add\n      tag_258\n      swap1\n      tag_181\n      jump\t// in\n    tag_258:\n      mload(0x40)\n      dup1\n      swap2\n      sub\n      swap1\n      revert\n    tag_257:\n        /* \"VotingSystem.sol\":5019:5024  voted */\n      0x03\n        /* \"VotingSystem.sol\":5019:5036  voted[msg.sender] */\n      0x00\n        /* \"VotingSystem.sol\":5025:5035  msg.sender */\n      caller\n        /* \"VotingSystem.sol\":5019:5036  voted[msg.sender] */\n      0xffffffffffffffffffffffffffffffffffffffff\n      and\n      0xffffffffffffffffffffffffffffffffffffffff\n      and\n      dup2\n      mstore\n      0x20\n      add\n      swap1\n      dup2\n      mstore\n      0x20\n      add\n      0x00\n      keccak256\n      0x00\n      swap1\n      sload\n      swap1\n      0x0100\n      exp\n      swap1\n      div\n      0xff\n      and\n        /* \"VotingSystem.sol\":5018:5036  !voted[msg.sender] */\n      iszero\n        /* \"VotingSystem.sol\":5010:5063  require(!voted[msg.sender], \"You have already voted\") */\n      tag_260\n      jumpi\n      mload(0x40)\n      0x08c379a000000000000000000000000000000000000000000000000000000000\n      dup2\n      mstore\n      0x04\n      add\n      tag_261\n      swap1\n      tag_262\n      jump\t// in\n    tag_261:\n      mload(0x40)\n      dup1\n      swap2\n      sub\n      swap1\n      revert\n    tag_260:\n        /* \"VotingSystem.sol\":5082:5098  registeredVoters */\n      0x02\n        /* \"VotingSystem.sol\":5082:5110  registeredVoters[msg.sender] */\n      0x00\n        /* \"VotingSystem.sol\":5099:5109  msg.sender */\n      caller\n        /* \"VotingSystem.sol\":5082:5110  registeredVoters[msg.sender] */\n      0xffffffffffffffffffffffffffffffffffffffff\n      and\n      0xffffffffffffffffffffffffffffffffffffffff\n      and\n      dup2\n      mstore\n      0x20\n      add\n      swap1\n      dup2\n      mstore\n      0x20\n      add\n      0x00\n      keccak256\n      0x00\n      swap1\n      sload\n      swap1\n      0x0100\n      exp\n      swap1\n      div\n      0xff\n      and\n        /* \"VotingSystem.sol\":5074:5143  require(registeredVoters[msg.sender], \"You are not registered voter\") */\n      tag_263\n      jumpi\n      mload(0x40)\n      0x08c379a000000000000000000000000000000000000000000000000000000000\n      dup2\n      mstore\n      0x04\n      add\n      tag_264\n      swap1\n      tag_265\n      jump\t// in\n    tag_264:\n      mload(0x40)\n      dup1\n      swap2\n      sub\n      swap1\n      revert\n    tag_263:\n        /* \"VotingSystem.sol\":5162:5182  registeredCandidates */\n      0x04\n        /* \"VotingSystem.sol\":5162:5194  registeredCandidates[_candidate] */\n      0x00\n        /* \"VotingSystem.sol\":5183:5193  _candidate */\n      dup3\n        /* \"VotingSystem.sol\":5162:5194  registeredCandidates[_candidate] */\n      0xffffffffffffffffffffffffffffffffffffffff\n      and\n      0xffffffffffffffffffffffffffffffffffffffff\n      and\n      dup2\n      mstore\n      0x20\n      add\n      swap1\n      dup2\n      mstore\n      0x20\n      add\n      0x00\n      keccak256\n      0x00\n      swap1\n      sload\n      swap1\n      0x0100\n      exp\n      swap1\n      div\n      0xff\n      and\n        /* \"VotingSystem.sol\":5154:5226  require(registeredCandidates[_candidate], \"Candidate is not registered\") */\n      tag_266\n      jumpi\n      mload(0x40)\n      0x08c379a000000000000000000000000000000000000000000000000000000000\n      dup2\n      mstore\n      0x04\n      add\n      tag_267\n      swap1\n      tag_268\n      jump\t// in\n    tag_267:\n      mload(0x40)\n      dup1\n      swap2\n      sub\n      swap1\n      revert\n    tag_266:\n        /* \"VotingSystem.sol\":5259:5263  true */\n      0x01\n        /* \"VotingSystem.sol\":5239:5244  voted */\n      0x03\n        /* \"VotingSystem.sol\":5239:5256  voted[msg.sender] */\n      0x00\n        /* \"VotingSystem.sol\":5245:5255  msg.sender */\n      caller\n        /* \"VotingSystem.sol\":5239:5256  voted[msg.sender] */\n      0xffffffffffffffffffffffffffffffffffffffff\n      and\n      0xffffffffffffffffffffffffffffffffffffffff\n      and\n      dup2\n      mstore\n      0x20\n      add\n      swap1\n      dup2\n      mstore\n      0x20\n      add\n      0x00\n      keccak256\n      0x00\n        /* \"VotingSystem.sol\":5239:5263  voted[msg.sender] = true */\n      0x0100\n      exp\n      dup2\n      sload\n      dup2\n      0xff\n      mul\n      not\n      and\n      swap1\n      dup4\n      iszero\n      iszero\n      mul\n      or\n      swap1\n      sstore\n      pop\n        /* \"VotingSystem.sol\":5274:5291  candidatesDetails */\n      0x05\n        /* \"VotingSystem.sol\":5274:5303  candidatesDetails[_candidate] */\n      0x00\n        /* \"VotingSystem.sol\":5292:5302  _candidate */\n      dup3\n        /* \"VotingSystem.sol\":5274:5303  candidatesDetails[_candidate] */\n      0xffffffffffffffffffffffffffffffffffffffff\n      and\n      0xffffffffffffffffffffffffffffffffffffffff\n      and\n      dup2\n      mstore\n      0x20\n      add\n      swap1\n      dup2\n      mstore\n      0x20\n      add\n      0x00\n      keccak256\n        /* \"VotingSystem.sol\":5274:5317  candidatesDetails[_candidate].votesReceived */\n      0x03\n      add\n      0x00\n        /* \"VotingSystem.sol\":5274:5319  candidatesDetails[_candidate].votesReceived++ */\n      dup2\n      sload\n      dup1\n      swap3\n      swap2\n      swap1\n      tag_269\n      swap1\n      tag_89\n      jump\t// in\n    tag_269:\n      swap2\n      swap1\n      pop\n      sstore\n      pop\n        /* \"VotingSystem.sol\":4938:5327  function vote(address _candidate) private electionInProgress {... */\n      pop\n      jump\t// out\n        /* \"VotingSystem.sol\":2852:3860  function createId(string memory _name) internal view returns (string memory) {... */\n    tag_193:\n        /* \"VotingSystem.sol\":2914:2927  string memory */\n      0x60\n        /* \"VotingSystem.sol\":2940:2962  bytes memory nameBytes */\n      0x00\n        /* \"VotingSystem.sol\":2971:2976  _name */\n      dup3\n        /* \"VotingSystem.sol\":2940:2977  bytes memory nameBytes = bytes(_name) */\n      swap1\n      pop\n        /* \"VotingSystem.sol\":2988:3000  bytes1 char1 */\n      0x00\n        /* \"VotingSystem.sol\":3003:3012  nameBytes */\n      dup2\n        /* \"VotingSystem.sol\":3013:3014  0 */\n      0x00\n        /* \"VotingSystem.sol\":3003:3015  nameBytes[0] */\n      dup2\n      mload\n      dup2\n      lt\n      tag_271\n      jumpi\n      tag_272\n      tag_66\n      jump\t// in\n    tag_272:\n    tag_271:\n      0x20\n      add\n      add\n      mload\n      0xf8\n      shr\n      0xf8\n      shl\n        /* \"VotingSystem.sol\":2988:3015  bytes1 char1 = nameBytes[0] */\n      swap1\n      pop\n        /* \"VotingSystem.sol\":3026:3038  bytes1 char2 */\n      0x00\n        /* \"VotingSystem.sol\":3041:3050  nameBytes */\n      dup3\n        /* \"VotingSystem.sol\":3070:3071  1 */\n      0x01\n        /* \"VotingSystem.sol\":3051:3060  nameBytes */\n      dup5\n        /* \"VotingSystem.sol\":3051:3067  nameBytes.length */\n      mload\n        /* \"VotingSystem.sol\":3051:3071  nameBytes.length - 1 */\n      tag_273\n      swap2\n      swap1\n      tag_274\n      jump\t// in\n    tag_273:\n        /* \"VotingSystem.sol\":3041:3072  nameBytes[nameBytes.length - 1] */\n      dup2\n      mload\n      dup2\n      lt\n      tag_275\n      jumpi\n      tag_276\n      tag_66\n      jump\t// in\n    tag_276:\n    tag_275:\n      0x20\n      add\n      add\n      mload\n      0xf8\n      shr\n      0xf8\n      shl\n        /* \"VotingSystem.sol\":3026:3072  bytes1 char2 = nameBytes[nameBytes.length - 1] */\n      swap1\n      pop\n        /* \"VotingSystem.sol\":3159:3179  bytes memory idBytes */\n      0x00\n        /* \"VotingSystem.sol\":3192:3193  2 */\n      0x02\n        /* \"VotingSystem.sol\":3182:3194  new bytes(2) */\n      0xffffffffffffffff\n      dup2\n      gt\n      iszero\n      tag_277\n      jumpi\n      tag_278\n      tag_58\n      jump\t// in\n    tag_278:\n    tag_277:\n      mload(0x40)\n      swap1\n      dup1\n      dup3\n      mstore\n      dup1\n      0x1f\n      add\n      not(0x1f)\n      and\n      0x20\n      add\n      dup3\n      add\n      0x40\n      mstore\n      dup1\n      iszero\n      tag_279\n      jumpi\n      dup2\n      0x20\n      add\n      0x01\n      dup3\n      mul\n      dup1\n      calldatasize\n      dup4\n      calldatacopy\n      dup1\n      dup3\n      add\n      swap2\n      pop\n      pop\n      swap1\n      pop\n    tag_279:\n      pop\n        /* \"VotingSystem.sol\":3159:3194  bytes memory idBytes = new bytes(2) */\n      swap1\n      pop\n        /* \"VotingSystem.sol\":3218:3223  char1 */\n      dup3\n        /* \"VotingSystem.sol\":3205:3212  idBytes */\n      dup2\n        /* \"VotingSystem.sol\":3213:3214  0 */\n      0x00\n        /* \"VotingSystem.sol\":3205:3215  idBytes[0] */\n      dup2\n      mload\n      dup2\n      lt\n      tag_280\n      jumpi\n      tag_281\n      tag_66\n      jump\t// in\n    tag_281:\n    tag_280:\n      0x20\n      add\n      add\n        /* \"VotingSystem.sol\":3205:3223  idBytes[0] = char1 */\n      swap1\n      not(0xffffffffffffffffffffffffffffffffffffffffffffffffffffffffffffff)\n      and\n      swap1\n      dup2\n      0x00\n      byte\n      swap1\n      mstore8\n      pop\n        /* \"VotingSystem.sol\":3247:3252  char2 */\n      dup2\n        /* \"VotingSystem.sol\":3234:3241  idBytes */\n      dup2\n        /* \"VotingSystem.sol\":3242:3243  1 */\n      0x01\n        /* \"VotingSystem.sol\":3234:3244  idBytes[1] */\n      dup2\n      mload\n      dup2\n      lt\n      tag_282\n      jumpi\n      tag_283\n      tag_66\n      jump\t// in\n    tag_283:\n    tag_282:\n      0x20\n      add\n      add\n        /* \"VotingSystem.sol\":3234:3252  idBytes[1] = char2 */\n      swap1\n      not(0xffffffffffffffffffffffffffffffffffffffffffffffffffffffffffffff)\n      and\n      swap1\n      dup2\n      0x00\n      byte\n      swap1\n      mstore8\n      pop\n        /* \"VotingSystem.sol\":3265:3275  uint count */\n      0x00\n        /* \"VotingSystem.sol\":3278:3308  getRegisteredCandidatesCount() */\n      tag_284\n        /* \"VotingSystem.sol\":3278:3306  getRegisteredCandidatesCount */\n      tag_33\n        /* \"VotingSystem.sol\":3278:3308  getRegisteredCandidatesCount() */\n      jump\t// in\n    tag_284:\n        /* \"VotingSystem.sol\":3265:3308  uint count = getRegisteredCandidatesCount() */\n      swap1\n      pop\n        /* \"VotingSystem.sol\":3326:3332  uint i */\n      0x00\n        /* \"VotingSystem.sol\":3321:3818  for (uint i =0; i < count; i++){... */\n    tag_285:\n        /* \"VotingSystem.sol\":3341:3346  count */\n      dup2\n        /* \"VotingSystem.sol\":3337:3338  i */\n      dup2\n        /* \"VotingSystem.sol\":3337:3346  i < count */\n      lt\n        /* \"VotingSystem.sol\":3321:3818  for (uint i =0; i < count; i++){... */\n      iszero\n      tag_286\n      jumpi\n        /* \"VotingSystem.sol\":3367:3393  Candidate memory candidate */\n      0x00\n        /* \"VotingSystem.sol\":3396:3413  candidatesDetails */\n      0x05\n        /* \"VotingSystem.sol\":3396:3436  candidatesDetails[candidateAddresses[i]] */\n      0x00\n        /* \"VotingSystem.sol\":3414:3432  candidateAddresses */\n      0x01\n        /* \"VotingSystem.sol\":3433:3434  i */\n      dup5\n        /* \"VotingSystem.sol\":3414:3435  candidateAddresses[i] */\n      dup2\n      sload\n      dup2\n      lt\n      tag_288\n      jumpi\n      tag_289\n      tag_66\n      jump\t// in\n    tag_289:\n    tag_288:\n      swap1\n      0x00\n      mstore\n      keccak256(0x00, 0x20)\n      add\n      0x00\n      swap1\n      sload\n      swap1\n      0x0100\n      exp\n      swap1\n      div\n      0xffffffffffffffffffffffffffffffffffffffff\n      and\n        /* \"VotingSystem.sol\":3396:3436  candidatesDetails[candidateAddresses[i]] */\n      0xffffffffffffffffffffffffffffffffffffffff\n      and\n      0xffffffffffffffffffffffffffffffffffffffff\n      and\n      dup2\n      mstore\n      0x20\n      add\n      swap1\n      dup2\n      mstore\n      0x20\n      add\n      0x00\n      keccak256\n        /* \"VotingSystem.sol\":3367:3436  Candidate memory candidate = candidatesDetails[candidateAddresses[i]] */\n      mload(0x40)\n      dup1\n      0x80\n      add\n      0x40\n      mstore\n      swap1\n      dup2\n      0x00\n      dup3\n      add\n      dup1\n      sload\n      tag_291\n      swap1\n      tag_69\n      jump\t// in\n    tag_291:\n      dup1\n      0x1f\n      add\n      0x20\n      dup1\n      swap2\n      div\n      mul\n      0x20\n      add\n      mload(0x40)\n      swap1\n      dup2\n      add\n      0x40\n      mstore\n      dup1\n      swap3\n      swap2\n      swap1\n      dup2\n      dup2\n      mstore\n      0x20\n      add\n      dup3\n      dup1\n      sload\n      tag_292\n      swap1\n      tag_69\n      jump\t// in\n    tag_292:\n      dup1\n      iszero\n      tag_293\n      jumpi\n      dup1\n      0x1f\n      lt\n      tag_294\n      jumpi\n      0x0100\n      dup1\n      dup4\n      sload\n      div\n      mul\n      dup4\n      mstore\n      swap2\n      0x20\n      add\n      swap2\n      jump(tag_293)\n    tag_294:\n      dup3\n      add\n      swap2\n      swap1\n      0x00\n      mstore\n      keccak256(0x00, 0x20)\n      swap1\n    tag_295:\n      dup2\n      sload\n      dup2\n      mstore\n      swap1\n      0x01\n      add\n      swap1\n      0x20\n      add\n      dup1\n      dup4\n      gt\n      tag_295\n      jumpi\n      dup3\n      swap1\n      sub\n      0x1f\n      and\n      dup3\n      add\n      swap2\n    tag_293:\n      pop\n      pop\n      pop\n      pop\n      pop\n      dup2\n      mstore\n      0x20\n      add\n      0x01\n      dup3\n      add\n      dup1\n      sload\n      tag_296\n      swap1\n      tag_69\n      jump\t// in\n    tag_296:\n      dup1\n      0x1f\n      add\n      0x20\n      dup1\n      swap2\n      div\n      mul\n      0x20\n      add\n      mload(0x40)\n      swap1\n      dup2\n      add\n      0x40\n      mstore\n      dup1\n      swap3\n      swap2\n      swap1\n      dup2\n      dup2\n      mstore\n      0x20\n      add\n      dup3\n      dup1\n      sload\n      tag_297\n      swap1\n      tag_69\n      jump\t// in\n    tag_297:\n      dup1\n      iszero\n      tag_298\n      jumpi\n      dup1\n      0x1f\n      lt\n      tag_299\n      jumpi\n      0x0100\n      dup1\n      dup4\n      sload\n      div\n      mul\n      dup4\n      mstore\n      swap2\n      0x20\n      add\n      swap2\n      jump(tag_298)\n    tag_299:\n      dup3\n      add\n      swap2\n      swap1\n      0x00\n      mstore\n      keccak256(0x00, 0x20)\n      swap1\n    tag_300:\n      dup2\n      sload\n      dup2\n      mstore\n      swap1\n      0x01\n      add\n      swap1\n      0x20\n      add\n      dup1\n      dup4\n      gt\n      tag_300\n      jumpi\n      dup3\n      swap1\n      sub\n      0x1f\n      and\n      dup3\n      add\n      swap2\n    tag_298:\n      pop\n      pop\n      pop\n      pop\n      pop\n      dup2\n      mstore\n      0x20\n      add\n      0x02\n      dup3\n      add\n      dup1\n      sload\n      tag_301\n      swap1\n      tag_69\n      jump\t// in\n    tag_301:\n      dup1\n      0x1f\n      add\n      0x20\n      dup1\n      swap2\n      div\n      mul\n      0x20\n      add\n      mload(0x40)\n      swap1\n      dup2\n      add\n      0x40\n      mstore\n      dup1\n      swap3\n      swap2\n      swap1\n      dup2\n      dup2\n      mstore\n      0x20\n      add\n      dup3\n      dup1\n      sload\n      tag_302\n      swap1\n      tag_69\n      jump\t// in\n    tag_302:\n      dup1\n      iszero\n      tag_303\n      jumpi\n      dup1\n      0x1f\n      lt\n      tag_304\n      jumpi\n      0x0100\n      dup1\n      dup4\n      sload\n      div\n      mul\n      dup4\n      mstore\n      swap2\n      0x20\n      add\n      swap2\n      jump(tag_303)\n    tag_304:\n      dup3\n      add\n      swap2\n      swap1\n      0x00\n      mstore\n      keccak256(0x00, 0x20)\n      swap1\n    tag_305:\n      dup2\n      sload\n      dup2\n      mstore\n      swap1\n      0x01\n      add\n      swap1\n      0x20\n      add\n      dup1\n      dup4\n      gt\n      tag_305\n      jumpi\n      dup3\n      swap1\n      sub\n      0x1f\n      and\n      dup3\n      add\n      swap2\n    tag_303:\n      pop\n      pop\n      pop\n      pop\n      pop\n      dup2\n      mstore\n      0x20\n      add\n      0x03\n      dup3\n      add\n      sload\n      dup2\n      mstore\n      pop\n      pop\n      swap1\n      pop\n        /* \"VotingSystem.sol\":3451:3477  bytes memory tempNameBytes */\n      0x00\n        /* \"VotingSystem.sol\":3486:3495  candidate */\n      dup2\n        /* \"VotingSystem.sol\":3486:3500  candidate.name */\n      0x00\n      add\n      mload\n        /* \"VotingSystem.sol\":3451:3501  bytes memory tempNameBytes = bytes(candidate.name) */\n      swap1\n      pop\n        /* \"VotingSystem.sol\":3516:3540  bytes memory tempIdBytes */\n      0x00\n        /* \"VotingSystem.sol\":3553:3554  2 */\n      0x02\n        /* \"VotingSystem.sol\":3543:3555  new bytes(2) */\n      0xffffffffffffffff\n      dup2\n      gt\n      iszero\n      tag_306\n      jumpi\n      tag_307\n      tag_58\n      jump\t// in\n    tag_307:\n    tag_306:\n      mload(0x40)\n      swap1\n      dup1\n      dup3\n      mstore\n      dup1\n      0x1f\n      add\n      not(0x1f)\n      and\n      0x20\n      add\n      dup3\n      add\n      0x40\n      mstore\n      dup1\n      iszero\n      tag_308\n      jumpi\n      dup2\n      0x20\n      add\n      0x01\n      dup3\n      mul\n      dup1\n      calldatasize\n      dup4\n      calldatacopy\n      dup1\n      dup3\n      add\n      swap2\n      pop\n      pop\n      swap1\n      pop\n    tag_308:\n      pop\n        /* \"VotingSystem.sol\":3516:3555  bytes memory tempIdBytes = new bytes(2) */\n      swap1\n      pop\n        /* \"VotingSystem.sol\":3587:3600  tempNameBytes */\n      dup2\n        /* \"VotingSystem.sol\":3601:3602  0 */\n      0x00\n        /* \"VotingSystem.sol\":3587:3603  tempNameBytes[0] */\n      dup2\n      mload\n      dup2\n      lt\n      tag_309\n      jumpi\n      tag_310\n      tag_66\n      jump\t// in\n    tag_310:\n    tag_309:\n      0x20\n      add\n      add\n      mload\n      0xf8\n      shr\n      0xf8\n      shl\n        /* \"VotingSystem.sol\":3570:3581  tempIdBytes */\n      dup2\n        /* \"VotingSystem.sol\":3582:3583  0 */\n      0x00\n        /* \"VotingSystem.sol\":3570:3584  tempIdBytes[0] */\n      dup2\n      mload\n      dup2\n      lt\n      tag_311\n      jumpi\n      tag_312\n      tag_66\n      jump\t// in\n    tag_312:\n    tag_311:\n      0x20\n      add\n      add\n        /* \"VotingSystem.sol\":3570:3603  tempIdBytes[0] = tempNameBytes[0] */\n      swap1\n      not(0xffffffffffffffffffffffffffffffffffffffffffffffffffffffffffffff)\n      and\n      swap1\n      dup2\n      0x00\n      byte\n      swap1\n      mstore8\n      pop\n        /* \"VotingSystem.sol\":3635:3648  tempNameBytes */\n      dup2\n        /* \"VotingSystem.sol\":3671:3672  1 */\n      0x01\n        /* \"VotingSystem.sol\":3649:3662  tempNameBytes */\n      dup4\n        /* \"VotingSystem.sol\":3649:3669  tempNameBytes.length */\n      mload\n        /* \"VotingSystem.sol\":3649:3672  tempNameBytes.length -1 */\n      tag_313\n      swap2\n      swap1\n      tag_274\n      jump\t// in\n    tag_313:\n        /* \"VotingSystem.sol\":3635:3673  tempNameBytes[tempNameBytes.length -1] */\n      dup2\n      mload\n      dup2\n      lt\n      tag_314\n      jumpi\n      tag_315\n      tag_66\n      jump\t// in\n    tag_315:\n    tag_314:\n      0x20\n      add\n      add\n      mload\n      0xf8\n      shr\n      0xf8\n      shl\n        /* \"VotingSystem.sol\":3618:3629  tempIdBytes */\n      dup2\n        /* \"VotingSystem.sol\":3630:3631  1 */\n      0x01\n        /* \"VotingSystem.sol\":3618:3632  tempIdBytes[1] */\n      dup2\n      mload\n      dup2\n      lt\n      tag_316\n      jumpi\n      tag_317\n      tag_66\n      jump\t// in\n    tag_317:\n    tag_316:\n      0x20\n      add\n      add\n        /* \"VotingSystem.sol\":3618:3673  tempIdBytes[1] = tempNameBytes[tempNameBytes.length -1] */\n      swap1\n      not(0xffffffffffffffffffffffffffffffffffffffffffffffffffffffffffffff)\n      and\n      swap1\n      dup2\n      0x00\n      byte\n      swap1\n      mstore8\n      pop\n        /* \"VotingSystem.sol\":3694:3728  compareBytes(tempIdBytes, idBytes) */\n      tag_318\n        /* \"VotingSystem.sol\":3707:3718  tempIdBytes */\n      dup2\n        /* \"VotingSystem.sol\":3720:3727  idBytes */\n      dup8\n        /* \"VotingSystem.sol\":3694:3706  compareBytes */\n      tag_319\n        /* \"VotingSystem.sol\":3694:3728  compareBytes(tempIdBytes, idBytes) */\n      jump\t// in\n    tag_318:\n        /* \"VotingSystem.sol\":3690:3807  if (compareBytes(tempIdBytes, idBytes)) {... */\n      iszero\n      tag_320\n      jumpi\n        /* \"VotingSystem.sol\":3753:3787  revert(\"Choose Different Name...\") */\n      mload(0x40)\n      0x08c379a000000000000000000000000000000000000000000000000000000000\n      dup2\n      mstore\n      0x04\n      add\n      tag_321\n      swap1\n      tag_322\n      jump\t// in\n    tag_321:\n      mload(0x40)\n      dup1\n      swap2\n      sub\n      swap1\n      revert\n        /* \"VotingSystem.sol\":3690:3807  if (compareBytes(tempIdBytes, idBytes)) {... */\n    tag_320:\n        /* \"VotingSystem.sol\":3352:3818  {... */\n      pop\n      pop\n      pop\n        /* \"VotingSystem.sol\":3348:3351  i++ */\n      dup1\n      dup1\n      tag_323\n      swap1\n      tag_89\n      jump\t// in\n    tag_323:\n      swap2\n      pop\n      pop\n        /* \"VotingSystem.sol\":3321:3818  for (uint i =0; i < count; i++){... */\n      jump(tag_285)\n    tag_286:\n      pop\n        /* \"VotingSystem.sol\":3844:3851  idBytes */\n      dup2\n        /* \"VotingSystem.sol\":3830:3852  return string(idBytes) */\n      swap6\n      pop\n      pop\n      pop\n      pop\n      pop\n      pop\n        /* \"VotingSystem.sol\":2852:3860  function createId(string memory _name) internal view returns (string memory) {... */\n      swap2\n      swap1\n      pop\n      jump\t// out\n        /* \"VotingSystem.sol\":1655:2022  function compareBytes(bytes memory a, bytes memory b) internal pure returns (bool) {... */\n    tag_319:\n        /* \"VotingSystem.sol\":1732:1736  bool */\n      0x00\n        /* \"VotingSystem.sol\":1765:1766  b */\n      dup2\n        /* \"VotingSystem.sol\":1765:1773  b.length */\n      mload\n        /* \"VotingSystem.sol\":1753:1754  a */\n      dup4\n        /* \"VotingSystem.sol\":1753:1761  a.length */\n      mload\n        /* \"VotingSystem.sol\":1753:1773  a.length != b.length */\n      eq\n        /* \"VotingSystem.sol\":1749:2015  if (a.length != b.length) {... */\n      tag_325\n      jumpi\n        /* \"VotingSystem.sol\":1797:1802  false */\n      0x00\n        /* \"VotingSystem.sol\":1790:1802  return false */\n      swap1\n      pop\n      jump(tag_324)\n        /* \"VotingSystem.sol\":1749:2015  if (a.length != b.length) {... */\n    tag_325:\n        /* \"VotingSystem.sol\":1840:1846  uint i */\n      0x00\n        /* \"VotingSystem.sol\":1835:1978  for (uint i = 0; i < a.length; i++) {... */\n    tag_327:\n        /* \"VotingSystem.sol\":1856:1857  a */\n      dup4\n        /* \"VotingSystem.sol\":1856:1864  a.length */\n      mload\n        /* \"VotingSystem.sol\":1852:1853  i */\n      dup2\n        /* \"VotingSystem.sol\":1852:1864  i < a.length */\n      lt\n        /* \"VotingSystem.sol\":1835:1978  for (uint i = 0; i < a.length; i++) {... */\n      iszero\n      tag_328\n      jumpi\n        /* \"VotingSystem.sol\":1902:1903  b */\n      dup3\n        /* \"VotingSystem.sol\":1904:1905  i */\n      dup2\n        /* \"VotingSystem.sol\":1902:1906  b[i] */\n      dup2\n      mload\n      dup2\n      lt\n      tag_330\n      jumpi\n      tag_331\n      tag_66\n      jump\t// in\n    tag_331:\n    tag_330:\n      0x20\n      add\n      add\n      mload\n      0xf8\n      shr\n      0xf8\n      shl\n        /* \"VotingSystem.sol\":1894:1906  a[i] != b[i] */\n      not(0xffffffffffffffffffffffffffffffffffffffffffffffffffffffffffffff)\n      and\n        /* \"VotingSystem.sol\":1894:1895  a */\n      dup5\n        /* \"VotingSystem.sol\":1896:1897  i */\n      dup3\n        /* \"VotingSystem.sol\":1894:1898  a[i] */\n      dup2\n      mload\n      dup2\n      lt\n      tag_332\n      jumpi\n      tag_333\n      tag_66\n      jump\t// in\n    tag_333:\n    tag_332:\n      0x20\n      add\n      add\n      mload\n      0xf8\n      shr\n      0xf8\n      shl\n        /* \"VotingSystem.sol\":1894:1906  a[i] != b[i] */\n      not(0xffffffffffffffffffffffffffffffffffffffffffffffffffffffffffffff)\n      and\n      eq\n        /* \"VotingSystem.sol\":1890:1963  if (a[i] != b[i]) {... */\n      tag_334\n      jumpi\n        /* \"VotingSystem.sol\":1938:1943  false */\n      0x00\n        /* \"VotingSystem.sol\":1931:1943  return false */\n      swap2\n      pop\n      pop\n      jump(tag_324)\n        /* \"VotingSystem.sol\":1890:1963  if (a[i] != b[i]) {... */\n    tag_334:\n        /* \"VotingSystem.sol\":1866:1869  i++ */\n      dup1\n      dup1\n      tag_335\n      swap1\n      tag_89\n      jump\t// in\n    tag_335:\n      swap2\n      pop\n      pop\n        /* \"VotingSystem.sol\":1835:1978  for (uint i = 0; i < a.length; i++) {... */\n      jump(tag_327)\n    tag_328:\n      pop\n        /* \"VotingSystem.sol\":1999:2003  true */\n      0x01\n        /* \"VotingSystem.sol\":1992:2003  return true */\n      swap1\n      pop\n        /* \"VotingSystem.sol\":1655:2022  function compareBytes(bytes memory a, bytes memory b) internal pure returns (bool) {... */\n    tag_324:\n      swap3\n      swap2\n      pop\n      pop\n      jump\t// out\n        /* \"#utility.yul\":7:82   */\n    tag_336:\n        /* \"#utility.yul\":40:46   */\n      0x00\n        /* \"#utility.yul\":73:75   */\n      0x40\n        /* \"#utility.yul\":67:76   */\n      mload\n        /* \"#utility.yul\":57:76   */\n      swap1\n      pop\n        /* \"#utility.yul\":7:82   */\n      swap1\n      jump\t// out\n        /* \"#utility.yul\":88:205   */\n    tag_337:\n        /* \"#utility.yul\":197:198   */\n      0x00\n        /* \"#utility.yul\":194:195   */\n      dup1\n        /* \"#utility.yul\":187:199   */\n      revert\n        /* \"#utility.yul\":211:328   */\n    tag_338:\n        /* \"#utility.yul\":320:321   */\n      0x00\n        /* \"#utility.yul\":317:318   */\n      dup1\n        /* \"#utility.yul\":310:322   */\n      revert\n        /* \"#utility.yul\":334:451   */\n    tag_339:\n        /* \"#utility.yul\":443:444   */\n      0x00\n        /* \"#utility.yul\":440:441   */\n      dup1\n        /* \"#utility.yul\":433:445   */\n      revert\n        /* \"#utility.yul\":457:574   */\n    tag_340:\n        /* \"#utility.yul\":566:567   */\n      0x00\n        /* \"#utility.yul\":563:564   */\n      dup1\n        /* \"#utility.yul\":556:568   */\n      revert\n        /* \"#utility.yul\":580:682   */\n    tag_341:\n        /* \"#utility.yul\":621:627   */\n      0x00\n        /* \"#utility.yul\":672:674   */\n      0x1f\n        /* \"#utility.yul\":668:675   */\n      not\n        /* \"#utility.yul\":663:665   */\n      0x1f\n        /* \"#utility.yul\":656:661   */\n      dup4\n        /* \"#utility.yul\":652:666   */\n      add\n        /* \"#utility.yul\":648:676   */\n      and\n        /* \"#utility.yul\":638:676   */\n      swap1\n      pop\n        /* \"#utility.yul\":580:682   */\n      swap2\n      swap1\n      pop\n      jump\t// out\n        /* \"#utility.yul\":688:868   */\n    tag_58:\n        /* \"#utility.yul\":736:813   */\n      0x4e487b7100000000000000000000000000000000000000000000000000000000\n        /* \"#utility.yul\":733:734   */\n      0x00\n        /* \"#utility.yul\":726:814   */\n      mstore\n        /* \"#utility.yul\":833:837   */\n      0x41\n        /* \"#utility.yul\":830:831   */\n      0x04\n        /* \"#utility.yul\":823:838   */\n      mstore\n        /* \"#utility.yul\":857:861   */\n      0x24\n        /* \"#utility.yul\":854:855   */\n      0x00\n        /* \"#utility.yul\":847:862   */\n      revert\n        /* \"#utility.yul\":874:1155   */\n    tag_342:\n        /* \"#utility.yul\":957:984   */\n      tag_428\n        /* \"#utility.yul\":979:983   */\n      dup3\n        /* \"#utility.yul\":957:984   */\n      tag_341\n      jump\t// in\n    tag_428:\n        /* \"#utility.yul\":949:955   */\n      dup2\n        /* \"#utility.yul\":945:985   */\n      add\n        /* \"#utility.yul\":1087:1093   */\n      dup2\n        /* \"#utility.yul\":1075:1085   */\n      dup2\n        /* \"#utility.yul\":1072:1094   */\n      lt\n        /* \"#utility.yul\":1051:1069   */\n      0xffffffffffffffff\n        /* \"#utility.yul\":1039:1049   */\n      dup3\n        /* \"#utility.yul\":1036:1070   */\n      gt\n        /* \"#utility.yul\":1033:1095   */\n      or\n        /* \"#utility.yul\":1030:1118   */\n      iszero\n      tag_429\n      jumpi\n        /* \"#utility.yul\":1098:1116   */\n      tag_430\n      tag_58\n      jump\t// in\n    tag_430:\n        /* \"#utility.yul\":1030:1118   */\n    tag_429:\n        /* \"#utility.yul\":1138:1148   */\n      dup1\n        /* \"#utility.yul\":1134:1136   */\n      0x40\n        /* \"#utility.yul\":1127:1149   */\n      mstore\n        /* \"#utility.yul\":917:1155   */\n      pop\n        /* \"#utility.yul\":874:1155   */\n      pop\n      pop\n      jump\t// out\n        /* \"#utility.yul\":1161:1290   */\n    tag_343:\n        /* \"#utility.yul\":1195:1201   */\n      0x00\n        /* \"#utility.yul\":1222:1242   */\n      tag_432\n      tag_336\n      jump\t// in\n    tag_432:\n        /* \"#utility.yul\":1212:1242   */\n      swap1\n      pop\n        /* \"#utility.yul\":1251:1284   */\n      tag_433\n        /* \"#utility.yul\":1279:1283   */\n      dup3\n        /* \"#utility.yul\":1271:1277   */\n      dup3\n        /* \"#utility.yul\":1251:1284   */\n      tag_342\n      jump\t// in\n    tag_433:\n        /* \"#utility.yul\":1161:1290   */\n      swap2\n      swap1\n      pop\n      jump\t// out\n        /* \"#utility.yul\":1296:1604   */\n    tag_344:\n        /* \"#utility.yul\":1358:1362   */\n      0x00\n        /* \"#utility.yul\":1448:1466   */\n      0xffffffffffffffff\n        /* \"#utility.yul\":1440:1446   */\n      dup3\n        /* \"#utility.yul\":1437:1467   */\n      gt\n        /* \"#utility.yul\":1434:1490   */\n      iszero\n      tag_435\n      jumpi\n        /* \"#utility.yul\":1470:1488   */\n      tag_436\n      tag_58\n      jump\t// in\n    tag_436:\n        /* \"#utility.yul\":1434:1490   */\n    tag_435:\n        /* \"#utility.yul\":1508:1537   */\n      tag_437\n        /* \"#utility.yul\":1530:1536   */\n      dup3\n        /* \"#utility.yul\":1508:1537   */\n      tag_341\n      jump\t// in\n    tag_437:\n        /* \"#utility.yul\":1500:1537   */\n      swap1\n      pop\n        /* \"#utility.yul\":1592:1596   */\n      0x20\n        /* \"#utility.yul\":1586:1590   */\n      dup2\n        /* \"#utility.yul\":1582:1597   */\n      add\n        /* \"#utility.yul\":1574:1597   */\n      swap1\n      pop\n        /* \"#utility.yul\":1296:1604   */\n      swap2\n      swap1\n      pop\n      jump\t// out\n        /* \"#utility.yul\":1610:1756   */\n    tag_345:\n        /* \"#utility.yul\":1707:1713   */\n      dup3\n        /* \"#utility.yul\":1702:1705   */\n      dup2\n        /* \"#utility.yul\":1697:1700   */\n      dup4\n        /* \"#utility.yul\":1684:1714   */\n      calldatacopy\n        /* \"#utility.yul\":1748:1749   */\n      0x00\n        /* \"#utility.yul\":1739:1745   */\n      dup4\n        /* \"#utility.yul\":1734:1737   */\n      dup4\n        /* \"#utility.yul\":1730:1746   */\n      add\n        /* \"#utility.yul\":1723:1750   */\n      mstore\n        /* \"#utility.yul\":1610:1756   */\n      pop\n      pop\n      pop\n      jump\t// out\n        /* \"#utility.yul\":1762:2187   */\n    tag_346:\n        /* \"#utility.yul\":1840:1845   */\n      0x00\n        /* \"#utility.yul\":1865:1931   */\n      tag_440\n        /* \"#utility.yul\":1881:1930   */\n      tag_441\n        /* \"#utility.yul\":1923:1929   */\n      dup5\n        /* \"#utility.yul\":1881:1930   */\n      tag_344\n      jump\t// in\n    tag_441:\n        /* \"#utility.yul\":1865:1931   */\n      tag_343\n      jump\t// in\n    tag_440:\n        /* \"#utility.yul\":1856:1931   */\n      swap1\n      pop\n        /* \"#utility.yul\":1954:1960   */\n      dup3\n        /* \"#utility.yul\":1947:1952   */\n      dup2\n        /* \"#utility.yul\":1940:1961   */\n      mstore\n        /* \"#utility.yul\":1992:1996   */\n      0x20\n        /* \"#utility.yul\":1985:1990   */\n      dup2\n        /* \"#utility.yul\":1981:1997   */\n      add\n        /* \"#utility.yul\":2030:2033   */\n      dup5\n        /* \"#utility.yul\":2021:2027   */\n      dup5\n        /* \"#utility.yul\":2016:2019   */\n      dup5\n        /* \"#utility.yul\":2012:2028   */\n      add\n        /* \"#utility.yul\":2009:2034   */\n      gt\n        /* \"#utility.yul\":2006:2118   */\n      iszero\n      tag_442\n      jumpi\n        /* \"#utility.yul\":2037:2116   */\n      tag_443\n      tag_340\n      jump\t// in\n    tag_443:\n        /* \"#utility.yul\":2006:2118   */\n    tag_442:\n        /* \"#utility.yul\":2127:2181   */\n      tag_444\n        /* \"#utility.yul\":2174:2180   */\n      dup5\n        /* \"#utility.yul\":2169:2172   */\n      dup3\n        /* \"#utility.yul\":2164:2167   */\n      dup6\n        /* \"#utility.yul\":2127:2181   */\n      tag_345\n      jump\t// in\n    tag_444:\n        /* \"#utility.yul\":1846:2187   */\n      pop\n        /* \"#utility.yul\":1762:2187   */\n      swap4\n      swap3\n      pop\n      pop\n      pop\n      jump\t// out\n        /* \"#utility.yul\":2207:2547   */\n    tag_347:\n        /* \"#utility.yul\":2263:2268   */\n      0x00\n        /* \"#utility.yul\":2312:2315   */\n      dup3\n        /* \"#utility.yul\":2305:2309   */\n      0x1f\n        /* \"#utility.yul\":2297:2303   */\n      dup4\n        /* \"#utility.yul\":2293:2310   */\n      add\n        /* \"#utility.yul\":2289:2316   */\n      slt\n        /* \"#utility.yul\":2279:2401   */\n      tag_446\n      jumpi\n        /* \"#utility.yul\":2320:2399   */\n      tag_447\n      tag_339\n      jump\t// in\n    tag_447:\n        /* \"#utility.yul\":2279:2401   */\n    tag_446:\n        /* \"#utility.yul\":2437:2443   */\n      dup2\n        /* \"#utility.yul\":2424:2444   */\n      calldataload\n        /* \"#utility.yul\":2462:2541   */\n      tag_448\n        /* \"#utility.yul\":2537:2540   */\n      dup5\n        /* \"#utility.yul\":2529:2535   */\n      dup3\n        /* \"#utility.yul\":2522:2526   */\n      0x20\n        /* \"#utility.yul\":2514:2520   */\n      dup7\n        /* \"#utility.yul\":2510:2527   */\n      add\n        /* \"#utility.yul\":2462:2541   */\n      tag_346\n      jump\t// in\n    tag_448:\n        /* \"#utility.yul\":2453:2541   */\n      swap2\n      pop\n        /* \"#utility.yul\":2269:2547   */\n      pop\n        /* \"#utility.yul\":2207:2547   */\n      swap3\n      swap2\n      pop\n      pop\n      jump\t// out\n        /* \"#utility.yul\":2553:3387   */\n    tag_16:\n        /* \"#utility.yul\":2641:2647   */\n      0x00\n        /* \"#utility.yul\":2649:2655   */\n      dup1\n        /* \"#utility.yul\":2698:2700   */\n      0x40\n        /* \"#utility.yul\":2686:2695   */\n      dup4\n        /* \"#utility.yul\":2677:2684   */\n      dup6\n        /* \"#utility.yul\":2673:2696   */\n      sub\n        /* \"#utility.yul\":2669:2701   */\n      slt\n        /* \"#utility.yul\":2666:2785   */\n      iszero\n      tag_450\n      jumpi\n        /* \"#utility.yul\":2704:2783   */\n      tag_451\n      tag_337\n      jump\t// in\n    tag_451:\n        /* \"#utility.yul\":2666:2785   */\n    tag_450:\n        /* \"#utility.yul\":2852:2853   */\n      0x00\n        /* \"#utility.yul\":2841:2850   */\n      dup4\n        /* \"#utility.yul\":2837:2854   */\n      add\n        /* \"#utility.yul\":2824:2855   */\n      calldataload\n        /* \"#utility.yul\":2882:2900   */\n      0xffffffffffffffff\n        /* \"#utility.yul\":2874:2880   */\n      dup2\n        /* \"#utility.yul\":2871:2901   */\n      gt\n        /* \"#utility.yul\":2868:2985   */\n      iszero\n      tag_452\n      jumpi\n        /* \"#utility.yul\":2904:2983   */\n      tag_453\n      tag_338\n      jump\t// in\n    tag_453:\n        /* \"#utility.yul\":2868:2985   */\n    tag_452:\n        /* \"#utility.yul\":3009:3072   */\n      tag_454\n        /* \"#utility.yul\":3064:3071   */\n      dup6\n        /* \"#utility.yul\":3055:3061   */\n      dup3\n        /* \"#utility.yul\":3044:3053   */\n      dup7\n        /* \"#utility.yul\":3040:3062   */\n      add\n        /* \"#utility.yul\":3009:3072   */\n      tag_347\n      jump\t// in\n    tag_454:\n        /* \"#utility.yul\":2999:3072   */\n      swap3\n      pop\n        /* \"#utility.yul\":2795:3082   */\n      pop\n        /* \"#utility.yul\":3149:3151   */\n      0x20\n        /* \"#utility.yul\":3138:3147   */\n      dup4\n        /* \"#utility.yul\":3134:3152   */\n      add\n        /* \"#utility.yul\":3121:3153   */\n      calldataload\n        /* \"#utility.yul\":3180:3198   */\n      0xffffffffffffffff\n        /* \"#utility.yul\":3172:3178   */\n      dup2\n        /* \"#utility.yul\":3169:3199   */\n      gt\n        /* \"#utility.yul\":3166:3283   */\n      iszero\n      tag_455\n      jumpi\n        /* \"#utility.yul\":3202:3281   */\n      tag_456\n      tag_338\n      jump\t// in\n    tag_456:\n        /* \"#utility.yul\":3166:3283   */\n    tag_455:\n        /* \"#utility.yul\":3307:3370   */\n      tag_457\n        /* \"#utility.yul\":3362:3369   */\n      dup6\n        /* \"#utility.yul\":3353:3359   */\n      dup3\n        /* \"#utility.yul\":3342:3351   */\n      dup7\n        /* \"#utility.yul\":3338:3360   */\n      add\n        /* \"#utility.yul\":3307:3370   */\n      tag_347\n      jump\t// in\n    tag_457:\n        /* \"#utility.yul\":3297:3370   */\n      swap2\n      pop\n        /* \"#utility.yul\":3092:3380   */\n      pop\n        /* \"#utility.yul\":2553:3387   */\n      swap3\n      pop\n      swap3\n      swap1\n      pop\n      jump\t// out\n        /* \"#utility.yul\":3393:3517   */\n    tag_348:\n        /* \"#utility.yul\":3470:3476   */\n      0x00\n        /* \"#utility.yul\":3504:3509   */\n      dup2\n        /* \"#utility.yul\":3498:3510   */\n      mload\n        /* \"#utility.yul\":3488:3510   */\n      swap1\n      pop\n        /* \"#utility.yul\":3393:3517   */\n      swap2\n      swap1\n      pop\n      jump\t// out\n        /* \"#utility.yul\":3523:3717   */\n    tag_349:\n        /* \"#utility.yul\":3632:3643   */\n      0x00\n        /* \"#utility.yul\":3666:3672   */\n      dup3\n        /* \"#utility.yul\":3661:3664   */\n      dup3\n        /* \"#utility.yul\":3654:3673   */\n      mstore\n        /* \"#utility.yul\":3706:3710   */\n      0x20\n        /* \"#utility.yul\":3701:3704   */\n      dup3\n        /* \"#utility.yul\":3697:3711   */\n      add\n        /* \"#utility.yul\":3682:3711   */\n      swap1\n      pop\n        /* \"#utility.yul\":3523:3717   */\n      swap3\n      swap2\n      pop\n      pop\n      jump\t// out\n        /* \"#utility.yul\":3723:3865   */\n    tag_350:\n        /* \"#utility.yul\":3800:3804   */\n      0x00\n        /* \"#utility.yul\":3823:3826   */\n      dup2\n        /* \"#utility.yul\":3815:3826   */\n      swap1\n      pop\n        /* \"#utility.yul\":3853:3857   */\n      0x20\n        /* \"#utility.yul\":3848:3851   */\n      dup3\n        /* \"#utility.yul\":3844:3858   */\n      add\n        /* \"#utility.yul\":3836:3858   */\n      swap1\n      pop\n        /* \"#utility.yul\":3723:3865   */\n      swap2\n      swap1\n      pop\n      jump\t// out\n        /* \"#utility.yul\":3871:3970   */\n    tag_351:\n        /* \"#utility.yul\":3923:3929   */\n      0x00\n        /* \"#utility.yul\":3957:3962   */\n      dup2\n        /* \"#utility.yul\":3951:3963   */\n      mload\n        /* \"#utility.yul\":3941:3963   */\n      swap1\n      pop\n        /* \"#utility.yul\":3871:3970   */\n      swap2\n      swap1\n      pop\n      jump\t// out\n        /* \"#utility.yul\":3976:4135   */\n    tag_352:\n        /* \"#utility.yul\":4050:4061   */\n      0x00\n        /* \"#utility.yul\":4084:4090   */\n      dup3\n        /* \"#utility.yul\":4079:4082   */\n      dup3\n        /* \"#utility.yul\":4072:4091   */\n      mstore\n        /* \"#utility.yul\":4124:4128   */\n      0x20\n        /* \"#utility.yul\":4119:4122   */\n      dup3\n        /* \"#utility.yul\":4115:4129   */\n      add\n        /* \"#utility.yul\":4100:4129   */\n      swap1\n      pop\n        /* \"#utility.yul\":3976:4135   */\n      swap3\n      swap2\n      pop\n      pop\n      jump\t// out\n        /* \"#utility.yul\":4141:4387   */\n    tag_353:\n        /* \"#utility.yul\":4222:4223   */\n      0x00\n        /* \"#utility.yul\":4232:4345   */\n    tag_464:\n        /* \"#utility.yul\":4246:4252   */\n      dup4\n        /* \"#utility.yul\":4243:4244   */\n      dup2\n        /* \"#utility.yul\":4240:4253   */\n      lt\n        /* \"#utility.yul\":4232:4345   */\n      iszero\n      tag_466\n      jumpi\n        /* \"#utility.yul\":4331:4332   */\n      dup1\n        /* \"#utility.yul\":4326:4329   */\n      dup3\n        /* \"#utility.yul\":4322:4333   */\n      add\n        /* \"#utility.yul\":4316:4334   */\n      mload\n        /* \"#utility.yul\":4312:4313   */\n      dup2\n        /* \"#utility.yul\":4307:4310   */\n      dup5\n        /* \"#utility.yul\":4303:4314   */\n      add\n        /* \"#utility.yul\":4296:4335   */\n      mstore\n        /* \"#utility.yul\":4268:4270   */\n      0x20\n        /* \"#utility.yul\":4265:4266   */\n      dup2\n        /* \"#utility.yul\":4261:4271   */\n      add\n        /* \"#utility.yul\":4256:4271   */\n      swap1\n      pop\n        /* \"#utility.yul\":4232:4345   */\n      jump(tag_464)\n    tag_466:\n        /* \"#utility.yul\":4379:4380   */\n      0x00\n        /* \"#utility.yul\":4370:4376   */\n      dup5\n        /* \"#utility.yul\":4365:4368   */\n      dup5\n        /* \"#utility.yul\":4361:4377   */\n      add\n        /* \"#utility.yul\":4354:4381   */\n      mstore\n        /* \"#utility.yul\":4203:4387   */\n      pop\n        /* \"#utility.yul\":4141:4387   */\n      pop\n      pop\n      pop\n      jump\t// out\n        /* \"#utility.yul\":4393:4750   */\n    tag_354:\n        /* \"#utility.yul\":4471:4474   */\n      0x00\n        /* \"#utility.yul\":4499:4538   */\n      tag_468\n        /* \"#utility.yul\":4532:4537   */\n      dup3\n        /* \"#utility.yul\":4499:4538   */\n      tag_351\n      jump\t// in\n    tag_468:\n        /* \"#utility.yul\":4554:4615   */\n      tag_469\n        /* \"#utility.yul\":4608:4614   */\n      dup2\n        /* \"#utility.yul\":4603:4606   */\n      dup6\n        /* \"#utility.yul\":4554:4615   */\n      tag_352\n      jump\t// in\n    tag_469:\n        /* \"#utility.yul\":4547:4615   */\n      swap4\n      pop\n        /* \"#utility.yul\":4624:4689   */\n      tag_470\n        /* \"#utility.yul\":4682:4688   */\n      dup2\n        /* \"#utility.yul\":4677:4680   */\n      dup6\n        /* \"#utility.yul\":4670:4674   */\n      0x20\n        /* \"#utility.yul\":4663:4668   */\n      dup7\n        /* \"#utility.yul\":4659:4675   */\n      add\n        /* \"#utility.yul\":4624:4689   */\n      tag_353\n      jump\t// in\n    tag_470:\n        /* \"#utility.yul\":4714:4743   */\n      tag_471\n        /* \"#utility.yul\":4736:4742   */\n      dup2\n        /* \"#utility.yul\":4714:4743   */\n      tag_341\n      jump\t// in\n    tag_471:\n        /* \"#utility.yul\":4709:4712   */\n      dup5\n        /* \"#utility.yul\":4705:4744   */\n      add\n        /* \"#utility.yul\":4698:4744   */\n      swap2\n      pop\n        /* \"#utility.yul\":4475:4750   */\n      pop\n        /* \"#utility.yul\":4393:4750   */\n      swap3\n      swap2\n      pop\n      pop\n      jump\t// out\n        /* \"#utility.yul\":4756:4952   */\n    tag_355:\n        /* \"#utility.yul\":4845:4855   */\n      0x00\n        /* \"#utility.yul\":4880:4946   */\n      tag_473\n        /* \"#utility.yul\":4942:4945   */\n      dup4\n        /* \"#utility.yul\":4934:4940   */\n      dup4\n        /* \"#utility.yul\":4880:4946   */\n      tag_354\n      jump\t// in\n    tag_473:\n        /* \"#utility.yul\":4866:4946   */\n      swap1\n      pop\n        /* \"#utility.yul\":4756:4952   */\n      swap3\n      swap2\n      pop\n      pop\n      jump\t// out\n        /* \"#utility.yul\":4958:5081   */\n    tag_356:\n        /* \"#utility.yul\":5038:5042   */\n      0x00\n        /* \"#utility.yul\":5070:5074   */\n      0x20\n        /* \"#utility.yul\":5065:5068   */\n      dup3\n        /* \"#utility.yul\":5061:5075   */\n      add\n        /* \"#utility.yul\":5053:5075   */\n      swap1\n      pop\n        /* \"#utility.yul\":4958:5081   */\n      swap2\n      swap1\n      pop\n      jump\t// out\n        /* \"#utility.yul\":5115:6106   */\n    tag_357:\n        /* \"#utility.yul\":5254:5257   */\n      0x00\n        /* \"#utility.yul\":5283:5347   */\n      tag_476\n        /* \"#utility.yul\":5341:5346   */\n      dup3\n        /* \"#utility.yul\":5283:5347   */\n      tag_348\n      jump\t// in\n    tag_476:\n        /* \"#utility.yul\":5363:5459   */\n      tag_477\n        /* \"#utility.yul\":5452:5458   */\n      dup2\n        /* \"#utility.yul\":5447:5450   */\n      dup6\n        /* \"#utility.yul\":5363:5459   */\n      tag_349\n      jump\t// in\n    tag_477:\n        /* \"#utility.yul\":5356:5459   */\n      swap4\n      pop\n        /* \"#utility.yul\":5485:5488   */\n      dup4\n        /* \"#utility.yul\":5530:5534   */\n      0x20\n        /* \"#utility.yul\":5522:5528   */\n      dup3\n        /* \"#utility.yul\":5518:5535   */\n      mul\n        /* \"#utility.yul\":5513:5516   */\n      dup6\n        /* \"#utility.yul\":5509:5536   */\n      add\n        /* \"#utility.yul\":5560:5626   */\n      tag_478\n        /* \"#utility.yul\":5620:5625   */\n      dup6\n        /* \"#utility.yul\":5560:5626   */\n      tag_350\n      jump\t// in\n    tag_478:\n        /* \"#utility.yul\":5649:5656   */\n      dup1\n        /* \"#utility.yul\":5680:5681   */\n      0x00\n        /* \"#utility.yul\":5665:6061   */\n    tag_479:\n        /* \"#utility.yul\":5690:5696   */\n      dup6\n        /* \"#utility.yul\":5687:5688   */\n      dup2\n        /* \"#utility.yul\":5684:5697   */\n      lt\n        /* \"#utility.yul\":5665:6061   */\n      iszero\n      tag_481\n      jumpi\n        /* \"#utility.yul\":5761:5770   */\n      dup5\n        /* \"#utility.yul\":5755:5759   */\n      dup5\n        /* \"#utility.yul\":5751:5771   */\n      sub\n        /* \"#utility.yul\":5746:5749   */\n      dup10\n        /* \"#utility.yul\":5739:5772   */\n      mstore\n        /* \"#utility.yul\":5812:5818   */\n      dup2\n        /* \"#utility.yul\":5806:5819   */\n      mload\n        /* \"#utility.yul\":5840:5924   */\n      tag_482\n        /* \"#utility.yul\":5919:5923   */\n      dup6\n        /* \"#utility.yul\":5904:5917   */\n      dup3\n        /* \"#utility.yul\":5840:5924   */\n      tag_355\n      jump\t// in\n    tag_482:\n        /* \"#utility.yul\":5832:5924   */\n      swap5\n      pop\n        /* \"#utility.yul\":5947:6017   */\n      tag_483\n        /* \"#utility.yul\":6010:6016   */\n      dup4\n        /* \"#utility.yul\":5947:6017   */\n      tag_356\n      jump\t// in\n    tag_483:\n        /* \"#utility.yul\":5937:6017   */\n      swap3\n      pop\n        /* \"#utility.yul\":6046:6050   */\n      0x20\n        /* \"#utility.yul\":6041:6044   */\n      dup11\n        /* \"#utility.yul\":6037:6051   */\n      add\n        /* \"#utility.yul\":6030:6051   */\n      swap10\n      pop\n        /* \"#utility.yul\":5725:6061   */\n      pop\n        /* \"#utility.yul\":5712:5713   */\n      0x01\n        /* \"#utility.yul\":5709:5710   */\n      dup2\n        /* \"#utility.yul\":5705:5714   */\n      add\n        /* \"#utility.yul\":5700:5714   */\n      swap1\n      pop\n        /* \"#utility.yul\":5665:6061   */\n      jump(tag_479)\n    tag_481:\n        /* \"#utility.yul\":5669:5683   */\n      pop\n        /* \"#utility.yul\":6077:6081   */\n      dup3\n        /* \"#utility.yul\":6070:6081   */\n      swap8\n      pop\n        /* \"#utility.yul\":6097:6100   */\n      dup8\n        /* \"#utility.yul\":6090:6100   */\n      swap6\n      pop\n        /* \"#utility.yul\":5259:6106   */\n      pop\n      pop\n      pop\n      pop\n      pop\n        /* \"#utility.yul\":5115:6106   */\n      swap3\n      swap2\n      pop\n      pop\n      jump\t// out\n        /* \"#utility.yul\":6112:6525   */\n    tag_21:\n        /* \"#utility.yul\":6275:6279   */\n      0x00\n        /* \"#utility.yul\":6313:6315   */\n      0x20\n        /* \"#utility.yul\":6302:6311   */\n      dup3\n        /* \"#utility.yul\":6298:6316   */\n      add\n        /* \"#utility.yul\":6290:6316   */\n      swap1\n      pop\n        /* \"#utility.yul\":6362:6371   */\n      dup2\n        /* \"#utility.yul\":6356:6360   */\n      dup2\n        /* \"#utility.yul\":6352:6372   */\n      sub\n        /* \"#utility.yul\":6348:6349   */\n      0x00\n        /* \"#utility.yul\":6337:6346   */\n      dup4\n        /* \"#utility.yul\":6333:6350   */\n      add\n        /* \"#utility.yul\":6326:6373   */\n      mstore\n        /* \"#utility.yul\":6390:6518   */\n      tag_485\n        /* \"#utility.yul\":6513:6517   */\n      dup2\n        /* \"#utility.yul\":6504:6510   */\n      dup5\n        /* \"#utility.yul\":6390:6518   */\n      tag_357\n      jump\t// in\n    tag_485:\n        /* \"#utility.yul\":6382:6518   */\n      swap1\n      pop\n        /* \"#utility.yul\":6112:6525   */\n      swap3\n      swap2\n      pop\n      pop\n      jump\t// out\n        /* \"#utility.yul\":6531:7040   */\n    tag_24:\n        /* \"#utility.yul\":6600:6606   */\n      0x00\n        /* \"#utility.yul\":6649:6651   */\n      0x20\n        /* \"#utility.yul\":6637:6646   */\n      dup3\n        /* \"#utility.yul\":6628:6635   */\n      dup5\n        /* \"#utility.yul\":6624:6647   */\n      sub\n        /* \"#utility.yul\":6620:6652   */\n      slt\n        /* \"#utility.yul\":6617:6736   */\n      iszero\n      tag_487\n      jumpi\n        /* \"#utility.yul\":6655:6734   */\n      tag_488\n      tag_337\n      jump\t// in\n    tag_488:\n        /* \"#utility.yul\":6617:6736   */\n    tag_487:\n        /* \"#utility.yul\":6803:6804   */\n      0x00\n        /* \"#utility.yul\":6792:6801   */\n      dup3\n        /* \"#utility.yul\":6788:6805   */\n      add\n        /* \"#utility.yul\":6775:6806   */\n      calldataload\n        /* \"#utility.yul\":6833:6851   */\n      0xffffffffffffffff\n        /* \"#utility.yul\":6825:6831   */\n      dup2\n        /* \"#utility.yul\":6822:6852   */\n      gt\n        /* \"#utility.yul\":6819:6936   */\n      iszero\n      tag_489\n      jumpi\n        /* \"#utility.yul\":6855:6934   */\n      tag_490\n      tag_338\n      jump\t// in\n    tag_490:\n        /* \"#utility.yul\":6819:6936   */\n    tag_489:\n        /* \"#utility.yul\":6960:7023   */\n      tag_491\n        /* \"#utility.yul\":7015:7022   */\n      dup5\n        /* \"#utility.yul\":7006:7012   */\n      dup3\n        /* \"#utility.yul\":6995:7004   */\n      dup6\n        /* \"#utility.yul\":6991:7013   */\n      add\n        /* \"#utility.yul\":6960:7023   */\n      tag_347\n      jump\t// in\n    tag_491:\n        /* \"#utility.yul\":6950:7023   */\n      swap2\n      pop\n        /* \"#utility.yul\":6746:7033   */\n      pop\n        /* \"#utility.yul\":6531:7040   */\n      swap3\n      swap2\n      pop\n      pop\n      jump\t// out\n        /* \"#utility.yul\":7046:7172   */\n    tag_358:\n        /* \"#utility.yul\":7083:7090   */\n      0x00\n        /* \"#utility.yul\":7123:7165   */\n      0xffffffffffffffffffffffffffffffffffffffff\n        /* \"#utility.yul\":7116:7121   */\n      dup3\n        /* \"#utility.yul\":7112:7166   */\n      and\n        /* \"#utility.yul\":7101:7166   */\n      swap1\n      pop\n        /* \"#utility.yul\":7046:7172   */\n      swap2\n      swap1\n      pop\n      jump\t// out\n        /* \"#utility.yul\":7178:7274   */\n    tag_359:\n        /* \"#utility.yul\":7215:7222   */\n      0x00\n        /* \"#utility.yul\":7244:7268   */\n      tag_494\n        /* \"#utility.yul\":7262:7267   */\n      dup3\n        /* \"#utility.yul\":7244:7268   */\n      tag_358\n      jump\t// in\n    tag_494:\n        /* \"#utility.yul\":7233:7268   */\n      swap1\n      pop\n        /* \"#utility.yul\":7178:7274   */\n      swap2\n      swap1\n      pop\n      jump\t// out\n        /* \"#utility.yul\":7280:7398   */\n    tag_360:\n        /* \"#utility.yul\":7367:7391   */\n      tag_496\n        /* \"#utility.yul\":7385:7390   */\n      dup2\n        /* \"#utility.yul\":7367:7391   */\n      tag_359\n      jump\t// in\n    tag_496:\n        /* \"#utility.yul\":7362:7365   */\n      dup3\n        /* \"#utility.yul\":7355:7392   */\n      mstore\n        /* \"#utility.yul\":7280:7398   */\n      pop\n      pop\n      jump\t// out\n        /* \"#utility.yul\":7404:7573   */\n    tag_361:\n        /* \"#utility.yul\":7488:7499   */\n      0x00\n        /* \"#utility.yul\":7522:7528   */\n      dup3\n        /* \"#utility.yul\":7517:7520   */\n      dup3\n        /* \"#utility.yul\":7510:7529   */\n      mstore\n        /* \"#utility.yul\":7562:7566   */\n      0x20\n        /* \"#utility.yul\":7557:7560   */\n      dup3\n        /* \"#utility.yul\":7553:7567   */\n      add\n        /* \"#utility.yul\":7538:7567   */\n      swap1\n      pop\n        /* \"#utility.yul\":7404:7573   */\n      swap3\n      swap2\n      pop\n      pop\n      jump\t// out\n        /* \"#utility.yul\":7579:7956   */\n    tag_362:\n        /* \"#utility.yul\":7667:7670   */\n      0x00\n        /* \"#utility.yul\":7695:7734   */\n      tag_499\n        /* \"#utility.yul\":7728:7733   */\n      dup3\n        /* \"#utility.yul\":7695:7734   */\n      tag_351\n      jump\t// in\n    tag_499:\n        /* \"#utility.yul\":7750:7821   */\n      tag_500\n        /* \"#utility.yul\":7814:7820   */\n      dup2\n        /* \"#utility.yul\":7809:7812   */\n      dup6\n        /* \"#utility.yul\":7750:7821   */\n      tag_361\n      jump\t// in\n    tag_500:\n        /* \"#utility.yul\":7743:7821   */\n      swap4\n      pop\n        /* \"#utility.yul\":7830:7895   */\n      tag_501\n        /* \"#utility.yul\":7888:7894   */\n      dup2\n        /* \"#utility.yul\":7883:7886   */\n      dup6\n        /* \"#utility.yul\":7876:7880   */\n      0x20\n        /* \"#utility.yul\":7869:7874   */\n      dup7\n        /* \"#utility.yul\":7865:7881   */\n      add\n        /* \"#utility.yul\":7830:7895   */\n      tag_353\n      jump\t// in\n    tag_501:\n        /* \"#utility.yul\":7920:7949   */\n      tag_502\n        /* \"#utility.yul\":7942:7948   */\n      dup2\n        /* \"#utility.yul\":7920:7949   */\n      tag_341\n      jump\t// in\n    tag_502:\n        /* \"#utility.yul\":7915:7918   */\n      dup5\n        /* \"#utility.yul\":7911:7950   */\n      add\n        /* \"#utility.yul\":7904:7950   */\n      swap2\n      pop\n        /* \"#utility.yul\":7671:7956   */\n      pop\n        /* \"#utility.yul\":7579:7956   */\n      swap3\n      swap2\n      pop\n      pop\n      jump\t// out\n        /* \"#utility.yul\":7962:8039   */\n    tag_363:\n        /* \"#utility.yul\":7999:8006   */\n      0x00\n        /* \"#utility.yul\":8028:8033   */\n      dup2\n        /* \"#utility.yul\":8017:8033   */\n      swap1\n      pop\n        /* \"#utility.yul\":7962:8039   */\n      swap2\n      swap1\n      pop\n      jump\t// out\n        /* \"#utility.yul\":8045:8163   */\n    tag_364:\n        /* \"#utility.yul\":8132:8156   */\n      tag_505\n        /* \"#utility.yul\":8150:8155   */\n      dup2\n        /* \"#utility.yul\":8132:8156   */\n      tag_363\n      jump\t// in\n    tag_505:\n        /* \"#utility.yul\":8127:8130   */\n      dup3\n        /* \"#utility.yul\":8120:8157   */\n      mstore\n        /* \"#utility.yul\":8045:8163   */\n      pop\n      pop\n      jump\t// out\n        /* \"#utility.yul\":8169:8702   */\n    tag_27:\n        /* \"#utility.yul\":8338:8342   */\n      0x00\n        /* \"#utility.yul\":8376:8378   */\n      0x60\n        /* \"#utility.yul\":8365:8374   */\n      dup3\n        /* \"#utility.yul\":8361:8379   */\n      add\n        /* \"#utility.yul\":8353:8379   */\n      swap1\n      pop\n        /* \"#utility.yul\":8389:8460   */\n      tag_507\n        /* \"#utility.yul\":8457:8458   */\n      0x00\n        /* \"#utility.yul\":8446:8455   */\n      dup4\n        /* \"#utility.yul\":8442:8459   */\n      add\n        /* \"#utility.yul\":8433:8439   */\n      dup7\n        /* \"#utility.yul\":8389:8460   */\n      tag_360\n      jump\t// in\n    tag_507:\n        /* \"#utility.yul\":8507:8516   */\n      dup2\n        /* \"#utility.yul\":8501:8505   */\n      dup2\n        /* \"#utility.yul\":8497:8517   */\n      sub\n        /* \"#utility.yul\":8492:8494   */\n      0x20\n        /* \"#utility.yul\":8481:8490   */\n      dup4\n        /* \"#utility.yul\":8477:8495   */\n      add\n        /* \"#utility.yul\":8470:8518   */\n      mstore\n        /* \"#utility.yul\":8535:8613   */\n      tag_508\n        /* \"#utility.yul\":8608:8612   */\n      dup2\n        /* \"#utility.yul\":8599:8605   */\n      dup6\n        /* \"#utility.yul\":8535:8613   */\n      tag_362\n      jump\t// in\n    tag_508:\n        /* \"#utility.yul\":8527:8613   */\n      swap1\n      pop\n        /* \"#utility.yul\":8623:8695   */\n      tag_509\n        /* \"#utility.yul\":8691:8693   */\n      0x40\n        /* \"#utility.yul\":8680:8689   */\n      dup4\n        /* \"#utility.yul\":8676:8694   */\n      add\n        /* \"#utility.yul\":8667:8673   */\n      dup5\n        /* \"#utility.yul\":8623:8695   */\n      tag_364\n      jump\t// in\n    tag_509:\n        /* \"#utility.yul\":8169:8702   */\n      swap5\n      swap4\n      pop\n      pop\n      pop\n      pop\n      jump\t// out\n        /* \"#utility.yul\":8708:8930   */\n    tag_35:\n        /* \"#utility.yul\":8801:8805   */\n      0x00\n        /* \"#utility.yul\":8839:8841   */\n      0x20\n        /* \"#utility.yul\":8828:8837   */\n      dup3\n        /* \"#utility.yul\":8824:8842   */\n      add\n        /* \"#utility.yul\":8816:8842   */\n      swap1\n      pop\n        /* \"#utility.yul\":8852:8923   */\n      tag_511\n        /* \"#utility.yul\":8920:8921   */\n      0x00\n        /* \"#utility.yul\":8909:8918   */\n      dup4\n        /* \"#utility.yul\":8905:8922   */\n      add\n        /* \"#utility.yul\":8896:8902   */\n      dup5\n        /* \"#utility.yul\":8852:8923   */\n      tag_364\n      jump\t// in\n    tag_511:\n        /* \"#utility.yul\":8708:8930   */\n      swap3\n      swap2\n      pop\n      pop\n      jump\t// out\n        /* \"#utility.yul\":8936:9249   */\n    tag_41:\n        /* \"#utility.yul\":9049:9053   */\n      0x00\n        /* \"#utility.yul\":9087:9089   */\n      0x20\n        /* \"#utility.yul\":9076:9085   */\n      dup3\n        /* \"#utility.yul\":9072:9090   */\n      add\n        /* \"#utility.yul\":9064:9090   */\n      swap1\n      pop\n        /* \"#utility.yul\":9136:9145   */\n      dup2\n        /* \"#utility.yul\":9130:9134   */\n      dup2\n        /* \"#utility.yul\":9126:9146   */\n      sub\n        /* \"#utility.yul\":9122:9123   */\n      0x00\n        /* \"#utility.yul\":9111:9120   */\n      dup4\n        /* \"#utility.yul\":9107:9124   */\n      add\n        /* \"#utility.yul\":9100:9147   */\n      mstore\n        /* \"#utility.yul\":9164:9242   */\n      tag_513\n        /* \"#utility.yul\":9237:9241   */\n      dup2\n        /* \"#utility.yul\":9228:9234   */\n      dup5\n        /* \"#utility.yul\":9164:9242   */\n      tag_362\n      jump\t// in\n    tag_513:\n        /* \"#utility.yul\":9156:9242   */\n      swap1\n      pop\n        /* \"#utility.yul\":8936:9249   */\n      swap3\n      swap2\n      pop\n      pop\n      jump\t// out\n        /* \"#utility.yul\":9255:9345   */\n    tag_365:\n        /* \"#utility.yul\":9289:9296   */\n      0x00\n        /* \"#utility.yul\":9332:9337   */\n      dup2\n        /* \"#utility.yul\":9325:9338   */\n      iszero\n        /* \"#utility.yul\":9318:9339   */\n      iszero\n        /* \"#utility.yul\":9307:9339   */\n      swap1\n      pop\n        /* \"#utility.yul\":9255:9345   */\n      swap2\n      swap1\n      pop\n      jump\t// out\n        /* \"#utility.yul\":9351:9460   */\n    tag_366:\n        /* \"#utility.yul\":9432:9453   */\n      tag_516\n        /* \"#utility.yul\":9447:9452   */\n      dup2\n        /* \"#utility.yul\":9432:9453   */\n      tag_365\n      jump\t// in\n    tag_516:\n        /* \"#utility.yul\":9427:9430   */\n      dup3\n        /* \"#utility.yul\":9420:9454   */\n      mstore\n        /* \"#utility.yul\":9351:9460   */\n      pop\n      pop\n      jump\t// out\n        /* \"#utility.yul\":9466:9774   */\n    tag_45:\n        /* \"#utility.yul\":9575:9579   */\n      0x00\n        /* \"#utility.yul\":9613:9615   */\n      0x40\n        /* \"#utility.yul\":9602:9611   */\n      dup3\n        /* \"#utility.yul\":9598:9616   */\n      add\n        /* \"#utility.yul\":9590:9616   */\n      swap1\n      pop\n        /* \"#utility.yul\":9626:9691   */\n      tag_518\n        /* \"#utility.yul\":9688:9689   */\n      0x00\n        /* \"#utility.yul\":9677:9686   */\n      dup4\n        /* \"#utility.yul\":9673:9690   */\n      add\n        /* \"#utility.yul\":9664:9670   */\n      dup6\n        /* \"#utility.yul\":9626:9691   */\n      tag_366\n      jump\t// in\n    tag_518:\n        /* \"#utility.yul\":9701:9767   */\n      tag_519\n        /* \"#utility.yul\":9763:9765   */\n      0x20\n        /* \"#utility.yul\":9752:9761   */\n      dup4\n        /* \"#utility.yul\":9748:9766   */\n      add\n        /* \"#utility.yul\":9739:9745   */\n      dup5\n        /* \"#utility.yul\":9701:9767   */\n      tag_366\n      jump\t// in\n    tag_519:\n        /* \"#utility.yul\":9466:9774   */\n      swap4\n      swap3\n      pop\n      pop\n      pop\n      jump\t// out\n        /* \"#utility.yul\":9780:9961   */\n    tag_367:\n        /* \"#utility.yul\":9920:9953   */\n      0x43616e64696461746520697320616c7265647920726567697374726572642e00\n        /* \"#utility.yul\":9916:9917   */\n      0x00\n        /* \"#utility.yul\":9908:9914   */\n      dup3\n        /* \"#utility.yul\":9904:9918   */\n      add\n        /* \"#utility.yul\":9897:9954   */\n      mstore\n        /* \"#utility.yul\":9780:9961   */\n      pop\n      jump\t// out\n        /* \"#utility.yul\":9967:10333   */\n    tag_368:\n        /* \"#utility.yul\":10109:10112   */\n      0x00\n        /* \"#utility.yul\":10130:10197   */\n      tag_522\n        /* \"#utility.yul\":10194:10196   */\n      0x1f\n        /* \"#utility.yul\":10189:10192   */\n      dup4\n        /* \"#utility.yul\":10130:10197   */\n      tag_361\n      jump\t// in\n    tag_522:\n        /* \"#utility.yul\":10123:10197   */\n      swap2\n      pop\n        /* \"#utility.yul\":10206:10299   */\n      tag_523\n        /* \"#utility.yul\":10295:10298   */\n      dup3\n        /* \"#utility.yul\":10206:10299   */\n      tag_367\n      jump\t// in\n    tag_523:\n        /* \"#utility.yul\":10324:10326   */\n      0x20\n        /* \"#utility.yul\":10319:10322   */\n      dup3\n        /* \"#utility.yul\":10315:10327   */\n      add\n        /* \"#utility.yul\":10308:10327   */\n      swap1\n      pop\n        /* \"#utility.yul\":9967:10333   */\n      swap2\n      swap1\n      pop\n      jump\t// out\n        /* \"#utility.yul\":10339:10758   */\n    tag_52:\n        /* \"#utility.yul\":10505:10509   */\n      0x00\n        /* \"#utility.yul\":10543:10545   */\n      0x20\n        /* \"#utility.yul\":10532:10541   */\n      dup3\n        /* \"#utility.yul\":10528:10546   */\n      add\n        /* \"#utility.yul\":10520:10546   */\n      swap1\n      pop\n        /* \"#utility.yul\":10592:10601   */\n      dup2\n        /* \"#utility.yul\":10586:10590   */\n      dup2\n        /* \"#utility.yul\":10582:10602   */\n      sub\n        /* \"#utility.yul\":10578:10579   */\n      0x00\n        /* \"#utility.yul\":10567:10576   */\n      dup4\n        /* \"#utility.yul\":10563:10580   */\n      add\n        /* \"#utility.yul\":10556:10603   */\n      mstore\n        /* \"#utility.yul\":10620:10751   */\n      tag_525\n        /* \"#utility.yul\":10746:10750   */\n      dup2\n        /* \"#utility.yul\":10620:10751   */\n      tag_368\n      jump\t// in\n    tag_525:\n        /* \"#utility.yul\":10612:10751   */\n      swap1\n      pop\n        /* \"#utility.yul\":10339:10758   */\n      swap2\n      swap1\n      pop\n      jump\t// out\n        /* \"#utility.yul\":10764:10944   */\n    tag_66:\n        /* \"#utility.yul\":10812:10889   */\n      0x4e487b7100000000000000000000000000000000000000000000000000000000\n        /* \"#utility.yul\":10809:10810   */\n      0x00\n        /* \"#utility.yul\":10802:10890   */\n      mstore\n        /* \"#utility.yul\":10909:10913   */\n      0x32\n        /* \"#utility.yul\":10906:10907   */\n      0x04\n        /* \"#utility.yul\":10899:10914   */\n      mstore\n        /* \"#utility.yul\":10933:10937   */\n      0x24\n        /* \"#utility.yul\":10930:10931   */\n      0x00\n        /* \"#utility.yul\":10923:10938   */\n      revert\n        /* \"#utility.yul\":10950:11130   */\n    tag_369:\n        /* \"#utility.yul\":10998:11075   */\n      0x4e487b7100000000000000000000000000000000000000000000000000000000\n        /* \"#utility.yul\":10995:10996   */\n      0x00\n        /* \"#utility.yul\":10988:11076   */\n      mstore\n        /* \"#utility.yul\":11095:11099   */\n      0x22\n        /* \"#utility.yul\":11092:11093   */\n      0x04\n        /* \"#utility.yul\":11085:11100   */\n      mstore\n        /* \"#utility.yul\":11119:11123   */\n      0x24\n        /* \"#utility.yul\":11116:11117   */\n      0x00\n        /* \"#utility.yul\":11109:11124   */\n      revert\n        /* \"#utility.yul\":11136:11456   */\n    tag_69:\n        /* \"#utility.yul\":11180:11186   */\n      0x00\n        /* \"#utility.yul\":11217:11218   */\n      0x02\n        /* \"#utility.yul\":11211:11215   */\n      dup3\n        /* \"#utility.yul\":11207:11219   */\n      div\n        /* \"#utility.yul\":11197:11219   */\n      swap1\n      pop\n        /* \"#utility.yul\":11264:11265   */\n      0x01\n        /* \"#utility.yul\":11258:11262   */\n      dup3\n        /* \"#utility.yul\":11254:11266   */\n      and\n        /* \"#utility.yul\":11285:11303   */\n      dup1\n        /* \"#utility.yul\":11275:11356   */\n      tag_529\n      jumpi\n        /* \"#utility.yul\":11341:11345   */\n      0x7f\n        /* \"#utility.yul\":11333:11339   */\n      dup3\n        /* \"#utility.yul\":11329:11346   */\n      and\n        /* \"#utility.yul\":11319:11346   */\n      swap2\n      pop\n        /* \"#utility.yul\":11275:11356   */\n    tag_529:\n        /* \"#utility.yul\":11403:11405   */\n      0x20\n        /* \"#utility.yul\":11395:11401   */\n      dup3\n        /* \"#utility.yul\":11392:11406   */\n      lt\n        /* \"#utility.yul\":11372:11390   */\n      dup2\n        /* \"#utility.yul\":11369:11407   */\n      sub\n        /* \"#utility.yul\":11366:11450   */\n      tag_530\n      jumpi\n        /* \"#utility.yul\":11422:11440   */\n      tag_531\n      tag_369\n      jump\t// in\n    tag_531:\n        /* \"#utility.yul\":11366:11450   */\n    tag_530:\n        /* \"#utility.yul\":11187:11456   */\n      pop\n        /* \"#utility.yul\":11136:11456   */\n      swap2\n      swap1\n      pop\n      jump\t// out\n        /* \"#utility.yul\":11462:11610   */\n    tag_370:\n        /* \"#utility.yul\":11564:11575   */\n      0x00\n        /* \"#utility.yul\":11601:11604   */\n      dup2\n        /* \"#utility.yul\":11586:11604   */\n      swap1\n      pop\n        /* \"#utility.yul\":11462:11610   */\n      swap3\n      swap2\n      pop\n      pop\n      jump\t// out\n        /* \"#utility.yul\":11616:11767   */\n    tag_371:\n        /* \"#utility.yul\":11756:11759   */\n      0x2000000000000000000000000000000000000000000000000000000000000000\n        /* \"#utility.yul\":11752:11753   */\n      0x00\n        /* \"#utility.yul\":11744:11750   */\n      dup3\n        /* \"#utility.yul\":11740:11754   */\n      add\n        /* \"#utility.yul\":11733:11760   */\n      mstore\n        /* \"#utility.yul\":11616:11767   */\n      pop\n      jump\t// out\n        /* \"#utility.yul\":11773:12173   */\n    tag_372:\n        /* \"#utility.yul\":11933:11936   */\n      0x00\n        /* \"#utility.yul\":11954:12038   */\n      tag_535\n        /* \"#utility.yul\":12036:12037   */\n      0x01\n        /* \"#utility.yul\":12031:12034   */\n      dup4\n        /* \"#utility.yul\":11954:12038   */\n      tag_370\n      jump\t// in\n    tag_535:\n        /* \"#utility.yul\":11947:12038   */\n      swap2\n      pop\n        /* \"#utility.yul\":12047:12140   */\n      tag_536\n        /* \"#utility.yul\":12136:12139   */\n      dup3\n        /* \"#utility.yul\":12047:12140   */\n      tag_371\n      jump\t// in\n    tag_536:\n        /* \"#utility.yul\":12165:12166   */\n      0x01\n        /* \"#utility.yul\":12160:12163   */\n      dup3\n        /* \"#utility.yul\":12156:12167   */\n      add\n        /* \"#utility.yul\":12149:12167   */\n      swap1\n      pop\n        /* \"#utility.yul\":11773:12173   */\n      swap2\n      swap1\n      pop\n      jump\t// out\n        /* \"#utility.yul\":12179:12569   */\n    tag_373:\n        /* \"#utility.yul\":12285:12288   */\n      0x00\n        /* \"#utility.yul\":12313:12352   */\n      tag_538\n        /* \"#utility.yul\":12346:12351   */\n      dup3\n        /* \"#utility.yul\":12313:12352   */\n      tag_351\n      jump\t// in\n    tag_538:\n        /* \"#utility.yul\":12368:12457   */\n      tag_539\n        /* \"#utility.yul\":12450:12456   */\n      dup2\n        /* \"#utility.yul\":12445:12448   */\n      dup6\n        /* \"#utility.yul\":12368:12457   */\n      tag_370\n      jump\t// in\n    tag_539:\n        /* \"#utility.yul\":12361:12457   */\n      swap4\n      pop\n        /* \"#utility.yul\":12466:12531   */\n      tag_540\n        /* \"#utility.yul\":12524:12530   */\n      dup2\n        /* \"#utility.yul\":12519:12522   */\n      dup6\n        /* \"#utility.yul\":12512:12516   */\n      0x20\n        /* \"#utility.yul\":12505:12510   */\n      dup7\n        /* \"#utility.yul\":12501:12517   */\n      add\n        /* \"#utility.yul\":12466:12531   */\n      tag_353\n      jump\t// in\n    tag_540:\n        /* \"#utility.yul\":12556:12562   */\n      dup1\n        /* \"#utility.yul\":12551:12554   */\n      dup5\n        /* \"#utility.yul\":12547:12563   */\n      add\n        /* \"#utility.yul\":12540:12563   */\n      swap2\n      pop\n        /* \"#utility.yul\":12289:12569   */\n      pop\n        /* \"#utility.yul\":12179:12569   */\n      swap3\n      swap2\n      pop\n      pop\n      jump\t// out\n        /* \"#utility.yul\":12575:12731   */\n    tag_374:\n        /* \"#utility.yul\":12715:12719   */\n      0x2028000000000000000000000000000000000000000000000000000000000000\n        /* \"#utility.yul\":12711:12712   */\n      0x00\n        /* \"#utility.yul\":12703:12709   */\n      dup3\n        /* \"#utility.yul\":12699:12713   */\n      add\n        /* \"#utility.yul\":12692:12720   */\n      mstore\n        /* \"#utility.yul\":12575:12731   */\n      pop\n      jump\t// out\n        /* \"#utility.yul\":12741:13157   */\n    tag_375:\n        /* \"#utility.yul\":12901:12904   */\n      0x00\n        /* \"#utility.yul\":12926:13010   */\n      tag_543\n        /* \"#utility.yul\":13008:13009   */\n      0x02\n        /* \"#utility.yul\":13003:13006   */\n      dup4\n        /* \"#utility.yul\":12926:13010   */\n      tag_370\n      jump\t// in\n    tag_543:\n        /* \"#utility.yul\":12919:13010   */\n      swap2\n      pop\n        /* \"#utility.yul\":13023:13116   */\n      tag_544\n        /* \"#utility.yul\":13112:13115   */\n      dup3\n        /* \"#utility.yul\":13023:13116   */\n      tag_374\n      jump\t// in\n    tag_544:\n        /* \"#utility.yul\":13145:13146   */\n      0x02\n        /* \"#utility.yul\":13140:13143   */\n      dup3\n        /* \"#utility.yul\":13136:13147   */\n      add\n        /* \"#utility.yul\":13129:13147   */\n      swap1\n      pop\n        /* \"#utility.yul\":12741:13157   */\n      swap2\n      swap1\n      pop\n      jump\t// out\n        /* \"#utility.yul\":13167:13318   */\n    tag_376:\n        /* \"#utility.yul\":13307:13310   */\n      0x2900000000000000000000000000000000000000000000000000000000000000\n        /* \"#utility.yul\":13303:13304   */\n      0x00\n        /* \"#utility.yul\":13295:13301   */\n      dup3\n        /* \"#utility.yul\":13291:13305   */\n      add\n        /* \"#utility.yul\":13284:13311   */\n      mstore\n        /* \"#utility.yul\":13167:13318   */\n      pop\n      jump\t// out\n        /* \"#utility.yul\":13324:13724   */\n    tag_377:\n        /* \"#utility.yul\":13484:13487   */\n      0x00\n        /* \"#utility.yul\":13505:13589   */\n      tag_547\n        /* \"#utility.yul\":13587:13588   */\n      0x01\n        /* \"#utility.yul\":13582:13585   */\n      dup4\n        /* \"#utility.yul\":13505:13589   */\n      tag_370\n      jump\t// in\n    tag_547:\n        /* \"#utility.yul\":13498:13589   */\n      swap2\n      pop\n        /* \"#utility.yul\":13598:13691   */\n      tag_548\n        /* \"#utility.yul\":13687:13690   */\n      dup3\n        /* \"#utility.yul\":13598:13691   */\n      tag_376\n      jump\t// in\n    tag_548:\n        /* \"#utility.yul\":13716:13717   */\n      0x01\n        /* \"#utility.yul\":13711:13714   */\n      dup3\n        /* \"#utility.yul\":13707:13718   */\n      add\n        /* \"#utility.yul\":13700:13718   */\n      swap1\n      pop\n        /* \"#utility.yul\":13324:13724   */\n      swap2\n      swap1\n      pop\n      jump\t// out\n        /* \"#utility.yul\":13730:14963   */\n    tag_85:\n        /* \"#utility.yul\":14213:14216   */\n      0x00\n        /* \"#utility.yul\":14235:14383   */\n      tag_550\n        /* \"#utility.yul\":14379:14382   */\n      dup3\n        /* \"#utility.yul\":14235:14383   */\n      tag_372\n      jump\t// in\n    tag_550:\n        /* \"#utility.yul\":14228:14383   */\n      swap2\n      pop\n        /* \"#utility.yul\":14400:14495   */\n      tag_551\n        /* \"#utility.yul\":14491:14494   */\n      dup3\n        /* \"#utility.yul\":14482:14488   */\n      dup6\n        /* \"#utility.yul\":14400:14495   */\n      tag_373\n      jump\t// in\n    tag_551:\n        /* \"#utility.yul\":14393:14495   */\n      swap2\n      pop\n        /* \"#utility.yul\":14512:14660   */\n      tag_552\n        /* \"#utility.yul\":14656:14659   */\n      dup3\n        /* \"#utility.yul\":14512:14660   */\n      tag_375\n      jump\t// in\n    tag_552:\n        /* \"#utility.yul\":14505:14660   */\n      swap2\n      pop\n        /* \"#utility.yul\":14677:14772   */\n      tag_553\n        /* \"#utility.yul\":14768:14771   */\n      dup3\n        /* \"#utility.yul\":14759:14765   */\n      dup5\n        /* \"#utility.yul\":14677:14772   */\n      tag_373\n      jump\t// in\n    tag_553:\n        /* \"#utility.yul\":14670:14772   */\n      swap2\n      pop\n        /* \"#utility.yul\":14789:14937   */\n      tag_554\n        /* \"#utility.yul\":14933:14936   */\n      dup3\n        /* \"#utility.yul\":14789:14937   */\n      tag_377\n      jump\t// in\n    tag_554:\n        /* \"#utility.yul\":14782:14937   */\n      swap2\n      pop\n        /* \"#utility.yul\":14954:14957   */\n      dup2\n        /* \"#utility.yul\":14947:14957   */\n      swap1\n      pop\n        /* \"#utility.yul\":13730:14963   */\n      swap4\n      swap3\n      pop\n      pop\n      pop\n      jump\t// out\n        /* \"#utility.yul\":14969:15149   */\n    tag_378:\n        /* \"#utility.yul\":15017:15094   */\n      0x4e487b7100000000000000000000000000000000000000000000000000000000\n        /* \"#utility.yul\":15014:15015   */\n      0x00\n        /* \"#utility.yul\":15007:15095   */\n      mstore\n        /* \"#utility.yul\":15114:15118   */\n      0x11\n        /* \"#utility.yul\":15111:15112   */\n      0x04\n        /* \"#utility.yul\":15104:15119   */\n      mstore\n        /* \"#utility.yul\":15138:15142   */\n      0x24\n        /* \"#utility.yul\":15135:15136   */\n      0x00\n        /* \"#utility.yul\":15128:15143   */\n      revert\n        /* \"#utility.yul\":15155:15388   */\n    tag_89:\n        /* \"#utility.yul\":15194:15197   */\n      0x00\n        /* \"#utility.yul\":15217:15241   */\n      tag_557\n        /* \"#utility.yul\":15235:15240   */\n      dup3\n        /* \"#utility.yul\":15217:15241   */\n      tag_363\n      jump\t// in\n    tag_557:\n        /* \"#utility.yul\":15208:15241   */\n      swap2\n      pop\n        /* \"#utility.yul\":15263:15329   */\n      0xffffffffffffffffffffffffffffffffffffffffffffffffffffffffffffffff\n        /* \"#utility.yul\":15256:15261   */\n      dup3\n        /* \"#utility.yul\":15253:15330   */\n      sub\n        /* \"#utility.yul\":15250:15353   */\n      tag_558\n      jumpi\n        /* \"#utility.yul\":15333:15351   */\n      tag_559\n      tag_378\n      jump\t// in\n    tag_559:\n        /* \"#utility.yul\":15250:15353   */\n    tag_558:\n        /* \"#utility.yul\":15380:15381   */\n      0x01\n        /* \"#utility.yul\":15373:15378   */\n      dup3\n        /* \"#utility.yul\":15369:15382   */\n      add\n        /* \"#utility.yul\":15362:15382   */\n      swap1\n      pop\n        /* \"#utility.yul\":15155:15388   */\n      swap2\n      swap1\n      pop\n      jump\t// out\n        /* \"#utility.yul\":15394:15556   */\n    tag_379:\n        /* \"#utility.yul\":15534:15548   */\n      0x4944206e6f7420666f756e640000000000000000000000000000000000000000\n        /* \"#utility.yul\":15530:15531   */\n      0x00\n        /* \"#utility.yul\":15522:15528   */\n      dup3\n        /* \"#utility.yul\":15518:15532   */\n      add\n        /* \"#utility.yul\":15511:15549   */\n      mstore\n        /* \"#utility.yul\":15394:15556   */\n      pop\n      jump\t// out\n        /* \"#utility.yul\":15562:15928   */\n    tag_380:\n        /* \"#utility.yul\":15704:15707   */\n      0x00\n        /* \"#utility.yul\":15725:15792   */\n      tag_562\n        /* \"#utility.yul\":15789:15791   */\n      0x0c\n        /* \"#utility.yul\":15784:15787   */\n      dup4\n        /* \"#utility.yul\":15725:15792   */\n      tag_361\n      jump\t// in\n    tag_562:\n        /* \"#utility.yul\":15718:15792   */\n      swap2\n      pop\n        /* \"#utility.yul\":15801:15894   */\n      tag_563\n        /* \"#utility.yul\":15890:15893   */\n      dup3\n        /* \"#utility.yul\":15801:15894   */\n      tag_379\n      jump\t// in\n    tag_563:\n        /* \"#utility.yul\":15919:15921   */\n      0x20\n        /* \"#utility.yul\":15914:15917   */\n      dup3\n        /* \"#utility.yul\":15910:15922   */\n      add\n        /* \"#utility.yul\":15903:15922   */\n      swap1\n      pop\n        /* \"#utility.yul\":15562:15928   */\n      swap2\n      swap1\n      pop\n      jump\t// out\n        /* \"#utility.yul\":15934:16353   */\n    tag_123:\n        /* \"#utility.yul\":16100:16104   */\n      0x00\n        /* \"#utility.yul\":16138:16140   */\n      0x20\n        /* \"#utility.yul\":16127:16136   */\n      dup3\n        /* \"#utility.yul\":16123:16141   */\n      add\n        /* \"#utility.yul\":16115:16141   */\n      swap1\n      pop\n        /* \"#utility.yul\":16187:16196   */\n      dup2\n        /* \"#utility.yul\":16181:16185   */\n      dup2\n        /* \"#utility.yul\":16177:16197   */\n      sub\n        /* \"#utility.yul\":16173:16174   */\n      0x00\n        /* \"#utility.yul\":16162:16171   */\n      dup4\n        /* \"#utility.yul\":16158:16175   */\n      add\n        /* \"#utility.yul\":16151:16198   */\n      mstore\n        /* \"#utility.yul\":16215:16346   */\n      tag_565\n        /* \"#utility.yul\":16341:16345   */\n      dup2\n        /* \"#utility.yul\":16215:16346   */\n      tag_380\n      jump\t// in\n    tag_565:\n        /* \"#utility.yul\":16207:16346   */\n      swap1\n      pop\n        /* \"#utility.yul\":15934:16353   */\n      swap2\n      swap1\n      pop\n      jump\t// out\n        /* \"#utility.yul\":16359:16580   */\n    tag_381:\n        /* \"#utility.yul\":16499:16533   */\n      0x4f6e6c792061646d696e2063616e20706572666f726d20746869732061637469\n        /* \"#utility.yul\":16495:16496   */\n      0x00\n        /* \"#utility.yul\":16487:16493   */\n      dup3\n        /* \"#utility.yul\":16483:16497   */\n      add\n        /* \"#utility.yul\":16476:16534   */\n      mstore\n        /* \"#utility.yul\":16568:16572   */\n      0x6f6e000000000000000000000000000000000000000000000000000000000000\n        /* \"#utility.yul\":16563:16565   */\n      0x20\n        /* \"#utility.yul\":16555:16561   */\n      dup3\n        /* \"#utility.yul\":16551:16566   */\n      add\n        /* \"#utility.yul\":16544:16573   */\n      mstore\n        /* \"#utility.yul\":16359:16580   */\n      pop\n      jump\t// out\n        /* \"#utility.yul\":16586:16952   */\n    tag_382:\n        /* \"#utility.yul\":16728:16731   */\n      0x00\n        /* \"#utility.yul\":16749:16816   */\n      tag_568\n        /* \"#utility.yul\":16813:16815   */\n      0x22\n        /* \"#utility.yul\":16808:16811   */\n      dup4\n        /* \"#utility.yul\":16749:16816   */\n      tag_361\n      jump\t// in\n    tag_568:\n        /* \"#utility.yul\":16742:16816   */\n      swap2\n      pop\n        /* \"#utility.yul\":16825:16918   */\n      tag_569\n        /* \"#utility.yul\":16914:16917   */\n      dup3\n        /* \"#utility.yul\":16825:16918   */\n      tag_381\n      jump\t// in\n    tag_569:\n        /* \"#utility.yul\":16943:16945   */\n      0x40\n        /* \"#utility.yul\":16938:16941   */\n      dup3\n        /* \"#utility.yul\":16934:16946   */\n      add\n        /* \"#utility.yul\":16927:16946   */\n      swap1\n      pop\n        /* \"#utility.yul\":16586:16952   */\n      swap2\n      swap1\n      pop\n      jump\t// out\n        /* \"#utility.yul\":16958:17377   */\n    tag_127:\n        /* \"#utility.yul\":17124:17128   */\n      0x00\n        /* \"#utility.yul\":17162:17164   */\n      0x20\n        /* \"#utility.yul\":17151:17160   */\n      dup3\n        /* \"#utility.yul\":17147:17165   */\n      add\n        /* \"#utility.yul\":17139:17165   */\n      swap1\n      pop\n        /* \"#utility.yul\":17211:17220   */\n      dup2\n        /* \"#utility.yul\":17205:17209   */\n      dup2\n        /* \"#utility.yul\":17201:17221   */\n      sub\n        /* \"#utility.yul\":17197:17198   */\n      0x00\n        /* \"#utility.yul\":17186:17195   */\n      dup4\n        /* \"#utility.yul\":17182:17199   */\n      add\n        /* \"#utility.yul\":17175:17222   */\n      mstore\n        /* \"#utility.yul\":17239:17370   */\n      tag_571\n        /* \"#utility.yul\":17365:17369   */\n      dup2\n        /* \"#utility.yul\":17239:17370   */\n      tag_382\n      jump\t// in\n    tag_571:\n        /* \"#utility.yul\":17231:17370   */\n      swap1\n      pop\n        /* \"#utility.yul\":16958:17377   */\n      swap2\n      swap1\n      pop\n      jump\t// out\n        /* \"#utility.yul\":17383:17556   */\n    tag_383:\n        /* \"#utility.yul\":17523:17548   */\n      0x456c656374696f6e20696e2070726f67726573732e2e2e000000000000000000\n        /* \"#utility.yul\":17519:17520   */\n      0x00\n        /* \"#utility.yul\":17511:17517   */\n      dup3\n        /* \"#utility.yul\":17507:17521   */\n      add\n        /* \"#utility.yul\":17500:17549   */\n      mstore\n        /* \"#utility.yul\":17383:17556   */\n      pop\n      jump\t// out\n        /* \"#utility.yul\":17562:17928   */\n    tag_384:\n        /* \"#utility.yul\":17704:17707   */\n      0x00\n        /* \"#utility.yul\":17725:17792   */\n      tag_574\n        /* \"#utility.yul\":17789:17791   */\n      0x17\n        /* \"#utility.yul\":17784:17787   */\n      dup4\n        /* \"#utility.yul\":17725:17792   */\n      tag_361\n      jump\t// in\n    tag_574:\n        /* \"#utility.yul\":17718:17792   */\n      swap2\n      pop\n        /* \"#utility.yul\":17801:17894   */\n      tag_575\n        /* \"#utility.yul\":17890:17893   */\n      dup3\n        /* \"#utility.yul\":17801:17894   */\n      tag_383\n      jump\t// in\n    tag_575:\n        /* \"#utility.yul\":17919:17921   */\n      0x20\n        /* \"#utility.yul\":17914:17917   */\n      dup3\n        /* \"#utility.yul\":17910:17922   */\n      add\n        /* \"#utility.yul\":17903:17922   */\n      swap1\n      pop\n        /* \"#utility.yul\":17562:17928   */\n      swap2\n      swap1\n      pop\n      jump\t// out\n        /* \"#utility.yul\":17934:18353   */\n    tag_147:\n        /* \"#utility.yul\":18100:18104   */\n      0x00\n        /* \"#utility.yul\":18138:18140   */\n      0x20\n        /* \"#utility.yul\":18127:18136   */\n      dup3\n        /* \"#utility.yul\":18123:18141   */\n      add\n        /* \"#utility.yul\":18115:18141   */\n      swap1\n      pop\n        /* \"#utility.yul\":18187:18196   */\n      dup2\n        /* \"#utility.yul\":18181:18185   */\n      dup2\n        /* \"#utility.yul\":18177:18197   */\n      sub\n        /* \"#utility.yul\":18173:18174   */\n      0x00\n        /* \"#utility.yul\":18162:18171   */\n      dup4\n        /* \"#utility.yul\":18158:18175   */\n      add\n        /* \"#utility.yul\":18151:18198   */\n      mstore\n        /* \"#utility.yul\":18215:18346   */\n      tag_577\n        /* \"#utility.yul\":18341:18345   */\n      dup2\n        /* \"#utility.yul\":18215:18346   */\n      tag_384\n      jump\t// in\n    tag_577:\n        /* \"#utility.yul\":18207:18346   */\n      swap1\n      pop\n        /* \"#utility.yul\":17934:18353   */\n      swap2\n      swap1\n      pop\n      jump\t// out\n        /* \"#utility.yul\":18359:18533   */\n    tag_385:\n        /* \"#utility.yul\":18499:18525   */\n      0x456c656374696f6e20686173206e6f7420737461727465640000000000000000\n        /* \"#utility.yul\":18495:18496   */\n      0x00\n        /* \"#utility.yul\":18487:18493   */\n      dup3\n        /* \"#utility.yul\":18483:18497   */\n      add\n        /* \"#utility.yul\":18476:18526   */\n      mstore\n        /* \"#utility.yul\":18359:18533   */\n      pop\n      jump\t// out\n        /* \"#utility.yul\":18539:18905   */\n    tag_386:\n        /* \"#utility.yul\":18681:18684   */\n      0x00\n        /* \"#utility.yul\":18702:18769   */\n      tag_580\n        /* \"#utility.yul\":18766:18768   */\n      0x18\n        /* \"#utility.yul\":18761:18764   */\n      dup4\n        /* \"#utility.yul\":18702:18769   */\n      tag_361\n      jump\t// in\n    tag_580:\n        /* \"#utility.yul\":18695:18769   */\n      swap2\n      pop\n        /* \"#utility.yul\":18778:18871   */\n      tag_581\n        /* \"#utility.yul\":18867:18870   */\n      dup3\n        /* \"#utility.yul\":18778:18871   */\n      tag_385\n      jump\t// in\n    tag_581:\n        /* \"#utility.yul\":18896:18898   */\n      0x20\n        /* \"#utility.yul\":18891:18894   */\n      dup3\n        /* \"#utility.yul\":18887:18899   */\n      add\n        /* \"#utility.yul\":18880:18899   */\n      swap1\n      pop\n        /* \"#utility.yul\":18539:18905   */\n      swap2\n      swap1\n      pop\n      jump\t// out\n        /* \"#utility.yul\":18911:19330   */\n    tag_178:\n        /* \"#utility.yul\":19077:19081   */\n      0x00\n        /* \"#utility.yul\":19115:19117   */\n      0x20\n        /* \"#utility.yul\":19104:19113   */\n      dup3\n        /* \"#utility.yul\":19100:19118   */\n      add\n        /* \"#utility.yul\":19092:19118   */\n      swap1\n      pop\n        /* \"#utility.yul\":19164:19173   */\n      dup2\n        /* \"#utility.yul\":19158:19162   */\n      dup2\n        /* \"#utility.yul\":19154:19174   */\n      sub\n        /* \"#utility.yul\":19150:19151   */\n      0x00\n        /* \"#utility.yul\":19139:19148   */\n      dup4\n        /* \"#utility.yul\":19135:19152   */\n      add\n        /* \"#utility.yul\":19128:19175   */\n      mstore\n        /* \"#utility.yul\":19192:19323   */\n      tag_583\n        /* \"#utility.yul\":19318:19322   */\n      dup2\n        /* \"#utility.yul\":19192:19323   */\n      tag_386\n      jump\t// in\n    tag_583:\n        /* \"#utility.yul\":19184:19323   */\n      swap1\n      pop\n        /* \"#utility.yul\":18911:19330   */\n      swap2\n      swap1\n      pop\n      jump\t// out\n        /* \"#utility.yul\":19336:19512   */\n    tag_387:\n        /* \"#utility.yul\":19476:19504   */\n      0x456c656374696f6e2068617320616c726561647920656e646564000000000000\n        /* \"#utility.yul\":19472:19473   */\n      0x00\n        /* \"#utility.yul\":19464:19470   */\n      dup3\n        /* \"#utility.yul\":19460:19474   */\n      add\n        /* \"#utility.yul\":19453:19505   */\n      mstore\n        /* \"#utility.yul\":19336:19512   */\n      pop\n      jump\t// out\n        /* \"#utility.yul\":19518:19884   */\n    tag_388:\n        /* \"#utility.yul\":19660:19663   */\n      0x00\n        /* \"#utility.yul\":19681:19748   */\n      tag_586\n        /* \"#utility.yul\":19745:19747   */\n      0x1a\n        /* \"#utility.yul\":19740:19743   */\n      dup4\n        /* \"#utility.yul\":19681:19748   */\n      tag_361\n      jump\t// in\n    tag_586:\n        /* \"#utility.yul\":19674:19748   */\n      swap2\n      pop\n        /* \"#utility.yul\":19757:19850   */\n      tag_587\n        /* \"#utility.yul\":19846:19849   */\n      dup3\n        /* \"#utility.yul\":19757:19850   */\n      tag_387\n      jump\t// in\n    tag_587:\n        /* \"#utility.yul\":19875:19877   */\n      0x20\n        /* \"#utility.yul\":19870:19873   */\n      dup3\n        /* \"#utility.yul\":19866:19878   */\n      add\n        /* \"#utility.yul\":19859:19878   */\n      swap1\n      pop\n        /* \"#utility.yul\":19518:19884   */\n      swap2\n      swap1\n      pop\n      jump\t// out\n        /* \"#utility.yul\":19890:20309   */\n    tag_181:\n        /* \"#utility.yul\":20056:20060   */\n      0x00\n        /* \"#utility.yul\":20094:20096   */\n      0x20\n        /* \"#utility.yul\":20083:20092   */\n      dup3\n        /* \"#utility.yul\":20079:20097   */\n      add\n        /* \"#utility.yul\":20071:20097   */\n      swap1\n      pop\n        /* \"#utility.yul\":20143:20152   */\n      dup2\n        /* \"#utility.yul\":20137:20141   */\n      dup2\n        /* \"#utility.yul\":20133:20153   */\n      sub\n        /* \"#utility.yul\":20129:20130   */\n      0x00\n        /* \"#utility.yul\":20118:20127   */\n      dup4\n        /* \"#utility.yul\":20114:20131   */\n      add\n        /* \"#utility.yul\":20107:20154   */\n      mstore\n        /* \"#utility.yul\":20171:20302   */\n      tag_589\n        /* \"#utility.yul\":20297:20301   */\n      dup2\n        /* \"#utility.yul\":20171:20302   */\n      tag_388\n      jump\t// in\n    tag_589:\n        /* \"#utility.yul\":20163:20302   */\n      swap1\n      pop\n        /* \"#utility.yul\":19890:20309   */\n      swap2\n      swap1\n      pop\n      jump\t// out\n        /* \"#utility.yul\":20315:20456   */\n    tag_389:\n        /* \"#utility.yul\":20364:20368   */\n      0x00\n        /* \"#utility.yul\":20387:20390   */\n      dup2\n        /* \"#utility.yul\":20379:20390   */\n      swap1\n      pop\n        /* \"#utility.yul\":20410:20413   */\n      dup2\n        /* \"#utility.yul\":20407:20408   */\n      0x00\n        /* \"#utility.yul\":20400:20414   */\n      mstore\n        /* \"#utility.yul\":20444:20448   */\n      0x20\n        /* \"#utility.yul\":20441:20442   */\n      0x00\n        /* \"#utility.yul\":20431:20449   */\n      keccak256\n        /* \"#utility.yul\":20423:20449   */\n      swap1\n      pop\n        /* \"#utility.yul\":20315:20456   */\n      swap2\n      swap1\n      pop\n      jump\t// out\n        /* \"#utility.yul\":20462:20555   */\n    tag_390:\n        /* \"#utility.yul\":20499:20505   */\n      0x00\n        /* \"#utility.yul\":20546:20548   */\n      0x20\n        /* \"#utility.yul\":20541:20543   */\n      0x1f\n        /* \"#utility.yul\":20534:20539   */\n      dup4\n        /* \"#utility.yul\":20530:20544   */\n      add\n        /* \"#utility.yul\":20526:20549   */\n      div\n        /* \"#utility.yul\":20516:20549   */\n      swap1\n      pop\n        /* \"#utility.yul\":20462:20555   */\n      swap2\n      swap1\n      pop\n      jump\t// out\n        /* \"#utility.yul\":20561:20668   */\n    tag_391:\n        /* \"#utility.yul\":20605:20613   */\n      0x00\n        /* \"#utility.yul\":20655:20660   */\n      dup3\n        /* \"#utility.yul\":20649:20653   */\n      dup3\n        /* \"#utility.yul\":20645:20661   */\n      shl\n        /* \"#utility.yul\":20624:20661   */\n      swap1\n      pop\n        /* \"#utility.yul\":20561:20668   */\n      swap3\n      swap2\n      pop\n      pop\n      jump\t// out\n        /* \"#utility.yul\":20674:21067   */\n    tag_392:\n        /* \"#utility.yul\":20743:20749   */\n      0x00\n        /* \"#utility.yul\":20793:20794   */\n      0x08\n        /* \"#utility.yul\":20781:20791   */\n      dup4\n        /* \"#utility.yul\":20777:20795   */\n      mul\n        /* \"#utility.yul\":20816:20913   */\n      tag_594\n        /* \"#utility.yul\":20846:20912   */\n      0xffffffffffffffffffffffffffffffffffffffffffffffffffffffffffffffff\n        /* \"#utility.yul\":20835:20844   */\n      dup3\n        /* \"#utility.yul\":20816:20913   */\n      tag_391\n      jump\t// in\n    tag_594:\n        /* \"#utility.yul\":20934:20973   */\n      tag_595\n        /* \"#utility.yul\":20964:20972   */\n      dup7\n        /* \"#utility.yul\":20953:20962   */\n      dup4\n        /* \"#utility.yul\":20934:20973   */\n      tag_391\n      jump\t// in\n    tag_595:\n        /* \"#utility.yul\":20922:20973   */\n      swap6\n      pop\n        /* \"#utility.yul\":21006:21010   */\n      dup1\n        /* \"#utility.yul\":21002:21011   */\n      not\n        /* \"#utility.yul\":20995:21000   */\n      dup5\n        /* \"#utility.yul\":20991:21012   */\n      and\n        /* \"#utility.yul\":20982:21012   */\n      swap4\n      pop\n        /* \"#utility.yul\":21055:21059   */\n      dup1\n        /* \"#utility.yul\":21045:21053   */\n      dup7\n        /* \"#utility.yul\":21041:21060   */\n      and\n        /* \"#utility.yul\":21034:21039   */\n      dup5\n        /* \"#utility.yul\":21031:21061   */\n      or\n        /* \"#utility.yul\":21021:21061   */\n      swap3\n      pop\n        /* \"#utility.yul\":20750:21067   */\n      pop\n      pop\n        /* \"#utility.yul\":20674:21067   */\n      swap4\n      swap3\n      pop\n      pop\n      pop\n      jump\t// out\n        /* \"#utility.yul\":21073:21133   */\n    tag_393:\n        /* \"#utility.yul\":21101:21104   */\n      0x00\n        /* \"#utility.yul\":21122:21127   */\n      dup2\n        /* \"#utility.yul\":21115:21127   */\n      swap1\n      pop\n        /* \"#utility.yul\":21073:21133   */\n      swap2\n      swap1\n      pop\n      jump\t// out\n        /* \"#utility.yul\":21139:21281   */\n    tag_394:\n        /* \"#utility.yul\":21189:21198   */\n      0x00\n        /* \"#utility.yul\":21222:21275   */\n      tag_598\n        /* \"#utility.yul\":21240:21274   */\n      tag_599\n        /* \"#utility.yul\":21249:21273   */\n      tag_600\n        /* \"#utility.yul\":21267:21272   */\n      dup5\n        /* \"#utility.yul\":21249:21273   */\n      tag_363\n      jump\t// in\n    tag_600:\n        /* \"#utility.yul\":21240:21274   */\n      tag_393\n      jump\t// in\n    tag_599:\n        /* \"#utility.yul\":21222:21275   */\n      tag_363\n      jump\t// in\n    tag_598:\n        /* \"#utility.yul\":21209:21275   */\n      swap1\n      pop\n        /* \"#utility.yul\":21139:21281   */\n      swap2\n      swap1\n      pop\n      jump\t// out\n        /* \"#utility.yul\":21287:21362   */\n    tag_395:\n        /* \"#utility.yul\":21330:21333   */\n      0x00\n        /* \"#utility.yul\":21351:21356   */\n      dup2\n        /* \"#utility.yul\":21344:21356   */\n      swap1\n      pop\n        /* \"#utility.yul\":21287:21362   */\n      swap2\n      swap1\n      pop\n      jump\t// out\n        /* \"#utility.yul\":21368:21637   */\n    tag_396:\n        /* \"#utility.yul\":21478:21517   */\n      tag_603\n        /* \"#utility.yul\":21509:21516   */\n      dup4\n        /* \"#utility.yul\":21478:21517   */\n      tag_394\n      jump\t// in\n    tag_603:\n        /* \"#utility.yul\":21539:21630   */\n      tag_604\n        /* \"#utility.yul\":21588:21629   */\n      tag_605\n        /* \"#utility.yul\":21612:21628   */\n      dup3\n        /* \"#utility.yul\":21588:21629   */\n      tag_395\n      jump\t// in\n    tag_605:\n        /* \"#utility.yul\":21580:21586   */\n      dup5\n        /* \"#utility.yul\":21573:21577   */\n      dup5\n        /* \"#utility.yul\":21567:21578   */\n      sload\n        /* \"#utility.yul\":21539:21630   */\n      tag_392\n      jump\t// in\n    tag_604:\n        /* \"#utility.yul\":21533:21537   */\n      dup3\n        /* \"#utility.yul\":21526:21631   */\n      sstore\n        /* \"#utility.yul\":21444:21637   */\n      pop\n        /* \"#utility.yul\":21368:21637   */\n      pop\n      pop\n      pop\n      jump\t// out\n        /* \"#utility.yul\":21643:21716   */\n    tag_397:\n        /* \"#utility.yul\":21688:21691   */\n      0x00\n        /* \"#utility.yul\":21643:21716   */\n      swap1\n      jump\t// out\n        /* \"#utility.yul\":21722:21911   */\n    tag_398:\n        /* \"#utility.yul\":21799:21831   */\n      tag_608\n      tag_397\n      jump\t// in\n    tag_608:\n        /* \"#utility.yul\":21840:21905   */\n      tag_609\n        /* \"#utility.yul\":21898:21904   */\n      dup2\n        /* \"#utility.yul\":21890:21896   */\n      dup5\n        /* \"#utility.yul\":21884:21888   */\n      dup5\n        /* \"#utility.yul\":21840:21905   */\n      tag_396\n      jump\t// in\n    tag_609:\n        /* \"#utility.yul\":21775:21911   */\n      pop\n        /* \"#utility.yul\":21722:21911   */\n      pop\n      pop\n      jump\t// out\n        /* \"#utility.yul\":21917:22103   */\n    tag_399:\n        /* \"#utility.yul\":21977:22097   */\n    tag_611:\n        /* \"#utility.yul\":21994:21997   */\n      dup2\n        /* \"#utility.yul\":21987:21992   */\n      dup2\n        /* \"#utility.yul\":21984:21998   */\n      lt\n        /* \"#utility.yul\":21977:22097   */\n      iszero\n      tag_613\n      jumpi\n        /* \"#utility.yul\":22048:22087   */\n      tag_614\n        /* \"#utility.yul\":22085:22086   */\n      0x00\n        /* \"#utility.yul\":22078:22083   */\n      dup3\n        /* \"#utility.yul\":22048:22087   */\n      tag_398\n      jump\t// in\n    tag_614:\n        /* \"#utility.yul\":22021:22022   */\n      0x01\n        /* \"#utility.yul\":22014:22019   */\n      dup2\n        /* \"#utility.yul\":22010:22023   */\n      add\n        /* \"#utility.yul\":22001:22023   */\n      swap1\n      pop\n        /* \"#utility.yul\":21977:22097   */\n      jump(tag_611)\n    tag_613:\n        /* \"#utility.yul\":21917:22103   */\n      pop\n      pop\n      jump\t// out\n        /* \"#utility.yul\":22109:22652   */\n    tag_400:\n        /* \"#utility.yul\":22210:22212   */\n      0x1f\n        /* \"#utility.yul\":22205:22208   */\n      dup3\n        /* \"#utility.yul\":22202:22213   */\n      gt\n        /* \"#utility.yul\":22199:22645   */\n      iszero\n      tag_616\n      jumpi\n        /* \"#utility.yul\":22244:22282   */\n      tag_617\n        /* \"#utility.yul\":22276:22281   */\n      dup2\n        /* \"#utility.yul\":22244:22282   */\n      tag_389\n      jump\t// in\n    tag_617:\n        /* \"#utility.yul\":22328:22357   */\n      tag_618\n        /* \"#utility.yul\":22346:22356   */\n      dup5\n        /* \"#utility.yul\":22328:22357   */\n      tag_390\n      jump\t// in\n    tag_618:\n        /* \"#utility.yul\":22318:22326   */\n      dup2\n        /* \"#utility.yul\":22314:22358   */\n      add\n        /* \"#utility.yul\":22511:22513   */\n      0x20\n        /* \"#utility.yul\":22499:22509   */\n      dup6\n        /* \"#utility.yul\":22496:22514   */\n      lt\n        /* \"#utility.yul\":22493:22542   */\n      iszero\n      tag_619\n      jumpi\n        /* \"#utility.yul\":22532:22540   */\n      dup2\n        /* \"#utility.yul\":22517:22540   */\n      swap1\n      pop\n        /* \"#utility.yul\":22493:22542   */\n    tag_619:\n        /* \"#utility.yul\":22555:22635   */\n      tag_620\n        /* \"#utility.yul\":22611:22633   */\n      tag_621\n        /* \"#utility.yul\":22629:22632   */\n      dup6\n        /* \"#utility.yul\":22611:22633   */\n      tag_390\n      jump\t// in\n    tag_621:\n        /* \"#utility.yul\":22601:22609   */\n      dup4\n        /* \"#utility.yul\":22597:22634   */\n      add\n        /* \"#utility.yul\":22584:22595   */\n      dup3\n        /* \"#utility.yul\":22555:22635   */\n      tag_399\n      jump\t// in\n    tag_620:\n        /* \"#utility.yul\":22214:22645   */\n      pop\n      pop\n        /* \"#utility.yul\":22199:22645   */\n    tag_616:\n        /* \"#utility.yul\":22109:22652   */\n      pop\n      pop\n      pop\n      jump\t// out\n        /* \"#utility.yul\":22658:22775   */\n    tag_401:\n        /* \"#utility.yul\":22712:22720   */\n      0x00\n        /* \"#utility.yul\":22762:22767   */\n      dup3\n        /* \"#utility.yul\":22756:22760   */\n      dup3\n        /* \"#utility.yul\":22752:22768   */\n      shr\n        /* \"#utility.yul\":22731:22768   */\n      swap1\n      pop\n        /* \"#utility.yul\":22658:22775   */\n      swap3\n      swap2\n      pop\n      pop\n      jump\t// out\n        /* \"#utility.yul\":22781:22950   */\n    tag_402:\n        /* \"#utility.yul\":22825:22831   */\n      0x00\n        /* \"#utility.yul\":22858:22909   */\n      tag_624\n        /* \"#utility.yul\":22906:22907   */\n      0x00\n        /* \"#utility.yul\":22902:22908   */\n      not\n        /* \"#utility.yul\":22894:22899   */\n      dup5\n        /* \"#utility.yul\":22891:22892   */\n      0x08\n        /* \"#utility.yul\":22887:22900   */\n      mul\n        /* \"#utility.yul\":22858:22909   */\n      tag_401\n      jump\t// in\n    tag_624:\n        /* \"#utility.yul\":22854:22910   */\n      not\n        /* \"#utility.yul\":22939:22943   */\n      dup1\n        /* \"#utility.yul\":22933:22937   */\n      dup4\n        /* \"#utility.yul\":22929:22944   */\n      and\n        /* \"#utility.yul\":22919:22944   */\n      swap2\n      pop\n        /* \"#utility.yul\":22832:22950   */\n      pop\n        /* \"#utility.yul\":22781:22950   */\n      swap3\n      swap2\n      pop\n      pop\n      jump\t// out\n        /* \"#utility.yul\":22955:23250   */\n    tag_403:\n        /* \"#utility.yul\":23031:23035   */\n      0x00\n        /* \"#utility.yul\":23177:23206   */\n      tag_626\n        /* \"#utility.yul\":23202:23205   */\n      dup4\n        /* \"#utility.yul\":23196:23200   */\n      dup4\n        /* \"#utility.yul\":23177:23206   */\n      tag_402\n      jump\t// in\n    tag_626:\n        /* \"#utility.yul\":23169:23206   */\n      swap2\n      pop\n        /* \"#utility.yul\":23239:23242   */\n      dup3\n        /* \"#utility.yul\":23236:23237   */\n      0x02\n        /* \"#utility.yul\":23232:23243   */\n      mul\n        /* \"#utility.yul\":23226:23230   */\n      dup3\n        /* \"#utility.yul\":23223:23244   */\n      or\n        /* \"#utility.yul\":23215:23244   */\n      swap1\n      pop\n        /* \"#utility.yul\":22955:23250   */\n      swap3\n      swap2\n      pop\n      pop\n      jump\t// out\n        /* \"#utility.yul\":23255:24650   */\n    tag_195:\n        /* \"#utility.yul\":23372:23409   */\n      tag_628\n        /* \"#utility.yul\":23405:23408   */\n      dup3\n        /* \"#utility.yul\":23372:23409   */\n      tag_351\n      jump\t// in\n    tag_628:\n        /* \"#utility.yul\":23474:23492   */\n      0xffffffffffffffff\n        /* \"#utility.yul\":23466:23472   */\n      dup2\n        /* \"#utility.yul\":23463:23493   */\n      gt\n        /* \"#utility.yul\":23460:23516   */\n      iszero\n      tag_629\n      jumpi\n        /* \"#utility.yul\":23496:23514   */\n      tag_630\n      tag_58\n      jump\t// in\n    tag_630:\n        /* \"#utility.yul\":23460:23516   */\n    tag_629:\n        /* \"#utility.yul\":23540:23578   */\n      tag_631\n        /* \"#utility.yul\":23572:23576   */\n      dup3\n        /* \"#utility.yul\":23566:23577   */\n      sload\n        /* \"#utility.yul\":23540:23578   */\n      tag_69\n      jump\t// in\n    tag_631:\n        /* \"#utility.yul\":23625:23692   */\n      tag_632\n        /* \"#utility.yul\":23685:23691   */\n      dup3\n        /* \"#utility.yul\":23677:23683   */\n      dup3\n        /* \"#utility.yul\":23671:23675   */\n      dup6\n        /* \"#utility.yul\":23625:23692   */\n      tag_400\n      jump\t// in\n    tag_632:\n        /* \"#utility.yul\":23719:23720   */\n      0x00\n        /* \"#utility.yul\":23743:23747   */\n      0x20\n        /* \"#utility.yul\":23730:23747   */\n      swap1\n      pop\n        /* \"#utility.yul\":23775:23777   */\n      0x1f\n        /* \"#utility.yul\":23767:23773   */\n      dup4\n        /* \"#utility.yul\":23764:23778   */\n      gt\n        /* \"#utility.yul\":23792:23793   */\n      0x01\n        /* \"#utility.yul\":23787:24405   */\n      dup2\n      eq\n      tag_634\n      jumpi\n        /* \"#utility.yul\":24449:24450   */\n      0x00\n        /* \"#utility.yul\":24466:24472   */\n      dup5\n        /* \"#utility.yul\":24463:24540   */\n      iszero\n      tag_635\n      jumpi\n        /* \"#utility.yul\":24515:24524   */\n      dup3\n        /* \"#utility.yul\":24510:24513   */\n      dup8\n        /* \"#utility.yul\":24506:24525   */\n      add\n        /* \"#utility.yul\":24500:24526   */\n      mload\n        /* \"#utility.yul\":24491:24526   */\n      swap1\n      pop\n        /* \"#utility.yul\":24463:24540   */\n    tag_635:\n        /* \"#utility.yul\":24566:24633   */\n      tag_636\n        /* \"#utility.yul\":24626:24632   */\n      dup6\n        /* \"#utility.yul\":24619:24624   */\n      dup3\n        /* \"#utility.yul\":24566:24633   */\n      tag_403\n      jump\t// in\n    tag_636:\n        /* \"#utility.yul\":24560:24564   */\n      dup7\n        /* \"#utility.yul\":24553:24634   */\n      sstore\n        /* \"#utility.yul\":24422:24644   */\n      pop\n        /* \"#utility.yul\":23757:24644   */\n      jump(tag_633)\n        /* \"#utility.yul\":23787:24405   */\n    tag_634:\n        /* \"#utility.yul\":23839:23843   */\n      0x1f\n        /* \"#utility.yul\":23835:23844   */\n      not\n        /* \"#utility.yul\":23827:23833   */\n      dup5\n        /* \"#utility.yul\":23823:23845   */\n      and\n        /* \"#utility.yul\":23873:23910   */\n      tag_637\n        /* \"#utility.yul\":23905:23909   */\n      dup7\n        /* \"#utility.yul\":23873:23910   */\n      tag_389\n      jump\t// in\n    tag_637:\n        /* \"#utility.yul\":23932:23933   */\n      0x00\n        /* \"#utility.yul\":23946:24154   */\n    tag_638:\n        /* \"#utility.yul\":23960:23967   */\n      dup3\n        /* \"#utility.yul\":23957:23958   */\n      dup2\n        /* \"#utility.yul\":23954:23968   */\n      lt\n        /* \"#utility.yul\":23946:24154   */\n      iszero\n      tag_640\n      jumpi\n        /* \"#utility.yul\":24039:24048   */\n      dup5\n        /* \"#utility.yul\":24034:24037   */\n      dup10\n        /* \"#utility.yul\":24030:24049   */\n      add\n        /* \"#utility.yul\":24024:24050   */\n      mload\n        /* \"#utility.yul\":24016:24022   */\n      dup3\n        /* \"#utility.yul\":24009:24051   */\n      sstore\n        /* \"#utility.yul\":24090:24091   */\n      0x01\n        /* \"#utility.yul\":24082:24088   */\n      dup3\n        /* \"#utility.yul\":24078:24092   */\n      add\n        /* \"#utility.yul\":24068:24092   */\n      swap2\n      pop\n        /* \"#utility.yul\":24137:24139   */\n      0x20\n        /* \"#utility.yul\":24126:24135   */\n      dup6\n        /* \"#utility.yul\":24122:24140   */\n      add\n        /* \"#utility.yul\":24109:24140   */\n      swap5\n      pop\n        /* \"#utility.yul\":23983:23987   */\n      0x20\n        /* \"#utility.yul\":23980:23981   */\n      dup2\n        /* \"#utility.yul\":23976:23988   */\n      add\n        /* \"#utility.yul\":23971:23988   */\n      swap1\n      pop\n        /* \"#utility.yul\":23946:24154   */\n      jump(tag_638)\n    tag_640:\n        /* \"#utility.yul\":24182:24188   */\n      dup7\n        /* \"#utility.yul\":24173:24180   */\n      dup4\n        /* \"#utility.yul\":24170:24189   */\n      lt\n        /* \"#utility.yul\":24167:24346   */\n      iszero\n      tag_641\n      jumpi\n        /* \"#utility.yul\":24240:24249   */\n      dup5\n        /* \"#utility.yul\":24235:24238   */\n      dup10\n        /* \"#utility.yul\":24231:24250   */\n      add\n        /* \"#utility.yul\":24225:24251   */\n      mload\n        /* \"#utility.yul\":24283:24331   */\n      tag_642\n        /* \"#utility.yul\":24325:24329   */\n      0x1f\n        /* \"#utility.yul\":24317:24323   */\n      dup10\n        /* \"#utility.yul\":24313:24330   */\n      and\n        /* \"#utility.yul\":24302:24311   */\n      dup3\n        /* \"#utility.yul\":24283:24331   */\n      tag_402\n      jump\t// in\n    tag_642:\n        /* \"#utility.yul\":24275:24281   */\n      dup4\n        /* \"#utility.yul\":24268:24332   */\n      sstore\n        /* \"#utility.yul\":24190:24346   */\n      pop\n        /* \"#utility.yul\":24167:24346   */\n    tag_641:\n        /* \"#utility.yul\":24392:24393   */\n      0x01\n        /* \"#utility.yul\":24388:24389   */\n      0x02\n        /* \"#utility.yul\":24380:24386   */\n      dup9\n        /* \"#utility.yul\":24376:24390   */\n      mul\n        /* \"#utility.yul\":24372:24394   */\n      add\n        /* \"#utility.yul\":24366:24370   */\n      dup9\n        /* \"#utility.yul\":24359:24395   */\n      sstore\n        /* \"#utility.yul\":23794:24405   */\n      pop\n      pop\n      pop\n        /* \"#utility.yul\":23757:24644   */\n    tag_633:\n      pop\n        /* \"#utility.yul\":23347:24650   */\n      pop\n      pop\n      pop\n        /* \"#utility.yul\":23255:24650   */\n      pop\n      pop\n      jump\t// out\n        /* \"#utility.yul\":24656:24834   */\n    tag_404:\n        /* \"#utility.yul\":24796:24826   */\n      0x43616e64696461746520696e646578206f7574206f662072616e676500000000\n        /* \"#utility.yul\":24792:24793   */\n      0x00\n        /* \"#utility.yul\":24784:24790   */\n      dup3\n        /* \"#utility.yul\":24780:24794   */\n      add\n        /* \"#utility.yul\":24773:24827   */\n      mstore\n        /* \"#utility.yul\":24656:24834   */\n      pop\n      jump\t// out\n        /* \"#utility.yul\":24840:25206   */\n    tag_405:\n        /* \"#utility.yul\":24982:24985   */\n      0x00\n        /* \"#utility.yul\":25003:25070   */\n      tag_645\n        /* \"#utility.yul\":25067:25069   */\n      0x1c\n        /* \"#utility.yul\":25062:25065   */\n      dup4\n        /* \"#utility.yul\":25003:25070   */\n      tag_361\n      jump\t// in\n    tag_645:\n        /* \"#utility.yul\":24996:25070   */\n      swap2\n      pop\n        /* \"#utility.yul\":25079:25172   */\n      tag_646\n        /* \"#utility.yul\":25168:25171   */\n      dup3\n        /* \"#utility.yul\":25079:25172   */\n      tag_404\n      jump\t// in\n    tag_646:\n        /* \"#utility.yul\":25197:25199   */\n      0x20\n        /* \"#utility.yul\":25192:25195   */\n      dup3\n        /* \"#utility.yul\":25188:25200   */\n      add\n        /* \"#utility.yul\":25181:25200   */\n      swap1\n      pop\n        /* \"#utility.yul\":24840:25206   */\n      swap2\n      swap1\n      pop\n      jump\t// out\n        /* \"#utility.yul\":25212:25631   */\n    tag_202:\n        /* \"#utility.yul\":25378:25382   */\n      0x00\n        /* \"#utility.yul\":25416:25418   */\n      0x20\n        /* \"#utility.yul\":25405:25414   */\n      dup3\n        /* \"#utility.yul\":25401:25419   */\n      add\n        /* \"#utility.yul\":25393:25419   */\n      swap1\n      pop\n        /* \"#utility.yul\":25465:25474   */\n      dup2\n        /* \"#utility.yul\":25459:25463   */\n      dup2\n        /* \"#utility.yul\":25455:25475   */\n      sub\n        /* \"#utility.yul\":25451:25452   */\n      0x00\n        /* \"#utility.yul\":25440:25449   */\n      dup4\n        /* \"#utility.yul\":25436:25453   */\n      add\n        /* \"#utility.yul\":25429:25476   */\n      mstore\n        /* \"#utility.yul\":25493:25624   */\n      tag_648\n        /* \"#utility.yul\":25619:25623   */\n      dup2\n        /* \"#utility.yul\":25493:25624   */\n      tag_405\n      jump\t// in\n    tag_648:\n        /* \"#utility.yul\":25485:25624   */\n      swap1\n      pop\n        /* \"#utility.yul\":25212:25631   */\n      swap2\n      swap1\n      pop\n      jump\t// out\n        /* \"#utility.yul\":25637:25912   */\n    tag_223:\n        /* \"#utility.yul\":25769:25772   */\n      0x00\n        /* \"#utility.yul\":25791:25886   */\n      tag_650\n        /* \"#utility.yul\":25882:25885   */\n      dup3\n        /* \"#utility.yul\":25873:25879   */\n      dup5\n        /* \"#utility.yul\":25791:25886   */\n      tag_373\n      jump\t// in\n    tag_650:\n        /* \"#utility.yul\":25784:25886   */\n      swap2\n      pop\n        /* \"#utility.yul\":25903:25906   */\n      dup2\n        /* \"#utility.yul\":25896:25906   */\n      swap1\n      pop\n        /* \"#utility.yul\":25637:25912   */\n      swap3\n      swap2\n      pop\n      pop\n      jump\t// out\n        /* \"#utility.yul\":25918:26088   */\n    tag_406:\n        /* \"#utility.yul\":26058:26080   */\n      0x496e76616c696420696e707574206c656e677468000000000000000000000000\n        /* \"#utility.yul\":26054:26055   */\n      0x00\n        /* \"#utility.yul\":26046:26052   */\n      dup3\n        /* \"#utility.yul\":26042:26056   */\n      add\n        /* \"#utility.yul\":26035:26081   */\n      mstore\n        /* \"#utility.yul\":25918:26088   */\n      pop\n      jump\t// out\n        /* \"#utility.yul\":26094:26460   */\n    tag_407:\n        /* \"#utility.yul\":26236:26239   */\n      0x00\n        /* \"#utility.yul\":26257:26324   */\n      tag_653\n        /* \"#utility.yul\":26321:26323   */\n      0x14\n        /* \"#utility.yul\":26316:26319   */\n      dup4\n        /* \"#utility.yul\":26257:26324   */\n      tag_361\n      jump\t// in\n    tag_653:\n        /* \"#utility.yul\":26250:26324   */\n      swap2\n      pop\n        /* \"#utility.yul\":26333:26426   */\n      tag_654\n        /* \"#utility.yul\":26422:26425   */\n      dup3\n        /* \"#utility.yul\":26333:26426   */\n      tag_406\n      jump\t// in\n    tag_654:\n        /* \"#utility.yul\":26451:26453   */\n      0x20\n        /* \"#utility.yul\":26446:26449   */\n      dup3\n        /* \"#utility.yul\":26442:26454   */\n      add\n        /* \"#utility.yul\":26435:26454   */\n      swap1\n      pop\n        /* \"#utility.yul\":26094:26460   */\n      swap2\n      swap1\n      pop\n      jump\t// out\n        /* \"#utility.yul\":26466:26885   */\n    tag_228:\n        /* \"#utility.yul\":26632:26636   */\n      0x00\n        /* \"#utility.yul\":26670:26672   */\n      0x20\n        /* \"#utility.yul\":26659:26668   */\n      dup3\n        /* \"#utility.yul\":26655:26673   */\n      add\n        /* \"#utility.yul\":26647:26673   */\n      swap1\n      pop\n        /* \"#utility.yul\":26719:26728   */\n      dup2\n        /* \"#utility.yul\":26713:26717   */\n      dup2\n        /* \"#utility.yul\":26709:26729   */\n      sub\n        /* \"#utility.yul\":26705:26706   */\n      0x00\n        /* \"#utility.yul\":26694:26703   */\n      dup4\n        /* \"#utility.yul\":26690:26707   */\n      add\n        /* \"#utility.yul\":26683:26730   */\n      mstore\n        /* \"#utility.yul\":26747:26878   */\n      tag_656\n        /* \"#utility.yul\":26873:26877   */\n      dup2\n        /* \"#utility.yul\":26747:26878   */\n      tag_407\n      jump\t// in\n    tag_656:\n        /* \"#utility.yul\":26739:26878   */\n      swap1\n      pop\n        /* \"#utility.yul\":26466:26885   */\n      swap2\n      swap1\n      pop\n      jump\t// out\n        /* \"#utility.yul\":26891:26977   */\n    tag_408:\n        /* \"#utility.yul\":26926:26933   */\n      0x00\n        /* \"#utility.yul\":26966:26970   */\n      0xff\n        /* \"#utility.yul\":26959:26964   */\n      dup3\n        /* \"#utility.yul\":26955:26971   */\n      and\n        /* \"#utility.yul\":26944:26971   */\n      swap1\n      pop\n        /* \"#utility.yul\":26891:26977   */\n      swap2\n      swap1\n      pop\n      jump\t// out\n        /* \"#utility.yul\":26983:27174   */\n    tag_237:\n        /* \"#utility.yul\":27021:27025   */\n      0x00\n        /* \"#utility.yul\":27041:27059   */\n      tag_659\n        /* \"#utility.yul\":27057:27058   */\n      dup3\n        /* \"#utility.yul\":27041:27059   */\n      tag_408\n      jump\t// in\n    tag_659:\n        /* \"#utility.yul\":27036:27059   */\n      swap2\n      pop\n        /* \"#utility.yul\":27073:27091   */\n      tag_660\n        /* \"#utility.yul\":27089:27090   */\n      dup4\n        /* \"#utility.yul\":27073:27091   */\n      tag_408\n      jump\t// in\n    tag_660:\n        /* \"#utility.yul\":27068:27091   */\n      swap3\n      pop\n        /* \"#utility.yul\":27115:27116   */\n      dup3\n        /* \"#utility.yul\":27112:27113   */\n      dup3\n        /* \"#utility.yul\":27108:27117   */\n      sub\n        /* \"#utility.yul\":27100:27117   */\n      swap1\n      pop\n        /* \"#utility.yul\":27139:27143   */\n      0xff\n        /* \"#utility.yul\":27133:27137   */\n      dup2\n        /* \"#utility.yul\":27130:27144   */\n      gt\n        /* \"#utility.yul\":27127:27167   */\n      iszero\n      tag_661\n      jumpi\n        /* \"#utility.yul\":27147:27165   */\n      tag_662\n      tag_378\n      jump\t// in\n    tag_662:\n        /* \"#utility.yul\":27127:27167   */\n    tag_661:\n        /* \"#utility.yul\":26983:27174   */\n      swap3\n      swap2\n      pop\n      pop\n      jump\t// out\n        /* \"#utility.yul\":27180:27356   */\n    tag_409:\n        /* \"#utility.yul\":27320:27348   */\n      0x496e76616c69642063686172616374657220696e20696e707574000000000000\n        /* \"#utility.yul\":27316:27317   */\n      0x00\n        /* \"#utility.yul\":27308:27314   */\n      dup3\n        /* \"#utility.yul\":27304:27318   */\n      add\n        /* \"#utility.yul\":27297:27349   */\n      mstore\n        /* \"#utility.yul\":27180:27356   */\n      pop\n      jump\t// out\n        /* \"#utility.yul\":27362:27728   */\n    tag_410:\n        /* \"#utility.yul\":27504:27507   */\n      0x00\n        /* \"#utility.yul\":27525:27592   */\n      tag_665\n        /* \"#utility.yul\":27589:27591   */\n      0x1a\n        /* \"#utility.yul\":27584:27587   */\n      dup4\n        /* \"#utility.yul\":27525:27592   */\n      tag_361\n      jump\t// in\n    tag_665:\n        /* \"#utility.yul\":27518:27592   */\n      swap2\n      pop\n        /* \"#utility.yul\":27601:27694   */\n      tag_666\n        /* \"#utility.yul\":27690:27693   */\n      dup3\n        /* \"#utility.yul\":27601:27694   */\n      tag_409\n      jump\t// in\n    tag_666:\n        /* \"#utility.yul\":27719:27721   */\n      0x20\n        /* \"#utility.yul\":27714:27717   */\n      dup3\n        /* \"#utility.yul\":27710:27722   */\n      add\n        /* \"#utility.yul\":27703:27722   */\n      swap1\n      pop\n        /* \"#utility.yul\":27362:27728   */\n      swap2\n      swap1\n      pop\n      jump\t// out\n        /* \"#utility.yul\":27734:28153   */\n    tag_248:\n        /* \"#utility.yul\":27900:27904   */\n      0x00\n        /* \"#utility.yul\":27938:27940   */\n      0x20\n        /* \"#utility.yul\":27927:27936   */\n      dup3\n        /* \"#utility.yul\":27923:27941   */\n      add\n        /* \"#utility.yul\":27915:27941   */\n      swap1\n      pop\n        /* \"#utility.yul\":27987:27996   */\n      dup2\n        /* \"#utility.yul\":27981:27985   */\n      dup2\n        /* \"#utility.yul\":27977:27997   */\n      sub\n        /* \"#utility.yul\":27973:27974   */\n      0x00\n        /* \"#utility.yul\":27962:27971   */\n      dup4\n        /* \"#utility.yul\":27958:27975   */\n      add\n        /* \"#utility.yul\":27951:27998   */\n      mstore\n        /* \"#utility.yul\":28015:28146   */\n      tag_668\n        /* \"#utility.yul\":28141:28145   */\n      dup2\n        /* \"#utility.yul\":28015:28146   */\n      tag_410\n      jump\t// in\n    tag_668:\n        /* \"#utility.yul\":28007:28146   */\n      swap1\n      pop\n        /* \"#utility.yul\":27734:28153   */\n      swap2\n      swap1\n      pop\n      jump\t// out\n        /* \"#utility.yul\":28159:28569   */\n    tag_250:\n        /* \"#utility.yul\":28199:28206   */\n      0x00\n        /* \"#utility.yul\":28222:28242   */\n      tag_670\n        /* \"#utility.yul\":28240:28241   */\n      dup3\n        /* \"#utility.yul\":28222:28242   */\n      tag_363\n      jump\t// in\n    tag_670:\n        /* \"#utility.yul\":28217:28242   */\n      swap2\n      pop\n        /* \"#utility.yul\":28256:28276   */\n      tag_671\n        /* \"#utility.yul\":28274:28275   */\n      dup4\n        /* \"#utility.yul\":28256:28276   */\n      tag_363\n      jump\t// in\n    tag_671:\n        /* \"#utility.yul\":28251:28276   */\n      swap3\n      pop\n        /* \"#utility.yul\":28311:28312   */\n      dup3\n        /* \"#utility.yul\":28308:28309   */\n      dup3\n        /* \"#utility.yul\":28304:28313   */\n      mul\n        /* \"#utility.yul\":28333:28363   */\n      tag_672\n        /* \"#utility.yul\":28351:28362   */\n      dup2\n        /* \"#utility.yul\":28333:28363   */\n      tag_363\n      jump\t// in\n    tag_672:\n        /* \"#utility.yul\":28322:28363   */\n      swap2\n      pop\n        /* \"#utility.yul\":28512:28513   */\n      dup3\n        /* \"#utility.yul\":28503:28510   */\n      dup3\n        /* \"#utility.yul\":28499:28514   */\n      div\n        /* \"#utility.yul\":28496:28497   */\n      dup5\n        /* \"#utility.yul\":28493:28515   */\n      eq\n        /* \"#utility.yul\":28473:28474   */\n      dup4\n        /* \"#utility.yul\":28466:28475   */\n      iszero\n        /* \"#utility.yul\":28446:28529   */\n      or\n        /* \"#utility.yul\":28423:28562   */\n      tag_673\n      jumpi\n        /* \"#utility.yul\":28542:28560   */\n      tag_674\n      tag_378\n      jump\t// in\n    tag_674:\n        /* \"#utility.yul\":28423:28562   */\n    tag_673:\n        /* \"#utility.yul\":28207:28569   */\n      pop\n        /* \"#utility.yul\":28159:28569   */\n      swap3\n      swap2\n      pop\n      pop\n      jump\t// out\n        /* \"#utility.yul\":28575:28766   */\n    tag_252:\n        /* \"#utility.yul\":28615:28618   */\n      0x00\n        /* \"#utility.yul\":28634:28654   */\n      tag_676\n        /* \"#utility.yul\":28652:28653   */\n      dup3\n        /* \"#utility.yul\":28634:28654   */\n      tag_363\n      jump\t// in\n    tag_676:\n        /* \"#utility.yul\":28629:28654   */\n      swap2\n      pop\n        /* \"#utility.yul\":28668:28688   */\n      tag_677\n        /* \"#utility.yul\":28686:28687   */\n      dup4\n        /* \"#utility.yul\":28668:28688   */\n      tag_363\n      jump\t// in\n    tag_677:\n        /* \"#utility.yul\":28663:28688   */\n      swap3\n      pop\n        /* \"#utility.yul\":28711:28712   */\n      dup3\n        /* \"#utility.yul\":28708:28709   */\n      dup3\n        /* \"#utility.yul\":28704:28713   */\n      add\n        /* \"#utility.yul\":28697:28713   */\n      swap1\n      pop\n        /* \"#utility.yul\":28732:28735   */\n      dup1\n        /* \"#utility.yul\":28729:28730   */\n      dup3\n        /* \"#utility.yul\":28726:28736   */\n      gt\n        /* \"#utility.yul\":28723:28759   */\n      iszero\n      tag_678\n      jumpi\n        /* \"#utility.yul\":28739:28757   */\n      tag_679\n      tag_378\n      jump\t// in\n    tag_679:\n        /* \"#utility.yul\":28723:28759   */\n    tag_678:\n        /* \"#utility.yul\":28575:28766   */\n      swap3\n      swap2\n      pop\n      pop\n      jump\t// out\n        /* \"#utility.yul\":28772:28944   */\n    tag_411:\n        /* \"#utility.yul\":28912:28936   */\n      0x596f75206861766520616c726561647920766f74656400000000000000000000\n        /* \"#utility.yul\":28908:28909   */\n      0x00\n        /* \"#utility.yul\":28900:28906   */\n      dup3\n        /* \"#utility.yul\":28896:28910   */\n      add\n        /* \"#utility.yul\":28889:28937   */\n      mstore\n        /* \"#utility.yul\":28772:28944   */\n      pop\n      jump\t// out\n        /* \"#utility.yul\":28950:29316   */\n    tag_412:\n        /* \"#utility.yul\":29092:29095   */\n      0x00\n        /* \"#utility.yul\":29113:29180   */\n      tag_682\n        /* \"#utility.yul\":29177:29179   */\n      0x16\n        /* \"#utility.yul\":29172:29175   */\n      dup4\n        /* \"#utility.yul\":29113:29180   */\n      tag_361\n      jump\t// in\n    tag_682:\n        /* \"#utility.yul\":29106:29180   */\n      swap2\n      pop\n        /* \"#utility.yul\":29189:29282   */\n      tag_683\n        /* \"#utility.yul\":29278:29281   */\n      dup3\n        /* \"#utility.yul\":29189:29282   */\n      tag_411\n      jump\t// in\n    tag_683:\n        /* \"#utility.yul\":29307:29309   */\n      0x20\n        /* \"#utility.yul\":29302:29305   */\n      dup3\n        /* \"#utility.yul\":29298:29310   */\n      add\n        /* \"#utility.yul\":29291:29310   */\n      swap1\n      pop\n        /* \"#utility.yul\":28950:29316   */\n      swap2\n      swap1\n      pop\n      jump\t// out\n        /* \"#utility.yul\":29322:29741   */\n    tag_262:\n        /* \"#utility.yul\":29488:29492   */\n      0x00\n        /* \"#utility.yul\":29526:29528   */\n      0x20\n        /* \"#utility.yul\":29515:29524   */\n      dup3\n        /* \"#utility.yul\":29511:29529   */\n      add\n        /* \"#utility.yul\":29503:29529   */\n      swap1\n      pop\n        /* \"#utility.yul\":29575:29584   */\n      dup2\n        /* \"#utility.yul\":29569:29573   */\n      dup2\n        /* \"#utility.yul\":29565:29585   */\n      sub\n        /* \"#utility.yul\":29561:29562   */\n      0x00\n        /* \"#utility.yul\":29550:29559   */\n      dup4\n        /* \"#utility.yul\":29546:29563   */\n      add\n        /* \"#utility.yul\":29539:29586   */\n      mstore\n        /* \"#utility.yul\":29603:29734   */\n      tag_685\n        /* \"#utility.yul\":29729:29733   */\n      dup2\n        /* \"#utility.yul\":29603:29734   */\n      tag_412\n      jump\t// in\n    tag_685:\n        /* \"#utility.yul\":29595:29734   */\n      swap1\n      pop\n        /* \"#utility.yul\":29322:29741   */\n      swap2\n      swap1\n      pop\n      jump\t// out\n        /* \"#utility.yul\":29747:29925   */\n    tag_413:\n        /* \"#utility.yul\":29887:29917   */\n      0x596f7520617265206e6f74207265676973746572656420766f74657200000000\n        /* \"#utility.yul\":29883:29884   */\n      0x00\n        /* \"#utility.yul\":29875:29881   */\n      dup3\n        /* \"#utility.yul\":29871:29885   */\n      add\n        /* \"#utility.yul\":29864:29918   */\n      mstore\n        /* \"#utility.yul\":29747:29925   */\n      pop\n      jump\t// out\n        /* \"#utility.yul\":29931:30297   */\n    tag_414:\n        /* \"#utility.yul\":30073:30076   */\n      0x00\n        /* \"#utility.yul\":30094:30161   */\n      tag_688\n        /* \"#utility.yul\":30158:30160   */\n      0x1c\n        /* \"#utility.yul\":30153:30156   */\n      dup4\n        /* \"#utility.yul\":30094:30161   */\n      tag_361\n      jump\t// in\n    tag_688:\n        /* \"#utility.yul\":30087:30161   */\n      swap2\n      pop\n        /* \"#utility.yul\":30170:30263   */\n      tag_689\n        /* \"#utility.yul\":30259:30262   */\n      dup3\n        /* \"#utility.yul\":30170:30263   */\n      tag_413\n      jump\t// in\n    tag_689:\n        /* \"#utility.yul\":30288:30290   */\n      0x20\n        /* \"#utility.yul\":30283:30286   */\n      dup3\n        /* \"#utility.yul\":30279:30291   */\n      add\n        /* \"#utility.yul\":30272:30291   */\n      swap1\n      pop\n        /* \"#utility.yul\":29931:30297   */\n      swap2\n      swap1\n      pop\n      jump\t// out\n        /* \"#utility.yul\":30303:30722   */\n    tag_265:\n        /* \"#utility.yul\":30469:30473   */\n      0x00\n        /* \"#utility.yul\":30507:30509   */\n      0x20\n        /* \"#utility.yul\":30496:30505   */\n      dup3\n        /* \"#utility.yul\":30492:30510   */\n      add\n        /* \"#utility.yul\":30484:30510   */\n      swap1\n      pop\n        /* \"#utility.yul\":30556:30565   */\n      dup2\n        /* \"#utility.yul\":30550:30554   */\n      dup2\n        /* \"#utility.yul\":30546:30566   */\n      sub\n        /* \"#utility.yul\":30542:30543   */\n      0x00\n        /* \"#utility.yul\":30531:30540   */\n      dup4\n        /* \"#utility.yul\":30527:30544   */\n      add\n        /* \"#utility.yul\":30520:30567   */\n      mstore\n        /* \"#utility.yul\":30584:30715   */\n      tag_691\n        /* \"#utility.yul\":30710:30714   */\n      dup2\n        /* \"#utility.yul\":30584:30715   */\n      tag_414\n      jump\t// in\n    tag_691:\n        /* \"#utility.yul\":30576:30715   */\n      swap1\n      pop\n        /* \"#utility.yul\":30303:30722   */\n      swap2\n      swap1\n      pop\n      jump\t// out\n        /* \"#utility.yul\":30728:30905   */\n    tag_415:\n        /* \"#utility.yul\":30868:30897   */\n      0x43616e646964617465206973206e6f7420726567697374657265640000000000\n        /* \"#utility.yul\":30864:30865   */\n      0x00\n        /* \"#utility.yul\":30856:30862   */\n      dup3\n        /* \"#utility.yul\":30852:30866   */\n      add\n        /* \"#utility.yul\":30845:30898   */\n      mstore\n        /* \"#utility.yul\":30728:30905   */\n      pop\n      jump\t// out\n        /* \"#utility.yul\":30911:31277   */\n    tag_416:\n        /* \"#utility.yul\":31053:31056   */\n      0x00\n        /* \"#utility.yul\":31074:31141   */\n      tag_694\n        /* \"#utility.yul\":31138:31140   */\n      0x1b\n        /* \"#utility.yul\":31133:31136   */\n      dup4\n        /* \"#utility.yul\":31074:31141   */\n      tag_361\n      jump\t// in\n    tag_694:\n        /* \"#utility.yul\":31067:31141   */\n      swap2\n      pop\n        /* \"#utility.yul\":31150:31243   */\n      tag_695\n        /* \"#utility.yul\":31239:31242   */\n      dup3\n        /* \"#utility.yul\":31150:31243   */\n      tag_415\n      jump\t// in\n    tag_695:\n        /* \"#utility.yul\":31268:31270   */\n      0x20\n        /* \"#utility.yul\":31263:31266   */\n      dup3\n        /* \"#utility.yul\":31259:31271   */\n      add\n        /* \"#utility.yul\":31252:31271   */\n      swap1\n      pop\n        /* \"#utility.yul\":30911:31277   */\n      swap2\n      swap1\n      pop\n      jump\t// out\n        /* \"#utility.yul\":31283:31702   */\n    tag_268:\n        /* \"#utility.yul\":31449:31453   */\n      0x00\n        /* \"#utility.yul\":31487:31489   */\n      0x20\n        /* \"#utility.yul\":31476:31485   */\n      dup3\n        /* \"#utility.yul\":31472:31490   */\n      add\n        /* \"#utility.yul\":31464:31490   */\n      swap1\n      pop\n        /* \"#utility.yul\":31536:31545   */\n      dup2\n        /* \"#utility.yul\":31530:31534   */\n      dup2\n        /* \"#utility.yul\":31526:31546   */\n      sub\n        /* \"#utility.yul\":31522:31523   */\n      0x00\n        /* \"#utility.yul\":31511:31520   */\n      dup4\n        /* \"#utility.yul\":31507:31524   */\n      add\n        /* \"#utility.yul\":31500:31547   */\n      mstore\n        /* \"#utility.yul\":31564:31695   */\n      tag_697\n        /* \"#utility.yul\":31690:31694   */\n      dup2\n        /* \"#utility.yul\":31564:31695   */\n      tag_416\n      jump\t// in\n    tag_697:\n        /* \"#utility.yul\":31556:31695   */\n      swap1\n      pop\n        /* \"#utility.yul\":31283:31702   */\n      swap2\n      swap1\n      pop\n      jump\t// out\n        /* \"#utility.yul\":31708:31902   */\n    tag_274:\n        /* \"#utility.yul\":31748:31752   */\n      0x00\n        /* \"#utility.yul\":31768:31788   */\n      tag_699\n        /* \"#utility.yul\":31786:31787   */\n      dup3\n        /* \"#utility.yul\":31768:31788   */\n      tag_363\n      jump\t// in\n    tag_699:\n        /* \"#utility.yul\":31763:31788   */\n      swap2\n      pop\n        /* \"#utility.yul\":31802:31822   */\n      tag_700\n        /* \"#utility.yul\":31820:31821   */\n      dup4\n        /* \"#utility.yul\":31802:31822   */\n      tag_363\n      jump\t// in\n    tag_700:\n        /* \"#utility.yul\":31797:31822   */\n      swap3\n      pop\n        /* \"#utility.yul\":31846:31847   */\n      dup3\n        /* \"#utility.yul\":31843:31844   */\n      dup3\n        /* \"#utility.yul\":31839:31848   */\n      sub\n        /* \"#utility.yul\":31831:31848   */\n      swap1\n      pop\n        /* \"#utility.yul\":31870:31871   */\n      dup2\n        /* \"#utility.yul\":31864:31868   */\n      dup2\n        /* \"#utility.yul\":31861:31872   */\n      gt\n        /* \"#utility.yul\":31858:31895   */\n      iszero\n      tag_701\n      jumpi\n        /* \"#utility.yul\":31875:31893   */\n      tag_702\n      tag_378\n      jump\t// in\n    tag_702:\n        /* \"#utility.yul\":31858:31895   */\n    tag_701:\n        /* \"#utility.yul\":31708:31902   */\n      swap3\n      swap2\n      pop\n      pop\n      jump\t// out\n        /* \"#utility.yul\":31908:32082   */\n    tag_417:\n        /* \"#utility.yul\":32048:32074   */\n      0x43686f6f736520446966666572656e74204e616d652e2e2e0000000000000000\n        /* \"#utility.yul\":32044:32045   */\n      0x00\n        /* \"#utility.yul\":32036:32042   */\n      dup3\n        /* \"#utility.yul\":32032:32046   */\n      add\n        /* \"#utility.yul\":32025:32075   */\n      mstore\n        /* \"#utility.yul\":31908:32082   */\n      pop\n      jump\t// out\n        /* \"#utility.yul\":32088:32454   */\n    tag_418:\n        /* \"#utility.yul\":32230:32233   */\n      0x00\n        /* \"#utility.yul\":32251:32318   */\n      tag_705\n        /* \"#utility.yul\":32315:32317   */\n      0x18\n        /* \"#utility.yul\":32310:32313   */\n      dup4\n        /* \"#utility.yul\":32251:32318   */\n      tag_361\n      jump\t// in\n    tag_705:\n        /* \"#utility.yul\":32244:32318   */\n      swap2\n      pop\n        /* \"#utility.yul\":32327:32420   */\n      tag_706\n        /* \"#utility.yul\":32416:32419   */\n      dup3\n        /* \"#utility.yul\":32327:32420   */\n      tag_417\n      jump\t// in\n    tag_706:\n        /* \"#utility.yul\":32445:32447   */\n      0x20\n        /* \"#utility.yul\":32440:32443   */\n      dup3\n        /* \"#utility.yul\":32436:32448   */\n      add\n        /* \"#utility.yul\":32429:32448   */\n      swap1\n      pop\n        /* \"#utility.yul\":32088:32454   */\n      swap2\n      swap1\n      pop\n      jump\t// out\n        /* \"#utility.yul\":32460:32879   */\n    tag_322:\n        /* \"#utility.yul\":32626:32630   */\n      0x00\n        /* \"#utility.yul\":32664:32666   */\n      0x20\n        /* \"#utility.yul\":32653:32662   */\n      dup3\n        /* \"#utility.yul\":32649:32667   */\n      add\n        /* \"#utility.yul\":32641:32667   */\n      swap1\n      pop\n        /* \"#utility.yul\":32713:32722   */\n      dup2\n        /* \"#utility.yul\":32707:32711   */\n      dup2\n        /* \"#utility.yul\":32703:32723   */\n      sub\n        /* \"#utility.yul\":32699:32700   */\n      0x00\n        /* \"#utility.yul\":32688:32697   */\n      dup4\n        /* \"#utility.yul\":32684:32701   */\n      add\n        /* \"#utility.yul\":32677:32724   */\n      mstore\n        /* \"#utility.yul\":32741:32872   */\n      tag_708\n        /* \"#utility.yul\":32867:32871   */\n      dup2\n        /* \"#utility.yul\":32741:32872   */\n      tag_418\n      jump\t// in\n    tag_708:\n        /* \"#utility.yul\":32733:32872   */\n      swap1\n      pop\n        /* \"#utility.yul\":32460:32879   */\n      swap2\n      swap1\n      pop\n      jump\t// out\n\n    auxdata: 0xa264697066735822122000f11915fb1435978948c8210e5e94e5852c479356c108c7196eafbaa35793d064736f6c63430008120033\n}\n",
				"bytecode": {
					"linkReferences": {},
					"object": "608060405234801561001057600080fd5b50336000806101000a81548173ffffffffffffffffffffffffffffffffffffffff021916908373ffffffffffffffffffffffffffffffffffffffff160217905550612fc7806100606000396000f3fe608060405234801561001057600080fd5b506004361061009e5760003560e01c806366444e861161006657806366444e86146101235780637866865814610141578063b2b98ed21461014b578063f342c4de14610169578063f526dab4146101885761009e565b806304b8789b146100a35780631231f78e146100bf578063567484ee146100dd57806359f784681461010f57806362d73eb814610119575b600080fd5b6100bd60048036038101906100b8919061207c565b6101a4565b005b6100c7610240565b6040516100d49190612235565b60405180910390f35b6100f760048036038101906100f29190612257565b610559565b60405161010693929190612344565b60405180910390f35b610117610885565b005b610121610930565b005b61012b6109f5565b6040516101389190612382565b60405180910390f35b610149610ac6565b005b610153610b20565b604051610160919061239d565b60405180910390f35b610171610ea1565b60405161017f9291906123da565b60405180910390f35b6101a2600480360381019061019d9190612257565b610f46565b005b600460003373ffffffffffffffffffffffffffffffffffffffff1673ffffffffffffffffffffffffffffffffffffffff16815260200190815260200160002060009054906101000a900460ff1615610231576040517f08c379a00000000000000000000000000000000000000000000000000000000081526004016102289061244f565b60405180910390fd5b61023c338383611027565b5050565b6060600060018054905067ffffffffffffffff81111561026357610262611f51565b5b60405190808252806020026020018201604052801561029657816020015b60608152602001906001900390816102815790505b50905060005b60018054905081101561055157600060056000600184815481106102c3576102c261246f565b5b9060005260206000200160009054906101000a900473ffffffffffffffffffffffffffffffffffffffff1673ffffffffffffffffffffffffffffffffffffffff1673ffffffffffffffffffffffffffffffffffffffff168152602001908152602001600020604051806080016040529081600082018054610343906124cd565b80601f016020809104026020016040519081016040528092919081815260200182805461036f906124cd565b80156103bc5780601f10610391576101008083540402835291602001916103bc565b820191906000526020600020905b81548152906001019060200180831161039f57829003601f168201915b505050505081526020016001820180546103d5906124cd565b80601f0160208091040260200160405190810160405280929190818152602001828054610401906124cd565b801561044e5780601f106104235761010080835404028352916020019161044e565b820191906000526020600020905b81548152906001019060200180831161043157829003601f168201915b50505050508152602001600282018054610467906124cd565b80601f0160208091040260200160405190810160405280929190818152602001828054610493906124cd565b80156104e05780601f106104b5576101008083540402835291602001916104e0565b820191906000526020600020905b8154815290600101906020018083116104c357829003601f168201915b5050505050815260200160038201548152505090508060000151816020015160405160200161051092919061261e565b6040516020818303038152906040528383815181106105325761053161246f565b5b602002602001018190525050808061054990612692565b91505061029c565b508091505090565b600060606000806105686109f5565b905060005b8181101561084257610587866105828361119f565b611441565b1561082f57600060056000600184815481106105a6576105a561246f565b5b9060005260206000200160009054906101000a900473ffffffffffffffffffffffffffffffffffffffff1673ffffffffffffffffffffffffffffffffffffffff1673ffffffffffffffffffffffffffffffffffffffff168152602001908152602001600020604051806080016040529081600082018054610626906124cd565b80601f0160208091040260200160405190810160405280929190818152602001828054610652906124cd565b801561069f5780601f106106745761010080835404028352916020019161069f565b820191906000526020600020905b81548152906001019060200180831161068257829003601f168201915b505050505081526020016001820180546106b8906124cd565b80601f01602080910402602001604051908101604052809291908181526020018280546106e4906124cd565b80156107315780601f1061070657610100808354040283529160200191610731565b820191906000526020600020905b81548152906001019060200180831161071457829003601f168201915b5050505050815260200160028201805461074a906124cd565b80601f0160208091040260200160405190810160405280929190818152602001828054610776906124cd565b80156107c35780601f10610798576101008083540402835291602001916107c3565b820191906000526020600020905b8154815290600101906020018083116107a657829003601f168201915b505050505081526020016003820154815250509050600182815481106107ec576107eb61246f565b5b9060005260206000200160009054906101000a900473ffffffffffffffffffffffffffffffffffffffff168160000151826060015195509550955050505061087e565b808061083a90612692565b91505061056d565b506040517f08c379a000000000000000000000000000000000000000000000000000000000815260040161087590612726565b60405180910390fd5b9193909250565b60008054906101000a900473ffffffffffffffffffffffffffffffffffffffff1673ffffffffffffffffffffffffffffffffffffffff163373ffffffffffffffffffffffffffffffffffffffff1614610913576040517f08c379a000000000000000000000000000000000000000000000000000000000815260040161090a906127b8565b60405180910390fd5b6001600060156101000a81548160ff021916908315150217905550565b60008054906101000a900473ffffffffffffffffffffffffffffffffffffffff1673ffffffffffffffffffffffffffffffffffffffff163373ffffffffffffffffffffffffffffffffffffffff16146109be576040517f08c379a00000000000000000000000000000000000000000000000000000000081526004016109b5906127b8565b60405180910390fd5b6001600060146101000a81548160ff02191690831515021790555060008060156101000a81548160ff021916908315150217905550565b6000806000905060005b600180549050811015610abe576004600060018381548110610a2457610a2361246f565b5b9060005260206000200160009054906101000a900473ffffffffffffffffffffffffffffffffffffffff1673ffffffffffffffffffffffffffffffffffffffff1673ffffffffffffffffffffffffffffffffffffffff16815260200190815260200160002060009054906101000a900460ff1615610aab578180610aa790612692565b9250505b8080610ab690612692565b9150506109ff565b508091505090565b6001600260003373ffffffffffffffffffffffffffffffffffffffff1673ffffffffffffffffffffffffffffffffffffffff16815260200190815260200160002060006101000a81548160ff021916908315150217905550565b6060600060159054906101000a900460ff16610b71576040517f08c379a0000000000000000000000000000000000000000000000000000000008152600401610b6890612824565b60405180910390fd5b600080806000905060005b600180549050811015610d8457836005600060018481548110610ba257610ba161246f565b5b9060005260206000200160009054906101000a900473ffffffffffffffffffffffffffffffffffffffff1673ffffffffffffffffffffffffffffffffffffffff1673ffffffffffffffffffffffffffffffffffffffff168152602001908152602001600020600301541115610cda576005600060018381548110610c2957610c2861246f565b5b9060005260206000200160009054906101000a900473ffffffffffffffffffffffffffffffffffffffff1673ffffffffffffffffffffffffffffffffffffffff1673ffffffffffffffffffffffffffffffffffffffff16815260200190815260200160002060030154935060018181548110610ca857610ca761246f565b5b9060005260206000200160009054906101000a900473ffffffffffffffffffffffffffffffffffffffff169250610d71565b836005600060018481548110610cf357610cf261246f565b5b9060005260206000200160009054906101000a900473ffffffffffffffffffffffffffffffffffffffff1673ffffffffffffffffffffffffffffffffffffffff1673ffffffffffffffffffffffffffffffffffffffff1681526020019081526020016000206003015403610d70578180610d6c90612692565b9250505b5b8080610d7c90612692565b915050610b7c565b5060018110610dcd576040518060400160405280601081526020017f456c656374696f6e20546965642e2e2e000000000000000000000000000000008152509350505050610e9e565b600560008373ffffffffffffffffffffffffffffffffffffffff1673ffffffffffffffffffffffffffffffffffffffff1681526020019081526020016000206000018054610e1a906124cd565b80601f0160208091040260200160405190810160405280929190818152602001828054610e46906124cd565b8015610e935780601f10610e6857610100808354040283529160200191610e93565b820191906000526020600020905b815481529060010190602001808311610e7657829003601f168201915b505050505093505050505b90565b600080600260003373ffffffffffffffffffffffffffffffffffffffff1673ffffffffffffffffffffffffffffffffffffffff16815260200190815260200160002060009054906101000a900460ff16600360003373ffffffffffffffffffffffffffffffffffffffff1673ffffffffffffffffffffffffffffffffffffffff16815260200190815260200160002060009054906101000a900460ff16915091509091565b600060149054906101000a900460ff16610f95576040517f08c379a0000000000000000000000000000000000000000000000000000000008152600401610f8c90612890565b60405180910390fd5b600060159054906101000a900460ff1615610fe5576040517f08c379a0000000000000000000000000000000000000000000000000000000008152600401610fdc906128fc565b60405180910390fd5b602a81510361100a576000610ff98261149a565b90506110048161162e565b50611024565b600061101582610559565b505090506110228161162e565b505b50565b6001600460008573ffffffffffffffffffffffffffffffffffffffff1673ffffffffffffffffffffffffffffffffffffffff16815260200190815260200160002060006101000a81548160ff021916908315150217905550604051806080016040528083815260200161109984611925565b81526020018281526020016000815250600560008573ffffffffffffffffffffffffffffffffffffffff1673ffffffffffffffffffffffffffffffffffffffff16815260200190815260200160002060008201518160000190816110fd9190612ac8565b5060208201518160010190816111139190612ac8565b5060408201518160020190816111299190612ac8565b50606082015181600301559050506001839080600181540180825580915050600190039060005260206000200160009091909190916101000a81548173ffffffffffffffffffffffffffffffffffffffff021916908373ffffffffffffffffffffffffffffffffffffffff160217905550505050565b606060018054905082106111e8576040517f08c379a00000000000000000000000000000000000000000000000000000000081526004016111df90612be6565b60405180910390fd5b600060056000600185815481106112025761120161246f565b5b9060005260206000200160009054906101000a900473ffffffffffffffffffffffffffffffffffffffff1673ffffffffffffffffffffffffffffffffffffffff1673ffffffffffffffffffffffffffffffffffffffff168152602001908152602001600020604051806080016040529081600082018054611282906124cd565b80601f01602080910402602001604051908101604052809291908181526020018280546112ae906124cd565b80156112fb5780601f106112d0576101008083540402835291602001916112fb565b820191906000526020600020905b8154815290600101906020018083116112de57829003601f168201915b50505050508152602001600182018054611314906124cd565b80601f0160208091040260200160405190810160405280929190818152602001828054611340906124cd565b801561138d5780601f106113625761010080835404028352916020019161138d565b820191906000526020600020905b81548152906001019060200180831161137057829003601f168201915b505050505081526020016002820180546113a6906124cd565b80601f01602080910402602001604051908101604052809291908181526020018280546113d2906124cd565b801561141f5780601f106113f45761010080835404028352916020019161141f565b820191906000526020600020905b81548152906001019060200180831161140257829003601f168201915b5050505050815260200160038201548152505090508060200151915050919050565b6000816040516020016114549190612c06565b604051602081830303815290604052805190602001208360405160200161147b9190612c06565b6040516020818303038152906040528051906020012014905092915050565b600080829050602a8151146114e4576040517f08c379a00000000000000000000000000000000000000000000000000000000081526004016114db90612c69565b60405180910390fd5b60008080600290505b835181101561162257600084828151811061150b5761150a61246f565b5b602001015160f81c60f81b60f81c905060308160ff1610158015611533575060398160ff1611155b1561154f576030816115459190612c96565b60ff1692506115f4565b60418160ff1610158015611567575060468160ff1611155b15611583576037816115799190612c96565b60ff1692506115f3565b60618160ff161015801561159b575060668160ff1611155b156115b7576057816115ad9190612c96565b60ff1692506115f2565b6040517f08c379a00000000000000000000000000000000000000000000000000000000081526004016115e990612d17565b60405180910390fd5b5b5b826010856116029190612d37565b61160c9190612d79565b935050808061161a90612692565b9150506114ed565b50819350505050919050565b600060149054906101000a900460ff1661167d576040517f08c379a000000000000000000000000000000000000000000000000000000000815260040161167490612890565b60405180910390fd5b600060159054906101000a900460ff16156116cd576040517f08c379a00000000000000000000000000000000000000000000000000000000081526004016116c4906128fc565b60405180910390fd5b600360003373ffffffffffffffffffffffffffffffffffffffff1673ffffffffffffffffffffffffffffffffffffffff16815260200190815260200160002060009054906101000a900460ff161561175a576040517f08c379a000000000000000000000000000000000000000000000000000000000815260040161175190612df9565b60405180910390fd5b600260003373ffffffffffffffffffffffffffffffffffffffff1673ffffffffffffffffffffffffffffffffffffffff16815260200190815260200160002060009054906101000a900460ff166117e6576040517f08c379a00000000000000000000000000000000000000000000000000000000081526004016117dd90612e65565b60405180910390fd5b600460008273ffffffffffffffffffffffffffffffffffffffff1673ffffffffffffffffffffffffffffffffffffffff16815260200190815260200160002060009054906101000a900460ff16611872576040517f08c379a000000000000000000000000000000000000000000000000000000000815260040161186990612ed1565b60405180910390fd5b6001600360003373ffffffffffffffffffffffffffffffffffffffff1673ffffffffffffffffffffffffffffffffffffffff16815260200190815260200160002060006101000a81548160ff021916908315150217905550600560008273ffffffffffffffffffffffffffffffffffffffff1673ffffffffffffffffffffffffffffffffffffffff168152602001908152602001600020600301600081548092919061191d90612692565b919050555050565b606060008290506000816000815181106119425761194161246f565b5b602001015160f81c60f81b9050600082600184516119609190612ef1565b815181106119715761197061246f565b5b602001015160f81c60f81b90506000600267ffffffffffffffff81111561199b5761199a611f51565b5b6040519080825280601f01601f1916602001820160405280156119cd5781602001600182028036833780820191505090505b50905082816000815181106119e5576119e461246f565b5b60200101907effffffffffffffffffffffffffffffffffffffffffffffffffffffffffffff1916908160001a9053508181600181518110611a2957611a2861246f565b5b60200101907effffffffffffffffffffffffffffffffffffffffffffffffffffffffffffff1916908160001a9053506000611a626109f5565b905060005b81811015611e465760006005600060018481548110611a8957611a8861246f565b5b9060005260206000200160009054906101000a900473ffffffffffffffffffffffffffffffffffffffff1673ffffffffffffffffffffffffffffffffffffffff1673ffffffffffffffffffffffffffffffffffffffff168152602001908152602001600020604051806080016040529081600082018054611b09906124cd565b80601f0160208091040260200160405190810160405280929190818152602001828054611b35906124cd565b8015611b825780601f10611b5757610100808354040283529160200191611b82565b820191906000526020600020905b815481529060010190602001808311611b6557829003601f168201915b50505050508152602001600182018054611b9b906124cd565b80601f0160208091040260200160405190810160405280929190818152602001828054611bc7906124cd565b8015611c145780601f10611be957610100808354040283529160200191611c14565b820191906000526020600020905b815481529060010190602001808311611bf757829003601f168201915b50505050508152602001600282018054611c2d906124cd565b80601f0160208091040260200160405190810160405280929190818152602001828054611c59906124cd565b8015611ca65780601f10611c7b57610100808354040283529160200191611ca6565b820191906000526020600020905b815481529060010190602001808311611c8957829003601f168201915b5050505050815260200160038201548152505090506000816000015190506000600267ffffffffffffffff811115611ce157611ce0611f51565b5b6040519080825280601f01601f191660200182016040528015611d135781602001600182028036833780820191505090505b50905081600081518110611d2a57611d2961246f565b5b602001015160f81c60f81b81600081518110611d4957611d4861246f565b5b60200101907effffffffffffffffffffffffffffffffffffffffffffffffffffffffffffff1916908160001a9053508160018351611d879190612ef1565b81518110611d9857611d9761246f565b5b602001015160f81c60f81b81600181518110611db757611db661246f565b5b60200101907effffffffffffffffffffffffffffffffffffffffffffffffffffffffffffff1916908160001a905350611df08187611e54565b15611e30576040517f08c379a0000000000000000000000000000000000000000000000000000000008152600401611e2790612f71565b60405180910390fd5b5050508080611e3e90612692565b915050611a67565b508195505050505050919050565b60008151835114611e685760009050611f1c565b60005b8351811015611f1657828181518110611e8757611e8661246f565b5b602001015160f81c60f81b7effffffffffffffffffffffffffffffffffffffffffffffffffffffffffffff1916848281518110611ec757611ec661246f565b5b602001015160f81c60f81b7effffffffffffffffffffffffffffffffffffffffffffffffffffffffffffff191614611f03576000915050611f1c565b8080611f0e90612692565b915050611e6b565b50600190505b92915050565b6000604051905090565b600080fd5b600080fd5b600080fd5b600080fd5b6000601f19601f8301169050919050565b7f4e487b7100000000000000000000000000000000000000000000000000000000600052604160045260246000fd5b611f8982611f40565b810181811067ffffffffffffffff82111715611fa857611fa7611f51565b5b80604052505050565b6000611fbb611f22565b9050611fc78282611f80565b919050565b600067ffffffffffffffff821115611fe757611fe6611f51565b5b611ff082611f40565b9050602081019050919050565b82818337600083830152505050565b600061201f61201a84611fcc565b611fb1565b90508281526020810184848401111561203b5761203a611f3b565b5b612046848285611ffd565b509392505050565b600082601f83011261206357612062611f36565b5b813561207384826020860161200c565b91505092915050565b6000806040838503121561209357612092611f2c565b5b600083013567ffffffffffffffff8111156120b1576120b0611f31565b5b6120bd8582860161204e565b925050602083013567ffffffffffffffff8111156120de576120dd611f31565b5b6120ea8582860161204e565b9150509250929050565b600081519050919050565b600082825260208201905092915050565b6000819050602082019050919050565b600081519050919050565b600082825260208201905092915050565b60005b8381101561215a57808201518184015260208101905061213f565b60008484015250505050565b600061217182612120565b61217b818561212b565b935061218b81856020860161213c565b61219481611f40565b840191505092915050565b60006121ab8383612166565b905092915050565b6000602082019050919050565b60006121cb826120f4565b6121d581856120ff565b9350836020820285016121e785612110565b8060005b858110156122235784840389528151612204858261219f565b945061220f836121b3565b925060208a019950506001810190506121eb565b50829750879550505050505092915050565b6000602082019050818103600083015261224f81846121c0565b905092915050565b60006020828403121561226d5761226c611f2c565b5b600082013567ffffffffffffffff81111561228b5761228a611f31565b5b6122978482850161204e565b91505092915050565b600073ffffffffffffffffffffffffffffffffffffffff82169050919050565b60006122cb826122a0565b9050919050565b6122db816122c0565b82525050565b600082825260208201905092915050565b60006122fd82612120565b61230781856122e1565b935061231781856020860161213c565b61232081611f40565b840191505092915050565b6000819050919050565b61233e8161232b565b82525050565b600060608201905061235960008301866122d2565b818103602083015261236b81856122f2565b905061237a6040830184612335565b949350505050565b60006020820190506123976000830184612335565b92915050565b600060208201905081810360008301526123b781846122f2565b905092915050565b60008115159050919050565b6123d4816123bf565b82525050565b60006040820190506123ef60008301856123cb565b6123fc60208301846123cb565b9392505050565b7f43616e64696461746520697320616c7265647920726567697374726572642e00600082015250565b6000612439601f836122e1565b915061244482612403565b602082019050919050565b600060208201905081810360008301526124688161242c565b9050919050565b7f4e487b7100000000000000000000000000000000000000000000000000000000600052603260045260246000fd5b7f4e487b7100000000000000000000000000000000000000000000000000000000600052602260045260246000fd5b600060028204905060018216806124e557607f821691505b6020821081036124f8576124f761249e565b5b50919050565b600081905092915050565b7f2000000000000000000000000000000000000000000000000000000000000000600082015250565b600061253f6001836124fe565b915061254a82612509565b600182019050919050565b600061256082612120565b61256a81856124fe565b935061257a81856020860161213c565b80840191505092915050565b7f2028000000000000000000000000000000000000000000000000000000000000600082015250565b60006125bc6002836124fe565b91506125c782612586565b600282019050919050565b7f2900000000000000000000000000000000000000000000000000000000000000600082015250565b60006126086001836124fe565b9150612613826125d2565b600182019050919050565b600061262982612532565b91506126358285612555565b9150612640826125af565b915061264c8284612555565b9150612657826125fb565b91508190509392505050565b7f4e487b7100000000000000000000000000000000000000000000000000000000600052601160045260246000fd5b600061269d8261232b565b91507fffffffffffffffffffffffffffffffffffffffffffffffffffffffffffffffff82036126cf576126ce612663565b5b600182019050919050565b7f4944206e6f7420666f756e640000000000000000000000000000000000000000600082015250565b6000612710600c836122e1565b915061271b826126da565b602082019050919050565b6000602082019050818103600083015261273f81612703565b9050919050565b7f4f6e6c792061646d696e2063616e20706572666f726d2074686973206163746960008201527f6f6e000000000000000000000000000000000000000000000000000000000000602082015250565b60006127a26022836122e1565b91506127ad82612746565b604082019050919050565b600060208201905081810360008301526127d181612795565b9050919050565b7f456c656374696f6e20696e2070726f67726573732e2e2e000000000000000000600082015250565b600061280e6017836122e1565b9150612819826127d8565b602082019050919050565b6000602082019050818103600083015261283d81612801565b9050919050565b7f456c656374696f6e20686173206e6f7420737461727465640000000000000000600082015250565b600061287a6018836122e1565b915061288582612844565b602082019050919050565b600060208201905081810360008301526128a98161286d565b9050919050565b7f456c656374696f6e2068617320616c726561647920656e646564000000000000600082015250565b60006128e6601a836122e1565b91506128f1826128b0565b602082019050919050565b60006020820190508181036000830152612915816128d9565b9050919050565b60008190508160005260206000209050919050565b60006020601f8301049050919050565b600082821b905092915050565b60006008830261297e7fffffffffffffffffffffffffffffffffffffffffffffffffffffffffffffffff82612941565b6129888683612941565b95508019841693508086168417925050509392505050565b6000819050919050565b60006129c56129c06129bb8461232b565b6129a0565b61232b565b9050919050565b6000819050919050565b6129df836129aa565b6129f36129eb826129cc565b84845461294e565b825550505050565b600090565b612a086129fb565b612a138184846129d6565b505050565b5b81811015612a3757612a2c600082612a00565b600181019050612a19565b5050565b601f821115612a7c57612a4d8161291c565b612a5684612931565b81016020851015612a65578190505b612a79612a7185612931565b830182612a18565b50505b505050565b600082821c905092915050565b6000612a9f60001984600802612a81565b1980831691505092915050565b6000612ab88383612a8e565b9150826002028217905092915050565b612ad182612120565b67ffffffffffffffff811115612aea57612ae9611f51565b5b612af482546124cd565b612aff828285612a3b565b600060209050601f831160018114612b325760008415612b20578287015190505b612b2a8582612aac565b865550612b92565b601f198416612b408661291c565b60005b82811015612b6857848901518255600182019150602085019450602081019050612b43565b86831015612b855784890151612b81601f891682612a8e565b8355505b6001600288020188555050505b505050505050565b7f43616e64696461746520696e646578206f7574206f662072616e676500000000600082015250565b6000612bd0601c836122e1565b9150612bdb82612b9a565b602082019050919050565b60006020820190508181036000830152612bff81612bc3565b9050919050565b6000612c128284612555565b915081905092915050565b7f496e76616c696420696e707574206c656e677468000000000000000000000000600082015250565b6000612c536014836122e1565b9150612c5e82612c1d565b602082019050919050565b60006020820190508181036000830152612c8281612c46565b9050919050565b600060ff82169050919050565b6000612ca182612c89565b9150612cac83612c89565b9250828203905060ff811115612cc557612cc4612663565b5b92915050565b7f496e76616c69642063686172616374657220696e20696e707574000000000000600082015250565b6000612d01601a836122e1565b9150612d0c82612ccb565b602082019050919050565b60006020820190508181036000830152612d3081612cf4565b9050919050565b6000612d428261232b565b9150612d4d8361232b565b9250828202612d5b8161232b565b91508282048414831517612d7257612d71612663565b5b5092915050565b6000612d848261232b565b9150612d8f8361232b565b9250828201905080821115612da757612da6612663565b5b92915050565b7f596f75206861766520616c726561647920766f74656400000000000000000000600082015250565b6000612de36016836122e1565b9150612dee82612dad565b602082019050919050565b60006020820190508181036000830152612e1281612dd6565b9050919050565b7f596f7520617265206e6f74207265676973746572656420766f74657200000000600082015250565b6000612e4f601c836122e1565b9150612e5a82612e19565b602082019050919050565b60006020820190508181036000830152612e7e81612e42565b9050919050565b7f43616e646964617465206973206e6f7420726567697374657265640000000000600082015250565b6000612ebb601b836122e1565b9150612ec682612e85565b602082019050919050565b60006020820190508181036000830152612eea81612eae565b9050919050565b6000612efc8261232b565b9150612f078361232b565b9250828203905081811115612f1f57612f1e612663565b5b92915050565b7f43686f6f736520446966666572656e74204e616d652e2e2e0000000000000000600082015250565b6000612f5b6018836122e1565b9150612f6682612f25565b602082019050919050565b60006020820190508181036000830152612f8a81612f4e565b905091905056fea264697066735822122000f11915fb1435978948c8210e5e94e5852c479356c108c7196eafbaa35793d064736f6c63430008120033",
					"opcodes": "PUSH1 0x80 PUSH1 0x40 MSTORE CALLVALUE DUP1 ISZERO PUSH2 0x10 JUMPI PUSH1 0x0 DUP1 REVERT JUMPDEST POP CALLER PUSH1 0x0 DUP1 PUSH2 0x100 EXP DUP2 SLOAD DUP2 PUSH20 0xFFFFFFFFFFFFFFFFFFFFFFFFFFFFFFFFFFFFFFFF MUL NOT AND SWAP1 DUP4 PUSH20 0xFFFFFFFFFFFFFFFFFFFFFFFFFFFFFFFFFFFFFFFF AND MUL OR SWAP1 SSTORE POP PUSH2 0x2FC7 DUP1 PUSH2 0x60 PUSH1 0x0 CODECOPY PUSH1 0x0 RETURN INVALID PUSH1 0x80 PUSH1 0x40 MSTORE CALLVALUE DUP1 ISZERO PUSH2 0x10 JUMPI PUSH1 0x0 DUP1 REVERT JUMPDEST POP PUSH1 0x4 CALLDATASIZE LT PUSH2 0x9E JUMPI PUSH1 0x0 CALLDATALOAD PUSH1 0xE0 SHR DUP1 PUSH4 0x66444E86 GT PUSH2 0x66 JUMPI DUP1 PUSH4 0x66444E86 EQ PUSH2 0x123 JUMPI DUP1 PUSH4 0x78668658 EQ PUSH2 0x141 JUMPI DUP1 PUSH4 0xB2B98ED2 EQ PUSH2 0x14B JUMPI DUP1 PUSH4 0xF342C4DE EQ PUSH2 0x169 JUMPI DUP1 PUSH4 0xF526DAB4 EQ PUSH2 0x188 JUMPI PUSH2 0x9E JUMP JUMPDEST DUP1 PUSH4 0x4B8789B EQ PUSH2 0xA3 JUMPI DUP1 PUSH4 0x1231F78E EQ PUSH2 0xBF JUMPI DUP1 PUSH4 0x567484EE EQ PUSH2 0xDD JUMPI DUP1 PUSH4 0x59F78468 EQ PUSH2 0x10F JUMPI DUP1 PUSH4 0x62D73EB8 EQ PUSH2 0x119 JUMPI JUMPDEST PUSH1 0x0 DUP1 REVERT JUMPDEST PUSH2 0xBD PUSH1 0x4 DUP1 CALLDATASIZE SUB DUP2 ADD SWAP1 PUSH2 0xB8 SWAP2 SWAP1 PUSH2 0x207C JUMP JUMPDEST PUSH2 0x1A4 JUMP JUMPDEST STOP JUMPDEST PUSH2 0xC7 PUSH2 0x240 JUMP JUMPDEST PUSH1 0x40 MLOAD PUSH2 0xD4 SWAP2 SWAP1 PUSH2 0x2235 JUMP JUMPDEST PUSH1 0x40 MLOAD DUP1 SWAP2 SUB SWAP1 RETURN JUMPDEST PUSH2 0xF7 PUSH1 0x4 DUP1 CALLDATASIZE SUB DUP2 ADD SWAP1 PUSH2 0xF2 SWAP2 SWAP1 PUSH2 0x2257 JUMP JUMPDEST PUSH2 0x559 JUMP JUMPDEST PUSH1 0x40 MLOAD PUSH2 0x106 SWAP4 SWAP3 SWAP2 SWAP1 PUSH2 0x2344 JUMP JUMPDEST PUSH1 0x40 MLOAD DUP1 SWAP2 SUB SWAP1 RETURN JUMPDEST PUSH2 0x117 PUSH2 0x885 JUMP JUMPDEST STOP JUMPDEST PUSH2 0x121 PUSH2 0x930 JUMP JUMPDEST STOP JUMPDEST PUSH2 0x12B PUSH2 0x9F5 JUMP JUMPDEST PUSH1 0x40 MLOAD PUSH2 0x138 SWAP2 SWAP1 PUSH2 0x2382 JUMP JUMPDEST PUSH1 0x40 MLOAD DUP1 SWAP2 SUB SWAP1 RETURN JUMPDEST PUSH2 0x149 PUSH2 0xAC6 JUMP JUMPDEST STOP JUMPDEST PUSH2 0x153 PUSH2 0xB20 JUMP JUMPDEST PUSH1 0x40 MLOAD PUSH2 0x160 SWAP2 SWAP1 PUSH2 0x239D JUMP JUMPDEST PUSH1 0x40 MLOAD DUP1 SWAP2 SUB SWAP1 RETURN JUMPDEST PUSH2 0x171 PUSH2 0xEA1 JUMP JUMPDEST PUSH1 0x40 MLOAD PUSH2 0x17F SWAP3 SWAP2 SWAP1 PUSH2 0x23DA JUMP JUMPDEST PUSH1 0x40 MLOAD DUP1 SWAP2 SUB SWAP1 RETURN JUMPDEST PUSH2 0x1A2 PUSH1 0x4 DUP1 CALLDATASIZE SUB DUP2 ADD SWAP1 PUSH2 0x19D SWAP2 SWAP1 PUSH2 0x2257 JUMP JUMPDEST PUSH2 0xF46 JUMP JUMPDEST STOP JUMPDEST PUSH1 0x4 PUSH1 0x0 CALLER PUSH20 0xFFFFFFFFFFFFFFFFFFFFFFFFFFFFFFFFFFFFFFFF AND PUSH20 0xFFFFFFFFFFFFFFFFFFFFFFFFFFFFFFFFFFFFFFFF AND DUP2 MSTORE PUSH1 0x20 ADD SWAP1 DUP2 MSTORE PUSH1 0x20 ADD PUSH1 0x0 KECCAK256 PUSH1 0x0 SWAP1 SLOAD SWAP1 PUSH2 0x100 EXP SWAP1 DIV PUSH1 0xFF AND ISZERO PUSH2 0x231 JUMPI PUSH1 0x40 MLOAD PUSH32 0x8C379A000000000000000000000000000000000000000000000000000000000 DUP2 MSTORE PUSH1 0x4 ADD PUSH2 0x228 SWAP1 PUSH2 0x244F JUMP JUMPDEST PUSH1 0x40 MLOAD DUP1 SWAP2 SUB SWAP1 REVERT JUMPDEST PUSH2 0x23C CALLER DUP4 DUP4 PUSH2 0x1027 JUMP JUMPDEST POP POP JUMP JUMPDEST PUSH1 0x60 PUSH1 0x0 PUSH1 0x1 DUP1 SLOAD SWAP1 POP PUSH8 0xFFFFFFFFFFFFFFFF DUP2 GT ISZERO PUSH2 0x263 JUMPI PUSH2 0x262 PUSH2 0x1F51 JUMP JUMPDEST JUMPDEST PUSH1 0x40 MLOAD SWAP1 DUP1 DUP3 MSTORE DUP1 PUSH1 0x20 MUL PUSH1 0x20 ADD DUP3 ADD PUSH1 0x40 MSTORE DUP1 ISZERO PUSH2 0x296 JUMPI DUP2 PUSH1 0x20 ADD JUMPDEST PUSH1 0x60 DUP2 MSTORE PUSH1 0x20 ADD SWAP1 PUSH1 0x1 SWAP1 SUB SWAP1 DUP2 PUSH2 0x281 JUMPI SWAP1 POP JUMPDEST POP SWAP1 POP PUSH1 0x0 JUMPDEST PUSH1 0x1 DUP1 SLOAD SWAP1 POP DUP2 LT ISZERO PUSH2 0x551 JUMPI PUSH1 0x0 PUSH1 0x5 PUSH1 0x0 PUSH1 0x1 DUP5 DUP2 SLOAD DUP2 LT PUSH2 0x2C3 JUMPI PUSH2 0x2C2 PUSH2 0x246F JUMP JUMPDEST JUMPDEST SWAP1 PUSH1 0x0 MSTORE PUSH1 0x20 PUSH1 0x0 KECCAK256 ADD PUSH1 0x0 SWAP1 SLOAD SWAP1 PUSH2 0x100 EXP SWAP1 DIV PUSH20 0xFFFFFFFFFFFFFFFFFFFFFFFFFFFFFFFFFFFFFFFF AND PUSH20 0xFFFFFFFFFFFFFFFFFFFFFFFFFFFFFFFFFFFFFFFF AND PUSH20 0xFFFFFFFFFFFFFFFFFFFFFFFFFFFFFFFFFFFFFFFF AND DUP2 MSTORE PUSH1 0x20 ADD SWAP1 DUP2 MSTORE PUSH1 0x20 ADD PUSH1 0x0 KECCAK256 PUSH1 0x40 MLOAD DUP1 PUSH1 0x80 ADD PUSH1 0x40 MSTORE SWAP1 DUP2 PUSH1 0x0 DUP3 ADD DUP1 SLOAD PUSH2 0x343 SWAP1 PUSH2 0x24CD JUMP JUMPDEST DUP1 PUSH1 0x1F ADD PUSH1 0x20 DUP1 SWAP2 DIV MUL PUSH1 0x20 ADD PUSH1 0x40 MLOAD SWAP1 DUP2 ADD PUSH1 0x40 MSTORE DUP1 SWAP3 SWAP2 SWAP1 DUP2 DUP2 MSTORE PUSH1 0x20 ADD DUP3 DUP1 SLOAD PUSH2 0x36F SWAP1 PUSH2 0x24CD JUMP JUMPDEST DUP1 ISZERO PUSH2 0x3BC JUMPI DUP1 PUSH1 0x1F LT PUSH2 0x391 JUMPI PUSH2 0x100 DUP1 DUP4 SLOAD DIV MUL DUP4 MSTORE SWAP2 PUSH1 0x20 ADD SWAP2 PUSH2 0x3BC JUMP JUMPDEST DUP3 ADD SWAP2 SWAP1 PUSH1 0x0 MSTORE PUSH1 0x20 PUSH1 0x0 KECCAK256 SWAP1 JUMPDEST DUP2 SLOAD DUP2 MSTORE SWAP1 PUSH1 0x1 ADD SWAP1 PUSH1 0x20 ADD DUP1 DUP4 GT PUSH2 0x39F JUMPI DUP3 SWAP1 SUB PUSH1 0x1F AND DUP3 ADD SWAP2 JUMPDEST POP POP POP POP POP DUP2 MSTORE PUSH1 0x20 ADD PUSH1 0x1 DUP3 ADD DUP1 SLOAD PUSH2 0x3D5 SWAP1 PUSH2 0x24CD JUMP JUMPDEST DUP1 PUSH1 0x1F ADD PUSH1 0x20 DUP1 SWAP2 DIV MUL PUSH1 0x20 ADD PUSH1 0x40 MLOAD SWAP1 DUP2 ADD PUSH1 0x40 MSTORE DUP1 SWAP3 SWAP2 SWAP1 DUP2 DUP2 MSTORE PUSH1 0x20 ADD DUP3 DUP1 SLOAD PUSH2 0x401 SWAP1 PUSH2 0x24CD JUMP JUMPDEST DUP1 ISZERO PUSH2 0x44E JUMPI DUP1 PUSH1 0x1F LT PUSH2 0x423 JUMPI PUSH2 0x100 DUP1 DUP4 SLOAD DIV MUL DUP4 MSTORE SWAP2 PUSH1 0x20 ADD SWAP2 PUSH2 0x44E JUMP JUMPDEST DUP3 ADD SWAP2 SWAP1 PUSH1 0x0 MSTORE PUSH1 0x20 PUSH1 0x0 KECCAK256 SWAP1 JUMPDEST DUP2 SLOAD DUP2 MSTORE SWAP1 PUSH1 0x1 ADD SWAP1 PUSH1 0x20 ADD DUP1 DUP4 GT PUSH2 0x431 JUMPI DUP3 SWAP1 SUB PUSH1 0x1F AND DUP3 ADD SWAP2 JUMPDEST POP POP POP POP POP DUP2 MSTORE PUSH1 0x20 ADD PUSH1 0x2 DUP3 ADD DUP1 SLOAD PUSH2 0x467 SWAP1 PUSH2 0x24CD JUMP JUMPDEST DUP1 PUSH1 0x1F ADD PUSH1 0x20 DUP1 SWAP2 DIV MUL PUSH1 0x20 ADD PUSH1 0x40 MLOAD SWAP1 DUP2 ADD PUSH1 0x40 MSTORE DUP1 SWAP3 SWAP2 SWAP1 DUP2 DUP2 MSTORE PUSH1 0x20 ADD DUP3 DUP1 SLOAD PUSH2 0x493 SWAP1 PUSH2 0x24CD JUMP JUMPDEST DUP1 ISZERO PUSH2 0x4E0 JUMPI DUP1 PUSH1 0x1F LT PUSH2 0x4B5 JUMPI PUSH2 0x100 DUP1 DUP4 SLOAD DIV MUL DUP4 MSTORE SWAP2 PUSH1 0x20 ADD SWAP2 PUSH2 0x4E0 JUMP JUMPDEST DUP3 ADD SWAP2 SWAP1 PUSH1 0x0 MSTORE PUSH1 0x20 PUSH1 0x0 KECCAK256 SWAP1 JUMPDEST DUP2 SLOAD DUP2 MSTORE SWAP1 PUSH1 0x1 ADD SWAP1 PUSH1 0x20 ADD DUP1 DUP4 GT PUSH2 0x4C3 JUMPI DUP3 SWAP1 SUB PUSH1 0x1F AND DUP3 ADD SWAP2 JUMPDEST POP POP POP POP POP DUP2 MSTORE PUSH1 0x20 ADD PUSH1 0x3 DUP3 ADD SLOAD DUP2 MSTORE POP POP SWAP1 POP DUP1 PUSH1 0x0 ADD MLOAD DUP2 PUSH1 0x20 ADD MLOAD PUSH1 0x40 MLOAD PUSH1 0x20 ADD PUSH2 0x510 SWAP3 SWAP2 SWAP1 PUSH2 0x261E JUMP JUMPDEST PUSH1 0x40 MLOAD PUSH1 0x20 DUP2 DUP4 SUB SUB DUP2 MSTORE SWAP1 PUSH1 0x40 MSTORE DUP4 DUP4 DUP2 MLOAD DUP2 LT PUSH2 0x532 JUMPI PUSH2 0x531 PUSH2 0x246F JUMP JUMPDEST JUMPDEST PUSH1 0x20 MUL PUSH1 0x20 ADD ADD DUP2 SWAP1 MSTORE POP POP DUP1 DUP1 PUSH2 0x549 SWAP1 PUSH2 0x2692 JUMP JUMPDEST SWAP2 POP POP PUSH2 0x29C JUMP JUMPDEST POP DUP1 SWAP2 POP POP SWAP1 JUMP JUMPDEST PUSH1 0x0 PUSH1 0x60 PUSH1 0x0 DUP1 PUSH2 0x568 PUSH2 0x9F5 JUMP JUMPDEST SWAP1 POP PUSH1 0x0 JUMPDEST DUP2 DUP2 LT ISZERO PUSH2 0x842 JUMPI PUSH2 0x587 DUP7 PUSH2 0x582 DUP4 PUSH2 0x119F JUMP JUMPDEST PUSH2 0x1441 JUMP JUMPDEST ISZERO PUSH2 0x82F JUMPI PUSH1 0x0 PUSH1 0x5 PUSH1 0x0 PUSH1 0x1 DUP5 DUP2 SLOAD DUP2 LT PUSH2 0x5A6 JUMPI PUSH2 0x5A5 PUSH2 0x246F JUMP JUMPDEST JUMPDEST SWAP1 PUSH1 0x0 MSTORE PUSH1 0x20 PUSH1 0x0 KECCAK256 ADD PUSH1 0x0 SWAP1 SLOAD SWAP1 PUSH2 0x100 EXP SWAP1 DIV PUSH20 0xFFFFFFFFFFFFFFFFFFFFFFFFFFFFFFFFFFFFFFFF AND PUSH20 0xFFFFFFFFFFFFFFFFFFFFFFFFFFFFFFFFFFFFFFFF AND PUSH20 0xFFFFFFFFFFFFFFFFFFFFFFFFFFFFFFFFFFFFFFFF AND DUP2 MSTORE PUSH1 0x20 ADD SWAP1 DUP2 MSTORE PUSH1 0x20 ADD PUSH1 0x0 KECCAK256 PUSH1 0x40 MLOAD DUP1 PUSH1 0x80 ADD PUSH1 0x40 MSTORE SWAP1 DUP2 PUSH1 0x0 DUP3 ADD DUP1 SLOAD PUSH2 0x626 SWAP1 PUSH2 0x24CD JUMP JUMPDEST DUP1 PUSH1 0x1F ADD PUSH1 0x20 DUP1 SWAP2 DIV MUL PUSH1 0x20 ADD PUSH1 0x40 MLOAD SWAP1 DUP2 ADD PUSH1 0x40 MSTORE DUP1 SWAP3 SWAP2 SWAP1 DUP2 DUP2 MSTORE PUSH1 0x20 ADD DUP3 DUP1 SLOAD PUSH2 0x652 SWAP1 PUSH2 0x24CD JUMP JUMPDEST DUP1 ISZERO PUSH2 0x69F JUMPI DUP1 PUSH1 0x1F LT PUSH2 0x674 JUMPI PUSH2 0x100 DUP1 DUP4 SLOAD DIV MUL DUP4 MSTORE SWAP2 PUSH1 0x20 ADD SWAP2 PUSH2 0x69F JUMP JUMPDEST DUP3 ADD SWAP2 SWAP1 PUSH1 0x0 MSTORE PUSH1 0x20 PUSH1 0x0 KECCAK256 SWAP1 JUMPDEST DUP2 SLOAD DUP2 MSTORE SWAP1 PUSH1 0x1 ADD SWAP1 PUSH1 0x20 ADD DUP1 DUP4 GT PUSH2 0x682 JUMPI DUP3 SWAP1 SUB PUSH1 0x1F AND DUP3 ADD SWAP2 JUMPDEST POP POP POP POP POP DUP2 MSTORE PUSH1 0x20 ADD PUSH1 0x1 DUP3 ADD DUP1 SLOAD PUSH2 0x6B8 SWAP1 PUSH2 0x24CD JUMP JUMPDEST DUP1 PUSH1 0x1F ADD PUSH1 0x20 DUP1 SWAP2 DIV MUL PUSH1 0x20 ADD PUSH1 0x40 MLOAD SWAP1 DUP2 ADD PUSH1 0x40 MSTORE DUP1 SWAP3 SWAP2 SWAP1 DUP2 DUP2 MSTORE PUSH1 0x20 ADD DUP3 DUP1 SLOAD PUSH2 0x6E4 SWAP1 PUSH2 0x24CD JUMP JUMPDEST DUP1 ISZERO PUSH2 0x731 JUMPI DUP1 PUSH1 0x1F LT PUSH2 0x706 JUMPI PUSH2 0x100 DUP1 DUP4 SLOAD DIV MUL DUP4 MSTORE SWAP2 PUSH1 0x20 ADD SWAP2 PUSH2 0x731 JUMP JUMPDEST DUP3 ADD SWAP2 SWAP1 PUSH1 0x0 MSTORE PUSH1 0x20 PUSH1 0x0 KECCAK256 SWAP1 JUMPDEST DUP2 SLOAD DUP2 MSTORE SWAP1 PUSH1 0x1 ADD SWAP1 PUSH1 0x20 ADD DUP1 DUP4 GT PUSH2 0x714 JUMPI DUP3 SWAP1 SUB PUSH1 0x1F AND DUP3 ADD SWAP2 JUMPDEST POP POP POP POP POP DUP2 MSTORE PUSH1 0x20 ADD PUSH1 0x2 DUP3 ADD DUP1 SLOAD PUSH2 0x74A SWAP1 PUSH2 0x24CD JUMP JUMPDEST DUP1 PUSH1 0x1F ADD PUSH1 0x20 DUP1 SWAP2 DIV MUL PUSH1 0x20 ADD PUSH1 0x40 MLOAD SWAP1 DUP2 ADD PUSH1 0x40 MSTORE DUP1 SWAP3 SWAP2 SWAP1 DUP2 DUP2 MSTORE PUSH1 0x20 ADD DUP3 DUP1 SLOAD PUSH2 0x776 SWAP1 PUSH2 0x24CD JUMP JUMPDEST DUP1 ISZERO PUSH2 0x7C3 JUMPI DUP1 PUSH1 0x1F LT PUSH2 0x798 JUMPI PUSH2 0x100 DUP1 DUP4 SLOAD DIV MUL DUP4 MSTORE SWAP2 PUSH1 0x20 ADD SWAP2 PUSH2 0x7C3 JUMP JUMPDEST DUP3 ADD SWAP2 SWAP1 PUSH1 0x0 MSTORE PUSH1 0x20 PUSH1 0x0 KECCAK256 SWAP1 JUMPDEST DUP2 SLOAD DUP2 MSTORE SWAP1 PUSH1 0x1 ADD SWAP1 PUSH1 0x20 ADD DUP1 DUP4 GT PUSH2 0x7A6 JUMPI DUP3 SWAP1 SUB PUSH1 0x1F AND DUP3 ADD SWAP2 JUMPDEST POP POP POP POP POP DUP2 MSTORE PUSH1 0x20 ADD PUSH1 0x3 DUP3 ADD SLOAD DUP2 MSTORE POP POP SWAP1 POP PUSH1 0x1 DUP3 DUP2 SLOAD DUP2 LT PUSH2 0x7EC JUMPI PUSH2 0x7EB PUSH2 0x246F JUMP JUMPDEST JUMPDEST SWAP1 PUSH1 0x0 MSTORE PUSH1 0x20 PUSH1 0x0 KECCAK256 ADD PUSH1 0x0 SWAP1 SLOAD SWAP1 PUSH2 0x100 EXP SWAP1 DIV PUSH20 0xFFFFFFFFFFFFFFFFFFFFFFFFFFFFFFFFFFFFFFFF AND DUP2 PUSH1 0x0 ADD MLOAD DUP3 PUSH1 0x60 ADD MLOAD SWAP6 POP SWAP6 POP SWAP6 POP POP POP POP PUSH2 0x87E JUMP JUMPDEST DUP1 DUP1 PUSH2 0x83A SWAP1 PUSH2 0x2692 JUMP JUMPDEST SWAP2 POP POP PUSH2 0x56D JUMP JUMPDEST POP PUSH1 0x40 MLOAD PUSH32 0x8C379A000000000000000000000000000000000000000000000000000000000 DUP2 MSTORE PUSH1 0x4 ADD PUSH2 0x875 SWAP1 PUSH2 0x2726 JUMP JUMPDEST PUSH1 0x40 MLOAD DUP1 SWAP2 SUB SWAP1 REVERT JUMPDEST SWAP2 SWAP4 SWAP1 SWAP3 POP JUMP JUMPDEST PUSH1 0x0 DUP1 SLOAD SWAP1 PUSH2 0x100 EXP SWAP1 DIV PUSH20 0xFFFFFFFFFFFFFFFFFFFFFFFFFFFFFFFFFFFFFFFF AND PUSH20 0xFFFFFFFFFFFFFFFFFFFFFFFFFFFFFFFFFFFFFFFF AND CALLER PUSH20 0xFFFFFFFFFFFFFFFFFFFFFFFFFFFFFFFFFFFFFFFF AND EQ PUSH2 0x913 JUMPI PUSH1 0x40 MLOAD PUSH32 0x8C379A000000000000000000000000000000000000000000000000000000000 DUP2 MSTORE PUSH1 0x4 ADD PUSH2 0x90A SWAP1 PUSH2 0x27B8 JUMP JUMPDEST PUSH1 0x40 MLOAD DUP1 SWAP2 SUB SWAP1 REVERT JUMPDEST PUSH1 0x1 PUSH1 0x0 PUSH1 0x15 PUSH2 0x100 EXP DUP2 SLOAD DUP2 PUSH1 0xFF MUL NOT AND SWAP1 DUP4 ISZERO ISZERO MUL OR SWAP1 SSTORE POP JUMP JUMPDEST PUSH1 0x0 DUP1 SLOAD SWAP1 PUSH2 0x100 EXP SWAP1 DIV PUSH20 0xFFFFFFFFFFFFFFFFFFFFFFFFFFFFFFFFFFFFFFFF AND PUSH20 0xFFFFFFFFFFFFFFFFFFFFFFFFFFFFFFFFFFFFFFFF AND CALLER PUSH20 0xFFFFFFFFFFFFFFFFFFFFFFFFFFFFFFFFFFFFFFFF AND EQ PUSH2 0x9BE JUMPI PUSH1 0x40 MLOAD PUSH32 0x8C379A000000000000000000000000000000000000000000000000000000000 DUP2 MSTORE PUSH1 0x4 ADD PUSH2 0x9B5 SWAP1 PUSH2 0x27B8 JUMP JUMPDEST PUSH1 0x40 MLOAD DUP1 SWAP2 SUB SWAP1 REVERT JUMPDEST PUSH1 0x1 PUSH1 0x0 PUSH1 0x14 PUSH2 0x100 EXP DUP2 SLOAD DUP2 PUSH1 0xFF MUL NOT AND SWAP1 DUP4 ISZERO ISZERO MUL OR SWAP1 SSTORE POP PUSH1 0x0 DUP1 PUSH1 0x15 PUSH2 0x100 EXP DUP2 SLOAD DUP2 PUSH1 0xFF MUL NOT AND SWAP1 DUP4 ISZERO ISZERO MUL OR SWAP1 SSTORE POP JUMP JUMPDEST PUSH1 0x0 DUP1 PUSH1 0x0 SWAP1 POP PUSH1 0x0 JUMPDEST PUSH1 0x1 DUP1 SLOAD SWAP1 POP DUP2 LT ISZERO PUSH2 0xABE JUMPI PUSH1 0x4 PUSH1 0x0 PUSH1 0x1 DUP4 DUP2 SLOAD DUP2 LT PUSH2 0xA24 JUMPI PUSH2 0xA23 PUSH2 0x246F JUMP JUMPDEST JUMPDEST SWAP1 PUSH1 0x0 MSTORE PUSH1 0x20 PUSH1 0x0 KECCAK256 ADD PUSH1 0x0 SWAP1 SLOAD SWAP1 PUSH2 0x100 EXP SWAP1 DIV PUSH20 0xFFFFFFFFFFFFFFFFFFFFFFFFFFFFFFFFFFFFFFFF AND PUSH20 0xFFFFFFFFFFFFFFFFFFFFFFFFFFFFFFFFFFFFFFFF AND PUSH20 0xFFFFFFFFFFFFFFFFFFFFFFFFFFFFFFFFFFFFFFFF AND DUP2 MSTORE PUSH1 0x20 ADD SWAP1 DUP2 MSTORE PUSH1 0x20 ADD PUSH1 0x0 KECCAK256 PUSH1 0x0 SWAP1 SLOAD SWAP1 PUSH2 0x100 EXP SWAP1 DIV PUSH1 0xFF AND ISZERO PUSH2 0xAAB JUMPI DUP2 DUP1 PUSH2 0xAA7 SWAP1 PUSH2 0x2692 JUMP JUMPDEST SWAP3 POP POP JUMPDEST DUP1 DUP1 PUSH2 0xAB6 SWAP1 PUSH2 0x2692 JUMP JUMPDEST SWAP2 POP POP PUSH2 0x9FF JUMP JUMPDEST POP DUP1 SWAP2 POP POP SWAP1 JUMP JUMPDEST PUSH1 0x1 PUSH1 0x2 PUSH1 0x0 CALLER PUSH20 0xFFFFFFFFFFFFFFFFFFFFFFFFFFFFFFFFFFFFFFFF AND PUSH20 0xFFFFFFFFFFFFFFFFFFFFFFFFFFFFFFFFFFFFFFFF AND DUP2 MSTORE PUSH1 0x20 ADD SWAP1 DUP2 MSTORE PUSH1 0x20 ADD PUSH1 0x0 KECCAK256 PUSH1 0x0 PUSH2 0x100 EXP DUP2 SLOAD DUP2 PUSH1 0xFF MUL NOT AND SWAP1 DUP4 ISZERO ISZERO MUL OR SWAP1 SSTORE POP JUMP JUMPDEST PUSH1 0x60 PUSH1 0x0 PUSH1 0x15 SWAP1 SLOAD SWAP1 PUSH2 0x100 EXP SWAP1 DIV PUSH1 0xFF AND PUSH2 0xB71 JUMPI PUSH1 0x40 MLOAD PUSH32 0x8C379A000000000000000000000000000000000000000000000000000000000 DUP2 MSTORE PUSH1 0x4 ADD PUSH2 0xB68 SWAP1 PUSH2 0x2824 JUMP JUMPDEST PUSH1 0x40 MLOAD DUP1 SWAP2 SUB SWAP1 REVERT JUMPDEST PUSH1 0x0 DUP1 DUP1 PUSH1 0x0 SWAP1 POP PUSH1 0x0 JUMPDEST PUSH1 0x1 DUP1 SLOAD SWAP1 POP DUP2 LT ISZERO PUSH2 0xD84 JUMPI DUP4 PUSH1 0x5 PUSH1 0x0 PUSH1 0x1 DUP5 DUP2 SLOAD DUP2 LT PUSH2 0xBA2 JUMPI PUSH2 0xBA1 PUSH2 0x246F JUMP JUMPDEST JUMPDEST SWAP1 PUSH1 0x0 MSTORE PUSH1 0x20 PUSH1 0x0 KECCAK256 ADD PUSH1 0x0 SWAP1 SLOAD SWAP1 PUSH2 0x100 EXP SWAP1 DIV PUSH20 0xFFFFFFFFFFFFFFFFFFFFFFFFFFFFFFFFFFFFFFFF AND PUSH20 0xFFFFFFFFFFFFFFFFFFFFFFFFFFFFFFFFFFFFFFFF AND PUSH20 0xFFFFFFFFFFFFFFFFFFFFFFFFFFFFFFFFFFFFFFFF AND DUP2 MSTORE PUSH1 0x20 ADD SWAP1 DUP2 MSTORE PUSH1 0x20 ADD PUSH1 0x0 KECCAK256 PUSH1 0x3 ADD SLOAD GT ISZERO PUSH2 0xCDA JUMPI PUSH1 0x5 PUSH1 0x0 PUSH1 0x1 DUP4 DUP2 SLOAD DUP2 LT PUSH2 0xC29 JUMPI PUSH2 0xC28 PUSH2 0x246F JUMP JUMPDEST JUMPDEST SWAP1 PUSH1 0x0 MSTORE PUSH1 0x20 PUSH1 0x0 KECCAK256 ADD PUSH1 0x0 SWAP1 SLOAD SWAP1 PUSH2 0x100 EXP SWAP1 DIV PUSH20 0xFFFFFFFFFFFFFFFFFFFFFFFFFFFFFFFFFFFFFFFF AND PUSH20 0xFFFFFFFFFFFFFFFFFFFFFFFFFFFFFFFFFFFFFFFF AND PUSH20 0xFFFFFFFFFFFFFFFFFFFFFFFFFFFFFFFFFFFFFFFF AND DUP2 MSTORE PUSH1 0x20 ADD SWAP1 DUP2 MSTORE PUSH1 0x20 ADD PUSH1 0x0 KECCAK256 PUSH1 0x3 ADD SLOAD SWAP4 POP PUSH1 0x1 DUP2 DUP2 SLOAD DUP2 LT PUSH2 0xCA8 JUMPI PUSH2 0xCA7 PUSH2 0x246F JUMP JUMPDEST JUMPDEST SWAP1 PUSH1 0x0 MSTORE PUSH1 0x20 PUSH1 0x0 KECCAK256 ADD PUSH1 0x0 SWAP1 SLOAD SWAP1 PUSH2 0x100 EXP SWAP1 DIV PUSH20 0xFFFFFFFFFFFFFFFFFFFFFFFFFFFFFFFFFFFFFFFF AND SWAP3 POP PUSH2 0xD71 JUMP JUMPDEST DUP4 PUSH1 0x5 PUSH1 0x0 PUSH1 0x1 DUP5 DUP2 SLOAD DUP2 LT PUSH2 0xCF3 JUMPI PUSH2 0xCF2 PUSH2 0x246F JUMP JUMPDEST JUMPDEST SWAP1 PUSH1 0x0 MSTORE PUSH1 0x20 PUSH1 0x0 KECCAK256 ADD PUSH1 0x0 SWAP1 SLOAD SWAP1 PUSH2 0x100 EXP SWAP1 DIV PUSH20 0xFFFFFFFFFFFFFFFFFFFFFFFFFFFFFFFFFFFFFFFF AND PUSH20 0xFFFFFFFFFFFFFFFFFFFFFFFFFFFFFFFFFFFFFFFF AND PUSH20 0xFFFFFFFFFFFFFFFFFFFFFFFFFFFFFFFFFFFFFFFF AND DUP2 MSTORE PUSH1 0x20 ADD SWAP1 DUP2 MSTORE PUSH1 0x20 ADD PUSH1 0x0 KECCAK256 PUSH1 0x3 ADD SLOAD SUB PUSH2 0xD70 JUMPI DUP2 DUP1 PUSH2 0xD6C SWAP1 PUSH2 0x2692 JUMP JUMPDEST SWAP3 POP POP JUMPDEST JUMPDEST DUP1 DUP1 PUSH2 0xD7C SWAP1 PUSH2 0x2692 JUMP JUMPDEST SWAP2 POP POP PUSH2 0xB7C JUMP JUMPDEST POP PUSH1 0x1 DUP2 LT PUSH2 0xDCD JUMPI PUSH1 0x40 MLOAD DUP1 PUSH1 0x40 ADD PUSH1 0x40 MSTORE DUP1 PUSH1 0x10 DUP2 MSTORE PUSH1 0x20 ADD PUSH32 0x456C656374696F6E20546965642E2E2E00000000000000000000000000000000 DUP2 MSTORE POP SWAP4 POP POP POP POP PUSH2 0xE9E JUMP JUMPDEST PUSH1 0x5 PUSH1 0x0 DUP4 PUSH20 0xFFFFFFFFFFFFFFFFFFFFFFFFFFFFFFFFFFFFFFFF AND PUSH20 0xFFFFFFFFFFFFFFFFFFFFFFFFFFFFFFFFFFFFFFFF AND DUP2 MSTORE PUSH1 0x20 ADD SWAP1 DUP2 MSTORE PUSH1 0x20 ADD PUSH1 0x0 KECCAK256 PUSH1 0x0 ADD DUP1 SLOAD PUSH2 0xE1A SWAP1 PUSH2 0x24CD JUMP JUMPDEST DUP1 PUSH1 0x1F ADD PUSH1 0x20 DUP1 SWAP2 DIV MUL PUSH1 0x20 ADD PUSH1 0x40 MLOAD SWAP1 DUP2 ADD PUSH1 0x40 MSTORE DUP1 SWAP3 SWAP2 SWAP1 DUP2 DUP2 MSTORE PUSH1 0x20 ADD DUP3 DUP1 SLOAD PUSH2 0xE46 SWAP1 PUSH2 0x24CD JUMP JUMPDEST DUP1 ISZERO PUSH2 0xE93 JUMPI DUP1 PUSH1 0x1F LT PUSH2 0xE68 JUMPI PUSH2 0x100 DUP1 DUP4 SLOAD DIV MUL DUP4 MSTORE SWAP2 PUSH1 0x20 ADD SWAP2 PUSH2 0xE93 JUMP JUMPDEST DUP3 ADD SWAP2 SWAP1 PUSH1 0x0 MSTORE PUSH1 0x20 PUSH1 0x0 KECCAK256 SWAP1 JUMPDEST DUP2 SLOAD DUP2 MSTORE SWAP1 PUSH1 0x1 ADD SWAP1 PUSH1 0x20 ADD DUP1 DUP4 GT PUSH2 0xE76 JUMPI DUP3 SWAP1 SUB PUSH1 0x1F AND DUP3 ADD SWAP2 JUMPDEST POP POP POP POP POP SWAP4 POP POP POP POP JUMPDEST SWAP1 JUMP JUMPDEST PUSH1 0x0 DUP1 PUSH1 0x2 PUSH1 0x0 CALLER PUSH20 0xFFFFFFFFFFFFFFFFFFFFFFFFFFFFFFFFFFFFFFFF AND PUSH20 0xFFFFFFFFFFFFFFFFFFFFFFFFFFFFFFFFFFFFFFFF AND DUP2 MSTORE PUSH1 0x20 ADD SWAP1 DUP2 MSTORE PUSH1 0x20 ADD PUSH1 0x0 KECCAK256 PUSH1 0x0 SWAP1 SLOAD SWAP1 PUSH2 0x100 EXP SWAP1 DIV PUSH1 0xFF AND PUSH1 0x3 PUSH1 0x0 CALLER PUSH20 0xFFFFFFFFFFFFFFFFFFFFFFFFFFFFFFFFFFFFFFFF AND PUSH20 0xFFFFFFFFFFFFFFFFFFFFFFFFFFFFFFFFFFFFFFFF AND DUP2 MSTORE PUSH1 0x20 ADD SWAP1 DUP2 MSTORE PUSH1 0x20 ADD PUSH1 0x0 KECCAK256 PUSH1 0x0 SWAP1 SLOAD SWAP1 PUSH2 0x100 EXP SWAP1 DIV PUSH1 0xFF AND SWAP2 POP SWAP2 POP SWAP1 SWAP2 JUMP JUMPDEST PUSH1 0x0 PUSH1 0x14 SWAP1 SLOAD SWAP1 PUSH2 0x100 EXP SWAP1 DIV PUSH1 0xFF AND PUSH2 0xF95 JUMPI PUSH1 0x40 MLOAD PUSH32 0x8C379A000000000000000000000000000000000000000000000000000000000 DUP2 MSTORE PUSH1 0x4 ADD PUSH2 0xF8C SWAP1 PUSH2 0x2890 JUMP JUMPDEST PUSH1 0x40 MLOAD DUP1 SWAP2 SUB SWAP1 REVERT JUMPDEST PUSH1 0x0 PUSH1 0x15 SWAP1 SLOAD SWAP1 PUSH2 0x100 EXP SWAP1 DIV PUSH1 0xFF AND ISZERO PUSH2 0xFE5 JUMPI PUSH1 0x40 MLOAD PUSH32 0x8C379A000000000000000000000000000000000000000000000000000000000 DUP2 MSTORE PUSH1 0x4 ADD PUSH2 0xFDC SWAP1 PUSH2 0x28FC JUMP JUMPDEST PUSH1 0x40 MLOAD DUP1 SWAP2 SUB SWAP1 REVERT JUMPDEST PUSH1 0x2A DUP2 MLOAD SUB PUSH2 0x100A JUMPI PUSH1 0x0 PUSH2 0xFF9 DUP3 PUSH2 0x149A JUMP JUMPDEST SWAP1 POP PUSH2 0x1004 DUP2 PUSH2 0x162E JUMP JUMPDEST POP PUSH2 0x1024 JUMP JUMPDEST PUSH1 0x0 PUSH2 0x1015 DUP3 PUSH2 0x559 JUMP JUMPDEST POP POP SWAP1 POP PUSH2 0x1022 DUP2 PUSH2 0x162E JUMP JUMPDEST POP JUMPDEST POP JUMP JUMPDEST PUSH1 0x1 PUSH1 0x4 PUSH1 0x0 DUP6 PUSH20 0xFFFFFFFFFFFFFFFFFFFFFFFFFFFFFFFFFFFFFFFF AND PUSH20 0xFFFFFFFFFFFFFFFFFFFFFFFFFFFFFFFFFFFFFFFF AND DUP2 MSTORE PUSH1 0x20 ADD SWAP1 DUP2 MSTORE PUSH1 0x20 ADD PUSH1 0x0 KECCAK256 PUSH1 0x0 PUSH2 0x100 EXP DUP2 SLOAD DUP2 PUSH1 0xFF MUL NOT AND SWAP1 DUP4 ISZERO ISZERO MUL OR SWAP1 SSTORE POP PUSH1 0x40 MLOAD DUP1 PUSH1 0x80 ADD PUSH1 0x40 MSTORE DUP1 DUP4 DUP2 MSTORE PUSH1 0x20 ADD PUSH2 0x1099 DUP5 PUSH2 0x1925 JUMP JUMPDEST DUP2 MSTORE PUSH1 0x20 ADD DUP3 DUP2 MSTORE PUSH1 0x20 ADD PUSH1 0x0 DUP2 MSTORE POP PUSH1 0x5 PUSH1 0x0 DUP6 PUSH20 0xFFFFFFFFFFFFFFFFFFFFFFFFFFFFFFFFFFFFFFFF AND PUSH20 0xFFFFFFFFFFFFFFFFFFFFFFFFFFFFFFFFFFFFFFFF AND DUP2 MSTORE PUSH1 0x20 ADD SWAP1 DUP2 MSTORE PUSH1 0x20 ADD PUSH1 0x0 KECCAK256 PUSH1 0x0 DUP3 ADD MLOAD DUP2 PUSH1 0x0 ADD SWAP1 DUP2 PUSH2 0x10FD SWAP2 SWAP1 PUSH2 0x2AC8 JUMP JUMPDEST POP PUSH1 0x20 DUP3 ADD MLOAD DUP2 PUSH1 0x1 ADD SWAP1 DUP2 PUSH2 0x1113 SWAP2 SWAP1 PUSH2 0x2AC8 JUMP JUMPDEST POP PUSH1 0x40 DUP3 ADD MLOAD DUP2 PUSH1 0x2 ADD SWAP1 DUP2 PUSH2 0x1129 SWAP2 SWAP1 PUSH2 0x2AC8 JUMP JUMPDEST POP PUSH1 0x60 DUP3 ADD MLOAD DUP2 PUSH1 0x3 ADD SSTORE SWAP1 POP POP PUSH1 0x1 DUP4 SWAP1 DUP1 PUSH1 0x1 DUP2 SLOAD ADD DUP1 DUP3 SSTORE DUP1 SWAP2 POP POP PUSH1 0x1 SWAP1 SUB SWAP1 PUSH1 0x0 MSTORE PUSH1 0x20 PUSH1 0x0 KECCAK256 ADD PUSH1 0x0 SWAP1 SWAP2 SWAP1 SWAP2 SWAP1 SWAP2 PUSH2 0x100 EXP DUP2 SLOAD DUP2 PUSH20 0xFFFFFFFFFFFFFFFFFFFFFFFFFFFFFFFFFFFFFFFF MUL NOT AND SWAP1 DUP4 PUSH20 0xFFFFFFFFFFFFFFFFFFFFFFFFFFFFFFFFFFFFFFFF AND MUL OR SWAP1 SSTORE POP POP POP POP JUMP JUMPDEST PUSH1 0x60 PUSH1 0x1 DUP1 SLOAD SWAP1 POP DUP3 LT PUSH2 0x11E8 JUMPI PUSH1 0x40 MLOAD PUSH32 0x8C379A000000000000000000000000000000000000000000000000000000000 DUP2 MSTORE PUSH1 0x4 ADD PUSH2 0x11DF SWAP1 PUSH2 0x2BE6 JUMP JUMPDEST PUSH1 0x40 MLOAD DUP1 SWAP2 SUB SWAP1 REVERT JUMPDEST PUSH1 0x0 PUSH1 0x5 PUSH1 0x0 PUSH1 0x1 DUP6 DUP2 SLOAD DUP2 LT PUSH2 0x1202 JUMPI PUSH2 0x1201 PUSH2 0x246F JUMP JUMPDEST JUMPDEST SWAP1 PUSH1 0x0 MSTORE PUSH1 0x20 PUSH1 0x0 KECCAK256 ADD PUSH1 0x0 SWAP1 SLOAD SWAP1 PUSH2 0x100 EXP SWAP1 DIV PUSH20 0xFFFFFFFFFFFFFFFFFFFFFFFFFFFFFFFFFFFFFFFF AND PUSH20 0xFFFFFFFFFFFFFFFFFFFFFFFFFFFFFFFFFFFFFFFF AND PUSH20 0xFFFFFFFFFFFFFFFFFFFFFFFFFFFFFFFFFFFFFFFF AND DUP2 MSTORE PUSH1 0x20 ADD SWAP1 DUP2 MSTORE PUSH1 0x20 ADD PUSH1 0x0 KECCAK256 PUSH1 0x40 MLOAD DUP1 PUSH1 0x80 ADD PUSH1 0x40 MSTORE SWAP1 DUP2 PUSH1 0x0 DUP3 ADD DUP1 SLOAD PUSH2 0x1282 SWAP1 PUSH2 0x24CD JUMP JUMPDEST DUP1 PUSH1 0x1F ADD PUSH1 0x20 DUP1 SWAP2 DIV MUL PUSH1 0x20 ADD PUSH1 0x40 MLOAD SWAP1 DUP2 ADD PUSH1 0x40 MSTORE DUP1 SWAP3 SWAP2 SWAP1 DUP2 DUP2 MSTORE PUSH1 0x20 ADD DUP3 DUP1 SLOAD PUSH2 0x12AE SWAP1 PUSH2 0x24CD JUMP JUMPDEST DUP1 ISZERO PUSH2 0x12FB JUMPI DUP1 PUSH1 0x1F LT PUSH2 0x12D0 JUMPI PUSH2 0x100 DUP1 DUP4 SLOAD DIV MUL DUP4 MSTORE SWAP2 PUSH1 0x20 ADD SWAP2 PUSH2 0x12FB JUMP JUMPDEST DUP3 ADD SWAP2 SWAP1 PUSH1 0x0 MSTORE PUSH1 0x20 PUSH1 0x0 KECCAK256 SWAP1 JUMPDEST DUP2 SLOAD DUP2 MSTORE SWAP1 PUSH1 0x1 ADD SWAP1 PUSH1 0x20 ADD DUP1 DUP4 GT PUSH2 0x12DE JUMPI DUP3 SWAP1 SUB PUSH1 0x1F AND DUP3 ADD SWAP2 JUMPDEST POP POP POP POP POP DUP2 MSTORE PUSH1 0x20 ADD PUSH1 0x1 DUP3 ADD DUP1 SLOAD PUSH2 0x1314 SWAP1 PUSH2 0x24CD JUMP JUMPDEST DUP1 PUSH1 0x1F ADD PUSH1 0x20 DUP1 SWAP2 DIV MUL PUSH1 0x20 ADD PUSH1 0x40 MLOAD SWAP1 DUP2 ADD PUSH1 0x40 MSTORE DUP1 SWAP3 SWAP2 SWAP1 DUP2 DUP2 MSTORE PUSH1 0x20 ADD DUP3 DUP1 SLOAD PUSH2 0x1340 SWAP1 PUSH2 0x24CD JUMP JUMPDEST DUP1 ISZERO PUSH2 0x138D JUMPI DUP1 PUSH1 0x1F LT PUSH2 0x1362 JUMPI PUSH2 0x100 DUP1 DUP4 SLOAD DIV MUL DUP4 MSTORE SWAP2 PUSH1 0x20 ADD SWAP2 PUSH2 0x138D JUMP JUMPDEST DUP3 ADD SWAP2 SWAP1 PUSH1 0x0 MSTORE PUSH1 0x20 PUSH1 0x0 KECCAK256 SWAP1 JUMPDEST DUP2 SLOAD DUP2 MSTORE SWAP1 PUSH1 0x1 ADD SWAP1 PUSH1 0x20 ADD DUP1 DUP4 GT PUSH2 0x1370 JUMPI DUP3 SWAP1 SUB PUSH1 0x1F AND DUP3 ADD SWAP2 JUMPDEST POP POP POP POP POP DUP2 MSTORE PUSH1 0x20 ADD PUSH1 0x2 DUP3 ADD DUP1 SLOAD PUSH2 0x13A6 SWAP1 PUSH2 0x24CD JUMP JUMPDEST DUP1 PUSH1 0x1F ADD PUSH1 0x20 DUP1 SWAP2 DIV MUL PUSH1 0x20 ADD PUSH1 0x40 MLOAD SWAP1 DUP2 ADD PUSH1 0x40 MSTORE DUP1 SWAP3 SWAP2 SWAP1 DUP2 DUP2 MSTORE PUSH1 0x20 ADD DUP3 DUP1 SLOAD PUSH2 0x13D2 SWAP1 PUSH2 0x24CD JUMP JUMPDEST DUP1 ISZERO PUSH2 0x141F JUMPI DUP1 PUSH1 0x1F LT PUSH2 0x13F4 JUMPI PUSH2 0x100 DUP1 DUP4 SLOAD DIV MUL DUP4 MSTORE SWAP2 PUSH1 0x20 ADD SWAP2 PUSH2 0x141F JUMP JUMPDEST DUP3 ADD SWAP2 SWAP1 PUSH1 0x0 MSTORE PUSH1 0x20 PUSH1 0x0 KECCAK256 SWAP1 JUMPDEST DUP2 SLOAD DUP2 MSTORE SWAP1 PUSH1 0x1 ADD SWAP1 PUSH1 0x20 ADD DUP1 DUP4 GT PUSH2 0x1402 JUMPI DUP3 SWAP1 SUB PUSH1 0x1F AND DUP3 ADD SWAP2 JUMPDEST POP POP POP POP POP DUP2 MSTORE PUSH1 0x20 ADD PUSH1 0x3 DUP3 ADD SLOAD DUP2 MSTORE POP POP SWAP1 POP DUP1 PUSH1 0x20 ADD MLOAD SWAP2 POP POP SWAP2 SWAP1 POP JUMP JUMPDEST PUSH1 0x0 DUP2 PUSH1 0x40 MLOAD PUSH1 0x20 ADD PUSH2 0x1454 SWAP2 SWAP1 PUSH2 0x2C06 JUMP JUMPDEST PUSH1 0x40 MLOAD PUSH1 0x20 DUP2 DUP4 SUB SUB DUP2 MSTORE SWAP1 PUSH1 0x40 MSTORE DUP1 MLOAD SWAP1 PUSH1 0x20 ADD KECCAK256 DUP4 PUSH1 0x40 MLOAD PUSH1 0x20 ADD PUSH2 0x147B SWAP2 SWAP1 PUSH2 0x2C06 JUMP JUMPDEST PUSH1 0x40 MLOAD PUSH1 0x20 DUP2 DUP4 SUB SUB DUP2 MSTORE SWAP1 PUSH1 0x40 MSTORE DUP1 MLOAD SWAP1 PUSH1 0x20 ADD KECCAK256 EQ SWAP1 POP SWAP3 SWAP2 POP POP JUMP JUMPDEST PUSH1 0x0 DUP1 DUP3 SWAP1 POP PUSH1 0x2A DUP2 MLOAD EQ PUSH2 0x14E4 JUMPI PUSH1 0x40 MLOAD PUSH32 0x8C379A000000000000000000000000000000000000000000000000000000000 DUP2 MSTORE PUSH1 0x4 ADD PUSH2 0x14DB SWAP1 PUSH2 0x2C69 JUMP JUMPDEST PUSH1 0x40 MLOAD DUP1 SWAP2 SUB SWAP1 REVERT JUMPDEST PUSH1 0x0 DUP1 DUP1 PUSH1 0x2 SWAP1 POP JUMPDEST DUP4 MLOAD DUP2 LT ISZERO PUSH2 0x1622 JUMPI PUSH1 0x0 DUP5 DUP3 DUP2 MLOAD DUP2 LT PUSH2 0x150B JUMPI PUSH2 0x150A PUSH2 0x246F JUMP JUMPDEST JUMPDEST PUSH1 0x20 ADD ADD MLOAD PUSH1 0xF8 SHR PUSH1 0xF8 SHL PUSH1 0xF8 SHR SWAP1 POP PUSH1 0x30 DUP2 PUSH1 0xFF AND LT ISZERO DUP1 ISZERO PUSH2 0x1533 JUMPI POP PUSH1 0x39 DUP2 PUSH1 0xFF AND GT ISZERO JUMPDEST ISZERO PUSH2 0x154F JUMPI PUSH1 0x30 DUP2 PUSH2 0x1545 SWAP2 SWAP1 PUSH2 0x2C96 JUMP JUMPDEST PUSH1 0xFF AND SWAP3 POP PUSH2 0x15F4 JUMP JUMPDEST PUSH1 0x41 DUP2 PUSH1 0xFF AND LT ISZERO DUP1 ISZERO PUSH2 0x1567 JUMPI POP PUSH1 0x46 DUP2 PUSH1 0xFF AND GT ISZERO JUMPDEST ISZERO PUSH2 0x1583 JUMPI PUSH1 0x37 DUP2 PUSH2 0x1579 SWAP2 SWAP1 PUSH2 0x2C96 JUMP JUMPDEST PUSH1 0xFF AND SWAP3 POP PUSH2 0x15F3 JUMP JUMPDEST PUSH1 0x61 DUP2 PUSH1 0xFF AND LT ISZERO DUP1 ISZERO PUSH2 0x159B JUMPI POP PUSH1 0x66 DUP2 PUSH1 0xFF AND GT ISZERO JUMPDEST ISZERO PUSH2 0x15B7 JUMPI PUSH1 0x57 DUP2 PUSH2 0x15AD SWAP2 SWAP1 PUSH2 0x2C96 JUMP JUMPDEST PUSH1 0xFF AND SWAP3 POP PUSH2 0x15F2 JUMP JUMPDEST PUSH1 0x40 MLOAD PUSH32 0x8C379A000000000000000000000000000000000000000000000000000000000 DUP2 MSTORE PUSH1 0x4 ADD PUSH2 0x15E9 SWAP1 PUSH2 0x2D17 JUMP JUMPDEST PUSH1 0x40 MLOAD DUP1 SWAP2 SUB SWAP1 REVERT JUMPDEST JUMPDEST JUMPDEST DUP3 PUSH1 0x10 DUP6 PUSH2 0x1602 SWAP2 SWAP1 PUSH2 0x2D37 JUMP JUMPDEST PUSH2 0x160C SWAP2 SWAP1 PUSH2 0x2D79 JUMP JUMPDEST SWAP4 POP POP DUP1 DUP1 PUSH2 0x161A SWAP1 PUSH2 0x2692 JUMP JUMPDEST SWAP2 POP POP PUSH2 0x14ED JUMP JUMPDEST POP DUP2 SWAP4 POP POP POP POP SWAP2 SWAP1 POP JUMP JUMPDEST PUSH1 0x0 PUSH1 0x14 SWAP1 SLOAD SWAP1 PUSH2 0x100 EXP SWAP1 DIV PUSH1 0xFF AND PUSH2 0x167D JUMPI PUSH1 0x40 MLOAD PUSH32 0x8C379A000000000000000000000000000000000000000000000000000000000 DUP2 MSTORE PUSH1 0x4 ADD PUSH2 0x1674 SWAP1 PUSH2 0x2890 JUMP JUMPDEST PUSH1 0x40 MLOAD DUP1 SWAP2 SUB SWAP1 REVERT JUMPDEST PUSH1 0x0 PUSH1 0x15 SWAP1 SLOAD SWAP1 PUSH2 0x100 EXP SWAP1 DIV PUSH1 0xFF AND ISZERO PUSH2 0x16CD JUMPI PUSH1 0x40 MLOAD PUSH32 0x8C379A000000000000000000000000000000000000000000000000000000000 DUP2 MSTORE PUSH1 0x4 ADD PUSH2 0x16C4 SWAP1 PUSH2 0x28FC JUMP JUMPDEST PUSH1 0x40 MLOAD DUP1 SWAP2 SUB SWAP1 REVERT JUMPDEST PUSH1 0x3 PUSH1 0x0 CALLER PUSH20 0xFFFFFFFFFFFFFFFFFFFFFFFFFFFFFFFFFFFFFFFF AND PUSH20 0xFFFFFFFFFFFFFFFFFFFFFFFFFFFFFFFFFFFFFFFF AND DUP2 MSTORE PUSH1 0x20 ADD SWAP1 DUP2 MSTORE PUSH1 0x20 ADD PUSH1 0x0 KECCAK256 PUSH1 0x0 SWAP1 SLOAD SWAP1 PUSH2 0x100 EXP SWAP1 DIV PUSH1 0xFF AND ISZERO PUSH2 0x175A JUMPI PUSH1 0x40 MLOAD PUSH32 0x8C379A000000000000000000000000000000000000000000000000000000000 DUP2 MSTORE PUSH1 0x4 ADD PUSH2 0x1751 SWAP1 PUSH2 0x2DF9 JUMP JUMPDEST PUSH1 0x40 MLOAD DUP1 SWAP2 SUB SWAP1 REVERT JUMPDEST PUSH1 0x2 PUSH1 0x0 CALLER PUSH20 0xFFFFFFFFFFFFFFFFFFFFFFFFFFFFFFFFFFFFFFFF AND PUSH20 0xFFFFFFFFFFFFFFFFFFFFFFFFFFFFFFFFFFFFFFFF AND DUP2 MSTORE PUSH1 0x20 ADD SWAP1 DUP2 MSTORE PUSH1 0x20 ADD PUSH1 0x0 KECCAK256 PUSH1 0x0 SWAP1 SLOAD SWAP1 PUSH2 0x100 EXP SWAP1 DIV PUSH1 0xFF AND PUSH2 0x17E6 JUMPI PUSH1 0x40 MLOAD PUSH32 0x8C379A000000000000000000000000000000000000000000000000000000000 DUP2 MSTORE PUSH1 0x4 ADD PUSH2 0x17DD SWAP1 PUSH2 0x2E65 JUMP JUMPDEST PUSH1 0x40 MLOAD DUP1 SWAP2 SUB SWAP1 REVERT JUMPDEST PUSH1 0x4 PUSH1 0x0 DUP3 PUSH20 0xFFFFFFFFFFFFFFFFFFFFFFFFFFFFFFFFFFFFFFFF AND PUSH20 0xFFFFFFFFFFFFFFFFFFFFFFFFFFFFFFFFFFFFFFFF AND DUP2 MSTORE PUSH1 0x20 ADD SWAP1 DUP2 MSTORE PUSH1 0x20 ADD PUSH1 0x0 KECCAK256 PUSH1 0x0 SWAP1 SLOAD SWAP1 PUSH2 0x100 EXP SWAP1 DIV PUSH1 0xFF AND PUSH2 0x1872 JUMPI PUSH1 0x40 MLOAD PUSH32 0x8C379A000000000000000000000000000000000000000000000000000000000 DUP2 MSTORE PUSH1 0x4 ADD PUSH2 0x1869 SWAP1 PUSH2 0x2ED1 JUMP JUMPDEST PUSH1 0x40 MLOAD DUP1 SWAP2 SUB SWAP1 REVERT JUMPDEST PUSH1 0x1 PUSH1 0x3 PUSH1 0x0 CALLER PUSH20 0xFFFFFFFFFFFFFFFFFFFFFFFFFFFFFFFFFFFFFFFF AND PUSH20 0xFFFFFFFFFFFFFFFFFFFFFFFFFFFFFFFFFFFFFFFF AND DUP2 MSTORE PUSH1 0x20 ADD SWAP1 DUP2 MSTORE PUSH1 0x20 ADD PUSH1 0x0 KECCAK256 PUSH1 0x0 PUSH2 0x100 EXP DUP2 SLOAD DUP2 PUSH1 0xFF MUL NOT AND SWAP1 DUP4 ISZERO ISZERO MUL OR SWAP1 SSTORE POP PUSH1 0x5 PUSH1 0x0 DUP3 PUSH20 0xFFFFFFFFFFFFFFFFFFFFFFFFFFFFFFFFFFFFFFFF AND PUSH20 0xFFFFFFFFFFFFFFFFFFFFFFFFFFFFFFFFFFFFFFFF AND DUP2 MSTORE PUSH1 0x20 ADD SWAP1 DUP2 MSTORE PUSH1 0x20 ADD PUSH1 0x0 KECCAK256 PUSH1 0x3 ADD PUSH1 0x0 DUP2 SLOAD DUP1 SWAP3 SWAP2 SWAP1 PUSH2 0x191D SWAP1 PUSH2 0x2692 JUMP JUMPDEST SWAP2 SWAP1 POP SSTORE POP POP JUMP JUMPDEST PUSH1 0x60 PUSH1 0x0 DUP3 SWAP1 POP PUSH1 0x0 DUP2 PUSH1 0x0 DUP2 MLOAD DUP2 LT PUSH2 0x1942 JUMPI PUSH2 0x1941 PUSH2 0x246F JUMP JUMPDEST JUMPDEST PUSH1 0x20 ADD ADD MLOAD PUSH1 0xF8 SHR PUSH1 0xF8 SHL SWAP1 POP PUSH1 0x0 DUP3 PUSH1 0x1 DUP5 MLOAD PUSH2 0x1960 SWAP2 SWAP1 PUSH2 0x2EF1 JUMP JUMPDEST DUP2 MLOAD DUP2 LT PUSH2 0x1971 JUMPI PUSH2 0x1970 PUSH2 0x246F JUMP JUMPDEST JUMPDEST PUSH1 0x20 ADD ADD MLOAD PUSH1 0xF8 SHR PUSH1 0xF8 SHL SWAP1 POP PUSH1 0x0 PUSH1 0x2 PUSH8 0xFFFFFFFFFFFFFFFF DUP2 GT ISZERO PUSH2 0x199B JUMPI PUSH2 0x199A PUSH2 0x1F51 JUMP JUMPDEST JUMPDEST PUSH1 0x40 MLOAD SWAP1 DUP1 DUP3 MSTORE DUP1 PUSH1 0x1F ADD PUSH1 0x1F NOT AND PUSH1 0x20 ADD DUP3 ADD PUSH1 0x40 MSTORE DUP1 ISZERO PUSH2 0x19CD JUMPI DUP2 PUSH1 0x20 ADD PUSH1 0x1 DUP3 MUL DUP1 CALLDATASIZE DUP4 CALLDATACOPY DUP1 DUP3 ADD SWAP2 POP POP SWAP1 POP JUMPDEST POP SWAP1 POP DUP3 DUP2 PUSH1 0x0 DUP2 MLOAD DUP2 LT PUSH2 0x19E5 JUMPI PUSH2 0x19E4 PUSH2 0x246F JUMP JUMPDEST JUMPDEST PUSH1 0x20 ADD ADD SWAP1 PUSH31 0xFFFFFFFFFFFFFFFFFFFFFFFFFFFFFFFFFFFFFFFFFFFFFFFFFFFFFFFFFFFFFF NOT AND SWAP1 DUP2 PUSH1 0x0 BYTE SWAP1 MSTORE8 POP DUP2 DUP2 PUSH1 0x1 DUP2 MLOAD DUP2 LT PUSH2 0x1A29 JUMPI PUSH2 0x1A28 PUSH2 0x246F JUMP JUMPDEST JUMPDEST PUSH1 0x20 ADD ADD SWAP1 PUSH31 0xFFFFFFFFFFFFFFFFFFFFFFFFFFFFFFFFFFFFFFFFFFFFFFFFFFFFFFFFFFFFFF NOT AND SWAP1 DUP2 PUSH1 0x0 BYTE SWAP1 MSTORE8 POP PUSH1 0x0 PUSH2 0x1A62 PUSH2 0x9F5 JUMP JUMPDEST SWAP1 POP PUSH1 0x0 JUMPDEST DUP2 DUP2 LT ISZERO PUSH2 0x1E46 JUMPI PUSH1 0x0 PUSH1 0x5 PUSH1 0x0 PUSH1 0x1 DUP5 DUP2 SLOAD DUP2 LT PUSH2 0x1A89 JUMPI PUSH2 0x1A88 PUSH2 0x246F JUMP JUMPDEST JUMPDEST SWAP1 PUSH1 0x0 MSTORE PUSH1 0x20 PUSH1 0x0 KECCAK256 ADD PUSH1 0x0 SWAP1 SLOAD SWAP1 PUSH2 0x100 EXP SWAP1 DIV PUSH20 0xFFFFFFFFFFFFFFFFFFFFFFFFFFFFFFFFFFFFFFFF AND PUSH20 0xFFFFFFFFFFFFFFFFFFFFFFFFFFFFFFFFFFFFFFFF AND PUSH20 0xFFFFFFFFFFFFFFFFFFFFFFFFFFFFFFFFFFFFFFFF AND DUP2 MSTORE PUSH1 0x20 ADD SWAP1 DUP2 MSTORE PUSH1 0x20 ADD PUSH1 0x0 KECCAK256 PUSH1 0x40 MLOAD DUP1 PUSH1 0x80 ADD PUSH1 0x40 MSTORE SWAP1 DUP2 PUSH1 0x0 DUP3 ADD DUP1 SLOAD PUSH2 0x1B09 SWAP1 PUSH2 0x24CD JUMP JUMPDEST DUP1 PUSH1 0x1F ADD PUSH1 0x20 DUP1 SWAP2 DIV MUL PUSH1 0x20 ADD PUSH1 0x40 MLOAD SWAP1 DUP2 ADD PUSH1 0x40 MSTORE DUP1 SWAP3 SWAP2 SWAP1 DUP2 DUP2 MSTORE PUSH1 0x20 ADD DUP3 DUP1 SLOAD PUSH2 0x1B35 SWAP1 PUSH2 0x24CD JUMP JUMPDEST DUP1 ISZERO PUSH2 0x1B82 JUMPI DUP1 PUSH1 0x1F LT PUSH2 0x1B57 JUMPI PUSH2 0x100 DUP1 DUP4 SLOAD DIV MUL DUP4 MSTORE SWAP2 PUSH1 0x20 ADD SWAP2 PUSH2 0x1B82 JUMP JUMPDEST DUP3 ADD SWAP2 SWAP1 PUSH1 0x0 MSTORE PUSH1 0x20 PUSH1 0x0 KECCAK256 SWAP1 JUMPDEST DUP2 SLOAD DUP2 MSTORE SWAP1 PUSH1 0x1 ADD SWAP1 PUSH1 0x20 ADD DUP1 DUP4 GT PUSH2 0x1B65 JUMPI DUP3 SWAP1 SUB PUSH1 0x1F AND DUP3 ADD SWAP2 JUMPDEST POP POP POP POP POP DUP2 MSTORE PUSH1 0x20 ADD PUSH1 0x1 DUP3 ADD DUP1 SLOAD PUSH2 0x1B9B SWAP1 PUSH2 0x24CD JUMP JUMPDEST DUP1 PUSH1 0x1F ADD PUSH1 0x20 DUP1 SWAP2 DIV MUL PUSH1 0x20 ADD PUSH1 0x40 MLOAD SWAP1 DUP2 ADD PUSH1 0x40 MSTORE DUP1 SWAP3 SWAP2 SWAP1 DUP2 DUP2 MSTORE PUSH1 0x20 ADD DUP3 DUP1 SLOAD PUSH2 0x1BC7 SWAP1 PUSH2 0x24CD JUMP JUMPDEST DUP1 ISZERO PUSH2 0x1C14 JUMPI DUP1 PUSH1 0x1F LT PUSH2 0x1BE9 JUMPI PUSH2 0x100 DUP1 DUP4 SLOAD DIV MUL DUP4 MSTORE SWAP2 PUSH1 0x20 ADD SWAP2 PUSH2 0x1C14 JUMP JUMPDEST DUP3 ADD SWAP2 SWAP1 PUSH1 0x0 MSTORE PUSH1 0x20 PUSH1 0x0 KECCAK256 SWAP1 JUMPDEST DUP2 SLOAD DUP2 MSTORE SWAP1 PUSH1 0x1 ADD SWAP1 PUSH1 0x20 ADD DUP1 DUP4 GT PUSH2 0x1BF7 JUMPI DUP3 SWAP1 SUB PUSH1 0x1F AND DUP3 ADD SWAP2 JUMPDEST POP POP POP POP POP DUP2 MSTORE PUSH1 0x20 ADD PUSH1 0x2 DUP3 ADD DUP1 SLOAD PUSH2 0x1C2D SWAP1 PUSH2 0x24CD JUMP JUMPDEST DUP1 PUSH1 0x1F ADD PUSH1 0x20 DUP1 SWAP2 DIV MUL PUSH1 0x20 ADD PUSH1 0x40 MLOAD SWAP1 DUP2 ADD PUSH1 0x40 MSTORE DUP1 SWAP3 SWAP2 SWAP1 DUP2 DUP2 MSTORE PUSH1 0x20 ADD DUP3 DUP1 SLOAD PUSH2 0x1C59 SWAP1 PUSH2 0x24CD JUMP JUMPDEST DUP1 ISZERO PUSH2 0x1CA6 JUMPI DUP1 PUSH1 0x1F LT PUSH2 0x1C7B JUMPI PUSH2 0x100 DUP1 DUP4 SLOAD DIV MUL DUP4 MSTORE SWAP2 PUSH1 0x20 ADD SWAP2 PUSH2 0x1CA6 JUMP JUMPDEST DUP3 ADD SWAP2 SWAP1 PUSH1 0x0 MSTORE PUSH1 0x20 PUSH1 0x0 KECCAK256 SWAP1 JUMPDEST DUP2 SLOAD DUP2 MSTORE SWAP1 PUSH1 0x1 ADD SWAP1 PUSH1 0x20 ADD DUP1 DUP4 GT PUSH2 0x1C89 JUMPI DUP3 SWAP1 SUB PUSH1 0x1F AND DUP3 ADD SWAP2 JUMPDEST POP POP POP POP POP DUP2 MSTORE PUSH1 0x20 ADD PUSH1 0x3 DUP3 ADD SLOAD DUP2 MSTORE POP POP SWAP1 POP PUSH1 0x0 DUP2 PUSH1 0x0 ADD MLOAD SWAP1 POP PUSH1 0x0 PUSH1 0x2 PUSH8 0xFFFFFFFFFFFFFFFF DUP2 GT ISZERO PUSH2 0x1CE1 JUMPI PUSH2 0x1CE0 PUSH2 0x1F51 JUMP JUMPDEST JUMPDEST PUSH1 0x40 MLOAD SWAP1 DUP1 DUP3 MSTORE DUP1 PUSH1 0x1F ADD PUSH1 0x1F NOT AND PUSH1 0x20 ADD DUP3 ADD PUSH1 0x40 MSTORE DUP1 ISZERO PUSH2 0x1D13 JUMPI DUP2 PUSH1 0x20 ADD PUSH1 0x1 DUP3 MUL DUP1 CALLDATASIZE DUP4 CALLDATACOPY DUP1 DUP3 ADD SWAP2 POP POP SWAP1 POP JUMPDEST POP SWAP1 POP DUP2 PUSH1 0x0 DUP2 MLOAD DUP2 LT PUSH2 0x1D2A JUMPI PUSH2 0x1D29 PUSH2 0x246F JUMP JUMPDEST JUMPDEST PUSH1 0x20 ADD ADD MLOAD PUSH1 0xF8 SHR PUSH1 0xF8 SHL DUP2 PUSH1 0x0 DUP2 MLOAD DUP2 LT PUSH2 0x1D49 JUMPI PUSH2 0x1D48 PUSH2 0x246F JUMP JUMPDEST JUMPDEST PUSH1 0x20 ADD ADD SWAP1 PUSH31 0xFFFFFFFFFFFFFFFFFFFFFFFFFFFFFFFFFFFFFFFFFFFFFFFFFFFFFFFFFFFFFF NOT AND SWAP1 DUP2 PUSH1 0x0 BYTE SWAP1 MSTORE8 POP DUP2 PUSH1 0x1 DUP4 MLOAD PUSH2 0x1D87 SWAP2 SWAP1 PUSH2 0x2EF1 JUMP JUMPDEST DUP2 MLOAD DUP2 LT PUSH2 0x1D98 JUMPI PUSH2 0x1D97 PUSH2 0x246F JUMP JUMPDEST JUMPDEST PUSH1 0x20 ADD ADD MLOAD PUSH1 0xF8 SHR PUSH1 0xF8 SHL DUP2 PUSH1 0x1 DUP2 MLOAD DUP2 LT PUSH2 0x1DB7 JUMPI PUSH2 0x1DB6 PUSH2 0x246F JUMP JUMPDEST JUMPDEST PUSH1 0x20 ADD ADD SWAP1 PUSH31 0xFFFFFFFFFFFFFFFFFFFFFFFFFFFFFFFFFFFFFFFFFFFFFFFFFFFFFFFFFFFFFF NOT AND SWAP1 DUP2 PUSH1 0x0 BYTE SWAP1 MSTORE8 POP PUSH2 0x1DF0 DUP2 DUP8 PUSH2 0x1E54 JUMP JUMPDEST ISZERO PUSH2 0x1E30 JUMPI PUSH1 0x40 MLOAD PUSH32 0x8C379A000000000000000000000000000000000000000000000000000000000 DUP2 MSTORE PUSH1 0x4 ADD PUSH2 0x1E27 SWAP1 PUSH2 0x2F71 JUMP JUMPDEST PUSH1 0x40 MLOAD DUP1 SWAP2 SUB SWAP1 REVERT JUMPDEST POP POP POP DUP1 DUP1 PUSH2 0x1E3E SWAP1 PUSH2 0x2692 JUMP JUMPDEST SWAP2 POP POP PUSH2 0x1A67 JUMP JUMPDEST POP DUP2 SWAP6 POP POP POP POP POP POP SWAP2 SWAP1 POP JUMP JUMPDEST PUSH1 0x0 DUP2 MLOAD DUP4 MLOAD EQ PUSH2 0x1E68 JUMPI PUSH1 0x0 SWAP1 POP PUSH2 0x1F1C JUMP JUMPDEST PUSH1 0x0 JUMPDEST DUP4 MLOAD DUP2 LT ISZERO PUSH2 0x1F16 JUMPI DUP3 DUP2 DUP2 MLOAD DUP2 LT PUSH2 0x1E87 JUMPI PUSH2 0x1E86 PUSH2 0x246F JUMP JUMPDEST JUMPDEST PUSH1 0x20 ADD ADD MLOAD PUSH1 0xF8 SHR PUSH1 0xF8 SHL PUSH31 0xFFFFFFFFFFFFFFFFFFFFFFFFFFFFFFFFFFFFFFFFFFFFFFFFFFFFFFFFFFFFFF NOT AND DUP5 DUP3 DUP2 MLOAD DUP2 LT PUSH2 0x1EC7 JUMPI PUSH2 0x1EC6 PUSH2 0x246F JUMP JUMPDEST JUMPDEST PUSH1 0x20 ADD ADD MLOAD PUSH1 0xF8 SHR PUSH1 0xF8 SHL PUSH31 0xFFFFFFFFFFFFFFFFFFFFFFFFFFFFFFFFFFFFFFFFFFFFFFFFFFFFFFFFFFFFFF NOT AND EQ PUSH2 0x1F03 JUMPI PUSH1 0x0 SWAP2 POP POP PUSH2 0x1F1C JUMP JUMPDEST DUP1 DUP1 PUSH2 0x1F0E SWAP1 PUSH2 0x2692 JUMP JUMPDEST SWAP2 POP POP PUSH2 0x1E6B JUMP JUMPDEST POP PUSH1 0x1 SWAP1 POP JUMPDEST SWAP3 SWAP2 POP POP JUMP JUMPDEST PUSH1 0x0 PUSH1 0x40 MLOAD SWAP1 POP SWAP1 JUMP JUMPDEST PUSH1 0x0 DUP1 REVERT JUMPDEST PUSH1 0x0 DUP1 REVERT JUMPDEST PUSH1 0x0 DUP1 REVERT JUMPDEST PUSH1 0x0 DUP1 REVERT JUMPDEST PUSH1 0x0 PUSH1 0x1F NOT PUSH1 0x1F DUP4 ADD AND SWAP1 POP SWAP2 SWAP1 POP JUMP JUMPDEST PUSH32 0x4E487B7100000000000000000000000000000000000000000000000000000000 PUSH1 0x0 MSTORE PUSH1 0x41 PUSH1 0x4 MSTORE PUSH1 0x24 PUSH1 0x0 REVERT JUMPDEST PUSH2 0x1F89 DUP3 PUSH2 0x1F40 JUMP JUMPDEST DUP2 ADD DUP2 DUP2 LT PUSH8 0xFFFFFFFFFFFFFFFF DUP3 GT OR ISZERO PUSH2 0x1FA8 JUMPI PUSH2 0x1FA7 PUSH2 0x1F51 JUMP JUMPDEST JUMPDEST DUP1 PUSH1 0x40 MSTORE POP POP POP JUMP JUMPDEST PUSH1 0x0 PUSH2 0x1FBB PUSH2 0x1F22 JUMP JUMPDEST SWAP1 POP PUSH2 0x1FC7 DUP3 DUP3 PUSH2 0x1F80 JUMP JUMPDEST SWAP2 SWAP1 POP JUMP JUMPDEST PUSH1 0x0 PUSH8 0xFFFFFFFFFFFFFFFF DUP3 GT ISZERO PUSH2 0x1FE7 JUMPI PUSH2 0x1FE6 PUSH2 0x1F51 JUMP JUMPDEST JUMPDEST PUSH2 0x1FF0 DUP3 PUSH2 0x1F40 JUMP JUMPDEST SWAP1 POP PUSH1 0x20 DUP2 ADD SWAP1 POP SWAP2 SWAP1 POP JUMP JUMPDEST DUP3 DUP2 DUP4 CALLDATACOPY PUSH1 0x0 DUP4 DUP4 ADD MSTORE POP POP POP JUMP JUMPDEST PUSH1 0x0 PUSH2 0x201F PUSH2 0x201A DUP5 PUSH2 0x1FCC JUMP JUMPDEST PUSH2 0x1FB1 JUMP JUMPDEST SWAP1 POP DUP3 DUP2 MSTORE PUSH1 0x20 DUP2 ADD DUP5 DUP5 DUP5 ADD GT ISZERO PUSH2 0x203B JUMPI PUSH2 0x203A PUSH2 0x1F3B JUMP JUMPDEST JUMPDEST PUSH2 0x2046 DUP5 DUP3 DUP6 PUSH2 0x1FFD JUMP JUMPDEST POP SWAP4 SWAP3 POP POP POP JUMP JUMPDEST PUSH1 0x0 DUP3 PUSH1 0x1F DUP4 ADD SLT PUSH2 0x2063 JUMPI PUSH2 0x2062 PUSH2 0x1F36 JUMP JUMPDEST JUMPDEST DUP2 CALLDATALOAD PUSH2 0x2073 DUP5 DUP3 PUSH1 0x20 DUP7 ADD PUSH2 0x200C JUMP JUMPDEST SWAP2 POP POP SWAP3 SWAP2 POP POP JUMP JUMPDEST PUSH1 0x0 DUP1 PUSH1 0x40 DUP4 DUP6 SUB SLT ISZERO PUSH2 0x2093 JUMPI PUSH2 0x2092 PUSH2 0x1F2C JUMP JUMPDEST JUMPDEST PUSH1 0x0 DUP4 ADD CALLDATALOAD PUSH8 0xFFFFFFFFFFFFFFFF DUP2 GT ISZERO PUSH2 0x20B1 JUMPI PUSH2 0x20B0 PUSH2 0x1F31 JUMP JUMPDEST JUMPDEST PUSH2 0x20BD DUP6 DUP3 DUP7 ADD PUSH2 0x204E JUMP JUMPDEST SWAP3 POP POP PUSH1 0x20 DUP4 ADD CALLDATALOAD PUSH8 0xFFFFFFFFFFFFFFFF DUP2 GT ISZERO PUSH2 0x20DE JUMPI PUSH2 0x20DD PUSH2 0x1F31 JUMP JUMPDEST JUMPDEST PUSH2 0x20EA DUP6 DUP3 DUP7 ADD PUSH2 0x204E JUMP JUMPDEST SWAP2 POP POP SWAP3 POP SWAP3 SWAP1 POP JUMP JUMPDEST PUSH1 0x0 DUP2 MLOAD SWAP1 POP SWAP2 SWAP1 POP JUMP JUMPDEST PUSH1 0x0 DUP3 DUP3 MSTORE PUSH1 0x20 DUP3 ADD SWAP1 POP SWAP3 SWAP2 POP POP JUMP JUMPDEST PUSH1 0x0 DUP2 SWAP1 POP PUSH1 0x20 DUP3 ADD SWAP1 POP SWAP2 SWAP1 POP JUMP JUMPDEST PUSH1 0x0 DUP2 MLOAD SWAP1 POP SWAP2 SWAP1 POP JUMP JUMPDEST PUSH1 0x0 DUP3 DUP3 MSTORE PUSH1 0x20 DUP3 ADD SWAP1 POP SWAP3 SWAP2 POP POP JUMP JUMPDEST PUSH1 0x0 JUMPDEST DUP4 DUP2 LT ISZERO PUSH2 0x215A JUMPI DUP1 DUP3 ADD MLOAD DUP2 DUP5 ADD MSTORE PUSH1 0x20 DUP2 ADD SWAP1 POP PUSH2 0x213F JUMP JUMPDEST PUSH1 0x0 DUP5 DUP5 ADD MSTORE POP POP POP POP JUMP JUMPDEST PUSH1 0x0 PUSH2 0x2171 DUP3 PUSH2 0x2120 JUMP JUMPDEST PUSH2 0x217B DUP2 DUP6 PUSH2 0x212B JUMP JUMPDEST SWAP4 POP PUSH2 0x218B DUP2 DUP6 PUSH1 0x20 DUP7 ADD PUSH2 0x213C JUMP JUMPDEST PUSH2 0x2194 DUP2 PUSH2 0x1F40 JUMP JUMPDEST DUP5 ADD SWAP2 POP POP SWAP3 SWAP2 POP POP JUMP JUMPDEST PUSH1 0x0 PUSH2 0x21AB DUP4 DUP4 PUSH2 0x2166 JUMP JUMPDEST SWAP1 POP SWAP3 SWAP2 POP POP JUMP JUMPDEST PUSH1 0x0 PUSH1 0x20 DUP3 ADD SWAP1 POP SWAP2 SWAP1 POP JUMP JUMPDEST PUSH1 0x0 PUSH2 0x21CB DUP3 PUSH2 0x20F4 JUMP JUMPDEST PUSH2 0x21D5 DUP2 DUP6 PUSH2 0x20FF JUMP JUMPDEST SWAP4 POP DUP4 PUSH1 0x20 DUP3 MUL DUP6 ADD PUSH2 0x21E7 DUP6 PUSH2 0x2110 JUMP JUMPDEST DUP1 PUSH1 0x0 JUMPDEST DUP6 DUP2 LT ISZERO PUSH2 0x2223 JUMPI DUP5 DUP5 SUB DUP10 MSTORE DUP2 MLOAD PUSH2 0x2204 DUP6 DUP3 PUSH2 0x219F JUMP JUMPDEST SWAP5 POP PUSH2 0x220F DUP4 PUSH2 0x21B3 JUMP JUMPDEST SWAP3 POP PUSH1 0x20 DUP11 ADD SWAP10 POP POP PUSH1 0x1 DUP2 ADD SWAP1 POP PUSH2 0x21EB JUMP JUMPDEST POP DUP3 SWAP8 POP DUP8 SWAP6 POP POP POP POP POP POP SWAP3 SWAP2 POP POP JUMP JUMPDEST PUSH1 0x0 PUSH1 0x20 DUP3 ADD SWAP1 POP DUP2 DUP2 SUB PUSH1 0x0 DUP4 ADD MSTORE PUSH2 0x224F DUP2 DUP5 PUSH2 0x21C0 JUMP JUMPDEST SWAP1 POP SWAP3 SWAP2 POP POP JUMP JUMPDEST PUSH1 0x0 PUSH1 0x20 DUP3 DUP5 SUB SLT ISZERO PUSH2 0x226D JUMPI PUSH2 0x226C PUSH2 0x1F2C JUMP JUMPDEST JUMPDEST PUSH1 0x0 DUP3 ADD CALLDATALOAD PUSH8 0xFFFFFFFFFFFFFFFF DUP2 GT ISZERO PUSH2 0x228B JUMPI PUSH2 0x228A PUSH2 0x1F31 JUMP JUMPDEST JUMPDEST PUSH2 0x2297 DUP5 DUP3 DUP6 ADD PUSH2 0x204E JUMP JUMPDEST SWAP2 POP POP SWAP3 SWAP2 POP POP JUMP JUMPDEST PUSH1 0x0 PUSH20 0xFFFFFFFFFFFFFFFFFFFFFFFFFFFFFFFFFFFFFFFF DUP3 AND SWAP1 POP SWAP2 SWAP1 POP JUMP JUMPDEST PUSH1 0x0 PUSH2 0x22CB DUP3 PUSH2 0x22A0 JUMP JUMPDEST SWAP1 POP SWAP2 SWAP1 POP JUMP JUMPDEST PUSH2 0x22DB DUP2 PUSH2 0x22C0 JUMP JUMPDEST DUP3 MSTORE POP POP JUMP JUMPDEST PUSH1 0x0 DUP3 DUP3 MSTORE PUSH1 0x20 DUP3 ADD SWAP1 POP SWAP3 SWAP2 POP POP JUMP JUMPDEST PUSH1 0x0 PUSH2 0x22FD DUP3 PUSH2 0x2120 JUMP JUMPDEST PUSH2 0x2307 DUP2 DUP6 PUSH2 0x22E1 JUMP JUMPDEST SWAP4 POP PUSH2 0x2317 DUP2 DUP6 PUSH1 0x20 DUP7 ADD PUSH2 0x213C JUMP JUMPDEST PUSH2 0x2320 DUP2 PUSH2 0x1F40 JUMP JUMPDEST DUP5 ADD SWAP2 POP POP SWAP3 SWAP2 POP POP JUMP JUMPDEST PUSH1 0x0 DUP2 SWAP1 POP SWAP2 SWAP1 POP JUMP JUMPDEST PUSH2 0x233E DUP2 PUSH2 0x232B JUMP JUMPDEST DUP3 MSTORE POP POP JUMP JUMPDEST PUSH1 0x0 PUSH1 0x60 DUP3 ADD SWAP1 POP PUSH2 0x2359 PUSH1 0x0 DUP4 ADD DUP7 PUSH2 0x22D2 JUMP JUMPDEST DUP2 DUP2 SUB PUSH1 0x20 DUP4 ADD MSTORE PUSH2 0x236B DUP2 DUP6 PUSH2 0x22F2 JUMP JUMPDEST SWAP1 POP PUSH2 0x237A PUSH1 0x40 DUP4 ADD DUP5 PUSH2 0x2335 JUMP JUMPDEST SWAP5 SWAP4 POP POP POP POP JUMP JUMPDEST PUSH1 0x0 PUSH1 0x20 DUP3 ADD SWAP1 POP PUSH2 0x2397 PUSH1 0x0 DUP4 ADD DUP5 PUSH2 0x2335 JUMP JUMPDEST SWAP3 SWAP2 POP POP JUMP JUMPDEST PUSH1 0x0 PUSH1 0x20 DUP3 ADD SWAP1 POP DUP2 DUP2 SUB PUSH1 0x0 DUP4 ADD MSTORE PUSH2 0x23B7 DUP2 DUP5 PUSH2 0x22F2 JUMP JUMPDEST SWAP1 POP SWAP3 SWAP2 POP POP JUMP JUMPDEST PUSH1 0x0 DUP2 ISZERO ISZERO SWAP1 POP SWAP2 SWAP1 POP JUMP JUMPDEST PUSH2 0x23D4 DUP2 PUSH2 0x23BF JUMP JUMPDEST DUP3 MSTORE POP POP JUMP JUMPDEST PUSH1 0x0 PUSH1 0x40 DUP3 ADD SWAP1 POP PUSH2 0x23EF PUSH1 0x0 DUP4 ADD DUP6 PUSH2 0x23CB JUMP JUMPDEST PUSH2 0x23FC PUSH1 0x20 DUP4 ADD DUP5 PUSH2 0x23CB JUMP JUMPDEST SWAP4 SWAP3 POP POP POP JUMP JUMPDEST PUSH32 0x43616E64696461746520697320616C7265647920726567697374726572642E00 PUSH1 0x0 DUP3 ADD MSTORE POP JUMP JUMPDEST PUSH1 0x0 PUSH2 0x2439 PUSH1 0x1F DUP4 PUSH2 0x22E1 JUMP JUMPDEST SWAP2 POP PUSH2 0x2444 DUP3 PUSH2 0x2403 JUMP JUMPDEST PUSH1 0x20 DUP3 ADD SWAP1 POP SWAP2 SWAP1 POP JUMP JUMPDEST PUSH1 0x0 PUSH1 0x20 DUP3 ADD SWAP1 POP DUP2 DUP2 SUB PUSH1 0x0 DUP4 ADD MSTORE PUSH2 0x2468 DUP2 PUSH2 0x242C JUMP JUMPDEST SWAP1 POP SWAP2 SWAP1 POP JUMP JUMPDEST PUSH32 0x4E487B7100000000000000000000000000000000000000000000000000000000 PUSH1 0x0 MSTORE PUSH1 0x32 PUSH1 0x4 MSTORE PUSH1 0x24 PUSH1 0x0 REVERT JUMPDEST PUSH32 0x4E487B7100000000000000000000000000000000000000000000000000000000 PUSH1 0x0 MSTORE PUSH1 0x22 PUSH1 0x4 MSTORE PUSH1 0x24 PUSH1 0x0 REVERT JUMPDEST PUSH1 0x0 PUSH1 0x2 DUP3 DIV SWAP1 POP PUSH1 0x1 DUP3 AND DUP1 PUSH2 0x24E5 JUMPI PUSH1 0x7F DUP3 AND SWAP2 POP JUMPDEST PUSH1 0x20 DUP3 LT DUP2 SUB PUSH2 0x24F8 JUMPI PUSH2 0x24F7 PUSH2 0x249E JUMP JUMPDEST JUMPDEST POP SWAP2 SWAP1 POP JUMP JUMPDEST PUSH1 0x0 DUP2 SWAP1 POP SWAP3 SWAP2 POP POP JUMP JUMPDEST PUSH32 0x2000000000000000000000000000000000000000000000000000000000000000 PUSH1 0x0 DUP3 ADD MSTORE POP JUMP JUMPDEST PUSH1 0x0 PUSH2 0x253F PUSH1 0x1 DUP4 PUSH2 0x24FE JUMP JUMPDEST SWAP2 POP PUSH2 0x254A DUP3 PUSH2 0x2509 JUMP JUMPDEST PUSH1 0x1 DUP3 ADD SWAP1 POP SWAP2 SWAP1 POP JUMP JUMPDEST PUSH1 0x0 PUSH2 0x2560 DUP3 PUSH2 0x2120 JUMP JUMPDEST PUSH2 0x256A DUP2 DUP6 PUSH2 0x24FE JUMP JUMPDEST SWAP4 POP PUSH2 0x257A DUP2 DUP6 PUSH1 0x20 DUP7 ADD PUSH2 0x213C JUMP JUMPDEST DUP1 DUP5 ADD SWAP2 POP POP SWAP3 SWAP2 POP POP JUMP JUMPDEST PUSH32 0x2028000000000000000000000000000000000000000000000000000000000000 PUSH1 0x0 DUP3 ADD MSTORE POP JUMP JUMPDEST PUSH1 0x0 PUSH2 0x25BC PUSH1 0x2 DUP4 PUSH2 0x24FE JUMP JUMPDEST SWAP2 POP PUSH2 0x25C7 DUP3 PUSH2 0x2586 JUMP JUMPDEST PUSH1 0x2 DUP3 ADD SWAP1 POP SWAP2 SWAP1 POP JUMP JUMPDEST PUSH32 0x2900000000000000000000000000000000000000000000000000000000000000 PUSH1 0x0 DUP3 ADD MSTORE POP JUMP JUMPDEST PUSH1 0x0 PUSH2 0x2608 PUSH1 0x1 DUP4 PUSH2 0x24FE JUMP JUMPDEST SWAP2 POP PUSH2 0x2613 DUP3 PUSH2 0x25D2 JUMP JUMPDEST PUSH1 0x1 DUP3 ADD SWAP1 POP SWAP2 SWAP1 POP JUMP JUMPDEST PUSH1 0x0 PUSH2 0x2629 DUP3 PUSH2 0x2532 JUMP JUMPDEST SWAP2 POP PUSH2 0x2635 DUP3 DUP6 PUSH2 0x2555 JUMP JUMPDEST SWAP2 POP PUSH2 0x2640 DUP3 PUSH2 0x25AF JUMP JUMPDEST SWAP2 POP PUSH2 0x264C DUP3 DUP5 PUSH2 0x2555 JUMP JUMPDEST SWAP2 POP PUSH2 0x2657 DUP3 PUSH2 0x25FB JUMP JUMPDEST SWAP2 POP DUP2 SWAP1 POP SWAP4 SWAP3 POP POP POP JUMP JUMPDEST PUSH32 0x4E487B7100000000000000000000000000000000000000000000000000000000 PUSH1 0x0 MSTORE PUSH1 0x11 PUSH1 0x4 MSTORE PUSH1 0x24 PUSH1 0x0 REVERT JUMPDEST PUSH1 0x0 PUSH2 0x269D DUP3 PUSH2 0x232B JUMP JUMPDEST SWAP2 POP PUSH32 0xFFFFFFFFFFFFFFFFFFFFFFFFFFFFFFFFFFFFFFFFFFFFFFFFFFFFFFFFFFFFFFFF DUP3 SUB PUSH2 0x26CF JUMPI PUSH2 0x26CE PUSH2 0x2663 JUMP JUMPDEST JUMPDEST PUSH1 0x1 DUP3 ADD SWAP1 POP SWAP2 SWAP1 POP JUMP JUMPDEST PUSH32 0x4944206E6F7420666F756E640000000000000000000000000000000000000000 PUSH1 0x0 DUP3 ADD MSTORE POP JUMP JUMPDEST PUSH1 0x0 PUSH2 0x2710 PUSH1 0xC DUP4 PUSH2 0x22E1 JUMP JUMPDEST SWAP2 POP PUSH2 0x271B DUP3 PUSH2 0x26DA JUMP JUMPDEST PUSH1 0x20 DUP3 ADD SWAP1 POP SWAP2 SWAP1 POP JUMP JUMPDEST PUSH1 0x0 PUSH1 0x20 DUP3 ADD SWAP1 POP DUP2 DUP2 SUB PUSH1 0x0 DUP4 ADD MSTORE PUSH2 0x273F DUP2 PUSH2 0x2703 JUMP JUMPDEST SWAP1 POP SWAP2 SWAP1 POP JUMP JUMPDEST PUSH32 0x4F6E6C792061646D696E2063616E20706572666F726D20746869732061637469 PUSH1 0x0 DUP3 ADD MSTORE PUSH32 0x6F6E000000000000000000000000000000000000000000000000000000000000 PUSH1 0x20 DUP3 ADD MSTORE POP JUMP JUMPDEST PUSH1 0x0 PUSH2 0x27A2 PUSH1 0x22 DUP4 PUSH2 0x22E1 JUMP JUMPDEST SWAP2 POP PUSH2 0x27AD DUP3 PUSH2 0x2746 JUMP JUMPDEST PUSH1 0x40 DUP3 ADD SWAP1 POP SWAP2 SWAP1 POP JUMP JUMPDEST PUSH1 0x0 PUSH1 0x20 DUP3 ADD SWAP1 POP DUP2 DUP2 SUB PUSH1 0x0 DUP4 ADD MSTORE PUSH2 0x27D1 DUP2 PUSH2 0x2795 JUMP JUMPDEST SWAP1 POP SWAP2 SWAP1 POP JUMP JUMPDEST PUSH32 0x456C656374696F6E20696E2070726F67726573732E2E2E000000000000000000 PUSH1 0x0 DUP3 ADD MSTORE POP JUMP JUMPDEST PUSH1 0x0 PUSH2 0x280E PUSH1 0x17 DUP4 PUSH2 0x22E1 JUMP JUMPDEST SWAP2 POP PUSH2 0x2819 DUP3 PUSH2 0x27D8 JUMP JUMPDEST PUSH1 0x20 DUP3 ADD SWAP1 POP SWAP2 SWAP1 POP JUMP JUMPDEST PUSH1 0x0 PUSH1 0x20 DUP3 ADD SWAP1 POP DUP2 DUP2 SUB PUSH1 0x0 DUP4 ADD MSTORE PUSH2 0x283D DUP2 PUSH2 0x2801 JUMP JUMPDEST SWAP1 POP SWAP2 SWAP1 POP JUMP JUMPDEST PUSH32 0x456C656374696F6E20686173206E6F7420737461727465640000000000000000 PUSH1 0x0 DUP3 ADD MSTORE POP JUMP JUMPDEST PUSH1 0x0 PUSH2 0x287A PUSH1 0x18 DUP4 PUSH2 0x22E1 JUMP JUMPDEST SWAP2 POP PUSH2 0x2885 DUP3 PUSH2 0x2844 JUMP JUMPDEST PUSH1 0x20 DUP3 ADD SWAP1 POP SWAP2 SWAP1 POP JUMP JUMPDEST PUSH1 0x0 PUSH1 0x20 DUP3 ADD SWAP1 POP DUP2 DUP2 SUB PUSH1 0x0 DUP4 ADD MSTORE PUSH2 0x28A9 DUP2 PUSH2 0x286D JUMP JUMPDEST SWAP1 POP SWAP2 SWAP1 POP JUMP JUMPDEST PUSH32 0x456C656374696F6E2068617320616C726561647920656E646564000000000000 PUSH1 0x0 DUP3 ADD MSTORE POP JUMP JUMPDEST PUSH1 0x0 PUSH2 0x28E6 PUSH1 0x1A DUP4 PUSH2 0x22E1 JUMP JUMPDEST SWAP2 POP PUSH2 0x28F1 DUP3 PUSH2 0x28B0 JUMP JUMPDEST PUSH1 0x20 DUP3 ADD SWAP1 POP SWAP2 SWAP1 POP JUMP JUMPDEST PUSH1 0x0 PUSH1 0x20 DUP3 ADD SWAP1 POP DUP2 DUP2 SUB PUSH1 0x0 DUP4 ADD MSTORE PUSH2 0x2915 DUP2 PUSH2 0x28D9 JUMP JUMPDEST SWAP1 POP SWAP2 SWAP1 POP JUMP JUMPDEST PUSH1 0x0 DUP2 SWAP1 POP DUP2 PUSH1 0x0 MSTORE PUSH1 0x20 PUSH1 0x0 KECCAK256 SWAP1 POP SWAP2 SWAP1 POP JUMP JUMPDEST PUSH1 0x0 PUSH1 0x20 PUSH1 0x1F DUP4 ADD DIV SWAP1 POP SWAP2 SWAP1 POP JUMP JUMPDEST PUSH1 0x0 DUP3 DUP3 SHL SWAP1 POP SWAP3 SWAP2 POP POP JUMP JUMPDEST PUSH1 0x0 PUSH1 0x8 DUP4 MUL PUSH2 0x297E PUSH32 0xFFFFFFFFFFFFFFFFFFFFFFFFFFFFFFFFFFFFFFFFFFFFFFFFFFFFFFFFFFFFFFFF DUP3 PUSH2 0x2941 JUMP JUMPDEST PUSH2 0x2988 DUP7 DUP4 PUSH2 0x2941 JUMP JUMPDEST SWAP6 POP DUP1 NOT DUP5 AND SWAP4 POP DUP1 DUP7 AND DUP5 OR SWAP3 POP POP POP SWAP4 SWAP3 POP POP POP JUMP JUMPDEST PUSH1 0x0 DUP2 SWAP1 POP SWAP2 SWAP1 POP JUMP JUMPDEST PUSH1 0x0 PUSH2 0x29C5 PUSH2 0x29C0 PUSH2 0x29BB DUP5 PUSH2 0x232B JUMP JUMPDEST PUSH2 0x29A0 JUMP JUMPDEST PUSH2 0x232B JUMP JUMPDEST SWAP1 POP SWAP2 SWAP1 POP JUMP JUMPDEST PUSH1 0x0 DUP2 SWAP1 POP SWAP2 SWAP1 POP JUMP JUMPDEST PUSH2 0x29DF DUP4 PUSH2 0x29AA JUMP JUMPDEST PUSH2 0x29F3 PUSH2 0x29EB DUP3 PUSH2 0x29CC JUMP JUMPDEST DUP5 DUP5 SLOAD PUSH2 0x294E JUMP JUMPDEST DUP3 SSTORE POP POP POP POP JUMP JUMPDEST PUSH1 0x0 SWAP1 JUMP JUMPDEST PUSH2 0x2A08 PUSH2 0x29FB JUMP JUMPDEST PUSH2 0x2A13 DUP2 DUP5 DUP5 PUSH2 0x29D6 JUMP JUMPDEST POP POP POP JUMP JUMPDEST JUMPDEST DUP2 DUP2 LT ISZERO PUSH2 0x2A37 JUMPI PUSH2 0x2A2C PUSH1 0x0 DUP3 PUSH2 0x2A00 JUMP JUMPDEST PUSH1 0x1 DUP2 ADD SWAP1 POP PUSH2 0x2A19 JUMP JUMPDEST POP POP JUMP JUMPDEST PUSH1 0x1F DUP3 GT ISZERO PUSH2 0x2A7C JUMPI PUSH2 0x2A4D DUP2 PUSH2 0x291C JUMP JUMPDEST PUSH2 0x2A56 DUP5 PUSH2 0x2931 JUMP JUMPDEST DUP2 ADD PUSH1 0x20 DUP6 LT ISZERO PUSH2 0x2A65 JUMPI DUP2 SWAP1 POP JUMPDEST PUSH2 0x2A79 PUSH2 0x2A71 DUP6 PUSH2 0x2931 JUMP JUMPDEST DUP4 ADD DUP3 PUSH2 0x2A18 JUMP JUMPDEST POP POP JUMPDEST POP POP POP JUMP JUMPDEST PUSH1 0x0 DUP3 DUP3 SHR SWAP1 POP SWAP3 SWAP2 POP POP JUMP JUMPDEST PUSH1 0x0 PUSH2 0x2A9F PUSH1 0x0 NOT DUP5 PUSH1 0x8 MUL PUSH2 0x2A81 JUMP JUMPDEST NOT DUP1 DUP4 AND SWAP2 POP POP SWAP3 SWAP2 POP POP JUMP JUMPDEST PUSH1 0x0 PUSH2 0x2AB8 DUP4 DUP4 PUSH2 0x2A8E JUMP JUMPDEST SWAP2 POP DUP3 PUSH1 0x2 MUL DUP3 OR SWAP1 POP SWAP3 SWAP2 POP POP JUMP JUMPDEST PUSH2 0x2AD1 DUP3 PUSH2 0x2120 JUMP JUMPDEST PUSH8 0xFFFFFFFFFFFFFFFF DUP2 GT ISZERO PUSH2 0x2AEA JUMPI PUSH2 0x2AE9 PUSH2 0x1F51 JUMP JUMPDEST JUMPDEST PUSH2 0x2AF4 DUP3 SLOAD PUSH2 0x24CD JUMP JUMPDEST PUSH2 0x2AFF DUP3 DUP3 DUP6 PUSH2 0x2A3B JUMP JUMPDEST PUSH1 0x0 PUSH1 0x20 SWAP1 POP PUSH1 0x1F DUP4 GT PUSH1 0x1 DUP2 EQ PUSH2 0x2B32 JUMPI PUSH1 0x0 DUP5 ISZERO PUSH2 0x2B20 JUMPI DUP3 DUP8 ADD MLOAD SWAP1 POP JUMPDEST PUSH2 0x2B2A DUP6 DUP3 PUSH2 0x2AAC JUMP JUMPDEST DUP7 SSTORE POP PUSH2 0x2B92 JUMP JUMPDEST PUSH1 0x1F NOT DUP5 AND PUSH2 0x2B40 DUP7 PUSH2 0x291C JUMP JUMPDEST PUSH1 0x0 JUMPDEST DUP3 DUP2 LT ISZERO PUSH2 0x2B68 JUMPI DUP5 DUP10 ADD MLOAD DUP3 SSTORE PUSH1 0x1 DUP3 ADD SWAP2 POP PUSH1 0x20 DUP6 ADD SWAP5 POP PUSH1 0x20 DUP2 ADD SWAP1 POP PUSH2 0x2B43 JUMP JUMPDEST DUP7 DUP4 LT ISZERO PUSH2 0x2B85 JUMPI DUP5 DUP10 ADD MLOAD PUSH2 0x2B81 PUSH1 0x1F DUP10 AND DUP3 PUSH2 0x2A8E JUMP JUMPDEST DUP4 SSTORE POP JUMPDEST PUSH1 0x1 PUSH1 0x2 DUP9 MUL ADD DUP9 SSTORE POP POP POP JUMPDEST POP POP POP POP POP POP JUMP JUMPDEST PUSH32 0x43616E64696461746520696E646578206F7574206F662072616E676500000000 PUSH1 0x0 DUP3 ADD MSTORE POP JUMP JUMPDEST PUSH1 0x0 PUSH2 0x2BD0 PUSH1 0x1C DUP4 PUSH2 0x22E1 JUMP JUMPDEST SWAP2 POP PUSH2 0x2BDB DUP3 PUSH2 0x2B9A JUMP JUMPDEST PUSH1 0x20 DUP3 ADD SWAP1 POP SWAP2 SWAP1 POP JUMP JUMPDEST PUSH1 0x0 PUSH1 0x20 DUP3 ADD SWAP1 POP DUP2 DUP2 SUB PUSH1 0x0 DUP4 ADD MSTORE PUSH2 0x2BFF DUP2 PUSH2 0x2BC3 JUMP JUMPDEST SWAP1 POP SWAP2 SWAP1 POP JUMP JUMPDEST PUSH1 0x0 PUSH2 0x2C12 DUP3 DUP5 PUSH2 0x2555 JUMP JUMPDEST SWAP2 POP DUP2 SWAP1 POP SWAP3 SWAP2 POP POP JUMP JUMPDEST PUSH32 0x496E76616C696420696E707574206C656E677468000000000000000000000000 PUSH1 0x0 DUP3 ADD MSTORE POP JUMP JUMPDEST PUSH1 0x0 PUSH2 0x2C53 PUSH1 0x14 DUP4 PUSH2 0x22E1 JUMP JUMPDEST SWAP2 POP PUSH2 0x2C5E DUP3 PUSH2 0x2C1D JUMP JUMPDEST PUSH1 0x20 DUP3 ADD SWAP1 POP SWAP2 SWAP1 POP JUMP JUMPDEST PUSH1 0x0 PUSH1 0x20 DUP3 ADD SWAP1 POP DUP2 DUP2 SUB PUSH1 0x0 DUP4 ADD MSTORE PUSH2 0x2C82 DUP2 PUSH2 0x2C46 JUMP JUMPDEST SWAP1 POP SWAP2 SWAP1 POP JUMP JUMPDEST PUSH1 0x0 PUSH1 0xFF DUP3 AND SWAP1 POP SWAP2 SWAP1 POP JUMP JUMPDEST PUSH1 0x0 PUSH2 0x2CA1 DUP3 PUSH2 0x2C89 JUMP JUMPDEST SWAP2 POP PUSH2 0x2CAC DUP4 PUSH2 0x2C89 JUMP JUMPDEST SWAP3 POP DUP3 DUP3 SUB SWAP1 POP PUSH1 0xFF DUP2 GT ISZERO PUSH2 0x2CC5 JUMPI PUSH2 0x2CC4 PUSH2 0x2663 JUMP JUMPDEST JUMPDEST SWAP3 SWAP2 POP POP JUMP JUMPDEST PUSH32 0x496E76616C69642063686172616374657220696E20696E707574000000000000 PUSH1 0x0 DUP3 ADD MSTORE POP JUMP JUMPDEST PUSH1 0x0 PUSH2 0x2D01 PUSH1 0x1A DUP4 PUSH2 0x22E1 JUMP JUMPDEST SWAP2 POP PUSH2 0x2D0C DUP3 PUSH2 0x2CCB JUMP JUMPDEST PUSH1 0x20 DUP3 ADD SWAP1 POP SWAP2 SWAP1 POP JUMP JUMPDEST PUSH1 0x0 PUSH1 0x20 DUP3 ADD SWAP1 POP DUP2 DUP2 SUB PUSH1 0x0 DUP4 ADD MSTORE PUSH2 0x2D30 DUP2 PUSH2 0x2CF4 JUMP JUMPDEST SWAP1 POP SWAP2 SWAP1 POP JUMP JUMPDEST PUSH1 0x0 PUSH2 0x2D42 DUP3 PUSH2 0x232B JUMP JUMPDEST SWAP2 POP PUSH2 0x2D4D DUP4 PUSH2 0x232B JUMP JUMPDEST SWAP3 POP DUP3 DUP3 MUL PUSH2 0x2D5B DUP2 PUSH2 0x232B JUMP JUMPDEST SWAP2 POP DUP3 DUP3 DIV DUP5 EQ DUP4 ISZERO OR PUSH2 0x2D72 JUMPI PUSH2 0x2D71 PUSH2 0x2663 JUMP JUMPDEST JUMPDEST POP SWAP3 SWAP2 POP POP JUMP JUMPDEST PUSH1 0x0 PUSH2 0x2D84 DUP3 PUSH2 0x232B JUMP JUMPDEST SWAP2 POP PUSH2 0x2D8F DUP4 PUSH2 0x232B JUMP JUMPDEST SWAP3 POP DUP3 DUP3 ADD SWAP1 POP DUP1 DUP3 GT ISZERO PUSH2 0x2DA7 JUMPI PUSH2 0x2DA6 PUSH2 0x2663 JUMP JUMPDEST JUMPDEST SWAP3 SWAP2 POP POP JUMP JUMPDEST PUSH32 0x596F75206861766520616C726561647920766F74656400000000000000000000 PUSH1 0x0 DUP3 ADD MSTORE POP JUMP JUMPDEST PUSH1 0x0 PUSH2 0x2DE3 PUSH1 0x16 DUP4 PUSH2 0x22E1 JUMP JUMPDEST SWAP2 POP PUSH2 0x2DEE DUP3 PUSH2 0x2DAD JUMP JUMPDEST PUSH1 0x20 DUP3 ADD SWAP1 POP SWAP2 SWAP1 POP JUMP JUMPDEST PUSH1 0x0 PUSH1 0x20 DUP3 ADD SWAP1 POP DUP2 DUP2 SUB PUSH1 0x0 DUP4 ADD MSTORE PUSH2 0x2E12 DUP2 PUSH2 0x2DD6 JUMP JUMPDEST SWAP1 POP SWAP2 SWAP1 POP JUMP JUMPDEST PUSH32 0x596F7520617265206E6F74207265676973746572656420766F74657200000000 PUSH1 0x0 DUP3 ADD MSTORE POP JUMP JUMPDEST PUSH1 0x0 PUSH2 0x2E4F PUSH1 0x1C DUP4 PUSH2 0x22E1 JUMP JUMPDEST SWAP2 POP PUSH2 0x2E5A DUP3 PUSH2 0x2E19 JUMP JUMPDEST PUSH1 0x20 DUP3 ADD SWAP1 POP SWAP2 SWAP1 POP JUMP JUMPDEST PUSH1 0x0 PUSH1 0x20 DUP3 ADD SWAP1 POP DUP2 DUP2 SUB PUSH1 0x0 DUP4 ADD MSTORE PUSH2 0x2E7E DUP2 PUSH2 0x2E42 JUMP JUMPDEST SWAP1 POP SWAP2 SWAP1 POP JUMP JUMPDEST PUSH32 0x43616E646964617465206973206E6F7420726567697374657265640000000000 PUSH1 0x0 DUP3 ADD MSTORE POP JUMP JUMPDEST PUSH1 0x0 PUSH2 0x2EBB PUSH1 0x1B DUP4 PUSH2 0x22E1 JUMP JUMPDEST SWAP2 POP PUSH2 0x2EC6 DUP3 PUSH2 0x2E85 JUMP JUMPDEST PUSH1 0x20 DUP3 ADD SWAP1 POP SWAP2 SWAP1 POP JUMP JUMPDEST PUSH1 0x0 PUSH1 0x20 DUP3 ADD SWAP1 POP DUP2 DUP2 SUB PUSH1 0x0 DUP4 ADD MSTORE PUSH2 0x2EEA DUP2 PUSH2 0x2EAE JUMP JUMPDEST SWAP1 POP SWAP2 SWAP1 POP JUMP JUMPDEST PUSH1 0x0 PUSH2 0x2EFC DUP3 PUSH2 0x232B JUMP JUMPDEST SWAP2 POP PUSH2 0x2F07 DUP4 PUSH2 0x232B JUMP JUMPDEST SWAP3 POP DUP3 DUP3 SUB SWAP1 POP DUP2 DUP2 GT ISZERO PUSH2 0x2F1F JUMPI PUSH2 0x2F1E PUSH2 0x2663 JUMP JUMPDEST JUMPDEST SWAP3 SWAP2 POP POP JUMP JUMPDEST PUSH32 0x43686F6F736520446966666572656E74204E616D652E2E2E0000000000000000 PUSH1 0x0 DUP3 ADD MSTORE POP JUMP JUMPDEST PUSH1 0x0 PUSH2 0x2F5B PUSH1 0x18 DUP4 PUSH2 0x22E1 JUMP JUMPDEST SWAP2 POP PUSH2 0x2F66 DUP3 PUSH2 0x2F25 JUMP JUMPDEST PUSH1 0x20 DUP3 ADD SWAP1 POP SWAP2 SWAP1 POP JUMP JUMPDEST PUSH1 0x0 PUSH1 0x20 DUP3 ADD SWAP1 POP DUP2 DUP2 SUB PUSH1 0x0 DUP4 ADD MSTORE PUSH2 0x2F8A DUP2 PUSH2 0x2F4E JUMP JUMPDEST SWAP1 POP SWAP2 SWAP1 POP JUMP INVALID LOG2 PUSH5 0x6970667358 0x22 SLT KECCAK256 STOP CALL NOT ISZERO 0xFB EQ CALLDATALOAD SWAP8 DUP10 BASEFEE 0xC8 0x21 0xE 0x5E SWAP5 0xE5 DUP6 0x2C SELFBALANCE SWAP4 JUMP 0xC1 ADDMOD 0xC7 NOT PUSH15 0xAFBAA35793D064736F6C6343000812 STOP CALLER "
				},
				"gasEstimates": {
					"creation": {
						"codeDepositCost": "2446200",
						"executionCost": "26901",
						"totalCost": "2473101"
					},
					"external": {
						"AllCandidates()": "infinite",
						"Winner()": "infinite",
						"endElection()": "26695",
						"getCandidateById(string)": "infinite",
						"getRegisteredCandidatesCount()": "infinite",
						"registerAsCandidate(string,string)": "infinite",
						"registerAsVoter()": "24522",
						"startElection()": "51034",
						"viewVoterDetails()": "infinite",
						"voteById(string)": "infinite"
					},
					"internal": {
						"compareBytes(bytes memory,bytes memory)": "infinite",
						"compareStrings(string memory,string memory)": "infinite",
						"createId(string memory)": "infinite",
						"getCandidateId(uint256)": "infinite",
						"registerCandidate(address,string memory,string memory)": "infinite",
						"stringToAddress(string memory)": "infinite",
						"vote(address)": "infinite"
					}
				},
				"methodIdentifiers": {
					"AllCandidates()": "1231f78e",
					"Winner()": "b2b98ed2",
					"endElection()": "59f78468",
					"getCandidateById(string)": "567484ee",
					"getRegisteredCandidatesCount()": "66444e86",
					"registerAsCandidate(string,string)": "04b8789b",
					"registerAsVoter()": "78668658",
					"startElection()": "62d73eb8",
					"viewVoterDetails()": "f342c4de",
					"voteById(string)": "f526dab4"
				}
			},
			"storageLayout": {
				"storage": [
					{
						"astId": 3,
						"contract": "VotingSystem.sol:VotingSystem",
						"label": "admin",
						"offset": 0,
						"slot": "0",
						"type": "t_address"
					},
					{
						"astId": 5,
						"contract": "VotingSystem.sol:VotingSystem",
						"label": "electionStarted",
						"offset": 20,
						"slot": "0",
						"type": "t_bool"
					},
					{
						"astId": 7,
						"contract": "VotingSystem.sol:VotingSystem",
						"label": "electionEnded",
						"offset": 21,
						"slot": "0",
						"type": "t_bool"
					},
					{
						"astId": 10,
						"contract": "VotingSystem.sol:VotingSystem",
						"label": "candidateAddresses",
						"offset": 0,
						"slot": "1",
						"type": "t_array(t_address)dyn_storage"
					},
					{
						"astId": 14,
						"contract": "VotingSystem.sol:VotingSystem",
						"label": "registeredVoters",
						"offset": 0,
						"slot": "2",
						"type": "t_mapping(t_address,t_bool)"
					},
					{
						"astId": 18,
						"contract": "VotingSystem.sol:VotingSystem",
						"label": "voted",
						"offset": 0,
						"slot": "3",
						"type": "t_mapping(t_address,t_bool)"
					},
					{
						"astId": 22,
						"contract": "VotingSystem.sol:VotingSystem",
						"label": "registeredCandidates",
						"offset": 0,
						"slot": "4",
						"type": "t_mapping(t_address,t_bool)"
					},
					{
						"astId": 27,
						"contract": "VotingSystem.sol:VotingSystem",
						"label": "candidatesDetails",
						"offset": 0,
						"slot": "5",
						"type": "t_mapping(t_address,t_struct(Candidate)96_storage)"
					}
				],
				"types": {
					"t_address": {
						"encoding": "inplace",
						"label": "address",
						"numberOfBytes": "20"
					},
					"t_array(t_address)dyn_storage": {
						"base": "t_address",
						"encoding": "dynamic_array",
						"label": "address[]",
						"numberOfBytes": "32"
					},
					"t_bool": {
						"encoding": "inplace",
						"label": "bool",
						"numberOfBytes": "1"
					},
					"t_mapping(t_address,t_bool)": {
						"encoding": "mapping",
						"key": "t_address",
						"label": "mapping(address => bool)",
						"numberOfBytes": "32",
						"value": "t_bool"
					},
					"t_mapping(t_address,t_struct(Candidate)96_storage)": {
						"encoding": "mapping",
						"key": "t_address",
						"label": "mapping(address => struct VotingSystem.Candidate)",
						"numberOfBytes": "32",
						"value": "t_struct(Candidate)96_storage"
					},
					"t_string_storage": {
						"encoding": "bytes",
						"label": "string",
						"numberOfBytes": "32"
					},
					"t_struct(Candidate)96_storage": {
						"encoding": "inplace",
						"label": "struct VotingSystem.Candidate",
						"members": [
							{
								"astId": 89,
								"contract": "VotingSystem.sol:VotingSystem",
								"label": "name",
								"offset": 0,
								"slot": "0",
								"type": "t_string_storage"
							},
							{
								"astId": 91,
								"contract": "VotingSystem.sol:VotingSystem",
								"label": "id",
								"offset": 0,
								"slot": "1",
								"type": "t_string_storage"
							},
							{
								"astId": 93,
								"contract": "VotingSystem.sol:VotingSystem",
								"label": "proposal",
								"offset": 0,
								"slot": "2",
								"type": "t_string_storage"
							},
							{
								"astId": 95,
								"contract": "VotingSystem.sol:VotingSystem",
								"label": "votesReceived",
								"offset": 0,
								"slot": "3",
								"type": "t_uint256"
							}
						],
						"numberOfBytes": "128"
					},
					"t_uint256": {
						"encoding": "inplace",
						"label": "uint256",
						"numberOfBytes": "32"
					}
				}
			},
			"userdoc": {
				"kind": "user",
				"methods": {},
				"version": 1
			}
		}
	}
}