{
	"Utils.sol": {
		"Utils": {
			"abi": [
				{
					"inputs": [
						{
							"internalType": "string",
							"name": "_inputString",
							"type": "string"
						}
					],
					"name": "countCharacters",
					"outputs": [
						{
							"internalType": "uint256",
							"name": "",
							"type": "uint256"
						}
					],
					"stateMutability": "pure",
					"type": "function"
				},
				{
					"inputs": [
						{
							"internalType": "string",
							"name": "_input",
							"type": "string"
						}
					],
					"name": "numberOfBytes",
					"outputs": [
						{
							"internalType": "uint256",
							"name": "",
							"type": "uint256"
						}
					],
					"stateMutability": "pure",
					"type": "function"
				},
				{
					"inputs": [
						{
							"internalType": "string",
							"name": "_input",
							"type": "string"
						}
					],
					"name": "stringToAddress",
					"outputs": [
						{
							"internalType": "address",
							"name": "",
							"type": "address"
						}
					],
					"stateMutability": "pure",
					"type": "function"
				}
			],
			"devdoc": {
				"kind": "dev",
				"methods": {},
				"version": 1
			},
			"evm": {
				"assembly": "    /* \"Utils.sol\":62:1283  contract  Utils {... */\n  mstore(0x40, 0x80)\n  callvalue\n  dup1\n  iszero\n  tag_1\n  jumpi\n  0x00\n  dup1\n  revert\ntag_1:\n  pop\n  dataSize(sub_0)\n  dup1\n  dataOffset(sub_0)\n  0x00\n  codecopy\n  0x00\n  return\nstop\n\nsub_0: assembly {\n        /* \"Utils.sol\":62:1283  contract  Utils {... */\n      mstore(0x40, 0x80)\n      callvalue\n      dup1\n      iszero\n      tag_1\n      jumpi\n      0x00\n      dup1\n      revert\n    tag_1:\n      pop\n      jumpi(tag_2, lt(calldatasize, 0x04))\n      shr(0xe0, calldataload(0x00))\n      dup1\n      0x15706fdf\n      eq\n      tag_3\n      jumpi\n      dup1\n      0x943ab9f9\n      eq\n      tag_4\n      jumpi\n      dup1\n      0xd08f258d\n      eq\n      tag_5\n      jumpi\n    tag_2:\n      0x00\n      dup1\n      revert\n        /* \"Utils.sol\":464:1274  function stringToAddress(string memory _input) public pure returns (address) {... */\n    tag_3:\n      tag_6\n      0x04\n      dup1\n      calldatasize\n      sub\n      dup2\n      add\n      swap1\n      tag_7\n      swap2\n      swap1\n      tag_8\n      jump\t// in\n    tag_7:\n      tag_9\n      jump\t// in\n    tag_6:\n      mload(0x40)\n      tag_10\n      swap2\n      swap1\n      tag_11\n      jump\t// in\n    tag_10:\n      mload(0x40)\n      dup1\n      swap2\n      sub\n      swap1\n      return\n        /* \"Utils.sol\":93:277  function countCharacters(string memory _inputString) public pure returns (uint256) {... */\n    tag_4:\n      tag_12\n      0x04\n      dup1\n      calldatasize\n      sub\n      dup2\n      add\n      swap1\n      tag_13\n      swap2\n      swap1\n      tag_8\n      jump\t// in\n    tag_13:\n      tag_14\n      jump\t// in\n    tag_12:\n      mload(0x40)\n      tag_15\n      swap2\n      swap1\n      tag_16\n      jump\t// in\n    tag_15:\n      mload(0x40)\n      dup1\n      swap2\n      sub\n      swap1\n      return\n        /* \"Utils.sol\":285:455  function numberOfBytes(string memory _input) public pure returns (uint256) {... */\n    tag_5:\n      tag_17\n      0x04\n      dup1\n      calldatasize\n      sub\n      dup2\n      add\n      swap1\n      tag_18\n      swap2\n      swap1\n      tag_8\n      jump\t// in\n    tag_18:\n      tag_19\n      jump\t// in\n    tag_17:\n      mload(0x40)\n      tag_20\n      swap2\n      swap1\n      tag_16\n      jump\t// in\n    tag_20:\n      mload(0x40)\n      dup1\n      swap2\n      sub\n      swap1\n      return\n        /* \"Utils.sol\":464:1274  function stringToAddress(string memory _input) public pure returns (address) {... */\n    tag_9:\n        /* \"Utils.sol\":532:539  address */\n      0x00\n        /* \"Utils.sol\":548:571  bytes memory inputBytes */\n      dup1\n        /* \"Utils.sol\":580:586  _input */\n      dup3\n        /* \"Utils.sol\":548:587  bytes memory inputBytes = bytes(_input) */\n      swap1\n      pop\n        /* \"Utils.sol\":623:625  42 */\n      0x2a\n        /* \"Utils.sol\":602:612  inputBytes */\n      dup2\n        /* \"Utils.sol\":602:619  inputBytes.length */\n      mload\n        /* \"Utils.sol\":602:625  inputBytes.length == 42 */\n      eq\n        /* \"Utils.sol\":594:650  require(inputBytes.length == 42, \"Invalid input length\") */\n      tag_22\n      jumpi\n      mload(0x40)\n      0x08c379a000000000000000000000000000000000000000000000000000000000\n      dup2\n      mstore\n      0x04\n      add\n      tag_23\n      swap1\n      tag_24\n      jump\t// in\n    tag_23:\n      mload(0x40)\n      dup1\n      swap2\n      sub\n      swap1\n      revert\n    tag_22:\n        /* \"Utils.sol\":659:670  uint result */\n      0x00\n        /* \"Utils.sol\":681:695  uint charValue */\n      dup1\n        /* \"Utils.sol\":709:715  uint i */\n      dup1\n        /* \"Utils.sol\":718:719  2 */\n      0x02\n        /* \"Utils.sol\":709:719  uint i = 2 */\n      swap1\n      pop\n        /* \"Utils.sol\":704:1229  for (uint i = 2; i < inputBytes.length; i++) {... */\n    tag_25:\n        /* \"Utils.sol\":725:735  inputBytes */\n      dup4\n        /* \"Utils.sol\":725:742  inputBytes.length */\n      mload\n        /* \"Utils.sol\":721:722  i */\n      dup2\n        /* \"Utils.sol\":721:742  i < inputBytes.length */\n      lt\n        /* \"Utils.sol\":704:1229  for (uint i = 2; i < inputBytes.length; i++) {... */\n      iszero\n      tag_26\n      jumpi\n        /* \"Utils.sol\":760:771  uint8 digit */\n      0x00\n        /* \"Utils.sol\":780:790  inputBytes */\n      dup5\n        /* \"Utils.sol\":791:792  i */\n      dup3\n        /* \"Utils.sol\":780:793  inputBytes[i] */\n      dup2\n      mload\n      dup2\n      lt\n      tag_28\n      jumpi\n      tag_29\n      tag_30\n      jump\t// in\n    tag_29:\n    tag_28:\n      0x20\n      add\n      add\n      mload\n      0xf8\n      shr\n      0xf8\n      shl\n        /* \"Utils.sol\":774:794  uint8(inputBytes[i]) */\n      0xf8\n      shr\n        /* \"Utils.sol\":760:794  uint8 digit = uint8(inputBytes[i]) */\n      swap1\n      pop\n        /* \"Utils.sol\":820:822  48 */\n      0x30\n        /* \"Utils.sol\":811:816  digit */\n      dup2\n        /* \"Utils.sol\":811:822  digit >= 48 */\n      0xff\n      and\n      lt\n      iszero\n        /* \"Utils.sol\":811:837  digit >= 48 && digit <= 57 */\n      dup1\n      iszero\n      tag_31\n      jumpi\n      pop\n        /* \"Utils.sol\":835:837  57 */\n      0x39\n        /* \"Utils.sol\":826:831  digit */\n      dup2\n        /* \"Utils.sol\":826:837  digit <= 57 */\n      0xff\n      and\n      gt\n      iszero\n        /* \"Utils.sol\":811:837  digit >= 48 && digit <= 57 */\n    tag_31:\n        /* \"Utils.sol\":807:1177  if (digit >= 48 && digit <= 57) {... */\n      iszero\n      tag_32\n      jumpi\n        /* \"Utils.sol\":874:876  48 */\n      0x30\n        /* \"Utils.sol\":866:871  digit */\n      dup2\n        /* \"Utils.sol\":866:876  digit - 48 */\n      tag_33\n      swap2\n      swap1\n      tag_34\n      jump\t// in\n    tag_33:\n        /* \"Utils.sol\":854:876  charValue = digit - 48 */\n      0xff\n      and\n      swap3\n      pop\n        /* \"Utils.sol\":807:1177  if (digit >= 48 && digit <= 57) {... */\n      jump(tag_35)\n    tag_32:\n        /* \"Utils.sol\":922:924  65 */\n      0x41\n        /* \"Utils.sol\":913:918  digit */\n      dup2\n        /* \"Utils.sol\":913:924  digit >= 65 */\n      0xff\n      and\n      lt\n      iszero\n        /* \"Utils.sol\":913:939  digit >= 65 && digit <= 70 */\n      dup1\n      iszero\n      tag_36\n      jumpi\n      pop\n        /* \"Utils.sol\":937:939  70 */\n      0x46\n        /* \"Utils.sol\":928:933  digit */\n      dup2\n        /* \"Utils.sol\":928:939  digit <= 70 */\n      0xff\n      and\n      gt\n      iszero\n        /* \"Utils.sol\":913:939  digit >= 65 && digit <= 70 */\n    tag_36:\n        /* \"Utils.sol\":909:1177  if (digit >= 65 && digit <= 70) {... */\n      iszero\n      tag_37\n      jumpi\n        /* \"Utils.sol\":976:978  55 */\n      0x37\n        /* \"Utils.sol\":968:973  digit */\n      dup2\n        /* \"Utils.sol\":968:978  digit - 55 */\n      tag_38\n      swap2\n      swap1\n      tag_34\n      jump\t// in\n    tag_38:\n        /* \"Utils.sol\":956:978  charValue = digit - 55 */\n      0xff\n      and\n      swap3\n      pop\n        /* \"Utils.sol\":909:1177  if (digit >= 65 && digit <= 70) {... */\n      jump(tag_39)\n    tag_37:\n        /* \"Utils.sol\":1024:1026  97 */\n      0x61\n        /* \"Utils.sol\":1015:1020  digit */\n      dup2\n        /* \"Utils.sol\":1015:1026  digit >= 97 */\n      0xff\n      and\n      lt\n      iszero\n        /* \"Utils.sol\":1015:1042  digit >= 97 && digit <= 102 */\n      dup1\n      iszero\n      tag_40\n      jumpi\n      pop\n        /* \"Utils.sol\":1039:1042  102 */\n      0x66\n        /* \"Utils.sol\":1030:1035  digit */\n      dup2\n        /* \"Utils.sol\":1030:1042  digit <= 102 */\n      0xff\n      and\n      gt\n      iszero\n        /* \"Utils.sol\":1015:1042  digit >= 97 && digit <= 102 */\n    tag_40:\n        /* \"Utils.sol\":1011:1177  if (digit >= 97 && digit <= 102) {... */\n      iszero\n      tag_41\n      jumpi\n        /* \"Utils.sol\":1079:1081  87 */\n      0x57\n        /* \"Utils.sol\":1071:1076  digit */\n      dup2\n        /* \"Utils.sol\":1071:1081  digit - 87 */\n      tag_42\n      swap2\n      swap1\n      tag_34\n      jump\t// in\n    tag_42:\n        /* \"Utils.sol\":1059:1081  charValue = digit - 87 */\n      0xff\n      and\n      swap3\n      pop\n        /* \"Utils.sol\":1011:1177  if (digit >= 97 && digit <= 102) {... */\n      jump(tag_43)\n    tag_41:\n        /* \"Utils.sol\":1129:1165  revert(\"Invalid character in input\") */\n      mload(0x40)\n      0x08c379a000000000000000000000000000000000000000000000000000000000\n      dup2\n      mstore\n      0x04\n      add\n      tag_44\n      swap1\n      tag_45\n      jump\t// in\n    tag_44:\n      mload(0x40)\n      dup1\n      swap2\n      sub\n      swap1\n      revert\n        /* \"Utils.sol\":1011:1177  if (digit >= 97 && digit <= 102) {... */\n    tag_43:\n        /* \"Utils.sol\":909:1177  if (digit >= 65 && digit <= 70) {... */\n    tag_39:\n        /* \"Utils.sol\":807:1177  if (digit >= 48 && digit <= 57) {... */\n    tag_35:\n        /* \"Utils.sol\":1212:1221  charValue */\n      dup3\n        /* \"Utils.sol\":1207:1209  16 */\n      0x10\n        /* \"Utils.sol\":1198:1204  result */\n      dup6\n        /* \"Utils.sol\":1198:1209  result * 16 */\n      tag_46\n      swap2\n      swap1\n      tag_47\n      jump\t// in\n    tag_46:\n        /* \"Utils.sol\":1198:1221  result * 16 + charValue */\n      tag_48\n      swap2\n      swap1\n      tag_49\n      jump\t// in\n    tag_48:\n        /* \"Utils.sol\":1189:1221  result = result * 16 + charValue */\n      swap4\n      pop\n        /* \"Utils.sol\":749:1229  {... */\n      pop\n        /* \"Utils.sol\":744:747  i++ */\n      dup1\n      dup1\n      tag_50\n      swap1\n      tag_51\n      jump\t// in\n    tag_50:\n      swap2\n      pop\n      pop\n        /* \"Utils.sol\":704:1229  for (uint i = 2; i < inputBytes.length; i++) {... */\n      jump(tag_25)\n    tag_26:\n      pop\n        /* \"Utils.sol\":1261:1267  result */\n      dup2\n        /* \"Utils.sol\":1237:1270  return (address(uint160(result))) */\n      swap4\n      pop\n      pop\n      pop\n      pop\n        /* \"Utils.sol\":464:1274  function stringToAddress(string memory _input) public pure returns (address) {... */\n      swap2\n      swap1\n      pop\n      jump\t// out\n        /* \"Utils.sol\":93:277  function countCharacters(string memory _inputString) public pure returns (uint256) {... */\n    tag_14:\n        /* \"Utils.sol\":167:174  uint256 */\n      0x00\n        /* \"Utils.sol\":187:211  bytes memory stringBytes */\n      dup1\n        /* \"Utils.sol\":220:232  _inputString */\n      dup3\n        /* \"Utils.sol\":187:233  bytes memory stringBytes = bytes(_inputString) */\n      swap1\n      pop\n        /* \"Utils.sol\":251:262  stringBytes */\n      dup1\n        /* \"Utils.sol\":251:269  stringBytes.length */\n      mload\n        /* \"Utils.sol\":244:269  return stringBytes.length */\n      swap2\n      pop\n      pop\n        /* \"Utils.sol\":93:277  function countCharacters(string memory _inputString) public pure returns (uint256) {... */\n      swap2\n      swap1\n      pop\n      jump\t// out\n        /* \"Utils.sol\":285:455  function numberOfBytes(string memory _input) public pure returns (uint256) {... */\n    tag_19:\n        /* \"Utils.sol\":351:358  uint256 */\n      0x00\n        /* \"Utils.sol\":371:395  bytes memory stringBytes */\n      dup1\n        /* \"Utils.sol\":404:410  _input */\n      dup3\n        /* \"Utils.sol\":371:411  bytes memory stringBytes = bytes(_input) */\n      swap1\n      pop\n        /* \"Utils.sol\":429:440  stringBytes */\n      dup1\n        /* \"Utils.sol\":429:447  stringBytes.length */\n      mload\n        /* \"Utils.sol\":422:447  return stringBytes.length */\n      swap2\n      pop\n      pop\n        /* \"Utils.sol\":285:455  function numberOfBytes(string memory _input) public pure returns (uint256) {... */\n      swap2\n      swap1\n      pop\n      jump\t// out\n        /* \"#utility.yul\":7:82   */\n    tag_54:\n        /* \"#utility.yul\":40:46   */\n      0x00\n        /* \"#utility.yul\":73:75   */\n      0x40\n        /* \"#utility.yul\":67:76   */\n      mload\n        /* \"#utility.yul\":57:76   */\n      swap1\n      pop\n        /* \"#utility.yul\":7:82   */\n      swap1\n      jump\t// out\n        /* \"#utility.yul\":88:205   */\n    tag_55:\n        /* \"#utility.yul\":197:198   */\n      0x00\n        /* \"#utility.yul\":194:195   */\n      dup1\n        /* \"#utility.yul\":187:199   */\n      revert\n        /* \"#utility.yul\":211:328   */\n    tag_56:\n        /* \"#utility.yul\":320:321   */\n      0x00\n        /* \"#utility.yul\":317:318   */\n      dup1\n        /* \"#utility.yul\":310:322   */\n      revert\n        /* \"#utility.yul\":334:451   */\n    tag_57:\n        /* \"#utility.yul\":443:444   */\n      0x00\n        /* \"#utility.yul\":440:441   */\n      dup1\n        /* \"#utility.yul\":433:445   */\n      revert\n        /* \"#utility.yul\":457:574   */\n    tag_58:\n        /* \"#utility.yul\":566:567   */\n      0x00\n        /* \"#utility.yul\":563:564   */\n      dup1\n        /* \"#utility.yul\":556:568   */\n      revert\n        /* \"#utility.yul\":580:682   */\n    tag_59:\n        /* \"#utility.yul\":621:627   */\n      0x00\n        /* \"#utility.yul\":672:674   */\n      0x1f\n        /* \"#utility.yul\":668:675   */\n      not\n        /* \"#utility.yul\":663:665   */\n      0x1f\n        /* \"#utility.yul\":656:661   */\n      dup4\n        /* \"#utility.yul\":652:666   */\n      add\n        /* \"#utility.yul\":648:676   */\n      and\n        /* \"#utility.yul\":638:676   */\n      swap1\n      pop\n        /* \"#utility.yul\":580:682   */\n      swap2\n      swap1\n      pop\n      jump\t// out\n        /* \"#utility.yul\":688:868   */\n    tag_60:\n        /* \"#utility.yul\":736:813   */\n      0x4e487b7100000000000000000000000000000000000000000000000000000000\n        /* \"#utility.yul\":733:734   */\n      0x00\n        /* \"#utility.yul\":726:814   */\n      mstore\n        /* \"#utility.yul\":833:837   */\n      0x41\n        /* \"#utility.yul\":830:831   */\n      0x04\n        /* \"#utility.yul\":823:838   */\n      mstore\n        /* \"#utility.yul\":857:861   */\n      0x24\n        /* \"#utility.yul\":854:855   */\n      0x00\n        /* \"#utility.yul\":847:862   */\n      revert\n        /* \"#utility.yul\":874:1155   */\n    tag_61:\n        /* \"#utility.yul\":957:984   */\n      tag_88\n        /* \"#utility.yul\":979:983   */\n      dup3\n        /* \"#utility.yul\":957:984   */\n      tag_59\n      jump\t// in\n    tag_88:\n        /* \"#utility.yul\":949:955   */\n      dup2\n        /* \"#utility.yul\":945:985   */\n      add\n        /* \"#utility.yul\":1087:1093   */\n      dup2\n        /* \"#utility.yul\":1075:1085   */\n      dup2\n        /* \"#utility.yul\":1072:1094   */\n      lt\n        /* \"#utility.yul\":1051:1069   */\n      0xffffffffffffffff\n        /* \"#utility.yul\":1039:1049   */\n      dup3\n        /* \"#utility.yul\":1036:1070   */\n      gt\n        /* \"#utility.yul\":1033:1095   */\n      or\n        /* \"#utility.yul\":1030:1118   */\n      iszero\n      tag_89\n      jumpi\n        /* \"#utility.yul\":1098:1116   */\n      tag_90\n      tag_60\n      jump\t// in\n    tag_90:\n        /* \"#utility.yul\":1030:1118   */\n    tag_89:\n        /* \"#utility.yul\":1138:1148   */\n      dup1\n        /* \"#utility.yul\":1134:1136   */\n      0x40\n        /* \"#utility.yul\":1127:1149   */\n      mstore\n        /* \"#utility.yul\":917:1155   */\n      pop\n        /* \"#utility.yul\":874:1155   */\n      pop\n      pop\n      jump\t// out\n        /* \"#utility.yul\":1161:1290   */\n    tag_62:\n        /* \"#utility.yul\":1195:1201   */\n      0x00\n        /* \"#utility.yul\":1222:1242   */\n      tag_92\n      tag_54\n      jump\t// in\n    tag_92:\n        /* \"#utility.yul\":1212:1242   */\n      swap1\n      pop\n        /* \"#utility.yul\":1251:1284   */\n      tag_93\n        /* \"#utility.yul\":1279:1283   */\n      dup3\n        /* \"#utility.yul\":1271:1277   */\n      dup3\n        /* \"#utility.yul\":1251:1284   */\n      tag_61\n      jump\t// in\n    tag_93:\n        /* \"#utility.yul\":1161:1290   */\n      swap2\n      swap1\n      pop\n      jump\t// out\n        /* \"#utility.yul\":1296:1604   */\n    tag_63:\n        /* \"#utility.yul\":1358:1362   */\n      0x00\n        /* \"#utility.yul\":1448:1466   */\n      0xffffffffffffffff\n        /* \"#utility.yul\":1440:1446   */\n      dup3\n        /* \"#utility.yul\":1437:1467   */\n      gt\n        /* \"#utility.yul\":1434:1490   */\n      iszero\n      tag_95\n      jumpi\n        /* \"#utility.yul\":1470:1488   */\n      tag_96\n      tag_60\n      jump\t// in\n    tag_96:\n        /* \"#utility.yul\":1434:1490   */\n    tag_95:\n        /* \"#utility.yul\":1508:1537   */\n      tag_97\n        /* \"#utility.yul\":1530:1536   */\n      dup3\n        /* \"#utility.yul\":1508:1537   */\n      tag_59\n      jump\t// in\n    tag_97:\n        /* \"#utility.yul\":1500:1537   */\n      swap1\n      pop\n        /* \"#utility.yul\":1592:1596   */\n      0x20\n        /* \"#utility.yul\":1586:1590   */\n      dup2\n        /* \"#utility.yul\":1582:1597   */\n      add\n        /* \"#utility.yul\":1574:1597   */\n      swap1\n      pop\n        /* \"#utility.yul\":1296:1604   */\n      swap2\n      swap1\n      pop\n      jump\t// out\n        /* \"#utility.yul\":1610:1756   */\n    tag_64:\n        /* \"#utility.yul\":1707:1713   */\n      dup3\n        /* \"#utility.yul\":1702:1705   */\n      dup2\n        /* \"#utility.yul\":1697:1700   */\n      dup4\n        /* \"#utility.yul\":1684:1714   */\n      calldatacopy\n        /* \"#utility.yul\":1748:1749   */\n      0x00\n        /* \"#utility.yul\":1739:1745   */\n      dup4\n        /* \"#utility.yul\":1734:1737   */\n      dup4\n        /* \"#utility.yul\":1730:1746   */\n      add\n        /* \"#utility.yul\":1723:1750   */\n      mstore\n        /* \"#utility.yul\":1610:1756   */\n      pop\n      pop\n      pop\n      jump\t// out\n        /* \"#utility.yul\":1762:2187   */\n    tag_65:\n        /* \"#utility.yul\":1840:1845   */\n      0x00\n        /* \"#utility.yul\":1865:1931   */\n      tag_100\n        /* \"#utility.yul\":1881:1930   */\n      tag_101\n        /* \"#utility.yul\":1923:1929   */\n      dup5\n        /* \"#utility.yul\":1881:1930   */\n      tag_63\n      jump\t// in\n    tag_101:\n        /* \"#utility.yul\":1865:1931   */\n      tag_62\n      jump\t// in\n    tag_100:\n        /* \"#utility.yul\":1856:1931   */\n      swap1\n      pop\n        /* \"#utility.yul\":1954:1960   */\n      dup3\n        /* \"#utility.yul\":1947:1952   */\n      dup2\n        /* \"#utility.yul\":1940:1961   */\n      mstore\n        /* \"#utility.yul\":1992:1996   */\n      0x20\n        /* \"#utility.yul\":1985:1990   */\n      dup2\n        /* \"#utility.yul\":1981:1997   */\n      add\n        /* \"#utility.yul\":2030:2033   */\n      dup5\n        /* \"#utility.yul\":2021:2027   */\n      dup5\n        /* \"#utility.yul\":2016:2019   */\n      dup5\n        /* \"#utility.yul\":2012:2028   */\n      add\n        /* \"#utility.yul\":2009:2034   */\n      gt\n        /* \"#utility.yul\":2006:2118   */\n      iszero\n      tag_102\n      jumpi\n        /* \"#utility.yul\":2037:2116   */\n      tag_103\n      tag_58\n      jump\t// in\n    tag_103:\n        /* \"#utility.yul\":2006:2118   */\n    tag_102:\n        /* \"#utility.yul\":2127:2181   */\n      tag_104\n        /* \"#utility.yul\":2174:2180   */\n      dup5\n        /* \"#utility.yul\":2169:2172   */\n      dup3\n        /* \"#utility.yul\":2164:2167   */\n      dup6\n        /* \"#utility.yul\":2127:2181   */\n      tag_64\n      jump\t// in\n    tag_104:\n        /* \"#utility.yul\":1846:2187   */\n      pop\n        /* \"#utility.yul\":1762:2187   */\n      swap4\n      swap3\n      pop\n      pop\n      pop\n      jump\t// out\n        /* \"#utility.yul\":2207:2547   */\n    tag_66:\n        /* \"#utility.yul\":2263:2268   */\n      0x00\n        /* \"#utility.yul\":2312:2315   */\n      dup3\n        /* \"#utility.yul\":2305:2309   */\n      0x1f\n        /* \"#utility.yul\":2297:2303   */\n      dup4\n        /* \"#utility.yul\":2293:2310   */\n      add\n        /* \"#utility.yul\":2289:2316   */\n      slt\n        /* \"#utility.yul\":2279:2401   */\n      tag_106\n      jumpi\n        /* \"#utility.yul\":2320:2399   */\n      tag_107\n      tag_57\n      jump\t// in\n    tag_107:\n        /* \"#utility.yul\":2279:2401   */\n    tag_106:\n        /* \"#utility.yul\":2437:2443   */\n      dup2\n        /* \"#utility.yul\":2424:2444   */\n      calldataload\n        /* \"#utility.yul\":2462:2541   */\n      tag_108\n        /* \"#utility.yul\":2537:2540   */\n      dup5\n        /* \"#utility.yul\":2529:2535   */\n      dup3\n        /* \"#utility.yul\":2522:2526   */\n      0x20\n        /* \"#utility.yul\":2514:2520   */\n      dup7\n        /* \"#utility.yul\":2510:2527   */\n      add\n        /* \"#utility.yul\":2462:2541   */\n      tag_65\n      jump\t// in\n    tag_108:\n        /* \"#utility.yul\":2453:2541   */\n      swap2\n      pop\n        /* \"#utility.yul\":2269:2547   */\n      pop\n        /* \"#utility.yul\":2207:2547   */\n      swap3\n      swap2\n      pop\n      pop\n      jump\t// out\n        /* \"#utility.yul\":2553:3062   */\n    tag_8:\n        /* \"#utility.yul\":2622:2628   */\n      0x00\n        /* \"#utility.yul\":2671:2673   */\n      0x20\n        /* \"#utility.yul\":2659:2668   */\n      dup3\n        /* \"#utility.yul\":2650:2657   */\n      dup5\n        /* \"#utility.yul\":2646:2669   */\n      sub\n        /* \"#utility.yul\":2642:2674   */\n      slt\n        /* \"#utility.yul\":2639:2758   */\n      iszero\n      tag_110\n      jumpi\n        /* \"#utility.yul\":2677:2756   */\n      tag_111\n      tag_55\n      jump\t// in\n    tag_111:\n        /* \"#utility.yul\":2639:2758   */\n    tag_110:\n        /* \"#utility.yul\":2825:2826   */\n      0x00\n        /* \"#utility.yul\":2814:2823   */\n      dup3\n        /* \"#utility.yul\":2810:2827   */\n      add\n        /* \"#utility.yul\":2797:2828   */\n      calldataload\n        /* \"#utility.yul\":2855:2873   */\n      0xffffffffffffffff\n        /* \"#utility.yul\":2847:2853   */\n      dup2\n        /* \"#utility.yul\":2844:2874   */\n      gt\n        /* \"#utility.yul\":2841:2958   */\n      iszero\n      tag_112\n      jumpi\n        /* \"#utility.yul\":2877:2956   */\n      tag_113\n      tag_56\n      jump\t// in\n    tag_113:\n        /* \"#utility.yul\":2841:2958   */\n    tag_112:\n        /* \"#utility.yul\":2982:3045   */\n      tag_114\n        /* \"#utility.yul\":3037:3044   */\n      dup5\n        /* \"#utility.yul\":3028:3034   */\n      dup3\n        /* \"#utility.yul\":3017:3026   */\n      dup6\n        /* \"#utility.yul\":3013:3035   */\n      add\n        /* \"#utility.yul\":2982:3045   */\n      tag_66\n      jump\t// in\n    tag_114:\n        /* \"#utility.yul\":2972:3045   */\n      swap2\n      pop\n        /* \"#utility.yul\":2768:3055   */\n      pop\n        /* \"#utility.yul\":2553:3062   */\n      swap3\n      swap2\n      pop\n      pop\n      jump\t// out\n        /* \"#utility.yul\":3068:3194   */\n    tag_67:\n        /* \"#utility.yul\":3105:3112   */\n      0x00\n        /* \"#utility.yul\":3145:3187   */\n      0xffffffffffffffffffffffffffffffffffffffff\n        /* \"#utility.yul\":3138:3143   */\n      dup3\n        /* \"#utility.yul\":3134:3188   */\n      and\n        /* \"#utility.yul\":3123:3188   */\n      swap1\n      pop\n        /* \"#utility.yul\":3068:3194   */\n      swap2\n      swap1\n      pop\n      jump\t// out\n        /* \"#utility.yul\":3200:3296   */\n    tag_68:\n        /* \"#utility.yul\":3237:3244   */\n      0x00\n        /* \"#utility.yul\":3266:3290   */\n      tag_117\n        /* \"#utility.yul\":3284:3289   */\n      dup3\n        /* \"#utility.yul\":3266:3290   */\n      tag_67\n      jump\t// in\n    tag_117:\n        /* \"#utility.yul\":3255:3290   */\n      swap1\n      pop\n        /* \"#utility.yul\":3200:3296   */\n      swap2\n      swap1\n      pop\n      jump\t// out\n        /* \"#utility.yul\":3302:3420   */\n    tag_69:\n        /* \"#utility.yul\":3389:3413   */\n      tag_119\n        /* \"#utility.yul\":3407:3412   */\n      dup2\n        /* \"#utility.yul\":3389:3413   */\n      tag_68\n      jump\t// in\n    tag_119:\n        /* \"#utility.yul\":3384:3387   */\n      dup3\n        /* \"#utility.yul\":3377:3414   */\n      mstore\n        /* \"#utility.yul\":3302:3420   */\n      pop\n      pop\n      jump\t// out\n        /* \"#utility.yul\":3426:3648   */\n    tag_11:\n        /* \"#utility.yul\":3519:3523   */\n      0x00\n        /* \"#utility.yul\":3557:3559   */\n      0x20\n        /* \"#utility.yul\":3546:3555   */\n      dup3\n        /* \"#utility.yul\":3542:3560   */\n      add\n        /* \"#utility.yul\":3534:3560   */\n      swap1\n      pop\n        /* \"#utility.yul\":3570:3641   */\n      tag_121\n        /* \"#utility.yul\":3638:3639   */\n      0x00\n        /* \"#utility.yul\":3627:3636   */\n      dup4\n        /* \"#utility.yul\":3623:3640   */\n      add\n        /* \"#utility.yul\":3614:3620   */\n      dup5\n        /* \"#utility.yul\":3570:3641   */\n      tag_69\n      jump\t// in\n    tag_121:\n        /* \"#utility.yul\":3426:3648   */\n      swap3\n      swap2\n      pop\n      pop\n      jump\t// out\n        /* \"#utility.yul\":3654:3731   */\n    tag_70:\n        /* \"#utility.yul\":3691:3698   */\n      0x00\n        /* \"#utility.yul\":3720:3725   */\n      dup2\n        /* \"#utility.yul\":3709:3725   */\n      swap1\n      pop\n        /* \"#utility.yul\":3654:3731   */\n      swap2\n      swap1\n      pop\n      jump\t// out\n        /* \"#utility.yul\":3737:3855   */\n    tag_71:\n        /* \"#utility.yul\":3824:3848   */\n      tag_124\n        /* \"#utility.yul\":3842:3847   */\n      dup2\n        /* \"#utility.yul\":3824:3848   */\n      tag_70\n      jump\t// in\n    tag_124:\n        /* \"#utility.yul\":3819:3822   */\n      dup3\n        /* \"#utility.yul\":3812:3849   */\n      mstore\n        /* \"#utility.yul\":3737:3855   */\n      pop\n      pop\n      jump\t// out\n        /* \"#utility.yul\":3861:4083   */\n    tag_16:\n        /* \"#utility.yul\":3954:3958   */\n      0x00\n        /* \"#utility.yul\":3992:3994   */\n      0x20\n        /* \"#utility.yul\":3981:3990   */\n      dup3\n        /* \"#utility.yul\":3977:3995   */\n      add\n        /* \"#utility.yul\":3969:3995   */\n      swap1\n      pop\n        /* \"#utility.yul\":4005:4076   */\n      tag_126\n        /* \"#utility.yul\":4073:4074   */\n      0x00\n        /* \"#utility.yul\":4062:4071   */\n      dup4\n        /* \"#utility.yul\":4058:4075   */\n      add\n        /* \"#utility.yul\":4049:4055   */\n      dup5\n        /* \"#utility.yul\":4005:4076   */\n      tag_71\n      jump\t// in\n    tag_126:\n        /* \"#utility.yul\":3861:4083   */\n      swap3\n      swap2\n      pop\n      pop\n      jump\t// out\n        /* \"#utility.yul\":4089:4258   */\n    tag_72:\n        /* \"#utility.yul\":4173:4184   */\n      0x00\n        /* \"#utility.yul\":4207:4213   */\n      dup3\n        /* \"#utility.yul\":4202:4205   */\n      dup3\n        /* \"#utility.yul\":4195:4214   */\n      mstore\n        /* \"#utility.yul\":4247:4251   */\n      0x20\n        /* \"#utility.yul\":4242:4245   */\n      dup3\n        /* \"#utility.yul\":4238:4252   */\n      add\n        /* \"#utility.yul\":4223:4252   */\n      swap1\n      pop\n        /* \"#utility.yul\":4089:4258   */\n      swap3\n      swap2\n      pop\n      pop\n      jump\t// out\n        /* \"#utility.yul\":4264:4434   */\n    tag_73:\n        /* \"#utility.yul\":4404:4426   */\n      0x496e76616c696420696e707574206c656e677468000000000000000000000000\n        /* \"#utility.yul\":4400:4401   */\n      0x00\n        /* \"#utility.yul\":4392:4398   */\n      dup3\n        /* \"#utility.yul\":4388:4402   */\n      add\n        /* \"#utility.yul\":4381:4427   */\n      mstore\n        /* \"#utility.yul\":4264:4434   */\n      pop\n      jump\t// out\n        /* \"#utility.yul\":4440:4806   */\n    tag_74:\n        /* \"#utility.yul\":4582:4585   */\n      0x00\n        /* \"#utility.yul\":4603:4670   */\n      tag_130\n        /* \"#utility.yul\":4667:4669   */\n      0x14\n        /* \"#utility.yul\":4662:4665   */\n      dup4\n        /* \"#utility.yul\":4603:4670   */\n      tag_72\n      jump\t// in\n    tag_130:\n        /* \"#utility.yul\":4596:4670   */\n      swap2\n      pop\n        /* \"#utility.yul\":4679:4772   */\n      tag_131\n        /* \"#utility.yul\":4768:4771   */\n      dup3\n        /* \"#utility.yul\":4679:4772   */\n      tag_73\n      jump\t// in\n    tag_131:\n        /* \"#utility.yul\":4797:4799   */\n      0x20\n        /* \"#utility.yul\":4792:4795   */\n      dup3\n        /* \"#utility.yul\":4788:4800   */\n      add\n        /* \"#utility.yul\":4781:4800   */\n      swap1\n      pop\n        /* \"#utility.yul\":4440:4806   */\n      swap2\n      swap1\n      pop\n      jump\t// out\n        /* \"#utility.yul\":4812:5231   */\n    tag_24:\n        /* \"#utility.yul\":4978:4982   */\n      0x00\n        /* \"#utility.yul\":5016:5018   */\n      0x20\n        /* \"#utility.yul\":5005:5014   */\n      dup3\n        /* \"#utility.yul\":5001:5019   */\n      add\n        /* \"#utility.yul\":4993:5019   */\n      swap1\n      pop\n        /* \"#utility.yul\":5065:5074   */\n      dup2\n        /* \"#utility.yul\":5059:5063   */\n      dup2\n        /* \"#utility.yul\":5055:5075   */\n      sub\n        /* \"#utility.yul\":5051:5052   */\n      0x00\n        /* \"#utility.yul\":5040:5049   */\n      dup4\n        /* \"#utility.yul\":5036:5053   */\n      add\n        /* \"#utility.yul\":5029:5076   */\n      mstore\n        /* \"#utility.yul\":5093:5224   */\n      tag_133\n        /* \"#utility.yul\":5219:5223   */\n      dup2\n        /* \"#utility.yul\":5093:5224   */\n      tag_74\n      jump\t// in\n    tag_133:\n        /* \"#utility.yul\":5085:5224   */\n      swap1\n      pop\n        /* \"#utility.yul\":4812:5231   */\n      swap2\n      swap1\n      pop\n      jump\t// out\n        /* \"#utility.yul\":5237:5417   */\n    tag_30:\n        /* \"#utility.yul\":5285:5362   */\n      0x4e487b7100000000000000000000000000000000000000000000000000000000\n        /* \"#utility.yul\":5282:5283   */\n      0x00\n        /* \"#utility.yul\":5275:5363   */\n      mstore\n        /* \"#utility.yul\":5382:5386   */\n      0x32\n        /* \"#utility.yul\":5379:5380   */\n      0x04\n        /* \"#utility.yul\":5372:5387   */\n      mstore\n        /* \"#utility.yul\":5406:5410   */\n      0x24\n        /* \"#utility.yul\":5403:5404   */\n      0x00\n        /* \"#utility.yul\":5396:5411   */\n      revert\n        /* \"#utility.yul\":5423:5509   */\n    tag_75:\n        /* \"#utility.yul\":5458:5465   */\n      0x00\n        /* \"#utility.yul\":5498:5502   */\n      0xff\n        /* \"#utility.yul\":5491:5496   */\n      dup3\n        /* \"#utility.yul\":5487:5503   */\n      and\n        /* \"#utility.yul\":5476:5503   */\n      swap1\n      pop\n        /* \"#utility.yul\":5423:5509   */\n      swap2\n      swap1\n      pop\n      jump\t// out\n        /* \"#utility.yul\":5515:5695   */\n    tag_76:\n        /* \"#utility.yul\":5563:5640   */\n      0x4e487b7100000000000000000000000000000000000000000000000000000000\n        /* \"#utility.yul\":5560:5561   */\n      0x00\n        /* \"#utility.yul\":5553:5641   */\n      mstore\n        /* \"#utility.yul\":5660:5664   */\n      0x11\n        /* \"#utility.yul\":5657:5658   */\n      0x04\n        /* \"#utility.yul\":5650:5665   */\n      mstore\n        /* \"#utility.yul\":5684:5688   */\n      0x24\n        /* \"#utility.yul\":5681:5682   */\n      0x00\n        /* \"#utility.yul\":5674:5689   */\n      revert\n        /* \"#utility.yul\":5701:5892   */\n    tag_34:\n        /* \"#utility.yul\":5739:5743   */\n      0x00\n        /* \"#utility.yul\":5759:5777   */\n      tag_138\n        /* \"#utility.yul\":5775:5776   */\n      dup3\n        /* \"#utility.yul\":5759:5777   */\n      tag_75\n      jump\t// in\n    tag_138:\n        /* \"#utility.yul\":5754:5777   */\n      swap2\n      pop\n        /* \"#utility.yul\":5791:5809   */\n      tag_139\n        /* \"#utility.yul\":5807:5808   */\n      dup4\n        /* \"#utility.yul\":5791:5809   */\n      tag_75\n      jump\t// in\n    tag_139:\n        /* \"#utility.yul\":5786:5809   */\n      swap3\n      pop\n        /* \"#utility.yul\":5833:5834   */\n      dup3\n        /* \"#utility.yul\":5830:5831   */\n      dup3\n        /* \"#utility.yul\":5826:5835   */\n      sub\n        /* \"#utility.yul\":5818:5835   */\n      swap1\n      pop\n        /* \"#utility.yul\":5857:5861   */\n      0xff\n        /* \"#utility.yul\":5851:5855   */\n      dup2\n        /* \"#utility.yul\":5848:5862   */\n      gt\n        /* \"#utility.yul\":5845:5885   */\n      iszero\n      tag_140\n      jumpi\n        /* \"#utility.yul\":5865:5883   */\n      tag_141\n      tag_76\n      jump\t// in\n    tag_141:\n        /* \"#utility.yul\":5845:5885   */\n    tag_140:\n        /* \"#utility.yul\":5701:5892   */\n      swap3\n      swap2\n      pop\n      pop\n      jump\t// out\n        /* \"#utility.yul\":5898:6074   */\n    tag_77:\n        /* \"#utility.yul\":6038:6066   */\n      0x496e76616c69642063686172616374657220696e20696e707574000000000000\n        /* \"#utility.yul\":6034:6035   */\n      0x00\n        /* \"#utility.yul\":6026:6032   */\n      dup3\n        /* \"#utility.yul\":6022:6036   */\n      add\n        /* \"#utility.yul\":6015:6067   */\n      mstore\n        /* \"#utility.yul\":5898:6074   */\n      pop\n      jump\t// out\n        /* \"#utility.yul\":6080:6446   */\n    tag_78:\n        /* \"#utility.yul\":6222:6225   */\n      0x00\n        /* \"#utility.yul\":6243:6310   */\n      tag_144\n        /* \"#utility.yul\":6307:6309   */\n      0x1a\n        /* \"#utility.yul\":6302:6305   */\n      dup4\n        /* \"#utility.yul\":6243:6310   */\n      tag_72\n      jump\t// in\n    tag_144:\n        /* \"#utility.yul\":6236:6310   */\n      swap2\n      pop\n        /* \"#utility.yul\":6319:6412   */\n      tag_145\n        /* \"#utility.yul\":6408:6411   */\n      dup3\n        /* \"#utility.yul\":6319:6412   */\n      tag_77\n      jump\t// in\n    tag_145:\n        /* \"#utility.yul\":6437:6439   */\n      0x20\n        /* \"#utility.yul\":6432:6435   */\n      dup3\n        /* \"#utility.yul\":6428:6440   */\n      add\n        /* \"#utility.yul\":6421:6440   */\n      swap1\n      pop\n        /* \"#utility.yul\":6080:6446   */\n      swap2\n      swap1\n      pop\n      jump\t// out\n        /* \"#utility.yul\":6452:6871   */\n    tag_45:\n        /* \"#utility.yul\":6618:6622   */\n      0x00\n        /* \"#utility.yul\":6656:6658   */\n      0x20\n        /* \"#utility.yul\":6645:6654   */\n      dup3\n        /* \"#utility.yul\":6641:6659   */\n      add\n        /* \"#utility.yul\":6633:6659   */\n      swap1\n      pop\n        /* \"#utility.yul\":6705:6714   */\n      dup2\n        /* \"#utility.yul\":6699:6703   */\n      dup2\n        /* \"#utility.yul\":6695:6715   */\n      sub\n        /* \"#utility.yul\":6691:6692   */\n      0x00\n        /* \"#utility.yul\":6680:6689   */\n      dup4\n        /* \"#utility.yul\":6676:6693   */\n      add\n        /* \"#utility.yul\":6669:6716   */\n      mstore\n        /* \"#utility.yul\":6733:6864   */\n      tag_147\n        /* \"#utility.yul\":6859:6863   */\n      dup2\n        /* \"#utility.yul\":6733:6864   */\n      tag_78\n      jump\t// in\n    tag_147:\n        /* \"#utility.yul\":6725:6864   */\n      swap1\n      pop\n        /* \"#utility.yul\":6452:6871   */\n      swap2\n      swap1\n      pop\n      jump\t// out\n        /* \"#utility.yul\":6877:7287   */\n    tag_47:\n        /* \"#utility.yul\":6917:6924   */\n      0x00\n        /* \"#utility.yul\":6940:6960   */\n      tag_149\n        /* \"#utility.yul\":6958:6959   */\n      dup3\n        /* \"#utility.yul\":6940:6960   */\n      tag_70\n      jump\t// in\n    tag_149:\n        /* \"#utility.yul\":6935:6960   */\n      swap2\n      pop\n        /* \"#utility.yul\":6974:6994   */\n      tag_150\n        /* \"#utility.yul\":6992:6993   */\n      dup4\n        /* \"#utility.yul\":6974:6994   */\n      tag_70\n      jump\t// in\n    tag_150:\n        /* \"#utility.yul\":6969:6994   */\n      swap3\n      pop\n        /* \"#utility.yul\":7029:7030   */\n      dup3\n        /* \"#utility.yul\":7026:7027   */\n      dup3\n        /* \"#utility.yul\":7022:7031   */\n      mul\n        /* \"#utility.yul\":7051:7081   */\n      tag_151\n        /* \"#utility.yul\":7069:7080   */\n      dup2\n        /* \"#utility.yul\":7051:7081   */\n      tag_70\n      jump\t// in\n    tag_151:\n        /* \"#utility.yul\":7040:7081   */\n      swap2\n      pop\n        /* \"#utility.yul\":7230:7231   */\n      dup3\n        /* \"#utility.yul\":7221:7228   */\n      dup3\n        /* \"#utility.yul\":7217:7232   */\n      div\n        /* \"#utility.yul\":7214:7215   */\n      dup5\n        /* \"#utility.yul\":7211:7233   */\n      eq\n        /* \"#utility.yul\":7191:7192   */\n      dup4\n        /* \"#utility.yul\":7184:7193   */\n      iszero\n        /* \"#utility.yul\":7164:7247   */\n      or\n        /* \"#utility.yul\":7141:7280   */\n      tag_152\n      jumpi\n        /* \"#utility.yul\":7260:7278   */\n      tag_153\n      tag_76\n      jump\t// in\n    tag_153:\n        /* \"#utility.yul\":7141:7280   */\n    tag_152:\n        /* \"#utility.yul\":6925:7287   */\n      pop\n        /* \"#utility.yul\":6877:7287   */\n      swap3\n      swap2\n      pop\n      pop\n      jump\t// out\n        /* \"#utility.yul\":7293:7484   */\n    tag_49:\n        /* \"#utility.yul\":7333:7336   */\n      0x00\n        /* \"#utility.yul\":7352:7372   */\n      tag_155\n        /* \"#utility.yul\":7370:7371   */\n      dup3\n        /* \"#utility.yul\":7352:7372   */\n      tag_70\n      jump\t// in\n    tag_155:\n        /* \"#utility.yul\":7347:7372   */\n      swap2\n      pop\n        /* \"#utility.yul\":7386:7406   */\n      tag_156\n        /* \"#utility.yul\":7404:7405   */\n      dup4\n        /* \"#utility.yul\":7386:7406   */\n      tag_70\n      jump\t// in\n    tag_156:\n        /* \"#utility.yul\":7381:7406   */\n      swap3\n      pop\n        /* \"#utility.yul\":7429:7430   */\n      dup3\n        /* \"#utility.yul\":7426:7427   */\n      dup3\n        /* \"#utility.yul\":7422:7431   */\n      add\n        /* \"#utility.yul\":7415:7431   */\n      swap1\n      pop\n        /* \"#utility.yul\":7450:7453   */\n      dup1\n        /* \"#utility.yul\":7447:7448   */\n      dup3\n        /* \"#utility.yul\":7444:7454   */\n      gt\n        /* \"#utility.yul\":7441:7477   */\n      iszero\n      tag_157\n      jumpi\n        /* \"#utility.yul\":7457:7475   */\n      tag_158\n      tag_76\n      jump\t// in\n    tag_158:\n        /* \"#utility.yul\":7441:7477   */\n    tag_157:\n        /* \"#utility.yul\":7293:7484   */\n      swap3\n      swap2\n      pop\n      pop\n      jump\t// out\n        /* \"#utility.yul\":7490:7723   */\n    tag_51:\n        /* \"#utility.yul\":7529:7532   */\n      0x00\n        /* \"#utility.yul\":7552:7576   */\n      tag_160\n        /* \"#utility.yul\":7570:7575   */\n      dup3\n        /* \"#utility.yul\":7552:7576   */\n      tag_70\n      jump\t// in\n    tag_160:\n        /* \"#utility.yul\":7543:7576   */\n      swap2\n      pop\n        /* \"#utility.yul\":7598:7664   */\n      0xffffffffffffffffffffffffffffffffffffffffffffffffffffffffffffffff\n        /* \"#utility.yul\":7591:7596   */\n      dup3\n        /* \"#utility.yul\":7588:7665   */\n      sub\n        /* \"#utility.yul\":7585:7688   */\n      tag_161\n      jumpi\n        /* \"#utility.yul\":7668:7686   */\n      tag_162\n      tag_76\n      jump\t// in\n    tag_162:\n        /* \"#utility.yul\":7585:7688   */\n    tag_161:\n        /* \"#utility.yul\":7715:7716   */\n      0x01\n        /* \"#utility.yul\":7708:7713   */\n      dup3\n        /* \"#utility.yul\":7704:7717   */\n      add\n        /* \"#utility.yul\":7697:7717   */\n      swap1\n      pop\n        /* \"#utility.yul\":7490:7723   */\n      swap2\n      swap1\n      pop\n      jump\t// out\n\n    auxdata: 0xa264697066735822122054be4399d4e7830e23fc8c3e99ef4b99bfaf82955891ab8dadccd8ba38d5563264736f6c63430008120033\n}\n",
				"bytecode": {
					"linkReferences": {},
					"object": "608060405234801561001057600080fd5b5061073a806100206000396000f3fe608060405234801561001057600080fd5b50600436106100415760003560e01c806315706fdf14610046578063943ab9f914610076578063d08f258d146100a6575b600080fd5b610060600480360381019061005b91906103e4565b6100d6565b60405161006d919061046e565b60405180910390f35b610090600480360381019061008b91906103e4565b61026a565b60405161009d91906104a2565b60405180910390f35b6100c060048036038101906100bb91906103e4565b61027a565b6040516100cd91906104a2565b60405180910390f35b600080829050602a815114610120576040517f08c379a00000000000000000000000000000000000000000000000000000000081526004016101179061051a565b60405180910390fd5b60008080600290505b835181101561025e5760008482815181106101475761014661053a565b5b602001015160f81c60f81b60f81c905060308160ff161015801561016f575060398160ff1611155b1561018b5760308161018191906105a5565b60ff169250610230565b60418160ff16101580156101a3575060468160ff1611155b156101bf576037816101b591906105a5565b60ff16925061022f565b60618160ff16101580156101d7575060668160ff1611155b156101f3576057816101e991906105a5565b60ff16925061022e565b6040517f08c379a000000000000000000000000000000000000000000000000000000000815260040161022590610626565b60405180910390fd5b5b5b8260108561023e9190610646565b6102489190610688565b9350508080610256906106bc565b915050610129565b50819350505050919050565b6000808290508051915050919050565b6000808290508051915050919050565b6000604051905090565b600080fd5b600080fd5b600080fd5b600080fd5b6000601f19601f8301169050919050565b7f4e487b7100000000000000000000000000000000000000000000000000000000600052604160045260246000fd5b6102f1826102a8565b810181811067ffffffffffffffff821117156103105761030f6102b9565b5b80604052505050565b600061032361028a565b905061032f82826102e8565b919050565b600067ffffffffffffffff82111561034f5761034e6102b9565b5b610358826102a8565b9050602081019050919050565b82818337600083830152505050565b600061038761038284610334565b610319565b9050828152602081018484840111156103a3576103a26102a3565b5b6103ae848285610365565b509392505050565b600082601f8301126103cb576103ca61029e565b5b81356103db848260208601610374565b91505092915050565b6000602082840312156103fa576103f9610294565b5b600082013567ffffffffffffffff81111561041857610417610299565b5b610424848285016103b6565b91505092915050565b600073ffffffffffffffffffffffffffffffffffffffff82169050919050565b60006104588261042d565b9050919050565b6104688161044d565b82525050565b6000602082019050610483600083018461045f565b92915050565b6000819050919050565b61049c81610489565b82525050565b60006020820190506104b76000830184610493565b92915050565b600082825260208201905092915050565b7f496e76616c696420696e707574206c656e677468000000000000000000000000600082015250565b60006105046014836104bd565b915061050f826104ce565b602082019050919050565b60006020820190508181036000830152610533816104f7565b9050919050565b7f4e487b7100000000000000000000000000000000000000000000000000000000600052603260045260246000fd5b600060ff82169050919050565b7f4e487b7100000000000000000000000000000000000000000000000000000000600052601160045260246000fd5b60006105b082610569565b91506105bb83610569565b9250828203905060ff8111156105d4576105d3610576565b5b92915050565b7f496e76616c69642063686172616374657220696e20696e707574000000000000600082015250565b6000610610601a836104bd565b915061061b826105da565b602082019050919050565b6000602082019050818103600083015261063f81610603565b9050919050565b600061065182610489565b915061065c83610489565b925082820261066a81610489565b9150828204841483151761068157610680610576565b5b5092915050565b600061069382610489565b915061069e83610489565b92508282019050808211156106b6576106b5610576565b5b92915050565b60006106c782610489565b91507fffffffffffffffffffffffffffffffffffffffffffffffffffffffffffffffff82036106f9576106f8610576565b5b60018201905091905056fea264697066735822122054be4399d4e7830e23fc8c3e99ef4b99bfaf82955891ab8dadccd8ba38d5563264736f6c63430008120033",
					"opcodes": "PUSH1 0x80 PUSH1 0x40 MSTORE CALLVALUE DUP1 ISZERO PUSH2 0x10 JUMPI PUSH1 0x0 DUP1 REVERT JUMPDEST POP PUSH2 0x73A DUP1 PUSH2 0x20 PUSH1 0x0 CODECOPY PUSH1 0x0 RETURN INVALID PUSH1 0x80 PUSH1 0x40 MSTORE CALLVALUE DUP1 ISZERO PUSH2 0x10 JUMPI PUSH1 0x0 DUP1 REVERT JUMPDEST POP PUSH1 0x4 CALLDATASIZE LT PUSH2 0x41 JUMPI PUSH1 0x0 CALLDATALOAD PUSH1 0xE0 SHR DUP1 PUSH4 0x15706FDF EQ PUSH2 0x46 JUMPI DUP1 PUSH4 0x943AB9F9 EQ PUSH2 0x76 JUMPI DUP1 PUSH4 0xD08F258D EQ PUSH2 0xA6 JUMPI JUMPDEST PUSH1 0x0 DUP1 REVERT JUMPDEST PUSH2 0x60 PUSH1 0x4 DUP1 CALLDATASIZE SUB DUP2 ADD SWAP1 PUSH2 0x5B SWAP2 SWAP1 PUSH2 0x3E4 JUMP JUMPDEST PUSH2 0xD6 JUMP JUMPDEST PUSH1 0x40 MLOAD PUSH2 0x6D SWAP2 SWAP1 PUSH2 0x46E JUMP JUMPDEST PUSH1 0x40 MLOAD DUP1 SWAP2 SUB SWAP1 RETURN JUMPDEST PUSH2 0x90 PUSH1 0x4 DUP1 CALLDATASIZE SUB DUP2 ADD SWAP1 PUSH2 0x8B SWAP2 SWAP1 PUSH2 0x3E4 JUMP JUMPDEST PUSH2 0x26A JUMP JUMPDEST PUSH1 0x40 MLOAD PUSH2 0x9D SWAP2 SWAP1 PUSH2 0x4A2 JUMP JUMPDEST PUSH1 0x40 MLOAD DUP1 SWAP2 SUB SWAP1 RETURN JUMPDEST PUSH2 0xC0 PUSH1 0x4 DUP1 CALLDATASIZE SUB DUP2 ADD SWAP1 PUSH2 0xBB SWAP2 SWAP1 PUSH2 0x3E4 JUMP JUMPDEST PUSH2 0x27A JUMP JUMPDEST PUSH1 0x40 MLOAD PUSH2 0xCD SWAP2 SWAP1 PUSH2 0x4A2 JUMP JUMPDEST PUSH1 0x40 MLOAD DUP1 SWAP2 SUB SWAP1 RETURN JUMPDEST PUSH1 0x0 DUP1 DUP3 SWAP1 POP PUSH1 0x2A DUP2 MLOAD EQ PUSH2 0x120 JUMPI PUSH1 0x40 MLOAD PUSH32 0x8C379A000000000000000000000000000000000000000000000000000000000 DUP2 MSTORE PUSH1 0x4 ADD PUSH2 0x117 SWAP1 PUSH2 0x51A JUMP JUMPDEST PUSH1 0x40 MLOAD DUP1 SWAP2 SUB SWAP1 REVERT JUMPDEST PUSH1 0x0 DUP1 DUP1 PUSH1 0x2 SWAP1 POP JUMPDEST DUP4 MLOAD DUP2 LT ISZERO PUSH2 0x25E JUMPI PUSH1 0x0 DUP5 DUP3 DUP2 MLOAD DUP2 LT PUSH2 0x147 JUMPI PUSH2 0x146 PUSH2 0x53A JUMP JUMPDEST JUMPDEST PUSH1 0x20 ADD ADD MLOAD PUSH1 0xF8 SHR PUSH1 0xF8 SHL PUSH1 0xF8 SHR SWAP1 POP PUSH1 0x30 DUP2 PUSH1 0xFF AND LT ISZERO DUP1 ISZERO PUSH2 0x16F JUMPI POP PUSH1 0x39 DUP2 PUSH1 0xFF AND GT ISZERO JUMPDEST ISZERO PUSH2 0x18B JUMPI PUSH1 0x30 DUP2 PUSH2 0x181 SWAP2 SWAP1 PUSH2 0x5A5 JUMP JUMPDEST PUSH1 0xFF AND SWAP3 POP PUSH2 0x230 JUMP JUMPDEST PUSH1 0x41 DUP2 PUSH1 0xFF AND LT ISZERO DUP1 ISZERO PUSH2 0x1A3 JUMPI POP PUSH1 0x46 DUP2 PUSH1 0xFF AND GT ISZERO JUMPDEST ISZERO PUSH2 0x1BF JUMPI PUSH1 0x37 DUP2 PUSH2 0x1B5 SWAP2 SWAP1 PUSH2 0x5A5 JUMP JUMPDEST PUSH1 0xFF AND SWAP3 POP PUSH2 0x22F JUMP JUMPDEST PUSH1 0x61 DUP2 PUSH1 0xFF AND LT ISZERO DUP1 ISZERO PUSH2 0x1D7 JUMPI POP PUSH1 0x66 DUP2 PUSH1 0xFF AND GT ISZERO JUMPDEST ISZERO PUSH2 0x1F3 JUMPI PUSH1 0x57 DUP2 PUSH2 0x1E9 SWAP2 SWAP1 PUSH2 0x5A5 JUMP JUMPDEST PUSH1 0xFF AND SWAP3 POP PUSH2 0x22E JUMP JUMPDEST PUSH1 0x40 MLOAD PUSH32 0x8C379A000000000000000000000000000000000000000000000000000000000 DUP2 MSTORE PUSH1 0x4 ADD PUSH2 0x225 SWAP1 PUSH2 0x626 JUMP JUMPDEST PUSH1 0x40 MLOAD DUP1 SWAP2 SUB SWAP1 REVERT JUMPDEST JUMPDEST JUMPDEST DUP3 PUSH1 0x10 DUP6 PUSH2 0x23E SWAP2 SWAP1 PUSH2 0x646 JUMP JUMPDEST PUSH2 0x248 SWAP2 SWAP1 PUSH2 0x688 JUMP JUMPDEST SWAP4 POP POP DUP1 DUP1 PUSH2 0x256 SWAP1 PUSH2 0x6BC JUMP JUMPDEST SWAP2 POP POP PUSH2 0x129 JUMP JUMPDEST POP DUP2 SWAP4 POP POP POP POP SWAP2 SWAP1 POP JUMP JUMPDEST PUSH1 0x0 DUP1 DUP3 SWAP1 POP DUP1 MLOAD SWAP2 POP POP SWAP2 SWAP1 POP JUMP JUMPDEST PUSH1 0x0 DUP1 DUP3 SWAP1 POP DUP1 MLOAD SWAP2 POP POP SWAP2 SWAP1 POP JUMP JUMPDEST PUSH1 0x0 PUSH1 0x40 MLOAD SWAP1 POP SWAP1 JUMP JUMPDEST PUSH1 0x0 DUP1 REVERT JUMPDEST PUSH1 0x0 DUP1 REVERT JUMPDEST PUSH1 0x0 DUP1 REVERT JUMPDEST PUSH1 0x0 DUP1 REVERT JUMPDEST PUSH1 0x0 PUSH1 0x1F NOT PUSH1 0x1F DUP4 ADD AND SWAP1 POP SWAP2 SWAP1 POP JUMP JUMPDEST PUSH32 0x4E487B7100000000000000000000000000000000000000000000000000000000 PUSH1 0x0 MSTORE PUSH1 0x41 PUSH1 0x4 MSTORE PUSH1 0x24 PUSH1 0x0 REVERT JUMPDEST PUSH2 0x2F1 DUP3 PUSH2 0x2A8 JUMP JUMPDEST DUP2 ADD DUP2 DUP2 LT PUSH8 0xFFFFFFFFFFFFFFFF DUP3 GT OR ISZERO PUSH2 0x310 JUMPI PUSH2 0x30F PUSH2 0x2B9 JUMP JUMPDEST JUMPDEST DUP1 PUSH1 0x40 MSTORE POP POP POP JUMP JUMPDEST PUSH1 0x0 PUSH2 0x323 PUSH2 0x28A JUMP JUMPDEST SWAP1 POP PUSH2 0x32F DUP3 DUP3 PUSH2 0x2E8 JUMP JUMPDEST SWAP2 SWAP1 POP JUMP JUMPDEST PUSH1 0x0 PUSH8 0xFFFFFFFFFFFFFFFF DUP3 GT ISZERO PUSH2 0x34F JUMPI PUSH2 0x34E PUSH2 0x2B9 JUMP JUMPDEST JUMPDEST PUSH2 0x358 DUP3 PUSH2 0x2A8 JUMP JUMPDEST SWAP1 POP PUSH1 0x20 DUP2 ADD SWAP1 POP SWAP2 SWAP1 POP JUMP JUMPDEST DUP3 DUP2 DUP4 CALLDATACOPY PUSH1 0x0 DUP4 DUP4 ADD MSTORE POP POP POP JUMP JUMPDEST PUSH1 0x0 PUSH2 0x387 PUSH2 0x382 DUP5 PUSH2 0x334 JUMP JUMPDEST PUSH2 0x319 JUMP JUMPDEST SWAP1 POP DUP3 DUP2 MSTORE PUSH1 0x20 DUP2 ADD DUP5 DUP5 DUP5 ADD GT ISZERO PUSH2 0x3A3 JUMPI PUSH2 0x3A2 PUSH2 0x2A3 JUMP JUMPDEST JUMPDEST PUSH2 0x3AE DUP5 DUP3 DUP6 PUSH2 0x365 JUMP JUMPDEST POP SWAP4 SWAP3 POP POP POP JUMP JUMPDEST PUSH1 0x0 DUP3 PUSH1 0x1F DUP4 ADD SLT PUSH2 0x3CB JUMPI PUSH2 0x3CA PUSH2 0x29E JUMP JUMPDEST JUMPDEST DUP2 CALLDATALOAD PUSH2 0x3DB DUP5 DUP3 PUSH1 0x20 DUP7 ADD PUSH2 0x374 JUMP JUMPDEST SWAP2 POP POP SWAP3 SWAP2 POP POP JUMP JUMPDEST PUSH1 0x0 PUSH1 0x20 DUP3 DUP5 SUB SLT ISZERO PUSH2 0x3FA JUMPI PUSH2 0x3F9 PUSH2 0x294 JUMP JUMPDEST JUMPDEST PUSH1 0x0 DUP3 ADD CALLDATALOAD PUSH8 0xFFFFFFFFFFFFFFFF DUP2 GT ISZERO PUSH2 0x418 JUMPI PUSH2 0x417 PUSH2 0x299 JUMP JUMPDEST JUMPDEST PUSH2 0x424 DUP5 DUP3 DUP6 ADD PUSH2 0x3B6 JUMP JUMPDEST SWAP2 POP POP SWAP3 SWAP2 POP POP JUMP JUMPDEST PUSH1 0x0 PUSH20 0xFFFFFFFFFFFFFFFFFFFFFFFFFFFFFFFFFFFFFFFF DUP3 AND SWAP1 POP SWAP2 SWAP1 POP JUMP JUMPDEST PUSH1 0x0 PUSH2 0x458 DUP3 PUSH2 0x42D JUMP JUMPDEST SWAP1 POP SWAP2 SWAP1 POP JUMP JUMPDEST PUSH2 0x468 DUP2 PUSH2 0x44D JUMP JUMPDEST DUP3 MSTORE POP POP JUMP JUMPDEST PUSH1 0x0 PUSH1 0x20 DUP3 ADD SWAP1 POP PUSH2 0x483 PUSH1 0x0 DUP4 ADD DUP5 PUSH2 0x45F JUMP JUMPDEST SWAP3 SWAP2 POP POP JUMP JUMPDEST PUSH1 0x0 DUP2 SWAP1 POP SWAP2 SWAP1 POP JUMP JUMPDEST PUSH2 0x49C DUP2 PUSH2 0x489 JUMP JUMPDEST DUP3 MSTORE POP POP JUMP JUMPDEST PUSH1 0x0 PUSH1 0x20 DUP3 ADD SWAP1 POP PUSH2 0x4B7 PUSH1 0x0 DUP4 ADD DUP5 PUSH2 0x493 JUMP JUMPDEST SWAP3 SWAP2 POP POP JUMP JUMPDEST PUSH1 0x0 DUP3 DUP3 MSTORE PUSH1 0x20 DUP3 ADD SWAP1 POP SWAP3 SWAP2 POP POP JUMP JUMPDEST PUSH32 0x496E76616C696420696E707574206C656E677468000000000000000000000000 PUSH1 0x0 DUP3 ADD MSTORE POP JUMP JUMPDEST PUSH1 0x0 PUSH2 0x504 PUSH1 0x14 DUP4 PUSH2 0x4BD JUMP JUMPDEST SWAP2 POP PUSH2 0x50F DUP3 PUSH2 0x4CE JUMP JUMPDEST PUSH1 0x20 DUP3 ADD SWAP1 POP SWAP2 SWAP1 POP JUMP JUMPDEST PUSH1 0x0 PUSH1 0x20 DUP3 ADD SWAP1 POP DUP2 DUP2 SUB PUSH1 0x0 DUP4 ADD MSTORE PUSH2 0x533 DUP2 PUSH2 0x4F7 JUMP JUMPDEST SWAP1 POP SWAP2 SWAP1 POP JUMP JUMPDEST PUSH32 0x4E487B7100000000000000000000000000000000000000000000000000000000 PUSH1 0x0 MSTORE PUSH1 0x32 PUSH1 0x4 MSTORE PUSH1 0x24 PUSH1 0x0 REVERT JUMPDEST PUSH1 0x0 PUSH1 0xFF DUP3 AND SWAP1 POP SWAP2 SWAP1 POP JUMP JUMPDEST PUSH32 0x4E487B7100000000000000000000000000000000000000000000000000000000 PUSH1 0x0 MSTORE PUSH1 0x11 PUSH1 0x4 MSTORE PUSH1 0x24 PUSH1 0x0 REVERT JUMPDEST PUSH1 0x0 PUSH2 0x5B0 DUP3 PUSH2 0x569 JUMP JUMPDEST SWAP2 POP PUSH2 0x5BB DUP4 PUSH2 0x569 JUMP JUMPDEST SWAP3 POP DUP3 DUP3 SUB SWAP1 POP PUSH1 0xFF DUP2 GT ISZERO PUSH2 0x5D4 JUMPI PUSH2 0x5D3 PUSH2 0x576 JUMP JUMPDEST JUMPDEST SWAP3 SWAP2 POP POP JUMP JUMPDEST PUSH32 0x496E76616C69642063686172616374657220696E20696E707574000000000000 PUSH1 0x0 DUP3 ADD MSTORE POP JUMP JUMPDEST PUSH1 0x0 PUSH2 0x610 PUSH1 0x1A DUP4 PUSH2 0x4BD JUMP JUMPDEST SWAP2 POP PUSH2 0x61B DUP3 PUSH2 0x5DA JUMP JUMPDEST PUSH1 0x20 DUP3 ADD SWAP1 POP SWAP2 SWAP1 POP JUMP JUMPDEST PUSH1 0x0 PUSH1 0x20 DUP3 ADD SWAP1 POP DUP2 DUP2 SUB PUSH1 0x0 DUP4 ADD MSTORE PUSH2 0x63F DUP2 PUSH2 0x603 JUMP JUMPDEST SWAP1 POP SWAP2 SWAP1 POP JUMP JUMPDEST PUSH1 0x0 PUSH2 0x651 DUP3 PUSH2 0x489 JUMP JUMPDEST SWAP2 POP PUSH2 0x65C DUP4 PUSH2 0x489 JUMP JUMPDEST SWAP3 POP DUP3 DUP3 MUL PUSH2 0x66A DUP2 PUSH2 0x489 JUMP JUMPDEST SWAP2 POP DUP3 DUP3 DIV DUP5 EQ DUP4 ISZERO OR PUSH2 0x681 JUMPI PUSH2 0x680 PUSH2 0x576 JUMP JUMPDEST JUMPDEST POP SWAP3 SWAP2 POP POP JUMP JUMPDEST PUSH1 0x0 PUSH2 0x693 DUP3 PUSH2 0x489 JUMP JUMPDEST SWAP2 POP PUSH2 0x69E DUP4 PUSH2 0x489 JUMP JUMPDEST SWAP3 POP DUP3 DUP3 ADD SWAP1 POP DUP1 DUP3 GT ISZERO PUSH2 0x6B6 JUMPI PUSH2 0x6B5 PUSH2 0x576 JUMP JUMPDEST JUMPDEST SWAP3 SWAP2 POP POP JUMP JUMPDEST PUSH1 0x0 PUSH2 0x6C7 DUP3 PUSH2 0x489 JUMP JUMPDEST SWAP2 POP PUSH32 0xFFFFFFFFFFFFFFFFFFFFFFFFFFFFFFFFFFFFFFFFFFFFFFFFFFFFFFFFFFFFFFFF DUP3 SUB PUSH2 0x6F9 JUMPI PUSH2 0x6F8 PUSH2 0x576 JUMP JUMPDEST JUMPDEST PUSH1 0x1 DUP3 ADD SWAP1 POP SWAP2 SWAP1 POP JUMP INVALID LOG2 PUSH5 0x6970667358 0x22 SLT KECCAK256 SLOAD 0xBE NUMBER SWAP10 0xD4 0xE7 DUP4 0xE 0x23 0xFC DUP13 RETURNDATACOPY SWAP10 0xEF 0x4B SWAP10 0xBF 0xAF DUP3 SWAP6 PC SWAP2 0xAB DUP14 0xAD 0xCC 0xD8 0xBA CODESIZE 0xD5 JUMP ORIGIN PUSH5 0x736F6C6343 STOP ADDMOD SLT STOP CALLER "
				},
				"gasEstimates": {
					"creation": {
						"codeDepositCost": "370000",
						"executionCost": "405",
						"totalCost": "370405"
					},
					"external": {
						"countCharacters(string)": "infinite",
						"numberOfBytes(string)": "infinite",
						"stringToAddress(string)": "infinite"
					}
				},
				"methodIdentifiers": {
					"countCharacters(string)": "943ab9f9",
					"numberOfBytes(string)": "d08f258d",
					"stringToAddress(string)": "15706fdf"
				}
			},
			"storageLayout": {
				"storage": [],
				"types": null
			},
			"userdoc": {
				"kind": "user",
				"methods": {},
				"version": 1
			}
		}
	}
}