{
	"VotingSystem.sol": {
		"VotingSystem": {
			"abi": [
				{
					"inputs": [],
					"stateMutability": "nonpayable",
					"type": "constructor"
				},
				{
					"inputs": [],
					"name": "AllCandidates",
					"outputs": [
						{
							"internalType": "string[]",
							"name": "",
							"type": "string[]"
						}
					],
					"stateMutability": "view",
					"type": "function"
				},
				{
					"inputs": [],
					"name": "Winner",
					"outputs": [
						{
							"internalType": "string",
							"name": "",
							"type": "string"
						}
					],
					"stateMutability": "view",
					"type": "function"
				},
				{
					"inputs": [],
					"name": "endElection",
					"outputs": [],
					"stateMutability": "nonpayable",
					"type": "function"
				},
				{
					"inputs": [
						{
							"internalType": "string",
							"name": "_id",
							"type": "string"
						}
					],
					"name": "getCandidateById",
					"outputs": [
						{
							"internalType": "address",
							"name": "",
							"type": "address"
						},
						{
							"internalType": "string",
							"name": "",
							"type": "string"
						},
						{
							"internalType": "uint256",
							"name": "Votes_Received",
							"type": "uint256"
						}
					],
					"stateMutability": "view",
					"type": "function"
				},
				{
					"inputs": [],
					"name": "getRegisteredCandidatesCount",
					"outputs": [
						{
							"internalType": "uint256",
							"name": "",
							"type": "uint256"
						}
					],
					"stateMutability": "view",
					"type": "function"
				},
				{
					"inputs": [
						{
							"internalType": "string",
							"name": "_name",
							"type": "string"
						}
					],
					"name": "registerAsCandidate",
					"outputs": [],
					"stateMutability": "nonpayable",
					"type": "function"
				},
				{
					"inputs": [],
					"name": "registerAsVoter",
					"outputs": [],
					"stateMutability": "nonpayable",
					"type": "function"
				},
				{
					"inputs": [],
					"name": "startElection",
					"outputs": [],
					"stateMutability": "nonpayable",
					"type": "function"
				},
				{
					"inputs": [],
					"name": "viewVoterDetails",
					"outputs": [
						{
							"internalType": "bool",
							"name": "Registered",
							"type": "bool"
						},
						{
							"internalType": "bool",
							"name": "Voted",
							"type": "bool"
						}
					],
					"stateMutability": "view",
					"type": "function"
				},
				{
					"inputs": [
						{
							"internalType": "string",
							"name": "_idOrAddress",
							"type": "string"
						}
					],
					"name": "voteById",
					"outputs": [],
					"stateMutability": "nonpayable",
					"type": "function"
				}
			],
			"devdoc": {
				"kind": "dev",
				"methods": {},
				"version": 1
			},
			"evm": {
				"assembly": "    /* \"VotingSystem.sol\":62:7901  contract VotingSystem {... */\n  mstore(0x40, 0x80)\n    /* \"VotingSystem.sol\":457:508  constructor() {... */\n  callvalue\n  dup1\n  iszero\n  tag_1\n  jumpi\n  0x00\n  dup1\n  revert\ntag_1:\n  pop\n    /* \"VotingSystem.sol\":490:500  msg.sender */\n  caller\n    /* \"VotingSystem.sol\":482:487  admin */\n  0x00\n  dup1\n    /* \"VotingSystem.sol\":482:500  admin = msg.sender */\n  0x0100\n  exp\n  dup2\n  sload\n  dup2\n  0xffffffffffffffffffffffffffffffffffffffff\n  mul\n  not\n  and\n  swap1\n  dup4\n  0xffffffffffffffffffffffffffffffffffffffff\n  and\n  mul\n  or\n  swap1\n  sstore\n  pop\n    /* \"VotingSystem.sol\":62:7901  contract VotingSystem {... */\n  dataSize(sub_0)\n  dup1\n  dataOffset(sub_0)\n  0x00\n  codecopy\n  0x00\n  return\nstop\n\nsub_0: assembly {\n        /* \"VotingSystem.sol\":62:7901  contract VotingSystem {... */\n      mstore(0x40, 0x80)\n      callvalue\n      dup1\n      iszero\n      tag_1\n      jumpi\n      0x00\n      dup1\n      revert\n    tag_1:\n      pop\n      jumpi(tag_2, lt(calldatasize, 0x04))\n      shr(0xe0, calldataload(0x00))\n      dup1\n      0x78668658\n      gt\n      tag_13\n      jumpi\n      dup1\n      0x78668658\n      eq\n      tag_8\n      jumpi\n      dup1\n      0xb2b98ed2\n      eq\n      tag_9\n      jumpi\n      dup1\n      0xb52087c1\n      eq\n      tag_10\n      jumpi\n      dup1\n      0xf342c4de\n      eq\n      tag_11\n      jumpi\n      dup1\n      0xf526dab4\n      eq\n      tag_12\n      jumpi\n      jump(tag_2)\n    tag_13:\n      dup1\n      0x1231f78e\n      eq\n      tag_3\n      jumpi\n      dup1\n      0x567484ee\n      eq\n      tag_4\n      jumpi\n      dup1\n      0x59f78468\n      eq\n      tag_5\n      jumpi\n      dup1\n      0x62d73eb8\n      eq\n      tag_6\n      jumpi\n      dup1\n      0x66444e86\n      eq\n      tag_7\n      jumpi\n    tag_2:\n      0x00\n      dup1\n      revert\n        /* \"VotingSystem.sol\":6653:7081  function AllCandidates() public view returns (string[] memory){... */\n    tag_3:\n      tag_14\n      tag_15\n      jump\t// in\n    tag_14:\n      mload(0x40)\n      tag_16\n      swap2\n      swap1\n      tag_17\n      jump\t// in\n    tag_16:\n      mload(0x40)\n      dup1\n      swap2\n      sub\n      swap1\n      return\n        /* \"VotingSystem.sol\":6128:6645  function getCandidateById(string memory _id) public view returns (address, string memory, uint Votes_Received) {... */\n    tag_4:\n      tag_18\n      0x04\n      dup1\n      calldatasize\n      sub\n      dup2\n      add\n      swap1\n      tag_19\n      swap2\n      swap1\n      tag_20\n      jump\t// in\n    tag_19:\n      tag_21\n      jump\t// in\n    tag_18:\n      mload(0x40)\n      tag_22\n      swap4\n      swap3\n      swap2\n      swap1\n      tag_23\n      jump\t// in\n    tag_22:\n      mload(0x40)\n      dup1\n      swap2\n      sub\n      swap1\n      return\n        /* \"VotingSystem.sol\":1356:1434  function endElection() public onlyAdmin{... */\n    tag_5:\n      tag_24\n      tag_25\n      jump\t// in\n    tag_24:\n      stop\n        /* \"VotingSystem.sol\":1233:1348  function startElection() public onlyAdmin {... */\n    tag_6:\n      tag_26\n      tag_27\n      jump\t// in\n    tag_26:\n      stop\n        /* \"VotingSystem.sol\":4401:4713  function getRegisteredCandidatesCount() public view returns (uint256) {... */\n    tag_7:\n      tag_28\n      tag_29\n      jump\t// in\n    tag_28:\n      mload(0x40)\n      tag_30\n      swap2\n      swap1\n      tag_31\n      jump\t// in\n    tag_30:\n      mload(0x40)\n      dup1\n      swap2\n      sub\n      swap1\n      return\n        /* \"VotingSystem.sol\":4721:4809  function registerAsVoter() public {... */\n    tag_8:\n      tag_32\n      tag_33\n      jump\t// in\n    tag_32:\n      stop\n        /* \"VotingSystem.sol\":7091:7896  function Winner() public view returns (string memory) {... */\n    tag_9:\n      tag_34\n      tag_35\n      jump\t// in\n    tag_34:\n      mload(0x40)\n      tag_36\n      swap2\n      swap1\n      tag_37\n      jump\t// in\n    tag_36:\n      mload(0x40)\n      dup1\n      swap2\n      sub\n      swap1\n      return\n        /* \"VotingSystem.sol\":4193:4393  function registerAsCandidate(string memory _name) public {... */\n    tag_10:\n      tag_38\n      0x04\n      dup1\n      calldatasize\n      sub\n      dup2\n      add\n      swap1\n      tag_39\n      swap2\n      swap1\n      tag_20\n      jump\t// in\n    tag_39:\n      tag_40\n      jump\t// in\n    tag_38:\n      stop\n        /* \"VotingSystem.sol\":5672:5824  function viewVoterDetails() public view returns(bool Registered, bool Voted) {... */\n    tag_11:\n      tag_41\n      tag_42\n      jump\t// in\n    tag_41:\n      mload(0x40)\n      tag_43\n      swap3\n      swap2\n      swap1\n      tag_44\n      jump\t// in\n    tag_43:\n      mload(0x40)\n      dup1\n      swap2\n      sub\n      swap1\n      return\n        /* \"VotingSystem.sol\":5220:5663  function voteById(string memory _idOrAddress) public electionInProgress {... */\n    tag_12:\n      tag_45\n      0x04\n      dup1\n      calldatasize\n      sub\n      dup2\n      add\n      swap1\n      tag_46\n      swap2\n      swap1\n      tag_20\n      jump\t// in\n    tag_46:\n      tag_47\n      jump\t// in\n    tag_45:\n      stop\n        /* \"VotingSystem.sol\":6653:7081  function AllCandidates() public view returns (string[] memory){... */\n    tag_15:\n        /* \"VotingSystem.sol\":6699:6714  string[] memory */\n      0x60\n        /* \"VotingSystem.sol\":6726:6748  string[] memory result */\n      0x00\n        /* \"VotingSystem.sol\":6764:6782  candidateAddresses */\n      0x01\n        /* \"VotingSystem.sol\":6764:6789  candidateAddresses.length */\n      dup1\n      sload\n      swap1\n      pop\n        /* \"VotingSystem.sol\":6751:6790  new string[](candidateAddresses.length) */\n      0xffffffffffffffff\n      dup2\n      gt\n      iszero\n      tag_49\n      jumpi\n      tag_50\n      tag_51\n      jump\t// in\n    tag_50:\n    tag_49:\n      mload(0x40)\n      swap1\n      dup1\n      dup3\n      mstore\n      dup1\n      0x20\n      mul\n      0x20\n      add\n      dup3\n      add\n      0x40\n      mstore\n      dup1\n      iszero\n      tag_52\n      jumpi\n      dup2\n      0x20\n      add\n    tag_53:\n      0x60\n      dup2\n      mstore\n      0x20\n      add\n      swap1\n      0x01\n      swap1\n      sub\n      swap1\n      dup2\n      tag_53\n      jumpi\n      swap1\n      pop\n    tag_52:\n      pop\n        /* \"VotingSystem.sol\":6726:6790  string[] memory result = new string[](candidateAddresses.length) */\n      swap1\n      pop\n        /* \"VotingSystem.sol\":6808:6814  uint i */\n      0x00\n        /* \"VotingSystem.sol\":6803:7048  for (uint i = 0; i < candidateAddresses.length; i++) {... */\n    tag_54:\n        /* \"VotingSystem.sol\":6824:6842  candidateAddresses */\n      0x01\n        /* \"VotingSystem.sol\":6824:6849  candidateAddresses.length */\n      dup1\n      sload\n      swap1\n      pop\n        /* \"VotingSystem.sol\":6820:6821  i */\n      dup2\n        /* \"VotingSystem.sol\":6820:6849  i < candidateAddresses.length */\n      lt\n        /* \"VotingSystem.sol\":6803:7048  for (uint i = 0; i < candidateAddresses.length; i++) {... */\n      iszero\n      tag_55\n      jumpi\n        /* \"VotingSystem.sol\":6871:6897  Candidate memory candidate */\n      0x00\n        /* \"VotingSystem.sol\":6900:6917  candidatesDetails */\n      0x05\n        /* \"VotingSystem.sol\":6900:6940  candidatesDetails[candidateAddresses[i]] */\n      0x00\n        /* \"VotingSystem.sol\":6918:6936  candidateAddresses */\n      0x01\n        /* \"VotingSystem.sol\":6937:6938  i */\n      dup5\n        /* \"VotingSystem.sol\":6918:6939  candidateAddresses[i] */\n      dup2\n      sload\n      dup2\n      lt\n      tag_57\n      jumpi\n      tag_58\n      tag_59\n      jump\t// in\n    tag_58:\n    tag_57:\n      swap1\n      0x00\n      mstore\n      keccak256(0x00, 0x20)\n      add\n      0x00\n      swap1\n      sload\n      swap1\n      0x0100\n      exp\n      swap1\n      div\n      0xffffffffffffffffffffffffffffffffffffffff\n      and\n        /* \"VotingSystem.sol\":6900:6940  candidatesDetails[candidateAddresses[i]] */\n      0xffffffffffffffffffffffffffffffffffffffff\n      and\n      0xffffffffffffffffffffffffffffffffffffffff\n      and\n      dup2\n      mstore\n      0x20\n      add\n      swap1\n      dup2\n      mstore\n      0x20\n      add\n      0x00\n      keccak256\n        /* \"VotingSystem.sol\":6871:6940  Candidate memory candidate = candidatesDetails[candidateAddresses[i]] */\n      mload(0x40)\n      dup1\n      0x60\n      add\n      0x40\n      mstore\n      swap1\n      dup2\n      0x00\n      dup3\n      add\n      dup1\n      sload\n      tag_61\n      swap1\n      tag_62\n      jump\t// in\n    tag_61:\n      dup1\n      0x1f\n      add\n      0x20\n      dup1\n      swap2\n      div\n      mul\n      0x20\n      add\n      mload(0x40)\n      swap1\n      dup2\n      add\n      0x40\n      mstore\n      dup1\n      swap3\n      swap2\n      swap1\n      dup2\n      dup2\n      mstore\n      0x20\n      add\n      dup3\n      dup1\n      sload\n      tag_63\n      swap1\n      tag_62\n      jump\t// in\n    tag_63:\n      dup1\n      iszero\n      tag_64\n      jumpi\n      dup1\n      0x1f\n      lt\n      tag_65\n      jumpi\n      0x0100\n      dup1\n      dup4\n      sload\n      div\n      mul\n      dup4\n      mstore\n      swap2\n      0x20\n      add\n      swap2\n      jump(tag_64)\n    tag_65:\n      dup3\n      add\n      swap2\n      swap1\n      0x00\n      mstore\n      keccak256(0x00, 0x20)\n      swap1\n    tag_66:\n      dup2\n      sload\n      dup2\n      mstore\n      swap1\n      0x01\n      add\n      swap1\n      0x20\n      add\n      dup1\n      dup4\n      gt\n      tag_66\n      jumpi\n      dup3\n      swap1\n      sub\n      0x1f\n      and\n      dup3\n      add\n      swap2\n    tag_64:\n      pop\n      pop\n      pop\n      pop\n      pop\n      dup2\n      mstore\n      0x20\n      add\n      0x01\n      dup3\n      add\n      dup1\n      sload\n      tag_67\n      swap1\n      tag_62\n      jump\t// in\n    tag_67:\n      dup1\n      0x1f\n      add\n      0x20\n      dup1\n      swap2\n      div\n      mul\n      0x20\n      add\n      mload(0x40)\n      swap1\n      dup2\n      add\n      0x40\n      mstore\n      dup1\n      swap3\n      swap2\n      swap1\n      dup2\n      dup2\n      mstore\n      0x20\n      add\n      dup3\n      dup1\n      sload\n      tag_68\n      swap1\n      tag_62\n      jump\t// in\n    tag_68:\n      dup1\n      iszero\n      tag_69\n      jumpi\n      dup1\n      0x1f\n      lt\n      tag_70\n      jumpi\n      0x0100\n      dup1\n      dup4\n      sload\n      div\n      mul\n      dup4\n      mstore\n      swap2\n      0x20\n      add\n      swap2\n      jump(tag_69)\n    tag_70:\n      dup3\n      add\n      swap2\n      swap1\n      0x00\n      mstore\n      keccak256(0x00, 0x20)\n      swap1\n    tag_71:\n      dup2\n      sload\n      dup2\n      mstore\n      swap1\n      0x01\n      add\n      swap1\n      0x20\n      add\n      dup1\n      dup4\n      gt\n      tag_71\n      jumpi\n      dup3\n      swap1\n      sub\n      0x1f\n      and\n      dup3\n      add\n      swap2\n    tag_69:\n      pop\n      pop\n      pop\n      pop\n      pop\n      dup2\n      mstore\n      0x20\n      add\n      0x02\n      dup3\n      add\n      sload\n      dup2\n      mstore\n      pop\n      pop\n      swap1\n      pop\n        /* \"VotingSystem.sol\":6995:7004  candidate */\n      dup1\n        /* \"VotingSystem.sol\":6995:7009  candidate.name */\n      0x00\n      add\n      mload\n        /* \"VotingSystem.sol\":7017:7026  candidate */\n      dup2\n        /* \"VotingSystem.sol\":7017:7029  candidate.id */\n      0x20\n      add\n      mload\n        /* \"VotingSystem.sol\":6974:7035  abi.encodePacked(\" \",candidate.name, \" (\", candidate.id, \")\") */\n      add(0x20, mload(0x40))\n      tag_72\n      swap3\n      swap2\n      swap1\n      tag_73\n      jump\t// in\n    tag_72:\n      mload(0x40)\n      0x20\n      dup2\n      dup4\n      sub\n      sub\n      dup2\n      mstore\n      swap1\n      0x40\n      mstore\n        /* \"VotingSystem.sol\":6955:6961  result */\n      dup4\n        /* \"VotingSystem.sol\":6962:6963  i */\n      dup4\n        /* \"VotingSystem.sol\":6955:6964  result[i] */\n      dup2\n      mload\n      dup2\n      lt\n      tag_74\n      jumpi\n      tag_75\n      tag_59\n      jump\t// in\n    tag_75:\n    tag_74:\n      0x20\n      mul\n      0x20\n      add\n      add\n        /* \"VotingSystem.sol\":6955:7036  result[i] = string(abi.encodePacked(\" \",candidate.name, \" (\", candidate.id, \")\")) */\n      dup2\n      swap1\n      mstore\n      pop\n        /* \"VotingSystem.sol\":6856:7048  {... */\n      pop\n        /* \"VotingSystem.sol\":6851:6854  i++ */\n      dup1\n      dup1\n      tag_76\n      swap1\n      tag_77\n      jump\t// in\n    tag_76:\n      swap2\n      pop\n      pop\n        /* \"VotingSystem.sol\":6803:7048  for (uint i = 0; i < candidateAddresses.length; i++) {... */\n      jump(tag_54)\n    tag_55:\n      pop\n        /* \"VotingSystem.sol\":7067:7073  result */\n      dup1\n        /* \"VotingSystem.sol\":7060:7073  return result */\n      swap2\n      pop\n      pop\n        /* \"VotingSystem.sol\":6653:7081  function AllCandidates() public view returns (string[] memory){... */\n      swap1\n      jump\t// out\n        /* \"VotingSystem.sol\":6128:6645  function getCandidateById(string memory _id) public view returns (address, string memory, uint Votes_Received) {... */\n    tag_21:\n        /* \"VotingSystem.sol\":6194:6201  address */\n      0x00\n        /* \"VotingSystem.sol\":6203:6216  string memory */\n      0x60\n        /* \"VotingSystem.sol\":6218:6237  uint Votes_Received */\n      0x00\n        /* \"VotingSystem.sol\":6250:6260  uint count */\n      dup1\n        /* \"VotingSystem.sol\":6263:6293  getRegisteredCandidatesCount() */\n      tag_79\n        /* \"VotingSystem.sol\":6263:6291  getRegisteredCandidatesCount */\n      tag_29\n        /* \"VotingSystem.sol\":6263:6293  getRegisteredCandidatesCount() */\n      jump\t// in\n    tag_79:\n        /* \"VotingSystem.sol\":6250:6293  uint count = getRegisteredCandidatesCount() */\n      swap1\n      pop\n        /* \"VotingSystem.sol\":6311:6317  uint i */\n      0x00\n        /* \"VotingSystem.sol\":6306:6605  for (uint i = 0; i < count; i++){... */\n    tag_80:\n        /* \"VotingSystem.sol\":6327:6332  count */\n      dup2\n        /* \"VotingSystem.sol\":6323:6324  i */\n      dup2\n        /* \"VotingSystem.sol\":6323:6332  i < count */\n      lt\n        /* \"VotingSystem.sol\":6306:6605  for (uint i = 0; i < count; i++){... */\n      iszero\n      tag_81\n      jumpi\n        /* \"VotingSystem.sol\":6359:6397  compareStrings(_id, getCandidateId(i)) */\n      tag_83\n        /* \"VotingSystem.sol\":6374:6377  _id */\n      dup7\n        /* \"VotingSystem.sol\":6379:6396  getCandidateId(i) */\n      tag_84\n        /* \"VotingSystem.sol\":6394:6395  i */\n      dup4\n        /* \"VotingSystem.sol\":6379:6393  getCandidateId */\n      tag_85\n        /* \"VotingSystem.sol\":6379:6396  getCandidateId(i) */\n      jump\t// in\n    tag_84:\n        /* \"VotingSystem.sol\":6359:6373  compareStrings */\n      tag_86\n        /* \"VotingSystem.sol\":6359:6397  compareStrings(_id, getCandidateId(i)) */\n      jump\t// in\n    tag_83:\n        /* \"VotingSystem.sol\":6355:6593  if (compareStrings(_id, getCandidateId(i))) {... */\n      iszero\n      tag_87\n      jumpi\n        /* \"VotingSystem.sol\":6418:6444  Candidate memory candidate */\n      0x00\n        /* \"VotingSystem.sol\":6447:6464  candidatesDetails */\n      0x05\n        /* \"VotingSystem.sol\":6447:6487  candidatesDetails[candidateAddresses[i]] */\n      0x00\n        /* \"VotingSystem.sol\":6465:6483  candidateAddresses */\n      0x01\n        /* \"VotingSystem.sol\":6484:6485  i */\n      dup5\n        /* \"VotingSystem.sol\":6465:6486  candidateAddresses[i] */\n      dup2\n      sload\n      dup2\n      lt\n      tag_88\n      jumpi\n      tag_89\n      tag_59\n      jump\t// in\n    tag_89:\n    tag_88:\n      swap1\n      0x00\n      mstore\n      keccak256(0x00, 0x20)\n      add\n      0x00\n      swap1\n      sload\n      swap1\n      0x0100\n      exp\n      swap1\n      div\n      0xffffffffffffffffffffffffffffffffffffffff\n      and\n        /* \"VotingSystem.sol\":6447:6487  candidatesDetails[candidateAddresses[i]] */\n      0xffffffffffffffffffffffffffffffffffffffff\n      and\n      0xffffffffffffffffffffffffffffffffffffffff\n      and\n      dup2\n      mstore\n      0x20\n      add\n      swap1\n      dup2\n      mstore\n      0x20\n      add\n      0x00\n      keccak256\n        /* \"VotingSystem.sol\":6418:6487  Candidate memory candidate = candidatesDetails[candidateAddresses[i]] */\n      mload(0x40)\n      dup1\n      0x60\n      add\n      0x40\n      mstore\n      swap1\n      dup2\n      0x00\n      dup3\n      add\n      dup1\n      sload\n      tag_91\n      swap1\n      tag_62\n      jump\t// in\n    tag_91:\n      dup1\n      0x1f\n      add\n      0x20\n      dup1\n      swap2\n      div\n      mul\n      0x20\n      add\n      mload(0x40)\n      swap1\n      dup2\n      add\n      0x40\n      mstore\n      dup1\n      swap3\n      swap2\n      swap1\n      dup2\n      dup2\n      mstore\n      0x20\n      add\n      dup3\n      dup1\n      sload\n      tag_92\n      swap1\n      tag_62\n      jump\t// in\n    tag_92:\n      dup1\n      iszero\n      tag_93\n      jumpi\n      dup1\n      0x1f\n      lt\n      tag_94\n      jumpi\n      0x0100\n      dup1\n      dup4\n      sload\n      div\n      mul\n      dup4\n      mstore\n      swap2\n      0x20\n      add\n      swap2\n      jump(tag_93)\n    tag_94:\n      dup3\n      add\n      swap2\n      swap1\n      0x00\n      mstore\n      keccak256(0x00, 0x20)\n      swap1\n    tag_95:\n      dup2\n      sload\n      dup2\n      mstore\n      swap1\n      0x01\n      add\n      swap1\n      0x20\n      add\n      dup1\n      dup4\n      gt\n      tag_95\n      jumpi\n      dup3\n      swap1\n      sub\n      0x1f\n      and\n      dup3\n      add\n      swap2\n    tag_93:\n      pop\n      pop\n      pop\n      pop\n      pop\n      dup2\n      mstore\n      0x20\n      add\n      0x01\n      dup3\n      add\n      dup1\n      sload\n      tag_96\n      swap1\n      tag_62\n      jump\t// in\n    tag_96:\n      dup1\n      0x1f\n      add\n      0x20\n      dup1\n      swap2\n      div\n      mul\n      0x20\n      add\n      mload(0x40)\n      swap1\n      dup2\n      add\n      0x40\n      mstore\n      dup1\n      swap3\n      swap2\n      swap1\n      dup2\n      dup2\n      mstore\n      0x20\n      add\n      dup3\n      dup1\n      sload\n      tag_97\n      swap1\n      tag_62\n      jump\t// in\n    tag_97:\n      dup1\n      iszero\n      tag_98\n      jumpi\n      dup1\n      0x1f\n      lt\n      tag_99\n      jumpi\n      0x0100\n      dup1\n      dup4\n      sload\n      div\n      mul\n      dup4\n      mstore\n      swap2\n      0x20\n      add\n      swap2\n      jump(tag_98)\n    tag_99:\n      dup3\n      add\n      swap2\n      swap1\n      0x00\n      mstore\n      keccak256(0x00, 0x20)\n      swap1\n    tag_100:\n      dup2\n      sload\n      dup2\n      mstore\n      swap1\n      0x01\n      add\n      swap1\n      0x20\n      add\n      dup1\n      dup4\n      gt\n      tag_100\n      jumpi\n      dup3\n      swap1\n      sub\n      0x1f\n      and\n      dup3\n      add\n      swap2\n    tag_98:\n      pop\n      pop\n      pop\n      pop\n      pop\n      dup2\n      mstore\n      0x20\n      add\n      0x02\n      dup3\n      add\n      sload\n      dup2\n      mstore\n      pop\n      pop\n      swap1\n      pop\n        /* \"VotingSystem.sol\":6514:6532  candidateAddresses */\n      0x01\n        /* \"VotingSystem.sol\":6533:6534  i */\n      dup3\n        /* \"VotingSystem.sol\":6514:6535  candidateAddresses[i] */\n      dup2\n      sload\n      dup2\n      lt\n      tag_101\n      jumpi\n      tag_102\n      tag_59\n      jump\t// in\n    tag_102:\n    tag_101:\n      swap1\n      0x00\n      mstore\n      keccak256(0x00, 0x20)\n      add\n      0x00\n      swap1\n      sload\n      swap1\n      0x0100\n      exp\n      swap1\n      div\n      0xffffffffffffffffffffffffffffffffffffffff\n      and\n        /* \"VotingSystem.sol\":6537:6546  candidate */\n      dup2\n        /* \"VotingSystem.sol\":6537:6551  candidate.name */\n      0x00\n      add\n      mload\n        /* \"VotingSystem.sol\":6553:6562  candidate */\n      dup3\n        /* \"VotingSystem.sol\":6553:6576  candidate.votesReceived */\n      0x40\n      add\n      mload\n        /* \"VotingSystem.sol\":6506:6577  return (candidateAddresses[i], candidate.name, candidate.votesReceived) */\n      swap6\n      pop\n      swap6\n      pop\n      swap6\n      pop\n      pop\n      pop\n      pop\n      jump(tag_78)\n        /* \"VotingSystem.sol\":6355:6593  if (compareStrings(_id, getCandidateId(i))) {... */\n    tag_87:\n        /* \"VotingSystem.sol\":6334:6337  i++ */\n      dup1\n      dup1\n      tag_104\n      swap1\n      tag_77\n      jump\t// in\n    tag_104:\n      swap2\n      pop\n      pop\n        /* \"VotingSystem.sol\":6306:6605  for (uint i = 0; i < count; i++){... */\n      jump(tag_80)\n    tag_81:\n      pop\n        /* \"VotingSystem.sol\":6615:6637  revert(\"ID not found\") */\n      mload(0x40)\n      0x08c379a000000000000000000000000000000000000000000000000000000000\n      dup2\n      mstore\n      0x04\n      add\n      tag_105\n      swap1\n      tag_106\n      jump\t// in\n    tag_105:\n      mload(0x40)\n      dup1\n      swap2\n      sub\n      swap1\n      revert\n        /* \"VotingSystem.sol\":6128:6645  function getCandidateById(string memory _id) public view returns (address, string memory, uint Votes_Received) {... */\n    tag_78:\n      swap2\n      swap4\n      swap1\n      swap3\n      pop\n      jump\t// out\n        /* \"VotingSystem.sol\":1356:1434  function endElection() public onlyAdmin{... */\n    tag_25:\n        /* \"VotingSystem.sol\":574:579  admin */\n      0x00\n      dup1\n      sload\n      swap1\n      0x0100\n      exp\n      swap1\n      div\n      0xffffffffffffffffffffffffffffffffffffffff\n      and\n        /* \"VotingSystem.sol\":560:579  msg.sender == admin */\n      0xffffffffffffffffffffffffffffffffffffffff\n      and\n        /* \"VotingSystem.sol\":560:570  msg.sender */\n      caller\n        /* \"VotingSystem.sol\":560:579  msg.sender == admin */\n      0xffffffffffffffffffffffffffffffffffffffff\n      and\n      eq\n        /* \"VotingSystem.sol\":552:618  require(msg.sender == admin, \"Only admin can perform this action\") */\n      tag_108\n      jumpi\n      mload(0x40)\n      0x08c379a000000000000000000000000000000000000000000000000000000000\n      dup2\n      mstore\n      0x04\n      add\n      tag_109\n      swap1\n      tag_110\n      jump\t// in\n    tag_109:\n      mload(0x40)\n      dup1\n      swap2\n      sub\n      swap1\n      revert\n    tag_108:\n        /* \"VotingSystem.sol\":1422:1426  true */\n      0x01\n        /* \"VotingSystem.sol\":1406:1419  electionEnded */\n      0x00\n      0x15\n        /* \"VotingSystem.sol\":1406:1426  electionEnded = true */\n      0x0100\n      exp\n      dup2\n      sload\n      dup2\n      0xff\n      mul\n      not\n      and\n      swap1\n      dup4\n      iszero\n      iszero\n      mul\n      or\n      swap1\n      sstore\n      pop\n        /* \"VotingSystem.sol\":1356:1434  function endElection() public onlyAdmin{... */\n      jump\t// out\n        /* \"VotingSystem.sol\":1233:1348  function startElection() public onlyAdmin {... */\n    tag_27:\n        /* \"VotingSystem.sol\":574:579  admin */\n      0x00\n      dup1\n      sload\n      swap1\n      0x0100\n      exp\n      swap1\n      div\n      0xffffffffffffffffffffffffffffffffffffffff\n      and\n        /* \"VotingSystem.sol\":560:579  msg.sender == admin */\n      0xffffffffffffffffffffffffffffffffffffffff\n      and\n        /* \"VotingSystem.sol\":560:570  msg.sender */\n      caller\n        /* \"VotingSystem.sol\":560:579  msg.sender == admin */\n      0xffffffffffffffffffffffffffffffffffffffff\n      and\n      eq\n        /* \"VotingSystem.sol\":552:618  require(msg.sender == admin, \"Only admin can perform this action\") */\n      tag_113\n      jumpi\n      mload(0x40)\n      0x08c379a000000000000000000000000000000000000000000000000000000000\n      dup2\n      mstore\n      0x04\n      add\n      tag_114\n      swap1\n      tag_110\n      jump\t// in\n    tag_114:\n      mload(0x40)\n      dup1\n      swap2\n      sub\n      swap1\n      revert\n    tag_113:\n        /* \"VotingSystem.sol\":1304:1308  true */\n      0x01\n        /* \"VotingSystem.sol\":1286:1301  electionStarted */\n      0x00\n      0x14\n        /* \"VotingSystem.sol\":1286:1308  electionStarted = true */\n      0x0100\n      exp\n      dup2\n      sload\n      dup2\n      0xff\n      mul\n      not\n      and\n      swap1\n      dup4\n      iszero\n      iszero\n      mul\n      or\n      swap1\n      sstore\n      pop\n        /* \"VotingSystem.sol\":1335:1340  false */\n      0x00\n        /* \"VotingSystem.sol\":1319:1332  electionEnded */\n      dup1\n      0x15\n        /* \"VotingSystem.sol\":1319:1340  electionEnded = false */\n      0x0100\n      exp\n      dup2\n      sload\n      dup2\n      0xff\n      mul\n      not\n      and\n      swap1\n      dup4\n      iszero\n      iszero\n      mul\n      or\n      swap1\n      sstore\n      pop\n        /* \"VotingSystem.sol\":1233:1348  function startElection() public onlyAdmin {... */\n      jump\t// out\n        /* \"VotingSystem.sol\":4401:4713  function getRegisteredCandidatesCount() public view returns (uint256) {... */\n    tag_29:\n        /* \"VotingSystem.sol\":4462:4469  uint256 */\n      0x00\n        /* \"VotingSystem.sol\":4482:4495  uint256 count */\n      dup1\n        /* \"VotingSystem.sol\":4498:4499  0 */\n      0x00\n        /* \"VotingSystem.sol\":4482:4499  uint256 count = 0 */\n      swap1\n      pop\n        /* \"VotingSystem.sol\":4515:4524  uint256 i */\n      0x00\n        /* \"VotingSystem.sol\":4510:4683  for (uint256 i = 0; i < candidateAddresses.length; i++) {... */\n    tag_117:\n        /* \"VotingSystem.sol\":4534:4552  candidateAddresses */\n      0x01\n        /* \"VotingSystem.sol\":4534:4559  candidateAddresses.length */\n      dup1\n      sload\n      swap1\n      pop\n        /* \"VotingSystem.sol\":4530:4531  i */\n      dup2\n        /* \"VotingSystem.sol\":4530:4559  i < candidateAddresses.length */\n      lt\n        /* \"VotingSystem.sol\":4510:4683  for (uint256 i = 0; i < candidateAddresses.length; i++) {... */\n      iszero\n      tag_118\n      jumpi\n        /* \"VotingSystem.sol\":4585:4605  registeredCandidates */\n      0x04\n        /* \"VotingSystem.sol\":4585:4628  registeredCandidates[candidateAddresses[i]] */\n      0x00\n        /* \"VotingSystem.sol\":4606:4624  candidateAddresses */\n      0x01\n        /* \"VotingSystem.sol\":4625:4626  i */\n      dup4\n        /* \"VotingSystem.sol\":4606:4627  candidateAddresses[i] */\n      dup2\n      sload\n      dup2\n      lt\n      tag_120\n      jumpi\n      tag_121\n      tag_59\n      jump\t// in\n    tag_121:\n    tag_120:\n      swap1\n      0x00\n      mstore\n      keccak256(0x00, 0x20)\n      add\n      0x00\n      swap1\n      sload\n      swap1\n      0x0100\n      exp\n      swap1\n      div\n      0xffffffffffffffffffffffffffffffffffffffff\n      and\n        /* \"VotingSystem.sol\":4585:4628  registeredCandidates[candidateAddresses[i]] */\n      0xffffffffffffffffffffffffffffffffffffffff\n      and\n      0xffffffffffffffffffffffffffffffffffffffff\n      and\n      dup2\n      mstore\n      0x20\n      add\n      swap1\n      dup2\n      mstore\n      0x20\n      add\n      0x00\n      keccak256\n      0x00\n      swap1\n      sload\n      swap1\n      0x0100\n      exp\n      swap1\n      div\n      0xff\n      and\n        /* \"VotingSystem.sol\":4581:4672  if (registeredCandidates[candidateAddresses[i]]) {... */\n      iszero\n      tag_123\n      jumpi\n        /* \"VotingSystem.sol\":4649:4656  count++ */\n      dup2\n      dup1\n      tag_124\n      swap1\n      tag_77\n      jump\t// in\n    tag_124:\n      swap3\n      pop\n      pop\n        /* \"VotingSystem.sol\":4581:4672  if (registeredCandidates[candidateAddresses[i]]) {... */\n    tag_123:\n        /* \"VotingSystem.sol\":4561:4564  i++ */\n      dup1\n      dup1\n      tag_125\n      swap1\n      tag_77\n      jump\t// in\n    tag_125:\n      swap2\n      pop\n      pop\n        /* \"VotingSystem.sol\":4510:4683  for (uint256 i = 0; i < candidateAddresses.length; i++) {... */\n      jump(tag_117)\n    tag_118:\n      pop\n        /* \"VotingSystem.sol\":4700:4705  count */\n      dup1\n        /* \"VotingSystem.sol\":4693:4705  return count */\n      swap2\n      pop\n      pop\n        /* \"VotingSystem.sol\":4401:4713  function getRegisteredCandidatesCount() public view returns (uint256) {... */\n      swap1\n      jump\t// out\n        /* \"VotingSystem.sol\":4721:4809  function registerAsVoter() public {... */\n    tag_33:\n        /* \"VotingSystem.sol\":4797:4801  true */\n      0x01\n        /* \"VotingSystem.sol\":4766:4782  registeredVoters */\n      0x02\n        /* \"VotingSystem.sol\":4766:4794  registeredVoters[msg.sender] */\n      0x00\n        /* \"VotingSystem.sol\":4783:4793  msg.sender */\n      caller\n        /* \"VotingSystem.sol\":4766:4794  registeredVoters[msg.sender] */\n      0xffffffffffffffffffffffffffffffffffffffff\n      and\n      0xffffffffffffffffffffffffffffffffffffffff\n      and\n      dup2\n      mstore\n      0x20\n      add\n      swap1\n      dup2\n      mstore\n      0x20\n      add\n      0x00\n      keccak256\n      0x00\n        /* \"VotingSystem.sol\":4766:4801  registeredVoters[msg.sender] = true */\n      0x0100\n      exp\n      dup2\n      sload\n      dup2\n      0xff\n      mul\n      not\n      and\n      swap1\n      dup4\n      iszero\n      iszero\n      mul\n      or\n      swap1\n      sstore\n      pop\n        /* \"VotingSystem.sol\":4721:4809  function registerAsVoter() public {... */\n      jump\t// out\n        /* \"VotingSystem.sol\":7091:7896  function Winner() public view returns (string memory) {... */\n    tag_35:\n        /* \"VotingSystem.sol\":7130:7143  string memory */\n      0x60\n        /* \"VotingSystem.sol\":7164:7177  electionEnded */\n      0x00\n      0x15\n      swap1\n      sload\n      swap1\n      0x0100\n      exp\n      swap1\n      div\n      0xff\n      and\n        /* \"VotingSystem.sol\":7156:7205  require(electionEnded, \"Election in progress...\") */\n      tag_128\n      jumpi\n      mload(0x40)\n      0x08c379a000000000000000000000000000000000000000000000000000000000\n      dup2\n      mstore\n      0x04\n      add\n      tag_129\n      swap1\n      tag_130\n      jump\t// in\n    tag_129:\n      mload(0x40)\n      dup1\n      swap2\n      sub\n      swap1\n      revert\n    tag_128:\n        /* \"VotingSystem.sol\":7216:7232  uint256 maxVotes */\n      0x00\n        /* \"VotingSystem.sol\":7247:7271  address winningCandidate */\n      dup1\n        /* \"VotingSystem.sol\":7282:7292  uint count */\n      dup1\n        /* \"VotingSystem.sol\":7295:7296  0 */\n      0x00\n        /* \"VotingSystem.sol\":7282:7296  uint count = 0 */\n      swap1\n      pop\n        /* \"VotingSystem.sol\":7314:7323  uint256 i */\n      0x00\n        /* \"VotingSystem.sol\":7309:7740  for (uint256 i = 0; i < candidateAddresses.length; i++) {... */\n    tag_131:\n        /* \"VotingSystem.sol\":7333:7351  candidateAddresses */\n      0x01\n        /* \"VotingSystem.sol\":7333:7358  candidateAddresses.length */\n      dup1\n      sload\n      swap1\n      pop\n        /* \"VotingSystem.sol\":7329:7330  i */\n      dup2\n        /* \"VotingSystem.sol\":7329:7358  i < candidateAddresses.length */\n      lt\n        /* \"VotingSystem.sol\":7309:7740  for (uint256 i = 0; i < candidateAddresses.length; i++) {... */\n      iszero\n      tag_132\n      jumpi\n        /* \"VotingSystem.sol\":7441:7449  maxVotes */\n      dup4\n        /* \"VotingSystem.sol\":7384:7401  candidatesDetails */\n      0x05\n        /* \"VotingSystem.sol\":7384:7424  candidatesDetails[candidateAddresses[i]] */\n      0x00\n        /* \"VotingSystem.sol\":7402:7420  candidateAddresses */\n      0x01\n        /* \"VotingSystem.sol\":7421:7422  i */\n      dup5\n        /* \"VotingSystem.sol\":7402:7423  candidateAddresses[i] */\n      dup2\n      sload\n      dup2\n      lt\n      tag_134\n      jumpi\n      tag_135\n      tag_59\n      jump\t// in\n    tag_135:\n    tag_134:\n      swap1\n      0x00\n      mstore\n      keccak256(0x00, 0x20)\n      add\n      0x00\n      swap1\n      sload\n      swap1\n      0x0100\n      exp\n      swap1\n      div\n      0xffffffffffffffffffffffffffffffffffffffff\n      and\n        /* \"VotingSystem.sol\":7384:7424  candidatesDetails[candidateAddresses[i]] */\n      0xffffffffffffffffffffffffffffffffffffffff\n      and\n      0xffffffffffffffffffffffffffffffffffffffff\n      and\n      dup2\n      mstore\n      0x20\n      add\n      swap1\n      dup2\n      mstore\n      0x20\n      add\n      0x00\n      keccak256\n        /* \"VotingSystem.sol\":7384:7438  candidatesDetails[candidateAddresses[i]].votesReceived */\n      0x02\n      add\n      sload\n        /* \"VotingSystem.sol\":7384:7449  candidatesDetails[candidateAddresses[i]].votesReceived > maxVotes */\n      gt\n        /* \"VotingSystem.sol\":7380:7729  if (candidatesDetails[candidateAddresses[i]].votesReceived > maxVotes) {... */\n      iszero\n      tag_137\n      jumpi\n        /* \"VotingSystem.sol\":7481:7498  candidatesDetails */\n      0x05\n        /* \"VotingSystem.sol\":7481:7521  candidatesDetails[candidateAddresses[i]] */\n      0x00\n        /* \"VotingSystem.sol\":7499:7517  candidateAddresses */\n      0x01\n        /* \"VotingSystem.sol\":7518:7519  i */\n      dup4\n        /* \"VotingSystem.sol\":7499:7520  candidateAddresses[i] */\n      dup2\n      sload\n      dup2\n      lt\n      tag_138\n      jumpi\n      tag_139\n      tag_59\n      jump\t// in\n    tag_139:\n    tag_138:\n      swap1\n      0x00\n      mstore\n      keccak256(0x00, 0x20)\n      add\n      0x00\n      swap1\n      sload\n      swap1\n      0x0100\n      exp\n      swap1\n      div\n      0xffffffffffffffffffffffffffffffffffffffff\n      and\n        /* \"VotingSystem.sol\":7481:7521  candidatesDetails[candidateAddresses[i]] */\n      0xffffffffffffffffffffffffffffffffffffffff\n      and\n      0xffffffffffffffffffffffffffffffffffffffff\n      and\n      dup2\n      mstore\n      0x20\n      add\n      swap1\n      dup2\n      mstore\n      0x20\n      add\n      0x00\n      keccak256\n        /* \"VotingSystem.sol\":7481:7535  candidatesDetails[candidateAddresses[i]].votesReceived */\n      0x02\n      add\n      sload\n        /* \"VotingSystem.sol\":7470:7535  maxVotes = candidatesDetails[candidateAddresses[i]].votesReceived */\n      swap4\n      pop\n        /* \"VotingSystem.sol\":7573:7591  candidateAddresses */\n      0x01\n        /* \"VotingSystem.sol\":7592:7593  i */\n      dup2\n        /* \"VotingSystem.sol\":7573:7594  candidateAddresses[i] */\n      dup2\n      sload\n      dup2\n      lt\n      tag_141\n      jumpi\n      tag_142\n      tag_59\n      jump\t// in\n    tag_142:\n    tag_141:\n      swap1\n      0x00\n      mstore\n      keccak256(0x00, 0x20)\n      add\n      0x00\n      swap1\n      sload\n      swap1\n      0x0100\n      exp\n      swap1\n      div\n      0xffffffffffffffffffffffffffffffffffffffff\n      and\n        /* \"VotingSystem.sol\":7554:7594  winningCandidate = candidateAddresses[i] */\n      swap3\n      pop\n        /* \"VotingSystem.sol\":7380:7729  if (candidatesDetails[candidateAddresses[i]].votesReceived > maxVotes) {... */\n      jump(tag_144)\n    tag_137:\n        /* \"VotingSystem.sol\":7678:7686  maxVotes */\n      dup4\n        /* \"VotingSystem.sol\":7620:7637  candidatesDetails */\n      0x05\n        /* \"VotingSystem.sol\":7620:7660  candidatesDetails[candidateAddresses[i]] */\n      0x00\n        /* \"VotingSystem.sol\":7638:7656  candidateAddresses */\n      0x01\n        /* \"VotingSystem.sol\":7657:7658  i */\n      dup5\n        /* \"VotingSystem.sol\":7638:7659  candidateAddresses[i] */\n      dup2\n      sload\n      dup2\n      lt\n      tag_145\n      jumpi\n      tag_146\n      tag_59\n      jump\t// in\n    tag_146:\n    tag_145:\n      swap1\n      0x00\n      mstore\n      keccak256(0x00, 0x20)\n      add\n      0x00\n      swap1\n      sload\n      swap1\n      0x0100\n      exp\n      swap1\n      div\n      0xffffffffffffffffffffffffffffffffffffffff\n      and\n        /* \"VotingSystem.sol\":7620:7660  candidatesDetails[candidateAddresses[i]] */\n      0xffffffffffffffffffffffffffffffffffffffff\n      and\n      0xffffffffffffffffffffffffffffffffffffffff\n      and\n      dup2\n      mstore\n      0x20\n      add\n      swap1\n      dup2\n      mstore\n      0x20\n      add\n      0x00\n      keccak256\n        /* \"VotingSystem.sol\":7620:7674  candidatesDetails[candidateAddresses[i]].votesReceived */\n      0x02\n      add\n      sload\n        /* \"VotingSystem.sol\":7620:7686  candidatesDetails[candidateAddresses[i]].votesReceived == maxVotes */\n      sub\n        /* \"VotingSystem.sol\":7616:7729  if (candidatesDetails[candidateAddresses[i]].votesReceived == maxVotes) {... */\n      tag_148\n      jumpi\n        /* \"VotingSystem.sol\":7706:7713  count++ */\n      dup2\n      dup1\n      tag_149\n      swap1\n      tag_77\n      jump\t// in\n    tag_149:\n      swap3\n      pop\n      pop\n        /* \"VotingSystem.sol\":7616:7729  if (candidatesDetails[candidateAddresses[i]].votesReceived == maxVotes) {... */\n    tag_148:\n        /* \"VotingSystem.sol\":7380:7729  if (candidatesDetails[candidateAddresses[i]].votesReceived > maxVotes) {... */\n    tag_144:\n        /* \"VotingSystem.sol\":7360:7363  i++ */\n      dup1\n      dup1\n      tag_150\n      swap1\n      tag_77\n      jump\t// in\n    tag_150:\n      swap2\n      pop\n      pop\n        /* \"VotingSystem.sol\":7309:7740  for (uint256 i = 0; i < candidateAddresses.length; i++) {... */\n      jump(tag_131)\n    tag_132:\n      pop\n        /* \"VotingSystem.sol\":7765:7766  1 */\n      0x01\n        /* \"VotingSystem.sol\":7756:7761  count */\n      dup2\n        /* \"VotingSystem.sol\":7756:7766  count >= 1 */\n      lt\n        /* \"VotingSystem.sol\":7752:7829  if (count >= 1) {... */\n      tag_151\n      jumpi\n        /* \"VotingSystem.sol\":7787:7813  return(\"Election Tied...\") */\n      mload(0x40)\n      dup1\n      0x40\n      add\n      0x40\n      mstore\n      dup1\n      0x10\n      dup2\n      mstore\n      0x20\n      add\n      0x456c656374696f6e20546965642e2e2e00000000000000000000000000000000\n      dup2\n      mstore\n      pop\n      swap4\n      pop\n      pop\n      pop\n      pop\n      jump(tag_127)\n        /* \"VotingSystem.sol\":7752:7829  if (count >= 1) {... */\n    tag_151:\n        /* \"VotingSystem.sol\":7848:7865  candidatesDetails */\n      0x05\n        /* \"VotingSystem.sol\":7848:7883  candidatesDetails[winningCandidate] */\n      0x00\n        /* \"VotingSystem.sol\":7866:7882  winningCandidate */\n      dup4\n        /* \"VotingSystem.sol\":7848:7883  candidatesDetails[winningCandidate] */\n      0xffffffffffffffffffffffffffffffffffffffff\n      and\n      0xffffffffffffffffffffffffffffffffffffffff\n      and\n      dup2\n      mstore\n      0x20\n      add\n      swap1\n      dup2\n      mstore\n      0x20\n      add\n      0x00\n      keccak256\n        /* \"VotingSystem.sol\":7848:7888  candidatesDetails[winningCandidate].name */\n      0x00\n      add\n        /* \"VotingSystem.sol\":7841:7888  return candidatesDetails[winningCandidate].name */\n      dup1\n      sload\n      tag_152\n      swap1\n      tag_62\n      jump\t// in\n    tag_152:\n      dup1\n      0x1f\n      add\n      0x20\n      dup1\n      swap2\n      div\n      mul\n      0x20\n      add\n      mload(0x40)\n      swap1\n      dup2\n      add\n      0x40\n      mstore\n      dup1\n      swap3\n      swap2\n      swap1\n      dup2\n      dup2\n      mstore\n      0x20\n      add\n      dup3\n      dup1\n      sload\n      tag_153\n      swap1\n      tag_62\n      jump\t// in\n    tag_153:\n      dup1\n      iszero\n      tag_154\n      jumpi\n      dup1\n      0x1f\n      lt\n      tag_155\n      jumpi\n      0x0100\n      dup1\n      dup4\n      sload\n      div\n      mul\n      dup4\n      mstore\n      swap2\n      0x20\n      add\n      swap2\n      jump(tag_154)\n    tag_155:\n      dup3\n      add\n      swap2\n      swap1\n      0x00\n      mstore\n      keccak256(0x00, 0x20)\n      swap1\n    tag_156:\n      dup2\n      sload\n      dup2\n      mstore\n      swap1\n      0x01\n      add\n      swap1\n      0x20\n      add\n      dup1\n      dup4\n      gt\n      tag_156\n      jumpi\n      dup3\n      swap1\n      sub\n      0x1f\n      and\n      dup3\n      add\n      swap2\n    tag_154:\n      pop\n      pop\n      pop\n      pop\n      pop\n      swap4\n      pop\n      pop\n      pop\n      pop\n        /* \"VotingSystem.sol\":7091:7896  function Winner() public view returns (string memory) {... */\n    tag_127:\n      swap1\n      jump\t// out\n        /* \"VotingSystem.sol\":4193:4393  function registerAsCandidate(string memory _name) public {... */\n    tag_40:\n        /* \"VotingSystem.sol\":4270:4290  registeredCandidates */\n      0x04\n        /* \"VotingSystem.sol\":4270:4302  registeredCandidates[msg.sender] */\n      0x00\n        /* \"VotingSystem.sol\":4291:4301  msg.sender */\n      caller\n        /* \"VotingSystem.sol\":4270:4302  registeredCandidates[msg.sender] */\n      0xffffffffffffffffffffffffffffffffffffffff\n      and\n      0xffffffffffffffffffffffffffffffffffffffff\n      and\n      dup2\n      mstore\n      0x20\n      add\n      swap1\n      dup2\n      mstore\n      0x20\n      add\n      0x00\n      keccak256\n      0x00\n      swap1\n      sload\n      swap1\n      0x0100\n      exp\n      swap1\n      div\n      0xff\n      and\n        /* \"VotingSystem.sol\":4269:4302  !registeredCandidates[msg.sender] */\n      iszero\n        /* \"VotingSystem.sol\":4261:4338  require(!registeredCandidates[msg.sender], \"Candidate is alredy registrerd.\") */\n      tag_158\n      jumpi\n      mload(0x40)\n      0x08c379a000000000000000000000000000000000000000000000000000000000\n      dup2\n      mstore\n      0x04\n      add\n      tag_159\n      swap1\n      tag_160\n      jump\t// in\n    tag_159:\n      mload(0x40)\n      dup1\n      swap2\n      sub\n      swap1\n      revert\n    tag_158:\n        /* \"VotingSystem.sol\":4349:4385  registerCandidate(msg.sender, _name) */\n      tag_161\n        /* \"VotingSystem.sol\":4367:4377  msg.sender */\n      caller\n        /* \"VotingSystem.sol\":4379:4384  _name */\n      dup3\n        /* \"VotingSystem.sol\":4349:4366  registerCandidate */\n      tag_162\n        /* \"VotingSystem.sol\":4349:4385  registerCandidate(msg.sender, _name) */\n      jump\t// in\n    tag_161:\n        /* \"VotingSystem.sol\":4193:4393  function registerAsCandidate(string memory _name) public {... */\n      pop\n      jump\t// out\n        /* \"VotingSystem.sol\":5672:5824  function viewVoterDetails() public view returns(bool Registered, bool Voted) {... */\n    tag_42:\n        /* \"VotingSystem.sol\":5720:5735  bool Registered */\n      0x00\n        /* \"VotingSystem.sol\":5737:5747  bool Voted */\n      dup1\n        /* \"VotingSystem.sol\":5768:5784  registeredVoters */\n      0x02\n        /* \"VotingSystem.sol\":5768:5796  registeredVoters[msg.sender] */\n      0x00\n        /* \"VotingSystem.sol\":5785:5795  msg.sender */\n      caller\n        /* \"VotingSystem.sol\":5768:5796  registeredVoters[msg.sender] */\n      0xffffffffffffffffffffffffffffffffffffffff\n      and\n      0xffffffffffffffffffffffffffffffffffffffff\n      and\n      dup2\n      mstore\n      0x20\n      add\n      swap1\n      dup2\n      mstore\n      0x20\n      add\n      0x00\n      keccak256\n      0x00\n      swap1\n      sload\n      swap1\n      0x0100\n      exp\n      swap1\n      div\n      0xff\n      and\n        /* \"VotingSystem.sol\":5798:5803  voted */\n      0x03\n        /* \"VotingSystem.sol\":5798:5815  voted[msg.sender] */\n      0x00\n        /* \"VotingSystem.sol\":5804:5814  msg.sender */\n      caller\n        /* \"VotingSystem.sol\":5798:5815  voted[msg.sender] */\n      0xffffffffffffffffffffffffffffffffffffffff\n      and\n      0xffffffffffffffffffffffffffffffffffffffff\n      and\n      dup2\n      mstore\n      0x20\n      add\n      swap1\n      dup2\n      mstore\n      0x20\n      add\n      0x00\n      keccak256\n      0x00\n      swap1\n      sload\n      swap1\n      0x0100\n      exp\n      swap1\n      div\n      0xff\n      and\n        /* \"VotingSystem.sol\":5760:5816  return (registeredVoters[msg.sender], voted[msg.sender]) */\n      swap2\n      pop\n      swap2\n      pop\n        /* \"VotingSystem.sol\":5672:5824  function viewVoterDetails() public view returns(bool Registered, bool Voted) {... */\n      swap1\n      swap2\n      jump\t// out\n        /* \"VotingSystem.sol\":5220:5663  function voteById(string memory _idOrAddress) public electionInProgress {... */\n    tag_47:\n        /* \"VotingSystem.sol\":990:1005  electionStarted */\n      0x00\n      0x14\n      swap1\n      sload\n      swap1\n      0x0100\n      exp\n      swap1\n      div\n      0xff\n      and\n        /* \"VotingSystem.sol\":981:1034  require (electionStarted, \"Election has not started\") */\n      tag_165\n      jumpi\n      mload(0x40)\n      0x08c379a000000000000000000000000000000000000000000000000000000000\n      dup2\n      mstore\n      0x04\n      add\n      tag_166\n      swap1\n      tag_167\n      jump\t// in\n    tag_166:\n      mload(0x40)\n      dup1\n      swap2\n      sub\n      swap1\n      revert\n    tag_165:\n        /* \"VotingSystem.sol\":1054:1067  electionEnded */\n      0x00\n      0x15\n      swap1\n      sload\n      swap1\n      0x0100\n      exp\n      swap1\n      div\n      0xff\n      and\n        /* \"VotingSystem.sol\":1053:1067  !electionEnded */\n      iszero\n        /* \"VotingSystem.sol\":1045:1098  require(!electionEnded, \"Election has already ended\") */\n      tag_168\n      jumpi\n      mload(0x40)\n      0x08c379a000000000000000000000000000000000000000000000000000000000\n      dup2\n      mstore\n      0x04\n      add\n      tag_169\n      swap1\n      tag_170\n      jump\t// in\n    tag_169:\n      mload(0x40)\n      dup1\n      swap2\n      sub\n      swap1\n      revert\n    tag_168:\n        /* \"VotingSystem.sol\":5337:5339  42 */\n      0x2a\n        /* \"VotingSystem.sol\":5313:5325  _idOrAddress */\n      dup2\n        /* \"VotingSystem.sol\":5307:5333  bytes(_idOrAddress).length */\n      mload\n        /* \"VotingSystem.sol\":5307:5339  bytes(_idOrAddress).length == 42 */\n      sub\n        /* \"VotingSystem.sol\":5303:5656  if (bytes(_idOrAddress).length == 42) { // Assuming addresses are 42 characters long (including '0x' prefix)... */\n      tag_172\n      jumpi\n        /* \"VotingSystem.sol\":5425:5449  address candidateAddress */\n      0x00\n        /* \"VotingSystem.sol\":5452:5481  stringToAddress(_idOrAddress) */\n      tag_173\n        /* \"VotingSystem.sol\":5468:5480  _idOrAddress */\n      dup3\n        /* \"VotingSystem.sol\":5452:5467  stringToAddress */\n      tag_174\n        /* \"VotingSystem.sol\":5452:5481  stringToAddress(_idOrAddress) */\n      jump\t// in\n    tag_173:\n        /* \"VotingSystem.sol\":5425:5481  address candidateAddress = stringToAddress(_idOrAddress) */\n      swap1\n      pop\n        /* \"VotingSystem.sol\":5496:5518  vote(candidateAddress) */\n      tag_175\n        /* \"VotingSystem.sol\":5501:5517  candidateAddress */\n      dup2\n        /* \"VotingSystem.sol\":5496:5500  vote */\n      tag_176\n        /* \"VotingSystem.sol\":5496:5518  vote(candidateAddress) */\n      jump\t// in\n    tag_175:\n        /* \"VotingSystem.sol\":5341:5530  { // Assuming addresses are 42 characters long (including '0x' prefix)... */\n      pop\n        /* \"VotingSystem.sol\":5303:5656  if (bytes(_idOrAddress).length == 42) { // Assuming addresses are 42 characters long (including '0x' prefix)... */\n      jump(tag_177)\n    tag_172:\n        /* \"VotingSystem.sol\":5552:5573  address returnAddress */\n      0x00\n        /* \"VotingSystem.sol\":5580:5610  getCandidateById(_idOrAddress) */\n      tag_178\n        /* \"VotingSystem.sol\":5597:5609  _idOrAddress */\n      dup3\n        /* \"VotingSystem.sol\":5580:5596  getCandidateById */\n      tag_21\n        /* \"VotingSystem.sol\":5580:5610  getCandidateById(_idOrAddress) */\n      jump\t// in\n    tag_178:\n        /* \"VotingSystem.sol\":5551:5610  (address returnAddress, ,) = getCandidateById(_idOrAddress) */\n      pop\n      pop\n      swap1\n      pop\n        /* \"VotingSystem.sol\":5625:5644  vote(returnAddress) */\n      tag_179\n        /* \"VotingSystem.sol\":5630:5643  returnAddress */\n      dup2\n        /* \"VotingSystem.sol\":5625:5629  vote */\n      tag_176\n        /* \"VotingSystem.sol\":5625:5644  vote(returnAddress) */\n      jump\t// in\n    tag_179:\n        /* \"VotingSystem.sol\":5536:5656  {... */\n      pop\n        /* \"VotingSystem.sol\":5303:5656  if (bytes(_idOrAddress).length == 42) { // Assuming addresses are 42 characters long (including '0x' prefix)... */\n    tag_177:\n        /* \"VotingSystem.sol\":5220:5663  function voteById(string memory _idOrAddress) public electionInProgress {... */\n      pop\n      jump\t// out\n        /* \"VotingSystem.sol\":5832:6120  function getCandidateId(uint256 index) internal view returns (string memory) {... */\n    tag_85:\n        /* \"VotingSystem.sol\":5894:5907  string memory */\n      0x60\n        /* \"VotingSystem.sol\":5936:5954  candidateAddresses */\n      0x01\n        /* \"VotingSystem.sol\":5936:5961  candidateAddresses.length */\n      dup1\n      sload\n      swap1\n      pop\n        /* \"VotingSystem.sol\":5928:5933  index */\n      dup3\n        /* \"VotingSystem.sol\":5928:5961  index < candidateAddresses.length */\n      lt\n        /* \"VotingSystem.sol\":5920:5994  require(index < candidateAddresses.length, \"Candidate index out of range\") */\n      tag_181\n      jumpi\n      mload(0x40)\n      0x08c379a000000000000000000000000000000000000000000000000000000000\n      dup2\n      mstore\n      0x04\n      add\n      tag_182\n      swap1\n      tag_183\n      jump\t// in\n    tag_182:\n      mload(0x40)\n      dup1\n      swap2\n      sub\n      swap1\n      revert\n    tag_181:\n        /* \"VotingSystem.sol\":6007:6033  Candidate memory candidate */\n      0x00\n        /* \"VotingSystem.sol\":6036:6053  candidatesDetails */\n      0x05\n        /* \"VotingSystem.sol\":6036:6080  candidatesDetails[candidateAddresses[index]] */\n      0x00\n        /* \"VotingSystem.sol\":6054:6072  candidateAddresses */\n      0x01\n        /* \"VotingSystem.sol\":6073:6078  index */\n      dup6\n        /* \"VotingSystem.sol\":6054:6079  candidateAddresses[index] */\n      dup2\n      sload\n      dup2\n      lt\n      tag_184\n      jumpi\n      tag_185\n      tag_59\n      jump\t// in\n    tag_185:\n    tag_184:\n      swap1\n      0x00\n      mstore\n      keccak256(0x00, 0x20)\n      add\n      0x00\n      swap1\n      sload\n      swap1\n      0x0100\n      exp\n      swap1\n      div\n      0xffffffffffffffffffffffffffffffffffffffff\n      and\n        /* \"VotingSystem.sol\":6036:6080  candidatesDetails[candidateAddresses[index]] */\n      0xffffffffffffffffffffffffffffffffffffffff\n      and\n      0xffffffffffffffffffffffffffffffffffffffff\n      and\n      dup2\n      mstore\n      0x20\n      add\n      swap1\n      dup2\n      mstore\n      0x20\n      add\n      0x00\n      keccak256\n        /* \"VotingSystem.sol\":6007:6080  Candidate memory candidate = candidatesDetails[candidateAddresses[index]] */\n      mload(0x40)\n      dup1\n      0x60\n      add\n      0x40\n      mstore\n      swap1\n      dup2\n      0x00\n      dup3\n      add\n      dup1\n      sload\n      tag_187\n      swap1\n      tag_62\n      jump\t// in\n    tag_187:\n      dup1\n      0x1f\n      add\n      0x20\n      dup1\n      swap2\n      div\n      mul\n      0x20\n      add\n      mload(0x40)\n      swap1\n      dup2\n      add\n      0x40\n      mstore\n      dup1\n      swap3\n      swap2\n      swap1\n      dup2\n      dup2\n      mstore\n      0x20\n      add\n      dup3\n      dup1\n      sload\n      tag_188\n      swap1\n      tag_62\n      jump\t// in\n    tag_188:\n      dup1\n      iszero\n      tag_189\n      jumpi\n      dup1\n      0x1f\n      lt\n      tag_190\n      jumpi\n      0x0100\n      dup1\n      dup4\n      sload\n      div\n      mul\n      dup4\n      mstore\n      swap2\n      0x20\n      add\n      swap2\n      jump(tag_189)\n    tag_190:\n      dup3\n      add\n      swap2\n      swap1\n      0x00\n      mstore\n      keccak256(0x00, 0x20)\n      swap1\n    tag_191:\n      dup2\n      sload\n      dup2\n      mstore\n      swap1\n      0x01\n      add\n      swap1\n      0x20\n      add\n      dup1\n      dup4\n      gt\n      tag_191\n      jumpi\n      dup3\n      swap1\n      sub\n      0x1f\n      and\n      dup3\n      add\n      swap2\n    tag_189:\n      pop\n      pop\n      pop\n      pop\n      pop\n      dup2\n      mstore\n      0x20\n      add\n      0x01\n      dup3\n      add\n      dup1\n      sload\n      tag_192\n      swap1\n      tag_62\n      jump\t// in\n    tag_192:\n      dup1\n      0x1f\n      add\n      0x20\n      dup1\n      swap2\n      div\n      mul\n      0x20\n      add\n      mload(0x40)\n      swap1\n      dup2\n      add\n      0x40\n      mstore\n      dup1\n      swap3\n      swap2\n      swap1\n      dup2\n      dup2\n      mstore\n      0x20\n      add\n      dup3\n      dup1\n      sload\n      tag_193\n      swap1\n      tag_62\n      jump\t// in\n    tag_193:\n      dup1\n      iszero\n      tag_194\n      jumpi\n      dup1\n      0x1f\n      lt\n      tag_195\n      jumpi\n      0x0100\n      dup1\n      dup4\n      sload\n      div\n      mul\n      dup4\n      mstore\n      swap2\n      0x20\n      add\n      swap2\n      jump(tag_194)\n    tag_195:\n      dup3\n      add\n      swap2\n      swap1\n      0x00\n      mstore\n      keccak256(0x00, 0x20)\n      swap1\n    tag_196:\n      dup2\n      sload\n      dup2\n      mstore\n      swap1\n      0x01\n      add\n      swap1\n      0x20\n      add\n      dup1\n      dup4\n      gt\n      tag_196\n      jumpi\n      dup3\n      swap1\n      sub\n      0x1f\n      and\n      dup3\n      add\n      swap2\n    tag_194:\n      pop\n      pop\n      pop\n      pop\n      pop\n      dup2\n      mstore\n      0x20\n      add\n      0x02\n      dup3\n      add\n      sload\n      dup2\n      mstore\n      pop\n      pop\n      swap1\n      pop\n        /* \"VotingSystem.sol\":6099:6108  candidate */\n      dup1\n        /* \"VotingSystem.sol\":6099:6111  candidate.id */\n      0x20\n      add\n      mload\n        /* \"VotingSystem.sol\":6091:6112  return (candidate.id) */\n      swap2\n      pop\n      pop\n        /* \"VotingSystem.sol\":5832:6120  function getCandidateId(uint256 index) internal view returns (string memory) {... */\n      swap2\n      swap1\n      pop\n      jump\t// out\n        /* \"VotingSystem.sol\":1442:1619  function compareStrings(string memory a, string memory b) internal pure returns (bool) {... */\n    tag_86:\n        /* \"VotingSystem.sol\":1523:1527  bool */\n      0x00\n        /* \"VotingSystem.sol\":1608:1609  b */\n      dup2\n        /* \"VotingSystem.sol\":1591:1610  abi.encodePacked(b) */\n      add(0x20, mload(0x40))\n      tag_198\n      swap2\n      swap1\n      tag_199\n      jump\t// in\n    tag_198:\n      mload(0x40)\n      0x20\n      dup2\n      dup4\n      sub\n      sub\n      dup2\n      mstore\n      swap1\n      0x40\n      mstore\n        /* \"VotingSystem.sol\":1581:1611  keccak256(abi.encodePacked(b)) */\n      dup1\n      mload\n      swap1\n      0x20\n      add\n      keccak256\n        /* \"VotingSystem.sol\":1574:1575  a */\n      dup4\n        /* \"VotingSystem.sol\":1557:1576  abi.encodePacked(a) */\n      add(0x20, mload(0x40))\n      tag_200\n      swap2\n      swap1\n      tag_199\n      jump\t// in\n    tag_200:\n      mload(0x40)\n      0x20\n      dup2\n      dup4\n      sub\n      sub\n      dup2\n      mstore\n      swap1\n      0x40\n      mstore\n        /* \"VotingSystem.sol\":1547:1577  keccak256(abi.encodePacked(a)) */\n      dup1\n      mload\n      swap1\n      0x20\n      add\n      keccak256\n        /* \"VotingSystem.sol\":1547:1611  keccak256(abi.encodePacked(a)) == keccak256(abi.encodePacked(b)) */\n      eq\n        /* \"VotingSystem.sol\":1540:1611  return keccak256(abi.encodePacked(a)) == keccak256(abi.encodePacked(b)) */\n      swap1\n      pop\n        /* \"VotingSystem.sol\":1442:1619  function compareStrings(string memory a, string memory b) internal pure returns (bool) {... */\n      swap3\n      swap2\n      pop\n      pop\n      jump\t// out\n        /* \"VotingSystem.sol\":3842:4181  function registerCandidate(address _candidate, string memory _name) internal {... */\n    tag_162:\n        /* \"VotingSystem.sol\":3965:3969  true */\n      0x01\n        /* \"VotingSystem.sol\":3930:3950  registeredCandidates */\n      0x04\n        /* \"VotingSystem.sol\":3930:3962  registeredCandidates[_candidate] */\n      0x00\n        /* \"VotingSystem.sol\":3951:3961  _candidate */\n      dup5\n        /* \"VotingSystem.sol\":3930:3962  registeredCandidates[_candidate] */\n      0xffffffffffffffffffffffffffffffffffffffff\n      and\n      0xffffffffffffffffffffffffffffffffffffffff\n      and\n      dup2\n      mstore\n      0x20\n      add\n      swap1\n      dup2\n      mstore\n      0x20\n      add\n      0x00\n      keccak256\n      0x00\n        /* \"VotingSystem.sol\":3930:3969  registeredCandidates[_candidate] = true */\n      0x0100\n      exp\n      dup2\n      sload\n      dup2\n      0xff\n      mul\n      not\n      and\n      swap1\n      dup4\n      iszero\n      iszero\n      mul\n      or\n      swap1\n      sstore\n      pop\n        /* \"VotingSystem.sol\":4014:4127  Candidate({... */\n      mload(0x40)\n      dup1\n      0x60\n      add\n      0x40\n      mstore\n      dup1\n        /* \"VotingSystem.sol\":4045:4050  _name */\n      dup3\n        /* \"VotingSystem.sol\":4014:4127  Candidate({... */\n      dup2\n      mstore\n      0x20\n      add\n        /* \"VotingSystem.sol\":4069:4084  createId(_name) */\n      tag_202\n        /* \"VotingSystem.sol\":4078:4083  _name */\n      dup4\n        /* \"VotingSystem.sol\":4069:4077  createId */\n      tag_203\n        /* \"VotingSystem.sol\":4069:4084  createId(_name) */\n      jump\t// in\n    tag_202:\n        /* \"VotingSystem.sol\":4014:4127  Candidate({... */\n      dup2\n      mstore\n      0x20\n      add\n        /* \"VotingSystem.sol\":4114:4115  0 */\n      0x00\n        /* \"VotingSystem.sol\":4014:4127  Candidate({... */\n      dup2\n      mstore\n      pop\n        /* \"VotingSystem.sol\":3982:3999  candidatesDetails */\n      0x05\n        /* \"VotingSystem.sol\":3982:4011  candidatesDetails[_candidate] */\n      0x00\n        /* \"VotingSystem.sol\":4000:4010  _candidate */\n      dup5\n        /* \"VotingSystem.sol\":3982:4011  candidatesDetails[_candidate] */\n      0xffffffffffffffffffffffffffffffffffffffff\n      and\n      0xffffffffffffffffffffffffffffffffffffffff\n      and\n      dup2\n      mstore\n      0x20\n      add\n      swap1\n      dup2\n      mstore\n      0x20\n      add\n      0x00\n      keccak256\n        /* \"VotingSystem.sol\":3982:4127  candidatesDetails[_candidate] = Candidate({... */\n      0x00\n      dup3\n      add\n      mload\n      dup2\n      0x00\n      add\n      swap1\n      dup2\n      tag_204\n      swap2\n      swap1\n      tag_205\n      jump\t// in\n    tag_204:\n      pop\n      0x20\n      dup3\n      add\n      mload\n      dup2\n      0x01\n      add\n      swap1\n      dup2\n      tag_206\n      swap2\n      swap1\n      tag_205\n      jump\t// in\n    tag_206:\n      pop\n      0x40\n      dup3\n      add\n      mload\n      dup2\n      0x02\n      add\n      sstore\n      swap1\n      pop\n      pop\n        /* \"VotingSystem.sol\":4138:4156  candidateAddresses */\n      0x01\n        /* \"VotingSystem.sol\":4162:4172  _candidate */\n      dup3\n        /* \"VotingSystem.sol\":4138:4173  candidateAddresses.push(_candidate) */\n      swap1\n      dup1\n      0x01\n      dup2\n      sload\n      add\n      dup1\n      dup3\n      sstore\n      dup1\n      swap2\n      pop\n      pop\n      0x01\n      swap1\n      sub\n      swap1\n      0x00\n      mstore\n      keccak256(0x00, 0x20)\n      add\n      0x00\n      swap1\n      swap2\n      swap1\n      swap2\n      swap1\n      swap2\n      0x0100\n      exp\n      dup2\n      sload\n      dup2\n      0xffffffffffffffffffffffffffffffffffffffff\n      mul\n      not\n      and\n      swap1\n      dup4\n      0xffffffffffffffffffffffffffffffffffffffff\n      and\n      mul\n      or\n      swap1\n      sstore\n      pop\n        /* \"VotingSystem.sol\":3842:4181  function registerCandidate(address _candidate, string memory _name) internal {... */\n      pop\n      pop\n      jump\t// out\n        /* \"VotingSystem.sol\":2004:2816  function stringToAddress(string memory _input) internal pure returns (address) {... */\n    tag_174:\n        /* \"VotingSystem.sol\":2074:2081  address */\n      0x00\n        /* \"VotingSystem.sol\":2090:2113  bytes memory inputBytes */\n      dup1\n        /* \"VotingSystem.sol\":2122:2128  _input */\n      dup3\n        /* \"VotingSystem.sol\":2090:2129  bytes memory inputBytes = bytes(_input) */\n      swap1\n      pop\n        /* \"VotingSystem.sol\":2165:2167  42 */\n      0x2a\n        /* \"VotingSystem.sol\":2144:2154  inputBytes */\n      dup2\n        /* \"VotingSystem.sol\":2144:2161  inputBytes.length */\n      mload\n        /* \"VotingSystem.sol\":2144:2167  inputBytes.length == 42 */\n      eq\n        /* \"VotingSystem.sol\":2136:2192  require(inputBytes.length == 42, \"Invalid input length\") */\n      tag_209\n      jumpi\n      mload(0x40)\n      0x08c379a000000000000000000000000000000000000000000000000000000000\n      dup2\n      mstore\n      0x04\n      add\n      tag_210\n      swap1\n      tag_211\n      jump\t// in\n    tag_210:\n      mload(0x40)\n      dup1\n      swap2\n      sub\n      swap1\n      revert\n    tag_209:\n        /* \"VotingSystem.sol\":2201:2212  uint result */\n      0x00\n        /* \"VotingSystem.sol\":2223:2237  uint charValue */\n      dup1\n        /* \"VotingSystem.sol\":2251:2257  uint i */\n      dup1\n        /* \"VotingSystem.sol\":2260:2261  2 */\n      0x02\n        /* \"VotingSystem.sol\":2251:2261  uint i = 2 */\n      swap1\n      pop\n        /* \"VotingSystem.sol\":2246:2771  for (uint i = 2; i < inputBytes.length; i++) {... */\n    tag_212:\n        /* \"VotingSystem.sol\":2267:2277  inputBytes */\n      dup4\n        /* \"VotingSystem.sol\":2267:2284  inputBytes.length */\n      mload\n        /* \"VotingSystem.sol\":2263:2264  i */\n      dup2\n        /* \"VotingSystem.sol\":2263:2284  i < inputBytes.length */\n      lt\n        /* \"VotingSystem.sol\":2246:2771  for (uint i = 2; i < inputBytes.length; i++) {... */\n      iszero\n      tag_213\n      jumpi\n        /* \"VotingSystem.sol\":2302:2313  uint8 digit */\n      0x00\n        /* \"VotingSystem.sol\":2322:2332  inputBytes */\n      dup5\n        /* \"VotingSystem.sol\":2333:2334  i */\n      dup3\n        /* \"VotingSystem.sol\":2322:2335  inputBytes[i] */\n      dup2\n      mload\n      dup2\n      lt\n      tag_215\n      jumpi\n      tag_216\n      tag_59\n      jump\t// in\n    tag_216:\n    tag_215:\n      0x20\n      add\n      add\n      mload\n      0xf8\n      shr\n      0xf8\n      shl\n        /* \"VotingSystem.sol\":2316:2336  uint8(inputBytes[i]) */\n      0xf8\n      shr\n        /* \"VotingSystem.sol\":2302:2336  uint8 digit = uint8(inputBytes[i]) */\n      swap1\n      pop\n        /* \"VotingSystem.sol\":2362:2364  48 */\n      0x30\n        /* \"VotingSystem.sol\":2353:2358  digit */\n      dup2\n        /* \"VotingSystem.sol\":2353:2364  digit >= 48 */\n      0xff\n      and\n      lt\n      iszero\n        /* \"VotingSystem.sol\":2353:2379  digit >= 48 && digit <= 57 */\n      dup1\n      iszero\n      tag_217\n      jumpi\n      pop\n        /* \"VotingSystem.sol\":2377:2379  57 */\n      0x39\n        /* \"VotingSystem.sol\":2368:2373  digit */\n      dup2\n        /* \"VotingSystem.sol\":2368:2379  digit <= 57 */\n      0xff\n      and\n      gt\n      iszero\n        /* \"VotingSystem.sol\":2353:2379  digit >= 48 && digit <= 57 */\n    tag_217:\n        /* \"VotingSystem.sol\":2349:2719  if (digit >= 48 && digit <= 57) {... */\n      iszero\n      tag_218\n      jumpi\n        /* \"VotingSystem.sol\":2416:2418  48 */\n      0x30\n        /* \"VotingSystem.sol\":2408:2413  digit */\n      dup2\n        /* \"VotingSystem.sol\":2408:2418  digit - 48 */\n      tag_219\n      swap2\n      swap1\n      tag_220\n      jump\t// in\n    tag_219:\n        /* \"VotingSystem.sol\":2396:2418  charValue = digit - 48 */\n      0xff\n      and\n      swap3\n      pop\n        /* \"VotingSystem.sol\":2349:2719  if (digit >= 48 && digit <= 57) {... */\n      jump(tag_221)\n    tag_218:\n        /* \"VotingSystem.sol\":2464:2466  65 */\n      0x41\n        /* \"VotingSystem.sol\":2455:2460  digit */\n      dup2\n        /* \"VotingSystem.sol\":2455:2466  digit >= 65 */\n      0xff\n      and\n      lt\n      iszero\n        /* \"VotingSystem.sol\":2455:2481  digit >= 65 && digit <= 70 */\n      dup1\n      iszero\n      tag_222\n      jumpi\n      pop\n        /* \"VotingSystem.sol\":2479:2481  70 */\n      0x46\n        /* \"VotingSystem.sol\":2470:2475  digit */\n      dup2\n        /* \"VotingSystem.sol\":2470:2481  digit <= 70 */\n      0xff\n      and\n      gt\n      iszero\n        /* \"VotingSystem.sol\":2455:2481  digit >= 65 && digit <= 70 */\n    tag_222:\n        /* \"VotingSystem.sol\":2451:2719  if (digit >= 65 && digit <= 70) {... */\n      iszero\n      tag_223\n      jumpi\n        /* \"VotingSystem.sol\":2518:2520  55 */\n      0x37\n        /* \"VotingSystem.sol\":2510:2515  digit */\n      dup2\n        /* \"VotingSystem.sol\":2510:2520  digit - 55 */\n      tag_224\n      swap2\n      swap1\n      tag_220\n      jump\t// in\n    tag_224:\n        /* \"VotingSystem.sol\":2498:2520  charValue = digit - 55 */\n      0xff\n      and\n      swap3\n      pop\n        /* \"VotingSystem.sol\":2451:2719  if (digit >= 65 && digit <= 70) {... */\n      jump(tag_225)\n    tag_223:\n        /* \"VotingSystem.sol\":2566:2568  97 */\n      0x61\n        /* \"VotingSystem.sol\":2557:2562  digit */\n      dup2\n        /* \"VotingSystem.sol\":2557:2568  digit >= 97 */\n      0xff\n      and\n      lt\n      iszero\n        /* \"VotingSystem.sol\":2557:2584  digit >= 97 && digit <= 102 */\n      dup1\n      iszero\n      tag_226\n      jumpi\n      pop\n        /* \"VotingSystem.sol\":2581:2584  102 */\n      0x66\n        /* \"VotingSystem.sol\":2572:2577  digit */\n      dup2\n        /* \"VotingSystem.sol\":2572:2584  digit <= 102 */\n      0xff\n      and\n      gt\n      iszero\n        /* \"VotingSystem.sol\":2557:2584  digit >= 97 && digit <= 102 */\n    tag_226:\n        /* \"VotingSystem.sol\":2553:2719  if (digit >= 97 && digit <= 102) {... */\n      iszero\n      tag_227\n      jumpi\n        /* \"VotingSystem.sol\":2621:2623  87 */\n      0x57\n        /* \"VotingSystem.sol\":2613:2618  digit */\n      dup2\n        /* \"VotingSystem.sol\":2613:2623  digit - 87 */\n      tag_228\n      swap2\n      swap1\n      tag_220\n      jump\t// in\n    tag_228:\n        /* \"VotingSystem.sol\":2601:2623  charValue = digit - 87 */\n      0xff\n      and\n      swap3\n      pop\n        /* \"VotingSystem.sol\":2553:2719  if (digit >= 97 && digit <= 102) {... */\n      jump(tag_229)\n    tag_227:\n        /* \"VotingSystem.sol\":2671:2707  revert(\"Invalid character in input\") */\n      mload(0x40)\n      0x08c379a000000000000000000000000000000000000000000000000000000000\n      dup2\n      mstore\n      0x04\n      add\n      tag_230\n      swap1\n      tag_231\n      jump\t// in\n    tag_230:\n      mload(0x40)\n      dup1\n      swap2\n      sub\n      swap1\n      revert\n        /* \"VotingSystem.sol\":2553:2719  if (digit >= 97 && digit <= 102) {... */\n    tag_229:\n        /* \"VotingSystem.sol\":2451:2719  if (digit >= 65 && digit <= 70) {... */\n    tag_225:\n        /* \"VotingSystem.sol\":2349:2719  if (digit >= 48 && digit <= 57) {... */\n    tag_221:\n        /* \"VotingSystem.sol\":2754:2763  charValue */\n      dup3\n        /* \"VotingSystem.sol\":2749:2751  16 */\n      0x10\n        /* \"VotingSystem.sol\":2740:2746  result */\n      dup6\n        /* \"VotingSystem.sol\":2740:2751  result * 16 */\n      tag_232\n      swap2\n      swap1\n      tag_233\n      jump\t// in\n    tag_232:\n        /* \"VotingSystem.sol\":2740:2763  result * 16 + charValue */\n      tag_234\n      swap2\n      swap1\n      tag_235\n      jump\t// in\n    tag_234:\n        /* \"VotingSystem.sol\":2731:2763  result = result * 16 + charValue */\n      swap4\n      pop\n        /* \"VotingSystem.sol\":2291:2771  {... */\n      pop\n        /* \"VotingSystem.sol\":2286:2289  i++ */\n      dup1\n      dup1\n      tag_236\n      swap1\n      tag_77\n      jump\t// in\n    tag_236:\n      swap2\n      pop\n      pop\n        /* \"VotingSystem.sol\":2246:2771  for (uint i = 2; i < inputBytes.length; i++) {... */\n      jump(tag_212)\n    tag_213:\n      pop\n        /* \"VotingSystem.sol\":2803:2809  result */\n      dup2\n        /* \"VotingSystem.sol\":2779:2812  return (address(uint160(result))) */\n      swap4\n      pop\n      pop\n      pop\n      pop\n        /* \"VotingSystem.sol\":2004:2816  function stringToAddress(string memory _input) internal pure returns (address) {... */\n      swap2\n      swap1\n      pop\n      jump\t// out\n        /* \"VotingSystem.sol\":4817:5206  function vote(address _candidate) private electionInProgress {... */\n    tag_176:\n        /* \"VotingSystem.sol\":990:1005  electionStarted */\n      0x00\n      0x14\n      swap1\n      sload\n      swap1\n      0x0100\n      exp\n      swap1\n      div\n      0xff\n      and\n        /* \"VotingSystem.sol\":981:1034  require (electionStarted, \"Election has not started\") */\n      tag_238\n      jumpi\n      mload(0x40)\n      0x08c379a000000000000000000000000000000000000000000000000000000000\n      dup2\n      mstore\n      0x04\n      add\n      tag_239\n      swap1\n      tag_167\n      jump\t// in\n    tag_239:\n      mload(0x40)\n      dup1\n      swap2\n      sub\n      swap1\n      revert\n    tag_238:\n        /* \"VotingSystem.sol\":1054:1067  electionEnded */\n      0x00\n      0x15\n      swap1\n      sload\n      swap1\n      0x0100\n      exp\n      swap1\n      div\n      0xff\n      and\n        /* \"VotingSystem.sol\":1053:1067  !electionEnded */\n      iszero\n        /* \"VotingSystem.sol\":1045:1098  require(!electionEnded, \"Election has already ended\") */\n      tag_240\n      jumpi\n      mload(0x40)\n      0x08c379a000000000000000000000000000000000000000000000000000000000\n      dup2\n      mstore\n      0x04\n      add\n      tag_241\n      swap1\n      tag_170\n      jump\t// in\n    tag_241:\n      mload(0x40)\n      dup1\n      swap2\n      sub\n      swap1\n      revert\n    tag_240:\n        /* \"VotingSystem.sol\":4898:4903  voted */\n      0x03\n        /* \"VotingSystem.sol\":4898:4915  voted[msg.sender] */\n      0x00\n        /* \"VotingSystem.sol\":4904:4914  msg.sender */\n      caller\n        /* \"VotingSystem.sol\":4898:4915  voted[msg.sender] */\n      0xffffffffffffffffffffffffffffffffffffffff\n      and\n      0xffffffffffffffffffffffffffffffffffffffff\n      and\n      dup2\n      mstore\n      0x20\n      add\n      swap1\n      dup2\n      mstore\n      0x20\n      add\n      0x00\n      keccak256\n      0x00\n      swap1\n      sload\n      swap1\n      0x0100\n      exp\n      swap1\n      div\n      0xff\n      and\n        /* \"VotingSystem.sol\":4897:4915  !voted[msg.sender] */\n      iszero\n        /* \"VotingSystem.sol\":4889:4942  require(!voted[msg.sender], \"You have already voted\") */\n      tag_243\n      jumpi\n      mload(0x40)\n      0x08c379a000000000000000000000000000000000000000000000000000000000\n      dup2\n      mstore\n      0x04\n      add\n      tag_244\n      swap1\n      tag_245\n      jump\t// in\n    tag_244:\n      mload(0x40)\n      dup1\n      swap2\n      sub\n      swap1\n      revert\n    tag_243:\n        /* \"VotingSystem.sol\":4961:4977  registeredVoters */\n      0x02\n        /* \"VotingSystem.sol\":4961:4989  registeredVoters[msg.sender] */\n      0x00\n        /* \"VotingSystem.sol\":4978:4988  msg.sender */\n      caller\n        /* \"VotingSystem.sol\":4961:4989  registeredVoters[msg.sender] */\n      0xffffffffffffffffffffffffffffffffffffffff\n      and\n      0xffffffffffffffffffffffffffffffffffffffff\n      and\n      dup2\n      mstore\n      0x20\n      add\n      swap1\n      dup2\n      mstore\n      0x20\n      add\n      0x00\n      keccak256\n      0x00\n      swap1\n      sload\n      swap1\n      0x0100\n      exp\n      swap1\n      div\n      0xff\n      and\n        /* \"VotingSystem.sol\":4953:5022  require(registeredVoters[msg.sender], \"You are not registered voter\") */\n      tag_246\n      jumpi\n      mload(0x40)\n      0x08c379a000000000000000000000000000000000000000000000000000000000\n      dup2\n      mstore\n      0x04\n      add\n      tag_247\n      swap1\n      tag_248\n      jump\t// in\n    tag_247:\n      mload(0x40)\n      dup1\n      swap2\n      sub\n      swap1\n      revert\n    tag_246:\n        /* \"VotingSystem.sol\":5041:5061  registeredCandidates */\n      0x04\n        /* \"VotingSystem.sol\":5041:5073  registeredCandidates[_candidate] */\n      0x00\n        /* \"VotingSystem.sol\":5062:5072  _candidate */\n      dup3\n        /* \"VotingSystem.sol\":5041:5073  registeredCandidates[_candidate] */\n      0xffffffffffffffffffffffffffffffffffffffff\n      and\n      0xffffffffffffffffffffffffffffffffffffffff\n      and\n      dup2\n      mstore\n      0x20\n      add\n      swap1\n      dup2\n      mstore\n      0x20\n      add\n      0x00\n      keccak256\n      0x00\n      swap1\n      sload\n      swap1\n      0x0100\n      exp\n      swap1\n      div\n      0xff\n      and\n        /* \"VotingSystem.sol\":5033:5105  require(registeredCandidates[_candidate], \"Candidate is not registered\") */\n      tag_249\n      jumpi\n      mload(0x40)\n      0x08c379a000000000000000000000000000000000000000000000000000000000\n      dup2\n      mstore\n      0x04\n      add\n      tag_250\n      swap1\n      tag_251\n      jump\t// in\n    tag_250:\n      mload(0x40)\n      dup1\n      swap2\n      sub\n      swap1\n      revert\n    tag_249:\n        /* \"VotingSystem.sol\":5138:5142  true */\n      0x01\n        /* \"VotingSystem.sol\":5118:5123  voted */\n      0x03\n        /* \"VotingSystem.sol\":5118:5135  voted[msg.sender] */\n      0x00\n        /* \"VotingSystem.sol\":5124:5134  msg.sender */\n      caller\n        /* \"VotingSystem.sol\":5118:5135  voted[msg.sender] */\n      0xffffffffffffffffffffffffffffffffffffffff\n      and\n      0xffffffffffffffffffffffffffffffffffffffff\n      and\n      dup2\n      mstore\n      0x20\n      add\n      swap1\n      dup2\n      mstore\n      0x20\n      add\n      0x00\n      keccak256\n      0x00\n        /* \"VotingSystem.sol\":5118:5142  voted[msg.sender] = true */\n      0x0100\n      exp\n      dup2\n      sload\n      dup2\n      0xff\n      mul\n      not\n      and\n      swap1\n      dup4\n      iszero\n      iszero\n      mul\n      or\n      swap1\n      sstore\n      pop\n        /* \"VotingSystem.sol\":5153:5170  candidatesDetails */\n      0x05\n        /* \"VotingSystem.sol\":5153:5182  candidatesDetails[_candidate] */\n      0x00\n        /* \"VotingSystem.sol\":5171:5181  _candidate */\n      dup3\n        /* \"VotingSystem.sol\":5153:5182  candidatesDetails[_candidate] */\n      0xffffffffffffffffffffffffffffffffffffffff\n      and\n      0xffffffffffffffffffffffffffffffffffffffff\n      and\n      dup2\n      mstore\n      0x20\n      add\n      swap1\n      dup2\n      mstore\n      0x20\n      add\n      0x00\n      keccak256\n        /* \"VotingSystem.sol\":5153:5196  candidatesDetails[_candidate].votesReceived */\n      0x02\n      add\n      0x00\n        /* \"VotingSystem.sol\":5153:5198  candidatesDetails[_candidate].votesReceived++ */\n      dup2\n      sload\n      dup1\n      swap3\n      swap2\n      swap1\n      tag_252\n      swap1\n      tag_77\n      jump\t// in\n    tag_252:\n      swap2\n      swap1\n      pop\n      sstore\n      pop\n        /* \"VotingSystem.sol\":4817:5206  function vote(address _candidate) private electionInProgress {... */\n      pop\n      jump\t// out\n        /* \"VotingSystem.sol\":2826:3834  function createId(string memory _name) internal view returns (string memory) {... */\n    tag_203:\n        /* \"VotingSystem.sol\":2888:2901  string memory */\n      0x60\n        /* \"VotingSystem.sol\":2914:2936  bytes memory nameBytes */\n      0x00\n        /* \"VotingSystem.sol\":2945:2950  _name */\n      dup3\n        /* \"VotingSystem.sol\":2914:2951  bytes memory nameBytes = bytes(_name) */\n      swap1\n      pop\n        /* \"VotingSystem.sol\":2962:2974  bytes1 char1 */\n      0x00\n        /* \"VotingSystem.sol\":2977:2986  nameBytes */\n      dup2\n        /* \"VotingSystem.sol\":2987:2988  0 */\n      0x00\n        /* \"VotingSystem.sol\":2977:2989  nameBytes[0] */\n      dup2\n      mload\n      dup2\n      lt\n      tag_254\n      jumpi\n      tag_255\n      tag_59\n      jump\t// in\n    tag_255:\n    tag_254:\n      0x20\n      add\n      add\n      mload\n      0xf8\n      shr\n      0xf8\n      shl\n        /* \"VotingSystem.sol\":2962:2989  bytes1 char1 = nameBytes[0] */\n      swap1\n      pop\n        /* \"VotingSystem.sol\":3000:3012  bytes1 char2 */\n      0x00\n        /* \"VotingSystem.sol\":3015:3024  nameBytes */\n      dup3\n        /* \"VotingSystem.sol\":3044:3045  1 */\n      0x01\n        /* \"VotingSystem.sol\":3025:3034  nameBytes */\n      dup5\n        /* \"VotingSystem.sol\":3025:3041  nameBytes.length */\n      mload\n        /* \"VotingSystem.sol\":3025:3045  nameBytes.length - 1 */\n      tag_256\n      swap2\n      swap1\n      tag_257\n      jump\t// in\n    tag_256:\n        /* \"VotingSystem.sol\":3015:3046  nameBytes[nameBytes.length - 1] */\n      dup2\n      mload\n      dup2\n      lt\n      tag_258\n      jumpi\n      tag_259\n      tag_59\n      jump\t// in\n    tag_259:\n    tag_258:\n      0x20\n      add\n      add\n      mload\n      0xf8\n      shr\n      0xf8\n      shl\n        /* \"VotingSystem.sol\":3000:3046  bytes1 char2 = nameBytes[nameBytes.length - 1] */\n      swap1\n      pop\n        /* \"VotingSystem.sol\":3133:3153  bytes memory idBytes */\n      0x00\n        /* \"VotingSystem.sol\":3166:3167  2 */\n      0x02\n        /* \"VotingSystem.sol\":3156:3168  new bytes(2) */\n      0xffffffffffffffff\n      dup2\n      gt\n      iszero\n      tag_260\n      jumpi\n      tag_261\n      tag_51\n      jump\t// in\n    tag_261:\n    tag_260:\n      mload(0x40)\n      swap1\n      dup1\n      dup3\n      mstore\n      dup1\n      0x1f\n      add\n      not(0x1f)\n      and\n      0x20\n      add\n      dup3\n      add\n      0x40\n      mstore\n      dup1\n      iszero\n      tag_262\n      jumpi\n      dup2\n      0x20\n      add\n      0x01\n      dup3\n      mul\n      dup1\n      calldatasize\n      dup4\n      calldatacopy\n      dup1\n      dup3\n      add\n      swap2\n      pop\n      pop\n      swap1\n      pop\n    tag_262:\n      pop\n        /* \"VotingSystem.sol\":3133:3168  bytes memory idBytes = new bytes(2) */\n      swap1\n      pop\n        /* \"VotingSystem.sol\":3192:3197  char1 */\n      dup3\n        /* \"VotingSystem.sol\":3179:3186  idBytes */\n      dup2\n        /* \"VotingSystem.sol\":3187:3188  0 */\n      0x00\n        /* \"VotingSystem.sol\":3179:3189  idBytes[0] */\n      dup2\n      mload\n      dup2\n      lt\n      tag_263\n      jumpi\n      tag_264\n      tag_59\n      jump\t// in\n    tag_264:\n    tag_263:\n      0x20\n      add\n      add\n        /* \"VotingSystem.sol\":3179:3197  idBytes[0] = char1 */\n      swap1\n      not(0xffffffffffffffffffffffffffffffffffffffffffffffffffffffffffffff)\n      and\n      swap1\n      dup2\n      0x00\n      byte\n      swap1\n      mstore8\n      pop\n        /* \"VotingSystem.sol\":3221:3226  char2 */\n      dup2\n        /* \"VotingSystem.sol\":3208:3215  idBytes */\n      dup2\n        /* \"VotingSystem.sol\":3216:3217  1 */\n      0x01\n        /* \"VotingSystem.sol\":3208:3218  idBytes[1] */\n      dup2\n      mload\n      dup2\n      lt\n      tag_265\n      jumpi\n      tag_266\n      tag_59\n      jump\t// in\n    tag_266:\n    tag_265:\n      0x20\n      add\n      add\n        /* \"VotingSystem.sol\":3208:3226  idBytes[1] = char2 */\n      swap1\n      not(0xffffffffffffffffffffffffffffffffffffffffffffffffffffffffffffff)\n      and\n      swap1\n      dup2\n      0x00\n      byte\n      swap1\n      mstore8\n      pop\n        /* \"VotingSystem.sol\":3239:3249  uint count */\n      0x00\n        /* \"VotingSystem.sol\":3252:3282  getRegisteredCandidatesCount() */\n      tag_267\n        /* \"VotingSystem.sol\":3252:3280  getRegisteredCandidatesCount */\n      tag_29\n        /* \"VotingSystem.sol\":3252:3282  getRegisteredCandidatesCount() */\n      jump\t// in\n    tag_267:\n        /* \"VotingSystem.sol\":3239:3282  uint count = getRegisteredCandidatesCount() */\n      swap1\n      pop\n        /* \"VotingSystem.sol\":3300:3306  uint i */\n      0x00\n        /* \"VotingSystem.sol\":3295:3792  for (uint i =0; i < count; i++){... */\n    tag_268:\n        /* \"VotingSystem.sol\":3315:3320  count */\n      dup2\n        /* \"VotingSystem.sol\":3311:3312  i */\n      dup2\n        /* \"VotingSystem.sol\":3311:3320  i < count */\n      lt\n        /* \"VotingSystem.sol\":3295:3792  for (uint i =0; i < count; i++){... */\n      iszero\n      tag_269\n      jumpi\n        /* \"VotingSystem.sol\":3341:3367  Candidate memory candidate */\n      0x00\n        /* \"VotingSystem.sol\":3370:3387  candidatesDetails */\n      0x05\n        /* \"VotingSystem.sol\":3370:3410  candidatesDetails[candidateAddresses[i]] */\n      0x00\n        /* \"VotingSystem.sol\":3388:3406  candidateAddresses */\n      0x01\n        /* \"VotingSystem.sol\":3407:3408  i */\n      dup5\n        /* \"VotingSystem.sol\":3388:3409  candidateAddresses[i] */\n      dup2\n      sload\n      dup2\n      lt\n      tag_271\n      jumpi\n      tag_272\n      tag_59\n      jump\t// in\n    tag_272:\n    tag_271:\n      swap1\n      0x00\n      mstore\n      keccak256(0x00, 0x20)\n      add\n      0x00\n      swap1\n      sload\n      swap1\n      0x0100\n      exp\n      swap1\n      div\n      0xffffffffffffffffffffffffffffffffffffffff\n      and\n        /* \"VotingSystem.sol\":3370:3410  candidatesDetails[candidateAddresses[i]] */\n      0xffffffffffffffffffffffffffffffffffffffff\n      and\n      0xffffffffffffffffffffffffffffffffffffffff\n      and\n      dup2\n      mstore\n      0x20\n      add\n      swap1\n      dup2\n      mstore\n      0x20\n      add\n      0x00\n      keccak256\n        /* \"VotingSystem.sol\":3341:3410  Candidate memory candidate = candidatesDetails[candidateAddresses[i]] */\n      mload(0x40)\n      dup1\n      0x60\n      add\n      0x40\n      mstore\n      swap1\n      dup2\n      0x00\n      dup3\n      add\n      dup1\n      sload\n      tag_274\n      swap1\n      tag_62\n      jump\t// in\n    tag_274:\n      dup1\n      0x1f\n      add\n      0x20\n      dup1\n      swap2\n      div\n      mul\n      0x20\n      add\n      mload(0x40)\n      swap1\n      dup2\n      add\n      0x40\n      mstore\n      dup1\n      swap3\n      swap2\n      swap1\n      dup2\n      dup2\n      mstore\n      0x20\n      add\n      dup3\n      dup1\n      sload\n      tag_275\n      swap1\n      tag_62\n      jump\t// in\n    tag_275:\n      dup1\n      iszero\n      tag_276\n      jumpi\n      dup1\n      0x1f\n      lt\n      tag_277\n      jumpi\n      0x0100\n      dup1\n      dup4\n      sload\n      div\n      mul\n      dup4\n      mstore\n      swap2\n      0x20\n      add\n      swap2\n      jump(tag_276)\n    tag_277:\n      dup3\n      add\n      swap2\n      swap1\n      0x00\n      mstore\n      keccak256(0x00, 0x20)\n      swap1\n    tag_278:\n      dup2\n      sload\n      dup2\n      mstore\n      swap1\n      0x01\n      add\n      swap1\n      0x20\n      add\n      dup1\n      dup4\n      gt\n      tag_278\n      jumpi\n      dup3\n      swap1\n      sub\n      0x1f\n      and\n      dup3\n      add\n      swap2\n    tag_276:\n      pop\n      pop\n      pop\n      pop\n      pop\n      dup2\n      mstore\n      0x20\n      add\n      0x01\n      dup3\n      add\n      dup1\n      sload\n      tag_279\n      swap1\n      tag_62\n      jump\t// in\n    tag_279:\n      dup1\n      0x1f\n      add\n      0x20\n      dup1\n      swap2\n      div\n      mul\n      0x20\n      add\n      mload(0x40)\n      swap1\n      dup2\n      add\n      0x40\n      mstore\n      dup1\n      swap3\n      swap2\n      swap1\n      dup2\n      dup2\n      mstore\n      0x20\n      add\n      dup3\n      dup1\n      sload\n      tag_280\n      swap1\n      tag_62\n      jump\t// in\n    tag_280:\n      dup1\n      iszero\n      tag_281\n      jumpi\n      dup1\n      0x1f\n      lt\n      tag_282\n      jumpi\n      0x0100\n      dup1\n      dup4\n      sload\n      div\n      mul\n      dup4\n      mstore\n      swap2\n      0x20\n      add\n      swap2\n      jump(tag_281)\n    tag_282:\n      dup3\n      add\n      swap2\n      swap1\n      0x00\n      mstore\n      keccak256(0x00, 0x20)\n      swap1\n    tag_283:\n      dup2\n      sload\n      dup2\n      mstore\n      swap1\n      0x01\n      add\n      swap1\n      0x20\n      add\n      dup1\n      dup4\n      gt\n      tag_283\n      jumpi\n      dup3\n      swap1\n      sub\n      0x1f\n      and\n      dup3\n      add\n      swap2\n    tag_281:\n      pop\n      pop\n      pop\n      pop\n      pop\n      dup2\n      mstore\n      0x20\n      add\n      0x02\n      dup3\n      add\n      sload\n      dup2\n      mstore\n      pop\n      pop\n      swap1\n      pop\n        /* \"VotingSystem.sol\":3425:3451  bytes memory tempNameBytes */\n      0x00\n        /* \"VotingSystem.sol\":3460:3469  candidate */\n      dup2\n        /* \"VotingSystem.sol\":3460:3474  candidate.name */\n      0x00\n      add\n      mload\n        /* \"VotingSystem.sol\":3425:3475  bytes memory tempNameBytes = bytes(candidate.name) */\n      swap1\n      pop\n        /* \"VotingSystem.sol\":3490:3514  bytes memory tempIdBytes */\n      0x00\n        /* \"VotingSystem.sol\":3527:3528  2 */\n      0x02\n        /* \"VotingSystem.sol\":3517:3529  new bytes(2) */\n      0xffffffffffffffff\n      dup2\n      gt\n      iszero\n      tag_284\n      jumpi\n      tag_285\n      tag_51\n      jump\t// in\n    tag_285:\n    tag_284:\n      mload(0x40)\n      swap1\n      dup1\n      dup3\n      mstore\n      dup1\n      0x1f\n      add\n      not(0x1f)\n      and\n      0x20\n      add\n      dup3\n      add\n      0x40\n      mstore\n      dup1\n      iszero\n      tag_286\n      jumpi\n      dup2\n      0x20\n      add\n      0x01\n      dup3\n      mul\n      dup1\n      calldatasize\n      dup4\n      calldatacopy\n      dup1\n      dup3\n      add\n      swap2\n      pop\n      pop\n      swap1\n      pop\n    tag_286:\n      pop\n        /* \"VotingSystem.sol\":3490:3529  bytes memory tempIdBytes = new bytes(2) */\n      swap1\n      pop\n        /* \"VotingSystem.sol\":3561:3574  tempNameBytes */\n      dup2\n        /* \"VotingSystem.sol\":3575:3576  0 */\n      0x00\n        /* \"VotingSystem.sol\":3561:3577  tempNameBytes[0] */\n      dup2\n      mload\n      dup2\n      lt\n      tag_287\n      jumpi\n      tag_288\n      tag_59\n      jump\t// in\n    tag_288:\n    tag_287:\n      0x20\n      add\n      add\n      mload\n      0xf8\n      shr\n      0xf8\n      shl\n        /* \"VotingSystem.sol\":3544:3555  tempIdBytes */\n      dup2\n        /* \"VotingSystem.sol\":3556:3557  0 */\n      0x00\n        /* \"VotingSystem.sol\":3544:3558  tempIdBytes[0] */\n      dup2\n      mload\n      dup2\n      lt\n      tag_289\n      jumpi\n      tag_290\n      tag_59\n      jump\t// in\n    tag_290:\n    tag_289:\n      0x20\n      add\n      add\n        /* \"VotingSystem.sol\":3544:3577  tempIdBytes[0] = tempNameBytes[0] */\n      swap1\n      not(0xffffffffffffffffffffffffffffffffffffffffffffffffffffffffffffff)\n      and\n      swap1\n      dup2\n      0x00\n      byte\n      swap1\n      mstore8\n      pop\n        /* \"VotingSystem.sol\":3609:3622  tempNameBytes */\n      dup2\n        /* \"VotingSystem.sol\":3645:3646  1 */\n      0x01\n        /* \"VotingSystem.sol\":3623:3636  tempNameBytes */\n      dup4\n        /* \"VotingSystem.sol\":3623:3643  tempNameBytes.length */\n      mload\n        /* \"VotingSystem.sol\":3623:3646  tempNameBytes.length -1 */\n      tag_291\n      swap2\n      swap1\n      tag_257\n      jump\t// in\n    tag_291:\n        /* \"VotingSystem.sol\":3609:3647  tempNameBytes[tempNameBytes.length -1] */\n      dup2\n      mload\n      dup2\n      lt\n      tag_292\n      jumpi\n      tag_293\n      tag_59\n      jump\t// in\n    tag_293:\n    tag_292:\n      0x20\n      add\n      add\n      mload\n      0xf8\n      shr\n      0xf8\n      shl\n        /* \"VotingSystem.sol\":3592:3603  tempIdBytes */\n      dup2\n        /* \"VotingSystem.sol\":3604:3605  1 */\n      0x01\n        /* \"VotingSystem.sol\":3592:3606  tempIdBytes[1] */\n      dup2\n      mload\n      dup2\n      lt\n      tag_294\n      jumpi\n      tag_295\n      tag_59\n      jump\t// in\n    tag_295:\n    tag_294:\n      0x20\n      add\n      add\n        /* \"VotingSystem.sol\":3592:3647  tempIdBytes[1] = tempNameBytes[tempNameBytes.length -1] */\n      swap1\n      not(0xffffffffffffffffffffffffffffffffffffffffffffffffffffffffffffff)\n      and\n      swap1\n      dup2\n      0x00\n      byte\n      swap1\n      mstore8\n      pop\n        /* \"VotingSystem.sol\":3668:3702  compareBytes(tempIdBytes, idBytes) */\n      tag_296\n        /* \"VotingSystem.sol\":3681:3692  tempIdBytes */\n      dup2\n        /* \"VotingSystem.sol\":3694:3701  idBytes */\n      dup8\n        /* \"VotingSystem.sol\":3668:3680  compareBytes */\n      tag_297\n        /* \"VotingSystem.sol\":3668:3702  compareBytes(tempIdBytes, idBytes) */\n      jump\t// in\n    tag_296:\n        /* \"VotingSystem.sol\":3664:3781  if (compareBytes(tempIdBytes, idBytes)) {... */\n      iszero\n      tag_298\n      jumpi\n        /* \"VotingSystem.sol\":3727:3761  revert(\"Choose Different Name...\") */\n      mload(0x40)\n      0x08c379a000000000000000000000000000000000000000000000000000000000\n      dup2\n      mstore\n      0x04\n      add\n      tag_299\n      swap1\n      tag_300\n      jump\t// in\n    tag_299:\n      mload(0x40)\n      dup1\n      swap2\n      sub\n      swap1\n      revert\n        /* \"VotingSystem.sol\":3664:3781  if (compareBytes(tempIdBytes, idBytes)) {... */\n    tag_298:\n        /* \"VotingSystem.sol\":3326:3792  {... */\n      pop\n      pop\n      pop\n        /* \"VotingSystem.sol\":3322:3325  i++ */\n      dup1\n      dup1\n      tag_301\n      swap1\n      tag_77\n      jump\t// in\n    tag_301:\n      swap2\n      pop\n      pop\n        /* \"VotingSystem.sol\":3295:3792  for (uint i =0; i < count; i++){... */\n      jump(tag_268)\n    tag_269:\n      pop\n        /* \"VotingSystem.sol\":3818:3825  idBytes */\n      dup2\n        /* \"VotingSystem.sol\":3804:3826  return string(idBytes) */\n      swap6\n      pop\n      pop\n      pop\n      pop\n      pop\n      pop\n        /* \"VotingSystem.sol\":2826:3834  function createId(string memory _name) internal view returns (string memory) {... */\n      swap2\n      swap1\n      pop\n      jump\t// out\n        /* \"VotingSystem.sol\":1629:1996  function compareBytes(bytes memory a, bytes memory b) internal pure returns (bool) {... */\n    tag_297:\n        /* \"VotingSystem.sol\":1706:1710  bool */\n      0x00\n        /* \"VotingSystem.sol\":1739:1740  b */\n      dup2\n        /* \"VotingSystem.sol\":1739:1747  b.length */\n      mload\n        /* \"VotingSystem.sol\":1727:1728  a */\n      dup4\n        /* \"VotingSystem.sol\":1727:1735  a.length */\n      mload\n        /* \"VotingSystem.sol\":1727:1747  a.length != b.length */\n      eq\n        /* \"VotingSystem.sol\":1723:1989  if (a.length != b.length) {... */\n      tag_303\n      jumpi\n        /* \"VotingSystem.sol\":1771:1776  false */\n      0x00\n        /* \"VotingSystem.sol\":1764:1776  return false */\n      swap1\n      pop\n      jump(tag_302)\n        /* \"VotingSystem.sol\":1723:1989  if (a.length != b.length) {... */\n    tag_303:\n        /* \"VotingSystem.sol\":1814:1820  uint i */\n      0x00\n        /* \"VotingSystem.sol\":1809:1952  for (uint i = 0; i < a.length; i++) {... */\n    tag_305:\n        /* \"VotingSystem.sol\":1830:1831  a */\n      dup4\n        /* \"VotingSystem.sol\":1830:1838  a.length */\n      mload\n        /* \"VotingSystem.sol\":1826:1827  i */\n      dup2\n        /* \"VotingSystem.sol\":1826:1838  i < a.length */\n      lt\n        /* \"VotingSystem.sol\":1809:1952  for (uint i = 0; i < a.length; i++) {... */\n      iszero\n      tag_306\n      jumpi\n        /* \"VotingSystem.sol\":1876:1877  b */\n      dup3\n        /* \"VotingSystem.sol\":1878:1879  i */\n      dup2\n        /* \"VotingSystem.sol\":1876:1880  b[i] */\n      dup2\n      mload\n      dup2\n      lt\n      tag_308\n      jumpi\n      tag_309\n      tag_59\n      jump\t// in\n    tag_309:\n    tag_308:\n      0x20\n      add\n      add\n      mload\n      0xf8\n      shr\n      0xf8\n      shl\n        /* \"VotingSystem.sol\":1868:1880  a[i] != b[i] */\n      not(0xffffffffffffffffffffffffffffffffffffffffffffffffffffffffffffff)\n      and\n        /* \"VotingSystem.sol\":1868:1869  a */\n      dup5\n        /* \"VotingSystem.sol\":1870:1871  i */\n      dup3\n        /* \"VotingSystem.sol\":1868:1872  a[i] */\n      dup2\n      mload\n      dup2\n      lt\n      tag_310\n      jumpi\n      tag_311\n      tag_59\n      jump\t// in\n    tag_311:\n    tag_310:\n      0x20\n      add\n      add\n      mload\n      0xf8\n      shr\n      0xf8\n      shl\n        /* \"VotingSystem.sol\":1868:1880  a[i] != b[i] */\n      not(0xffffffffffffffffffffffffffffffffffffffffffffffffffffffffffffff)\n      and\n      eq\n        /* \"VotingSystem.sol\":1864:1937  if (a[i] != b[i]) {... */\n      tag_312\n      jumpi\n        /* \"VotingSystem.sol\":1912:1917  false */\n      0x00\n        /* \"VotingSystem.sol\":1905:1917  return false */\n      swap2\n      pop\n      pop\n      jump(tag_302)\n        /* \"VotingSystem.sol\":1864:1937  if (a[i] != b[i]) {... */\n    tag_312:\n        /* \"VotingSystem.sol\":1840:1843  i++ */\n      dup1\n      dup1\n      tag_313\n      swap1\n      tag_77\n      jump\t// in\n    tag_313:\n      swap2\n      pop\n      pop\n        /* \"VotingSystem.sol\":1809:1952  for (uint i = 0; i < a.length; i++) {... */\n      jump(tag_305)\n    tag_306:\n      pop\n        /* \"VotingSystem.sol\":1973:1977  true */\n      0x01\n        /* \"VotingSystem.sol\":1966:1977  return true */\n      swap1\n      pop\n        /* \"VotingSystem.sol\":1629:1996  function compareBytes(bytes memory a, bytes memory b) internal pure returns (bool) {... */\n    tag_302:\n      swap3\n      swap2\n      pop\n      pop\n      jump\t// out\n        /* \"#utility.yul\":7:131   */\n    tag_314:\n        /* \"#utility.yul\":84:90   */\n      0x00\n        /* \"#utility.yul\":118:123   */\n      dup2\n        /* \"#utility.yul\":112:124   */\n      mload\n        /* \"#utility.yul\":102:124   */\n      swap1\n      pop\n        /* \"#utility.yul\":7:131   */\n      swap2\n      swap1\n      pop\n      jump\t// out\n        /* \"#utility.yul\":137:331   */\n    tag_315:\n        /* \"#utility.yul\":246:257   */\n      0x00\n        /* \"#utility.yul\":280:286   */\n      dup3\n        /* \"#utility.yul\":275:278   */\n      dup3\n        /* \"#utility.yul\":268:287   */\n      mstore\n        /* \"#utility.yul\":320:324   */\n      0x20\n        /* \"#utility.yul\":315:318   */\n      dup3\n        /* \"#utility.yul\":311:325   */\n      add\n        /* \"#utility.yul\":296:325   */\n      swap1\n      pop\n        /* \"#utility.yul\":137:331   */\n      swap3\n      swap2\n      pop\n      pop\n      jump\t// out\n        /* \"#utility.yul\":337:479   */\n    tag_316:\n        /* \"#utility.yul\":414:418   */\n      0x00\n        /* \"#utility.yul\":437:440   */\n      dup2\n        /* \"#utility.yul\":429:440   */\n      swap1\n      pop\n        /* \"#utility.yul\":467:471   */\n      0x20\n        /* \"#utility.yul\":462:465   */\n      dup3\n        /* \"#utility.yul\":458:472   */\n      add\n        /* \"#utility.yul\":450:472   */\n      swap1\n      pop\n        /* \"#utility.yul\":337:479   */\n      swap2\n      swap1\n      pop\n      jump\t// out\n        /* \"#utility.yul\":485:584   */\n    tag_317:\n        /* \"#utility.yul\":537:543   */\n      0x00\n        /* \"#utility.yul\":571:576   */\n      dup2\n        /* \"#utility.yul\":565:577   */\n      mload\n        /* \"#utility.yul\":555:577   */\n      swap1\n      pop\n        /* \"#utility.yul\":485:584   */\n      swap2\n      swap1\n      pop\n      jump\t// out\n        /* \"#utility.yul\":590:749   */\n    tag_318:\n        /* \"#utility.yul\":664:675   */\n      0x00\n        /* \"#utility.yul\":698:704   */\n      dup3\n        /* \"#utility.yul\":693:696   */\n      dup3\n        /* \"#utility.yul\":686:705   */\n      mstore\n        /* \"#utility.yul\":738:742   */\n      0x20\n        /* \"#utility.yul\":733:736   */\n      dup3\n        /* \"#utility.yul\":729:743   */\n      add\n        /* \"#utility.yul\":714:743   */\n      swap1\n      pop\n        /* \"#utility.yul\":590:749   */\n      swap3\n      swap2\n      pop\n      pop\n      jump\t// out\n        /* \"#utility.yul\":755:1001   */\n    tag_319:\n        /* \"#utility.yul\":836:837   */\n      0x00\n        /* \"#utility.yul\":846:959   */\n    tag_404:\n        /* \"#utility.yul\":860:866   */\n      dup4\n        /* \"#utility.yul\":857:858   */\n      dup2\n        /* \"#utility.yul\":854:867   */\n      lt\n        /* \"#utility.yul\":846:959   */\n      iszero\n      tag_406\n      jumpi\n        /* \"#utility.yul\":945:946   */\n      dup1\n        /* \"#utility.yul\":940:943   */\n      dup3\n        /* \"#utility.yul\":936:947   */\n      add\n        /* \"#utility.yul\":930:948   */\n      mload\n        /* \"#utility.yul\":926:927   */\n      dup2\n        /* \"#utility.yul\":921:924   */\n      dup5\n        /* \"#utility.yul\":917:928   */\n      add\n        /* \"#utility.yul\":910:949   */\n      mstore\n        /* \"#utility.yul\":882:884   */\n      0x20\n        /* \"#utility.yul\":879:880   */\n      dup2\n        /* \"#utility.yul\":875:885   */\n      add\n        /* \"#utility.yul\":870:885   */\n      swap1\n      pop\n        /* \"#utility.yul\":846:959   */\n      jump(tag_404)\n    tag_406:\n        /* \"#utility.yul\":993:994   */\n      0x00\n        /* \"#utility.yul\":984:990   */\n      dup5\n        /* \"#utility.yul\":979:982   */\n      dup5\n        /* \"#utility.yul\":975:991   */\n      add\n        /* \"#utility.yul\":968:995   */\n      mstore\n        /* \"#utility.yul\":817:1001   */\n      pop\n        /* \"#utility.yul\":755:1001   */\n      pop\n      pop\n      pop\n      jump\t// out\n        /* \"#utility.yul\":1007:1109   */\n    tag_320:\n        /* \"#utility.yul\":1048:1054   */\n      0x00\n        /* \"#utility.yul\":1099:1101   */\n      0x1f\n        /* \"#utility.yul\":1095:1102   */\n      not\n        /* \"#utility.yul\":1090:1092   */\n      0x1f\n        /* \"#utility.yul\":1083:1088   */\n      dup4\n        /* \"#utility.yul\":1079:1093   */\n      add\n        /* \"#utility.yul\":1075:1103   */\n      and\n        /* \"#utility.yul\":1065:1103   */\n      swap1\n      pop\n        /* \"#utility.yul\":1007:1109   */\n      swap2\n      swap1\n      pop\n      jump\t// out\n        /* \"#utility.yul\":1115:1472   */\n    tag_321:\n        /* \"#utility.yul\":1193:1196   */\n      0x00\n        /* \"#utility.yul\":1221:1260   */\n      tag_409\n        /* \"#utility.yul\":1254:1259   */\n      dup3\n        /* \"#utility.yul\":1221:1260   */\n      tag_317\n      jump\t// in\n    tag_409:\n        /* \"#utility.yul\":1276:1337   */\n      tag_410\n        /* \"#utility.yul\":1330:1336   */\n      dup2\n        /* \"#utility.yul\":1325:1328   */\n      dup6\n        /* \"#utility.yul\":1276:1337   */\n      tag_318\n      jump\t// in\n    tag_410:\n        /* \"#utility.yul\":1269:1337   */\n      swap4\n      pop\n        /* \"#utility.yul\":1346:1411   */\n      tag_411\n        /* \"#utility.yul\":1404:1410   */\n      dup2\n        /* \"#utility.yul\":1399:1402   */\n      dup6\n        /* \"#utility.yul\":1392:1396   */\n      0x20\n        /* \"#utility.yul\":1385:1390   */\n      dup7\n        /* \"#utility.yul\":1381:1397   */\n      add\n        /* \"#utility.yul\":1346:1411   */\n      tag_319\n      jump\t// in\n    tag_411:\n        /* \"#utility.yul\":1436:1465   */\n      tag_412\n        /* \"#utility.yul\":1458:1464   */\n      dup2\n        /* \"#utility.yul\":1436:1465   */\n      tag_320\n      jump\t// in\n    tag_412:\n        /* \"#utility.yul\":1431:1434   */\n      dup5\n        /* \"#utility.yul\":1427:1466   */\n      add\n        /* \"#utility.yul\":1420:1466   */\n      swap2\n      pop\n        /* \"#utility.yul\":1197:1472   */\n      pop\n        /* \"#utility.yul\":1115:1472   */\n      swap3\n      swap2\n      pop\n      pop\n      jump\t// out\n        /* \"#utility.yul\":1478:1674   */\n    tag_322:\n        /* \"#utility.yul\":1567:1577   */\n      0x00\n        /* \"#utility.yul\":1602:1668   */\n      tag_414\n        /* \"#utility.yul\":1664:1667   */\n      dup4\n        /* \"#utility.yul\":1656:1662   */\n      dup4\n        /* \"#utility.yul\":1602:1668   */\n      tag_321\n      jump\t// in\n    tag_414:\n        /* \"#utility.yul\":1588:1668   */\n      swap1\n      pop\n        /* \"#utility.yul\":1478:1674   */\n      swap3\n      swap2\n      pop\n      pop\n      jump\t// out\n        /* \"#utility.yul\":1680:1803   */\n    tag_323:\n        /* \"#utility.yul\":1760:1764   */\n      0x00\n        /* \"#utility.yul\":1792:1796   */\n      0x20\n        /* \"#utility.yul\":1787:1790   */\n      dup3\n        /* \"#utility.yul\":1783:1797   */\n      add\n        /* \"#utility.yul\":1775:1797   */\n      swap1\n      pop\n        /* \"#utility.yul\":1680:1803   */\n      swap2\n      swap1\n      pop\n      jump\t// out\n        /* \"#utility.yul\":1837:2828   */\n    tag_324:\n        /* \"#utility.yul\":1976:1979   */\n      0x00\n        /* \"#utility.yul\":2005:2069   */\n      tag_417\n        /* \"#utility.yul\":2063:2068   */\n      dup3\n        /* \"#utility.yul\":2005:2069   */\n      tag_314\n      jump\t// in\n    tag_417:\n        /* \"#utility.yul\":2085:2181   */\n      tag_418\n        /* \"#utility.yul\":2174:2180   */\n      dup2\n        /* \"#utility.yul\":2169:2172   */\n      dup6\n        /* \"#utility.yul\":2085:2181   */\n      tag_315\n      jump\t// in\n    tag_418:\n        /* \"#utility.yul\":2078:2181   */\n      swap4\n      pop\n        /* \"#utility.yul\":2207:2210   */\n      dup4\n        /* \"#utility.yul\":2252:2256   */\n      0x20\n        /* \"#utility.yul\":2244:2250   */\n      dup3\n        /* \"#utility.yul\":2240:2257   */\n      mul\n        /* \"#utility.yul\":2235:2238   */\n      dup6\n        /* \"#utility.yul\":2231:2258   */\n      add\n        /* \"#utility.yul\":2282:2348   */\n      tag_419\n        /* \"#utility.yul\":2342:2347   */\n      dup6\n        /* \"#utility.yul\":2282:2348   */\n      tag_316\n      jump\t// in\n    tag_419:\n        /* \"#utility.yul\":2371:2378   */\n      dup1\n        /* \"#utility.yul\":2402:2403   */\n      0x00\n        /* \"#utility.yul\":2387:2783   */\n    tag_420:\n        /* \"#utility.yul\":2412:2418   */\n      dup6\n        /* \"#utility.yul\":2409:2410   */\n      dup2\n        /* \"#utility.yul\":2406:2419   */\n      lt\n        /* \"#utility.yul\":2387:2783   */\n      iszero\n      tag_422\n      jumpi\n        /* \"#utility.yul\":2483:2492   */\n      dup5\n        /* \"#utility.yul\":2477:2481   */\n      dup5\n        /* \"#utility.yul\":2473:2493   */\n      sub\n        /* \"#utility.yul\":2468:2471   */\n      dup10\n        /* \"#utility.yul\":2461:2494   */\n      mstore\n        /* \"#utility.yul\":2534:2540   */\n      dup2\n        /* \"#utility.yul\":2528:2541   */\n      mload\n        /* \"#utility.yul\":2562:2646   */\n      tag_423\n        /* \"#utility.yul\":2641:2645   */\n      dup6\n        /* \"#utility.yul\":2626:2639   */\n      dup3\n        /* \"#utility.yul\":2562:2646   */\n      tag_322\n      jump\t// in\n    tag_423:\n        /* \"#utility.yul\":2554:2646   */\n      swap5\n      pop\n        /* \"#utility.yul\":2669:2739   */\n      tag_424\n        /* \"#utility.yul\":2732:2738   */\n      dup4\n        /* \"#utility.yul\":2669:2739   */\n      tag_323\n      jump\t// in\n    tag_424:\n        /* \"#utility.yul\":2659:2739   */\n      swap3\n      pop\n        /* \"#utility.yul\":2768:2772   */\n      0x20\n        /* \"#utility.yul\":2763:2766   */\n      dup11\n        /* \"#utility.yul\":2759:2773   */\n      add\n        /* \"#utility.yul\":2752:2773   */\n      swap10\n      pop\n        /* \"#utility.yul\":2447:2783   */\n      pop\n        /* \"#utility.yul\":2434:2435   */\n      0x01\n        /* \"#utility.yul\":2431:2432   */\n      dup2\n        /* \"#utility.yul\":2427:2436   */\n      add\n        /* \"#utility.yul\":2422:2436   */\n      swap1\n      pop\n        /* \"#utility.yul\":2387:2783   */\n      jump(tag_420)\n    tag_422:\n        /* \"#utility.yul\":2391:2405   */\n      pop\n        /* \"#utility.yul\":2799:2803   */\n      dup3\n        /* \"#utility.yul\":2792:2803   */\n      swap8\n      pop\n        /* \"#utility.yul\":2819:2822   */\n      dup8\n        /* \"#utility.yul\":2812:2822   */\n      swap6\n      pop\n        /* \"#utility.yul\":1981:2828   */\n      pop\n      pop\n      pop\n      pop\n      pop\n        /* \"#utility.yul\":1837:2828   */\n      swap3\n      swap2\n      pop\n      pop\n      jump\t// out\n        /* \"#utility.yul\":2834:3247   */\n    tag_17:\n        /* \"#utility.yul\":2997:3001   */\n      0x00\n        /* \"#utility.yul\":3035:3037   */\n      0x20\n        /* \"#utility.yul\":3024:3033   */\n      dup3\n        /* \"#utility.yul\":3020:3038   */\n      add\n        /* \"#utility.yul\":3012:3038   */\n      swap1\n      pop\n        /* \"#utility.yul\":3084:3093   */\n      dup2\n        /* \"#utility.yul\":3078:3082   */\n      dup2\n        /* \"#utility.yul\":3074:3094   */\n      sub\n        /* \"#utility.yul\":3070:3071   */\n      0x00\n        /* \"#utility.yul\":3059:3068   */\n      dup4\n        /* \"#utility.yul\":3055:3072   */\n      add\n        /* \"#utility.yul\":3048:3095   */\n      mstore\n        /* \"#utility.yul\":3112:3240   */\n      tag_426\n        /* \"#utility.yul\":3235:3239   */\n      dup2\n        /* \"#utility.yul\":3226:3232   */\n      dup5\n        /* \"#utility.yul\":3112:3240   */\n      tag_324\n      jump\t// in\n    tag_426:\n        /* \"#utility.yul\":3104:3240   */\n      swap1\n      pop\n        /* \"#utility.yul\":2834:3247   */\n      swap3\n      swap2\n      pop\n      pop\n      jump\t// out\n        /* \"#utility.yul\":3253:3328   */\n    tag_325:\n        /* \"#utility.yul\":3286:3292   */\n      0x00\n        /* \"#utility.yul\":3319:3321   */\n      0x40\n        /* \"#utility.yul\":3313:3322   */\n      mload\n        /* \"#utility.yul\":3303:3322   */\n      swap1\n      pop\n        /* \"#utility.yul\":3253:3328   */\n      swap1\n      jump\t// out\n        /* \"#utility.yul\":3334:3451   */\n    tag_326:\n        /* \"#utility.yul\":3443:3444   */\n      0x00\n        /* \"#utility.yul\":3440:3441   */\n      dup1\n        /* \"#utility.yul\":3433:3445   */\n      revert\n        /* \"#utility.yul\":3457:3574   */\n    tag_327:\n        /* \"#utility.yul\":3566:3567   */\n      0x00\n        /* \"#utility.yul\":3563:3564   */\n      dup1\n        /* \"#utility.yul\":3556:3568   */\n      revert\n        /* \"#utility.yul\":3580:3697   */\n    tag_328:\n        /* \"#utility.yul\":3689:3690   */\n      0x00\n        /* \"#utility.yul\":3686:3687   */\n      dup1\n        /* \"#utility.yul\":3679:3691   */\n      revert\n        /* \"#utility.yul\":3703:3820   */\n    tag_329:\n        /* \"#utility.yul\":3812:3813   */\n      0x00\n        /* \"#utility.yul\":3809:3810   */\n      dup1\n        /* \"#utility.yul\":3802:3814   */\n      revert\n        /* \"#utility.yul\":3826:4006   */\n    tag_51:\n        /* \"#utility.yul\":3874:3951   */\n      0x4e487b7100000000000000000000000000000000000000000000000000000000\n        /* \"#utility.yul\":3871:3872   */\n      0x00\n        /* \"#utility.yul\":3864:3952   */\n      mstore\n        /* \"#utility.yul\":3971:3975   */\n      0x41\n        /* \"#utility.yul\":3968:3969   */\n      0x04\n        /* \"#utility.yul\":3961:3976   */\n      mstore\n        /* \"#utility.yul\":3995:3999   */\n      0x24\n        /* \"#utility.yul\":3992:3993   */\n      0x00\n        /* \"#utility.yul\":3985:4000   */\n      revert\n        /* \"#utility.yul\":4012:4293   */\n    tag_330:\n        /* \"#utility.yul\":4095:4122   */\n      tag_434\n        /* \"#utility.yul\":4117:4121   */\n      dup3\n        /* \"#utility.yul\":4095:4122   */\n      tag_320\n      jump\t// in\n    tag_434:\n        /* \"#utility.yul\":4087:4093   */\n      dup2\n        /* \"#utility.yul\":4083:4123   */\n      add\n        /* \"#utility.yul\":4225:4231   */\n      dup2\n        /* \"#utility.yul\":4213:4223   */\n      dup2\n        /* \"#utility.yul\":4210:4232   */\n      lt\n        /* \"#utility.yul\":4189:4207   */\n      0xffffffffffffffff\n        /* \"#utility.yul\":4177:4187   */\n      dup3\n        /* \"#utility.yul\":4174:4208   */\n      gt\n        /* \"#utility.yul\":4171:4233   */\n      or\n        /* \"#utility.yul\":4168:4256   */\n      iszero\n      tag_435\n      jumpi\n        /* \"#utility.yul\":4236:4254   */\n      tag_436\n      tag_51\n      jump\t// in\n    tag_436:\n        /* \"#utility.yul\":4168:4256   */\n    tag_435:\n        /* \"#utility.yul\":4276:4286   */\n      dup1\n        /* \"#utility.yul\":4272:4274   */\n      0x40\n        /* \"#utility.yul\":4265:4287   */\n      mstore\n        /* \"#utility.yul\":4055:4293   */\n      pop\n        /* \"#utility.yul\":4012:4293   */\n      pop\n      pop\n      jump\t// out\n        /* \"#utility.yul\":4299:4428   */\n    tag_331:\n        /* \"#utility.yul\":4333:4339   */\n      0x00\n        /* \"#utility.yul\":4360:4380   */\n      tag_438\n      tag_325\n      jump\t// in\n    tag_438:\n        /* \"#utility.yul\":4350:4380   */\n      swap1\n      pop\n        /* \"#utility.yul\":4389:4422   */\n      tag_439\n        /* \"#utility.yul\":4417:4421   */\n      dup3\n        /* \"#utility.yul\":4409:4415   */\n      dup3\n        /* \"#utility.yul\":4389:4422   */\n      tag_330\n      jump\t// in\n    tag_439:\n        /* \"#utility.yul\":4299:4428   */\n      swap2\n      swap1\n      pop\n      jump\t// out\n        /* \"#utility.yul\":4434:4742   */\n    tag_332:\n        /* \"#utility.yul\":4496:4500   */\n      0x00\n        /* \"#utility.yul\":4586:4604   */\n      0xffffffffffffffff\n        /* \"#utility.yul\":4578:4584   */\n      dup3\n        /* \"#utility.yul\":4575:4605   */\n      gt\n        /* \"#utility.yul\":4572:4628   */\n      iszero\n      tag_441\n      jumpi\n        /* \"#utility.yul\":4608:4626   */\n      tag_442\n      tag_51\n      jump\t// in\n    tag_442:\n        /* \"#utility.yul\":4572:4628   */\n    tag_441:\n        /* \"#utility.yul\":4646:4675   */\n      tag_443\n        /* \"#utility.yul\":4668:4674   */\n      dup3\n        /* \"#utility.yul\":4646:4675   */\n      tag_320\n      jump\t// in\n    tag_443:\n        /* \"#utility.yul\":4638:4675   */\n      swap1\n      pop\n        /* \"#utility.yul\":4730:4734   */\n      0x20\n        /* \"#utility.yul\":4724:4728   */\n      dup2\n        /* \"#utility.yul\":4720:4735   */\n      add\n        /* \"#utility.yul\":4712:4735   */\n      swap1\n      pop\n        /* \"#utility.yul\":4434:4742   */\n      swap2\n      swap1\n      pop\n      jump\t// out\n        /* \"#utility.yul\":4748:4894   */\n    tag_333:\n        /* \"#utility.yul\":4845:4851   */\n      dup3\n        /* \"#utility.yul\":4840:4843   */\n      dup2\n        /* \"#utility.yul\":4835:4838   */\n      dup4\n        /* \"#utility.yul\":4822:4852   */\n      calldatacopy\n        /* \"#utility.yul\":4886:4887   */\n      0x00\n        /* \"#utility.yul\":4877:4883   */\n      dup4\n        /* \"#utility.yul\":4872:4875   */\n      dup4\n        /* \"#utility.yul\":4868:4884   */\n      add\n        /* \"#utility.yul\":4861:4888   */\n      mstore\n        /* \"#utility.yul\":4748:4894   */\n      pop\n      pop\n      pop\n      jump\t// out\n        /* \"#utility.yul\":4900:5325   */\n    tag_334:\n        /* \"#utility.yul\":4978:4983   */\n      0x00\n        /* \"#utility.yul\":5003:5069   */\n      tag_446\n        /* \"#utility.yul\":5019:5068   */\n      tag_447\n        /* \"#utility.yul\":5061:5067   */\n      dup5\n        /* \"#utility.yul\":5019:5068   */\n      tag_332\n      jump\t// in\n    tag_447:\n        /* \"#utility.yul\":5003:5069   */\n      tag_331\n      jump\t// in\n    tag_446:\n        /* \"#utility.yul\":4994:5069   */\n      swap1\n      pop\n        /* \"#utility.yul\":5092:5098   */\n      dup3\n        /* \"#utility.yul\":5085:5090   */\n      dup2\n        /* \"#utility.yul\":5078:5099   */\n      mstore\n        /* \"#utility.yul\":5130:5134   */\n      0x20\n        /* \"#utility.yul\":5123:5128   */\n      dup2\n        /* \"#utility.yul\":5119:5135   */\n      add\n        /* \"#utility.yul\":5168:5171   */\n      dup5\n        /* \"#utility.yul\":5159:5165   */\n      dup5\n        /* \"#utility.yul\":5154:5157   */\n      dup5\n        /* \"#utility.yul\":5150:5166   */\n      add\n        /* \"#utility.yul\":5147:5172   */\n      gt\n        /* \"#utility.yul\":5144:5256   */\n      iszero\n      tag_448\n      jumpi\n        /* \"#utility.yul\":5175:5254   */\n      tag_449\n      tag_329\n      jump\t// in\n    tag_449:\n        /* \"#utility.yul\":5144:5256   */\n    tag_448:\n        /* \"#utility.yul\":5265:5319   */\n      tag_450\n        /* \"#utility.yul\":5312:5318   */\n      dup5\n        /* \"#utility.yul\":5307:5310   */\n      dup3\n        /* \"#utility.yul\":5302:5305   */\n      dup6\n        /* \"#utility.yul\":5265:5319   */\n      tag_333\n      jump\t// in\n    tag_450:\n        /* \"#utility.yul\":4984:5325   */\n      pop\n        /* \"#utility.yul\":4900:5325   */\n      swap4\n      swap3\n      pop\n      pop\n      pop\n      jump\t// out\n        /* \"#utility.yul\":5345:5685   */\n    tag_335:\n        /* \"#utility.yul\":5401:5406   */\n      0x00\n        /* \"#utility.yul\":5450:5453   */\n      dup3\n        /* \"#utility.yul\":5443:5447   */\n      0x1f\n        /* \"#utility.yul\":5435:5441   */\n      dup4\n        /* \"#utility.yul\":5431:5448   */\n      add\n        /* \"#utility.yul\":5427:5454   */\n      slt\n        /* \"#utility.yul\":5417:5539   */\n      tag_452\n      jumpi\n        /* \"#utility.yul\":5458:5537   */\n      tag_453\n      tag_328\n      jump\t// in\n    tag_453:\n        /* \"#utility.yul\":5417:5539   */\n    tag_452:\n        /* \"#utility.yul\":5575:5581   */\n      dup2\n        /* \"#utility.yul\":5562:5582   */\n      calldataload\n        /* \"#utility.yul\":5600:5679   */\n      tag_454\n        /* \"#utility.yul\":5675:5678   */\n      dup5\n        /* \"#utility.yul\":5667:5673   */\n      dup3\n        /* \"#utility.yul\":5660:5664   */\n      0x20\n        /* \"#utility.yul\":5652:5658   */\n      dup7\n        /* \"#utility.yul\":5648:5665   */\n      add\n        /* \"#utility.yul\":5600:5679   */\n      tag_334\n      jump\t// in\n    tag_454:\n        /* \"#utility.yul\":5591:5679   */\n      swap2\n      pop\n        /* \"#utility.yul\":5407:5685   */\n      pop\n        /* \"#utility.yul\":5345:5685   */\n      swap3\n      swap2\n      pop\n      pop\n      jump\t// out\n        /* \"#utility.yul\":5691:6200   */\n    tag_20:\n        /* \"#utility.yul\":5760:5766   */\n      0x00\n        /* \"#utility.yul\":5809:5811   */\n      0x20\n        /* \"#utility.yul\":5797:5806   */\n      dup3\n        /* \"#utility.yul\":5788:5795   */\n      dup5\n        /* \"#utility.yul\":5784:5807   */\n      sub\n        /* \"#utility.yul\":5780:5812   */\n      slt\n        /* \"#utility.yul\":5777:5896   */\n      iszero\n      tag_456\n      jumpi\n        /* \"#utility.yul\":5815:5894   */\n      tag_457\n      tag_326\n      jump\t// in\n    tag_457:\n        /* \"#utility.yul\":5777:5896   */\n    tag_456:\n        /* \"#utility.yul\":5963:5964   */\n      0x00\n        /* \"#utility.yul\":5952:5961   */\n      dup3\n        /* \"#utility.yul\":5948:5965   */\n      add\n        /* \"#utility.yul\":5935:5966   */\n      calldataload\n        /* \"#utility.yul\":5993:6011   */\n      0xffffffffffffffff\n        /* \"#utility.yul\":5985:5991   */\n      dup2\n        /* \"#utility.yul\":5982:6012   */\n      gt\n        /* \"#utility.yul\":5979:6096   */\n      iszero\n      tag_458\n      jumpi\n        /* \"#utility.yul\":6015:6094   */\n      tag_459\n      tag_327\n      jump\t// in\n    tag_459:\n        /* \"#utility.yul\":5979:6096   */\n    tag_458:\n        /* \"#utility.yul\":6120:6183   */\n      tag_460\n        /* \"#utility.yul\":6175:6182   */\n      dup5\n        /* \"#utility.yul\":6166:6172   */\n      dup3\n        /* \"#utility.yul\":6155:6164   */\n      dup6\n        /* \"#utility.yul\":6151:6173   */\n      add\n        /* \"#utility.yul\":6120:6183   */\n      tag_335\n      jump\t// in\n    tag_460:\n        /* \"#utility.yul\":6110:6183   */\n      swap2\n      pop\n        /* \"#utility.yul\":5906:6193   */\n      pop\n        /* \"#utility.yul\":5691:6200   */\n      swap3\n      swap2\n      pop\n      pop\n      jump\t// out\n        /* \"#utility.yul\":6206:6332   */\n    tag_336:\n        /* \"#utility.yul\":6243:6250   */\n      0x00\n        /* \"#utility.yul\":6283:6325   */\n      0xffffffffffffffffffffffffffffffffffffffff\n        /* \"#utility.yul\":6276:6281   */\n      dup3\n        /* \"#utility.yul\":6272:6326   */\n      and\n        /* \"#utility.yul\":6261:6326   */\n      swap1\n      pop\n        /* \"#utility.yul\":6206:6332   */\n      swap2\n      swap1\n      pop\n      jump\t// out\n        /* \"#utility.yul\":6338:6434   */\n    tag_337:\n        /* \"#utility.yul\":6375:6382   */\n      0x00\n        /* \"#utility.yul\":6404:6428   */\n      tag_463\n        /* \"#utility.yul\":6422:6427   */\n      dup3\n        /* \"#utility.yul\":6404:6428   */\n      tag_336\n      jump\t// in\n    tag_463:\n        /* \"#utility.yul\":6393:6428   */\n      swap1\n      pop\n        /* \"#utility.yul\":6338:6434   */\n      swap2\n      swap1\n      pop\n      jump\t// out\n        /* \"#utility.yul\":6440:6558   */\n    tag_338:\n        /* \"#utility.yul\":6527:6551   */\n      tag_465\n        /* \"#utility.yul\":6545:6550   */\n      dup2\n        /* \"#utility.yul\":6527:6551   */\n      tag_337\n      jump\t// in\n    tag_465:\n        /* \"#utility.yul\":6522:6525   */\n      dup3\n        /* \"#utility.yul\":6515:6552   */\n      mstore\n        /* \"#utility.yul\":6440:6558   */\n      pop\n      pop\n      jump\t// out\n        /* \"#utility.yul\":6564:6733   */\n    tag_339:\n        /* \"#utility.yul\":6648:6659   */\n      0x00\n        /* \"#utility.yul\":6682:6688   */\n      dup3\n        /* \"#utility.yul\":6677:6680   */\n      dup3\n        /* \"#utility.yul\":6670:6689   */\n      mstore\n        /* \"#utility.yul\":6722:6726   */\n      0x20\n        /* \"#utility.yul\":6717:6720   */\n      dup3\n        /* \"#utility.yul\":6713:6727   */\n      add\n        /* \"#utility.yul\":6698:6727   */\n      swap1\n      pop\n        /* \"#utility.yul\":6564:6733   */\n      swap3\n      swap2\n      pop\n      pop\n      jump\t// out\n        /* \"#utility.yul\":6739:7116   */\n    tag_340:\n        /* \"#utility.yul\":6827:6830   */\n      0x00\n        /* \"#utility.yul\":6855:6894   */\n      tag_468\n        /* \"#utility.yul\":6888:6893   */\n      dup3\n        /* \"#utility.yul\":6855:6894   */\n      tag_317\n      jump\t// in\n    tag_468:\n        /* \"#utility.yul\":6910:6981   */\n      tag_469\n        /* \"#utility.yul\":6974:6980   */\n      dup2\n        /* \"#utility.yul\":6969:6972   */\n      dup6\n        /* \"#utility.yul\":6910:6981   */\n      tag_339\n      jump\t// in\n    tag_469:\n        /* \"#utility.yul\":6903:6981   */\n      swap4\n      pop\n        /* \"#utility.yul\":6990:7055   */\n      tag_470\n        /* \"#utility.yul\":7048:7054   */\n      dup2\n        /* \"#utility.yul\":7043:7046   */\n      dup6\n        /* \"#utility.yul\":7036:7040   */\n      0x20\n        /* \"#utility.yul\":7029:7034   */\n      dup7\n        /* \"#utility.yul\":7025:7041   */\n      add\n        /* \"#utility.yul\":6990:7055   */\n      tag_319\n      jump\t// in\n    tag_470:\n        /* \"#utility.yul\":7080:7109   */\n      tag_471\n        /* \"#utility.yul\":7102:7108   */\n      dup2\n        /* \"#utility.yul\":7080:7109   */\n      tag_320\n      jump\t// in\n    tag_471:\n        /* \"#utility.yul\":7075:7078   */\n      dup5\n        /* \"#utility.yul\":7071:7110   */\n      add\n        /* \"#utility.yul\":7064:7110   */\n      swap2\n      pop\n        /* \"#utility.yul\":6831:7116   */\n      pop\n        /* \"#utility.yul\":6739:7116   */\n      swap3\n      swap2\n      pop\n      pop\n      jump\t// out\n        /* \"#utility.yul\":7122:7199   */\n    tag_341:\n        /* \"#utility.yul\":7159:7166   */\n      0x00\n        /* \"#utility.yul\":7188:7193   */\n      dup2\n        /* \"#utility.yul\":7177:7193   */\n      swap1\n      pop\n        /* \"#utility.yul\":7122:7199   */\n      swap2\n      swap1\n      pop\n      jump\t// out\n        /* \"#utility.yul\":7205:7323   */\n    tag_342:\n        /* \"#utility.yul\":7292:7316   */\n      tag_474\n        /* \"#utility.yul\":7310:7315   */\n      dup2\n        /* \"#utility.yul\":7292:7316   */\n      tag_341\n      jump\t// in\n    tag_474:\n        /* \"#utility.yul\":7287:7290   */\n      dup3\n        /* \"#utility.yul\":7280:7317   */\n      mstore\n        /* \"#utility.yul\":7205:7323   */\n      pop\n      pop\n      jump\t// out\n        /* \"#utility.yul\":7329:7862   */\n    tag_23:\n        /* \"#utility.yul\":7498:7502   */\n      0x00\n        /* \"#utility.yul\":7536:7538   */\n      0x60\n        /* \"#utility.yul\":7525:7534   */\n      dup3\n        /* \"#utility.yul\":7521:7539   */\n      add\n        /* \"#utility.yul\":7513:7539   */\n      swap1\n      pop\n        /* \"#utility.yul\":7549:7620   */\n      tag_476\n        /* \"#utility.yul\":7617:7618   */\n      0x00\n        /* \"#utility.yul\":7606:7615   */\n      dup4\n        /* \"#utility.yul\":7602:7619   */\n      add\n        /* \"#utility.yul\":7593:7599   */\n      dup7\n        /* \"#utility.yul\":7549:7620   */\n      tag_338\n      jump\t// in\n    tag_476:\n        /* \"#utility.yul\":7667:7676   */\n      dup2\n        /* \"#utility.yul\":7661:7665   */\n      dup2\n        /* \"#utility.yul\":7657:7677   */\n      sub\n        /* \"#utility.yul\":7652:7654   */\n      0x20\n        /* \"#utility.yul\":7641:7650   */\n      dup4\n        /* \"#utility.yul\":7637:7655   */\n      add\n        /* \"#utility.yul\":7630:7678   */\n      mstore\n        /* \"#utility.yul\":7695:7773   */\n      tag_477\n        /* \"#utility.yul\":7768:7772   */\n      dup2\n        /* \"#utility.yul\":7759:7765   */\n      dup6\n        /* \"#utility.yul\":7695:7773   */\n      tag_340\n      jump\t// in\n    tag_477:\n        /* \"#utility.yul\":7687:7773   */\n      swap1\n      pop\n        /* \"#utility.yul\":7783:7855   */\n      tag_478\n        /* \"#utility.yul\":7851:7853   */\n      0x40\n        /* \"#utility.yul\":7840:7849   */\n      dup4\n        /* \"#utility.yul\":7836:7854   */\n      add\n        /* \"#utility.yul\":7827:7833   */\n      dup5\n        /* \"#utility.yul\":7783:7855   */\n      tag_342\n      jump\t// in\n    tag_478:\n        /* \"#utility.yul\":7329:7862   */\n      swap5\n      swap4\n      pop\n      pop\n      pop\n      pop\n      jump\t// out\n        /* \"#utility.yul\":7868:8090   */\n    tag_31:\n        /* \"#utility.yul\":7961:7965   */\n      0x00\n        /* \"#utility.yul\":7999:8001   */\n      0x20\n        /* \"#utility.yul\":7988:7997   */\n      dup3\n        /* \"#utility.yul\":7984:8002   */\n      add\n        /* \"#utility.yul\":7976:8002   */\n      swap1\n      pop\n        /* \"#utility.yul\":8012:8083   */\n      tag_480\n        /* \"#utility.yul\":8080:8081   */\n      0x00\n        /* \"#utility.yul\":8069:8078   */\n      dup4\n        /* \"#utility.yul\":8065:8082   */\n      add\n        /* \"#utility.yul\":8056:8062   */\n      dup5\n        /* \"#utility.yul\":8012:8083   */\n      tag_342\n      jump\t// in\n    tag_480:\n        /* \"#utility.yul\":7868:8090   */\n      swap3\n      swap2\n      pop\n      pop\n      jump\t// out\n        /* \"#utility.yul\":8096:8409   */\n    tag_37:\n        /* \"#utility.yul\":8209:8213   */\n      0x00\n        /* \"#utility.yul\":8247:8249   */\n      0x20\n        /* \"#utility.yul\":8236:8245   */\n      dup3\n        /* \"#utility.yul\":8232:8250   */\n      add\n        /* \"#utility.yul\":8224:8250   */\n      swap1\n      pop\n        /* \"#utility.yul\":8296:8305   */\n      dup2\n        /* \"#utility.yul\":8290:8294   */\n      dup2\n        /* \"#utility.yul\":8286:8306   */\n      sub\n        /* \"#utility.yul\":8282:8283   */\n      0x00\n        /* \"#utility.yul\":8271:8280   */\n      dup4\n        /* \"#utility.yul\":8267:8284   */\n      add\n        /* \"#utility.yul\":8260:8307   */\n      mstore\n        /* \"#utility.yul\":8324:8402   */\n      tag_482\n        /* \"#utility.yul\":8397:8401   */\n      dup2\n        /* \"#utility.yul\":8388:8394   */\n      dup5\n        /* \"#utility.yul\":8324:8402   */\n      tag_340\n      jump\t// in\n    tag_482:\n        /* \"#utility.yul\":8316:8402   */\n      swap1\n      pop\n        /* \"#utility.yul\":8096:8409   */\n      swap3\n      swap2\n      pop\n      pop\n      jump\t// out\n        /* \"#utility.yul\":8415:8505   */\n    tag_343:\n        /* \"#utility.yul\":8449:8456   */\n      0x00\n        /* \"#utility.yul\":8492:8497   */\n      dup2\n        /* \"#utility.yul\":8485:8498   */\n      iszero\n        /* \"#utility.yul\":8478:8499   */\n      iszero\n        /* \"#utility.yul\":8467:8499   */\n      swap1\n      pop\n        /* \"#utility.yul\":8415:8505   */\n      swap2\n      swap1\n      pop\n      jump\t// out\n        /* \"#utility.yul\":8511:8620   */\n    tag_344:\n        /* \"#utility.yul\":8592:8613   */\n      tag_485\n        /* \"#utility.yul\":8607:8612   */\n      dup2\n        /* \"#utility.yul\":8592:8613   */\n      tag_343\n      jump\t// in\n    tag_485:\n        /* \"#utility.yul\":8587:8590   */\n      dup3\n        /* \"#utility.yul\":8580:8614   */\n      mstore\n        /* \"#utility.yul\":8511:8620   */\n      pop\n      pop\n      jump\t// out\n        /* \"#utility.yul\":8626:8934   */\n    tag_44:\n        /* \"#utility.yul\":8735:8739   */\n      0x00\n        /* \"#utility.yul\":8773:8775   */\n      0x40\n        /* \"#utility.yul\":8762:8771   */\n      dup3\n        /* \"#utility.yul\":8758:8776   */\n      add\n        /* \"#utility.yul\":8750:8776   */\n      swap1\n      pop\n        /* \"#utility.yul\":8786:8851   */\n      tag_487\n        /* \"#utility.yul\":8848:8849   */\n      0x00\n        /* \"#utility.yul\":8837:8846   */\n      dup4\n        /* \"#utility.yul\":8833:8850   */\n      add\n        /* \"#utility.yul\":8824:8830   */\n      dup6\n        /* \"#utility.yul\":8786:8851   */\n      tag_344\n      jump\t// in\n    tag_487:\n        /* \"#utility.yul\":8861:8927   */\n      tag_488\n        /* \"#utility.yul\":8923:8925   */\n      0x20\n        /* \"#utility.yul\":8912:8921   */\n      dup4\n        /* \"#utility.yul\":8908:8926   */\n      add\n        /* \"#utility.yul\":8899:8905   */\n      dup5\n        /* \"#utility.yul\":8861:8927   */\n      tag_344\n      jump\t// in\n    tag_488:\n        /* \"#utility.yul\":8626:8934   */\n      swap4\n      swap3\n      pop\n      pop\n      pop\n      jump\t// out\n        /* \"#utility.yul\":8940:9120   */\n    tag_59:\n        /* \"#utility.yul\":8988:9065   */\n      0x4e487b7100000000000000000000000000000000000000000000000000000000\n        /* \"#utility.yul\":8985:8986   */\n      0x00\n        /* \"#utility.yul\":8978:9066   */\n      mstore\n        /* \"#utility.yul\":9085:9089   */\n      0x32\n        /* \"#utility.yul\":9082:9083   */\n      0x04\n        /* \"#utility.yul\":9075:9090   */\n      mstore\n        /* \"#utility.yul\":9109:9113   */\n      0x24\n        /* \"#utility.yul\":9106:9107   */\n      0x00\n        /* \"#utility.yul\":9099:9114   */\n      revert\n        /* \"#utility.yul\":9126:9306   */\n    tag_345:\n        /* \"#utility.yul\":9174:9251   */\n      0x4e487b7100000000000000000000000000000000000000000000000000000000\n        /* \"#utility.yul\":9171:9172   */\n      0x00\n        /* \"#utility.yul\":9164:9252   */\n      mstore\n        /* \"#utility.yul\":9271:9275   */\n      0x22\n        /* \"#utility.yul\":9268:9269   */\n      0x04\n        /* \"#utility.yul\":9261:9276   */\n      mstore\n        /* \"#utility.yul\":9295:9299   */\n      0x24\n        /* \"#utility.yul\":9292:9293   */\n      0x00\n        /* \"#utility.yul\":9285:9300   */\n      revert\n        /* \"#utility.yul\":9312:9632   */\n    tag_62:\n        /* \"#utility.yul\":9356:9362   */\n      0x00\n        /* \"#utility.yul\":9393:9394   */\n      0x02\n        /* \"#utility.yul\":9387:9391   */\n      dup3\n        /* \"#utility.yul\":9383:9395   */\n      div\n        /* \"#utility.yul\":9373:9395   */\n      swap1\n      pop\n        /* \"#utility.yul\":9440:9441   */\n      0x01\n        /* \"#utility.yul\":9434:9438   */\n      dup3\n        /* \"#utility.yul\":9430:9442   */\n      and\n        /* \"#utility.yul\":9461:9479   */\n      dup1\n        /* \"#utility.yul\":9451:9532   */\n      tag_492\n      jumpi\n        /* \"#utility.yul\":9517:9521   */\n      0x7f\n        /* \"#utility.yul\":9509:9515   */\n      dup3\n        /* \"#utility.yul\":9505:9522   */\n      and\n        /* \"#utility.yul\":9495:9522   */\n      swap2\n      pop\n        /* \"#utility.yul\":9451:9532   */\n    tag_492:\n        /* \"#utility.yul\":9579:9581   */\n      0x20\n        /* \"#utility.yul\":9571:9577   */\n      dup3\n        /* \"#utility.yul\":9568:9582   */\n      lt\n        /* \"#utility.yul\":9548:9566   */\n      dup2\n        /* \"#utility.yul\":9545:9583   */\n      sub\n        /* \"#utility.yul\":9542:9626   */\n      tag_493\n      jumpi\n        /* \"#utility.yul\":9598:9616   */\n      tag_494\n      tag_345\n      jump\t// in\n    tag_494:\n        /* \"#utility.yul\":9542:9626   */\n    tag_493:\n        /* \"#utility.yul\":9363:9632   */\n      pop\n        /* \"#utility.yul\":9312:9632   */\n      swap2\n      swap1\n      pop\n      jump\t// out\n        /* \"#utility.yul\":9638:9786   */\n    tag_346:\n        /* \"#utility.yul\":9740:9751   */\n      0x00\n        /* \"#utility.yul\":9777:9780   */\n      dup2\n        /* \"#utility.yul\":9762:9780   */\n      swap1\n      pop\n        /* \"#utility.yul\":9638:9786   */\n      swap3\n      swap2\n      pop\n      pop\n      jump\t// out\n        /* \"#utility.yul\":9792:9943   */\n    tag_347:\n        /* \"#utility.yul\":9932:9935   */\n      0x2000000000000000000000000000000000000000000000000000000000000000\n        /* \"#utility.yul\":9928:9929   */\n      0x00\n        /* \"#utility.yul\":9920:9926   */\n      dup3\n        /* \"#utility.yul\":9916:9930   */\n      add\n        /* \"#utility.yul\":9909:9936   */\n      mstore\n        /* \"#utility.yul\":9792:9943   */\n      pop\n      jump\t// out\n        /* \"#utility.yul\":9949:10349   */\n    tag_348:\n        /* \"#utility.yul\":10109:10112   */\n      0x00\n        /* \"#utility.yul\":10130:10214   */\n      tag_498\n        /* \"#utility.yul\":10212:10213   */\n      0x01\n        /* \"#utility.yul\":10207:10210   */\n      dup4\n        /* \"#utility.yul\":10130:10214   */\n      tag_346\n      jump\t// in\n    tag_498:\n        /* \"#utility.yul\":10123:10214   */\n      swap2\n      pop\n        /* \"#utility.yul\":10223:10316   */\n      tag_499\n        /* \"#utility.yul\":10312:10315   */\n      dup3\n        /* \"#utility.yul\":10223:10316   */\n      tag_347\n      jump\t// in\n    tag_499:\n        /* \"#utility.yul\":10341:10342   */\n      0x01\n        /* \"#utility.yul\":10336:10339   */\n      dup3\n        /* \"#utility.yul\":10332:10343   */\n      add\n        /* \"#utility.yul\":10325:10343   */\n      swap1\n      pop\n        /* \"#utility.yul\":9949:10349   */\n      swap2\n      swap1\n      pop\n      jump\t// out\n        /* \"#utility.yul\":10355:10745   */\n    tag_349:\n        /* \"#utility.yul\":10461:10464   */\n      0x00\n        /* \"#utility.yul\":10489:10528   */\n      tag_501\n        /* \"#utility.yul\":10522:10527   */\n      dup3\n        /* \"#utility.yul\":10489:10528   */\n      tag_317\n      jump\t// in\n    tag_501:\n        /* \"#utility.yul\":10544:10633   */\n      tag_502\n        /* \"#utility.yul\":10626:10632   */\n      dup2\n        /* \"#utility.yul\":10621:10624   */\n      dup6\n        /* \"#utility.yul\":10544:10633   */\n      tag_346\n      jump\t// in\n    tag_502:\n        /* \"#utility.yul\":10537:10633   */\n      swap4\n      pop\n        /* \"#utility.yul\":10642:10707   */\n      tag_503\n        /* \"#utility.yul\":10700:10706   */\n      dup2\n        /* \"#utility.yul\":10695:10698   */\n      dup6\n        /* \"#utility.yul\":10688:10692   */\n      0x20\n        /* \"#utility.yul\":10681:10686   */\n      dup7\n        /* \"#utility.yul\":10677:10693   */\n      add\n        /* \"#utility.yul\":10642:10707   */\n      tag_319\n      jump\t// in\n    tag_503:\n        /* \"#utility.yul\":10732:10738   */\n      dup1\n        /* \"#utility.yul\":10727:10730   */\n      dup5\n        /* \"#utility.yul\":10723:10739   */\n      add\n        /* \"#utility.yul\":10716:10739   */\n      swap2\n      pop\n        /* \"#utility.yul\":10465:10745   */\n      pop\n        /* \"#utility.yul\":10355:10745   */\n      swap3\n      swap2\n      pop\n      pop\n      jump\t// out\n        /* \"#utility.yul\":10751:10907   */\n    tag_350:\n        /* \"#utility.yul\":10891:10895   */\n      0x2028000000000000000000000000000000000000000000000000000000000000\n        /* \"#utility.yul\":10887:10888   */\n      0x00\n        /* \"#utility.yul\":10879:10885   */\n      dup3\n        /* \"#utility.yul\":10875:10889   */\n      add\n        /* \"#utility.yul\":10868:10896   */\n      mstore\n        /* \"#utility.yul\":10751:10907   */\n      pop\n      jump\t// out\n        /* \"#utility.yul\":10917:11333   */\n    tag_351:\n        /* \"#utility.yul\":11077:11080   */\n      0x00\n        /* \"#utility.yul\":11102:11186   */\n      tag_506\n        /* \"#utility.yul\":11184:11185   */\n      0x02\n        /* \"#utility.yul\":11179:11182   */\n      dup4\n        /* \"#utility.yul\":11102:11186   */\n      tag_346\n      jump\t// in\n    tag_506:\n        /* \"#utility.yul\":11095:11186   */\n      swap2\n      pop\n        /* \"#utility.yul\":11199:11292   */\n      tag_507\n        /* \"#utility.yul\":11288:11291   */\n      dup3\n        /* \"#utility.yul\":11199:11292   */\n      tag_350\n      jump\t// in\n    tag_507:\n        /* \"#utility.yul\":11321:11322   */\n      0x02\n        /* \"#utility.yul\":11316:11319   */\n      dup3\n        /* \"#utility.yul\":11312:11323   */\n      add\n        /* \"#utility.yul\":11305:11323   */\n      swap1\n      pop\n        /* \"#utility.yul\":10917:11333   */\n      swap2\n      swap1\n      pop\n      jump\t// out\n        /* \"#utility.yul\":11343:11494   */\n    tag_352:\n        /* \"#utility.yul\":11483:11486   */\n      0x2900000000000000000000000000000000000000000000000000000000000000\n        /* \"#utility.yul\":11479:11480   */\n      0x00\n        /* \"#utility.yul\":11471:11477   */\n      dup3\n        /* \"#utility.yul\":11467:11481   */\n      add\n        /* \"#utility.yul\":11460:11487   */\n      mstore\n        /* \"#utility.yul\":11343:11494   */\n      pop\n      jump\t// out\n        /* \"#utility.yul\":11500:11900   */\n    tag_353:\n        /* \"#utility.yul\":11660:11663   */\n      0x00\n        /* \"#utility.yul\":11681:11765   */\n      tag_510\n        /* \"#utility.yul\":11763:11764   */\n      0x01\n        /* \"#utility.yul\":11758:11761   */\n      dup4\n        /* \"#utility.yul\":11681:11765   */\n      tag_346\n      jump\t// in\n    tag_510:\n        /* \"#utility.yul\":11674:11765   */\n      swap2\n      pop\n        /* \"#utility.yul\":11774:11867   */\n      tag_511\n        /* \"#utility.yul\":11863:11866   */\n      dup3\n        /* \"#utility.yul\":11774:11867   */\n      tag_352\n      jump\t// in\n    tag_511:\n        /* \"#utility.yul\":11892:11893   */\n      0x01\n        /* \"#utility.yul\":11887:11890   */\n      dup3\n        /* \"#utility.yul\":11883:11894   */\n      add\n        /* \"#utility.yul\":11876:11894   */\n      swap1\n      pop\n        /* \"#utility.yul\":11500:11900   */\n      swap2\n      swap1\n      pop\n      jump\t// out\n        /* \"#utility.yul\":11906:13139   */\n    tag_73:\n        /* \"#utility.yul\":12389:12392   */\n      0x00\n        /* \"#utility.yul\":12411:12559   */\n      tag_513\n        /* \"#utility.yul\":12555:12558   */\n      dup3\n        /* \"#utility.yul\":12411:12559   */\n      tag_348\n      jump\t// in\n    tag_513:\n        /* \"#utility.yul\":12404:12559   */\n      swap2\n      pop\n        /* \"#utility.yul\":12576:12671   */\n      tag_514\n        /* \"#utility.yul\":12667:12670   */\n      dup3\n        /* \"#utility.yul\":12658:12664   */\n      dup6\n        /* \"#utility.yul\":12576:12671   */\n      tag_349\n      jump\t// in\n    tag_514:\n        /* \"#utility.yul\":12569:12671   */\n      swap2\n      pop\n        /* \"#utility.yul\":12688:12836   */\n      tag_515\n        /* \"#utility.yul\":12832:12835   */\n      dup3\n        /* \"#utility.yul\":12688:12836   */\n      tag_351\n      jump\t// in\n    tag_515:\n        /* \"#utility.yul\":12681:12836   */\n      swap2\n      pop\n        /* \"#utility.yul\":12853:12948   */\n      tag_516\n        /* \"#utility.yul\":12944:12947   */\n      dup3\n        /* \"#utility.yul\":12935:12941   */\n      dup5\n        /* \"#utility.yul\":12853:12948   */\n      tag_349\n      jump\t// in\n    tag_516:\n        /* \"#utility.yul\":12846:12948   */\n      swap2\n      pop\n        /* \"#utility.yul\":12965:13113   */\n      tag_517\n        /* \"#utility.yul\":13109:13112   */\n      dup3\n        /* \"#utility.yul\":12965:13113   */\n      tag_353\n      jump\t// in\n    tag_517:\n        /* \"#utility.yul\":12958:13113   */\n      swap2\n      pop\n        /* \"#utility.yul\":13130:13133   */\n      dup2\n        /* \"#utility.yul\":13123:13133   */\n      swap1\n      pop\n        /* \"#utility.yul\":11906:13139   */\n      swap4\n      swap3\n      pop\n      pop\n      pop\n      jump\t// out\n        /* \"#utility.yul\":13145:13325   */\n    tag_354:\n        /* \"#utility.yul\":13193:13270   */\n      0x4e487b7100000000000000000000000000000000000000000000000000000000\n        /* \"#utility.yul\":13190:13191   */\n      0x00\n        /* \"#utility.yul\":13183:13271   */\n      mstore\n        /* \"#utility.yul\":13290:13294   */\n      0x11\n        /* \"#utility.yul\":13287:13288   */\n      0x04\n        /* \"#utility.yul\":13280:13295   */\n      mstore\n        /* \"#utility.yul\":13314:13318   */\n      0x24\n        /* \"#utility.yul\":13311:13312   */\n      0x00\n        /* \"#utility.yul\":13304:13319   */\n      revert\n        /* \"#utility.yul\":13331:13564   */\n    tag_77:\n        /* \"#utility.yul\":13370:13373   */\n      0x00\n        /* \"#utility.yul\":13393:13417   */\n      tag_520\n        /* \"#utility.yul\":13411:13416   */\n      dup3\n        /* \"#utility.yul\":13393:13417   */\n      tag_341\n      jump\t// in\n    tag_520:\n        /* \"#utility.yul\":13384:13417   */\n      swap2\n      pop\n        /* \"#utility.yul\":13439:13505   */\n      0xffffffffffffffffffffffffffffffffffffffffffffffffffffffffffffffff\n        /* \"#utility.yul\":13432:13437   */\n      dup3\n        /* \"#utility.yul\":13429:13506   */\n      sub\n        /* \"#utility.yul\":13426:13529   */\n      tag_521\n      jumpi\n        /* \"#utility.yul\":13509:13527   */\n      tag_522\n      tag_354\n      jump\t// in\n    tag_522:\n        /* \"#utility.yul\":13426:13529   */\n    tag_521:\n        /* \"#utility.yul\":13556:13557   */\n      0x01\n        /* \"#utility.yul\":13549:13554   */\n      dup3\n        /* \"#utility.yul\":13545:13558   */\n      add\n        /* \"#utility.yul\":13538:13558   */\n      swap1\n      pop\n        /* \"#utility.yul\":13331:13564   */\n      swap2\n      swap1\n      pop\n      jump\t// out\n        /* \"#utility.yul\":13570:13732   */\n    tag_355:\n        /* \"#utility.yul\":13710:13724   */\n      0x4944206e6f7420666f756e640000000000000000000000000000000000000000\n        /* \"#utility.yul\":13706:13707   */\n      0x00\n        /* \"#utility.yul\":13698:13704   */\n      dup3\n        /* \"#utility.yul\":13694:13708   */\n      add\n        /* \"#utility.yul\":13687:13725   */\n      mstore\n        /* \"#utility.yul\":13570:13732   */\n      pop\n      jump\t// out\n        /* \"#utility.yul\":13738:14104   */\n    tag_356:\n        /* \"#utility.yul\":13880:13883   */\n      0x00\n        /* \"#utility.yul\":13901:13968   */\n      tag_525\n        /* \"#utility.yul\":13965:13967   */\n      0x0c\n        /* \"#utility.yul\":13960:13963   */\n      dup4\n        /* \"#utility.yul\":13901:13968   */\n      tag_339\n      jump\t// in\n    tag_525:\n        /* \"#utility.yul\":13894:13968   */\n      swap2\n      pop\n        /* \"#utility.yul\":13977:14070   */\n      tag_526\n        /* \"#utility.yul\":14066:14069   */\n      dup3\n        /* \"#utility.yul\":13977:14070   */\n      tag_355\n      jump\t// in\n    tag_526:\n        /* \"#utility.yul\":14095:14097   */\n      0x20\n        /* \"#utility.yul\":14090:14093   */\n      dup3\n        /* \"#utility.yul\":14086:14098   */\n      add\n        /* \"#utility.yul\":14079:14098   */\n      swap1\n      pop\n        /* \"#utility.yul\":13738:14104   */\n      swap2\n      swap1\n      pop\n      jump\t// out\n        /* \"#utility.yul\":14110:14529   */\n    tag_106:\n        /* \"#utility.yul\":14276:14280   */\n      0x00\n        /* \"#utility.yul\":14314:14316   */\n      0x20\n        /* \"#utility.yul\":14303:14312   */\n      dup3\n        /* \"#utility.yul\":14299:14317   */\n      add\n        /* \"#utility.yul\":14291:14317   */\n      swap1\n      pop\n        /* \"#utility.yul\":14363:14372   */\n      dup2\n        /* \"#utility.yul\":14357:14361   */\n      dup2\n        /* \"#utility.yul\":14353:14373   */\n      sub\n        /* \"#utility.yul\":14349:14350   */\n      0x00\n        /* \"#utility.yul\":14338:14347   */\n      dup4\n        /* \"#utility.yul\":14334:14351   */\n      add\n        /* \"#utility.yul\":14327:14374   */\n      mstore\n        /* \"#utility.yul\":14391:14522   */\n      tag_528\n        /* \"#utility.yul\":14517:14521   */\n      dup2\n        /* \"#utility.yul\":14391:14522   */\n      tag_356\n      jump\t// in\n    tag_528:\n        /* \"#utility.yul\":14383:14522   */\n      swap1\n      pop\n        /* \"#utility.yul\":14110:14529   */\n      swap2\n      swap1\n      pop\n      jump\t// out\n        /* \"#utility.yul\":14535:14756   */\n    tag_357:\n        /* \"#utility.yul\":14675:14709   */\n      0x4f6e6c792061646d696e2063616e20706572666f726d20746869732061637469\n        /* \"#utility.yul\":14671:14672   */\n      0x00\n        /* \"#utility.yul\":14663:14669   */\n      dup3\n        /* \"#utility.yul\":14659:14673   */\n      add\n        /* \"#utility.yul\":14652:14710   */\n      mstore\n        /* \"#utility.yul\":14744:14748   */\n      0x6f6e000000000000000000000000000000000000000000000000000000000000\n        /* \"#utility.yul\":14739:14741   */\n      0x20\n        /* \"#utility.yul\":14731:14737   */\n      dup3\n        /* \"#utility.yul\":14727:14742   */\n      add\n        /* \"#utility.yul\":14720:14749   */\n      mstore\n        /* \"#utility.yul\":14535:14756   */\n      pop\n      jump\t// out\n        /* \"#utility.yul\":14762:15128   */\n    tag_358:\n        /* \"#utility.yul\":14904:14907   */\n      0x00\n        /* \"#utility.yul\":14925:14992   */\n      tag_531\n        /* \"#utility.yul\":14989:14991   */\n      0x22\n        /* \"#utility.yul\":14984:14987   */\n      dup4\n        /* \"#utility.yul\":14925:14992   */\n      tag_339\n      jump\t// in\n    tag_531:\n        /* \"#utility.yul\":14918:14992   */\n      swap2\n      pop\n        /* \"#utility.yul\":15001:15094   */\n      tag_532\n        /* \"#utility.yul\":15090:15093   */\n      dup3\n        /* \"#utility.yul\":15001:15094   */\n      tag_357\n      jump\t// in\n    tag_532:\n        /* \"#utility.yul\":15119:15121   */\n      0x40\n        /* \"#utility.yul\":15114:15117   */\n      dup3\n        /* \"#utility.yul\":15110:15122   */\n      add\n        /* \"#utility.yul\":15103:15122   */\n      swap1\n      pop\n        /* \"#utility.yul\":14762:15128   */\n      swap2\n      swap1\n      pop\n      jump\t// out\n        /* \"#utility.yul\":15134:15553   */\n    tag_110:\n        /* \"#utility.yul\":15300:15304   */\n      0x00\n        /* \"#utility.yul\":15338:15340   */\n      0x20\n        /* \"#utility.yul\":15327:15336   */\n      dup3\n        /* \"#utility.yul\":15323:15341   */\n      add\n        /* \"#utility.yul\":15315:15341   */\n      swap1\n      pop\n        /* \"#utility.yul\":15387:15396   */\n      dup2\n        /* \"#utility.yul\":15381:15385   */\n      dup2\n        /* \"#utility.yul\":15377:15397   */\n      sub\n        /* \"#utility.yul\":15373:15374   */\n      0x00\n        /* \"#utility.yul\":15362:15371   */\n      dup4\n        /* \"#utility.yul\":15358:15375   */\n      add\n        /* \"#utility.yul\":15351:15398   */\n      mstore\n        /* \"#utility.yul\":15415:15546   */\n      tag_534\n        /* \"#utility.yul\":15541:15545   */\n      dup2\n        /* \"#utility.yul\":15415:15546   */\n      tag_358\n      jump\t// in\n    tag_534:\n        /* \"#utility.yul\":15407:15546   */\n      swap1\n      pop\n        /* \"#utility.yul\":15134:15553   */\n      swap2\n      swap1\n      pop\n      jump\t// out\n        /* \"#utility.yul\":15559:15732   */\n    tag_359:\n        /* \"#utility.yul\":15699:15724   */\n      0x456c656374696f6e20696e2070726f67726573732e2e2e000000000000000000\n        /* \"#utility.yul\":15695:15696   */\n      0x00\n        /* \"#utility.yul\":15687:15693   */\n      dup3\n        /* \"#utility.yul\":15683:15697   */\n      add\n        /* \"#utility.yul\":15676:15725   */\n      mstore\n        /* \"#utility.yul\":15559:15732   */\n      pop\n      jump\t// out\n        /* \"#utility.yul\":15738:16104   */\n    tag_360:\n        /* \"#utility.yul\":15880:15883   */\n      0x00\n        /* \"#utility.yul\":15901:15968   */\n      tag_537\n        /* \"#utility.yul\":15965:15967   */\n      0x17\n        /* \"#utility.yul\":15960:15963   */\n      dup4\n        /* \"#utility.yul\":15901:15968   */\n      tag_339\n      jump\t// in\n    tag_537:\n        /* \"#utility.yul\":15894:15968   */\n      swap2\n      pop\n        /* \"#utility.yul\":15977:16070   */\n      tag_538\n        /* \"#utility.yul\":16066:16069   */\n      dup3\n        /* \"#utility.yul\":15977:16070   */\n      tag_359\n      jump\t// in\n    tag_538:\n        /* \"#utility.yul\":16095:16097   */\n      0x20\n        /* \"#utility.yul\":16090:16093   */\n      dup3\n        /* \"#utility.yul\":16086:16098   */\n      add\n        /* \"#utility.yul\":16079:16098   */\n      swap1\n      pop\n        /* \"#utility.yul\":15738:16104   */\n      swap2\n      swap1\n      pop\n      jump\t// out\n        /* \"#utility.yul\":16110:16529   */\n    tag_130:\n        /* \"#utility.yul\":16276:16280   */\n      0x00\n        /* \"#utility.yul\":16314:16316   */\n      0x20\n        /* \"#utility.yul\":16303:16312   */\n      dup3\n        /* \"#utility.yul\":16299:16317   */\n      add\n        /* \"#utility.yul\":16291:16317   */\n      swap1\n      pop\n        /* \"#utility.yul\":16363:16372   */\n      dup2\n        /* \"#utility.yul\":16357:16361   */\n      dup2\n        /* \"#utility.yul\":16353:16373   */\n      sub\n        /* \"#utility.yul\":16349:16350   */\n      0x00\n        /* \"#utility.yul\":16338:16347   */\n      dup4\n        /* \"#utility.yul\":16334:16351   */\n      add\n        /* \"#utility.yul\":16327:16374   */\n      mstore\n        /* \"#utility.yul\":16391:16522   */\n      tag_540\n        /* \"#utility.yul\":16517:16521   */\n      dup2\n        /* \"#utility.yul\":16391:16522   */\n      tag_360\n      jump\t// in\n    tag_540:\n        /* \"#utility.yul\":16383:16522   */\n      swap1\n      pop\n        /* \"#utility.yul\":16110:16529   */\n      swap2\n      swap1\n      pop\n      jump\t// out\n        /* \"#utility.yul\":16535:16716   */\n    tag_361:\n        /* \"#utility.yul\":16675:16708   */\n      0x43616e64696461746520697320616c7265647920726567697374726572642e00\n        /* \"#utility.yul\":16671:16672   */\n      0x00\n        /* \"#utility.yul\":16663:16669   */\n      dup3\n        /* \"#utility.yul\":16659:16673   */\n      add\n        /* \"#utility.yul\":16652:16709   */\n      mstore\n        /* \"#utility.yul\":16535:16716   */\n      pop\n      jump\t// out\n        /* \"#utility.yul\":16722:17088   */\n    tag_362:\n        /* \"#utility.yul\":16864:16867   */\n      0x00\n        /* \"#utility.yul\":16885:16952   */\n      tag_543\n        /* \"#utility.yul\":16949:16951   */\n      0x1f\n        /* \"#utility.yul\":16944:16947   */\n      dup4\n        /* \"#utility.yul\":16885:16952   */\n      tag_339\n      jump\t// in\n    tag_543:\n        /* \"#utility.yul\":16878:16952   */\n      swap2\n      pop\n        /* \"#utility.yul\":16961:17054   */\n      tag_544\n        /* \"#utility.yul\":17050:17053   */\n      dup3\n        /* \"#utility.yul\":16961:17054   */\n      tag_361\n      jump\t// in\n    tag_544:\n        /* \"#utility.yul\":17079:17081   */\n      0x20\n        /* \"#utility.yul\":17074:17077   */\n      dup3\n        /* \"#utility.yul\":17070:17082   */\n      add\n        /* \"#utility.yul\":17063:17082   */\n      swap1\n      pop\n        /* \"#utility.yul\":16722:17088   */\n      swap2\n      swap1\n      pop\n      jump\t// out\n        /* \"#utility.yul\":17094:17513   */\n    tag_160:\n        /* \"#utility.yul\":17260:17264   */\n      0x00\n        /* \"#utility.yul\":17298:17300   */\n      0x20\n        /* \"#utility.yul\":17287:17296   */\n      dup3\n        /* \"#utility.yul\":17283:17301   */\n      add\n        /* \"#utility.yul\":17275:17301   */\n      swap1\n      pop\n        /* \"#utility.yul\":17347:17356   */\n      dup2\n        /* \"#utility.yul\":17341:17345   */\n      dup2\n        /* \"#utility.yul\":17337:17357   */\n      sub\n        /* \"#utility.yul\":17333:17334   */\n      0x00\n        /* \"#utility.yul\":17322:17331   */\n      dup4\n        /* \"#utility.yul\":17318:17335   */\n      add\n        /* \"#utility.yul\":17311:17358   */\n      mstore\n        /* \"#utility.yul\":17375:17506   */\n      tag_546\n        /* \"#utility.yul\":17501:17505   */\n      dup2\n        /* \"#utility.yul\":17375:17506   */\n      tag_362\n      jump\t// in\n    tag_546:\n        /* \"#utility.yul\":17367:17506   */\n      swap1\n      pop\n        /* \"#utility.yul\":17094:17513   */\n      swap2\n      swap1\n      pop\n      jump\t// out\n        /* \"#utility.yul\":17519:17693   */\n    tag_363:\n        /* \"#utility.yul\":17659:17685   */\n      0x456c656374696f6e20686173206e6f7420737461727465640000000000000000\n        /* \"#utility.yul\":17655:17656   */\n      0x00\n        /* \"#utility.yul\":17647:17653   */\n      dup3\n        /* \"#utility.yul\":17643:17657   */\n      add\n        /* \"#utility.yul\":17636:17686   */\n      mstore\n        /* \"#utility.yul\":17519:17693   */\n      pop\n      jump\t// out\n        /* \"#utility.yul\":17699:18065   */\n    tag_364:\n        /* \"#utility.yul\":17841:17844   */\n      0x00\n        /* \"#utility.yul\":17862:17929   */\n      tag_549\n        /* \"#utility.yul\":17926:17928   */\n      0x18\n        /* \"#utility.yul\":17921:17924   */\n      dup4\n        /* \"#utility.yul\":17862:17929   */\n      tag_339\n      jump\t// in\n    tag_549:\n        /* \"#utility.yul\":17855:17929   */\n      swap2\n      pop\n        /* \"#utility.yul\":17938:18031   */\n      tag_550\n        /* \"#utility.yul\":18027:18030   */\n      dup3\n        /* \"#utility.yul\":17938:18031   */\n      tag_363\n      jump\t// in\n    tag_550:\n        /* \"#utility.yul\":18056:18058   */\n      0x20\n        /* \"#utility.yul\":18051:18054   */\n      dup3\n        /* \"#utility.yul\":18047:18059   */\n      add\n        /* \"#utility.yul\":18040:18059   */\n      swap1\n      pop\n        /* \"#utility.yul\":17699:18065   */\n      swap2\n      swap1\n      pop\n      jump\t// out\n        /* \"#utility.yul\":18071:18490   */\n    tag_167:\n        /* \"#utility.yul\":18237:18241   */\n      0x00\n        /* \"#utility.yul\":18275:18277   */\n      0x20\n        /* \"#utility.yul\":18264:18273   */\n      dup3\n        /* \"#utility.yul\":18260:18278   */\n      add\n        /* \"#utility.yul\":18252:18278   */\n      swap1\n      pop\n        /* \"#utility.yul\":18324:18333   */\n      dup2\n        /* \"#utility.yul\":18318:18322   */\n      dup2\n        /* \"#utility.yul\":18314:18334   */\n      sub\n        /* \"#utility.yul\":18310:18311   */\n      0x00\n        /* \"#utility.yul\":18299:18308   */\n      dup4\n        /* \"#utility.yul\":18295:18312   */\n      add\n        /* \"#utility.yul\":18288:18335   */\n      mstore\n        /* \"#utility.yul\":18352:18483   */\n      tag_552\n        /* \"#utility.yul\":18478:18482   */\n      dup2\n        /* \"#utility.yul\":18352:18483   */\n      tag_364\n      jump\t// in\n    tag_552:\n        /* \"#utility.yul\":18344:18483   */\n      swap1\n      pop\n        /* \"#utility.yul\":18071:18490   */\n      swap2\n      swap1\n      pop\n      jump\t// out\n        /* \"#utility.yul\":18496:18672   */\n    tag_365:\n        /* \"#utility.yul\":18636:18664   */\n      0x456c656374696f6e2068617320616c726561647920656e646564000000000000\n        /* \"#utility.yul\":18632:18633   */\n      0x00\n        /* \"#utility.yul\":18624:18630   */\n      dup3\n        /* \"#utility.yul\":18620:18634   */\n      add\n        /* \"#utility.yul\":18613:18665   */\n      mstore\n        /* \"#utility.yul\":18496:18672   */\n      pop\n      jump\t// out\n        /* \"#utility.yul\":18678:19044   */\n    tag_366:\n        /* \"#utility.yul\":18820:18823   */\n      0x00\n        /* \"#utility.yul\":18841:18908   */\n      tag_555\n        /* \"#utility.yul\":18905:18907   */\n      0x1a\n        /* \"#utility.yul\":18900:18903   */\n      dup4\n        /* \"#utility.yul\":18841:18908   */\n      tag_339\n      jump\t// in\n    tag_555:\n        /* \"#utility.yul\":18834:18908   */\n      swap2\n      pop\n        /* \"#utility.yul\":18917:19010   */\n      tag_556\n        /* \"#utility.yul\":19006:19009   */\n      dup3\n        /* \"#utility.yul\":18917:19010   */\n      tag_365\n      jump\t// in\n    tag_556:\n        /* \"#utility.yul\":19035:19037   */\n      0x20\n        /* \"#utility.yul\":19030:19033   */\n      dup3\n        /* \"#utility.yul\":19026:19038   */\n      add\n        /* \"#utility.yul\":19019:19038   */\n      swap1\n      pop\n        /* \"#utility.yul\":18678:19044   */\n      swap2\n      swap1\n      pop\n      jump\t// out\n        /* \"#utility.yul\":19050:19469   */\n    tag_170:\n        /* \"#utility.yul\":19216:19220   */\n      0x00\n        /* \"#utility.yul\":19254:19256   */\n      0x20\n        /* \"#utility.yul\":19243:19252   */\n      dup3\n        /* \"#utility.yul\":19239:19257   */\n      add\n        /* \"#utility.yul\":19231:19257   */\n      swap1\n      pop\n        /* \"#utility.yul\":19303:19312   */\n      dup2\n        /* \"#utility.yul\":19297:19301   */\n      dup2\n        /* \"#utility.yul\":19293:19313   */\n      sub\n        /* \"#utility.yul\":19289:19290   */\n      0x00\n        /* \"#utility.yul\":19278:19287   */\n      dup4\n        /* \"#utility.yul\":19274:19291   */\n      add\n        /* \"#utility.yul\":19267:19314   */\n      mstore\n        /* \"#utility.yul\":19331:19462   */\n      tag_558\n        /* \"#utility.yul\":19457:19461   */\n      dup2\n        /* \"#utility.yul\":19331:19462   */\n      tag_366\n      jump\t// in\n    tag_558:\n        /* \"#utility.yul\":19323:19462   */\n      swap1\n      pop\n        /* \"#utility.yul\":19050:19469   */\n      swap2\n      swap1\n      pop\n      jump\t// out\n        /* \"#utility.yul\":19475:19653   */\n    tag_367:\n        /* \"#utility.yul\":19615:19645   */\n      0x43616e64696461746520696e646578206f7574206f662072616e676500000000\n        /* \"#utility.yul\":19611:19612   */\n      0x00\n        /* \"#utility.yul\":19603:19609   */\n      dup3\n        /* \"#utility.yul\":19599:19613   */\n      add\n        /* \"#utility.yul\":19592:19646   */\n      mstore\n        /* \"#utility.yul\":19475:19653   */\n      pop\n      jump\t// out\n        /* \"#utility.yul\":19659:20025   */\n    tag_368:\n        /* \"#utility.yul\":19801:19804   */\n      0x00\n        /* \"#utility.yul\":19822:19889   */\n      tag_561\n        /* \"#utility.yul\":19886:19888   */\n      0x1c\n        /* \"#utility.yul\":19881:19884   */\n      dup4\n        /* \"#utility.yul\":19822:19889   */\n      tag_339\n      jump\t// in\n    tag_561:\n        /* \"#utility.yul\":19815:19889   */\n      swap2\n      pop\n        /* \"#utility.yul\":19898:19991   */\n      tag_562\n        /* \"#utility.yul\":19987:19990   */\n      dup3\n        /* \"#utility.yul\":19898:19991   */\n      tag_367\n      jump\t// in\n    tag_562:\n        /* \"#utility.yul\":20016:20018   */\n      0x20\n        /* \"#utility.yul\":20011:20014   */\n      dup3\n        /* \"#utility.yul\":20007:20019   */\n      add\n        /* \"#utility.yul\":20000:20019   */\n      swap1\n      pop\n        /* \"#utility.yul\":19659:20025   */\n      swap2\n      swap1\n      pop\n      jump\t// out\n        /* \"#utility.yul\":20031:20450   */\n    tag_183:\n        /* \"#utility.yul\":20197:20201   */\n      0x00\n        /* \"#utility.yul\":20235:20237   */\n      0x20\n        /* \"#utility.yul\":20224:20233   */\n      dup3\n        /* \"#utility.yul\":20220:20238   */\n      add\n        /* \"#utility.yul\":20212:20238   */\n      swap1\n      pop\n        /* \"#utility.yul\":20284:20293   */\n      dup2\n        /* \"#utility.yul\":20278:20282   */\n      dup2\n        /* \"#utility.yul\":20274:20294   */\n      sub\n        /* \"#utility.yul\":20270:20271   */\n      0x00\n        /* \"#utility.yul\":20259:20268   */\n      dup4\n        /* \"#utility.yul\":20255:20272   */\n      add\n        /* \"#utility.yul\":20248:20295   */\n      mstore\n        /* \"#utility.yul\":20312:20443   */\n      tag_564\n        /* \"#utility.yul\":20438:20442   */\n      dup2\n        /* \"#utility.yul\":20312:20443   */\n      tag_368\n      jump\t// in\n    tag_564:\n        /* \"#utility.yul\":20304:20443   */\n      swap1\n      pop\n        /* \"#utility.yul\":20031:20450   */\n      swap2\n      swap1\n      pop\n      jump\t// out\n        /* \"#utility.yul\":20456:20731   */\n    tag_199:\n        /* \"#utility.yul\":20588:20591   */\n      0x00\n        /* \"#utility.yul\":20610:20705   */\n      tag_566\n        /* \"#utility.yul\":20701:20704   */\n      dup3\n        /* \"#utility.yul\":20692:20698   */\n      dup5\n        /* \"#utility.yul\":20610:20705   */\n      tag_349\n      jump\t// in\n    tag_566:\n        /* \"#utility.yul\":20603:20705   */\n      swap2\n      pop\n        /* \"#utility.yul\":20722:20725   */\n      dup2\n        /* \"#utility.yul\":20715:20725   */\n      swap1\n      pop\n        /* \"#utility.yul\":20456:20731   */\n      swap3\n      swap2\n      pop\n      pop\n      jump\t// out\n        /* \"#utility.yul\":20737:20878   */\n    tag_369:\n        /* \"#utility.yul\":20786:20790   */\n      0x00\n        /* \"#utility.yul\":20809:20812   */\n      dup2\n        /* \"#utility.yul\":20801:20812   */\n      swap1\n      pop\n        /* \"#utility.yul\":20832:20835   */\n      dup2\n        /* \"#utility.yul\":20829:20830   */\n      0x00\n        /* \"#utility.yul\":20822:20836   */\n      mstore\n        /* \"#utility.yul\":20866:20870   */\n      0x20\n        /* \"#utility.yul\":20863:20864   */\n      0x00\n        /* \"#utility.yul\":20853:20871   */\n      keccak256\n        /* \"#utility.yul\":20845:20871   */\n      swap1\n      pop\n        /* \"#utility.yul\":20737:20878   */\n      swap2\n      swap1\n      pop\n      jump\t// out\n        /* \"#utility.yul\":20884:20977   */\n    tag_370:\n        /* \"#utility.yul\":20921:20927   */\n      0x00\n        /* \"#utility.yul\":20968:20970   */\n      0x20\n        /* \"#utility.yul\":20963:20965   */\n      0x1f\n        /* \"#utility.yul\":20956:20961   */\n      dup4\n        /* \"#utility.yul\":20952:20966   */\n      add\n        /* \"#utility.yul\":20948:20971   */\n      div\n        /* \"#utility.yul\":20938:20971   */\n      swap1\n      pop\n        /* \"#utility.yul\":20884:20977   */\n      swap2\n      swap1\n      pop\n      jump\t// out\n        /* \"#utility.yul\":20983:21090   */\n    tag_371:\n        /* \"#utility.yul\":21027:21035   */\n      0x00\n        /* \"#utility.yul\":21077:21082   */\n      dup3\n        /* \"#utility.yul\":21071:21075   */\n      dup3\n        /* \"#utility.yul\":21067:21083   */\n      shl\n        /* \"#utility.yul\":21046:21083   */\n      swap1\n      pop\n        /* \"#utility.yul\":20983:21090   */\n      swap3\n      swap2\n      pop\n      pop\n      jump\t// out\n        /* \"#utility.yul\":21096:21489   */\n    tag_372:\n        /* \"#utility.yul\":21165:21171   */\n      0x00\n        /* \"#utility.yul\":21215:21216   */\n      0x08\n        /* \"#utility.yul\":21203:21213   */\n      dup4\n        /* \"#utility.yul\":21199:21217   */\n      mul\n        /* \"#utility.yul\":21238:21335   */\n      tag_571\n        /* \"#utility.yul\":21268:21334   */\n      0xffffffffffffffffffffffffffffffffffffffffffffffffffffffffffffffff\n        /* \"#utility.yul\":21257:21266   */\n      dup3\n        /* \"#utility.yul\":21238:21335   */\n      tag_371\n      jump\t// in\n    tag_571:\n        /* \"#utility.yul\":21356:21395   */\n      tag_572\n        /* \"#utility.yul\":21386:21394   */\n      dup7\n        /* \"#utility.yul\":21375:21384   */\n      dup4\n        /* \"#utility.yul\":21356:21395   */\n      tag_371\n      jump\t// in\n    tag_572:\n        /* \"#utility.yul\":21344:21395   */\n      swap6\n      pop\n        /* \"#utility.yul\":21428:21432   */\n      dup1\n        /* \"#utility.yul\":21424:21433   */\n      not\n        /* \"#utility.yul\":21417:21422   */\n      dup5\n        /* \"#utility.yul\":21413:21434   */\n      and\n        /* \"#utility.yul\":21404:21434   */\n      swap4\n      pop\n        /* \"#utility.yul\":21477:21481   */\n      dup1\n        /* \"#utility.yul\":21467:21475   */\n      dup7\n        /* \"#utility.yul\":21463:21482   */\n      and\n        /* \"#utility.yul\":21456:21461   */\n      dup5\n        /* \"#utility.yul\":21453:21483   */\n      or\n        /* \"#utility.yul\":21443:21483   */\n      swap3\n      pop\n        /* \"#utility.yul\":21172:21489   */\n      pop\n      pop\n        /* \"#utility.yul\":21096:21489   */\n      swap4\n      swap3\n      pop\n      pop\n      pop\n      jump\t// out\n        /* \"#utility.yul\":21495:21555   */\n    tag_373:\n        /* \"#utility.yul\":21523:21526   */\n      0x00\n        /* \"#utility.yul\":21544:21549   */\n      dup2\n        /* \"#utility.yul\":21537:21549   */\n      swap1\n      pop\n        /* \"#utility.yul\":21495:21555   */\n      swap2\n      swap1\n      pop\n      jump\t// out\n        /* \"#utility.yul\":21561:21703   */\n    tag_374:\n        /* \"#utility.yul\":21611:21620   */\n      0x00\n        /* \"#utility.yul\":21644:21697   */\n      tag_575\n        /* \"#utility.yul\":21662:21696   */\n      tag_576\n        /* \"#utility.yul\":21671:21695   */\n      tag_577\n        /* \"#utility.yul\":21689:21694   */\n      dup5\n        /* \"#utility.yul\":21671:21695   */\n      tag_341\n      jump\t// in\n    tag_577:\n        /* \"#utility.yul\":21662:21696   */\n      tag_373\n      jump\t// in\n    tag_576:\n        /* \"#utility.yul\":21644:21697   */\n      tag_341\n      jump\t// in\n    tag_575:\n        /* \"#utility.yul\":21631:21697   */\n      swap1\n      pop\n        /* \"#utility.yul\":21561:21703   */\n      swap2\n      swap1\n      pop\n      jump\t// out\n        /* \"#utility.yul\":21709:21784   */\n    tag_375:\n        /* \"#utility.yul\":21752:21755   */\n      0x00\n        /* \"#utility.yul\":21773:21778   */\n      dup2\n        /* \"#utility.yul\":21766:21778   */\n      swap1\n      pop\n        /* \"#utility.yul\":21709:21784   */\n      swap2\n      swap1\n      pop\n      jump\t// out\n        /* \"#utility.yul\":21790:22059   */\n    tag_376:\n        /* \"#utility.yul\":21900:21939   */\n      tag_580\n        /* \"#utility.yul\":21931:21938   */\n      dup4\n        /* \"#utility.yul\":21900:21939   */\n      tag_374\n      jump\t// in\n    tag_580:\n        /* \"#utility.yul\":21961:22052   */\n      tag_581\n        /* \"#utility.yul\":22010:22051   */\n      tag_582\n        /* \"#utility.yul\":22034:22050   */\n      dup3\n        /* \"#utility.yul\":22010:22051   */\n      tag_375\n      jump\t// in\n    tag_582:\n        /* \"#utility.yul\":22002:22008   */\n      dup5\n        /* \"#utility.yul\":21995:21999   */\n      dup5\n        /* \"#utility.yul\":21989:22000   */\n      sload\n        /* \"#utility.yul\":21961:22052   */\n      tag_372\n      jump\t// in\n    tag_581:\n        /* \"#utility.yul\":21955:21959   */\n      dup3\n        /* \"#utility.yul\":21948:22053   */\n      sstore\n        /* \"#utility.yul\":21866:22059   */\n      pop\n        /* \"#utility.yul\":21790:22059   */\n      pop\n      pop\n      pop\n      jump\t// out\n        /* \"#utility.yul\":22065:22138   */\n    tag_377:\n        /* \"#utility.yul\":22110:22113   */\n      0x00\n        /* \"#utility.yul\":22065:22138   */\n      swap1\n      jump\t// out\n        /* \"#utility.yul\":22144:22333   */\n    tag_378:\n        /* \"#utility.yul\":22221:22253   */\n      tag_585\n      tag_377\n      jump\t// in\n    tag_585:\n        /* \"#utility.yul\":22262:22327   */\n      tag_586\n        /* \"#utility.yul\":22320:22326   */\n      dup2\n        /* \"#utility.yul\":22312:22318   */\n      dup5\n        /* \"#utility.yul\":22306:22310   */\n      dup5\n        /* \"#utility.yul\":22262:22327   */\n      tag_376\n      jump\t// in\n    tag_586:\n        /* \"#utility.yul\":22197:22333   */\n      pop\n        /* \"#utility.yul\":22144:22333   */\n      pop\n      pop\n      jump\t// out\n        /* \"#utility.yul\":22339:22525   */\n    tag_379:\n        /* \"#utility.yul\":22399:22519   */\n    tag_588:\n        /* \"#utility.yul\":22416:22419   */\n      dup2\n        /* \"#utility.yul\":22409:22414   */\n      dup2\n        /* \"#utility.yul\":22406:22420   */\n      lt\n        /* \"#utility.yul\":22399:22519   */\n      iszero\n      tag_590\n      jumpi\n        /* \"#utility.yul\":22470:22509   */\n      tag_591\n        /* \"#utility.yul\":22507:22508   */\n      0x00\n        /* \"#utility.yul\":22500:22505   */\n      dup3\n        /* \"#utility.yul\":22470:22509   */\n      tag_378\n      jump\t// in\n    tag_591:\n        /* \"#utility.yul\":22443:22444   */\n      0x01\n        /* \"#utility.yul\":22436:22441   */\n      dup2\n        /* \"#utility.yul\":22432:22445   */\n      add\n        /* \"#utility.yul\":22423:22445   */\n      swap1\n      pop\n        /* \"#utility.yul\":22399:22519   */\n      jump(tag_588)\n    tag_590:\n        /* \"#utility.yul\":22339:22525   */\n      pop\n      pop\n      jump\t// out\n        /* \"#utility.yul\":22531:23074   */\n    tag_380:\n        /* \"#utility.yul\":22632:22634   */\n      0x1f\n        /* \"#utility.yul\":22627:22630   */\n      dup3\n        /* \"#utility.yul\":22624:22635   */\n      gt\n        /* \"#utility.yul\":22621:23067   */\n      iszero\n      tag_593\n      jumpi\n        /* \"#utility.yul\":22666:22704   */\n      tag_594\n        /* \"#utility.yul\":22698:22703   */\n      dup2\n        /* \"#utility.yul\":22666:22704   */\n      tag_369\n      jump\t// in\n    tag_594:\n        /* \"#utility.yul\":22750:22779   */\n      tag_595\n        /* \"#utility.yul\":22768:22778   */\n      dup5\n        /* \"#utility.yul\":22750:22779   */\n      tag_370\n      jump\t// in\n    tag_595:\n        /* \"#utility.yul\":22740:22748   */\n      dup2\n        /* \"#utility.yul\":22736:22780   */\n      add\n        /* \"#utility.yul\":22933:22935   */\n      0x20\n        /* \"#utility.yul\":22921:22931   */\n      dup6\n        /* \"#utility.yul\":22918:22936   */\n      lt\n        /* \"#utility.yul\":22915:22964   */\n      iszero\n      tag_596\n      jumpi\n        /* \"#utility.yul\":22954:22962   */\n      dup2\n        /* \"#utility.yul\":22939:22962   */\n      swap1\n      pop\n        /* \"#utility.yul\":22915:22964   */\n    tag_596:\n        /* \"#utility.yul\":22977:23057   */\n      tag_597\n        /* \"#utility.yul\":23033:23055   */\n      tag_598\n        /* \"#utility.yul\":23051:23054   */\n      dup6\n        /* \"#utility.yul\":23033:23055   */\n      tag_370\n      jump\t// in\n    tag_598:\n        /* \"#utility.yul\":23023:23031   */\n      dup4\n        /* \"#utility.yul\":23019:23056   */\n      add\n        /* \"#utility.yul\":23006:23017   */\n      dup3\n        /* \"#utility.yul\":22977:23057   */\n      tag_379\n      jump\t// in\n    tag_597:\n        /* \"#utility.yul\":22636:23067   */\n      pop\n      pop\n        /* \"#utility.yul\":22621:23067   */\n    tag_593:\n        /* \"#utility.yul\":22531:23074   */\n      pop\n      pop\n      pop\n      jump\t// out\n        /* \"#utility.yul\":23080:23197   */\n    tag_381:\n        /* \"#utility.yul\":23134:23142   */\n      0x00\n        /* \"#utility.yul\":23184:23189   */\n      dup3\n        /* \"#utility.yul\":23178:23182   */\n      dup3\n        /* \"#utility.yul\":23174:23190   */\n      shr\n        /* \"#utility.yul\":23153:23190   */\n      swap1\n      pop\n        /* \"#utility.yul\":23080:23197   */\n      swap3\n      swap2\n      pop\n      pop\n      jump\t// out\n        /* \"#utility.yul\":23203:23372   */\n    tag_382:\n        /* \"#utility.yul\":23247:23253   */\n      0x00\n        /* \"#utility.yul\":23280:23331   */\n      tag_601\n        /* \"#utility.yul\":23328:23329   */\n      0x00\n        /* \"#utility.yul\":23324:23330   */\n      not\n        /* \"#utility.yul\":23316:23321   */\n      dup5\n        /* \"#utility.yul\":23313:23314   */\n      0x08\n        /* \"#utility.yul\":23309:23322   */\n      mul\n        /* \"#utility.yul\":23280:23331   */\n      tag_381\n      jump\t// in\n    tag_601:\n        /* \"#utility.yul\":23276:23332   */\n      not\n        /* \"#utility.yul\":23361:23365   */\n      dup1\n        /* \"#utility.yul\":23355:23359   */\n      dup4\n        /* \"#utility.yul\":23351:23366   */\n      and\n        /* \"#utility.yul\":23341:23366   */\n      swap2\n      pop\n        /* \"#utility.yul\":23254:23372   */\n      pop\n        /* \"#utility.yul\":23203:23372   */\n      swap3\n      swap2\n      pop\n      pop\n      jump\t// out\n        /* \"#utility.yul\":23377:23672   */\n    tag_383:\n        /* \"#utility.yul\":23453:23457   */\n      0x00\n        /* \"#utility.yul\":23599:23628   */\n      tag_603\n        /* \"#utility.yul\":23624:23627   */\n      dup4\n        /* \"#utility.yul\":23618:23622   */\n      dup4\n        /* \"#utility.yul\":23599:23628   */\n      tag_382\n      jump\t// in\n    tag_603:\n        /* \"#utility.yul\":23591:23628   */\n      swap2\n      pop\n        /* \"#utility.yul\":23661:23664   */\n      dup3\n        /* \"#utility.yul\":23658:23659   */\n      0x02\n        /* \"#utility.yul\":23654:23665   */\n      mul\n        /* \"#utility.yul\":23648:23652   */\n      dup3\n        /* \"#utility.yul\":23645:23666   */\n      or\n        /* \"#utility.yul\":23637:23666   */\n      swap1\n      pop\n        /* \"#utility.yul\":23377:23672   */\n      swap3\n      swap2\n      pop\n      pop\n      jump\t// out\n        /* \"#utility.yul\":23677:25072   */\n    tag_205:\n        /* \"#utility.yul\":23794:23831   */\n      tag_605\n        /* \"#utility.yul\":23827:23830   */\n      dup3\n        /* \"#utility.yul\":23794:23831   */\n      tag_317\n      jump\t// in\n    tag_605:\n        /* \"#utility.yul\":23896:23914   */\n      0xffffffffffffffff\n        /* \"#utility.yul\":23888:23894   */\n      dup2\n        /* \"#utility.yul\":23885:23915   */\n      gt\n        /* \"#utility.yul\":23882:23938   */\n      iszero\n      tag_606\n      jumpi\n        /* \"#utility.yul\":23918:23936   */\n      tag_607\n      tag_51\n      jump\t// in\n    tag_607:\n        /* \"#utility.yul\":23882:23938   */\n    tag_606:\n        /* \"#utility.yul\":23962:24000   */\n      tag_608\n        /* \"#utility.yul\":23994:23998   */\n      dup3\n        /* \"#utility.yul\":23988:23999   */\n      sload\n        /* \"#utility.yul\":23962:24000   */\n      tag_62\n      jump\t// in\n    tag_608:\n        /* \"#utility.yul\":24047:24114   */\n      tag_609\n        /* \"#utility.yul\":24107:24113   */\n      dup3\n        /* \"#utility.yul\":24099:24105   */\n      dup3\n        /* \"#utility.yul\":24093:24097   */\n      dup6\n        /* \"#utility.yul\":24047:24114   */\n      tag_380\n      jump\t// in\n    tag_609:\n        /* \"#utility.yul\":24141:24142   */\n      0x00\n        /* \"#utility.yul\":24165:24169   */\n      0x20\n        /* \"#utility.yul\":24152:24169   */\n      swap1\n      pop\n        /* \"#utility.yul\":24197:24199   */\n      0x1f\n        /* \"#utility.yul\":24189:24195   */\n      dup4\n        /* \"#utility.yul\":24186:24200   */\n      gt\n        /* \"#utility.yul\":24214:24215   */\n      0x01\n        /* \"#utility.yul\":24209:24827   */\n      dup2\n      eq\n      tag_611\n      jumpi\n        /* \"#utility.yul\":24871:24872   */\n      0x00\n        /* \"#utility.yul\":24888:24894   */\n      dup5\n        /* \"#utility.yul\":24885:24962   */\n      iszero\n      tag_612\n      jumpi\n        /* \"#utility.yul\":24937:24946   */\n      dup3\n        /* \"#utility.yul\":24932:24935   */\n      dup8\n        /* \"#utility.yul\":24928:24947   */\n      add\n        /* \"#utility.yul\":24922:24948   */\n      mload\n        /* \"#utility.yul\":24913:24948   */\n      swap1\n      pop\n        /* \"#utility.yul\":24885:24962   */\n    tag_612:\n        /* \"#utility.yul\":24988:25055   */\n      tag_613\n        /* \"#utility.yul\":25048:25054   */\n      dup6\n        /* \"#utility.yul\":25041:25046   */\n      dup3\n        /* \"#utility.yul\":24988:25055   */\n      tag_383\n      jump\t// in\n    tag_613:\n        /* \"#utility.yul\":24982:24986   */\n      dup7\n        /* \"#utility.yul\":24975:25056   */\n      sstore\n        /* \"#utility.yul\":24844:25066   */\n      pop\n        /* \"#utility.yul\":24179:25066   */\n      jump(tag_610)\n        /* \"#utility.yul\":24209:24827   */\n    tag_611:\n        /* \"#utility.yul\":24261:24265   */\n      0x1f\n        /* \"#utility.yul\":24257:24266   */\n      not\n        /* \"#utility.yul\":24249:24255   */\n      dup5\n        /* \"#utility.yul\":24245:24267   */\n      and\n        /* \"#utility.yul\":24295:24332   */\n      tag_614\n        /* \"#utility.yul\":24327:24331   */\n      dup7\n        /* \"#utility.yul\":24295:24332   */\n      tag_369\n      jump\t// in\n    tag_614:\n        /* \"#utility.yul\":24354:24355   */\n      0x00\n        /* \"#utility.yul\":24368:24576   */\n    tag_615:\n        /* \"#utility.yul\":24382:24389   */\n      dup3\n        /* \"#utility.yul\":24379:24380   */\n      dup2\n        /* \"#utility.yul\":24376:24390   */\n      lt\n        /* \"#utility.yul\":24368:24576   */\n      iszero\n      tag_617\n      jumpi\n        /* \"#utility.yul\":24461:24470   */\n      dup5\n        /* \"#utility.yul\":24456:24459   */\n      dup10\n        /* \"#utility.yul\":24452:24471   */\n      add\n        /* \"#utility.yul\":24446:24472   */\n      mload\n        /* \"#utility.yul\":24438:24444   */\n      dup3\n        /* \"#utility.yul\":24431:24473   */\n      sstore\n        /* \"#utility.yul\":24512:24513   */\n      0x01\n        /* \"#utility.yul\":24504:24510   */\n      dup3\n        /* \"#utility.yul\":24500:24514   */\n      add\n        /* \"#utility.yul\":24490:24514   */\n      swap2\n      pop\n        /* \"#utility.yul\":24559:24561   */\n      0x20\n        /* \"#utility.yul\":24548:24557   */\n      dup6\n        /* \"#utility.yul\":24544:24562   */\n      add\n        /* \"#utility.yul\":24531:24562   */\n      swap5\n      pop\n        /* \"#utility.yul\":24405:24409   */\n      0x20\n        /* \"#utility.yul\":24402:24403   */\n      dup2\n        /* \"#utility.yul\":24398:24410   */\n      add\n        /* \"#utility.yul\":24393:24410   */\n      swap1\n      pop\n        /* \"#utility.yul\":24368:24576   */\n      jump(tag_615)\n    tag_617:\n        /* \"#utility.yul\":24604:24610   */\n      dup7\n        /* \"#utility.yul\":24595:24602   */\n      dup4\n        /* \"#utility.yul\":24592:24611   */\n      lt\n        /* \"#utility.yul\":24589:24768   */\n      iszero\n      tag_618\n      jumpi\n        /* \"#utility.yul\":24662:24671   */\n      dup5\n        /* \"#utility.yul\":24657:24660   */\n      dup10\n        /* \"#utility.yul\":24653:24672   */\n      add\n        /* \"#utility.yul\":24647:24673   */\n      mload\n        /* \"#utility.yul\":24705:24753   */\n      tag_619\n        /* \"#utility.yul\":24747:24751   */\n      0x1f\n        /* \"#utility.yul\":24739:24745   */\n      dup10\n        /* \"#utility.yul\":24735:24752   */\n      and\n        /* \"#utility.yul\":24724:24733   */\n      dup3\n        /* \"#utility.yul\":24705:24753   */\n      tag_382\n      jump\t// in\n    tag_619:\n        /* \"#utility.yul\":24697:24703   */\n      dup4\n        /* \"#utility.yul\":24690:24754   */\n      sstore\n        /* \"#utility.yul\":24612:24768   */\n      pop\n        /* \"#utility.yul\":24589:24768   */\n    tag_618:\n        /* \"#utility.yul\":24814:24815   */\n      0x01\n        /* \"#utility.yul\":24810:24811   */\n      0x02\n        /* \"#utility.yul\":24802:24808   */\n      dup9\n        /* \"#utility.yul\":24798:24812   */\n      mul\n        /* \"#utility.yul\":24794:24816   */\n      add\n        /* \"#utility.yul\":24788:24792   */\n      dup9\n        /* \"#utility.yul\":24781:24817   */\n      sstore\n        /* \"#utility.yul\":24216:24827   */\n      pop\n      pop\n      pop\n        /* \"#utility.yul\":24179:25066   */\n    tag_610:\n      pop\n        /* \"#utility.yul\":23769:25072   */\n      pop\n      pop\n      pop\n        /* \"#utility.yul\":23677:25072   */\n      pop\n      pop\n      jump\t// out\n        /* \"#utility.yul\":25078:25248   */\n    tag_384:\n        /* \"#utility.yul\":25218:25240   */\n      0x496e76616c696420696e707574206c656e677468000000000000000000000000\n        /* \"#utility.yul\":25214:25215   */\n      0x00\n        /* \"#utility.yul\":25206:25212   */\n      dup3\n        /* \"#utility.yul\":25202:25216   */\n      add\n        /* \"#utility.yul\":25195:25241   */\n      mstore\n        /* \"#utility.yul\":25078:25248   */\n      pop\n      jump\t// out\n        /* \"#utility.yul\":25254:25620   */\n    tag_385:\n        /* \"#utility.yul\":25396:25399   */\n      0x00\n        /* \"#utility.yul\":25417:25484   */\n      tag_622\n        /* \"#utility.yul\":25481:25483   */\n      0x14\n        /* \"#utility.yul\":25476:25479   */\n      dup4\n        /* \"#utility.yul\":25417:25484   */\n      tag_339\n      jump\t// in\n    tag_622:\n        /* \"#utility.yul\":25410:25484   */\n      swap2\n      pop\n        /* \"#utility.yul\":25493:25586   */\n      tag_623\n        /* \"#utility.yul\":25582:25585   */\n      dup3\n        /* \"#utility.yul\":25493:25586   */\n      tag_384\n      jump\t// in\n    tag_623:\n        /* \"#utility.yul\":25611:25613   */\n      0x20\n        /* \"#utility.yul\":25606:25609   */\n      dup3\n        /* \"#utility.yul\":25602:25614   */\n      add\n        /* \"#utility.yul\":25595:25614   */\n      swap1\n      pop\n        /* \"#utility.yul\":25254:25620   */\n      swap2\n      swap1\n      pop\n      jump\t// out\n        /* \"#utility.yul\":25626:26045   */\n    tag_211:\n        /* \"#utility.yul\":25792:25796   */\n      0x00\n        /* \"#utility.yul\":25830:25832   */\n      0x20\n        /* \"#utility.yul\":25819:25828   */\n      dup3\n        /* \"#utility.yul\":25815:25833   */\n      add\n        /* \"#utility.yul\":25807:25833   */\n      swap1\n      pop\n        /* \"#utility.yul\":25879:25888   */\n      dup2\n        /* \"#utility.yul\":25873:25877   */\n      dup2\n        /* \"#utility.yul\":25869:25889   */\n      sub\n        /* \"#utility.yul\":25865:25866   */\n      0x00\n        /* \"#utility.yul\":25854:25863   */\n      dup4\n        /* \"#utility.yul\":25850:25867   */\n      add\n        /* \"#utility.yul\":25843:25890   */\n      mstore\n        /* \"#utility.yul\":25907:26038   */\n      tag_625\n        /* \"#utility.yul\":26033:26037   */\n      dup2\n        /* \"#utility.yul\":25907:26038   */\n      tag_385\n      jump\t// in\n    tag_625:\n        /* \"#utility.yul\":25899:26038   */\n      swap1\n      pop\n        /* \"#utility.yul\":25626:26045   */\n      swap2\n      swap1\n      pop\n      jump\t// out\n        /* \"#utility.yul\":26051:26137   */\n    tag_386:\n        /* \"#utility.yul\":26086:26093   */\n      0x00\n        /* \"#utility.yul\":26126:26130   */\n      0xff\n        /* \"#utility.yul\":26119:26124   */\n      dup3\n        /* \"#utility.yul\":26115:26131   */\n      and\n        /* \"#utility.yul\":26104:26131   */\n      swap1\n      pop\n        /* \"#utility.yul\":26051:26137   */\n      swap2\n      swap1\n      pop\n      jump\t// out\n        /* \"#utility.yul\":26143:26334   */\n    tag_220:\n        /* \"#utility.yul\":26181:26185   */\n      0x00\n        /* \"#utility.yul\":26201:26219   */\n      tag_628\n        /* \"#utility.yul\":26217:26218   */\n      dup3\n        /* \"#utility.yul\":26201:26219   */\n      tag_386\n      jump\t// in\n    tag_628:\n        /* \"#utility.yul\":26196:26219   */\n      swap2\n      pop\n        /* \"#utility.yul\":26233:26251   */\n      tag_629\n        /* \"#utility.yul\":26249:26250   */\n      dup4\n        /* \"#utility.yul\":26233:26251   */\n      tag_386\n      jump\t// in\n    tag_629:\n        /* \"#utility.yul\":26228:26251   */\n      swap3\n      pop\n        /* \"#utility.yul\":26275:26276   */\n      dup3\n        /* \"#utility.yul\":26272:26273   */\n      dup3\n        /* \"#utility.yul\":26268:26277   */\n      sub\n        /* \"#utility.yul\":26260:26277   */\n      swap1\n      pop\n        /* \"#utility.yul\":26299:26303   */\n      0xff\n        /* \"#utility.yul\":26293:26297   */\n      dup2\n        /* \"#utility.yul\":26290:26304   */\n      gt\n        /* \"#utility.yul\":26287:26327   */\n      iszero\n      tag_630\n      jumpi\n        /* \"#utility.yul\":26307:26325   */\n      tag_631\n      tag_354\n      jump\t// in\n    tag_631:\n        /* \"#utility.yul\":26287:26327   */\n    tag_630:\n        /* \"#utility.yul\":26143:26334   */\n      swap3\n      swap2\n      pop\n      pop\n      jump\t// out\n        /* \"#utility.yul\":26340:26516   */\n    tag_387:\n        /* \"#utility.yul\":26480:26508   */\n      0x496e76616c69642063686172616374657220696e20696e707574000000000000\n        /* \"#utility.yul\":26476:26477   */\n      0x00\n        /* \"#utility.yul\":26468:26474   */\n      dup3\n        /* \"#utility.yul\":26464:26478   */\n      add\n        /* \"#utility.yul\":26457:26509   */\n      mstore\n        /* \"#utility.yul\":26340:26516   */\n      pop\n      jump\t// out\n        /* \"#utility.yul\":26522:26888   */\n    tag_388:\n        /* \"#utility.yul\":26664:26667   */\n      0x00\n        /* \"#utility.yul\":26685:26752   */\n      tag_634\n        /* \"#utility.yul\":26749:26751   */\n      0x1a\n        /* \"#utility.yul\":26744:26747   */\n      dup4\n        /* \"#utility.yul\":26685:26752   */\n      tag_339\n      jump\t// in\n    tag_634:\n        /* \"#utility.yul\":26678:26752   */\n      swap2\n      pop\n        /* \"#utility.yul\":26761:26854   */\n      tag_635\n        /* \"#utility.yul\":26850:26853   */\n      dup3\n        /* \"#utility.yul\":26761:26854   */\n      tag_387\n      jump\t// in\n    tag_635:\n        /* \"#utility.yul\":26879:26881   */\n      0x20\n        /* \"#utility.yul\":26874:26877   */\n      dup3\n        /* \"#utility.yul\":26870:26882   */\n      add\n        /* \"#utility.yul\":26863:26882   */\n      swap1\n      pop\n        /* \"#utility.yul\":26522:26888   */\n      swap2\n      swap1\n      pop\n      jump\t// out\n        /* \"#utility.yul\":26894:27313   */\n    tag_231:\n        /* \"#utility.yul\":27060:27064   */\n      0x00\n        /* \"#utility.yul\":27098:27100   */\n      0x20\n        /* \"#utility.yul\":27087:27096   */\n      dup3\n        /* \"#utility.yul\":27083:27101   */\n      add\n        /* \"#utility.yul\":27075:27101   */\n      swap1\n      pop\n        /* \"#utility.yul\":27147:27156   */\n      dup2\n        /* \"#utility.yul\":27141:27145   */\n      dup2\n        /* \"#utility.yul\":27137:27157   */\n      sub\n        /* \"#utility.yul\":27133:27134   */\n      0x00\n        /* \"#utility.yul\":27122:27131   */\n      dup4\n        /* \"#utility.yul\":27118:27135   */\n      add\n        /* \"#utility.yul\":27111:27158   */\n      mstore\n        /* \"#utility.yul\":27175:27306   */\n      tag_637\n        /* \"#utility.yul\":27301:27305   */\n      dup2\n        /* \"#utility.yul\":27175:27306   */\n      tag_388\n      jump\t// in\n    tag_637:\n        /* \"#utility.yul\":27167:27306   */\n      swap1\n      pop\n        /* \"#utility.yul\":26894:27313   */\n      swap2\n      swap1\n      pop\n      jump\t// out\n        /* \"#utility.yul\":27319:27729   */\n    tag_233:\n        /* \"#utility.yul\":27359:27366   */\n      0x00\n        /* \"#utility.yul\":27382:27402   */\n      tag_639\n        /* \"#utility.yul\":27400:27401   */\n      dup3\n        /* \"#utility.yul\":27382:27402   */\n      tag_341\n      jump\t// in\n    tag_639:\n        /* \"#utility.yul\":27377:27402   */\n      swap2\n      pop\n        /* \"#utility.yul\":27416:27436   */\n      tag_640\n        /* \"#utility.yul\":27434:27435   */\n      dup4\n        /* \"#utility.yul\":27416:27436   */\n      tag_341\n      jump\t// in\n    tag_640:\n        /* \"#utility.yul\":27411:27436   */\n      swap3\n      pop\n        /* \"#utility.yul\":27471:27472   */\n      dup3\n        /* \"#utility.yul\":27468:27469   */\n      dup3\n        /* \"#utility.yul\":27464:27473   */\n      mul\n        /* \"#utility.yul\":27493:27523   */\n      tag_641\n        /* \"#utility.yul\":27511:27522   */\n      dup2\n        /* \"#utility.yul\":27493:27523   */\n      tag_341\n      jump\t// in\n    tag_641:\n        /* \"#utility.yul\":27482:27523   */\n      swap2\n      pop\n        /* \"#utility.yul\":27672:27673   */\n      dup3\n        /* \"#utility.yul\":27663:27670   */\n      dup3\n        /* \"#utility.yul\":27659:27674   */\n      div\n        /* \"#utility.yul\":27656:27657   */\n      dup5\n        /* \"#utility.yul\":27653:27675   */\n      eq\n        /* \"#utility.yul\":27633:27634   */\n      dup4\n        /* \"#utility.yul\":27626:27635   */\n      iszero\n        /* \"#utility.yul\":27606:27689   */\n      or\n        /* \"#utility.yul\":27583:27722   */\n      tag_642\n      jumpi\n        /* \"#utility.yul\":27702:27720   */\n      tag_643\n      tag_354\n      jump\t// in\n    tag_643:\n        /* \"#utility.yul\":27583:27722   */\n    tag_642:\n        /* \"#utility.yul\":27367:27729   */\n      pop\n        /* \"#utility.yul\":27319:27729   */\n      swap3\n      swap2\n      pop\n      pop\n      jump\t// out\n        /* \"#utility.yul\":27735:27926   */\n    tag_235:\n        /* \"#utility.yul\":27775:27778   */\n      0x00\n        /* \"#utility.yul\":27794:27814   */\n      tag_645\n        /* \"#utility.yul\":27812:27813   */\n      dup3\n        /* \"#utility.yul\":27794:27814   */\n      tag_341\n      jump\t// in\n    tag_645:\n        /* \"#utility.yul\":27789:27814   */\n      swap2\n      pop\n        /* \"#utility.yul\":27828:27848   */\n      tag_646\n        /* \"#utility.yul\":27846:27847   */\n      dup4\n        /* \"#utility.yul\":27828:27848   */\n      tag_341\n      jump\t// in\n    tag_646:\n        /* \"#utility.yul\":27823:27848   */\n      swap3\n      pop\n        /* \"#utility.yul\":27871:27872   */\n      dup3\n        /* \"#utility.yul\":27868:27869   */\n      dup3\n        /* \"#utility.yul\":27864:27873   */\n      add\n        /* \"#utility.yul\":27857:27873   */\n      swap1\n      pop\n        /* \"#utility.yul\":27892:27895   */\n      dup1\n        /* \"#utility.yul\":27889:27890   */\n      dup3\n        /* \"#utility.yul\":27886:27896   */\n      gt\n        /* \"#utility.yul\":27883:27919   */\n      iszero\n      tag_647\n      jumpi\n        /* \"#utility.yul\":27899:27917   */\n      tag_648\n      tag_354\n      jump\t// in\n    tag_648:\n        /* \"#utility.yul\":27883:27919   */\n    tag_647:\n        /* \"#utility.yul\":27735:27926   */\n      swap3\n      swap2\n      pop\n      pop\n      jump\t// out\n        /* \"#utility.yul\":27932:28104   */\n    tag_389:\n        /* \"#utility.yul\":28072:28096   */\n      0x596f75206861766520616c726561647920766f74656400000000000000000000\n        /* \"#utility.yul\":28068:28069   */\n      0x00\n        /* \"#utility.yul\":28060:28066   */\n      dup3\n        /* \"#utility.yul\":28056:28070   */\n      add\n        /* \"#utility.yul\":28049:28097   */\n      mstore\n        /* \"#utility.yul\":27932:28104   */\n      pop\n      jump\t// out\n        /* \"#utility.yul\":28110:28476   */\n    tag_390:\n        /* \"#utility.yul\":28252:28255   */\n      0x00\n        /* \"#utility.yul\":28273:28340   */\n      tag_651\n        /* \"#utility.yul\":28337:28339   */\n      0x16\n        /* \"#utility.yul\":28332:28335   */\n      dup4\n        /* \"#utility.yul\":28273:28340   */\n      tag_339\n      jump\t// in\n    tag_651:\n        /* \"#utility.yul\":28266:28340   */\n      swap2\n      pop\n        /* \"#utility.yul\":28349:28442   */\n      tag_652\n        /* \"#utility.yul\":28438:28441   */\n      dup3\n        /* \"#utility.yul\":28349:28442   */\n      tag_389\n      jump\t// in\n    tag_652:\n        /* \"#utility.yul\":28467:28469   */\n      0x20\n        /* \"#utility.yul\":28462:28465   */\n      dup3\n        /* \"#utility.yul\":28458:28470   */\n      add\n        /* \"#utility.yul\":28451:28470   */\n      swap1\n      pop\n        /* \"#utility.yul\":28110:28476   */\n      swap2\n      swap1\n      pop\n      jump\t// out\n        /* \"#utility.yul\":28482:28901   */\n    tag_245:\n        /* \"#utility.yul\":28648:28652   */\n      0x00\n        /* \"#utility.yul\":28686:28688   */\n      0x20\n        /* \"#utility.yul\":28675:28684   */\n      dup3\n        /* \"#utility.yul\":28671:28689   */\n      add\n        /* \"#utility.yul\":28663:28689   */\n      swap1\n      pop\n        /* \"#utility.yul\":28735:28744   */\n      dup2\n        /* \"#utility.yul\":28729:28733   */\n      dup2\n        /* \"#utility.yul\":28725:28745   */\n      sub\n        /* \"#utility.yul\":28721:28722   */\n      0x00\n        /* \"#utility.yul\":28710:28719   */\n      dup4\n        /* \"#utility.yul\":28706:28723   */\n      add\n        /* \"#utility.yul\":28699:28746   */\n      mstore\n        /* \"#utility.yul\":28763:28894   */\n      tag_654\n        /* \"#utility.yul\":28889:28893   */\n      dup2\n        /* \"#utility.yul\":28763:28894   */\n      tag_390\n      jump\t// in\n    tag_654:\n        /* \"#utility.yul\":28755:28894   */\n      swap1\n      pop\n        /* \"#utility.yul\":28482:28901   */\n      swap2\n      swap1\n      pop\n      jump\t// out\n        /* \"#utility.yul\":28907:29085   */\n    tag_391:\n        /* \"#utility.yul\":29047:29077   */\n      0x596f7520617265206e6f74207265676973746572656420766f74657200000000\n        /* \"#utility.yul\":29043:29044   */\n      0x00\n        /* \"#utility.yul\":29035:29041   */\n      dup3\n        /* \"#utility.yul\":29031:29045   */\n      add\n        /* \"#utility.yul\":29024:29078   */\n      mstore\n        /* \"#utility.yul\":28907:29085   */\n      pop\n      jump\t// out\n        /* \"#utility.yul\":29091:29457   */\n    tag_392:\n        /* \"#utility.yul\":29233:29236   */\n      0x00\n        /* \"#utility.yul\":29254:29321   */\n      tag_657\n        /* \"#utility.yul\":29318:29320   */\n      0x1c\n        /* \"#utility.yul\":29313:29316   */\n      dup4\n        /* \"#utility.yul\":29254:29321   */\n      tag_339\n      jump\t// in\n    tag_657:\n        /* \"#utility.yul\":29247:29321   */\n      swap2\n      pop\n        /* \"#utility.yul\":29330:29423   */\n      tag_658\n        /* \"#utility.yul\":29419:29422   */\n      dup3\n        /* \"#utility.yul\":29330:29423   */\n      tag_391\n      jump\t// in\n    tag_658:\n        /* \"#utility.yul\":29448:29450   */\n      0x20\n        /* \"#utility.yul\":29443:29446   */\n      dup3\n        /* \"#utility.yul\":29439:29451   */\n      add\n        /* \"#utility.yul\":29432:29451   */\n      swap1\n      pop\n        /* \"#utility.yul\":29091:29457   */\n      swap2\n      swap1\n      pop\n      jump\t// out\n        /* \"#utility.yul\":29463:29882   */\n    tag_248:\n        /* \"#utility.yul\":29629:29633   */\n      0x00\n        /* \"#utility.yul\":29667:29669   */\n      0x20\n        /* \"#utility.yul\":29656:29665   */\n      dup3\n        /* \"#utility.yul\":29652:29670   */\n      add\n        /* \"#utility.yul\":29644:29670   */\n      swap1\n      pop\n        /* \"#utility.yul\":29716:29725   */\n      dup2\n        /* \"#utility.yul\":29710:29714   */\n      dup2\n        /* \"#utility.yul\":29706:29726   */\n      sub\n        /* \"#utility.yul\":29702:29703   */\n      0x00\n        /* \"#utility.yul\":29691:29700   */\n      dup4\n        /* \"#utility.yul\":29687:29704   */\n      add\n        /* \"#utility.yul\":29680:29727   */\n      mstore\n        /* \"#utility.yul\":29744:29875   */\n      tag_660\n        /* \"#utility.yul\":29870:29874   */\n      dup2\n        /* \"#utility.yul\":29744:29875   */\n      tag_392\n      jump\t// in\n    tag_660:\n        /* \"#utility.yul\":29736:29875   */\n      swap1\n      pop\n        /* \"#utility.yul\":29463:29882   */\n      swap2\n      swap1\n      pop\n      jump\t// out\n        /* \"#utility.yul\":29888:30065   */\n    tag_393:\n        /* \"#utility.yul\":30028:30057   */\n      0x43616e646964617465206973206e6f7420726567697374657265640000000000\n        /* \"#utility.yul\":30024:30025   */\n      0x00\n        /* \"#utility.yul\":30016:30022   */\n      dup3\n        /* \"#utility.yul\":30012:30026   */\n      add\n        /* \"#utility.yul\":30005:30058   */\n      mstore\n        /* \"#utility.yul\":29888:30065   */\n      pop\n      jump\t// out\n        /* \"#utility.yul\":30071:30437   */\n    tag_394:\n        /* \"#utility.yul\":30213:30216   */\n      0x00\n        /* \"#utility.yul\":30234:30301   */\n      tag_663\n        /* \"#utility.yul\":30298:30300   */\n      0x1b\n        /* \"#utility.yul\":30293:30296   */\n      dup4\n        /* \"#utility.yul\":30234:30301   */\n      tag_339\n      jump\t// in\n    tag_663:\n        /* \"#utility.yul\":30227:30301   */\n      swap2\n      pop\n        /* \"#utility.yul\":30310:30403   */\n      tag_664\n        /* \"#utility.yul\":30399:30402   */\n      dup3\n        /* \"#utility.yul\":30310:30403   */\n      tag_393\n      jump\t// in\n    tag_664:\n        /* \"#utility.yul\":30428:30430   */\n      0x20\n        /* \"#utility.yul\":30423:30426   */\n      dup3\n        /* \"#utility.yul\":30419:30431   */\n      add\n        /* \"#utility.yul\":30412:30431   */\n      swap1\n      pop\n        /* \"#utility.yul\":30071:30437   */\n      swap2\n      swap1\n      pop\n      jump\t// out\n        /* \"#utility.yul\":30443:30862   */\n    tag_251:\n        /* \"#utility.yul\":30609:30613   */\n      0x00\n        /* \"#utility.yul\":30647:30649   */\n      0x20\n        /* \"#utility.yul\":30636:30645   */\n      dup3\n        /* \"#utility.yul\":30632:30650   */\n      add\n        /* \"#utility.yul\":30624:30650   */\n      swap1\n      pop\n        /* \"#utility.yul\":30696:30705   */\n      dup2\n        /* \"#utility.yul\":30690:30694   */\n      dup2\n        /* \"#utility.yul\":30686:30706   */\n      sub\n        /* \"#utility.yul\":30682:30683   */\n      0x00\n        /* \"#utility.yul\":30671:30680   */\n      dup4\n        /* \"#utility.yul\":30667:30684   */\n      add\n        /* \"#utility.yul\":30660:30707   */\n      mstore\n        /* \"#utility.yul\":30724:30855   */\n      tag_666\n        /* \"#utility.yul\":30850:30854   */\n      dup2\n        /* \"#utility.yul\":30724:30855   */\n      tag_394\n      jump\t// in\n    tag_666:\n        /* \"#utility.yul\":30716:30855   */\n      swap1\n      pop\n        /* \"#utility.yul\":30443:30862   */\n      swap2\n      swap1\n      pop\n      jump\t// out\n        /* \"#utility.yul\":30868:31062   */\n    tag_257:\n        /* \"#utility.yul\":30908:30912   */\n      0x00\n        /* \"#utility.yul\":30928:30948   */\n      tag_668\n        /* \"#utility.yul\":30946:30947   */\n      dup3\n        /* \"#utility.yul\":30928:30948   */\n      tag_341\n      jump\t// in\n    tag_668:\n        /* \"#utility.yul\":30923:30948   */\n      swap2\n      pop\n        /* \"#utility.yul\":30962:30982   */\n      tag_669\n        /* \"#utility.yul\":30980:30981   */\n      dup4\n        /* \"#utility.yul\":30962:30982   */\n      tag_341\n      jump\t// in\n    tag_669:\n        /* \"#utility.yul\":30957:30982   */\n      swap3\n      pop\n        /* \"#utility.yul\":31006:31007   */\n      dup3\n        /* \"#utility.yul\":31003:31004   */\n      dup3\n        /* \"#utility.yul\":30999:31008   */\n      sub\n        /* \"#utility.yul\":30991:31008   */\n      swap1\n      pop\n        /* \"#utility.yul\":31030:31031   */\n      dup2\n        /* \"#utility.yul\":31024:31028   */\n      dup2\n        /* \"#utility.yul\":31021:31032   */\n      gt\n        /* \"#utility.yul\":31018:31055   */\n      iszero\n      tag_670\n      jumpi\n        /* \"#utility.yul\":31035:31053   */\n      tag_671\n      tag_354\n      jump\t// in\n    tag_671:\n        /* \"#utility.yul\":31018:31055   */\n    tag_670:\n        /* \"#utility.yul\":30868:31062   */\n      swap3\n      swap2\n      pop\n      pop\n      jump\t// out\n        /* \"#utility.yul\":31068:31242   */\n    tag_395:\n        /* \"#utility.yul\":31208:31234   */\n      0x43686f6f736520446966666572656e74204e616d652e2e2e0000000000000000\n        /* \"#utility.yul\":31204:31205   */\n      0x00\n        /* \"#utility.yul\":31196:31202   */\n      dup3\n        /* \"#utility.yul\":31192:31206   */\n      add\n        /* \"#utility.yul\":31185:31235   */\n      mstore\n        /* \"#utility.yul\":31068:31242   */\n      pop\n      jump\t// out\n        /* \"#utility.yul\":31248:31614   */\n    tag_396:\n        /* \"#utility.yul\":31390:31393   */\n      0x00\n        /* \"#utility.yul\":31411:31478   */\n      tag_674\n        /* \"#utility.yul\":31475:31477   */\n      0x18\n        /* \"#utility.yul\":31470:31473   */\n      dup4\n        /* \"#utility.yul\":31411:31478   */\n      tag_339\n      jump\t// in\n    tag_674:\n        /* \"#utility.yul\":31404:31478   */\n      swap2\n      pop\n        /* \"#utility.yul\":31487:31580   */\n      tag_675\n        /* \"#utility.yul\":31576:31579   */\n      dup3\n        /* \"#utility.yul\":31487:31580   */\n      tag_395\n      jump\t// in\n    tag_675:\n        /* \"#utility.yul\":31605:31607   */\n      0x20\n        /* \"#utility.yul\":31600:31603   */\n      dup3\n        /* \"#utility.yul\":31596:31608   */\n      add\n        /* \"#utility.yul\":31589:31608   */\n      swap1\n      pop\n        /* \"#utility.yul\":31248:31614   */\n      swap2\n      swap1\n      pop\n      jump\t// out\n        /* \"#utility.yul\":31620:32039   */\n    tag_300:\n        /* \"#utility.yul\":31786:31790   */\n      0x00\n        /* \"#utility.yul\":31824:31826   */\n      0x20\n        /* \"#utility.yul\":31813:31822   */\n      dup3\n        /* \"#utility.yul\":31809:31827   */\n      add\n        /* \"#utility.yul\":31801:31827   */\n      swap1\n      pop\n        /* \"#utility.yul\":31873:31882   */\n      dup2\n        /* \"#utility.yul\":31867:31871   */\n      dup2\n        /* \"#utility.yul\":31863:31883   */\n      sub\n        /* \"#utility.yul\":31859:31860   */\n      0x00\n        /* \"#utility.yul\":31848:31857   */\n      dup4\n        /* \"#utility.yul\":31844:31861   */\n      add\n        /* \"#utility.yul\":31837:31884   */\n      mstore\n        /* \"#utility.yul\":31901:32032   */\n      tag_677\n        /* \"#utility.yul\":32027:32031   */\n      dup2\n        /* \"#utility.yul\":31901:32032   */\n      tag_396\n      jump\t// in\n    tag_677:\n        /* \"#utility.yul\":31893:32032   */\n      swap1\n      pop\n        /* \"#utility.yul\":31620:32039   */\n      swap2\n      swap1\n      pop\n      jump\t// out\n\n    auxdata: 0xa2646970667358221220736079a19ab733cb9b07ade44db07a78c55d116ebe71fdf493d0468bb95736b064736f6c63430008120033\n}\n",
				"bytecode": {
					"linkReferences": {},
					"object": "608060405234801561001057600080fd5b50336000806101000a81548173ffffffffffffffffffffffffffffffffffffffff021916908373ffffffffffffffffffffffffffffffffffffffff160217905550612ce8806100606000396000f3fe608060405234801561001057600080fd5b506004361061009e5760003560e01c806378668658116100665780637866865814610125578063b2b98ed21461012f578063b52087c11461014d578063f342c4de14610169578063f526dab4146101885761009e565b80631231f78e146100a3578063567484ee146100c157806359f78468146100f357806362d73eb8146100fd57806366444e8614610107575b600080fd5b6100ab6101a4565b6040516100b89190611e0d565b60405180910390f35b6100db60048036038101906100d69190611f78565b61042b565b6040516100ea93929190612065565b60405180910390f35b6100fb6106c5565b005b610105610770565b005b61010f610835565b60405161011c91906120a3565b60405180910390f35b61012d610906565b005b610137610960565b60405161014491906120be565b60405180910390f35b61016760048036038101906101629190611f78565b610ce1565b005b610171610d7b565b60405161017f9291906120fb565b60405180910390f35b6101a2600480360381019061019d9190611f78565b610e20565b005b6060600060018054905067ffffffffffffffff8111156101c7576101c6611e4d565b5b6040519080825280602002602001820160405280156101fa57816020015b60608152602001906001900390816101e55790505b50905060005b600180549050811015610423576000600560006001848154811061022757610226612124565b5b9060005260206000200160009054906101000a900473ffffffffffffffffffffffffffffffffffffffff1673ffffffffffffffffffffffffffffffffffffffff1673ffffffffffffffffffffffffffffffffffffffff1681526020019081526020016000206040518060600160405290816000820180546102a790612182565b80601f01602080910402602001604051908101604052809291908181526020018280546102d390612182565b80156103205780601f106102f557610100808354040283529160200191610320565b820191906000526020600020905b81548152906001019060200180831161030357829003601f168201915b5050505050815260200160018201805461033990612182565b80601f016020809104026020016040519081016040528092919081815260200182805461036590612182565b80156103b25780601f10610387576101008083540402835291602001916103b2565b820191906000526020600020905b81548152906001019060200180831161039557829003601f168201915b505050505081526020016002820154815250509050806000015181602001516040516020016103e29291906122d3565b60405160208183030381529060405283838151811061040457610403612124565b5b602002602001018190525050808061041b90612347565b915050610200565b508091505090565b6000606060008061043a610835565b905060005b81811015610682576104598661045483610f01565b611111565b1561066f576000600560006001848154811061047857610477612124565b5b9060005260206000200160009054906101000a900473ffffffffffffffffffffffffffffffffffffffff1673ffffffffffffffffffffffffffffffffffffffff1673ffffffffffffffffffffffffffffffffffffffff1681526020019081526020016000206040518060600160405290816000820180546104f890612182565b80601f016020809104026020016040519081016040528092919081815260200182805461052490612182565b80156105715780601f1061054657610100808354040283529160200191610571565b820191906000526020600020905b81548152906001019060200180831161055457829003601f168201915b5050505050815260200160018201805461058a90612182565b80601f01602080910402602001604051908101604052809291908181526020018280546105b690612182565b80156106035780601f106105d857610100808354040283529160200191610603565b820191906000526020600020905b8154815290600101906020018083116105e657829003601f168201915b5050505050815260200160028201548152505090506001828154811061062c5761062b612124565b5b9060005260206000200160009054906101000a900473ffffffffffffffffffffffffffffffffffffffff16816000015182604001519550955095505050506106be565b808061067a90612347565b91505061043f565b506040517f08c379a00000000000000000000000000000000000000000000000000000000081526004016106b5906123db565b60405180910390fd5b9193909250565b60008054906101000a900473ffffffffffffffffffffffffffffffffffffffff1673ffffffffffffffffffffffffffffffffffffffff163373ffffffffffffffffffffffffffffffffffffffff1614610753576040517f08c379a000000000000000000000000000000000000000000000000000000000815260040161074a9061246d565b60405180910390fd5b6001600060156101000a81548160ff021916908315150217905550565b60008054906101000a900473ffffffffffffffffffffffffffffffffffffffff1673ffffffffffffffffffffffffffffffffffffffff163373ffffffffffffffffffffffffffffffffffffffff16146107fe576040517f08c379a00000000000000000000000000000000000000000000000000000000081526004016107f59061246d565b60405180910390fd5b6001600060146101000a81548160ff02191690831515021790555060008060156101000a81548160ff021916908315150217905550565b6000806000905060005b6001805490508110156108fe57600460006001838154811061086457610863612124565b5b9060005260206000200160009054906101000a900473ffffffffffffffffffffffffffffffffffffffff1673ffffffffffffffffffffffffffffffffffffffff1673ffffffffffffffffffffffffffffffffffffffff16815260200190815260200160002060009054906101000a900460ff16156108eb5781806108e790612347565b9250505b80806108f690612347565b91505061083f565b508091505090565b6001600260003373ffffffffffffffffffffffffffffffffffffffff1673ffffffffffffffffffffffffffffffffffffffff16815260200190815260200160002060006101000a81548160ff021916908315150217905550565b6060600060159054906101000a900460ff166109b1576040517f08c379a00000000000000000000000000000000000000000000000000000000081526004016109a8906124d9565b60405180910390fd5b600080806000905060005b600180549050811015610bc4578360056000600184815481106109e2576109e1612124565b5b9060005260206000200160009054906101000a900473ffffffffffffffffffffffffffffffffffffffff1673ffffffffffffffffffffffffffffffffffffffff1673ffffffffffffffffffffffffffffffffffffffff168152602001908152602001600020600201541115610b1a576005600060018381548110610a6957610a68612124565b5b9060005260206000200160009054906101000a900473ffffffffffffffffffffffffffffffffffffffff1673ffffffffffffffffffffffffffffffffffffffff1673ffffffffffffffffffffffffffffffffffffffff16815260200190815260200160002060020154935060018181548110610ae857610ae7612124565b5b9060005260206000200160009054906101000a900473ffffffffffffffffffffffffffffffffffffffff169250610bb1565b836005600060018481548110610b3357610b32612124565b5b9060005260206000200160009054906101000a900473ffffffffffffffffffffffffffffffffffffffff1673ffffffffffffffffffffffffffffffffffffffff1673ffffffffffffffffffffffffffffffffffffffff1681526020019081526020016000206002015403610bb0578180610bac90612347565b9250505b5b8080610bbc90612347565b9150506109bc565b5060018110610c0d576040518060400160405280601081526020017f456c656374696f6e20546965642e2e2e000000000000000000000000000000008152509350505050610cde565b600560008373ffffffffffffffffffffffffffffffffffffffff1673ffffffffffffffffffffffffffffffffffffffff1681526020019081526020016000206000018054610c5a90612182565b80601f0160208091040260200160405190810160405280929190818152602001828054610c8690612182565b8015610cd35780601f10610ca857610100808354040283529160200191610cd3565b820191906000526020600020905b815481529060010190602001808311610cb657829003601f168201915b505050505093505050505b90565b600460003373ffffffffffffffffffffffffffffffffffffffff1673ffffffffffffffffffffffffffffffffffffffff16815260200190815260200160002060009054906101000a900460ff1615610d6e576040517f08c379a0000000000000000000000000000000000000000000000000000000008152600401610d6590612545565b60405180910390fd5b610d78338261116a565b50565b600080600260003373ffffffffffffffffffffffffffffffffffffffff1673ffffffffffffffffffffffffffffffffffffffff16815260200190815260200160002060009054906101000a900460ff16600360003373ffffffffffffffffffffffffffffffffffffffff1673ffffffffffffffffffffffffffffffffffffffff16815260200190815260200160002060009054906101000a900460ff16915091509091565b600060149054906101000a900460ff16610e6f576040517f08c379a0000000000000000000000000000000000000000000000000000000008152600401610e66906125b1565b60405180910390fd5b600060159054906101000a900460ff1615610ebf576040517f08c379a0000000000000000000000000000000000000000000000000000000008152600401610eb69061261d565b60405180910390fd5b602a815103610ee4576000610ed3826112c5565b9050610ede81611459565b50610efe565b6000610eef8261042b565b50509050610efc81611459565b505b50565b60606001805490508210610f4a576040517f08c379a0000000000000000000000000000000000000000000000000000000008152600401610f4190612689565b60405180910390fd5b60006005600060018581548110610f6457610f63612124565b5b9060005260206000200160009054906101000a900473ffffffffffffffffffffffffffffffffffffffff1673ffffffffffffffffffffffffffffffffffffffff1673ffffffffffffffffffffffffffffffffffffffff168152602001908152602001600020604051806060016040529081600082018054610fe490612182565b80601f016020809104026020016040519081016040528092919081815260200182805461101090612182565b801561105d5780601f106110325761010080835404028352916020019161105d565b820191906000526020600020905b81548152906001019060200180831161104057829003601f168201915b5050505050815260200160018201805461107690612182565b80601f01602080910402602001604051908101604052809291908181526020018280546110a290612182565b80156110ef5780601f106110c4576101008083540402835291602001916110ef565b820191906000526020600020905b8154815290600101906020018083116110d257829003601f168201915b5050505050815260200160028201548152505090508060200151915050919050565b60008160405160200161112491906126a9565b604051602081830303815290604052805190602001208360405160200161114b91906126a9565b6040516020818303038152906040528051906020012014905092915050565b6001600460008473ffffffffffffffffffffffffffffffffffffffff1673ffffffffffffffffffffffffffffffffffffffff16815260200190815260200160002060006101000a81548160ff02191690831515021790555060405180606001604052808281526020016111dc83611750565b81526020016000815250600560008473ffffffffffffffffffffffffffffffffffffffff1673ffffffffffffffffffffffffffffffffffffffff168152602001908152602001600020600082015181600001908161123a919061286c565b506020820151816001019081611250919061286c565b50604082015181600201559050506001829080600181540180825580915050600190039060005260206000200160009091909190916101000a81548173ffffffffffffffffffffffffffffffffffffffff021916908373ffffffffffffffffffffffffffffffffffffffff1602179055505050565b600080829050602a81511461130f576040517f08c379a00000000000000000000000000000000000000000000000000000000081526004016113069061298a565b60405180910390fd5b60008080600290505b835181101561144d57600084828151811061133657611335612124565b5b602001015160f81c60f81b60f81c905060308160ff161015801561135e575060398160ff1611155b1561137a5760308161137091906129b7565b60ff16925061141f565b60418160ff1610158015611392575060468160ff1611155b156113ae576037816113a491906129b7565b60ff16925061141e565b60618160ff16101580156113c6575060668160ff1611155b156113e2576057816113d891906129b7565b60ff16925061141d565b6040517f08c379a000000000000000000000000000000000000000000000000000000000815260040161141490612a38565b60405180910390fd5b5b5b8260108561142d9190612a58565b6114379190612a9a565b935050808061144590612347565b915050611318565b50819350505050919050565b600060149054906101000a900460ff166114a8576040517f08c379a000000000000000000000000000000000000000000000000000000000815260040161149f906125b1565b60405180910390fd5b600060159054906101000a900460ff16156114f8576040517f08c379a00000000000000000000000000000000000000000000000000000000081526004016114ef9061261d565b60405180910390fd5b600360003373ffffffffffffffffffffffffffffffffffffffff1673ffffffffffffffffffffffffffffffffffffffff16815260200190815260200160002060009054906101000a900460ff1615611585576040517f08c379a000000000000000000000000000000000000000000000000000000000815260040161157c90612b1a565b60405180910390fd5b600260003373ffffffffffffffffffffffffffffffffffffffff1673ffffffffffffffffffffffffffffffffffffffff16815260200190815260200160002060009054906101000a900460ff16611611576040517f08c379a000000000000000000000000000000000000000000000000000000000815260040161160890612b86565b60405180910390fd5b600460008273ffffffffffffffffffffffffffffffffffffffff1673ffffffffffffffffffffffffffffffffffffffff16815260200190815260200160002060009054906101000a900460ff1661169d576040517f08c379a000000000000000000000000000000000000000000000000000000000815260040161169490612bf2565b60405180910390fd5b6001600360003373ffffffffffffffffffffffffffffffffffffffff1673ffffffffffffffffffffffffffffffffffffffff16815260200190815260200160002060006101000a81548160ff021916908315150217905550600560008273ffffffffffffffffffffffffffffffffffffffff1673ffffffffffffffffffffffffffffffffffffffff168152602001908152602001600020600201600081548092919061174890612347565b919050555050565b6060600082905060008160008151811061176d5761176c612124565b5b602001015160f81c60f81b90506000826001845161178b9190612c12565b8151811061179c5761179b612124565b5b602001015160f81c60f81b90506000600267ffffffffffffffff8111156117c6576117c5611e4d565b5b6040519080825280601f01601f1916602001820160405280156117f85781602001600182028036833780820191505090505b50905082816000815181106118105761180f612124565b5b60200101907effffffffffffffffffffffffffffffffffffffffffffffffffffffffffffff1916908160001a905350818160018151811061185457611853612124565b5b60200101907effffffffffffffffffffffffffffffffffffffffffffffffffffffffffffff1916908160001a905350600061188d610835565b905060005b81811015611bdf57600060056000600184815481106118b4576118b3612124565b5b9060005260206000200160009054906101000a900473ffffffffffffffffffffffffffffffffffffffff1673ffffffffffffffffffffffffffffffffffffffff1673ffffffffffffffffffffffffffffffffffffffff16815260200190815260200160002060405180606001604052908160008201805461193490612182565b80601f016020809104026020016040519081016040528092919081815260200182805461196090612182565b80156119ad5780601f10611982576101008083540402835291602001916119ad565b820191906000526020600020905b81548152906001019060200180831161199057829003601f168201915b505050505081526020016001820180546119c690612182565b80601f01602080910402602001604051908101604052809291908181526020018280546119f290612182565b8015611a3f5780601f10611a1457610100808354040283529160200191611a3f565b820191906000526020600020905b815481529060010190602001808311611a2257829003601f168201915b5050505050815260200160028201548152505090506000816000015190506000600267ffffffffffffffff811115611a7a57611a79611e4d565b5b6040519080825280601f01601f191660200182016040528015611aac5781602001600182028036833780820191505090505b50905081600081518110611ac357611ac2612124565b5b602001015160f81c60f81b81600081518110611ae257611ae1612124565b5b60200101907effffffffffffffffffffffffffffffffffffffffffffffffffffffffffffff1916908160001a9053508160018351611b209190612c12565b81518110611b3157611b30612124565b5b602001015160f81c60f81b81600181518110611b5057611b4f612124565b5b60200101907effffffffffffffffffffffffffffffffffffffffffffffffffffffffffffff1916908160001a905350611b898187611bed565b15611bc9576040517f08c379a0000000000000000000000000000000000000000000000000000000008152600401611bc090612c92565b60405180910390fd5b5050508080611bd790612347565b915050611892565b508195505050505050919050565b60008151835114611c015760009050611cb5565b60005b8351811015611caf57828181518110611c2057611c1f612124565b5b602001015160f81c60f81b7effffffffffffffffffffffffffffffffffffffffffffffffffffffffffffff1916848281518110611c6057611c5f612124565b5b602001015160f81c60f81b7effffffffffffffffffffffffffffffffffffffffffffffffffffffffffffff191614611c9c576000915050611cb5565b8080611ca790612347565b915050611c04565b50600190505b92915050565b600081519050919050565b600082825260208201905092915050565b6000819050602082019050919050565b600081519050919050565b600082825260208201905092915050565b60005b83811015611d21578082015181840152602081019050611d06565b60008484015250505050565b6000601f19601f8301169050919050565b6000611d4982611ce7565b611d538185611cf2565b9350611d63818560208601611d03565b611d6c81611d2d565b840191505092915050565b6000611d838383611d3e565b905092915050565b6000602082019050919050565b6000611da382611cbb565b611dad8185611cc6565b935083602082028501611dbf85611cd7565b8060005b85811015611dfb5784840389528151611ddc8582611d77565b9450611de783611d8b565b925060208a01995050600181019050611dc3565b50829750879550505050505092915050565b60006020820190508181036000830152611e278184611d98565b905092915050565b6000604051905090565b600080fd5b600080fd5b600080fd5b600080fd5b7f4e487b7100000000000000000000000000000000000000000000000000000000600052604160045260246000fd5b611e8582611d2d565b810181811067ffffffffffffffff82111715611ea457611ea3611e4d565b5b80604052505050565b6000611eb7611e2f565b9050611ec38282611e7c565b919050565b600067ffffffffffffffff821115611ee357611ee2611e4d565b5b611eec82611d2d565b9050602081019050919050565b82818337600083830152505050565b6000611f1b611f1684611ec8565b611ead565b905082815260208101848484011115611f3757611f36611e48565b5b611f42848285611ef9565b509392505050565b600082601f830112611f5f57611f5e611e43565b5b8135611f6f848260208601611f08565b91505092915050565b600060208284031215611f8e57611f8d611e39565b5b600082013567ffffffffffffffff811115611fac57611fab611e3e565b5b611fb884828501611f4a565b91505092915050565b600073ffffffffffffffffffffffffffffffffffffffff82169050919050565b6000611fec82611fc1565b9050919050565b611ffc81611fe1565b82525050565b600082825260208201905092915050565b600061201e82611ce7565b6120288185612002565b9350612038818560208601611d03565b61204181611d2d565b840191505092915050565b6000819050919050565b61205f8161204c565b82525050565b600060608201905061207a6000830186611ff3565b818103602083015261208c8185612013565b905061209b6040830184612056565b949350505050565b60006020820190506120b86000830184612056565b92915050565b600060208201905081810360008301526120d88184612013565b905092915050565b60008115159050919050565b6120f5816120e0565b82525050565b600060408201905061211060008301856120ec565b61211d60208301846120ec565b9392505050565b7f4e487b7100000000000000000000000000000000000000000000000000000000600052603260045260246000fd5b7f4e487b7100000000000000000000000000000000000000000000000000000000600052602260045260246000fd5b6000600282049050600182168061219a57607f821691505b6020821081036121ad576121ac612153565b5b50919050565b600081905092915050565b7f2000000000000000000000000000000000000000000000000000000000000000600082015250565b60006121f46001836121b3565b91506121ff826121be565b600182019050919050565b600061221582611ce7565b61221f81856121b3565b935061222f818560208601611d03565b80840191505092915050565b7f2028000000000000000000000000000000000000000000000000000000000000600082015250565b60006122716002836121b3565b915061227c8261223b565b600282019050919050565b7f2900000000000000000000000000000000000000000000000000000000000000600082015250565b60006122bd6001836121b3565b91506122c882612287565b600182019050919050565b60006122de826121e7565b91506122ea828561220a565b91506122f582612264565b9150612301828461220a565b915061230c826122b0565b91508190509392505050565b7f4e487b7100000000000000000000000000000000000000000000000000000000600052601160045260246000fd5b60006123528261204c565b91507fffffffffffffffffffffffffffffffffffffffffffffffffffffffffffffffff820361238457612383612318565b5b600182019050919050565b7f4944206e6f7420666f756e640000000000000000000000000000000000000000600082015250565b60006123c5600c83612002565b91506123d08261238f565b602082019050919050565b600060208201905081810360008301526123f4816123b8565b9050919050565b7f4f6e6c792061646d696e2063616e20706572666f726d2074686973206163746960008201527f6f6e000000000000000000000000000000000000000000000000000000000000602082015250565b6000612457602283612002565b9150612462826123fb565b604082019050919050565b600060208201905081810360008301526124868161244a565b9050919050565b7f456c656374696f6e20696e2070726f67726573732e2e2e000000000000000000600082015250565b60006124c3601783612002565b91506124ce8261248d565b602082019050919050565b600060208201905081810360008301526124f2816124b6565b9050919050565b7f43616e64696461746520697320616c7265647920726567697374726572642e00600082015250565b600061252f601f83612002565b915061253a826124f9565b602082019050919050565b6000602082019050818103600083015261255e81612522565b9050919050565b7f456c656374696f6e20686173206e6f7420737461727465640000000000000000600082015250565b600061259b601883612002565b91506125a682612565565b602082019050919050565b600060208201905081810360008301526125ca8161258e565b9050919050565b7f456c656374696f6e2068617320616c726561647920656e646564000000000000600082015250565b6000612607601a83612002565b9150612612826125d1565b602082019050919050565b60006020820190508181036000830152612636816125fa565b9050919050565b7f43616e64696461746520696e646578206f7574206f662072616e676500000000600082015250565b6000612673601c83612002565b915061267e8261263d565b602082019050919050565b600060208201905081810360008301526126a281612666565b9050919050565b60006126b5828461220a565b915081905092915050565b60008190508160005260206000209050919050565b60006020601f8301049050919050565b600082821b905092915050565b6000600883026127227fffffffffffffffffffffffffffffffffffffffffffffffffffffffffffffffff826126e5565b61272c86836126e5565b95508019841693508086168417925050509392505050565b6000819050919050565b600061276961276461275f8461204c565b612744565b61204c565b9050919050565b6000819050919050565b6127838361274e565b61279761278f82612770565b8484546126f2565b825550505050565b600090565b6127ac61279f565b6127b781848461277a565b505050565b5b818110156127db576127d06000826127a4565b6001810190506127bd565b5050565b601f821115612820576127f1816126c0565b6127fa846126d5565b81016020851015612809578190505b61281d612815856126d5565b8301826127bc565b50505b505050565b600082821c905092915050565b600061284360001984600802612825565b1980831691505092915050565b600061285c8383612832565b9150826002028217905092915050565b61287582611ce7565b67ffffffffffffffff81111561288e5761288d611e4d565b5b6128988254612182565b6128a38282856127df565b600060209050601f8311600181146128d657600084156128c4578287015190505b6128ce8582612850565b865550612936565b601f1984166128e4866126c0565b60005b8281101561290c578489015182556001820191506020850194506020810190506128e7565b868310156129295784890151612925601f891682612832565b8355505b6001600288020188555050505b505050505050565b7f496e76616c696420696e707574206c656e677468000000000000000000000000600082015250565b6000612974601483612002565b915061297f8261293e565b602082019050919050565b600060208201905081810360008301526129a381612967565b9050919050565b600060ff82169050919050565b60006129c2826129aa565b91506129cd836129aa565b9250828203905060ff8111156129e6576129e5612318565b5b92915050565b7f496e76616c69642063686172616374657220696e20696e707574000000000000600082015250565b6000612a22601a83612002565b9150612a2d826129ec565b602082019050919050565b60006020820190508181036000830152612a5181612a15565b9050919050565b6000612a638261204c565b9150612a6e8361204c565b9250828202612a7c8161204c565b91508282048414831517612a9357612a92612318565b5b5092915050565b6000612aa58261204c565b9150612ab08361204c565b9250828201905080821115612ac857612ac7612318565b5b92915050565b7f596f75206861766520616c726561647920766f74656400000000000000000000600082015250565b6000612b04601683612002565b9150612b0f82612ace565b602082019050919050565b60006020820190508181036000830152612b3381612af7565b9050919050565b7f596f7520617265206e6f74207265676973746572656420766f74657200000000600082015250565b6000612b70601c83612002565b9150612b7b82612b3a565b602082019050919050565b60006020820190508181036000830152612b9f81612b63565b9050919050565b7f43616e646964617465206973206e6f7420726567697374657265640000000000600082015250565b6000612bdc601b83612002565b9150612be782612ba6565b602082019050919050565b60006020820190508181036000830152612c0b81612bcf565b9050919050565b6000612c1d8261204c565b9150612c288361204c565b9250828203905081811115612c4057612c3f612318565b5b92915050565b7f43686f6f736520446966666572656e74204e616d652e2e2e0000000000000000600082015250565b6000612c7c601883612002565b9150612c8782612c46565b602082019050919050565b60006020820190508181036000830152612cab81612c6f565b905091905056fea2646970667358221220736079a19ab733cb9b07ade44db07a78c55d116ebe71fdf493d0468bb95736b064736f6c63430008120033",
					"opcodes": "PUSH1 0x80 PUSH1 0x40 MSTORE CALLVALUE DUP1 ISZERO PUSH2 0x10 JUMPI PUSH1 0x0 DUP1 REVERT JUMPDEST POP CALLER PUSH1 0x0 DUP1 PUSH2 0x100 EXP DUP2 SLOAD DUP2 PUSH20 0xFFFFFFFFFFFFFFFFFFFFFFFFFFFFFFFFFFFFFFFF MUL NOT AND SWAP1 DUP4 PUSH20 0xFFFFFFFFFFFFFFFFFFFFFFFFFFFFFFFFFFFFFFFF AND MUL OR SWAP1 SSTORE POP PUSH2 0x2CE8 DUP1 PUSH2 0x60 PUSH1 0x0 CODECOPY PUSH1 0x0 RETURN INVALID PUSH1 0x80 PUSH1 0x40 MSTORE CALLVALUE DUP1 ISZERO PUSH2 0x10 JUMPI PUSH1 0x0 DUP1 REVERT JUMPDEST POP PUSH1 0x4 CALLDATASIZE LT PUSH2 0x9E JUMPI PUSH1 0x0 CALLDATALOAD PUSH1 0xE0 SHR DUP1 PUSH4 0x78668658 GT PUSH2 0x66 JUMPI DUP1 PUSH4 0x78668658 EQ PUSH2 0x125 JUMPI DUP1 PUSH4 0xB2B98ED2 EQ PUSH2 0x12F JUMPI DUP1 PUSH4 0xB52087C1 EQ PUSH2 0x14D JUMPI DUP1 PUSH4 0xF342C4DE EQ PUSH2 0x169 JUMPI DUP1 PUSH4 0xF526DAB4 EQ PUSH2 0x188 JUMPI PUSH2 0x9E JUMP JUMPDEST DUP1 PUSH4 0x1231F78E EQ PUSH2 0xA3 JUMPI DUP1 PUSH4 0x567484EE EQ PUSH2 0xC1 JUMPI DUP1 PUSH4 0x59F78468 EQ PUSH2 0xF3 JUMPI DUP1 PUSH4 0x62D73EB8 EQ PUSH2 0xFD JUMPI DUP1 PUSH4 0x66444E86 EQ PUSH2 0x107 JUMPI JUMPDEST PUSH1 0x0 DUP1 REVERT JUMPDEST PUSH2 0xAB PUSH2 0x1A4 JUMP JUMPDEST PUSH1 0x40 MLOAD PUSH2 0xB8 SWAP2 SWAP1 PUSH2 0x1E0D JUMP JUMPDEST PUSH1 0x40 MLOAD DUP1 SWAP2 SUB SWAP1 RETURN JUMPDEST PUSH2 0xDB PUSH1 0x4 DUP1 CALLDATASIZE SUB DUP2 ADD SWAP1 PUSH2 0xD6 SWAP2 SWAP1 PUSH2 0x1F78 JUMP JUMPDEST PUSH2 0x42B JUMP JUMPDEST PUSH1 0x40 MLOAD PUSH2 0xEA SWAP4 SWAP3 SWAP2 SWAP1 PUSH2 0x2065 JUMP JUMPDEST PUSH1 0x40 MLOAD DUP1 SWAP2 SUB SWAP1 RETURN JUMPDEST PUSH2 0xFB PUSH2 0x6C5 JUMP JUMPDEST STOP JUMPDEST PUSH2 0x105 PUSH2 0x770 JUMP JUMPDEST STOP JUMPDEST PUSH2 0x10F PUSH2 0x835 JUMP JUMPDEST PUSH1 0x40 MLOAD PUSH2 0x11C SWAP2 SWAP1 PUSH2 0x20A3 JUMP JUMPDEST PUSH1 0x40 MLOAD DUP1 SWAP2 SUB SWAP1 RETURN JUMPDEST PUSH2 0x12D PUSH2 0x906 JUMP JUMPDEST STOP JUMPDEST PUSH2 0x137 PUSH2 0x960 JUMP JUMPDEST PUSH1 0x40 MLOAD PUSH2 0x144 SWAP2 SWAP1 PUSH2 0x20BE JUMP JUMPDEST PUSH1 0x40 MLOAD DUP1 SWAP2 SUB SWAP1 RETURN JUMPDEST PUSH2 0x167 PUSH1 0x4 DUP1 CALLDATASIZE SUB DUP2 ADD SWAP1 PUSH2 0x162 SWAP2 SWAP1 PUSH2 0x1F78 JUMP JUMPDEST PUSH2 0xCE1 JUMP JUMPDEST STOP JUMPDEST PUSH2 0x171 PUSH2 0xD7B JUMP JUMPDEST PUSH1 0x40 MLOAD PUSH2 0x17F SWAP3 SWAP2 SWAP1 PUSH2 0x20FB JUMP JUMPDEST PUSH1 0x40 MLOAD DUP1 SWAP2 SUB SWAP1 RETURN JUMPDEST PUSH2 0x1A2 PUSH1 0x4 DUP1 CALLDATASIZE SUB DUP2 ADD SWAP1 PUSH2 0x19D SWAP2 SWAP1 PUSH2 0x1F78 JUMP JUMPDEST PUSH2 0xE20 JUMP JUMPDEST STOP JUMPDEST PUSH1 0x60 PUSH1 0x0 PUSH1 0x1 DUP1 SLOAD SWAP1 POP PUSH8 0xFFFFFFFFFFFFFFFF DUP2 GT ISZERO PUSH2 0x1C7 JUMPI PUSH2 0x1C6 PUSH2 0x1E4D JUMP JUMPDEST JUMPDEST PUSH1 0x40 MLOAD SWAP1 DUP1 DUP3 MSTORE DUP1 PUSH1 0x20 MUL PUSH1 0x20 ADD DUP3 ADD PUSH1 0x40 MSTORE DUP1 ISZERO PUSH2 0x1FA JUMPI DUP2 PUSH1 0x20 ADD JUMPDEST PUSH1 0x60 DUP2 MSTORE PUSH1 0x20 ADD SWAP1 PUSH1 0x1 SWAP1 SUB SWAP1 DUP2 PUSH2 0x1E5 JUMPI SWAP1 POP JUMPDEST POP SWAP1 POP PUSH1 0x0 JUMPDEST PUSH1 0x1 DUP1 SLOAD SWAP1 POP DUP2 LT ISZERO PUSH2 0x423 JUMPI PUSH1 0x0 PUSH1 0x5 PUSH1 0x0 PUSH1 0x1 DUP5 DUP2 SLOAD DUP2 LT PUSH2 0x227 JUMPI PUSH2 0x226 PUSH2 0x2124 JUMP JUMPDEST JUMPDEST SWAP1 PUSH1 0x0 MSTORE PUSH1 0x20 PUSH1 0x0 KECCAK256 ADD PUSH1 0x0 SWAP1 SLOAD SWAP1 PUSH2 0x100 EXP SWAP1 DIV PUSH20 0xFFFFFFFFFFFFFFFFFFFFFFFFFFFFFFFFFFFFFFFF AND PUSH20 0xFFFFFFFFFFFFFFFFFFFFFFFFFFFFFFFFFFFFFFFF AND PUSH20 0xFFFFFFFFFFFFFFFFFFFFFFFFFFFFFFFFFFFFFFFF AND DUP2 MSTORE PUSH1 0x20 ADD SWAP1 DUP2 MSTORE PUSH1 0x20 ADD PUSH1 0x0 KECCAK256 PUSH1 0x40 MLOAD DUP1 PUSH1 0x60 ADD PUSH1 0x40 MSTORE SWAP1 DUP2 PUSH1 0x0 DUP3 ADD DUP1 SLOAD PUSH2 0x2A7 SWAP1 PUSH2 0x2182 JUMP JUMPDEST DUP1 PUSH1 0x1F ADD PUSH1 0x20 DUP1 SWAP2 DIV MUL PUSH1 0x20 ADD PUSH1 0x40 MLOAD SWAP1 DUP2 ADD PUSH1 0x40 MSTORE DUP1 SWAP3 SWAP2 SWAP1 DUP2 DUP2 MSTORE PUSH1 0x20 ADD DUP3 DUP1 SLOAD PUSH2 0x2D3 SWAP1 PUSH2 0x2182 JUMP JUMPDEST DUP1 ISZERO PUSH2 0x320 JUMPI DUP1 PUSH1 0x1F LT PUSH2 0x2F5 JUMPI PUSH2 0x100 DUP1 DUP4 SLOAD DIV MUL DUP4 MSTORE SWAP2 PUSH1 0x20 ADD SWAP2 PUSH2 0x320 JUMP JUMPDEST DUP3 ADD SWAP2 SWAP1 PUSH1 0x0 MSTORE PUSH1 0x20 PUSH1 0x0 KECCAK256 SWAP1 JUMPDEST DUP2 SLOAD DUP2 MSTORE SWAP1 PUSH1 0x1 ADD SWAP1 PUSH1 0x20 ADD DUP1 DUP4 GT PUSH2 0x303 JUMPI DUP3 SWAP1 SUB PUSH1 0x1F AND DUP3 ADD SWAP2 JUMPDEST POP POP POP POP POP DUP2 MSTORE PUSH1 0x20 ADD PUSH1 0x1 DUP3 ADD DUP1 SLOAD PUSH2 0x339 SWAP1 PUSH2 0x2182 JUMP JUMPDEST DUP1 PUSH1 0x1F ADD PUSH1 0x20 DUP1 SWAP2 DIV MUL PUSH1 0x20 ADD PUSH1 0x40 MLOAD SWAP1 DUP2 ADD PUSH1 0x40 MSTORE DUP1 SWAP3 SWAP2 SWAP1 DUP2 DUP2 MSTORE PUSH1 0x20 ADD DUP3 DUP1 SLOAD PUSH2 0x365 SWAP1 PUSH2 0x2182 JUMP JUMPDEST DUP1 ISZERO PUSH2 0x3B2 JUMPI DUP1 PUSH1 0x1F LT PUSH2 0x387 JUMPI PUSH2 0x100 DUP1 DUP4 SLOAD DIV MUL DUP4 MSTORE SWAP2 PUSH1 0x20 ADD SWAP2 PUSH2 0x3B2 JUMP JUMPDEST DUP3 ADD SWAP2 SWAP1 PUSH1 0x0 MSTORE PUSH1 0x20 PUSH1 0x0 KECCAK256 SWAP1 JUMPDEST DUP2 SLOAD DUP2 MSTORE SWAP1 PUSH1 0x1 ADD SWAP1 PUSH1 0x20 ADD DUP1 DUP4 GT PUSH2 0x395 JUMPI DUP3 SWAP1 SUB PUSH1 0x1F AND DUP3 ADD SWAP2 JUMPDEST POP POP POP POP POP DUP2 MSTORE PUSH1 0x20 ADD PUSH1 0x2 DUP3 ADD SLOAD DUP2 MSTORE POP POP SWAP1 POP DUP1 PUSH1 0x0 ADD MLOAD DUP2 PUSH1 0x20 ADD MLOAD PUSH1 0x40 MLOAD PUSH1 0x20 ADD PUSH2 0x3E2 SWAP3 SWAP2 SWAP1 PUSH2 0x22D3 JUMP JUMPDEST PUSH1 0x40 MLOAD PUSH1 0x20 DUP2 DUP4 SUB SUB DUP2 MSTORE SWAP1 PUSH1 0x40 MSTORE DUP4 DUP4 DUP2 MLOAD DUP2 LT PUSH2 0x404 JUMPI PUSH2 0x403 PUSH2 0x2124 JUMP JUMPDEST JUMPDEST PUSH1 0x20 MUL PUSH1 0x20 ADD ADD DUP2 SWAP1 MSTORE POP POP DUP1 DUP1 PUSH2 0x41B SWAP1 PUSH2 0x2347 JUMP JUMPDEST SWAP2 POP POP PUSH2 0x200 JUMP JUMPDEST POP DUP1 SWAP2 POP POP SWAP1 JUMP JUMPDEST PUSH1 0x0 PUSH1 0x60 PUSH1 0x0 DUP1 PUSH2 0x43A PUSH2 0x835 JUMP JUMPDEST SWAP1 POP PUSH1 0x0 JUMPDEST DUP2 DUP2 LT ISZERO PUSH2 0x682 JUMPI PUSH2 0x459 DUP7 PUSH2 0x454 DUP4 PUSH2 0xF01 JUMP JUMPDEST PUSH2 0x1111 JUMP JUMPDEST ISZERO PUSH2 0x66F JUMPI PUSH1 0x0 PUSH1 0x5 PUSH1 0x0 PUSH1 0x1 DUP5 DUP2 SLOAD DUP2 LT PUSH2 0x478 JUMPI PUSH2 0x477 PUSH2 0x2124 JUMP JUMPDEST JUMPDEST SWAP1 PUSH1 0x0 MSTORE PUSH1 0x20 PUSH1 0x0 KECCAK256 ADD PUSH1 0x0 SWAP1 SLOAD SWAP1 PUSH2 0x100 EXP SWAP1 DIV PUSH20 0xFFFFFFFFFFFFFFFFFFFFFFFFFFFFFFFFFFFFFFFF AND PUSH20 0xFFFFFFFFFFFFFFFFFFFFFFFFFFFFFFFFFFFFFFFF AND PUSH20 0xFFFFFFFFFFFFFFFFFFFFFFFFFFFFFFFFFFFFFFFF AND DUP2 MSTORE PUSH1 0x20 ADD SWAP1 DUP2 MSTORE PUSH1 0x20 ADD PUSH1 0x0 KECCAK256 PUSH1 0x40 MLOAD DUP1 PUSH1 0x60 ADD PUSH1 0x40 MSTORE SWAP1 DUP2 PUSH1 0x0 DUP3 ADD DUP1 SLOAD PUSH2 0x4F8 SWAP1 PUSH2 0x2182 JUMP JUMPDEST DUP1 PUSH1 0x1F ADD PUSH1 0x20 DUP1 SWAP2 DIV MUL PUSH1 0x20 ADD PUSH1 0x40 MLOAD SWAP1 DUP2 ADD PUSH1 0x40 MSTORE DUP1 SWAP3 SWAP2 SWAP1 DUP2 DUP2 MSTORE PUSH1 0x20 ADD DUP3 DUP1 SLOAD PUSH2 0x524 SWAP1 PUSH2 0x2182 JUMP JUMPDEST DUP1 ISZERO PUSH2 0x571 JUMPI DUP1 PUSH1 0x1F LT PUSH2 0x546 JUMPI PUSH2 0x100 DUP1 DUP4 SLOAD DIV MUL DUP4 MSTORE SWAP2 PUSH1 0x20 ADD SWAP2 PUSH2 0x571 JUMP JUMPDEST DUP3 ADD SWAP2 SWAP1 PUSH1 0x0 MSTORE PUSH1 0x20 PUSH1 0x0 KECCAK256 SWAP1 JUMPDEST DUP2 SLOAD DUP2 MSTORE SWAP1 PUSH1 0x1 ADD SWAP1 PUSH1 0x20 ADD DUP1 DUP4 GT PUSH2 0x554 JUMPI DUP3 SWAP1 SUB PUSH1 0x1F AND DUP3 ADD SWAP2 JUMPDEST POP POP POP POP POP DUP2 MSTORE PUSH1 0x20 ADD PUSH1 0x1 DUP3 ADD DUP1 SLOAD PUSH2 0x58A SWAP1 PUSH2 0x2182 JUMP JUMPDEST DUP1 PUSH1 0x1F ADD PUSH1 0x20 DUP1 SWAP2 DIV MUL PUSH1 0x20 ADD PUSH1 0x40 MLOAD SWAP1 DUP2 ADD PUSH1 0x40 MSTORE DUP1 SWAP3 SWAP2 SWAP1 DUP2 DUP2 MSTORE PUSH1 0x20 ADD DUP3 DUP1 SLOAD PUSH2 0x5B6 SWAP1 PUSH2 0x2182 JUMP JUMPDEST DUP1 ISZERO PUSH2 0x603 JUMPI DUP1 PUSH1 0x1F LT PUSH2 0x5D8 JUMPI PUSH2 0x100 DUP1 DUP4 SLOAD DIV MUL DUP4 MSTORE SWAP2 PUSH1 0x20 ADD SWAP2 PUSH2 0x603 JUMP JUMPDEST DUP3 ADD SWAP2 SWAP1 PUSH1 0x0 MSTORE PUSH1 0x20 PUSH1 0x0 KECCAK256 SWAP1 JUMPDEST DUP2 SLOAD DUP2 MSTORE SWAP1 PUSH1 0x1 ADD SWAP1 PUSH1 0x20 ADD DUP1 DUP4 GT PUSH2 0x5E6 JUMPI DUP3 SWAP1 SUB PUSH1 0x1F AND DUP3 ADD SWAP2 JUMPDEST POP POP POP POP POP DUP2 MSTORE PUSH1 0x20 ADD PUSH1 0x2 DUP3 ADD SLOAD DUP2 MSTORE POP POP SWAP1 POP PUSH1 0x1 DUP3 DUP2 SLOAD DUP2 LT PUSH2 0x62C JUMPI PUSH2 0x62B PUSH2 0x2124 JUMP JUMPDEST JUMPDEST SWAP1 PUSH1 0x0 MSTORE PUSH1 0x20 PUSH1 0x0 KECCAK256 ADD PUSH1 0x0 SWAP1 SLOAD SWAP1 PUSH2 0x100 EXP SWAP1 DIV PUSH20 0xFFFFFFFFFFFFFFFFFFFFFFFFFFFFFFFFFFFFFFFF AND DUP2 PUSH1 0x0 ADD MLOAD DUP3 PUSH1 0x40 ADD MLOAD SWAP6 POP SWAP6 POP SWAP6 POP POP POP POP PUSH2 0x6BE JUMP JUMPDEST DUP1 DUP1 PUSH2 0x67A SWAP1 PUSH2 0x2347 JUMP JUMPDEST SWAP2 POP POP PUSH2 0x43F JUMP JUMPDEST POP PUSH1 0x40 MLOAD PUSH32 0x8C379A000000000000000000000000000000000000000000000000000000000 DUP2 MSTORE PUSH1 0x4 ADD PUSH2 0x6B5 SWAP1 PUSH2 0x23DB JUMP JUMPDEST PUSH1 0x40 MLOAD DUP1 SWAP2 SUB SWAP1 REVERT JUMPDEST SWAP2 SWAP4 SWAP1 SWAP3 POP JUMP JUMPDEST PUSH1 0x0 DUP1 SLOAD SWAP1 PUSH2 0x100 EXP SWAP1 DIV PUSH20 0xFFFFFFFFFFFFFFFFFFFFFFFFFFFFFFFFFFFFFFFF AND PUSH20 0xFFFFFFFFFFFFFFFFFFFFFFFFFFFFFFFFFFFFFFFF AND CALLER PUSH20 0xFFFFFFFFFFFFFFFFFFFFFFFFFFFFFFFFFFFFFFFF AND EQ PUSH2 0x753 JUMPI PUSH1 0x40 MLOAD PUSH32 0x8C379A000000000000000000000000000000000000000000000000000000000 DUP2 MSTORE PUSH1 0x4 ADD PUSH2 0x74A SWAP1 PUSH2 0x246D JUMP JUMPDEST PUSH1 0x40 MLOAD DUP1 SWAP2 SUB SWAP1 REVERT JUMPDEST PUSH1 0x1 PUSH1 0x0 PUSH1 0x15 PUSH2 0x100 EXP DUP2 SLOAD DUP2 PUSH1 0xFF MUL NOT AND SWAP1 DUP4 ISZERO ISZERO MUL OR SWAP1 SSTORE POP JUMP JUMPDEST PUSH1 0x0 DUP1 SLOAD SWAP1 PUSH2 0x100 EXP SWAP1 DIV PUSH20 0xFFFFFFFFFFFFFFFFFFFFFFFFFFFFFFFFFFFFFFFF AND PUSH20 0xFFFFFFFFFFFFFFFFFFFFFFFFFFFFFFFFFFFFFFFF AND CALLER PUSH20 0xFFFFFFFFFFFFFFFFFFFFFFFFFFFFFFFFFFFFFFFF AND EQ PUSH2 0x7FE JUMPI PUSH1 0x40 MLOAD PUSH32 0x8C379A000000000000000000000000000000000000000000000000000000000 DUP2 MSTORE PUSH1 0x4 ADD PUSH2 0x7F5 SWAP1 PUSH2 0x246D JUMP JUMPDEST PUSH1 0x40 MLOAD DUP1 SWAP2 SUB SWAP1 REVERT JUMPDEST PUSH1 0x1 PUSH1 0x0 PUSH1 0x14 PUSH2 0x100 EXP DUP2 SLOAD DUP2 PUSH1 0xFF MUL NOT AND SWAP1 DUP4 ISZERO ISZERO MUL OR SWAP1 SSTORE POP PUSH1 0x0 DUP1 PUSH1 0x15 PUSH2 0x100 EXP DUP2 SLOAD DUP2 PUSH1 0xFF MUL NOT AND SWAP1 DUP4 ISZERO ISZERO MUL OR SWAP1 SSTORE POP JUMP JUMPDEST PUSH1 0x0 DUP1 PUSH1 0x0 SWAP1 POP PUSH1 0x0 JUMPDEST PUSH1 0x1 DUP1 SLOAD SWAP1 POP DUP2 LT ISZERO PUSH2 0x8FE JUMPI PUSH1 0x4 PUSH1 0x0 PUSH1 0x1 DUP4 DUP2 SLOAD DUP2 LT PUSH2 0x864 JUMPI PUSH2 0x863 PUSH2 0x2124 JUMP JUMPDEST JUMPDEST SWAP1 PUSH1 0x0 MSTORE PUSH1 0x20 PUSH1 0x0 KECCAK256 ADD PUSH1 0x0 SWAP1 SLOAD SWAP1 PUSH2 0x100 EXP SWAP1 DIV PUSH20 0xFFFFFFFFFFFFFFFFFFFFFFFFFFFFFFFFFFFFFFFF AND PUSH20 0xFFFFFFFFFFFFFFFFFFFFFFFFFFFFFFFFFFFFFFFF AND PUSH20 0xFFFFFFFFFFFFFFFFFFFFFFFFFFFFFFFFFFFFFFFF AND DUP2 MSTORE PUSH1 0x20 ADD SWAP1 DUP2 MSTORE PUSH1 0x20 ADD PUSH1 0x0 KECCAK256 PUSH1 0x0 SWAP1 SLOAD SWAP1 PUSH2 0x100 EXP SWAP1 DIV PUSH1 0xFF AND ISZERO PUSH2 0x8EB JUMPI DUP2 DUP1 PUSH2 0x8E7 SWAP1 PUSH2 0x2347 JUMP JUMPDEST SWAP3 POP POP JUMPDEST DUP1 DUP1 PUSH2 0x8F6 SWAP1 PUSH2 0x2347 JUMP JUMPDEST SWAP2 POP POP PUSH2 0x83F JUMP JUMPDEST POP DUP1 SWAP2 POP POP SWAP1 JUMP JUMPDEST PUSH1 0x1 PUSH1 0x2 PUSH1 0x0 CALLER PUSH20 0xFFFFFFFFFFFFFFFFFFFFFFFFFFFFFFFFFFFFFFFF AND PUSH20 0xFFFFFFFFFFFFFFFFFFFFFFFFFFFFFFFFFFFFFFFF AND DUP2 MSTORE PUSH1 0x20 ADD SWAP1 DUP2 MSTORE PUSH1 0x20 ADD PUSH1 0x0 KECCAK256 PUSH1 0x0 PUSH2 0x100 EXP DUP2 SLOAD DUP2 PUSH1 0xFF MUL NOT AND SWAP1 DUP4 ISZERO ISZERO MUL OR SWAP1 SSTORE POP JUMP JUMPDEST PUSH1 0x60 PUSH1 0x0 PUSH1 0x15 SWAP1 SLOAD SWAP1 PUSH2 0x100 EXP SWAP1 DIV PUSH1 0xFF AND PUSH2 0x9B1 JUMPI PUSH1 0x40 MLOAD PUSH32 0x8C379A000000000000000000000000000000000000000000000000000000000 DUP2 MSTORE PUSH1 0x4 ADD PUSH2 0x9A8 SWAP1 PUSH2 0x24D9 JUMP JUMPDEST PUSH1 0x40 MLOAD DUP1 SWAP2 SUB SWAP1 REVERT JUMPDEST PUSH1 0x0 DUP1 DUP1 PUSH1 0x0 SWAP1 POP PUSH1 0x0 JUMPDEST PUSH1 0x1 DUP1 SLOAD SWAP1 POP DUP2 LT ISZERO PUSH2 0xBC4 JUMPI DUP4 PUSH1 0x5 PUSH1 0x0 PUSH1 0x1 DUP5 DUP2 SLOAD DUP2 LT PUSH2 0x9E2 JUMPI PUSH2 0x9E1 PUSH2 0x2124 JUMP JUMPDEST JUMPDEST SWAP1 PUSH1 0x0 MSTORE PUSH1 0x20 PUSH1 0x0 KECCAK256 ADD PUSH1 0x0 SWAP1 SLOAD SWAP1 PUSH2 0x100 EXP SWAP1 DIV PUSH20 0xFFFFFFFFFFFFFFFFFFFFFFFFFFFFFFFFFFFFFFFF AND PUSH20 0xFFFFFFFFFFFFFFFFFFFFFFFFFFFFFFFFFFFFFFFF AND PUSH20 0xFFFFFFFFFFFFFFFFFFFFFFFFFFFFFFFFFFFFFFFF AND DUP2 MSTORE PUSH1 0x20 ADD SWAP1 DUP2 MSTORE PUSH1 0x20 ADD PUSH1 0x0 KECCAK256 PUSH1 0x2 ADD SLOAD GT ISZERO PUSH2 0xB1A JUMPI PUSH1 0x5 PUSH1 0x0 PUSH1 0x1 DUP4 DUP2 SLOAD DUP2 LT PUSH2 0xA69 JUMPI PUSH2 0xA68 PUSH2 0x2124 JUMP JUMPDEST JUMPDEST SWAP1 PUSH1 0x0 MSTORE PUSH1 0x20 PUSH1 0x0 KECCAK256 ADD PUSH1 0x0 SWAP1 SLOAD SWAP1 PUSH2 0x100 EXP SWAP1 DIV PUSH20 0xFFFFFFFFFFFFFFFFFFFFFFFFFFFFFFFFFFFFFFFF AND PUSH20 0xFFFFFFFFFFFFFFFFFFFFFFFFFFFFFFFFFFFFFFFF AND PUSH20 0xFFFFFFFFFFFFFFFFFFFFFFFFFFFFFFFFFFFFFFFF AND DUP2 MSTORE PUSH1 0x20 ADD SWAP1 DUP2 MSTORE PUSH1 0x20 ADD PUSH1 0x0 KECCAK256 PUSH1 0x2 ADD SLOAD SWAP4 POP PUSH1 0x1 DUP2 DUP2 SLOAD DUP2 LT PUSH2 0xAE8 JUMPI PUSH2 0xAE7 PUSH2 0x2124 JUMP JUMPDEST JUMPDEST SWAP1 PUSH1 0x0 MSTORE PUSH1 0x20 PUSH1 0x0 KECCAK256 ADD PUSH1 0x0 SWAP1 SLOAD SWAP1 PUSH2 0x100 EXP SWAP1 DIV PUSH20 0xFFFFFFFFFFFFFFFFFFFFFFFFFFFFFFFFFFFFFFFF AND SWAP3 POP PUSH2 0xBB1 JUMP JUMPDEST DUP4 PUSH1 0x5 PUSH1 0x0 PUSH1 0x1 DUP5 DUP2 SLOAD DUP2 LT PUSH2 0xB33 JUMPI PUSH2 0xB32 PUSH2 0x2124 JUMP JUMPDEST JUMPDEST SWAP1 PUSH1 0x0 MSTORE PUSH1 0x20 PUSH1 0x0 KECCAK256 ADD PUSH1 0x0 SWAP1 SLOAD SWAP1 PUSH2 0x100 EXP SWAP1 DIV PUSH20 0xFFFFFFFFFFFFFFFFFFFFFFFFFFFFFFFFFFFFFFFF AND PUSH20 0xFFFFFFFFFFFFFFFFFFFFFFFFFFFFFFFFFFFFFFFF AND PUSH20 0xFFFFFFFFFFFFFFFFFFFFFFFFFFFFFFFFFFFFFFFF AND DUP2 MSTORE PUSH1 0x20 ADD SWAP1 DUP2 MSTORE PUSH1 0x20 ADD PUSH1 0x0 KECCAK256 PUSH1 0x2 ADD SLOAD SUB PUSH2 0xBB0 JUMPI DUP2 DUP1 PUSH2 0xBAC SWAP1 PUSH2 0x2347 JUMP JUMPDEST SWAP3 POP POP JUMPDEST JUMPDEST DUP1 DUP1 PUSH2 0xBBC SWAP1 PUSH2 0x2347 JUMP JUMPDEST SWAP2 POP POP PUSH2 0x9BC JUMP JUMPDEST POP PUSH1 0x1 DUP2 LT PUSH2 0xC0D JUMPI PUSH1 0x40 MLOAD DUP1 PUSH1 0x40 ADD PUSH1 0x40 MSTORE DUP1 PUSH1 0x10 DUP2 MSTORE PUSH1 0x20 ADD PUSH32 0x456C656374696F6E20546965642E2E2E00000000000000000000000000000000 DUP2 MSTORE POP SWAP4 POP POP POP POP PUSH2 0xCDE JUMP JUMPDEST PUSH1 0x5 PUSH1 0x0 DUP4 PUSH20 0xFFFFFFFFFFFFFFFFFFFFFFFFFFFFFFFFFFFFFFFF AND PUSH20 0xFFFFFFFFFFFFFFFFFFFFFFFFFFFFFFFFFFFFFFFF AND DUP2 MSTORE PUSH1 0x20 ADD SWAP1 DUP2 MSTORE PUSH1 0x20 ADD PUSH1 0x0 KECCAK256 PUSH1 0x0 ADD DUP1 SLOAD PUSH2 0xC5A SWAP1 PUSH2 0x2182 JUMP JUMPDEST DUP1 PUSH1 0x1F ADD PUSH1 0x20 DUP1 SWAP2 DIV MUL PUSH1 0x20 ADD PUSH1 0x40 MLOAD SWAP1 DUP2 ADD PUSH1 0x40 MSTORE DUP1 SWAP3 SWAP2 SWAP1 DUP2 DUP2 MSTORE PUSH1 0x20 ADD DUP3 DUP1 SLOAD PUSH2 0xC86 SWAP1 PUSH2 0x2182 JUMP JUMPDEST DUP1 ISZERO PUSH2 0xCD3 JUMPI DUP1 PUSH1 0x1F LT PUSH2 0xCA8 JUMPI PUSH2 0x100 DUP1 DUP4 SLOAD DIV MUL DUP4 MSTORE SWAP2 PUSH1 0x20 ADD SWAP2 PUSH2 0xCD3 JUMP JUMPDEST DUP3 ADD SWAP2 SWAP1 PUSH1 0x0 MSTORE PUSH1 0x20 PUSH1 0x0 KECCAK256 SWAP1 JUMPDEST DUP2 SLOAD DUP2 MSTORE SWAP1 PUSH1 0x1 ADD SWAP1 PUSH1 0x20 ADD DUP1 DUP4 GT PUSH2 0xCB6 JUMPI DUP3 SWAP1 SUB PUSH1 0x1F AND DUP3 ADD SWAP2 JUMPDEST POP POP POP POP POP SWAP4 POP POP POP POP JUMPDEST SWAP1 JUMP JUMPDEST PUSH1 0x4 PUSH1 0x0 CALLER PUSH20 0xFFFFFFFFFFFFFFFFFFFFFFFFFFFFFFFFFFFFFFFF AND PUSH20 0xFFFFFFFFFFFFFFFFFFFFFFFFFFFFFFFFFFFFFFFF AND DUP2 MSTORE PUSH1 0x20 ADD SWAP1 DUP2 MSTORE PUSH1 0x20 ADD PUSH1 0x0 KECCAK256 PUSH1 0x0 SWAP1 SLOAD SWAP1 PUSH2 0x100 EXP SWAP1 DIV PUSH1 0xFF AND ISZERO PUSH2 0xD6E JUMPI PUSH1 0x40 MLOAD PUSH32 0x8C379A000000000000000000000000000000000000000000000000000000000 DUP2 MSTORE PUSH1 0x4 ADD PUSH2 0xD65 SWAP1 PUSH2 0x2545 JUMP JUMPDEST PUSH1 0x40 MLOAD DUP1 SWAP2 SUB SWAP1 REVERT JUMPDEST PUSH2 0xD78 CALLER DUP3 PUSH2 0x116A JUMP JUMPDEST POP JUMP JUMPDEST PUSH1 0x0 DUP1 PUSH1 0x2 PUSH1 0x0 CALLER PUSH20 0xFFFFFFFFFFFFFFFFFFFFFFFFFFFFFFFFFFFFFFFF AND PUSH20 0xFFFFFFFFFFFFFFFFFFFFFFFFFFFFFFFFFFFFFFFF AND DUP2 MSTORE PUSH1 0x20 ADD SWAP1 DUP2 MSTORE PUSH1 0x20 ADD PUSH1 0x0 KECCAK256 PUSH1 0x0 SWAP1 SLOAD SWAP1 PUSH2 0x100 EXP SWAP1 DIV PUSH1 0xFF AND PUSH1 0x3 PUSH1 0x0 CALLER PUSH20 0xFFFFFFFFFFFFFFFFFFFFFFFFFFFFFFFFFFFFFFFF AND PUSH20 0xFFFFFFFFFFFFFFFFFFFFFFFFFFFFFFFFFFFFFFFF AND DUP2 MSTORE PUSH1 0x20 ADD SWAP1 DUP2 MSTORE PUSH1 0x20 ADD PUSH1 0x0 KECCAK256 PUSH1 0x0 SWAP1 SLOAD SWAP1 PUSH2 0x100 EXP SWAP1 DIV PUSH1 0xFF AND SWAP2 POP SWAP2 POP SWAP1 SWAP2 JUMP JUMPDEST PUSH1 0x0 PUSH1 0x14 SWAP1 SLOAD SWAP1 PUSH2 0x100 EXP SWAP1 DIV PUSH1 0xFF AND PUSH2 0xE6F JUMPI PUSH1 0x40 MLOAD PUSH32 0x8C379A000000000000000000000000000000000000000000000000000000000 DUP2 MSTORE PUSH1 0x4 ADD PUSH2 0xE66 SWAP1 PUSH2 0x25B1 JUMP JUMPDEST PUSH1 0x40 MLOAD DUP1 SWAP2 SUB SWAP1 REVERT JUMPDEST PUSH1 0x0 PUSH1 0x15 SWAP1 SLOAD SWAP1 PUSH2 0x100 EXP SWAP1 DIV PUSH1 0xFF AND ISZERO PUSH2 0xEBF JUMPI PUSH1 0x40 MLOAD PUSH32 0x8C379A000000000000000000000000000000000000000000000000000000000 DUP2 MSTORE PUSH1 0x4 ADD PUSH2 0xEB6 SWAP1 PUSH2 0x261D JUMP JUMPDEST PUSH1 0x40 MLOAD DUP1 SWAP2 SUB SWAP1 REVERT JUMPDEST PUSH1 0x2A DUP2 MLOAD SUB PUSH2 0xEE4 JUMPI PUSH1 0x0 PUSH2 0xED3 DUP3 PUSH2 0x12C5 JUMP JUMPDEST SWAP1 POP PUSH2 0xEDE DUP2 PUSH2 0x1459 JUMP JUMPDEST POP PUSH2 0xEFE JUMP JUMPDEST PUSH1 0x0 PUSH2 0xEEF DUP3 PUSH2 0x42B JUMP JUMPDEST POP POP SWAP1 POP PUSH2 0xEFC DUP2 PUSH2 0x1459 JUMP JUMPDEST POP JUMPDEST POP JUMP JUMPDEST PUSH1 0x60 PUSH1 0x1 DUP1 SLOAD SWAP1 POP DUP3 LT PUSH2 0xF4A JUMPI PUSH1 0x40 MLOAD PUSH32 0x8C379A000000000000000000000000000000000000000000000000000000000 DUP2 MSTORE PUSH1 0x4 ADD PUSH2 0xF41 SWAP1 PUSH2 0x2689 JUMP JUMPDEST PUSH1 0x40 MLOAD DUP1 SWAP2 SUB SWAP1 REVERT JUMPDEST PUSH1 0x0 PUSH1 0x5 PUSH1 0x0 PUSH1 0x1 DUP6 DUP2 SLOAD DUP2 LT PUSH2 0xF64 JUMPI PUSH2 0xF63 PUSH2 0x2124 JUMP JUMPDEST JUMPDEST SWAP1 PUSH1 0x0 MSTORE PUSH1 0x20 PUSH1 0x0 KECCAK256 ADD PUSH1 0x0 SWAP1 SLOAD SWAP1 PUSH2 0x100 EXP SWAP1 DIV PUSH20 0xFFFFFFFFFFFFFFFFFFFFFFFFFFFFFFFFFFFFFFFF AND PUSH20 0xFFFFFFFFFFFFFFFFFFFFFFFFFFFFFFFFFFFFFFFF AND PUSH20 0xFFFFFFFFFFFFFFFFFFFFFFFFFFFFFFFFFFFFFFFF AND DUP2 MSTORE PUSH1 0x20 ADD SWAP1 DUP2 MSTORE PUSH1 0x20 ADD PUSH1 0x0 KECCAK256 PUSH1 0x40 MLOAD DUP1 PUSH1 0x60 ADD PUSH1 0x40 MSTORE SWAP1 DUP2 PUSH1 0x0 DUP3 ADD DUP1 SLOAD PUSH2 0xFE4 SWAP1 PUSH2 0x2182 JUMP JUMPDEST DUP1 PUSH1 0x1F ADD PUSH1 0x20 DUP1 SWAP2 DIV MUL PUSH1 0x20 ADD PUSH1 0x40 MLOAD SWAP1 DUP2 ADD PUSH1 0x40 MSTORE DUP1 SWAP3 SWAP2 SWAP1 DUP2 DUP2 MSTORE PUSH1 0x20 ADD DUP3 DUP1 SLOAD PUSH2 0x1010 SWAP1 PUSH2 0x2182 JUMP JUMPDEST DUP1 ISZERO PUSH2 0x105D JUMPI DUP1 PUSH1 0x1F LT PUSH2 0x1032 JUMPI PUSH2 0x100 DUP1 DUP4 SLOAD DIV MUL DUP4 MSTORE SWAP2 PUSH1 0x20 ADD SWAP2 PUSH2 0x105D JUMP JUMPDEST DUP3 ADD SWAP2 SWAP1 PUSH1 0x0 MSTORE PUSH1 0x20 PUSH1 0x0 KECCAK256 SWAP1 JUMPDEST DUP2 SLOAD DUP2 MSTORE SWAP1 PUSH1 0x1 ADD SWAP1 PUSH1 0x20 ADD DUP1 DUP4 GT PUSH2 0x1040 JUMPI DUP3 SWAP1 SUB PUSH1 0x1F AND DUP3 ADD SWAP2 JUMPDEST POP POP POP POP POP DUP2 MSTORE PUSH1 0x20 ADD PUSH1 0x1 DUP3 ADD DUP1 SLOAD PUSH2 0x1076 SWAP1 PUSH2 0x2182 JUMP JUMPDEST DUP1 PUSH1 0x1F ADD PUSH1 0x20 DUP1 SWAP2 DIV MUL PUSH1 0x20 ADD PUSH1 0x40 MLOAD SWAP1 DUP2 ADD PUSH1 0x40 MSTORE DUP1 SWAP3 SWAP2 SWAP1 DUP2 DUP2 MSTORE PUSH1 0x20 ADD DUP3 DUP1 SLOAD PUSH2 0x10A2 SWAP1 PUSH2 0x2182 JUMP JUMPDEST DUP1 ISZERO PUSH2 0x10EF JUMPI DUP1 PUSH1 0x1F LT PUSH2 0x10C4 JUMPI PUSH2 0x100 DUP1 DUP4 SLOAD DIV MUL DUP4 MSTORE SWAP2 PUSH1 0x20 ADD SWAP2 PUSH2 0x10EF JUMP JUMPDEST DUP3 ADD SWAP2 SWAP1 PUSH1 0x0 MSTORE PUSH1 0x20 PUSH1 0x0 KECCAK256 SWAP1 JUMPDEST DUP2 SLOAD DUP2 MSTORE SWAP1 PUSH1 0x1 ADD SWAP1 PUSH1 0x20 ADD DUP1 DUP4 GT PUSH2 0x10D2 JUMPI DUP3 SWAP1 SUB PUSH1 0x1F AND DUP3 ADD SWAP2 JUMPDEST POP POP POP POP POP DUP2 MSTORE PUSH1 0x20 ADD PUSH1 0x2 DUP3 ADD SLOAD DUP2 MSTORE POP POP SWAP1 POP DUP1 PUSH1 0x20 ADD MLOAD SWAP2 POP POP SWAP2 SWAP1 POP JUMP JUMPDEST PUSH1 0x0 DUP2 PUSH1 0x40 MLOAD PUSH1 0x20 ADD PUSH2 0x1124 SWAP2 SWAP1 PUSH2 0x26A9 JUMP JUMPDEST PUSH1 0x40 MLOAD PUSH1 0x20 DUP2 DUP4 SUB SUB DUP2 MSTORE SWAP1 PUSH1 0x40 MSTORE DUP1 MLOAD SWAP1 PUSH1 0x20 ADD KECCAK256 DUP4 PUSH1 0x40 MLOAD PUSH1 0x20 ADD PUSH2 0x114B SWAP2 SWAP1 PUSH2 0x26A9 JUMP JUMPDEST PUSH1 0x40 MLOAD PUSH1 0x20 DUP2 DUP4 SUB SUB DUP2 MSTORE SWAP1 PUSH1 0x40 MSTORE DUP1 MLOAD SWAP1 PUSH1 0x20 ADD KECCAK256 EQ SWAP1 POP SWAP3 SWAP2 POP POP JUMP JUMPDEST PUSH1 0x1 PUSH1 0x4 PUSH1 0x0 DUP5 PUSH20 0xFFFFFFFFFFFFFFFFFFFFFFFFFFFFFFFFFFFFFFFF AND PUSH20 0xFFFFFFFFFFFFFFFFFFFFFFFFFFFFFFFFFFFFFFFF AND DUP2 MSTORE PUSH1 0x20 ADD SWAP1 DUP2 MSTORE PUSH1 0x20 ADD PUSH1 0x0 KECCAK256 PUSH1 0x0 PUSH2 0x100 EXP DUP2 SLOAD DUP2 PUSH1 0xFF MUL NOT AND SWAP1 DUP4 ISZERO ISZERO MUL OR SWAP1 SSTORE POP PUSH1 0x40 MLOAD DUP1 PUSH1 0x60 ADD PUSH1 0x40 MSTORE DUP1 DUP3 DUP2 MSTORE PUSH1 0x20 ADD PUSH2 0x11DC DUP4 PUSH2 0x1750 JUMP JUMPDEST DUP2 MSTORE PUSH1 0x20 ADD PUSH1 0x0 DUP2 MSTORE POP PUSH1 0x5 PUSH1 0x0 DUP5 PUSH20 0xFFFFFFFFFFFFFFFFFFFFFFFFFFFFFFFFFFFFFFFF AND PUSH20 0xFFFFFFFFFFFFFFFFFFFFFFFFFFFFFFFFFFFFFFFF AND DUP2 MSTORE PUSH1 0x20 ADD SWAP1 DUP2 MSTORE PUSH1 0x20 ADD PUSH1 0x0 KECCAK256 PUSH1 0x0 DUP3 ADD MLOAD DUP2 PUSH1 0x0 ADD SWAP1 DUP2 PUSH2 0x123A SWAP2 SWAP1 PUSH2 0x286C JUMP JUMPDEST POP PUSH1 0x20 DUP3 ADD MLOAD DUP2 PUSH1 0x1 ADD SWAP1 DUP2 PUSH2 0x1250 SWAP2 SWAP1 PUSH2 0x286C JUMP JUMPDEST POP PUSH1 0x40 DUP3 ADD MLOAD DUP2 PUSH1 0x2 ADD SSTORE SWAP1 POP POP PUSH1 0x1 DUP3 SWAP1 DUP1 PUSH1 0x1 DUP2 SLOAD ADD DUP1 DUP3 SSTORE DUP1 SWAP2 POP POP PUSH1 0x1 SWAP1 SUB SWAP1 PUSH1 0x0 MSTORE PUSH1 0x20 PUSH1 0x0 KECCAK256 ADD PUSH1 0x0 SWAP1 SWAP2 SWAP1 SWAP2 SWAP1 SWAP2 PUSH2 0x100 EXP DUP2 SLOAD DUP2 PUSH20 0xFFFFFFFFFFFFFFFFFFFFFFFFFFFFFFFFFFFFFFFF MUL NOT AND SWAP1 DUP4 PUSH20 0xFFFFFFFFFFFFFFFFFFFFFFFFFFFFFFFFFFFFFFFF AND MUL OR SWAP1 SSTORE POP POP POP JUMP JUMPDEST PUSH1 0x0 DUP1 DUP3 SWAP1 POP PUSH1 0x2A DUP2 MLOAD EQ PUSH2 0x130F JUMPI PUSH1 0x40 MLOAD PUSH32 0x8C379A000000000000000000000000000000000000000000000000000000000 DUP2 MSTORE PUSH1 0x4 ADD PUSH2 0x1306 SWAP1 PUSH2 0x298A JUMP JUMPDEST PUSH1 0x40 MLOAD DUP1 SWAP2 SUB SWAP1 REVERT JUMPDEST PUSH1 0x0 DUP1 DUP1 PUSH1 0x2 SWAP1 POP JUMPDEST DUP4 MLOAD DUP2 LT ISZERO PUSH2 0x144D JUMPI PUSH1 0x0 DUP5 DUP3 DUP2 MLOAD DUP2 LT PUSH2 0x1336 JUMPI PUSH2 0x1335 PUSH2 0x2124 JUMP JUMPDEST JUMPDEST PUSH1 0x20 ADD ADD MLOAD PUSH1 0xF8 SHR PUSH1 0xF8 SHL PUSH1 0xF8 SHR SWAP1 POP PUSH1 0x30 DUP2 PUSH1 0xFF AND LT ISZERO DUP1 ISZERO PUSH2 0x135E JUMPI POP PUSH1 0x39 DUP2 PUSH1 0xFF AND GT ISZERO JUMPDEST ISZERO PUSH2 0x137A JUMPI PUSH1 0x30 DUP2 PUSH2 0x1370 SWAP2 SWAP1 PUSH2 0x29B7 JUMP JUMPDEST PUSH1 0xFF AND SWAP3 POP PUSH2 0x141F JUMP JUMPDEST PUSH1 0x41 DUP2 PUSH1 0xFF AND LT ISZERO DUP1 ISZERO PUSH2 0x1392 JUMPI POP PUSH1 0x46 DUP2 PUSH1 0xFF AND GT ISZERO JUMPDEST ISZERO PUSH2 0x13AE JUMPI PUSH1 0x37 DUP2 PUSH2 0x13A4 SWAP2 SWAP1 PUSH2 0x29B7 JUMP JUMPDEST PUSH1 0xFF AND SWAP3 POP PUSH2 0x141E JUMP JUMPDEST PUSH1 0x61 DUP2 PUSH1 0xFF AND LT ISZERO DUP1 ISZERO PUSH2 0x13C6 JUMPI POP PUSH1 0x66 DUP2 PUSH1 0xFF AND GT ISZERO JUMPDEST ISZERO PUSH2 0x13E2 JUMPI PUSH1 0x57 DUP2 PUSH2 0x13D8 SWAP2 SWAP1 PUSH2 0x29B7 JUMP JUMPDEST PUSH1 0xFF AND SWAP3 POP PUSH2 0x141D JUMP JUMPDEST PUSH1 0x40 MLOAD PUSH32 0x8C379A000000000000000000000000000000000000000000000000000000000 DUP2 MSTORE PUSH1 0x4 ADD PUSH2 0x1414 SWAP1 PUSH2 0x2A38 JUMP JUMPDEST PUSH1 0x40 MLOAD DUP1 SWAP2 SUB SWAP1 REVERT JUMPDEST JUMPDEST JUMPDEST DUP3 PUSH1 0x10 DUP6 PUSH2 0x142D SWAP2 SWAP1 PUSH2 0x2A58 JUMP JUMPDEST PUSH2 0x1437 SWAP2 SWAP1 PUSH2 0x2A9A JUMP JUMPDEST SWAP4 POP POP DUP1 DUP1 PUSH2 0x1445 SWAP1 PUSH2 0x2347 JUMP JUMPDEST SWAP2 POP POP PUSH2 0x1318 JUMP JUMPDEST POP DUP2 SWAP4 POP POP POP POP SWAP2 SWAP1 POP JUMP JUMPDEST PUSH1 0x0 PUSH1 0x14 SWAP1 SLOAD SWAP1 PUSH2 0x100 EXP SWAP1 DIV PUSH1 0xFF AND PUSH2 0x14A8 JUMPI PUSH1 0x40 MLOAD PUSH32 0x8C379A000000000000000000000000000000000000000000000000000000000 DUP2 MSTORE PUSH1 0x4 ADD PUSH2 0x149F SWAP1 PUSH2 0x25B1 JUMP JUMPDEST PUSH1 0x40 MLOAD DUP1 SWAP2 SUB SWAP1 REVERT JUMPDEST PUSH1 0x0 PUSH1 0x15 SWAP1 SLOAD SWAP1 PUSH2 0x100 EXP SWAP1 DIV PUSH1 0xFF AND ISZERO PUSH2 0x14F8 JUMPI PUSH1 0x40 MLOAD PUSH32 0x8C379A000000000000000000000000000000000000000000000000000000000 DUP2 MSTORE PUSH1 0x4 ADD PUSH2 0x14EF SWAP1 PUSH2 0x261D JUMP JUMPDEST PUSH1 0x40 MLOAD DUP1 SWAP2 SUB SWAP1 REVERT JUMPDEST PUSH1 0x3 PUSH1 0x0 CALLER PUSH20 0xFFFFFFFFFFFFFFFFFFFFFFFFFFFFFFFFFFFFFFFF AND PUSH20 0xFFFFFFFFFFFFFFFFFFFFFFFFFFFFFFFFFFFFFFFF AND DUP2 MSTORE PUSH1 0x20 ADD SWAP1 DUP2 MSTORE PUSH1 0x20 ADD PUSH1 0x0 KECCAK256 PUSH1 0x0 SWAP1 SLOAD SWAP1 PUSH2 0x100 EXP SWAP1 DIV PUSH1 0xFF AND ISZERO PUSH2 0x1585 JUMPI PUSH1 0x40 MLOAD PUSH32 0x8C379A000000000000000000000000000000000000000000000000000000000 DUP2 MSTORE PUSH1 0x4 ADD PUSH2 0x157C SWAP1 PUSH2 0x2B1A JUMP JUMPDEST PUSH1 0x40 MLOAD DUP1 SWAP2 SUB SWAP1 REVERT JUMPDEST PUSH1 0x2 PUSH1 0x0 CALLER PUSH20 0xFFFFFFFFFFFFFFFFFFFFFFFFFFFFFFFFFFFFFFFF AND PUSH20 0xFFFFFFFFFFFFFFFFFFFFFFFFFFFFFFFFFFFFFFFF AND DUP2 MSTORE PUSH1 0x20 ADD SWAP1 DUP2 MSTORE PUSH1 0x20 ADD PUSH1 0x0 KECCAK256 PUSH1 0x0 SWAP1 SLOAD SWAP1 PUSH2 0x100 EXP SWAP1 DIV PUSH1 0xFF AND PUSH2 0x1611 JUMPI PUSH1 0x40 MLOAD PUSH32 0x8C379A000000000000000000000000000000000000000000000000000000000 DUP2 MSTORE PUSH1 0x4 ADD PUSH2 0x1608 SWAP1 PUSH2 0x2B86 JUMP JUMPDEST PUSH1 0x40 MLOAD DUP1 SWAP2 SUB SWAP1 REVERT JUMPDEST PUSH1 0x4 PUSH1 0x0 DUP3 PUSH20 0xFFFFFFFFFFFFFFFFFFFFFFFFFFFFFFFFFFFFFFFF AND PUSH20 0xFFFFFFFFFFFFFFFFFFFFFFFFFFFFFFFFFFFFFFFF AND DUP2 MSTORE PUSH1 0x20 ADD SWAP1 DUP2 MSTORE PUSH1 0x20 ADD PUSH1 0x0 KECCAK256 PUSH1 0x0 SWAP1 SLOAD SWAP1 PUSH2 0x100 EXP SWAP1 DIV PUSH1 0xFF AND PUSH2 0x169D JUMPI PUSH1 0x40 MLOAD PUSH32 0x8C379A000000000000000000000000000000000000000000000000000000000 DUP2 MSTORE PUSH1 0x4 ADD PUSH2 0x1694 SWAP1 PUSH2 0x2BF2 JUMP JUMPDEST PUSH1 0x40 MLOAD DUP1 SWAP2 SUB SWAP1 REVERT JUMPDEST PUSH1 0x1 PUSH1 0x3 PUSH1 0x0 CALLER PUSH20 0xFFFFFFFFFFFFFFFFFFFFFFFFFFFFFFFFFFFFFFFF AND PUSH20 0xFFFFFFFFFFFFFFFFFFFFFFFFFFFFFFFFFFFFFFFF AND DUP2 MSTORE PUSH1 0x20 ADD SWAP1 DUP2 MSTORE PUSH1 0x20 ADD PUSH1 0x0 KECCAK256 PUSH1 0x0 PUSH2 0x100 EXP DUP2 SLOAD DUP2 PUSH1 0xFF MUL NOT AND SWAP1 DUP4 ISZERO ISZERO MUL OR SWAP1 SSTORE POP PUSH1 0x5 PUSH1 0x0 DUP3 PUSH20 0xFFFFFFFFFFFFFFFFFFFFFFFFFFFFFFFFFFFFFFFF AND PUSH20 0xFFFFFFFFFFFFFFFFFFFFFFFFFFFFFFFFFFFFFFFF AND DUP2 MSTORE PUSH1 0x20 ADD SWAP1 DUP2 MSTORE PUSH1 0x20 ADD PUSH1 0x0 KECCAK256 PUSH1 0x2 ADD PUSH1 0x0 DUP2 SLOAD DUP1 SWAP3 SWAP2 SWAP1 PUSH2 0x1748 SWAP1 PUSH2 0x2347 JUMP JUMPDEST SWAP2 SWAP1 POP SSTORE POP POP JUMP JUMPDEST PUSH1 0x60 PUSH1 0x0 DUP3 SWAP1 POP PUSH1 0x0 DUP2 PUSH1 0x0 DUP2 MLOAD DUP2 LT PUSH2 0x176D JUMPI PUSH2 0x176C PUSH2 0x2124 JUMP JUMPDEST JUMPDEST PUSH1 0x20 ADD ADD MLOAD PUSH1 0xF8 SHR PUSH1 0xF8 SHL SWAP1 POP PUSH1 0x0 DUP3 PUSH1 0x1 DUP5 MLOAD PUSH2 0x178B SWAP2 SWAP1 PUSH2 0x2C12 JUMP JUMPDEST DUP2 MLOAD DUP2 LT PUSH2 0x179C JUMPI PUSH2 0x179B PUSH2 0x2124 JUMP JUMPDEST JUMPDEST PUSH1 0x20 ADD ADD MLOAD PUSH1 0xF8 SHR PUSH1 0xF8 SHL SWAP1 POP PUSH1 0x0 PUSH1 0x2 PUSH8 0xFFFFFFFFFFFFFFFF DUP2 GT ISZERO PUSH2 0x17C6 JUMPI PUSH2 0x17C5 PUSH2 0x1E4D JUMP JUMPDEST JUMPDEST PUSH1 0x40 MLOAD SWAP1 DUP1 DUP3 MSTORE DUP1 PUSH1 0x1F ADD PUSH1 0x1F NOT AND PUSH1 0x20 ADD DUP3 ADD PUSH1 0x40 MSTORE DUP1 ISZERO PUSH2 0x17F8 JUMPI DUP2 PUSH1 0x20 ADD PUSH1 0x1 DUP3 MUL DUP1 CALLDATASIZE DUP4 CALLDATACOPY DUP1 DUP3 ADD SWAP2 POP POP SWAP1 POP JUMPDEST POP SWAP1 POP DUP3 DUP2 PUSH1 0x0 DUP2 MLOAD DUP2 LT PUSH2 0x1810 JUMPI PUSH2 0x180F PUSH2 0x2124 JUMP JUMPDEST JUMPDEST PUSH1 0x20 ADD ADD SWAP1 PUSH31 0xFFFFFFFFFFFFFFFFFFFFFFFFFFFFFFFFFFFFFFFFFFFFFFFFFFFFFFFFFFFFFF NOT AND SWAP1 DUP2 PUSH1 0x0 BYTE SWAP1 MSTORE8 POP DUP2 DUP2 PUSH1 0x1 DUP2 MLOAD DUP2 LT PUSH2 0x1854 JUMPI PUSH2 0x1853 PUSH2 0x2124 JUMP JUMPDEST JUMPDEST PUSH1 0x20 ADD ADD SWAP1 PUSH31 0xFFFFFFFFFFFFFFFFFFFFFFFFFFFFFFFFFFFFFFFFFFFFFFFFFFFFFFFFFFFFFF NOT AND SWAP1 DUP2 PUSH1 0x0 BYTE SWAP1 MSTORE8 POP PUSH1 0x0 PUSH2 0x188D PUSH2 0x835 JUMP JUMPDEST SWAP1 POP PUSH1 0x0 JUMPDEST DUP2 DUP2 LT ISZERO PUSH2 0x1BDF JUMPI PUSH1 0x0 PUSH1 0x5 PUSH1 0x0 PUSH1 0x1 DUP5 DUP2 SLOAD DUP2 LT PUSH2 0x18B4 JUMPI PUSH2 0x18B3 PUSH2 0x2124 JUMP JUMPDEST JUMPDEST SWAP1 PUSH1 0x0 MSTORE PUSH1 0x20 PUSH1 0x0 KECCAK256 ADD PUSH1 0x0 SWAP1 SLOAD SWAP1 PUSH2 0x100 EXP SWAP1 DIV PUSH20 0xFFFFFFFFFFFFFFFFFFFFFFFFFFFFFFFFFFFFFFFF AND PUSH20 0xFFFFFFFFFFFFFFFFFFFFFFFFFFFFFFFFFFFFFFFF AND PUSH20 0xFFFFFFFFFFFFFFFFFFFFFFFFFFFFFFFFFFFFFFFF AND DUP2 MSTORE PUSH1 0x20 ADD SWAP1 DUP2 MSTORE PUSH1 0x20 ADD PUSH1 0x0 KECCAK256 PUSH1 0x40 MLOAD DUP1 PUSH1 0x60 ADD PUSH1 0x40 MSTORE SWAP1 DUP2 PUSH1 0x0 DUP3 ADD DUP1 SLOAD PUSH2 0x1934 SWAP1 PUSH2 0x2182 JUMP JUMPDEST DUP1 PUSH1 0x1F ADD PUSH1 0x20 DUP1 SWAP2 DIV MUL PUSH1 0x20 ADD PUSH1 0x40 MLOAD SWAP1 DUP2 ADD PUSH1 0x40 MSTORE DUP1 SWAP3 SWAP2 SWAP1 DUP2 DUP2 MSTORE PUSH1 0x20 ADD DUP3 DUP1 SLOAD PUSH2 0x1960 SWAP1 PUSH2 0x2182 JUMP JUMPDEST DUP1 ISZERO PUSH2 0x19AD JUMPI DUP1 PUSH1 0x1F LT PUSH2 0x1982 JUMPI PUSH2 0x100 DUP1 DUP4 SLOAD DIV MUL DUP4 MSTORE SWAP2 PUSH1 0x20 ADD SWAP2 PUSH2 0x19AD JUMP JUMPDEST DUP3 ADD SWAP2 SWAP1 PUSH1 0x0 MSTORE PUSH1 0x20 PUSH1 0x0 KECCAK256 SWAP1 JUMPDEST DUP2 SLOAD DUP2 MSTORE SWAP1 PUSH1 0x1 ADD SWAP1 PUSH1 0x20 ADD DUP1 DUP4 GT PUSH2 0x1990 JUMPI DUP3 SWAP1 SUB PUSH1 0x1F AND DUP3 ADD SWAP2 JUMPDEST POP POP POP POP POP DUP2 MSTORE PUSH1 0x20 ADD PUSH1 0x1 DUP3 ADD DUP1 SLOAD PUSH2 0x19C6 SWAP1 PUSH2 0x2182 JUMP JUMPDEST DUP1 PUSH1 0x1F ADD PUSH1 0x20 DUP1 SWAP2 DIV MUL PUSH1 0x20 ADD PUSH1 0x40 MLOAD SWAP1 DUP2 ADD PUSH1 0x40 MSTORE DUP1 SWAP3 SWAP2 SWAP1 DUP2 DUP2 MSTORE PUSH1 0x20 ADD DUP3 DUP1 SLOAD PUSH2 0x19F2 SWAP1 PUSH2 0x2182 JUMP JUMPDEST DUP1 ISZERO PUSH2 0x1A3F JUMPI DUP1 PUSH1 0x1F LT PUSH2 0x1A14 JUMPI PUSH2 0x100 DUP1 DUP4 SLOAD DIV MUL DUP4 MSTORE SWAP2 PUSH1 0x20 ADD SWAP2 PUSH2 0x1A3F JUMP JUMPDEST DUP3 ADD SWAP2 SWAP1 PUSH1 0x0 MSTORE PUSH1 0x20 PUSH1 0x0 KECCAK256 SWAP1 JUMPDEST DUP2 SLOAD DUP2 MSTORE SWAP1 PUSH1 0x1 ADD SWAP1 PUSH1 0x20 ADD DUP1 DUP4 GT PUSH2 0x1A22 JUMPI DUP3 SWAP1 SUB PUSH1 0x1F AND DUP3 ADD SWAP2 JUMPDEST POP POP POP POP POP DUP2 MSTORE PUSH1 0x20 ADD PUSH1 0x2 DUP3 ADD SLOAD DUP2 MSTORE POP POP SWAP1 POP PUSH1 0x0 DUP2 PUSH1 0x0 ADD MLOAD SWAP1 POP PUSH1 0x0 PUSH1 0x2 PUSH8 0xFFFFFFFFFFFFFFFF DUP2 GT ISZERO PUSH2 0x1A7A JUMPI PUSH2 0x1A79 PUSH2 0x1E4D JUMP JUMPDEST JUMPDEST PUSH1 0x40 MLOAD SWAP1 DUP1 DUP3 MSTORE DUP1 PUSH1 0x1F ADD PUSH1 0x1F NOT AND PUSH1 0x20 ADD DUP3 ADD PUSH1 0x40 MSTORE DUP1 ISZERO PUSH2 0x1AAC JUMPI DUP2 PUSH1 0x20 ADD PUSH1 0x1 DUP3 MUL DUP1 CALLDATASIZE DUP4 CALLDATACOPY DUP1 DUP3 ADD SWAP2 POP POP SWAP1 POP JUMPDEST POP SWAP1 POP DUP2 PUSH1 0x0 DUP2 MLOAD DUP2 LT PUSH2 0x1AC3 JUMPI PUSH2 0x1AC2 PUSH2 0x2124 JUMP JUMPDEST JUMPDEST PUSH1 0x20 ADD ADD MLOAD PUSH1 0xF8 SHR PUSH1 0xF8 SHL DUP2 PUSH1 0x0 DUP2 MLOAD DUP2 LT PUSH2 0x1AE2 JUMPI PUSH2 0x1AE1 PUSH2 0x2124 JUMP JUMPDEST JUMPDEST PUSH1 0x20 ADD ADD SWAP1 PUSH31 0xFFFFFFFFFFFFFFFFFFFFFFFFFFFFFFFFFFFFFFFFFFFFFFFFFFFFFFFFFFFFFF NOT AND SWAP1 DUP2 PUSH1 0x0 BYTE SWAP1 MSTORE8 POP DUP2 PUSH1 0x1 DUP4 MLOAD PUSH2 0x1B20 SWAP2 SWAP1 PUSH2 0x2C12 JUMP JUMPDEST DUP2 MLOAD DUP2 LT PUSH2 0x1B31 JUMPI PUSH2 0x1B30 PUSH2 0x2124 JUMP JUMPDEST JUMPDEST PUSH1 0x20 ADD ADD MLOAD PUSH1 0xF8 SHR PUSH1 0xF8 SHL DUP2 PUSH1 0x1 DUP2 MLOAD DUP2 LT PUSH2 0x1B50 JUMPI PUSH2 0x1B4F PUSH2 0x2124 JUMP JUMPDEST JUMPDEST PUSH1 0x20 ADD ADD SWAP1 PUSH31 0xFFFFFFFFFFFFFFFFFFFFFFFFFFFFFFFFFFFFFFFFFFFFFFFFFFFFFFFFFFFFFF NOT AND SWAP1 DUP2 PUSH1 0x0 BYTE SWAP1 MSTORE8 POP PUSH2 0x1B89 DUP2 DUP8 PUSH2 0x1BED JUMP JUMPDEST ISZERO PUSH2 0x1BC9 JUMPI PUSH1 0x40 MLOAD PUSH32 0x8C379A000000000000000000000000000000000000000000000000000000000 DUP2 MSTORE PUSH1 0x4 ADD PUSH2 0x1BC0 SWAP1 PUSH2 0x2C92 JUMP JUMPDEST PUSH1 0x40 MLOAD DUP1 SWAP2 SUB SWAP1 REVERT JUMPDEST POP POP POP DUP1 DUP1 PUSH2 0x1BD7 SWAP1 PUSH2 0x2347 JUMP JUMPDEST SWAP2 POP POP PUSH2 0x1892 JUMP JUMPDEST POP DUP2 SWAP6 POP POP POP POP POP POP SWAP2 SWAP1 POP JUMP JUMPDEST PUSH1 0x0 DUP2 MLOAD DUP4 MLOAD EQ PUSH2 0x1C01 JUMPI PUSH1 0x0 SWAP1 POP PUSH2 0x1CB5 JUMP JUMPDEST PUSH1 0x0 JUMPDEST DUP4 MLOAD DUP2 LT ISZERO PUSH2 0x1CAF JUMPI DUP3 DUP2 DUP2 MLOAD DUP2 LT PUSH2 0x1C20 JUMPI PUSH2 0x1C1F PUSH2 0x2124 JUMP JUMPDEST JUMPDEST PUSH1 0x20 ADD ADD MLOAD PUSH1 0xF8 SHR PUSH1 0xF8 SHL PUSH31 0xFFFFFFFFFFFFFFFFFFFFFFFFFFFFFFFFFFFFFFFFFFFFFFFFFFFFFFFFFFFFFF NOT AND DUP5 DUP3 DUP2 MLOAD DUP2 LT PUSH2 0x1C60 JUMPI PUSH2 0x1C5F PUSH2 0x2124 JUMP JUMPDEST JUMPDEST PUSH1 0x20 ADD ADD MLOAD PUSH1 0xF8 SHR PUSH1 0xF8 SHL PUSH31 0xFFFFFFFFFFFFFFFFFFFFFFFFFFFFFFFFFFFFFFFFFFFFFFFFFFFFFFFFFFFFFF NOT AND EQ PUSH2 0x1C9C JUMPI PUSH1 0x0 SWAP2 POP POP PUSH2 0x1CB5 JUMP JUMPDEST DUP1 DUP1 PUSH2 0x1CA7 SWAP1 PUSH2 0x2347 JUMP JUMPDEST SWAP2 POP POP PUSH2 0x1C04 JUMP JUMPDEST POP PUSH1 0x1 SWAP1 POP JUMPDEST SWAP3 SWAP2 POP POP JUMP JUMPDEST PUSH1 0x0 DUP2 MLOAD SWAP1 POP SWAP2 SWAP1 POP JUMP JUMPDEST PUSH1 0x0 DUP3 DUP3 MSTORE PUSH1 0x20 DUP3 ADD SWAP1 POP SWAP3 SWAP2 POP POP JUMP JUMPDEST PUSH1 0x0 DUP2 SWAP1 POP PUSH1 0x20 DUP3 ADD SWAP1 POP SWAP2 SWAP1 POP JUMP JUMPDEST PUSH1 0x0 DUP2 MLOAD SWAP1 POP SWAP2 SWAP1 POP JUMP JUMPDEST PUSH1 0x0 DUP3 DUP3 MSTORE PUSH1 0x20 DUP3 ADD SWAP1 POP SWAP3 SWAP2 POP POP JUMP JUMPDEST PUSH1 0x0 JUMPDEST DUP4 DUP2 LT ISZERO PUSH2 0x1D21 JUMPI DUP1 DUP3 ADD MLOAD DUP2 DUP5 ADD MSTORE PUSH1 0x20 DUP2 ADD SWAP1 POP PUSH2 0x1D06 JUMP JUMPDEST PUSH1 0x0 DUP5 DUP5 ADD MSTORE POP POP POP POP JUMP JUMPDEST PUSH1 0x0 PUSH1 0x1F NOT PUSH1 0x1F DUP4 ADD AND SWAP1 POP SWAP2 SWAP1 POP JUMP JUMPDEST PUSH1 0x0 PUSH2 0x1D49 DUP3 PUSH2 0x1CE7 JUMP JUMPDEST PUSH2 0x1D53 DUP2 DUP6 PUSH2 0x1CF2 JUMP JUMPDEST SWAP4 POP PUSH2 0x1D63 DUP2 DUP6 PUSH1 0x20 DUP7 ADD PUSH2 0x1D03 JUMP JUMPDEST PUSH2 0x1D6C DUP2 PUSH2 0x1D2D JUMP JUMPDEST DUP5 ADD SWAP2 POP POP SWAP3 SWAP2 POP POP JUMP JUMPDEST PUSH1 0x0 PUSH2 0x1D83 DUP4 DUP4 PUSH2 0x1D3E JUMP JUMPDEST SWAP1 POP SWAP3 SWAP2 POP POP JUMP JUMPDEST PUSH1 0x0 PUSH1 0x20 DUP3 ADD SWAP1 POP SWAP2 SWAP1 POP JUMP JUMPDEST PUSH1 0x0 PUSH2 0x1DA3 DUP3 PUSH2 0x1CBB JUMP JUMPDEST PUSH2 0x1DAD DUP2 DUP6 PUSH2 0x1CC6 JUMP JUMPDEST SWAP4 POP DUP4 PUSH1 0x20 DUP3 MUL DUP6 ADD PUSH2 0x1DBF DUP6 PUSH2 0x1CD7 JUMP JUMPDEST DUP1 PUSH1 0x0 JUMPDEST DUP6 DUP2 LT ISZERO PUSH2 0x1DFB JUMPI DUP5 DUP5 SUB DUP10 MSTORE DUP2 MLOAD PUSH2 0x1DDC DUP6 DUP3 PUSH2 0x1D77 JUMP JUMPDEST SWAP5 POP PUSH2 0x1DE7 DUP4 PUSH2 0x1D8B JUMP JUMPDEST SWAP3 POP PUSH1 0x20 DUP11 ADD SWAP10 POP POP PUSH1 0x1 DUP2 ADD SWAP1 POP PUSH2 0x1DC3 JUMP JUMPDEST POP DUP3 SWAP8 POP DUP8 SWAP6 POP POP POP POP POP POP SWAP3 SWAP2 POP POP JUMP JUMPDEST PUSH1 0x0 PUSH1 0x20 DUP3 ADD SWAP1 POP DUP2 DUP2 SUB PUSH1 0x0 DUP4 ADD MSTORE PUSH2 0x1E27 DUP2 DUP5 PUSH2 0x1D98 JUMP JUMPDEST SWAP1 POP SWAP3 SWAP2 POP POP JUMP JUMPDEST PUSH1 0x0 PUSH1 0x40 MLOAD SWAP1 POP SWAP1 JUMP JUMPDEST PUSH1 0x0 DUP1 REVERT JUMPDEST PUSH1 0x0 DUP1 REVERT JUMPDEST PUSH1 0x0 DUP1 REVERT JUMPDEST PUSH1 0x0 DUP1 REVERT JUMPDEST PUSH32 0x4E487B7100000000000000000000000000000000000000000000000000000000 PUSH1 0x0 MSTORE PUSH1 0x41 PUSH1 0x4 MSTORE PUSH1 0x24 PUSH1 0x0 REVERT JUMPDEST PUSH2 0x1E85 DUP3 PUSH2 0x1D2D JUMP JUMPDEST DUP2 ADD DUP2 DUP2 LT PUSH8 0xFFFFFFFFFFFFFFFF DUP3 GT OR ISZERO PUSH2 0x1EA4 JUMPI PUSH2 0x1EA3 PUSH2 0x1E4D JUMP JUMPDEST JUMPDEST DUP1 PUSH1 0x40 MSTORE POP POP POP JUMP JUMPDEST PUSH1 0x0 PUSH2 0x1EB7 PUSH2 0x1E2F JUMP JUMPDEST SWAP1 POP PUSH2 0x1EC3 DUP3 DUP3 PUSH2 0x1E7C JUMP JUMPDEST SWAP2 SWAP1 POP JUMP JUMPDEST PUSH1 0x0 PUSH8 0xFFFFFFFFFFFFFFFF DUP3 GT ISZERO PUSH2 0x1EE3 JUMPI PUSH2 0x1EE2 PUSH2 0x1E4D JUMP JUMPDEST JUMPDEST PUSH2 0x1EEC DUP3 PUSH2 0x1D2D JUMP JUMPDEST SWAP1 POP PUSH1 0x20 DUP2 ADD SWAP1 POP SWAP2 SWAP1 POP JUMP JUMPDEST DUP3 DUP2 DUP4 CALLDATACOPY PUSH1 0x0 DUP4 DUP4 ADD MSTORE POP POP POP JUMP JUMPDEST PUSH1 0x0 PUSH2 0x1F1B PUSH2 0x1F16 DUP5 PUSH2 0x1EC8 JUMP JUMPDEST PUSH2 0x1EAD JUMP JUMPDEST SWAP1 POP DUP3 DUP2 MSTORE PUSH1 0x20 DUP2 ADD DUP5 DUP5 DUP5 ADD GT ISZERO PUSH2 0x1F37 JUMPI PUSH2 0x1F36 PUSH2 0x1E48 JUMP JUMPDEST JUMPDEST PUSH2 0x1F42 DUP5 DUP3 DUP6 PUSH2 0x1EF9 JUMP JUMPDEST POP SWAP4 SWAP3 POP POP POP JUMP JUMPDEST PUSH1 0x0 DUP3 PUSH1 0x1F DUP4 ADD SLT PUSH2 0x1F5F JUMPI PUSH2 0x1F5E PUSH2 0x1E43 JUMP JUMPDEST JUMPDEST DUP2 CALLDATALOAD PUSH2 0x1F6F DUP5 DUP3 PUSH1 0x20 DUP7 ADD PUSH2 0x1F08 JUMP JUMPDEST SWAP2 POP POP SWAP3 SWAP2 POP POP JUMP JUMPDEST PUSH1 0x0 PUSH1 0x20 DUP3 DUP5 SUB SLT ISZERO PUSH2 0x1F8E JUMPI PUSH2 0x1F8D PUSH2 0x1E39 JUMP JUMPDEST JUMPDEST PUSH1 0x0 DUP3 ADD CALLDATALOAD PUSH8 0xFFFFFFFFFFFFFFFF DUP2 GT ISZERO PUSH2 0x1FAC JUMPI PUSH2 0x1FAB PUSH2 0x1E3E JUMP JUMPDEST JUMPDEST PUSH2 0x1FB8 DUP5 DUP3 DUP6 ADD PUSH2 0x1F4A JUMP JUMPDEST SWAP2 POP POP SWAP3 SWAP2 POP POP JUMP JUMPDEST PUSH1 0x0 PUSH20 0xFFFFFFFFFFFFFFFFFFFFFFFFFFFFFFFFFFFFFFFF DUP3 AND SWAP1 POP SWAP2 SWAP1 POP JUMP JUMPDEST PUSH1 0x0 PUSH2 0x1FEC DUP3 PUSH2 0x1FC1 JUMP JUMPDEST SWAP1 POP SWAP2 SWAP1 POP JUMP JUMPDEST PUSH2 0x1FFC DUP2 PUSH2 0x1FE1 JUMP JUMPDEST DUP3 MSTORE POP POP JUMP JUMPDEST PUSH1 0x0 DUP3 DUP3 MSTORE PUSH1 0x20 DUP3 ADD SWAP1 POP SWAP3 SWAP2 POP POP JUMP JUMPDEST PUSH1 0x0 PUSH2 0x201E DUP3 PUSH2 0x1CE7 JUMP JUMPDEST PUSH2 0x2028 DUP2 DUP6 PUSH2 0x2002 JUMP JUMPDEST SWAP4 POP PUSH2 0x2038 DUP2 DUP6 PUSH1 0x20 DUP7 ADD PUSH2 0x1D03 JUMP JUMPDEST PUSH2 0x2041 DUP2 PUSH2 0x1D2D JUMP JUMPDEST DUP5 ADD SWAP2 POP POP SWAP3 SWAP2 POP POP JUMP JUMPDEST PUSH1 0x0 DUP2 SWAP1 POP SWAP2 SWAP1 POP JUMP JUMPDEST PUSH2 0x205F DUP2 PUSH2 0x204C JUMP JUMPDEST DUP3 MSTORE POP POP JUMP JUMPDEST PUSH1 0x0 PUSH1 0x60 DUP3 ADD SWAP1 POP PUSH2 0x207A PUSH1 0x0 DUP4 ADD DUP7 PUSH2 0x1FF3 JUMP JUMPDEST DUP2 DUP2 SUB PUSH1 0x20 DUP4 ADD MSTORE PUSH2 0x208C DUP2 DUP6 PUSH2 0x2013 JUMP JUMPDEST SWAP1 POP PUSH2 0x209B PUSH1 0x40 DUP4 ADD DUP5 PUSH2 0x2056 JUMP JUMPDEST SWAP5 SWAP4 POP POP POP POP JUMP JUMPDEST PUSH1 0x0 PUSH1 0x20 DUP3 ADD SWAP1 POP PUSH2 0x20B8 PUSH1 0x0 DUP4 ADD DUP5 PUSH2 0x2056 JUMP JUMPDEST SWAP3 SWAP2 POP POP JUMP JUMPDEST PUSH1 0x0 PUSH1 0x20 DUP3 ADD SWAP1 POP DUP2 DUP2 SUB PUSH1 0x0 DUP4 ADD MSTORE PUSH2 0x20D8 DUP2 DUP5 PUSH2 0x2013 JUMP JUMPDEST SWAP1 POP SWAP3 SWAP2 POP POP JUMP JUMPDEST PUSH1 0x0 DUP2 ISZERO ISZERO SWAP1 POP SWAP2 SWAP1 POP JUMP JUMPDEST PUSH2 0x20F5 DUP2 PUSH2 0x20E0 JUMP JUMPDEST DUP3 MSTORE POP POP JUMP JUMPDEST PUSH1 0x0 PUSH1 0x40 DUP3 ADD SWAP1 POP PUSH2 0x2110 PUSH1 0x0 DUP4 ADD DUP6 PUSH2 0x20EC JUMP JUMPDEST PUSH2 0x211D PUSH1 0x20 DUP4 ADD DUP5 PUSH2 0x20EC JUMP JUMPDEST SWAP4 SWAP3 POP POP POP JUMP JUMPDEST PUSH32 0x4E487B7100000000000000000000000000000000000000000000000000000000 PUSH1 0x0 MSTORE PUSH1 0x32 PUSH1 0x4 MSTORE PUSH1 0x24 PUSH1 0x0 REVERT JUMPDEST PUSH32 0x4E487B7100000000000000000000000000000000000000000000000000000000 PUSH1 0x0 MSTORE PUSH1 0x22 PUSH1 0x4 MSTORE PUSH1 0x24 PUSH1 0x0 REVERT JUMPDEST PUSH1 0x0 PUSH1 0x2 DUP3 DIV SWAP1 POP PUSH1 0x1 DUP3 AND DUP1 PUSH2 0x219A JUMPI PUSH1 0x7F DUP3 AND SWAP2 POP JUMPDEST PUSH1 0x20 DUP3 LT DUP2 SUB PUSH2 0x21AD JUMPI PUSH2 0x21AC PUSH2 0x2153 JUMP JUMPDEST JUMPDEST POP SWAP2 SWAP1 POP JUMP JUMPDEST PUSH1 0x0 DUP2 SWAP1 POP SWAP3 SWAP2 POP POP JUMP JUMPDEST PUSH32 0x2000000000000000000000000000000000000000000000000000000000000000 PUSH1 0x0 DUP3 ADD MSTORE POP JUMP JUMPDEST PUSH1 0x0 PUSH2 0x21F4 PUSH1 0x1 DUP4 PUSH2 0x21B3 JUMP JUMPDEST SWAP2 POP PUSH2 0x21FF DUP3 PUSH2 0x21BE JUMP JUMPDEST PUSH1 0x1 DUP3 ADD SWAP1 POP SWAP2 SWAP1 POP JUMP JUMPDEST PUSH1 0x0 PUSH2 0x2215 DUP3 PUSH2 0x1CE7 JUMP JUMPDEST PUSH2 0x221F DUP2 DUP6 PUSH2 0x21B3 JUMP JUMPDEST SWAP4 POP PUSH2 0x222F DUP2 DUP6 PUSH1 0x20 DUP7 ADD PUSH2 0x1D03 JUMP JUMPDEST DUP1 DUP5 ADD SWAP2 POP POP SWAP3 SWAP2 POP POP JUMP JUMPDEST PUSH32 0x2028000000000000000000000000000000000000000000000000000000000000 PUSH1 0x0 DUP3 ADD MSTORE POP JUMP JUMPDEST PUSH1 0x0 PUSH2 0x2271 PUSH1 0x2 DUP4 PUSH2 0x21B3 JUMP JUMPDEST SWAP2 POP PUSH2 0x227C DUP3 PUSH2 0x223B JUMP JUMPDEST PUSH1 0x2 DUP3 ADD SWAP1 POP SWAP2 SWAP1 POP JUMP JUMPDEST PUSH32 0x2900000000000000000000000000000000000000000000000000000000000000 PUSH1 0x0 DUP3 ADD MSTORE POP JUMP JUMPDEST PUSH1 0x0 PUSH2 0x22BD PUSH1 0x1 DUP4 PUSH2 0x21B3 JUMP JUMPDEST SWAP2 POP PUSH2 0x22C8 DUP3 PUSH2 0x2287 JUMP JUMPDEST PUSH1 0x1 DUP3 ADD SWAP1 POP SWAP2 SWAP1 POP JUMP JUMPDEST PUSH1 0x0 PUSH2 0x22DE DUP3 PUSH2 0x21E7 JUMP JUMPDEST SWAP2 POP PUSH2 0x22EA DUP3 DUP6 PUSH2 0x220A JUMP JUMPDEST SWAP2 POP PUSH2 0x22F5 DUP3 PUSH2 0x2264 JUMP JUMPDEST SWAP2 POP PUSH2 0x2301 DUP3 DUP5 PUSH2 0x220A JUMP JUMPDEST SWAP2 POP PUSH2 0x230C DUP3 PUSH2 0x22B0 JUMP JUMPDEST SWAP2 POP DUP2 SWAP1 POP SWAP4 SWAP3 POP POP POP JUMP JUMPDEST PUSH32 0x4E487B7100000000000000000000000000000000000000000000000000000000 PUSH1 0x0 MSTORE PUSH1 0x11 PUSH1 0x4 MSTORE PUSH1 0x24 PUSH1 0x0 REVERT JUMPDEST PUSH1 0x0 PUSH2 0x2352 DUP3 PUSH2 0x204C JUMP JUMPDEST SWAP2 POP PUSH32 0xFFFFFFFFFFFFFFFFFFFFFFFFFFFFFFFFFFFFFFFFFFFFFFFFFFFFFFFFFFFFFFFF DUP3 SUB PUSH2 0x2384 JUMPI PUSH2 0x2383 PUSH2 0x2318 JUMP JUMPDEST JUMPDEST PUSH1 0x1 DUP3 ADD SWAP1 POP SWAP2 SWAP1 POP JUMP JUMPDEST PUSH32 0x4944206E6F7420666F756E640000000000000000000000000000000000000000 PUSH1 0x0 DUP3 ADD MSTORE POP JUMP JUMPDEST PUSH1 0x0 PUSH2 0x23C5 PUSH1 0xC DUP4 PUSH2 0x2002 JUMP JUMPDEST SWAP2 POP PUSH2 0x23D0 DUP3 PUSH2 0x238F JUMP JUMPDEST PUSH1 0x20 DUP3 ADD SWAP1 POP SWAP2 SWAP1 POP JUMP JUMPDEST PUSH1 0x0 PUSH1 0x20 DUP3 ADD SWAP1 POP DUP2 DUP2 SUB PUSH1 0x0 DUP4 ADD MSTORE PUSH2 0x23F4 DUP2 PUSH2 0x23B8 JUMP JUMPDEST SWAP1 POP SWAP2 SWAP1 POP JUMP JUMPDEST PUSH32 0x4F6E6C792061646D696E2063616E20706572666F726D20746869732061637469 PUSH1 0x0 DUP3 ADD MSTORE PUSH32 0x6F6E000000000000000000000000000000000000000000000000000000000000 PUSH1 0x20 DUP3 ADD MSTORE POP JUMP JUMPDEST PUSH1 0x0 PUSH2 0x2457 PUSH1 0x22 DUP4 PUSH2 0x2002 JUMP JUMPDEST SWAP2 POP PUSH2 0x2462 DUP3 PUSH2 0x23FB JUMP JUMPDEST PUSH1 0x40 DUP3 ADD SWAP1 POP SWAP2 SWAP1 POP JUMP JUMPDEST PUSH1 0x0 PUSH1 0x20 DUP3 ADD SWAP1 POP DUP2 DUP2 SUB PUSH1 0x0 DUP4 ADD MSTORE PUSH2 0x2486 DUP2 PUSH2 0x244A JUMP JUMPDEST SWAP1 POP SWAP2 SWAP1 POP JUMP JUMPDEST PUSH32 0x456C656374696F6E20696E2070726F67726573732E2E2E000000000000000000 PUSH1 0x0 DUP3 ADD MSTORE POP JUMP JUMPDEST PUSH1 0x0 PUSH2 0x24C3 PUSH1 0x17 DUP4 PUSH2 0x2002 JUMP JUMPDEST SWAP2 POP PUSH2 0x24CE DUP3 PUSH2 0x248D JUMP JUMPDEST PUSH1 0x20 DUP3 ADD SWAP1 POP SWAP2 SWAP1 POP JUMP JUMPDEST PUSH1 0x0 PUSH1 0x20 DUP3 ADD SWAP1 POP DUP2 DUP2 SUB PUSH1 0x0 DUP4 ADD MSTORE PUSH2 0x24F2 DUP2 PUSH2 0x24B6 JUMP JUMPDEST SWAP1 POP SWAP2 SWAP1 POP JUMP JUMPDEST PUSH32 0x43616E64696461746520697320616C7265647920726567697374726572642E00 PUSH1 0x0 DUP3 ADD MSTORE POP JUMP JUMPDEST PUSH1 0x0 PUSH2 0x252F PUSH1 0x1F DUP4 PUSH2 0x2002 JUMP JUMPDEST SWAP2 POP PUSH2 0x253A DUP3 PUSH2 0x24F9 JUMP JUMPDEST PUSH1 0x20 DUP3 ADD SWAP1 POP SWAP2 SWAP1 POP JUMP JUMPDEST PUSH1 0x0 PUSH1 0x20 DUP3 ADD SWAP1 POP DUP2 DUP2 SUB PUSH1 0x0 DUP4 ADD MSTORE PUSH2 0x255E DUP2 PUSH2 0x2522 JUMP JUMPDEST SWAP1 POP SWAP2 SWAP1 POP JUMP JUMPDEST PUSH32 0x456C656374696F6E20686173206E6F7420737461727465640000000000000000 PUSH1 0x0 DUP3 ADD MSTORE POP JUMP JUMPDEST PUSH1 0x0 PUSH2 0x259B PUSH1 0x18 DUP4 PUSH2 0x2002 JUMP JUMPDEST SWAP2 POP PUSH2 0x25A6 DUP3 PUSH2 0x2565 JUMP JUMPDEST PUSH1 0x20 DUP3 ADD SWAP1 POP SWAP2 SWAP1 POP JUMP JUMPDEST PUSH1 0x0 PUSH1 0x20 DUP3 ADD SWAP1 POP DUP2 DUP2 SUB PUSH1 0x0 DUP4 ADD MSTORE PUSH2 0x25CA DUP2 PUSH2 0x258E JUMP JUMPDEST SWAP1 POP SWAP2 SWAP1 POP JUMP JUMPDEST PUSH32 0x456C656374696F6E2068617320616C726561647920656E646564000000000000 PUSH1 0x0 DUP3 ADD MSTORE POP JUMP JUMPDEST PUSH1 0x0 PUSH2 0x2607 PUSH1 0x1A DUP4 PUSH2 0x2002 JUMP JUMPDEST SWAP2 POP PUSH2 0x2612 DUP3 PUSH2 0x25D1 JUMP JUMPDEST PUSH1 0x20 DUP3 ADD SWAP1 POP SWAP2 SWAP1 POP JUMP JUMPDEST PUSH1 0x0 PUSH1 0x20 DUP3 ADD SWAP1 POP DUP2 DUP2 SUB PUSH1 0x0 DUP4 ADD MSTORE PUSH2 0x2636 DUP2 PUSH2 0x25FA JUMP JUMPDEST SWAP1 POP SWAP2 SWAP1 POP JUMP JUMPDEST PUSH32 0x43616E64696461746520696E646578206F7574206F662072616E676500000000 PUSH1 0x0 DUP3 ADD MSTORE POP JUMP JUMPDEST PUSH1 0x0 PUSH2 0x2673 PUSH1 0x1C DUP4 PUSH2 0x2002 JUMP JUMPDEST SWAP2 POP PUSH2 0x267E DUP3 PUSH2 0x263D JUMP JUMPDEST PUSH1 0x20 DUP3 ADD SWAP1 POP SWAP2 SWAP1 POP JUMP JUMPDEST PUSH1 0x0 PUSH1 0x20 DUP3 ADD SWAP1 POP DUP2 DUP2 SUB PUSH1 0x0 DUP4 ADD MSTORE PUSH2 0x26A2 DUP2 PUSH2 0x2666 JUMP JUMPDEST SWAP1 POP SWAP2 SWAP1 POP JUMP JUMPDEST PUSH1 0x0 PUSH2 0x26B5 DUP3 DUP5 PUSH2 0x220A JUMP JUMPDEST SWAP2 POP DUP2 SWAP1 POP SWAP3 SWAP2 POP POP JUMP JUMPDEST PUSH1 0x0 DUP2 SWAP1 POP DUP2 PUSH1 0x0 MSTORE PUSH1 0x20 PUSH1 0x0 KECCAK256 SWAP1 POP SWAP2 SWAP1 POP JUMP JUMPDEST PUSH1 0x0 PUSH1 0x20 PUSH1 0x1F DUP4 ADD DIV SWAP1 POP SWAP2 SWAP1 POP JUMP JUMPDEST PUSH1 0x0 DUP3 DUP3 SHL SWAP1 POP SWAP3 SWAP2 POP POP JUMP JUMPDEST PUSH1 0x0 PUSH1 0x8 DUP4 MUL PUSH2 0x2722 PUSH32 0xFFFFFFFFFFFFFFFFFFFFFFFFFFFFFFFFFFFFFFFFFFFFFFFFFFFFFFFFFFFFFFFF DUP3 PUSH2 0x26E5 JUMP JUMPDEST PUSH2 0x272C DUP7 DUP4 PUSH2 0x26E5 JUMP JUMPDEST SWAP6 POP DUP1 NOT DUP5 AND SWAP4 POP DUP1 DUP7 AND DUP5 OR SWAP3 POP POP POP SWAP4 SWAP3 POP POP POP JUMP JUMPDEST PUSH1 0x0 DUP2 SWAP1 POP SWAP2 SWAP1 POP JUMP JUMPDEST PUSH1 0x0 PUSH2 0x2769 PUSH2 0x2764 PUSH2 0x275F DUP5 PUSH2 0x204C JUMP JUMPDEST PUSH2 0x2744 JUMP JUMPDEST PUSH2 0x204C JUMP JUMPDEST SWAP1 POP SWAP2 SWAP1 POP JUMP JUMPDEST PUSH1 0x0 DUP2 SWAP1 POP SWAP2 SWAP1 POP JUMP JUMPDEST PUSH2 0x2783 DUP4 PUSH2 0x274E JUMP JUMPDEST PUSH2 0x2797 PUSH2 0x278F DUP3 PUSH2 0x2770 JUMP JUMPDEST DUP5 DUP5 SLOAD PUSH2 0x26F2 JUMP JUMPDEST DUP3 SSTORE POP POP POP POP JUMP JUMPDEST PUSH1 0x0 SWAP1 JUMP JUMPDEST PUSH2 0x27AC PUSH2 0x279F JUMP JUMPDEST PUSH2 0x27B7 DUP2 DUP5 DUP5 PUSH2 0x277A JUMP JUMPDEST POP POP POP JUMP JUMPDEST JUMPDEST DUP2 DUP2 LT ISZERO PUSH2 0x27DB JUMPI PUSH2 0x27D0 PUSH1 0x0 DUP3 PUSH2 0x27A4 JUMP JUMPDEST PUSH1 0x1 DUP2 ADD SWAP1 POP PUSH2 0x27BD JUMP JUMPDEST POP POP JUMP JUMPDEST PUSH1 0x1F DUP3 GT ISZERO PUSH2 0x2820 JUMPI PUSH2 0x27F1 DUP2 PUSH2 0x26C0 JUMP JUMPDEST PUSH2 0x27FA DUP5 PUSH2 0x26D5 JUMP JUMPDEST DUP2 ADD PUSH1 0x20 DUP6 LT ISZERO PUSH2 0x2809 JUMPI DUP2 SWAP1 POP JUMPDEST PUSH2 0x281D PUSH2 0x2815 DUP6 PUSH2 0x26D5 JUMP JUMPDEST DUP4 ADD DUP3 PUSH2 0x27BC JUMP JUMPDEST POP POP JUMPDEST POP POP POP JUMP JUMPDEST PUSH1 0x0 DUP3 DUP3 SHR SWAP1 POP SWAP3 SWAP2 POP POP JUMP JUMPDEST PUSH1 0x0 PUSH2 0x2843 PUSH1 0x0 NOT DUP5 PUSH1 0x8 MUL PUSH2 0x2825 JUMP JUMPDEST NOT DUP1 DUP4 AND SWAP2 POP POP SWAP3 SWAP2 POP POP JUMP JUMPDEST PUSH1 0x0 PUSH2 0x285C DUP4 DUP4 PUSH2 0x2832 JUMP JUMPDEST SWAP2 POP DUP3 PUSH1 0x2 MUL DUP3 OR SWAP1 POP SWAP3 SWAP2 POP POP JUMP JUMPDEST PUSH2 0x2875 DUP3 PUSH2 0x1CE7 JUMP JUMPDEST PUSH8 0xFFFFFFFFFFFFFFFF DUP2 GT ISZERO PUSH2 0x288E JUMPI PUSH2 0x288D PUSH2 0x1E4D JUMP JUMPDEST JUMPDEST PUSH2 0x2898 DUP3 SLOAD PUSH2 0x2182 JUMP JUMPDEST PUSH2 0x28A3 DUP3 DUP3 DUP6 PUSH2 0x27DF JUMP JUMPDEST PUSH1 0x0 PUSH1 0x20 SWAP1 POP PUSH1 0x1F DUP4 GT PUSH1 0x1 DUP2 EQ PUSH2 0x28D6 JUMPI PUSH1 0x0 DUP5 ISZERO PUSH2 0x28C4 JUMPI DUP3 DUP8 ADD MLOAD SWAP1 POP JUMPDEST PUSH2 0x28CE DUP6 DUP3 PUSH2 0x2850 JUMP JUMPDEST DUP7 SSTORE POP PUSH2 0x2936 JUMP JUMPDEST PUSH1 0x1F NOT DUP5 AND PUSH2 0x28E4 DUP7 PUSH2 0x26C0 JUMP JUMPDEST PUSH1 0x0 JUMPDEST DUP3 DUP2 LT ISZERO PUSH2 0x290C JUMPI DUP5 DUP10 ADD MLOAD DUP3 SSTORE PUSH1 0x1 DUP3 ADD SWAP2 POP PUSH1 0x20 DUP6 ADD SWAP5 POP PUSH1 0x20 DUP2 ADD SWAP1 POP PUSH2 0x28E7 JUMP JUMPDEST DUP7 DUP4 LT ISZERO PUSH2 0x2929 JUMPI DUP5 DUP10 ADD MLOAD PUSH2 0x2925 PUSH1 0x1F DUP10 AND DUP3 PUSH2 0x2832 JUMP JUMPDEST DUP4 SSTORE POP JUMPDEST PUSH1 0x1 PUSH1 0x2 DUP9 MUL ADD DUP9 SSTORE POP POP POP JUMPDEST POP POP POP POP POP POP JUMP JUMPDEST PUSH32 0x496E76616C696420696E707574206C656E677468000000000000000000000000 PUSH1 0x0 DUP3 ADD MSTORE POP JUMP JUMPDEST PUSH1 0x0 PUSH2 0x2974 PUSH1 0x14 DUP4 PUSH2 0x2002 JUMP JUMPDEST SWAP2 POP PUSH2 0x297F DUP3 PUSH2 0x293E JUMP JUMPDEST PUSH1 0x20 DUP3 ADD SWAP1 POP SWAP2 SWAP1 POP JUMP JUMPDEST PUSH1 0x0 PUSH1 0x20 DUP3 ADD SWAP1 POP DUP2 DUP2 SUB PUSH1 0x0 DUP4 ADD MSTORE PUSH2 0x29A3 DUP2 PUSH2 0x2967 JUMP JUMPDEST SWAP1 POP SWAP2 SWAP1 POP JUMP JUMPDEST PUSH1 0x0 PUSH1 0xFF DUP3 AND SWAP1 POP SWAP2 SWAP1 POP JUMP JUMPDEST PUSH1 0x0 PUSH2 0x29C2 DUP3 PUSH2 0x29AA JUMP JUMPDEST SWAP2 POP PUSH2 0x29CD DUP4 PUSH2 0x29AA JUMP JUMPDEST SWAP3 POP DUP3 DUP3 SUB SWAP1 POP PUSH1 0xFF DUP2 GT ISZERO PUSH2 0x29E6 JUMPI PUSH2 0x29E5 PUSH2 0x2318 JUMP JUMPDEST JUMPDEST SWAP3 SWAP2 POP POP JUMP JUMPDEST PUSH32 0x496E76616C69642063686172616374657220696E20696E707574000000000000 PUSH1 0x0 DUP3 ADD MSTORE POP JUMP JUMPDEST PUSH1 0x0 PUSH2 0x2A22 PUSH1 0x1A DUP4 PUSH2 0x2002 JUMP JUMPDEST SWAP2 POP PUSH2 0x2A2D DUP3 PUSH2 0x29EC JUMP JUMPDEST PUSH1 0x20 DUP3 ADD SWAP1 POP SWAP2 SWAP1 POP JUMP JUMPDEST PUSH1 0x0 PUSH1 0x20 DUP3 ADD SWAP1 POP DUP2 DUP2 SUB PUSH1 0x0 DUP4 ADD MSTORE PUSH2 0x2A51 DUP2 PUSH2 0x2A15 JUMP JUMPDEST SWAP1 POP SWAP2 SWAP1 POP JUMP JUMPDEST PUSH1 0x0 PUSH2 0x2A63 DUP3 PUSH2 0x204C JUMP JUMPDEST SWAP2 POP PUSH2 0x2A6E DUP4 PUSH2 0x204C JUMP JUMPDEST SWAP3 POP DUP3 DUP3 MUL PUSH2 0x2A7C DUP2 PUSH2 0x204C JUMP JUMPDEST SWAP2 POP DUP3 DUP3 DIV DUP5 EQ DUP4 ISZERO OR PUSH2 0x2A93 JUMPI PUSH2 0x2A92 PUSH2 0x2318 JUMP JUMPDEST JUMPDEST POP SWAP3 SWAP2 POP POP JUMP JUMPDEST PUSH1 0x0 PUSH2 0x2AA5 DUP3 PUSH2 0x204C JUMP JUMPDEST SWAP2 POP PUSH2 0x2AB0 DUP4 PUSH2 0x204C JUMP JUMPDEST SWAP3 POP DUP3 DUP3 ADD SWAP1 POP DUP1 DUP3 GT ISZERO PUSH2 0x2AC8 JUMPI PUSH2 0x2AC7 PUSH2 0x2318 JUMP JUMPDEST JUMPDEST SWAP3 SWAP2 POP POP JUMP JUMPDEST PUSH32 0x596F75206861766520616C726561647920766F74656400000000000000000000 PUSH1 0x0 DUP3 ADD MSTORE POP JUMP JUMPDEST PUSH1 0x0 PUSH2 0x2B04 PUSH1 0x16 DUP4 PUSH2 0x2002 JUMP JUMPDEST SWAP2 POP PUSH2 0x2B0F DUP3 PUSH2 0x2ACE JUMP JUMPDEST PUSH1 0x20 DUP3 ADD SWAP1 POP SWAP2 SWAP1 POP JUMP JUMPDEST PUSH1 0x0 PUSH1 0x20 DUP3 ADD SWAP1 POP DUP2 DUP2 SUB PUSH1 0x0 DUP4 ADD MSTORE PUSH2 0x2B33 DUP2 PUSH2 0x2AF7 JUMP JUMPDEST SWAP1 POP SWAP2 SWAP1 POP JUMP JUMPDEST PUSH32 0x596F7520617265206E6F74207265676973746572656420766F74657200000000 PUSH1 0x0 DUP3 ADD MSTORE POP JUMP JUMPDEST PUSH1 0x0 PUSH2 0x2B70 PUSH1 0x1C DUP4 PUSH2 0x2002 JUMP JUMPDEST SWAP2 POP PUSH2 0x2B7B DUP3 PUSH2 0x2B3A JUMP JUMPDEST PUSH1 0x20 DUP3 ADD SWAP1 POP SWAP2 SWAP1 POP JUMP JUMPDEST PUSH1 0x0 PUSH1 0x20 DUP3 ADD SWAP1 POP DUP2 DUP2 SUB PUSH1 0x0 DUP4 ADD MSTORE PUSH2 0x2B9F DUP2 PUSH2 0x2B63 JUMP JUMPDEST SWAP1 POP SWAP2 SWAP1 POP JUMP JUMPDEST PUSH32 0x43616E646964617465206973206E6F7420726567697374657265640000000000 PUSH1 0x0 DUP3 ADD MSTORE POP JUMP JUMPDEST PUSH1 0x0 PUSH2 0x2BDC PUSH1 0x1B DUP4 PUSH2 0x2002 JUMP JUMPDEST SWAP2 POP PUSH2 0x2BE7 DUP3 PUSH2 0x2BA6 JUMP JUMPDEST PUSH1 0x20 DUP3 ADD SWAP1 POP SWAP2 SWAP1 POP JUMP JUMPDEST PUSH1 0x0 PUSH1 0x20 DUP3 ADD SWAP1 POP DUP2 DUP2 SUB PUSH1 0x0 DUP4 ADD MSTORE PUSH2 0x2C0B DUP2 PUSH2 0x2BCF JUMP JUMPDEST SWAP1 POP SWAP2 SWAP1 POP JUMP JUMPDEST PUSH1 0x0 PUSH2 0x2C1D DUP3 PUSH2 0x204C JUMP JUMPDEST SWAP2 POP PUSH2 0x2C28 DUP4 PUSH2 0x204C JUMP JUMPDEST SWAP3 POP DUP3 DUP3 SUB SWAP1 POP DUP2 DUP2 GT ISZERO PUSH2 0x2C40 JUMPI PUSH2 0x2C3F PUSH2 0x2318 JUMP JUMPDEST JUMPDEST SWAP3 SWAP2 POP POP JUMP JUMPDEST PUSH32 0x43686F6F736520446966666572656E74204E616D652E2E2E0000000000000000 PUSH1 0x0 DUP3 ADD MSTORE POP JUMP JUMPDEST PUSH1 0x0 PUSH2 0x2C7C PUSH1 0x18 DUP4 PUSH2 0x2002 JUMP JUMPDEST SWAP2 POP PUSH2 0x2C87 DUP3 PUSH2 0x2C46 JUMP JUMPDEST PUSH1 0x20 DUP3 ADD SWAP1 POP SWAP2 SWAP1 POP JUMP JUMPDEST PUSH1 0x0 PUSH1 0x20 DUP3 ADD SWAP1 POP DUP2 DUP2 SUB PUSH1 0x0 DUP4 ADD MSTORE PUSH2 0x2CAB DUP2 PUSH2 0x2C6F JUMP JUMPDEST SWAP1 POP SWAP2 SWAP1 POP JUMP INVALID LOG2 PUSH5 0x6970667358 0x22 SLT KECCAK256 PUSH20 0x6079A19AB733CB9B07ADE44DB07A78C55D116EBE PUSH18 0xFDF493D0468BB95736B064736F6C63430008 SLT STOP CALLER "
				},
				"gasEstimates": {
					"creation": {
						"codeDepositCost": "2299200",
						"executionCost": "26730",
						"totalCost": "2325930"
					},
					"external": {
						"AllCandidates()": "infinite",
						"Winner()": "infinite",
						"endElection()": "26673",
						"getCandidateById(string)": "infinite",
						"getRegisteredCandidatesCount()": "infinite",
						"registerAsCandidate(string)": "infinite",
						"registerAsVoter()": "24500",
						"startElection()": "51012",
						"viewVoterDetails()": "infinite",
						"voteById(string)": "infinite"
					},
					"internal": {
						"compareBytes(bytes memory,bytes memory)": "infinite",
						"compareStrings(string memory,string memory)": "infinite",
						"createId(string memory)": "infinite",
						"getCandidateId(uint256)": "infinite",
						"registerCandidate(address,string memory)": "infinite",
						"stringToAddress(string memory)": "infinite",
						"vote(address)": "infinite"
					}
				},
				"methodIdentifiers": {
					"AllCandidates()": "1231f78e",
					"Winner()": "b2b98ed2",
					"endElection()": "59f78468",
					"getCandidateById(string)": "567484ee",
					"getRegisteredCandidatesCount()": "66444e86",
					"registerAsCandidate(string)": "b52087c1",
					"registerAsVoter()": "78668658",
					"startElection()": "62d73eb8",
					"viewVoterDetails()": "f342c4de",
					"voteById(string)": "f526dab4"
				}
			},
			"storageLayout": {
				"storage": [
					{
						"astId": 3,
						"contract": "VotingSystem.sol:VotingSystem",
						"label": "admin",
						"offset": 0,
						"slot": "0",
						"type": "t_address"
					},
					{
						"astId": 5,
						"contract": "VotingSystem.sol:VotingSystem",
						"label": "electionStarted",
						"offset": 20,
						"slot": "0",
						"type": "t_bool"
					},
					{
						"astId": 7,
						"contract": "VotingSystem.sol:VotingSystem",
						"label": "electionEnded",
						"offset": 21,
						"slot": "0",
						"type": "t_bool"
					},
					{
						"astId": 10,
						"contract": "VotingSystem.sol:VotingSystem",
						"label": "candidateAddresses",
						"offset": 0,
						"slot": "1",
						"type": "t_array(t_address)dyn_storage"
					},
					{
						"astId": 14,
						"contract": "VotingSystem.sol:VotingSystem",
						"label": "registeredVoters",
						"offset": 0,
						"slot": "2",
						"type": "t_mapping(t_address,t_bool)"
					},
					{
						"astId": 18,
						"contract": "VotingSystem.sol:VotingSystem",
						"label": "voted",
						"offset": 0,
						"slot": "3",
						"type": "t_mapping(t_address,t_bool)"
					},
					{
						"astId": 22,
						"contract": "VotingSystem.sol:VotingSystem",
						"label": "registeredCandidates",
						"offset": 0,
						"slot": "4",
						"type": "t_mapping(t_address,t_bool)"
					},
					{
						"astId": 27,
						"contract": "VotingSystem.sol:VotingSystem",
						"label": "candidatesDetails",
						"offset": 0,
						"slot": "5",
						"type": "t_mapping(t_address,t_struct(Candidate)94_storage)"
					}
				],
				"types": {
					"t_address": {
						"encoding": "inplace",
						"label": "address",
						"numberOfBytes": "20"
					},
					"t_array(t_address)dyn_storage": {
						"base": "t_address",
						"encoding": "dynamic_array",
						"label": "address[]",
						"numberOfBytes": "32"
					},
					"t_bool": {
						"encoding": "inplace",
						"label": "bool",
						"numberOfBytes": "1"
					},
					"t_mapping(t_address,t_bool)": {
						"encoding": "mapping",
						"key": "t_address",
						"label": "mapping(address => bool)",
						"numberOfBytes": "32",
						"value": "t_bool"
					},
					"t_mapping(t_address,t_struct(Candidate)94_storage)": {
						"encoding": "mapping",
						"key": "t_address",
						"label": "mapping(address => struct VotingSystem.Candidate)",
						"numberOfBytes": "32",
						"value": "t_struct(Candidate)94_storage"
					},
					"t_string_storage": {
						"encoding": "bytes",
						"label": "string",
						"numberOfBytes": "32"
					},
					"t_struct(Candidate)94_storage": {
						"encoding": "inplace",
						"label": "struct VotingSystem.Candidate",
						"members": [
							{
								"astId": 89,
								"contract": "VotingSystem.sol:VotingSystem",
								"label": "name",
								"offset": 0,
								"slot": "0",
								"type": "t_string_storage"
							},
							{
								"astId": 91,
								"contract": "VotingSystem.sol:VotingSystem",
								"label": "id",
								"offset": 0,
								"slot": "1",
								"type": "t_string_storage"
							},
							{
								"astId": 93,
								"contract": "VotingSystem.sol:VotingSystem",
								"label": "votesReceived",
								"offset": 0,
								"slot": "2",
								"type": "t_uint256"
							}
						],
						"numberOfBytes": "96"
					},
					"t_uint256": {
						"encoding": "inplace",
						"label": "uint256",
						"numberOfBytes": "32"
					}
				}
			},
			"userdoc": {
				"kind": "user",
				"methods": {},
				"version": 1
			}
		}
	}
}