{
	"test.sol": {
		"Utils": {
			"abi": [
				{
					"inputs": [
						{
							"internalType": "address",
							"name": "_addr",
							"type": "address"
						}
					],
					"name": "addressToString",
					"outputs": [
						{
							"internalType": "string",
							"name": "",
							"type": "string"
						}
					],
					"stateMutability": "pure",
					"type": "function"
				},
				{
					"inputs": [
						{
							"internalType": "string",
							"name": "_inputString",
							"type": "string"
						}
					],
					"name": "countCharacters",
					"outputs": [
						{
							"internalType": "uint256",
							"name": "",
							"type": "uint256"
						}
					],
					"stateMutability": "pure",
					"type": "function"
				},
				{
					"inputs": [
						{
							"internalType": "string",
							"name": "_input",
							"type": "string"
						}
					],
					"name": "numberOfBytes",
					"outputs": [
						{
							"internalType": "uint256",
							"name": "",
							"type": "uint256"
						}
					],
					"stateMutability": "pure",
					"type": "function"
				},
				{
					"inputs": [
						{
							"internalType": "string",
							"name": "_str",
							"type": "string"
						}
					],
					"name": "stringToAddress",
					"outputs": [
						{
							"internalType": "address",
							"name": "",
							"type": "address"
						}
					],
					"stateMutability": "pure",
					"type": "function"
				},
				{
					"inputs": [
						{
							"internalType": "string",
							"name": "_input",
							"type": "string"
						}
					],
					"name": "stringToAddress1",
					"outputs": [
						{
							"internalType": "address",
							"name": "",
							"type": "address"
						}
					],
					"stateMutability": "pure",
					"type": "function"
				},
				{
					"inputs": [
						{
							"internalType": "string",
							"name": "_input",
							"type": "string"
						}
					],
					"name": "stringToAddress2",
					"outputs": [
						{
							"internalType": "address",
							"name": "",
							"type": "address"
						}
					],
					"stateMutability": "pure",
					"type": "function"
				},
				{
					"inputs": [
						{
							"internalType": "string",
							"name": "_input",
							"type": "string"
						}
					],
					"name": "stringToAddress3",
					"outputs": [
						{
							"internalType": "address",
							"name": "",
							"type": "address"
						},
						{
							"internalType": "uint256",
							"name": "",
							"type": "uint256"
						}
					],
					"stateMutability": "pure",
					"type": "function"
				}
			],
			"devdoc": {
				"kind": "dev",
				"methods": {},
				"version": 1
			},
			"evm": {
				"assembly": "    /* \"test.sol\":62:3368  contract  Utils {... */\n  mstore(0x40, 0x80)\n  callvalue\n  dup1\n  iszero\n  tag_1\n  jumpi\n  0x00\n  dup1\n  revert\ntag_1:\n  pop\n  dataSize(sub_0)\n  dup1\n  dataOffset(sub_0)\n  0x00\n  codecopy\n  0x00\n  return\nstop\n\nsub_0: assembly {\n        /* \"test.sol\":62:3368  contract  Utils {... */\n      mstore(0x40, 0x80)\n      callvalue\n      dup1\n      iszero\n      tag_1\n      jumpi\n      0x00\n      dup1\n      revert\n    tag_1:\n      pop\n      jumpi(tag_2, lt(calldatasize, 0x04))\n      shr(0xe0, calldataload(0x00))\n      dup1\n      0x87b57c88\n      gt\n      tag_10\n      jumpi\n      dup1\n      0x87b57c88\n      eq\n      tag_6\n      jumpi\n      dup1\n      0x943ab9f9\n      eq\n      tag_7\n      jumpi\n      dup1\n      0xa8d1ec87\n      eq\n      tag_8\n      jumpi\n      dup1\n      0xd08f258d\n      eq\n      tag_9\n      jumpi\n      jump(tag_2)\n    tag_10:\n      dup1\n      0x15706fdf\n      eq\n      tag_3\n      jumpi\n      dup1\n      0x333e9e00\n      eq\n      tag_4\n      jumpi\n      dup1\n      0x5e57966d\n      eq\n      tag_5\n      jumpi\n    tag_2:\n      0x00\n      dup1\n      revert\n        /* \"test.sol\":1786:2526  function stringToAddress(string memory _str) public pure returns (address) {... */\n    tag_3:\n      tag_11\n      0x04\n      dup1\n      calldatasize\n      sub\n      dup2\n      add\n      swap1\n      tag_12\n      swap2\n      swap1\n      tag_13\n      jump\t// in\n    tag_12:\n      tag_14\n      jump\t// in\n    tag_11:\n      mload(0x40)\n      tag_15\n      swap2\n      swap1\n      tag_16\n      jump\t// in\n    tag_15:\n      mload(0x40)\n      dup1\n      swap2\n      sub\n      swap1\n      return\n        /* \"test.sol\":2534:3359  function stringToAddress3(string memory _input) public pure returns (address, uint) {... */\n    tag_4:\n      tag_17\n      0x04\n      dup1\n      calldatasize\n      sub\n      dup2\n      add\n      swap1\n      tag_18\n      swap2\n      swap1\n      tag_13\n      jump\t// in\n    tag_18:\n      tag_19\n      jump\t// in\n    tag_17:\n      mload(0x40)\n      tag_20\n      swap3\n      swap2\n      swap1\n      tag_21\n      jump\t// in\n    tag_20:\n      mload(0x40)\n      dup1\n      swap2\n      sub\n      swap1\n      return\n        /* \"test.sol\":85:747  function addressToString(address _addr) public pure returns (string memory) {... */\n    tag_5:\n      tag_22\n      0x04\n      dup1\n      calldatasize\n      sub\n      dup2\n      add\n      swap1\n      tag_23\n      swap2\n      swap1\n      tag_24\n      jump\t// in\n    tag_23:\n      tag_25\n      jump\t// in\n    tag_22:\n      mload(0x40)\n      tag_26\n      swap2\n      swap1\n      tag_27\n      jump\t// in\n    tag_26:\n      mload(0x40)\n      dup1\n      swap2\n      sub\n      swap1\n      return\n        /* \"test.sol\":1399:1778  function stringToAddress2(string memory _input) public pure returns (address) {... */\n    tag_6:\n      tag_28\n      0x04\n      dup1\n      calldatasize\n      sub\n      dup2\n      add\n      swap1\n      tag_29\n      swap2\n      swap1\n      tag_13\n      jump\t// in\n    tag_29:\n      tag_30\n      jump\t// in\n    tag_28:\n      mload(0x40)\n      tag_31\n      swap2\n      swap1\n      tag_16\n      jump\t// in\n    tag_31:\n      mload(0x40)\n      dup1\n      swap2\n      sub\n      swap1\n      return\n        /* \"test.sol\":755:939  function countCharacters(string memory _inputString) public pure returns (uint256) {... */\n    tag_7:\n      tag_32\n      0x04\n      dup1\n      calldatasize\n      sub\n      dup2\n      add\n      swap1\n      tag_33\n      swap2\n      swap1\n      tag_13\n      jump\t// in\n    tag_33:\n      tag_34\n      jump\t// in\n    tag_32:\n      mload(0x40)\n      tag_35\n      swap2\n      swap1\n      tag_36\n      jump\t// in\n    tag_35:\n      mload(0x40)\n      dup1\n      swap2\n      sub\n      swap1\n      return\n        /* \"test.sol\":1125:1391  function stringToAddress1(string memory _input) public pure returns (address) {... */\n    tag_8:\n      tag_37\n      0x04\n      dup1\n      calldatasize\n      sub\n      dup2\n      add\n      swap1\n      tag_38\n      swap2\n      swap1\n      tag_13\n      jump\t// in\n    tag_38:\n      tag_39\n      jump\t// in\n    tag_37:\n      mload(0x40)\n      tag_40\n      swap2\n      swap1\n      tag_16\n      jump\t// in\n    tag_40:\n      mload(0x40)\n      dup1\n      swap2\n      sub\n      swap1\n      return\n        /* \"test.sol\":947:1117  function numberOfBytes(string memory _input) public pure returns (uint256) {... */\n    tag_9:\n      tag_41\n      0x04\n      dup1\n      calldatasize\n      sub\n      dup2\n      add\n      swap1\n      tag_42\n      swap2\n      swap1\n      tag_13\n      jump\t// in\n    tag_42:\n      tag_43\n      jump\t// in\n    tag_41:\n      mload(0x40)\n      tag_44\n      swap2\n      swap1\n      tag_36\n      jump\t// in\n    tag_44:\n      mload(0x40)\n      dup1\n      swap2\n      sub\n      swap1\n      return\n        /* \"test.sol\":1786:2526  function stringToAddress(string memory _str) public pure returns (address) {... */\n    tag_14:\n        /* \"test.sol\":1852:1859  address */\n      0x00\n        /* \"test.sol\":1902:1904  42 */\n      0x2a\n        /* \"test.sol\":1886:1890  _str */\n      dup3\n        /* \"test.sol\":1880:1898  bytes(_str).length */\n      mload\n        /* \"test.sol\":1880:1904  bytes(_str).length == 42 */\n      eq\n        /* \"test.sol\":1872:1944  require(bytes(_str).length == 42, \"String length must be 42 characters\") */\n      tag_46\n      jumpi\n      mload(0x40)\n      0x08c379a000000000000000000000000000000000000000000000000000000000\n      dup2\n      mstore\n      0x04\n      add\n      tag_47\n      swap1\n      tag_48\n      jump\t// in\n    tag_47:\n      mload(0x40)\n      dup1\n      swap2\n      sub\n      swap1\n      revert\n    tag_46:\n        /* \"test.sol\":1955:1981  bytes memory _addressBytes */\n      0x00\n        /* \"test.sol\":1990:1994  _str */\n      dup3\n        /* \"test.sol\":1955:1995  bytes memory _addressBytes = bytes(_str) */\n      swap1\n      pop\n        /* \"test.sol\":2066:2077  bytes1('0') */\n      0x3000000000000000000000000000000000000000000000000000000000000000\n        /* \"test.sol\":2046:2077  _addressBytes[0] == bytes1('0') */\n      not(0xffffffffffffffffffffffffffffffffffffffffffffffffffffffffffffff)\n      and\n        /* \"test.sol\":2046:2059  _addressBytes */\n      dup2\n        /* \"test.sol\":2060:2061  0 */\n      0x00\n        /* \"test.sol\":2046:2062  _addressBytes[0] */\n      dup2\n      mload\n      dup2\n      lt\n      tag_49\n      jumpi\n      tag_50\n      tag_51\n      jump\t// in\n    tag_50:\n    tag_49:\n      0x20\n      add\n      add\n      mload\n      0xf8\n      shr\n      0xf8\n      shl\n        /* \"test.sol\":2046:2077  _addressBytes[0] == bytes1('0') */\n      not(0xffffffffffffffffffffffffffffffffffffffffffffffffffffffffffffff)\n      and\n      eq\n        /* \"test.sol\":2046:2149  _addressBytes[0] == bytes1('0') && (_addressBytes[1] == bytes1('x') || _addressBytes[1] == bytes1('X')) */\n      dup1\n      iszero\n      tag_52\n      jumpi\n      pop\n        /* \"test.sol\":2102:2113  bytes1('x') */\n      0x7800000000000000000000000000000000000000000000000000000000000000\n        /* \"test.sol\":2082:2113  _addressBytes[1] == bytes1('x') */\n      not(0xffffffffffffffffffffffffffffffffffffffffffffffffffffffffffffff)\n      and\n        /* \"test.sol\":2082:2095  _addressBytes */\n      dup2\n        /* \"test.sol\":2096:2097  1 */\n      0x01\n        /* \"test.sol\":2082:2098  _addressBytes[1] */\n      dup2\n      mload\n      dup2\n      lt\n      tag_53\n      jumpi\n      tag_54\n      tag_51\n      jump\t// in\n    tag_54:\n    tag_53:\n      0x20\n      add\n      add\n      mload\n      0xf8\n      shr\n      0xf8\n      shl\n        /* \"test.sol\":2082:2113  _addressBytes[1] == bytes1('x') */\n      not(0xffffffffffffffffffffffffffffffffffffffffffffffffffffffffffffff)\n      and\n      eq\n        /* \"test.sol\":2082:2148  _addressBytes[1] == bytes1('x') || _addressBytes[1] == bytes1('X') */\n      dup1\n      tag_55\n      jumpi\n      pop\n        /* \"test.sol\":2137:2148  bytes1('X') */\n      0x5800000000000000000000000000000000000000000000000000000000000000\n        /* \"test.sol\":2117:2148  _addressBytes[1] == bytes1('X') */\n      not(0xffffffffffffffffffffffffffffffffffffffffffffffffffffffffffffff)\n      and\n        /* \"test.sol\":2117:2130  _addressBytes */\n      dup2\n        /* \"test.sol\":2131:2132  1 */\n      0x01\n        /* \"test.sol\":2117:2133  _addressBytes[1] */\n      dup2\n      mload\n      dup2\n      lt\n      tag_56\n      jumpi\n      tag_57\n      tag_51\n      jump\t// in\n    tag_57:\n    tag_56:\n      0x20\n      add\n      add\n      mload\n      0xf8\n      shr\n      0xf8\n      shl\n        /* \"test.sol\":2117:2148  _addressBytes[1] == bytes1('X') */\n      not(0xffffffffffffffffffffffffffffffffffffffffffffffffffffffffffffff)\n      and\n      eq\n        /* \"test.sol\":2082:2148  _addressBytes[1] == bytes1('x') || _addressBytes[1] == bytes1('X') */\n    tag_55:\n        /* \"test.sol\":2046:2149  _addressBytes[0] == bytes1('0') && (_addressBytes[1] == bytes1('x') || _addressBytes[1] == bytes1('X')) */\n    tag_52:\n        /* \"test.sol\":2038:2176  require(_addressBytes[0] == bytes1('0') && (_addressBytes[1] == bytes1('x') || _addressBytes[1] == bytes1('X')), \"Invalid address format\") */\n      tag_58\n      jumpi\n      mload(0x40)\n      0x08c379a000000000000000000000000000000000000000000000000000000000\n      dup2\n      mstore\n      0x04\n      add\n      tag_59\n      swap1\n      tag_60\n      jump\t// in\n    tag_59:\n      mload(0x40)\n      dup1\n      swap2\n      sub\n      swap1\n      revert\n    tag_58:\n        /* \"test.sol\":2227:2251  bytes memory _hexAddress */\n      0x00\n        /* \"test.sol\":2264:2266  20 */\n      0x14\n        /* \"test.sol\":2254:2267  new bytes(20) */\n      0xffffffffffffffff\n      dup2\n      gt\n      iszero\n      tag_61\n      jumpi\n      tag_62\n      tag_63\n      jump\t// in\n    tag_62:\n    tag_61:\n      mload(0x40)\n      swap1\n      dup1\n      dup3\n      mstore\n      dup1\n      0x1f\n      add\n      not(0x1f)\n      and\n      0x20\n      add\n      dup3\n      add\n      0x40\n      mstore\n      dup1\n      iszero\n      tag_64\n      jumpi\n      dup2\n      0x20\n      add\n      0x01\n      dup3\n      mul\n      dup1\n      calldatasize\n      dup4\n      calldatacopy\n      dup1\n      dup3\n      add\n      swap2\n      pop\n      pop\n      swap1\n      pop\n    tag_64:\n      pop\n        /* \"test.sol\":2227:2267  bytes memory _hexAddress = new bytes(20) */\n      swap1\n      pop\n        /* \"test.sol\":2283:2289  uint i */\n      0x00\n        /* \"test.sol\":2278:2392  for (uint i = 0; i < 20; i++) {... */\n    tag_65:\n        /* \"test.sol\":2299:2301  20 */\n      0x14\n        /* \"test.sol\":2295:2296  i */\n      dup2\n        /* \"test.sol\":2295:2301  i < 20 */\n      lt\n        /* \"test.sol\":2278:2392  for (uint i = 0; i < 20; i++) {... */\n      iszero\n      tag_66\n      jumpi\n        /* \"test.sol\":2340:2353  _addressBytes */\n      dup3\n        /* \"test.sol\":2358:2359  2 */\n      0x02\n        /* \"test.sol\":2354:2355  i */\n      dup3\n        /* \"test.sol\":2354:2359  i + 2 */\n      tag_68\n      swap2\n      swap1\n      tag_69\n      jump\t// in\n    tag_68:\n        /* \"test.sol\":2340:2360  _addressBytes[i + 2] */\n      dup2\n      mload\n      dup2\n      lt\n      tag_70\n      jumpi\n      tag_71\n      tag_51\n      jump\t// in\n    tag_71:\n    tag_70:\n      0x20\n      add\n      add\n      mload\n      0xf8\n      shr\n      0xf8\n      shl\n        /* \"test.sol\":2323:2334  _hexAddress */\n      dup3\n        /* \"test.sol\":2335:2336  i */\n      dup3\n        /* \"test.sol\":2323:2337  _hexAddress[i] */\n      dup2\n      mload\n      dup2\n      lt\n      tag_72\n      jumpi\n      tag_73\n      tag_51\n      jump\t// in\n    tag_73:\n    tag_72:\n      0x20\n      add\n      add\n        /* \"test.sol\":2323:2360  _hexAddress[i] = _addressBytes[i + 2] */\n      swap1\n      not(0xffffffffffffffffffffffffffffffffffffffffffffffffffffffffffffff)\n      and\n      swap1\n      dup2\n      0x00\n      byte\n      swap1\n      mstore8\n      pop\n        /* \"test.sol\":2303:2306  i++ */\n      dup1\n      dup1\n      tag_74\n      swap1\n      tag_75\n      jump\t// in\n    tag_74:\n      swap2\n      pop\n      pop\n        /* \"test.sol\":2278:2392  for (uint i = 0; i < 20; i++) {... */\n      jump(tag_65)\n    tag_66:\n      pop\n        /* \"test.sol\":2404:2416  address addr */\n      0x00\n        /* \"test.sol\":2482:2484  20 */\n      0x14\n        /* \"test.sol\":2469:2480  _hexAddress */\n      dup3\n        /* \"test.sol\":2465:2485  add(_hexAddress, 20) */\n      add\n        /* \"test.sol\":2459:2486  mload(add(_hexAddress, 20)) */\n      mload\n        /* \"test.sol\":2451:2486  addr := mload(add(_hexAddress, 20)) */\n      swap1\n      pop\n        /* \"test.sol\":2514:2518  addr */\n      dup1\n        /* \"test.sol\":2507:2518  return addr */\n      swap4\n      pop\n      pop\n      pop\n      pop\n        /* \"test.sol\":1786:2526  function stringToAddress(string memory _str) public pure returns (address) {... */\n      swap2\n      swap1\n      pop\n      jump\t// out\n        /* \"test.sol\":2534:3359  function stringToAddress3(string memory _input) public pure returns (address, uint) {... */\n    tag_19:\n        /* \"test.sol\":2603:2610  address */\n      0x00\n        /* \"test.sol\":2612:2616  uint */\n      dup1\n        /* \"test.sol\":2625:2648  bytes memory inputBytes */\n      0x00\n        /* \"test.sol\":2657:2663  _input */\n      dup4\n        /* \"test.sol\":2625:2664  bytes memory inputBytes = bytes(_input) */\n      swap1\n      pop\n        /* \"test.sol\":2700:2702  42 */\n      0x2a\n        /* \"test.sol\":2679:2689  inputBytes */\n      dup2\n        /* \"test.sol\":2679:2696  inputBytes.length */\n      mload\n        /* \"test.sol\":2679:2702  inputBytes.length == 42 */\n      eq\n        /* \"test.sol\":2671:2727  require(inputBytes.length == 42, \"Invalid input length\") */\n      tag_77\n      jumpi\n      mload(0x40)\n      0x08c379a000000000000000000000000000000000000000000000000000000000\n      dup2\n      mstore\n      0x04\n      add\n      tag_78\n      swap1\n      tag_79\n      jump\t// in\n    tag_78:\n      mload(0x40)\n      dup1\n      swap2\n      sub\n      swap1\n      revert\n    tag_77:\n        /* \"test.sol\":2736:2747  uint result */\n      0x00\n        /* \"test.sol\":2758:2772  uint charValue */\n      dup1\n        /* \"test.sol\":2786:2792  uint i */\n      dup1\n        /* \"test.sol\":2795:2796  2 */\n      0x02\n        /* \"test.sol\":2786:2796  uint i = 2 */\n      swap1\n      pop\n        /* \"test.sol\":2781:3306  for (uint i = 2; i < inputBytes.length; i++) {... */\n    tag_80:\n        /* \"test.sol\":2802:2812  inputBytes */\n      dup4\n        /* \"test.sol\":2802:2819  inputBytes.length */\n      mload\n        /* \"test.sol\":2798:2799  i */\n      dup2\n        /* \"test.sol\":2798:2819  i < inputBytes.length */\n      lt\n        /* \"test.sol\":2781:3306  for (uint i = 2; i < inputBytes.length; i++) {... */\n      iszero\n      tag_81\n      jumpi\n        /* \"test.sol\":2837:2848  uint8 digit */\n      0x00\n        /* \"test.sol\":2857:2867  inputBytes */\n      dup5\n        /* \"test.sol\":2868:2869  i */\n      dup3\n        /* \"test.sol\":2857:2870  inputBytes[i] */\n      dup2\n      mload\n      dup2\n      lt\n      tag_83\n      jumpi\n      tag_84\n      tag_51\n      jump\t// in\n    tag_84:\n    tag_83:\n      0x20\n      add\n      add\n      mload\n      0xf8\n      shr\n      0xf8\n      shl\n        /* \"test.sol\":2851:2871  uint8(inputBytes[i]) */\n      0xf8\n      shr\n        /* \"test.sol\":2837:2871  uint8 digit = uint8(inputBytes[i]) */\n      swap1\n      pop\n        /* \"test.sol\":2897:2899  48 */\n      0x30\n        /* \"test.sol\":2888:2893  digit */\n      dup2\n        /* \"test.sol\":2888:2899  digit >= 48 */\n      0xff\n      and\n      lt\n      iszero\n        /* \"test.sol\":2888:2914  digit >= 48 && digit <= 57 */\n      dup1\n      iszero\n      tag_85\n      jumpi\n      pop\n        /* \"test.sol\":2912:2914  57 */\n      0x39\n        /* \"test.sol\":2903:2908  digit */\n      dup2\n        /* \"test.sol\":2903:2914  digit <= 57 */\n      0xff\n      and\n      gt\n      iszero\n        /* \"test.sol\":2888:2914  digit >= 48 && digit <= 57 */\n    tag_85:\n        /* \"test.sol\":2884:3254  if (digit >= 48 && digit <= 57) {... */\n      iszero\n      tag_86\n      jumpi\n        /* \"test.sol\":2951:2953  48 */\n      0x30\n        /* \"test.sol\":2943:2948  digit */\n      dup2\n        /* \"test.sol\":2943:2953  digit - 48 */\n      tag_87\n      swap2\n      swap1\n      tag_88\n      jump\t// in\n    tag_87:\n        /* \"test.sol\":2931:2953  charValue = digit - 48 */\n      0xff\n      and\n      swap3\n      pop\n        /* \"test.sol\":2884:3254  if (digit >= 48 && digit <= 57) {... */\n      jump(tag_89)\n    tag_86:\n        /* \"test.sol\":2999:3001  65 */\n      0x41\n        /* \"test.sol\":2990:2995  digit */\n      dup2\n        /* \"test.sol\":2990:3001  digit >= 65 */\n      0xff\n      and\n      lt\n      iszero\n        /* \"test.sol\":2990:3016  digit >= 65 && digit <= 70 */\n      dup1\n      iszero\n      tag_90\n      jumpi\n      pop\n        /* \"test.sol\":3014:3016  70 */\n      0x46\n        /* \"test.sol\":3005:3010  digit */\n      dup2\n        /* \"test.sol\":3005:3016  digit <= 70 */\n      0xff\n      and\n      gt\n      iszero\n        /* \"test.sol\":2990:3016  digit >= 65 && digit <= 70 */\n    tag_90:\n        /* \"test.sol\":2986:3254  if (digit >= 65 && digit <= 70) {... */\n      iszero\n      tag_91\n      jumpi\n        /* \"test.sol\":3053:3055  55 */\n      0x37\n        /* \"test.sol\":3045:3050  digit */\n      dup2\n        /* \"test.sol\":3045:3055  digit - 55 */\n      tag_92\n      swap2\n      swap1\n      tag_88\n      jump\t// in\n    tag_92:\n        /* \"test.sol\":3033:3055  charValue = digit - 55 */\n      0xff\n      and\n      swap3\n      pop\n        /* \"test.sol\":2986:3254  if (digit >= 65 && digit <= 70) {... */\n      jump(tag_93)\n    tag_91:\n        /* \"test.sol\":3101:3103  97 */\n      0x61\n        /* \"test.sol\":3092:3097  digit */\n      dup2\n        /* \"test.sol\":3092:3103  digit >= 97 */\n      0xff\n      and\n      lt\n      iszero\n        /* \"test.sol\":3092:3119  digit >= 97 && digit <= 102 */\n      dup1\n      iszero\n      tag_94\n      jumpi\n      pop\n        /* \"test.sol\":3116:3119  102 */\n      0x66\n        /* \"test.sol\":3107:3112  digit */\n      dup2\n        /* \"test.sol\":3107:3119  digit <= 102 */\n      0xff\n      and\n      gt\n      iszero\n        /* \"test.sol\":3092:3119  digit >= 97 && digit <= 102 */\n    tag_94:\n        /* \"test.sol\":3088:3254  if (digit >= 97 && digit <= 102) {... */\n      iszero\n      tag_95\n      jumpi\n        /* \"test.sol\":3156:3158  87 */\n      0x57\n        /* \"test.sol\":3148:3153  digit */\n      dup2\n        /* \"test.sol\":3148:3158  digit - 87 */\n      tag_96\n      swap2\n      swap1\n      tag_88\n      jump\t// in\n    tag_96:\n        /* \"test.sol\":3136:3158  charValue = digit - 87 */\n      0xff\n      and\n      swap3\n      pop\n        /* \"test.sol\":3088:3254  if (digit >= 97 && digit <= 102) {... */\n      jump(tag_97)\n    tag_95:\n        /* \"test.sol\":3206:3242  revert(\"Invalid character in input\") */\n      mload(0x40)\n      0x08c379a000000000000000000000000000000000000000000000000000000000\n      dup2\n      mstore\n      0x04\n      add\n      tag_98\n      swap1\n      tag_99\n      jump\t// in\n    tag_98:\n      mload(0x40)\n      dup1\n      swap2\n      sub\n      swap1\n      revert\n        /* \"test.sol\":3088:3254  if (digit >= 97 && digit <= 102) {... */\n    tag_97:\n        /* \"test.sol\":2986:3254  if (digit >= 65 && digit <= 70) {... */\n    tag_93:\n        /* \"test.sol\":2884:3254  if (digit >= 48 && digit <= 57) {... */\n    tag_89:\n        /* \"test.sol\":3289:3298  charValue */\n      dup3\n        /* \"test.sol\":3284:3286  16 */\n      0x10\n        /* \"test.sol\":3275:3281  result */\n      dup6\n        /* \"test.sol\":3275:3286  result * 16 */\n      tag_100\n      swap2\n      swap1\n      tag_101\n      jump\t// in\n    tag_100:\n        /* \"test.sol\":3275:3298  result * 16 + charValue */\n      tag_102\n      swap2\n      swap1\n      tag_69\n      jump\t// in\n    tag_102:\n        /* \"test.sol\":3266:3298  result = result * 16 + charValue */\n      swap4\n      pop\n        /* \"test.sol\":2826:3306  {... */\n      pop\n        /* \"test.sol\":2821:2824  i++ */\n      dup1\n      dup1\n      tag_103\n      swap1\n      tag_75\n      jump\t// in\n    tag_103:\n      swap2\n      pop\n      pop\n        /* \"test.sol\":2781:3306  for (uint i = 2; i < inputBytes.length; i++) {... */\n      jump(tag_80)\n    tag_81:\n      pop\n        /* \"test.sol\":3338:3344  result */\n      dup2\n        /* \"test.sol\":3348:3354  result */\n      dup3\n        /* \"test.sol\":3314:3355  return (address(uint160(result)), result) */\n      swap5\n      pop\n      swap5\n      pop\n      pop\n      pop\n      pop\n        /* \"test.sol\":2534:3359  function stringToAddress3(string memory _input) public pure returns (address, uint) {... */\n      swap2\n      pop\n      swap2\n      jump\t// out\n        /* \"test.sol\":85:747  function addressToString(address _addr) public pure returns (string memory) {... */\n    tag_25:\n        /* \"test.sol\":146:159  string memory */\n      0x60\n        /* \"test.sol\":172:185  bytes32 value */\n      0x00\n        /* \"test.sol\":212:217  _addr */\n      dup3\n        /* \"test.sol\":196:219  uint256(uint160(_addr)) */\n      0xffffffffffffffffffffffffffffffffffffffff\n      and\n        /* \"test.sol\":188:220  bytes32(uint256(uint160(_addr))) */\n      0x00\n      shl\n        /* \"test.sol\":172:220  bytes32 value = bytes32(uint256(uint160(_addr))) */\n      swap1\n      pop\n        /* \"test.sol\":261:282  bytes memory alphabet */\n      0x00\n        /* \"test.sol\":261:303  bytes memory alphabet = \"0123456789abcdef\" */\n      mload(0x40)\n      dup1\n      0x40\n      add\n      0x40\n      mstore\n      dup1\n      0x10\n      dup2\n      mstore\n      0x20\n      add\n      0x3031323334353637383961626364656600000000000000000000000000000000\n      dup2\n      mstore\n      pop\n      swap1\n      pop\n        /* \"test.sol\":316:332  bytes memory str */\n      0x00\n        /* \"test.sol\":345:347  42 */\n      0x2a\n        /* \"test.sol\":335:348  new bytes(42) */\n      0xffffffffffffffff\n      dup2\n      gt\n      iszero\n      tag_105\n      jumpi\n      tag_106\n      tag_63\n      jump\t// in\n    tag_106:\n    tag_105:\n      mload(0x40)\n      swap1\n      dup1\n      dup3\n      mstore\n      dup1\n      0x1f\n      add\n      not(0x1f)\n      and\n      0x20\n      add\n      dup3\n      add\n      0x40\n      mstore\n      dup1\n      iszero\n      tag_107\n      jumpi\n      dup2\n      0x20\n      add\n      0x01\n      dup3\n      mul\n      dup1\n      calldatasize\n      dup4\n      calldatacopy\n      dup1\n      dup3\n      add\n      swap2\n      pop\n      pop\n      swap1\n      pop\n    tag_107:\n      pop\n        /* \"test.sol\":316:348  bytes memory str = new bytes(42) */\n      swap1\n      pop\n        /* \"test.sol\":480:492  str[0] = '0' */\n      0x3000000000000000000000000000000000000000000000000000000000000000\n        /* \"test.sol\":480:483  str */\n      dup2\n        /* \"test.sol\":484:485  0 */\n      0x00\n        /* \"test.sol\":480:486  str[0] */\n      dup2\n      mload\n      dup2\n      lt\n      tag_108\n      jumpi\n      tag_109\n      tag_51\n      jump\t// in\n    tag_109:\n    tag_108:\n      0x20\n      add\n      add\n        /* \"test.sol\":480:492  str[0] = '0' */\n      swap1\n      not(0xffffffffffffffffffffffffffffffffffffffffffffffffffffffffffffff)\n      and\n      swap1\n      dup2\n      0x00\n      byte\n      swap1\n      mstore8\n      pop\n        /* \"test.sol\":503:515  str[1] = 'x' */\n      0x7800000000000000000000000000000000000000000000000000000000000000\n        /* \"test.sol\":503:506  str */\n      dup2\n        /* \"test.sol\":507:508  1 */\n      0x01\n        /* \"test.sol\":503:509  str[1] */\n      dup2\n      mload\n      dup2\n      lt\n      tag_110\n      jumpi\n      tag_111\n      tag_51\n      jump\t// in\n    tag_111:\n    tag_110:\n      0x20\n      add\n      add\n        /* \"test.sol\":503:515  str[1] = 'x' */\n      swap1\n      not(0xffffffffffffffffffffffffffffffffffffffffffffffffffffffffffffff)\n      and\n      swap1\n      dup2\n      0x00\n      byte\n      swap1\n      mstore8\n      pop\n        /* \"test.sol\":533:542  uint256 i */\n      0x00\n        /* \"test.sol\":528:709  for (uint256 i = 0; i < 20; i++) {... */\n    tag_112:\n        /* \"test.sol\":552:554  20 */\n      0x14\n        /* \"test.sol\":548:549  i */\n      dup2\n        /* \"test.sol\":548:554  i < 20 */\n      lt\n        /* \"test.sol\":528:709  for (uint256 i = 0; i < 20; i++) {... */\n      iszero\n      tag_113\n      jumpi\n        /* \"test.sol\":593:601  alphabet */\n      dup3\n        /* \"test.sol\":625:626  4 */\n      0x04\n        /* \"test.sol\":608:613  value */\n      dup6\n        /* \"test.sol\":618:620  12 */\n      0x0c\n        /* \"test.sol\":614:615  i */\n      dup5\n        /* \"test.sol\":614:620  i + 12 */\n      tag_115\n      swap2\n      swap1\n      tag_69\n      jump\t// in\n    tag_115:\n        /* \"test.sol\":608:621  value[i + 12] */\n      0x20\n      dup2\n      lt\n      tag_116\n      jumpi\n      tag_117\n      tag_51\n      jump\t// in\n    tag_117:\n    tag_116:\n      byte\n      0xf8\n      shl\n        /* \"test.sol\":608:626  value[i + 12] >> 4 */\n      not(0xffffffffffffffffffffffffffffffffffffffffffffffffffffffffffffff)\n      and\n      swap1\n      shr\n        /* \"test.sol\":602:627  uint8(value[i + 12] >> 4) */\n      0xf8\n      shr\n        /* \"test.sol\":593:628  alphabet[uint8(value[i + 12] >> 4)] */\n      0xff\n      and\n      dup2\n      mload\n      dup2\n      lt\n      tag_118\n      jumpi\n      tag_119\n      tag_51\n      jump\t// in\n    tag_119:\n    tag_118:\n      0x20\n      add\n      add\n      mload\n      0xf8\n      shr\n      0xf8\n      shl\n        /* \"test.sol\":576:579  str */\n      dup3\n        /* \"test.sol\":588:589  2 */\n      0x02\n        /* \"test.sol\":584:585  i */\n      dup4\n        /* \"test.sol\":584:589  i * 2 */\n      tag_120\n      swap2\n      swap1\n      tag_101\n      jump\t// in\n    tag_120:\n        /* \"test.sol\":580:581  2 */\n      0x02\n        /* \"test.sol\":580:589  2 + i * 2 */\n      tag_121\n      swap2\n      swap1\n      tag_69\n      jump\t// in\n    tag_121:\n        /* \"test.sol\":576:590  str[2 + i * 2] */\n      dup2\n      mload\n      dup2\n      lt\n      tag_122\n      jumpi\n      tag_123\n      tag_51\n      jump\t// in\n    tag_123:\n    tag_122:\n      0x20\n      add\n      add\n        /* \"test.sol\":576:628  str[2 + i * 2] = alphabet[uint8(value[i + 12] >> 4)] */\n      swap1\n      not(0xffffffffffffffffffffffffffffffffffffffffffffffffffffffffffffff)\n      and\n      swap1\n      dup2\n      0x00\n      byte\n      swap1\n      mstore8\n      pop\n        /* \"test.sol\":660:668  alphabet */\n      dup3\n        /* \"test.sol\":691:695  0x0f */\n      0x0f\n        /* \"test.sol\":675:695  value[i + 12] & 0x0f */\n      0xf8\n      shl\n        /* \"test.sol\":675:680  value */\n      dup6\n        /* \"test.sol\":685:687  12 */\n      0x0c\n        /* \"test.sol\":681:682  i */\n      dup5\n        /* \"test.sol\":681:687  i + 12 */\n      tag_124\n      swap2\n      swap1\n      tag_69\n      jump\t// in\n    tag_124:\n        /* \"test.sol\":675:688  value[i + 12] */\n      0x20\n      dup2\n      lt\n      tag_125\n      jumpi\n      tag_126\n      tag_51\n      jump\t// in\n    tag_126:\n    tag_125:\n      byte\n      0xf8\n      shl\n        /* \"test.sol\":675:695  value[i + 12] & 0x0f */\n      and\n        /* \"test.sol\":669:696  uint8(value[i + 12] & 0x0f) */\n      0xf8\n      shr\n        /* \"test.sol\":660:697  alphabet[uint8(value[i + 12] & 0x0f)] */\n      0xff\n      and\n      dup2\n      mload\n      dup2\n      lt\n      tag_127\n      jumpi\n      tag_128\n      tag_51\n      jump\t// in\n    tag_128:\n    tag_127:\n      0x20\n      add\n      add\n      mload\n      0xf8\n      shr\n      0xf8\n      shl\n        /* \"test.sol\":643:646  str */\n      dup3\n        /* \"test.sol\":655:656  2 */\n      0x02\n        /* \"test.sol\":651:652  i */\n      dup4\n        /* \"test.sol\":651:656  i * 2 */\n      tag_129\n      swap2\n      swap1\n      tag_101\n      jump\t// in\n    tag_129:\n        /* \"test.sol\":647:648  3 */\n      0x03\n        /* \"test.sol\":647:656  3 + i * 2 */\n      tag_130\n      swap2\n      swap1\n      tag_69\n      jump\t// in\n    tag_130:\n        /* \"test.sol\":643:657  str[3 + i * 2] */\n      dup2\n      mload\n      dup2\n      lt\n      tag_131\n      jumpi\n      tag_132\n      tag_51\n      jump\t// in\n    tag_132:\n    tag_131:\n      0x20\n      add\n      add\n        /* \"test.sol\":643:697  str[3 + i * 2] = alphabet[uint8(value[i + 12] & 0x0f)] */\n      swap1\n      not(0xffffffffffffffffffffffffffffffffffffffffffffffffffffffffffffff)\n      and\n      swap1\n      dup2\n      0x00\n      byte\n      swap1\n      mstore8\n      pop\n        /* \"test.sol\":556:559  i++ */\n      dup1\n      dup1\n      tag_133\n      swap1\n      tag_75\n      jump\t// in\n    tag_133:\n      swap2\n      pop\n      pop\n        /* \"test.sol\":528:709  for (uint256 i = 0; i < 20; i++) {... */\n      jump(tag_112)\n    tag_113:\n      pop\n        /* \"test.sol\":735:738  str */\n      dup1\n        /* \"test.sol\":721:739  return string(str) */\n      swap4\n      pop\n      pop\n      pop\n      pop\n        /* \"test.sol\":85:747  function addressToString(address _addr) public pure returns (string memory) {... */\n      swap2\n      swap1\n      pop\n      jump\t// out\n        /* \"test.sol\":1399:1778  function stringToAddress2(string memory _input) public pure returns (address) {... */\n    tag_30:\n        /* \"test.sol\":1468:1475  address */\n      0x00\n        /* \"test.sol\":1516:1518  42 */\n      0x2a\n        /* \"test.sol\":1498:1504  _input */\n      dup3\n        /* \"test.sol\":1492:1512  bytes(_input).length */\n      mload\n        /* \"test.sol\":1492:1518  bytes(_input).length == 42 */\n      eq\n        /* \"test.sol\":1484:1543  require(bytes(_input).length == 42, \"Invalid input length\") */\n      tag_135\n      jumpi\n      mload(0x40)\n      0x08c379a000000000000000000000000000000000000000000000000000000000\n      dup2\n      mstore\n      0x04\n      add\n      tag_136\n      swap1\n      tag_79\n      jump\t// in\n    tag_136:\n      mload(0x40)\n      dup1\n      swap2\n      sub\n      swap1\n      revert\n    tag_135:\n        /* \"test.sol\":1576:1587  bytes1('0') */\n      0x3000000000000000000000000000000000000000000000000000000000000000\n        /* \"test.sol\":1556:1587  bytes(_input)[0] == bytes1('0') */\n      not(0xffffffffffffffffffffffffffffffffffffffffffffffffffffffffffffff)\n      and\n        /* \"test.sol\":1562:1568  _input */\n      dup3\n        /* \"test.sol\":1570:1571  0 */\n      0x00\n        /* \"test.sol\":1556:1572  bytes(_input)[0] */\n      dup2\n      mload\n      dup2\n      lt\n      tag_137\n      jumpi\n      tag_138\n      tag_51\n      jump\t// in\n    tag_138:\n    tag_137:\n      0x20\n      add\n      add\n      mload\n      0xf8\n      shr\n      0xf8\n      shl\n        /* \"test.sol\":1556:1587  bytes(_input)[0] == bytes1('0') */\n      not(0xffffffffffffffffffffffffffffffffffffffffffffffffffffffffffffff)\n      and\n      eq\n        /* \"test.sol\":1556:1659  bytes(_input)[0] == bytes1('0') && (bytes(_input)[1] == bytes1('x') || bytes(_input)[1] == bytes1('X')) */\n      dup1\n      iszero\n      tag_139\n      jumpi\n      pop\n        /* \"test.sol\":1612:1623  bytes1('x') */\n      0x7800000000000000000000000000000000000000000000000000000000000000\n        /* \"test.sol\":1592:1623  bytes(_input)[1] == bytes1('x') */\n      not(0xffffffffffffffffffffffffffffffffffffffffffffffffffffffffffffff)\n      and\n        /* \"test.sol\":1598:1604  _input */\n      dup3\n        /* \"test.sol\":1606:1607  1 */\n      0x01\n        /* \"test.sol\":1592:1608  bytes(_input)[1] */\n      dup2\n      mload\n      dup2\n      lt\n      tag_140\n      jumpi\n      tag_141\n      tag_51\n      jump\t// in\n    tag_141:\n    tag_140:\n      0x20\n      add\n      add\n      mload\n      0xf8\n      shr\n      0xf8\n      shl\n        /* \"test.sol\":1592:1623  bytes(_input)[1] == bytes1('x') */\n      not(0xffffffffffffffffffffffffffffffffffffffffffffffffffffffffffffff)\n      and\n      eq\n        /* \"test.sol\":1592:1658  bytes(_input)[1] == bytes1('x') || bytes(_input)[1] == bytes1('X') */\n      dup1\n      tag_142\n      jumpi\n      pop\n        /* \"test.sol\":1647:1658  bytes1('X') */\n      0x5800000000000000000000000000000000000000000000000000000000000000\n        /* \"test.sol\":1627:1658  bytes(_input)[1] == bytes1('X') */\n      not(0xffffffffffffffffffffffffffffffffffffffffffffffffffffffffffffff)\n      and\n        /* \"test.sol\":1633:1639  _input */\n      dup3\n        /* \"test.sol\":1641:1642  1 */\n      0x01\n        /* \"test.sol\":1627:1643  bytes(_input)[1] */\n      dup2\n      mload\n      dup2\n      lt\n      tag_143\n      jumpi\n      tag_144\n      tag_51\n      jump\t// in\n    tag_144:\n    tag_143:\n      0x20\n      add\n      add\n      mload\n      0xf8\n      shr\n      0xf8\n      shl\n        /* \"test.sol\":1627:1658  bytes(_input)[1] == bytes1('X') */\n      not(0xffffffffffffffffffffffffffffffffffffffffffffffffffffffffffffff)\n      and\n      eq\n        /* \"test.sol\":1592:1658  bytes(_input)[1] == bytes1('x') || bytes(_input)[1] == bytes1('X') */\n    tag_142:\n        /* \"test.sol\":1556:1659  bytes(_input)[0] == bytes1('0') && (bytes(_input)[1] == bytes1('x') || bytes(_input)[1] == bytes1('X')) */\n    tag_139:\n        /* \"test.sol\":1552:1775  if (bytes(_input)[0] == bytes1('0') && (bytes(_input)[1] == bytes1('x') || bytes(_input)[1] == bytes1('X'))) {... */\n      iszero\n      tag_145\n      jumpi\n        /* \"test.sol\":1701:1707  _input */\n      dup2\n        /* \"test.sol\":1687:1709  bytes20(bytes(_input)) */\n      tag_146\n      swap1\n      tag_147\n      jump\t// in\n    tag_146:\n        /* \"test.sol\":1679:1710  address(bytes20(bytes(_input))) */\n      0x60\n      shr\n        /* \"test.sol\":1672:1710  return address(bytes20(bytes(_input))) */\n      swap1\n      pop\n      jump(tag_134)\n        /* \"test.sol\":1552:1775  if (bytes(_input)[0] == bytes1('0') && (bytes(_input)[1] == bytes1('x') || bytes(_input)[1] == bytes1('X'))) {... */\n    tag_145:\n        /* \"test.sol\":1735:1767  revert(\"Invalid address format\") */\n      mload(0x40)\n      0x08c379a000000000000000000000000000000000000000000000000000000000\n      dup2\n      mstore\n      0x04\n      add\n      tag_149\n      swap1\n      tag_60\n      jump\t// in\n    tag_149:\n      mload(0x40)\n      dup1\n      swap2\n      sub\n      swap1\n      revert\n        /* \"test.sol\":1399:1778  function stringToAddress2(string memory _input) public pure returns (address) {... */\n    tag_134:\n      swap2\n      swap1\n      pop\n      jump\t// out\n        /* \"test.sol\":755:939  function countCharacters(string memory _inputString) public pure returns (uint256) {... */\n    tag_34:\n        /* \"test.sol\":829:836  uint256 */\n      0x00\n        /* \"test.sol\":849:873  bytes memory stringBytes */\n      dup1\n        /* \"test.sol\":882:894  _inputString */\n      dup3\n        /* \"test.sol\":849:895  bytes memory stringBytes = bytes(_inputString) */\n      swap1\n      pop\n        /* \"test.sol\":913:924  stringBytes */\n      dup1\n        /* \"test.sol\":913:931  stringBytes.length */\n      mload\n        /* \"test.sol\":906:931  return stringBytes.length */\n      swap2\n      pop\n      pop\n        /* \"test.sol\":755:939  function countCharacters(string memory _inputString) public pure returns (uint256) {... */\n      swap2\n      swap1\n      pop\n      jump\t// out\n        /* \"test.sol\":1125:1391  function stringToAddress1(string memory _input) public pure returns (address) {... */\n    tag_39:\n        /* \"test.sol\":1194:1201  address */\n      0x00\n        /* \"test.sol\":1242:1244  42 */\n      0x2a\n        /* \"test.sol\":1224:1230  _input */\n      dup3\n        /* \"test.sol\":1218:1238  bytes(_input).length */\n      mload\n        /* \"test.sol\":1218:1244  bytes(_input).length == 42 */\n      sub\n        /* \"test.sol\":1214:1351  if (bytes(_input).length == 42) {... */\n      tag_152\n      jumpi\n        /* \"test.sol\":1261:1276  address Address */\n      0x00\n        /* \"test.sol\":1301:1307  _input */\n      dup3\n        /* \"test.sol\":1287:1309  bytes20(bytes(_input)) */\n      tag_153\n      swap1\n      tag_147\n      jump\t// in\n    tag_153:\n        /* \"test.sol\":1279:1310  address(bytes20(bytes(_input))) */\n      0x60\n      shr\n        /* \"test.sol\":1261:1310  address Address = address(bytes20(bytes(_input))) */\n      swap1\n      pop\n        /* \"test.sol\":1332:1339  Address */\n      dup1\n        /* \"test.sol\":1325:1339  return Address */\n      swap2\n      pop\n      pop\n      jump(tag_151)\n        /* \"test.sol\":1214:1351  if (bytes(_input).length == 42) {... */\n    tag_152:\n        /* \"test.sol\":1363:1383  revert (\"Not found\") */\n      mload(0x40)\n      0x08c379a000000000000000000000000000000000000000000000000000000000\n      dup2\n      mstore\n      0x04\n      add\n      tag_154\n      swap1\n      tag_155\n      jump\t// in\n    tag_154:\n      mload(0x40)\n      dup1\n      swap2\n      sub\n      swap1\n      revert\n        /* \"test.sol\":1125:1391  function stringToAddress1(string memory _input) public pure returns (address) {... */\n    tag_151:\n      swap2\n      swap1\n      pop\n      jump\t// out\n        /* \"test.sol\":947:1117  function numberOfBytes(string memory _input) public pure returns (uint256) {... */\n    tag_43:\n        /* \"test.sol\":1013:1020  uint256 */\n      0x00\n        /* \"test.sol\":1033:1057  bytes memory stringBytes */\n      dup1\n        /* \"test.sol\":1066:1072  _input */\n      dup3\n        /* \"test.sol\":1033:1073  bytes memory stringBytes = bytes(_input) */\n      swap1\n      pop\n        /* \"test.sol\":1091:1102  stringBytes */\n      dup1\n        /* \"test.sol\":1091:1109  stringBytes.length */\n      mload\n        /* \"test.sol\":1084:1109  return stringBytes.length */\n      swap2\n      pop\n      pop\n        /* \"test.sol\":947:1117  function numberOfBytes(string memory _input) public pure returns (uint256) {... */\n      swap2\n      swap1\n      pop\n      jump\t// out\n        /* \"#utility.yul\":7:82   */\n    tag_157:\n        /* \"#utility.yul\":40:46   */\n      0x00\n        /* \"#utility.yul\":73:75   */\n      0x40\n        /* \"#utility.yul\":67:76   */\n      mload\n        /* \"#utility.yul\":57:76   */\n      swap1\n      pop\n        /* \"#utility.yul\":7:82   */\n      swap1\n      jump\t// out\n        /* \"#utility.yul\":88:205   */\n    tag_158:\n        /* \"#utility.yul\":197:198   */\n      0x00\n        /* \"#utility.yul\":194:195   */\n      dup1\n        /* \"#utility.yul\":187:199   */\n      revert\n        /* \"#utility.yul\":211:328   */\n    tag_159:\n        /* \"#utility.yul\":320:321   */\n      0x00\n        /* \"#utility.yul\":317:318   */\n      dup1\n        /* \"#utility.yul\":310:322   */\n      revert\n        /* \"#utility.yul\":334:451   */\n    tag_160:\n        /* \"#utility.yul\":443:444   */\n      0x00\n        /* \"#utility.yul\":440:441   */\n      dup1\n        /* \"#utility.yul\":433:445   */\n      revert\n        /* \"#utility.yul\":457:574   */\n    tag_161:\n        /* \"#utility.yul\":566:567   */\n      0x00\n        /* \"#utility.yul\":563:564   */\n      dup1\n        /* \"#utility.yul\":556:568   */\n      revert\n        /* \"#utility.yul\":580:682   */\n    tag_162:\n        /* \"#utility.yul\":621:627   */\n      0x00\n        /* \"#utility.yul\":672:674   */\n      0x1f\n        /* \"#utility.yul\":668:675   */\n      not\n        /* \"#utility.yul\":663:665   */\n      0x1f\n        /* \"#utility.yul\":656:661   */\n      dup4\n        /* \"#utility.yul\":652:666   */\n      add\n        /* \"#utility.yul\":648:676   */\n      and\n        /* \"#utility.yul\":638:676   */\n      swap1\n      pop\n        /* \"#utility.yul\":580:682   */\n      swap2\n      swap1\n      pop\n      jump\t// out\n        /* \"#utility.yul\":688:868   */\n    tag_63:\n        /* \"#utility.yul\":736:813   */\n      0x4e487b7100000000000000000000000000000000000000000000000000000000\n        /* \"#utility.yul\":733:734   */\n      0x00\n        /* \"#utility.yul\":726:814   */\n      mstore\n        /* \"#utility.yul\":833:837   */\n      0x41\n        /* \"#utility.yul\":830:831   */\n      0x04\n        /* \"#utility.yul\":823:838   */\n      mstore\n        /* \"#utility.yul\":857:861   */\n      0x24\n        /* \"#utility.yul\":854:855   */\n      0x00\n        /* \"#utility.yul\":847:862   */\n      revert\n        /* \"#utility.yul\":874:1155   */\n    tag_163:\n        /* \"#utility.yul\":957:984   */\n      tag_206\n        /* \"#utility.yul\":979:983   */\n      dup3\n        /* \"#utility.yul\":957:984   */\n      tag_162\n      jump\t// in\n    tag_206:\n        /* \"#utility.yul\":949:955   */\n      dup2\n        /* \"#utility.yul\":945:985   */\n      add\n        /* \"#utility.yul\":1087:1093   */\n      dup2\n        /* \"#utility.yul\":1075:1085   */\n      dup2\n        /* \"#utility.yul\":1072:1094   */\n      lt\n        /* \"#utility.yul\":1051:1069   */\n      0xffffffffffffffff\n        /* \"#utility.yul\":1039:1049   */\n      dup3\n        /* \"#utility.yul\":1036:1070   */\n      gt\n        /* \"#utility.yul\":1033:1095   */\n      or\n        /* \"#utility.yul\":1030:1118   */\n      iszero\n      tag_207\n      jumpi\n        /* \"#utility.yul\":1098:1116   */\n      tag_208\n      tag_63\n      jump\t// in\n    tag_208:\n        /* \"#utility.yul\":1030:1118   */\n    tag_207:\n        /* \"#utility.yul\":1138:1148   */\n      dup1\n        /* \"#utility.yul\":1134:1136   */\n      0x40\n        /* \"#utility.yul\":1127:1149   */\n      mstore\n        /* \"#utility.yul\":917:1155   */\n      pop\n        /* \"#utility.yul\":874:1155   */\n      pop\n      pop\n      jump\t// out\n        /* \"#utility.yul\":1161:1290   */\n    tag_164:\n        /* \"#utility.yul\":1195:1201   */\n      0x00\n        /* \"#utility.yul\":1222:1242   */\n      tag_210\n      tag_157\n      jump\t// in\n    tag_210:\n        /* \"#utility.yul\":1212:1242   */\n      swap1\n      pop\n        /* \"#utility.yul\":1251:1284   */\n      tag_211\n        /* \"#utility.yul\":1279:1283   */\n      dup3\n        /* \"#utility.yul\":1271:1277   */\n      dup3\n        /* \"#utility.yul\":1251:1284   */\n      tag_163\n      jump\t// in\n    tag_211:\n        /* \"#utility.yul\":1161:1290   */\n      swap2\n      swap1\n      pop\n      jump\t// out\n        /* \"#utility.yul\":1296:1604   */\n    tag_165:\n        /* \"#utility.yul\":1358:1362   */\n      0x00\n        /* \"#utility.yul\":1448:1466   */\n      0xffffffffffffffff\n        /* \"#utility.yul\":1440:1446   */\n      dup3\n        /* \"#utility.yul\":1437:1467   */\n      gt\n        /* \"#utility.yul\":1434:1490   */\n      iszero\n      tag_213\n      jumpi\n        /* \"#utility.yul\":1470:1488   */\n      tag_214\n      tag_63\n      jump\t// in\n    tag_214:\n        /* \"#utility.yul\":1434:1490   */\n    tag_213:\n        /* \"#utility.yul\":1508:1537   */\n      tag_215\n        /* \"#utility.yul\":1530:1536   */\n      dup3\n        /* \"#utility.yul\":1508:1537   */\n      tag_162\n      jump\t// in\n    tag_215:\n        /* \"#utility.yul\":1500:1537   */\n      swap1\n      pop\n        /* \"#utility.yul\":1592:1596   */\n      0x20\n        /* \"#utility.yul\":1586:1590   */\n      dup2\n        /* \"#utility.yul\":1582:1597   */\n      add\n        /* \"#utility.yul\":1574:1597   */\n      swap1\n      pop\n        /* \"#utility.yul\":1296:1604   */\n      swap2\n      swap1\n      pop\n      jump\t// out\n        /* \"#utility.yul\":1610:1756   */\n    tag_166:\n        /* \"#utility.yul\":1707:1713   */\n      dup3\n        /* \"#utility.yul\":1702:1705   */\n      dup2\n        /* \"#utility.yul\":1697:1700   */\n      dup4\n        /* \"#utility.yul\":1684:1714   */\n      calldatacopy\n        /* \"#utility.yul\":1748:1749   */\n      0x00\n        /* \"#utility.yul\":1739:1745   */\n      dup4\n        /* \"#utility.yul\":1734:1737   */\n      dup4\n        /* \"#utility.yul\":1730:1746   */\n      add\n        /* \"#utility.yul\":1723:1750   */\n      mstore\n        /* \"#utility.yul\":1610:1756   */\n      pop\n      pop\n      pop\n      jump\t// out\n        /* \"#utility.yul\":1762:2187   */\n    tag_167:\n        /* \"#utility.yul\":1840:1845   */\n      0x00\n        /* \"#utility.yul\":1865:1931   */\n      tag_218\n        /* \"#utility.yul\":1881:1930   */\n      tag_219\n        /* \"#utility.yul\":1923:1929   */\n      dup5\n        /* \"#utility.yul\":1881:1930   */\n      tag_165\n      jump\t// in\n    tag_219:\n        /* \"#utility.yul\":1865:1931   */\n      tag_164\n      jump\t// in\n    tag_218:\n        /* \"#utility.yul\":1856:1931   */\n      swap1\n      pop\n        /* \"#utility.yul\":1954:1960   */\n      dup3\n        /* \"#utility.yul\":1947:1952   */\n      dup2\n        /* \"#utility.yul\":1940:1961   */\n      mstore\n        /* \"#utility.yul\":1992:1996   */\n      0x20\n        /* \"#utility.yul\":1985:1990   */\n      dup2\n        /* \"#utility.yul\":1981:1997   */\n      add\n        /* \"#utility.yul\":2030:2033   */\n      dup5\n        /* \"#utility.yul\":2021:2027   */\n      dup5\n        /* \"#utility.yul\":2016:2019   */\n      dup5\n        /* \"#utility.yul\":2012:2028   */\n      add\n        /* \"#utility.yul\":2009:2034   */\n      gt\n        /* \"#utility.yul\":2006:2118   */\n      iszero\n      tag_220\n      jumpi\n        /* \"#utility.yul\":2037:2116   */\n      tag_221\n      tag_161\n      jump\t// in\n    tag_221:\n        /* \"#utility.yul\":2006:2118   */\n    tag_220:\n        /* \"#utility.yul\":2127:2181   */\n      tag_222\n        /* \"#utility.yul\":2174:2180   */\n      dup5\n        /* \"#utility.yul\":2169:2172   */\n      dup3\n        /* \"#utility.yul\":2164:2167   */\n      dup6\n        /* \"#utility.yul\":2127:2181   */\n      tag_166\n      jump\t// in\n    tag_222:\n        /* \"#utility.yul\":1846:2187   */\n      pop\n        /* \"#utility.yul\":1762:2187   */\n      swap4\n      swap3\n      pop\n      pop\n      pop\n      jump\t// out\n        /* \"#utility.yul\":2207:2547   */\n    tag_168:\n        /* \"#utility.yul\":2263:2268   */\n      0x00\n        /* \"#utility.yul\":2312:2315   */\n      dup3\n        /* \"#utility.yul\":2305:2309   */\n      0x1f\n        /* \"#utility.yul\":2297:2303   */\n      dup4\n        /* \"#utility.yul\":2293:2310   */\n      add\n        /* \"#utility.yul\":2289:2316   */\n      slt\n        /* \"#utility.yul\":2279:2401   */\n      tag_224\n      jumpi\n        /* \"#utility.yul\":2320:2399   */\n      tag_225\n      tag_160\n      jump\t// in\n    tag_225:\n        /* \"#utility.yul\":2279:2401   */\n    tag_224:\n        /* \"#utility.yul\":2437:2443   */\n      dup2\n        /* \"#utility.yul\":2424:2444   */\n      calldataload\n        /* \"#utility.yul\":2462:2541   */\n      tag_226\n        /* \"#utility.yul\":2537:2540   */\n      dup5\n        /* \"#utility.yul\":2529:2535   */\n      dup3\n        /* \"#utility.yul\":2522:2526   */\n      0x20\n        /* \"#utility.yul\":2514:2520   */\n      dup7\n        /* \"#utility.yul\":2510:2527   */\n      add\n        /* \"#utility.yul\":2462:2541   */\n      tag_167\n      jump\t// in\n    tag_226:\n        /* \"#utility.yul\":2453:2541   */\n      swap2\n      pop\n        /* \"#utility.yul\":2269:2547   */\n      pop\n        /* \"#utility.yul\":2207:2547   */\n      swap3\n      swap2\n      pop\n      pop\n      jump\t// out\n        /* \"#utility.yul\":2553:3062   */\n    tag_13:\n        /* \"#utility.yul\":2622:2628   */\n      0x00\n        /* \"#utility.yul\":2671:2673   */\n      0x20\n        /* \"#utility.yul\":2659:2668   */\n      dup3\n        /* \"#utility.yul\":2650:2657   */\n      dup5\n        /* \"#utility.yul\":2646:2669   */\n      sub\n        /* \"#utility.yul\":2642:2674   */\n      slt\n        /* \"#utility.yul\":2639:2758   */\n      iszero\n      tag_228\n      jumpi\n        /* \"#utility.yul\":2677:2756   */\n      tag_229\n      tag_158\n      jump\t// in\n    tag_229:\n        /* \"#utility.yul\":2639:2758   */\n    tag_228:\n        /* \"#utility.yul\":2825:2826   */\n      0x00\n        /* \"#utility.yul\":2814:2823   */\n      dup3\n        /* \"#utility.yul\":2810:2827   */\n      add\n        /* \"#utility.yul\":2797:2828   */\n      calldataload\n        /* \"#utility.yul\":2855:2873   */\n      0xffffffffffffffff\n        /* \"#utility.yul\":2847:2853   */\n      dup2\n        /* \"#utility.yul\":2844:2874   */\n      gt\n        /* \"#utility.yul\":2841:2958   */\n      iszero\n      tag_230\n      jumpi\n        /* \"#utility.yul\":2877:2956   */\n      tag_231\n      tag_159\n      jump\t// in\n    tag_231:\n        /* \"#utility.yul\":2841:2958   */\n    tag_230:\n        /* \"#utility.yul\":2982:3045   */\n      tag_232\n        /* \"#utility.yul\":3037:3044   */\n      dup5\n        /* \"#utility.yul\":3028:3034   */\n      dup3\n        /* \"#utility.yul\":3017:3026   */\n      dup6\n        /* \"#utility.yul\":3013:3035   */\n      add\n        /* \"#utility.yul\":2982:3045   */\n      tag_168\n      jump\t// in\n    tag_232:\n        /* \"#utility.yul\":2972:3045   */\n      swap2\n      pop\n        /* \"#utility.yul\":2768:3055   */\n      pop\n        /* \"#utility.yul\":2553:3062   */\n      swap3\n      swap2\n      pop\n      pop\n      jump\t// out\n        /* \"#utility.yul\":3068:3194   */\n    tag_169:\n        /* \"#utility.yul\":3105:3112   */\n      0x00\n        /* \"#utility.yul\":3145:3187   */\n      0xffffffffffffffffffffffffffffffffffffffff\n        /* \"#utility.yul\":3138:3143   */\n      dup3\n        /* \"#utility.yul\":3134:3188   */\n      and\n        /* \"#utility.yul\":3123:3188   */\n      swap1\n      pop\n        /* \"#utility.yul\":3068:3194   */\n      swap2\n      swap1\n      pop\n      jump\t// out\n        /* \"#utility.yul\":3200:3296   */\n    tag_170:\n        /* \"#utility.yul\":3237:3244   */\n      0x00\n        /* \"#utility.yul\":3266:3290   */\n      tag_235\n        /* \"#utility.yul\":3284:3289   */\n      dup3\n        /* \"#utility.yul\":3266:3290   */\n      tag_169\n      jump\t// in\n    tag_235:\n        /* \"#utility.yul\":3255:3290   */\n      swap1\n      pop\n        /* \"#utility.yul\":3200:3296   */\n      swap2\n      swap1\n      pop\n      jump\t// out\n        /* \"#utility.yul\":3302:3420   */\n    tag_171:\n        /* \"#utility.yul\":3389:3413   */\n      tag_237\n        /* \"#utility.yul\":3407:3412   */\n      dup2\n        /* \"#utility.yul\":3389:3413   */\n      tag_170\n      jump\t// in\n    tag_237:\n        /* \"#utility.yul\":3384:3387   */\n      dup3\n        /* \"#utility.yul\":3377:3414   */\n      mstore\n        /* \"#utility.yul\":3302:3420   */\n      pop\n      pop\n      jump\t// out\n        /* \"#utility.yul\":3426:3648   */\n    tag_16:\n        /* \"#utility.yul\":3519:3523   */\n      0x00\n        /* \"#utility.yul\":3557:3559   */\n      0x20\n        /* \"#utility.yul\":3546:3555   */\n      dup3\n        /* \"#utility.yul\":3542:3560   */\n      add\n        /* \"#utility.yul\":3534:3560   */\n      swap1\n      pop\n        /* \"#utility.yul\":3570:3641   */\n      tag_239\n        /* \"#utility.yul\":3638:3639   */\n      0x00\n        /* \"#utility.yul\":3627:3636   */\n      dup4\n        /* \"#utility.yul\":3623:3640   */\n      add\n        /* \"#utility.yul\":3614:3620   */\n      dup5\n        /* \"#utility.yul\":3570:3641   */\n      tag_171\n      jump\t// in\n    tag_239:\n        /* \"#utility.yul\":3426:3648   */\n      swap3\n      swap2\n      pop\n      pop\n      jump\t// out\n        /* \"#utility.yul\":3654:3731   */\n    tag_172:\n        /* \"#utility.yul\":3691:3698   */\n      0x00\n        /* \"#utility.yul\":3720:3725   */\n      dup2\n        /* \"#utility.yul\":3709:3725   */\n      swap1\n      pop\n        /* \"#utility.yul\":3654:3731   */\n      swap2\n      swap1\n      pop\n      jump\t// out\n        /* \"#utility.yul\":3737:3855   */\n    tag_173:\n        /* \"#utility.yul\":3824:3848   */\n      tag_242\n        /* \"#utility.yul\":3842:3847   */\n      dup2\n        /* \"#utility.yul\":3824:3848   */\n      tag_172\n      jump\t// in\n    tag_242:\n        /* \"#utility.yul\":3819:3822   */\n      dup3\n        /* \"#utility.yul\":3812:3849   */\n      mstore\n        /* \"#utility.yul\":3737:3855   */\n      pop\n      pop\n      jump\t// out\n        /* \"#utility.yul\":3861:4193   */\n    tag_21:\n        /* \"#utility.yul\":3982:3986   */\n      0x00\n        /* \"#utility.yul\":4020:4022   */\n      0x40\n        /* \"#utility.yul\":4009:4018   */\n      dup3\n        /* \"#utility.yul\":4005:4023   */\n      add\n        /* \"#utility.yul\":3997:4023   */\n      swap1\n      pop\n        /* \"#utility.yul\":4033:4104   */\n      tag_244\n        /* \"#utility.yul\":4101:4102   */\n      0x00\n        /* \"#utility.yul\":4090:4099   */\n      dup4\n        /* \"#utility.yul\":4086:4103   */\n      add\n        /* \"#utility.yul\":4077:4083   */\n      dup6\n        /* \"#utility.yul\":4033:4104   */\n      tag_171\n      jump\t// in\n    tag_244:\n        /* \"#utility.yul\":4114:4186   */\n      tag_245\n        /* \"#utility.yul\":4182:4184   */\n      0x20\n        /* \"#utility.yul\":4171:4180   */\n      dup4\n        /* \"#utility.yul\":4167:4185   */\n      add\n        /* \"#utility.yul\":4158:4164   */\n      dup5\n        /* \"#utility.yul\":4114:4186   */\n      tag_173\n      jump\t// in\n    tag_245:\n        /* \"#utility.yul\":3861:4193   */\n      swap4\n      swap3\n      pop\n      pop\n      pop\n      jump\t// out\n        /* \"#utility.yul\":4199:4321   */\n    tag_174:\n        /* \"#utility.yul\":4272:4296   */\n      tag_247\n        /* \"#utility.yul\":4290:4295   */\n      dup2\n        /* \"#utility.yul\":4272:4296   */\n      tag_170\n      jump\t// in\n    tag_247:\n        /* \"#utility.yul\":4265:4270   */\n      dup2\n        /* \"#utility.yul\":4262:4297   */\n      eq\n        /* \"#utility.yul\":4252:4315   */\n      tag_248\n      jumpi\n        /* \"#utility.yul\":4311:4312   */\n      0x00\n        /* \"#utility.yul\":4308:4309   */\n      dup1\n        /* \"#utility.yul\":4301:4313   */\n      revert\n        /* \"#utility.yul\":4252:4315   */\n    tag_248:\n        /* \"#utility.yul\":4199:4321   */\n      pop\n      jump\t// out\n        /* \"#utility.yul\":4327:4466   */\n    tag_175:\n        /* \"#utility.yul\":4373:4378   */\n      0x00\n        /* \"#utility.yul\":4411:4417   */\n      dup2\n        /* \"#utility.yul\":4398:4418   */\n      calldataload\n        /* \"#utility.yul\":4389:4418   */\n      swap1\n      pop\n        /* \"#utility.yul\":4427:4460   */\n      tag_250\n        /* \"#utility.yul\":4454:4459   */\n      dup2\n        /* \"#utility.yul\":4427:4460   */\n      tag_174\n      jump\t// in\n    tag_250:\n        /* \"#utility.yul\":4327:4466   */\n      swap3\n      swap2\n      pop\n      pop\n      jump\t// out\n        /* \"#utility.yul\":4472:4801   */\n    tag_24:\n        /* \"#utility.yul\":4531:4537   */\n      0x00\n        /* \"#utility.yul\":4580:4582   */\n      0x20\n        /* \"#utility.yul\":4568:4577   */\n      dup3\n        /* \"#utility.yul\":4559:4566   */\n      dup5\n        /* \"#utility.yul\":4555:4578   */\n      sub\n        /* \"#utility.yul\":4551:4583   */\n      slt\n        /* \"#utility.yul\":4548:4667   */\n      iszero\n      tag_252\n      jumpi\n        /* \"#utility.yul\":4586:4665   */\n      tag_253\n      tag_158\n      jump\t// in\n    tag_253:\n        /* \"#utility.yul\":4548:4667   */\n    tag_252:\n        /* \"#utility.yul\":4706:4707   */\n      0x00\n        /* \"#utility.yul\":4731:4784   */\n      tag_254\n        /* \"#utility.yul\":4776:4783   */\n      dup5\n        /* \"#utility.yul\":4767:4773   */\n      dup3\n        /* \"#utility.yul\":4756:4765   */\n      dup6\n        /* \"#utility.yul\":4752:4774   */\n      add\n        /* \"#utility.yul\":4731:4784   */\n      tag_175\n      jump\t// in\n    tag_254:\n        /* \"#utility.yul\":4721:4784   */\n      swap2\n      pop\n        /* \"#utility.yul\":4677:4794   */\n      pop\n        /* \"#utility.yul\":4472:4801   */\n      swap3\n      swap2\n      pop\n      pop\n      jump\t// out\n        /* \"#utility.yul\":4807:4906   */\n    tag_176:\n        /* \"#utility.yul\":4859:4865   */\n      0x00\n        /* \"#utility.yul\":4893:4898   */\n      dup2\n        /* \"#utility.yul\":4887:4899   */\n      mload\n        /* \"#utility.yul\":4877:4899   */\n      swap1\n      pop\n        /* \"#utility.yul\":4807:4906   */\n      swap2\n      swap1\n      pop\n      jump\t// out\n        /* \"#utility.yul\":4912:5081   */\n    tag_177:\n        /* \"#utility.yul\":4996:5007   */\n      0x00\n        /* \"#utility.yul\":5030:5036   */\n      dup3\n        /* \"#utility.yul\":5025:5028   */\n      dup3\n        /* \"#utility.yul\":5018:5037   */\n      mstore\n        /* \"#utility.yul\":5070:5074   */\n      0x20\n        /* \"#utility.yul\":5065:5068   */\n      dup3\n        /* \"#utility.yul\":5061:5075   */\n      add\n        /* \"#utility.yul\":5046:5075   */\n      swap1\n      pop\n        /* \"#utility.yul\":4912:5081   */\n      swap3\n      swap2\n      pop\n      pop\n      jump\t// out\n        /* \"#utility.yul\":5087:5333   */\n    tag_178:\n        /* \"#utility.yul\":5168:5169   */\n      0x00\n        /* \"#utility.yul\":5178:5291   */\n    tag_258:\n        /* \"#utility.yul\":5192:5198   */\n      dup4\n        /* \"#utility.yul\":5189:5190   */\n      dup2\n        /* \"#utility.yul\":5186:5199   */\n      lt\n        /* \"#utility.yul\":5178:5291   */\n      iszero\n      tag_260\n      jumpi\n        /* \"#utility.yul\":5277:5278   */\n      dup1\n        /* \"#utility.yul\":5272:5275   */\n      dup3\n        /* \"#utility.yul\":5268:5279   */\n      add\n        /* \"#utility.yul\":5262:5280   */\n      mload\n        /* \"#utility.yul\":5258:5259   */\n      dup2\n        /* \"#utility.yul\":5253:5256   */\n      dup5\n        /* \"#utility.yul\":5249:5260   */\n      add\n        /* \"#utility.yul\":5242:5281   */\n      mstore\n        /* \"#utility.yul\":5214:5216   */\n      0x20\n        /* \"#utility.yul\":5211:5212   */\n      dup2\n        /* \"#utility.yul\":5207:5217   */\n      add\n        /* \"#utility.yul\":5202:5217   */\n      swap1\n      pop\n        /* \"#utility.yul\":5178:5291   */\n      jump(tag_258)\n    tag_260:\n        /* \"#utility.yul\":5325:5326   */\n      0x00\n        /* \"#utility.yul\":5316:5322   */\n      dup5\n        /* \"#utility.yul\":5311:5314   */\n      dup5\n        /* \"#utility.yul\":5307:5323   */\n      add\n        /* \"#utility.yul\":5300:5327   */\n      mstore\n        /* \"#utility.yul\":5149:5333   */\n      pop\n        /* \"#utility.yul\":5087:5333   */\n      pop\n      pop\n      pop\n      jump\t// out\n        /* \"#utility.yul\":5339:5716   */\n    tag_179:\n        /* \"#utility.yul\":5427:5430   */\n      0x00\n        /* \"#utility.yul\":5455:5494   */\n      tag_262\n        /* \"#utility.yul\":5488:5493   */\n      dup3\n        /* \"#utility.yul\":5455:5494   */\n      tag_176\n      jump\t// in\n    tag_262:\n        /* \"#utility.yul\":5510:5581   */\n      tag_263\n        /* \"#utility.yul\":5574:5580   */\n      dup2\n        /* \"#utility.yul\":5569:5572   */\n      dup6\n        /* \"#utility.yul\":5510:5581   */\n      tag_177\n      jump\t// in\n    tag_263:\n        /* \"#utility.yul\":5503:5581   */\n      swap4\n      pop\n        /* \"#utility.yul\":5590:5655   */\n      tag_264\n        /* \"#utility.yul\":5648:5654   */\n      dup2\n        /* \"#utility.yul\":5643:5646   */\n      dup6\n        /* \"#utility.yul\":5636:5640   */\n      0x20\n        /* \"#utility.yul\":5629:5634   */\n      dup7\n        /* \"#utility.yul\":5625:5641   */\n      add\n        /* \"#utility.yul\":5590:5655   */\n      tag_178\n      jump\t// in\n    tag_264:\n        /* \"#utility.yul\":5680:5709   */\n      tag_265\n        /* \"#utility.yul\":5702:5708   */\n      dup2\n        /* \"#utility.yul\":5680:5709   */\n      tag_162\n      jump\t// in\n    tag_265:\n        /* \"#utility.yul\":5675:5678   */\n      dup5\n        /* \"#utility.yul\":5671:5710   */\n      add\n        /* \"#utility.yul\":5664:5710   */\n      swap2\n      pop\n        /* \"#utility.yul\":5431:5716   */\n      pop\n        /* \"#utility.yul\":5339:5716   */\n      swap3\n      swap2\n      pop\n      pop\n      jump\t// out\n        /* \"#utility.yul\":5722:6035   */\n    tag_27:\n        /* \"#utility.yul\":5835:5839   */\n      0x00\n        /* \"#utility.yul\":5873:5875   */\n      0x20\n        /* \"#utility.yul\":5862:5871   */\n      dup3\n        /* \"#utility.yul\":5858:5876   */\n      add\n        /* \"#utility.yul\":5850:5876   */\n      swap1\n      pop\n        /* \"#utility.yul\":5922:5931   */\n      dup2\n        /* \"#utility.yul\":5916:5920   */\n      dup2\n        /* \"#utility.yul\":5912:5932   */\n      sub\n        /* \"#utility.yul\":5908:5909   */\n      0x00\n        /* \"#utility.yul\":5897:5906   */\n      dup4\n        /* \"#utility.yul\":5893:5910   */\n      add\n        /* \"#utility.yul\":5886:5933   */\n      mstore\n        /* \"#utility.yul\":5950:6028   */\n      tag_267\n        /* \"#utility.yul\":6023:6027   */\n      dup2\n        /* \"#utility.yul\":6014:6020   */\n      dup5\n        /* \"#utility.yul\":5950:6028   */\n      tag_179\n      jump\t// in\n    tag_267:\n        /* \"#utility.yul\":5942:6028   */\n      swap1\n      pop\n        /* \"#utility.yul\":5722:6035   */\n      swap3\n      swap2\n      pop\n      pop\n      jump\t// out\n        /* \"#utility.yul\":6041:6263   */\n    tag_36:\n        /* \"#utility.yul\":6134:6138   */\n      0x00\n        /* \"#utility.yul\":6172:6174   */\n      0x20\n        /* \"#utility.yul\":6161:6170   */\n      dup3\n        /* \"#utility.yul\":6157:6175   */\n      add\n        /* \"#utility.yul\":6149:6175   */\n      swap1\n      pop\n        /* \"#utility.yul\":6185:6256   */\n      tag_269\n        /* \"#utility.yul\":6253:6254   */\n      0x00\n        /* \"#utility.yul\":6242:6251   */\n      dup4\n        /* \"#utility.yul\":6238:6255   */\n      add\n        /* \"#utility.yul\":6229:6235   */\n      dup5\n        /* \"#utility.yul\":6185:6256   */\n      tag_173\n      jump\t// in\n    tag_269:\n        /* \"#utility.yul\":6041:6263   */\n      swap3\n      swap2\n      pop\n      pop\n      jump\t// out\n        /* \"#utility.yul\":6269:6491   */\n    tag_180:\n        /* \"#utility.yul\":6409:6443   */\n      0x537472696e67206c656e677468206d7573742062652034322063686172616374\n        /* \"#utility.yul\":6405:6406   */\n      0x00\n        /* \"#utility.yul\":6397:6403   */\n      dup3\n        /* \"#utility.yul\":6393:6407   */\n      add\n        /* \"#utility.yul\":6386:6444   */\n      mstore\n        /* \"#utility.yul\":6478:6483   */\n      0x6572730000000000000000000000000000000000000000000000000000000000\n        /* \"#utility.yul\":6473:6475   */\n      0x20\n        /* \"#utility.yul\":6465:6471   */\n      dup3\n        /* \"#utility.yul\":6461:6476   */\n      add\n        /* \"#utility.yul\":6454:6484   */\n      mstore\n        /* \"#utility.yul\":6269:6491   */\n      pop\n      jump\t// out\n        /* \"#utility.yul\":6497:6863   */\n    tag_181:\n        /* \"#utility.yul\":6639:6642   */\n      0x00\n        /* \"#utility.yul\":6660:6727   */\n      tag_272\n        /* \"#utility.yul\":6724:6726   */\n      0x23\n        /* \"#utility.yul\":6719:6722   */\n      dup4\n        /* \"#utility.yul\":6660:6727   */\n      tag_177\n      jump\t// in\n    tag_272:\n        /* \"#utility.yul\":6653:6727   */\n      swap2\n      pop\n        /* \"#utility.yul\":6736:6829   */\n      tag_273\n        /* \"#utility.yul\":6825:6828   */\n      dup3\n        /* \"#utility.yul\":6736:6829   */\n      tag_180\n      jump\t// in\n    tag_273:\n        /* \"#utility.yul\":6854:6856   */\n      0x40\n        /* \"#utility.yul\":6849:6852   */\n      dup3\n        /* \"#utility.yul\":6845:6857   */\n      add\n        /* \"#utility.yul\":6838:6857   */\n      swap1\n      pop\n        /* \"#utility.yul\":6497:6863   */\n      swap2\n      swap1\n      pop\n      jump\t// out\n        /* \"#utility.yul\":6869:7288   */\n    tag_48:\n        /* \"#utility.yul\":7035:7039   */\n      0x00\n        /* \"#utility.yul\":7073:7075   */\n      0x20\n        /* \"#utility.yul\":7062:7071   */\n      dup3\n        /* \"#utility.yul\":7058:7076   */\n      add\n        /* \"#utility.yul\":7050:7076   */\n      swap1\n      pop\n        /* \"#utility.yul\":7122:7131   */\n      dup2\n        /* \"#utility.yul\":7116:7120   */\n      dup2\n        /* \"#utility.yul\":7112:7132   */\n      sub\n        /* \"#utility.yul\":7108:7109   */\n      0x00\n        /* \"#utility.yul\":7097:7106   */\n      dup4\n        /* \"#utility.yul\":7093:7110   */\n      add\n        /* \"#utility.yul\":7086:7133   */\n      mstore\n        /* \"#utility.yul\":7150:7281   */\n      tag_275\n        /* \"#utility.yul\":7276:7280   */\n      dup2\n        /* \"#utility.yul\":7150:7281   */\n      tag_181\n      jump\t// in\n    tag_275:\n        /* \"#utility.yul\":7142:7281   */\n      swap1\n      pop\n        /* \"#utility.yul\":6869:7288   */\n      swap2\n      swap1\n      pop\n      jump\t// out\n        /* \"#utility.yul\":7294:7474   */\n    tag_51:\n        /* \"#utility.yul\":7342:7419   */\n      0x4e487b7100000000000000000000000000000000000000000000000000000000\n        /* \"#utility.yul\":7339:7340   */\n      0x00\n        /* \"#utility.yul\":7332:7420   */\n      mstore\n        /* \"#utility.yul\":7439:7443   */\n      0x32\n        /* \"#utility.yul\":7436:7437   */\n      0x04\n        /* \"#utility.yul\":7429:7444   */\n      mstore\n        /* \"#utility.yul\":7463:7467   */\n      0x24\n        /* \"#utility.yul\":7460:7461   */\n      0x00\n        /* \"#utility.yul\":7453:7468   */\n      revert\n        /* \"#utility.yul\":7480:7652   */\n    tag_182:\n        /* \"#utility.yul\":7620:7644   */\n      0x496e76616c6964206164647265737320666f726d617400000000000000000000\n        /* \"#utility.yul\":7616:7617   */\n      0x00\n        /* \"#utility.yul\":7608:7614   */\n      dup3\n        /* \"#utility.yul\":7604:7618   */\n      add\n        /* \"#utility.yul\":7597:7645   */\n      mstore\n        /* \"#utility.yul\":7480:7652   */\n      pop\n      jump\t// out\n        /* \"#utility.yul\":7658:8024   */\n    tag_183:\n        /* \"#utility.yul\":7800:7803   */\n      0x00\n        /* \"#utility.yul\":7821:7888   */\n      tag_279\n        /* \"#utility.yul\":7885:7887   */\n      0x16\n        /* \"#utility.yul\":7880:7883   */\n      dup4\n        /* \"#utility.yul\":7821:7888   */\n      tag_177\n      jump\t// in\n    tag_279:\n        /* \"#utility.yul\":7814:7888   */\n      swap2\n      pop\n        /* \"#utility.yul\":7897:7990   */\n      tag_280\n        /* \"#utility.yul\":7986:7989   */\n      dup3\n        /* \"#utility.yul\":7897:7990   */\n      tag_182\n      jump\t// in\n    tag_280:\n        /* \"#utility.yul\":8015:8017   */\n      0x20\n        /* \"#utility.yul\":8010:8013   */\n      dup3\n        /* \"#utility.yul\":8006:8018   */\n      add\n        /* \"#utility.yul\":7999:8018   */\n      swap1\n      pop\n        /* \"#utility.yul\":7658:8024   */\n      swap2\n      swap1\n      pop\n      jump\t// out\n        /* \"#utility.yul\":8030:8449   */\n    tag_60:\n        /* \"#utility.yul\":8196:8200   */\n      0x00\n        /* \"#utility.yul\":8234:8236   */\n      0x20\n        /* \"#utility.yul\":8223:8232   */\n      dup3\n        /* \"#utility.yul\":8219:8237   */\n      add\n        /* \"#utility.yul\":8211:8237   */\n      swap1\n      pop\n        /* \"#utility.yul\":8283:8292   */\n      dup2\n        /* \"#utility.yul\":8277:8281   */\n      dup2\n        /* \"#utility.yul\":8273:8293   */\n      sub\n        /* \"#utility.yul\":8269:8270   */\n      0x00\n        /* \"#utility.yul\":8258:8267   */\n      dup4\n        /* \"#utility.yul\":8254:8271   */\n      add\n        /* \"#utility.yul\":8247:8294   */\n      mstore\n        /* \"#utility.yul\":8311:8442   */\n      tag_282\n        /* \"#utility.yul\":8437:8441   */\n      dup2\n        /* \"#utility.yul\":8311:8442   */\n      tag_183\n      jump\t// in\n    tag_282:\n        /* \"#utility.yul\":8303:8442   */\n      swap1\n      pop\n        /* \"#utility.yul\":8030:8449   */\n      swap2\n      swap1\n      pop\n      jump\t// out\n        /* \"#utility.yul\":8455:8635   */\n    tag_184:\n        /* \"#utility.yul\":8503:8580   */\n      0x4e487b7100000000000000000000000000000000000000000000000000000000\n        /* \"#utility.yul\":8500:8501   */\n      0x00\n        /* \"#utility.yul\":8493:8581   */\n      mstore\n        /* \"#utility.yul\":8600:8604   */\n      0x11\n        /* \"#utility.yul\":8597:8598   */\n      0x04\n        /* \"#utility.yul\":8590:8605   */\n      mstore\n        /* \"#utility.yul\":8624:8628   */\n      0x24\n        /* \"#utility.yul\":8621:8622   */\n      0x00\n        /* \"#utility.yul\":8614:8629   */\n      revert\n        /* \"#utility.yul\":8641:8832   */\n    tag_69:\n        /* \"#utility.yul\":8681:8684   */\n      0x00\n        /* \"#utility.yul\":8700:8720   */\n      tag_285\n        /* \"#utility.yul\":8718:8719   */\n      dup3\n        /* \"#utility.yul\":8700:8720   */\n      tag_172\n      jump\t// in\n    tag_285:\n        /* \"#utility.yul\":8695:8720   */\n      swap2\n      pop\n        /* \"#utility.yul\":8734:8754   */\n      tag_286\n        /* \"#utility.yul\":8752:8753   */\n      dup4\n        /* \"#utility.yul\":8734:8754   */\n      tag_172\n      jump\t// in\n    tag_286:\n        /* \"#utility.yul\":8729:8754   */\n      swap3\n      pop\n        /* \"#utility.yul\":8777:8778   */\n      dup3\n        /* \"#utility.yul\":8774:8775   */\n      dup3\n        /* \"#utility.yul\":8770:8779   */\n      add\n        /* \"#utility.yul\":8763:8779   */\n      swap1\n      pop\n        /* \"#utility.yul\":8798:8801   */\n      dup1\n        /* \"#utility.yul\":8795:8796   */\n      dup3\n        /* \"#utility.yul\":8792:8802   */\n      gt\n        /* \"#utility.yul\":8789:8825   */\n      iszero\n      tag_287\n      jumpi\n        /* \"#utility.yul\":8805:8823   */\n      tag_288\n      tag_184\n      jump\t// in\n    tag_288:\n        /* \"#utility.yul\":8789:8825   */\n    tag_287:\n        /* \"#utility.yul\":8641:8832   */\n      swap3\n      swap2\n      pop\n      pop\n      jump\t// out\n        /* \"#utility.yul\":8838:9071   */\n    tag_75:\n        /* \"#utility.yul\":8877:8880   */\n      0x00\n        /* \"#utility.yul\":8900:8924   */\n      tag_290\n        /* \"#utility.yul\":8918:8923   */\n      dup3\n        /* \"#utility.yul\":8900:8924   */\n      tag_172\n      jump\t// in\n    tag_290:\n        /* \"#utility.yul\":8891:8924   */\n      swap2\n      pop\n        /* \"#utility.yul\":8946:9012   */\n      0xffffffffffffffffffffffffffffffffffffffffffffffffffffffffffffffff\n        /* \"#utility.yul\":8939:8944   */\n      dup3\n        /* \"#utility.yul\":8936:9013   */\n      sub\n        /* \"#utility.yul\":8933:9036   */\n      tag_291\n      jumpi\n        /* \"#utility.yul\":9016:9034   */\n      tag_292\n      tag_184\n      jump\t// in\n    tag_292:\n        /* \"#utility.yul\":8933:9036   */\n    tag_291:\n        /* \"#utility.yul\":9063:9064   */\n      0x01\n        /* \"#utility.yul\":9056:9061   */\n      dup3\n        /* \"#utility.yul\":9052:9065   */\n      add\n        /* \"#utility.yul\":9045:9065   */\n      swap1\n      pop\n        /* \"#utility.yul\":8838:9071   */\n      swap2\n      swap1\n      pop\n      jump\t// out\n        /* \"#utility.yul\":9077:9247   */\n    tag_185:\n        /* \"#utility.yul\":9217:9239   */\n      0x496e76616c696420696e707574206c656e677468000000000000000000000000\n        /* \"#utility.yul\":9213:9214   */\n      0x00\n        /* \"#utility.yul\":9205:9211   */\n      dup3\n        /* \"#utility.yul\":9201:9215   */\n      add\n        /* \"#utility.yul\":9194:9240   */\n      mstore\n        /* \"#utility.yul\":9077:9247   */\n      pop\n      jump\t// out\n        /* \"#utility.yul\":9253:9619   */\n    tag_186:\n        /* \"#utility.yul\":9395:9398   */\n      0x00\n        /* \"#utility.yul\":9416:9483   */\n      tag_295\n        /* \"#utility.yul\":9480:9482   */\n      0x14\n        /* \"#utility.yul\":9475:9478   */\n      dup4\n        /* \"#utility.yul\":9416:9483   */\n      tag_177\n      jump\t// in\n    tag_295:\n        /* \"#utility.yul\":9409:9483   */\n      swap2\n      pop\n        /* \"#utility.yul\":9492:9585   */\n      tag_296\n        /* \"#utility.yul\":9581:9584   */\n      dup3\n        /* \"#utility.yul\":9492:9585   */\n      tag_185\n      jump\t// in\n    tag_296:\n        /* \"#utility.yul\":9610:9612   */\n      0x20\n        /* \"#utility.yul\":9605:9608   */\n      dup3\n        /* \"#utility.yul\":9601:9613   */\n      add\n        /* \"#utility.yul\":9594:9613   */\n      swap1\n      pop\n        /* \"#utility.yul\":9253:9619   */\n      swap2\n      swap1\n      pop\n      jump\t// out\n        /* \"#utility.yul\":9625:10044   */\n    tag_79:\n        /* \"#utility.yul\":9791:9795   */\n      0x00\n        /* \"#utility.yul\":9829:9831   */\n      0x20\n        /* \"#utility.yul\":9818:9827   */\n      dup3\n        /* \"#utility.yul\":9814:9832   */\n      add\n        /* \"#utility.yul\":9806:9832   */\n      swap1\n      pop\n        /* \"#utility.yul\":9878:9887   */\n      dup2\n        /* \"#utility.yul\":9872:9876   */\n      dup2\n        /* \"#utility.yul\":9868:9888   */\n      sub\n        /* \"#utility.yul\":9864:9865   */\n      0x00\n        /* \"#utility.yul\":9853:9862   */\n      dup4\n        /* \"#utility.yul\":9849:9866   */\n      add\n        /* \"#utility.yul\":9842:9889   */\n      mstore\n        /* \"#utility.yul\":9906:10037   */\n      tag_298\n        /* \"#utility.yul\":10032:10036   */\n      dup2\n        /* \"#utility.yul\":9906:10037   */\n      tag_186\n      jump\t// in\n    tag_298:\n        /* \"#utility.yul\":9898:10037   */\n      swap1\n      pop\n        /* \"#utility.yul\":9625:10044   */\n      swap2\n      swap1\n      pop\n      jump\t// out\n        /* \"#utility.yul\":10050:10136   */\n    tag_187:\n        /* \"#utility.yul\":10085:10092   */\n      0x00\n        /* \"#utility.yul\":10125:10129   */\n      0xff\n        /* \"#utility.yul\":10118:10123   */\n      dup3\n        /* \"#utility.yul\":10114:10130   */\n      and\n        /* \"#utility.yul\":10103:10130   */\n      swap1\n      pop\n        /* \"#utility.yul\":10050:10136   */\n      swap2\n      swap1\n      pop\n      jump\t// out\n        /* \"#utility.yul\":10142:10333   */\n    tag_88:\n        /* \"#utility.yul\":10180:10184   */\n      0x00\n        /* \"#utility.yul\":10200:10218   */\n      tag_301\n        /* \"#utility.yul\":10216:10217   */\n      dup3\n        /* \"#utility.yul\":10200:10218   */\n      tag_187\n      jump\t// in\n    tag_301:\n        /* \"#utility.yul\":10195:10218   */\n      swap2\n      pop\n        /* \"#utility.yul\":10232:10250   */\n      tag_302\n        /* \"#utility.yul\":10248:10249   */\n      dup4\n        /* \"#utility.yul\":10232:10250   */\n      tag_187\n      jump\t// in\n    tag_302:\n        /* \"#utility.yul\":10227:10250   */\n      swap3\n      pop\n        /* \"#utility.yul\":10274:10275   */\n      dup3\n        /* \"#utility.yul\":10271:10272   */\n      dup3\n        /* \"#utility.yul\":10267:10276   */\n      sub\n        /* \"#utility.yul\":10259:10276   */\n      swap1\n      pop\n        /* \"#utility.yul\":10298:10302   */\n      0xff\n        /* \"#utility.yul\":10292:10296   */\n      dup2\n        /* \"#utility.yul\":10289:10303   */\n      gt\n        /* \"#utility.yul\":10286:10326   */\n      iszero\n      tag_303\n      jumpi\n        /* \"#utility.yul\":10306:10324   */\n      tag_304\n      tag_184\n      jump\t// in\n    tag_304:\n        /* \"#utility.yul\":10286:10326   */\n    tag_303:\n        /* \"#utility.yul\":10142:10333   */\n      swap3\n      swap2\n      pop\n      pop\n      jump\t// out\n        /* \"#utility.yul\":10339:10515   */\n    tag_188:\n        /* \"#utility.yul\":10479:10507   */\n      0x496e76616c69642063686172616374657220696e20696e707574000000000000\n        /* \"#utility.yul\":10475:10476   */\n      0x00\n        /* \"#utility.yul\":10467:10473   */\n      dup3\n        /* \"#utility.yul\":10463:10477   */\n      add\n        /* \"#utility.yul\":10456:10508   */\n      mstore\n        /* \"#utility.yul\":10339:10515   */\n      pop\n      jump\t// out\n        /* \"#utility.yul\":10521:10887   */\n    tag_189:\n        /* \"#utility.yul\":10663:10666   */\n      0x00\n        /* \"#utility.yul\":10684:10751   */\n      tag_307\n        /* \"#utility.yul\":10748:10750   */\n      0x1a\n        /* \"#utility.yul\":10743:10746   */\n      dup4\n        /* \"#utility.yul\":10684:10751   */\n      tag_177\n      jump\t// in\n    tag_307:\n        /* \"#utility.yul\":10677:10751   */\n      swap2\n      pop\n        /* \"#utility.yul\":10760:10853   */\n      tag_308\n        /* \"#utility.yul\":10849:10852   */\n      dup3\n        /* \"#utility.yul\":10760:10853   */\n      tag_188\n      jump\t// in\n    tag_308:\n        /* \"#utility.yul\":10878:10880   */\n      0x20\n        /* \"#utility.yul\":10873:10876   */\n      dup3\n        /* \"#utility.yul\":10869:10881   */\n      add\n        /* \"#utility.yul\":10862:10881   */\n      swap1\n      pop\n        /* \"#utility.yul\":10521:10887   */\n      swap2\n      swap1\n      pop\n      jump\t// out\n        /* \"#utility.yul\":10893:11312   */\n    tag_99:\n        /* \"#utility.yul\":11059:11063   */\n      0x00\n        /* \"#utility.yul\":11097:11099   */\n      0x20\n        /* \"#utility.yul\":11086:11095   */\n      dup3\n        /* \"#utility.yul\":11082:11100   */\n      add\n        /* \"#utility.yul\":11074:11100   */\n      swap1\n      pop\n        /* \"#utility.yul\":11146:11155   */\n      dup2\n        /* \"#utility.yul\":11140:11144   */\n      dup2\n        /* \"#utility.yul\":11136:11156   */\n      sub\n        /* \"#utility.yul\":11132:11133   */\n      0x00\n        /* \"#utility.yul\":11121:11130   */\n      dup4\n        /* \"#utility.yul\":11117:11134   */\n      add\n        /* \"#utility.yul\":11110:11157   */\n      mstore\n        /* \"#utility.yul\":11174:11305   */\n      tag_310\n        /* \"#utility.yul\":11300:11304   */\n      dup2\n        /* \"#utility.yul\":11174:11305   */\n      tag_189\n      jump\t// in\n    tag_310:\n        /* \"#utility.yul\":11166:11305   */\n      swap1\n      pop\n        /* \"#utility.yul\":10893:11312   */\n      swap2\n      swap1\n      pop\n      jump\t// out\n        /* \"#utility.yul\":11318:11728   */\n    tag_101:\n        /* \"#utility.yul\":11358:11365   */\n      0x00\n        /* \"#utility.yul\":11381:11401   */\n      tag_312\n        /* \"#utility.yul\":11399:11400   */\n      dup3\n        /* \"#utility.yul\":11381:11401   */\n      tag_172\n      jump\t// in\n    tag_312:\n        /* \"#utility.yul\":11376:11401   */\n      swap2\n      pop\n        /* \"#utility.yul\":11415:11435   */\n      tag_313\n        /* \"#utility.yul\":11433:11434   */\n      dup4\n        /* \"#utility.yul\":11415:11435   */\n      tag_172\n      jump\t// in\n    tag_313:\n        /* \"#utility.yul\":11410:11435   */\n      swap3\n      pop\n        /* \"#utility.yul\":11470:11471   */\n      dup3\n        /* \"#utility.yul\":11467:11468   */\n      dup3\n        /* \"#utility.yul\":11463:11472   */\n      mul\n        /* \"#utility.yul\":11492:11522   */\n      tag_314\n        /* \"#utility.yul\":11510:11521   */\n      dup2\n        /* \"#utility.yul\":11492:11522   */\n      tag_172\n      jump\t// in\n    tag_314:\n        /* \"#utility.yul\":11481:11522   */\n      swap2\n      pop\n        /* \"#utility.yul\":11671:11672   */\n      dup3\n        /* \"#utility.yul\":11662:11669   */\n      dup3\n        /* \"#utility.yul\":11658:11673   */\n      div\n        /* \"#utility.yul\":11655:11656   */\n      dup5\n        /* \"#utility.yul\":11652:11674   */\n      eq\n        /* \"#utility.yul\":11632:11633   */\n      dup4\n        /* \"#utility.yul\":11625:11634   */\n      iszero\n        /* \"#utility.yul\":11605:11688   */\n      or\n        /* \"#utility.yul\":11582:11721   */\n      tag_315\n      jumpi\n        /* \"#utility.yul\":11701:11719   */\n      tag_316\n      tag_184\n      jump\t// in\n    tag_316:\n        /* \"#utility.yul\":11582:11721   */\n    tag_315:\n        /* \"#utility.yul\":11366:11728   */\n      pop\n        /* \"#utility.yul\":11318:11728   */\n      swap3\n      swap2\n      pop\n      pop\n      jump\t// out\n        /* \"#utility.yul\":11734:11832   */\n    tag_190:\n        /* \"#utility.yul\":11785:11791   */\n      0x00\n        /* \"#utility.yul\":11819:11824   */\n      dup2\n        /* \"#utility.yul\":11813:11825   */\n      mload\n        /* \"#utility.yul\":11803:11825   */\n      swap1\n      pop\n        /* \"#utility.yul\":11734:11832   */\n      swap2\n      swap1\n      pop\n      jump\t// out\n        /* \"#utility.yul\":11838:11954   */\n    tag_191:\n        /* \"#utility.yul\":11889:11893   */\n      0x00\n        /* \"#utility.yul\":11912:11915   */\n      dup2\n        /* \"#utility.yul\":11904:11915   */\n      swap1\n      pop\n        /* \"#utility.yul\":11942:11946   */\n      0x20\n        /* \"#utility.yul\":11937:11940   */\n      dup3\n        /* \"#utility.yul\":11933:11947   */\n      add\n        /* \"#utility.yul\":11925:11947   */\n      swap1\n      pop\n        /* \"#utility.yul\":11838:11954   */\n      swap2\n      swap1\n      pop\n      jump\t// out\n        /* \"#utility.yul\":11960:12110   */\n    tag_192:\n        /* \"#utility.yul\":11997:12004   */\n      0x00\n        /* \"#utility.yul\":12037:12103   */\n      0xffffffffffffffffffffffffffffffffffffffff000000000000000000000000\n        /* \"#utility.yul\":12030:12035   */\n      dup3\n        /* \"#utility.yul\":12026:12104   */\n      and\n        /* \"#utility.yul\":12015:12104   */\n      swap1\n      pop\n        /* \"#utility.yul\":11960:12110   */\n      swap2\n      swap1\n      pop\n      jump\t// out\n        /* \"#utility.yul\":12116:12270   */\n    tag_193:\n        /* \"#utility.yul\":12159:12170   */\n      0x00\n        /* \"#utility.yul\":12195:12224   */\n      tag_321\n        /* \"#utility.yul\":12219:12222   */\n      dup3\n        /* \"#utility.yul\":12213:12223   */\n      mload\n        /* \"#utility.yul\":12195:12224   */\n      tag_192\n      jump\t// in\n    tag_321:\n        /* \"#utility.yul\":12258:12263   */\n      dup1\n        /* \"#utility.yul\":12234:12263   */\n      swap2\n      pop\n        /* \"#utility.yul\":12171:12270   */\n      pop\n        /* \"#utility.yul\":12116:12270   */\n      swap2\n      swap1\n      pop\n      jump\t// out\n        /* \"#utility.yul\":12276:12383   */\n    tag_194:\n        /* \"#utility.yul\":12320:12328   */\n      0x00\n        /* \"#utility.yul\":12370:12375   */\n      dup3\n        /* \"#utility.yul\":12364:12368   */\n      dup3\n        /* \"#utility.yul\":12360:12376   */\n      shl\n        /* \"#utility.yul\":12339:12376   */\n      swap1\n      pop\n        /* \"#utility.yul\":12276:12383   */\n      swap3\n      swap2\n      pop\n      pop\n      jump\t// out\n        /* \"#utility.yul\":12389:12983   */\n    tag_147:\n        /* \"#utility.yul\":12473:12478   */\n      0x00\n        /* \"#utility.yul\":12504:12542   */\n      tag_324\n        /* \"#utility.yul\":12536:12541   */\n      dup3\n        /* \"#utility.yul\":12504:12542   */\n      tag_190\n      jump\t// in\n    tag_324:\n        /* \"#utility.yul\":12567:12572   */\n      dup3\n        /* \"#utility.yul\":12594:12634   */\n      tag_325\n        /* \"#utility.yul\":12628:12633   */\n      dup5\n        /* \"#utility.yul\":12594:12634   */\n      tag_191\n      jump\t// in\n    tag_325:\n        /* \"#utility.yul\":12582:12634   */\n      swap1\n      pop\n        /* \"#utility.yul\":12653:12688   */\n      tag_326\n        /* \"#utility.yul\":12679:12687   */\n      dup2\n        /* \"#utility.yul\":12653:12688   */\n      tag_193\n      jump\t// in\n    tag_326:\n        /* \"#utility.yul\":12644:12688   */\n      swap3\n      pop\n        /* \"#utility.yul\":12712:12714   */\n      0x14\n        /* \"#utility.yul\":12704:12710   */\n      dup3\n        /* \"#utility.yul\":12701:12715   */\n      lt\n        /* \"#utility.yul\":12698:12976   */\n      iszero\n      tag_327\n      jumpi\n        /* \"#utility.yul\":12783:12952   */\n      tag_328\n        /* \"#utility.yul\":12868:12934   */\n      0xffffffffffffffffffffffffffffffffffffffff000000000000000000000000\n        /* \"#utility.yul\":12838:12844   */\n      dup4\n        /* \"#utility.yul\":12834:12836   */\n      0x14\n        /* \"#utility.yul\":12830:12845   */\n      sub\n        /* \"#utility.yul\":12827:12828   */\n      0x08\n        /* \"#utility.yul\":12823:12846   */\n      mul\n        /* \"#utility.yul\":12783:12952   */\n      tag_194\n      jump\t// in\n    tag_328:\n        /* \"#utility.yul\":12760:12765   */\n      dup4\n        /* \"#utility.yul\":12739:12966   */\n      and\n        /* \"#utility.yul\":12730:12966   */\n      swap3\n      pop\n        /* \"#utility.yul\":12698:12976   */\n    tag_327:\n        /* \"#utility.yul\":12479:12983   */\n      pop\n      pop\n        /* \"#utility.yul\":12389:12983   */\n      swap2\n      swap1\n      pop\n      jump\t// out\n        /* \"#utility.yul\":12989:13148   */\n    tag_195:\n        /* \"#utility.yul\":13129:13140   */\n      0x4e6f7420666f756e640000000000000000000000000000000000000000000000\n        /* \"#utility.yul\":13125:13126   */\n      0x00\n        /* \"#utility.yul\":13117:13123   */\n      dup3\n        /* \"#utility.yul\":13113:13127   */\n      add\n        /* \"#utility.yul\":13106:13141   */\n      mstore\n        /* \"#utility.yul\":12989:13148   */\n      pop\n      jump\t// out\n        /* \"#utility.yul\":13154:13519   */\n    tag_196:\n        /* \"#utility.yul\":13296:13299   */\n      0x00\n        /* \"#utility.yul\":13317:13383   */\n      tag_331\n        /* \"#utility.yul\":13381:13382   */\n      0x09\n        /* \"#utility.yul\":13376:13379   */\n      dup4\n        /* \"#utility.yul\":13317:13383   */\n      tag_177\n      jump\t// in\n    tag_331:\n        /* \"#utility.yul\":13310:13383   */\n      swap2\n      pop\n        /* \"#utility.yul\":13392:13485   */\n      tag_332\n        /* \"#utility.yul\":13481:13484   */\n      dup3\n        /* \"#utility.yul\":13392:13485   */\n      tag_195\n      jump\t// in\n    tag_332:\n        /* \"#utility.yul\":13510:13512   */\n      0x20\n        /* \"#utility.yul\":13505:13508   */\n      dup3\n        /* \"#utility.yul\":13501:13513   */\n      add\n        /* \"#utility.yul\":13494:13513   */\n      swap1\n      pop\n        /* \"#utility.yul\":13154:13519   */\n      swap2\n      swap1\n      pop\n      jump\t// out\n        /* \"#utility.yul\":13525:13944   */\n    tag_155:\n        /* \"#utility.yul\":13691:13695   */\n      0x00\n        /* \"#utility.yul\":13729:13731   */\n      0x20\n        /* \"#utility.yul\":13718:13727   */\n      dup3\n        /* \"#utility.yul\":13714:13732   */\n      add\n        /* \"#utility.yul\":13706:13732   */\n      swap1\n      pop\n        /* \"#utility.yul\":13778:13787   */\n      dup2\n        /* \"#utility.yul\":13772:13776   */\n      dup2\n        /* \"#utility.yul\":13768:13788   */\n      sub\n        /* \"#utility.yul\":13764:13765   */\n      0x00\n        /* \"#utility.yul\":13753:13762   */\n      dup4\n        /* \"#utility.yul\":13749:13766   */\n      add\n        /* \"#utility.yul\":13742:13789   */\n      mstore\n        /* \"#utility.yul\":13806:13937   */\n      tag_334\n        /* \"#utility.yul\":13932:13936   */\n      dup2\n        /* \"#utility.yul\":13806:13937   */\n      tag_196\n      jump\t// in\n    tag_334:\n        /* \"#utility.yul\":13798:13937   */\n      swap1\n      pop\n        /* \"#utility.yul\":13525:13944   */\n      swap2\n      swap1\n      pop\n      jump\t// out\n\n    auxdata: 0xa26469706673582212201a753f8c56233dc667c6f2ef3f2c291b13b8be14901a16a74e84b7f2e21ffd0c64736f6c63430008120033\n}\n",
				"bytecode": {
					"linkReferences": {},
					"object": "608060405234801561001057600080fd5b5061144f806100206000396000f3fe608060405234801561001057600080fd5b506004361061007d5760003560e01c806387b57c881161005b57806387b57c8814610113578063943ab9f914610143578063a8d1ec8714610173578063d08f258d146101a35761007d565b806315706fdf14610082578063333e9e00146100b25780635e57966d146100e3575b600080fd5b61009c60048036038101906100979190610dad565b6101d3565b6040516100a99190610e37565b60405180910390f35b6100cc60048036038101906100c79190610dad565b6104ed565b6040516100da929190610e6b565b60405180910390f35b6100fd60048036038101906100f89190610ec0565b610686565b60405161010a9190610f6c565b60405180910390f35b61012d60048036038101906101289190610dad565b610991565b60405161013a9190610e37565b60405180910390f35b61015d60048036038101906101589190610dad565b610bce565b60405161016a9190610f8e565b60405180910390f35b61018d60048036038101906101889190610dad565b610bde565b60405161019a9190610e37565b60405180910390f35b6101bd60048036038101906101b89190610dad565b610c43565b6040516101ca9190610f8e565b60405180910390f35b6000602a825114610219576040517f08c379a00000000000000000000000000000000000000000000000000000000081526004016102109061101b565b60405180910390fd5b60008290507f30000000000000000000000000000000000000000000000000000000000000007effffffffffffffffffffffffffffffffffffffffffffffffffffffffffffff1916816000815181106102755761027461103b565b5b602001015160f81c60f81b7effffffffffffffffffffffffffffffffffffffffffffffffffffffffffffff19161480156103bc57507f78000000000000000000000000000000000000000000000000000000000000007effffffffffffffffffffffffffffffffffffffffffffffffffffffffffffff1916816001815181106103015761030061103b565b5b602001015160f81c60f81b7effffffffffffffffffffffffffffffffffffffffffffffffffffffffffffff191614806103bb57507f58000000000000000000000000000000000000000000000000000000000000007effffffffffffffffffffffffffffffffffffffffffffffffffffffffffffff19168160018151811061038c5761038b61103b565b5b602001015160f81c60f81b7effffffffffffffffffffffffffffffffffffffffffffffffffffffffffffff1916145b5b6103fb576040517f08c379a00000000000000000000000000000000000000000000000000000000081526004016103f2906110b6565b60405180910390fd5b6000601467ffffffffffffffff81111561041857610417610c82565b5b6040519080825280601f01601f19166020018201604052801561044a5781602001600182028036833780820191505090505b50905060005b60148110156104d857826002826104679190611105565b815181106104785761047761103b565b5b602001015160f81c60f81b8282815181106104965761049561103b565b5b60200101907effffffffffffffffffffffffffffffffffffffffffffffffffffffffffffff1916908160001a90535080806104d090611139565b915050610450565b50600060148201519050809350505050919050565b6000806000839050602a815114610539576040517f08c379a0000000000000000000000000000000000000000000000000000000008152600401610530906111cd565b60405180910390fd5b60008080600290505b83518110156106775760008482815181106105605761055f61103b565b5b602001015160f81c60f81b60f81c905060308160ff1610158015610588575060398160ff1611155b156105a45760308161059a91906111fa565b60ff169250610649565b60418160ff16101580156105bc575060468160ff1611155b156105d8576037816105ce91906111fa565b60ff169250610648565b60618160ff16101580156105f0575060668160ff1611155b1561060c5760578161060291906111fa565b60ff169250610647565b6040517f08c379a000000000000000000000000000000000000000000000000000000000815260040161063e9061127b565b60405180910390fd5b5b5b82601085610657919061129b565b6106619190611105565b935050808061066f90611139565b915050610542565b50818294509450505050915091565b606060008273ffffffffffffffffffffffffffffffffffffffff1660001b905060006040518060400160405280601081526020017f303132333435363738396162636465660000000000000000000000000000000081525090506000602a67ffffffffffffffff8111156106fd576106fc610c82565b5b6040519080825280601f01601f19166020018201604052801561072f5781602001600182028036833780820191505090505b5090507f3000000000000000000000000000000000000000000000000000000000000000816000815181106107675761076661103b565b5b60200101907effffffffffffffffffffffffffffffffffffffffffffffffffffffffffffff1916908160001a9053507f7800000000000000000000000000000000000000000000000000000000000000816001815181106107cb576107ca61103b565b5b60200101907effffffffffffffffffffffffffffffffffffffffffffffffffffffffffffff1916908160001a90535060005b60148110156109855782600485600c846108179190611105565b602081106108285761082761103b565b5b1a60f81b7effffffffffffffffffffffffffffffffffffffffffffffffffffffffffffff1916901c60f81c60ff16815181106108675761086661103b565b5b602001015160f81c60f81b82600283610880919061129b565b600261088c9190611105565b8151811061089d5761089c61103b565b5b60200101907effffffffffffffffffffffffffffffffffffffffffffffffffffffffffffff1916908160001a90535082600f60f81b85600c846108e09190611105565b602081106108f1576108f061103b565b5b1a60f81b1660f81c60ff168151811061090d5761090c61103b565b5b602001015160f81c60f81b82600283610926919061129b565b60036109329190611105565b815181106109435761094261103b565b5b60200101907effffffffffffffffffffffffffffffffffffffffffffffffffffffffffffff1916908160001a905350808061097d90611139565b9150506107fd565b50809350505050919050565b6000602a8251146109d7576040517f08c379a00000000000000000000000000000000000000000000000000000000081526004016109ce906111cd565b60405180910390fd5b7f30000000000000000000000000000000000000000000000000000000000000007effffffffffffffffffffffffffffffffffffffffffffffffffffffffffffff191682600081518110610a2e57610a2d61103b565b5b602001015160f81c60f81b7effffffffffffffffffffffffffffffffffffffffffffffffffffffffffffff1916148015610b7557507f78000000000000000000000000000000000000000000000000000000000000007effffffffffffffffffffffffffffffffffffffffffffffffffffffffffffff191682600181518110610aba57610ab961103b565b5b602001015160f81c60f81b7effffffffffffffffffffffffffffffffffffffffffffffffffffffffffffff19161480610b7457507f58000000000000000000000000000000000000000000000000000000000000007effffffffffffffffffffffffffffffffffffffffffffffffffffffffffffff191682600181518110610b4557610b4461103b565b5b602001015160f81c60f81b7effffffffffffffffffffffffffffffffffffffffffffffffffffffffffffff1916145b5b15610b8e5781610b8490611346565b60601c9050610bc9565b6040517f08c379a0000000000000000000000000000000000000000000000000000000008152600401610bc0906110b6565b60405180910390fd5b919050565b6000808290508051915050919050565b6000602a825103610c0357600082610bf590611346565b60601c905080915050610c3e565b6040517f08c379a0000000000000000000000000000000000000000000000000000000008152600401610c35906113f9565b60405180910390fd5b919050565b6000808290508051915050919050565b6000604051905090565b600080fd5b600080fd5b600080fd5b600080fd5b6000601f19601f8301169050919050565b7f4e487b7100000000000000000000000000000000000000000000000000000000600052604160045260246000fd5b610cba82610c71565b810181811067ffffffffffffffff82111715610cd957610cd8610c82565b5b80604052505050565b6000610cec610c53565b9050610cf88282610cb1565b919050565b600067ffffffffffffffff821115610d1857610d17610c82565b5b610d2182610c71565b9050602081019050919050565b82818337600083830152505050565b6000610d50610d4b84610cfd565b610ce2565b905082815260208101848484011115610d6c57610d6b610c6c565b5b610d77848285610d2e565b509392505050565b600082601f830112610d9457610d93610c67565b5b8135610da4848260208601610d3d565b91505092915050565b600060208284031215610dc357610dc2610c5d565b5b600082013567ffffffffffffffff811115610de157610de0610c62565b5b610ded84828501610d7f565b91505092915050565b600073ffffffffffffffffffffffffffffffffffffffff82169050919050565b6000610e2182610df6565b9050919050565b610e3181610e16565b82525050565b6000602082019050610e4c6000830184610e28565b92915050565b6000819050919050565b610e6581610e52565b82525050565b6000604082019050610e806000830185610e28565b610e8d6020830184610e5c565b9392505050565b610e9d81610e16565b8114610ea857600080fd5b50565b600081359050610eba81610e94565b92915050565b600060208284031215610ed657610ed5610c5d565b5b6000610ee484828501610eab565b91505092915050565b600081519050919050565b600082825260208201905092915050565b60005b83811015610f27578082015181840152602081019050610f0c565b60008484015250505050565b6000610f3e82610eed565b610f488185610ef8565b9350610f58818560208601610f09565b610f6181610c71565b840191505092915050565b60006020820190508181036000830152610f868184610f33565b905092915050565b6000602082019050610fa36000830184610e5c565b92915050565b7f537472696e67206c656e677468206d757374206265203432206368617261637460008201527f6572730000000000000000000000000000000000000000000000000000000000602082015250565b6000611005602383610ef8565b915061101082610fa9565b604082019050919050565b6000602082019050818103600083015261103481610ff8565b9050919050565b7f4e487b7100000000000000000000000000000000000000000000000000000000600052603260045260246000fd5b7f496e76616c6964206164647265737320666f726d617400000000000000000000600082015250565b60006110a0601683610ef8565b91506110ab8261106a565b602082019050919050565b600060208201905081810360008301526110cf81611093565b9050919050565b7f4e487b7100000000000000000000000000000000000000000000000000000000600052601160045260246000fd5b600061111082610e52565b915061111b83610e52565b9250828201905080821115611133576111326110d6565b5b92915050565b600061114482610e52565b91507fffffffffffffffffffffffffffffffffffffffffffffffffffffffffffffffff8203611176576111756110d6565b5b600182019050919050565b7f496e76616c696420696e707574206c656e677468000000000000000000000000600082015250565b60006111b7601483610ef8565b91506111c282611181565b602082019050919050565b600060208201905081810360008301526111e6816111aa565b9050919050565b600060ff82169050919050565b6000611205826111ed565b9150611210836111ed565b9250828203905060ff811115611229576112286110d6565b5b92915050565b7f496e76616c69642063686172616374657220696e20696e707574000000000000600082015250565b6000611265601a83610ef8565b91506112708261122f565b602082019050919050565b6000602082019050818103600083015261129481611258565b9050919050565b60006112a682610e52565b91506112b183610e52565b92508282026112bf81610e52565b915082820484148315176112d6576112d56110d6565b5b5092915050565b600081519050919050565b6000819050602082019050919050565b60007fffffffffffffffffffffffffffffffffffffffff00000000000000000000000082169050919050565b600061133082516112f8565b80915050919050565b600082821b905092915050565b6000611351826112dd565b8261135b846112e8565b905061136681611324565b925060148210156113a6576113a17fffffffffffffffffffffffffffffffffffffffff00000000000000000000000083601403600802611339565b831692505b5050919050565b7f4e6f7420666f756e640000000000000000000000000000000000000000000000600082015250565b60006113e3600983610ef8565b91506113ee826113ad565b602082019050919050565b60006020820190508181036000830152611412816113d6565b905091905056fea26469706673582212201a753f8c56233dc667c6f2ef3f2c291b13b8be14901a16a74e84b7f2e21ffd0c64736f6c63430008120033",
					"opcodes": "PUSH1 0x80 PUSH1 0x40 MSTORE CALLVALUE DUP1 ISZERO PUSH2 0x10 JUMPI PUSH1 0x0 DUP1 REVERT JUMPDEST POP PUSH2 0x144F DUP1 PUSH2 0x20 PUSH1 0x0 CODECOPY PUSH1 0x0 RETURN INVALID PUSH1 0x80 PUSH1 0x40 MSTORE CALLVALUE DUP1 ISZERO PUSH2 0x10 JUMPI PUSH1 0x0 DUP1 REVERT JUMPDEST POP PUSH1 0x4 CALLDATASIZE LT PUSH2 0x7D JUMPI PUSH1 0x0 CALLDATALOAD PUSH1 0xE0 SHR DUP1 PUSH4 0x87B57C88 GT PUSH2 0x5B JUMPI DUP1 PUSH4 0x87B57C88 EQ PUSH2 0x113 JUMPI DUP1 PUSH4 0x943AB9F9 EQ PUSH2 0x143 JUMPI DUP1 PUSH4 0xA8D1EC87 EQ PUSH2 0x173 JUMPI DUP1 PUSH4 0xD08F258D EQ PUSH2 0x1A3 JUMPI PUSH2 0x7D JUMP JUMPDEST DUP1 PUSH4 0x15706FDF EQ PUSH2 0x82 JUMPI DUP1 PUSH4 0x333E9E00 EQ PUSH2 0xB2 JUMPI DUP1 PUSH4 0x5E57966D EQ PUSH2 0xE3 JUMPI JUMPDEST PUSH1 0x0 DUP1 REVERT JUMPDEST PUSH2 0x9C PUSH1 0x4 DUP1 CALLDATASIZE SUB DUP2 ADD SWAP1 PUSH2 0x97 SWAP2 SWAP1 PUSH2 0xDAD JUMP JUMPDEST PUSH2 0x1D3 JUMP JUMPDEST PUSH1 0x40 MLOAD PUSH2 0xA9 SWAP2 SWAP1 PUSH2 0xE37 JUMP JUMPDEST PUSH1 0x40 MLOAD DUP1 SWAP2 SUB SWAP1 RETURN JUMPDEST PUSH2 0xCC PUSH1 0x4 DUP1 CALLDATASIZE SUB DUP2 ADD SWAP1 PUSH2 0xC7 SWAP2 SWAP1 PUSH2 0xDAD JUMP JUMPDEST PUSH2 0x4ED JUMP JUMPDEST PUSH1 0x40 MLOAD PUSH2 0xDA SWAP3 SWAP2 SWAP1 PUSH2 0xE6B JUMP JUMPDEST PUSH1 0x40 MLOAD DUP1 SWAP2 SUB SWAP1 RETURN JUMPDEST PUSH2 0xFD PUSH1 0x4 DUP1 CALLDATASIZE SUB DUP2 ADD SWAP1 PUSH2 0xF8 SWAP2 SWAP1 PUSH2 0xEC0 JUMP JUMPDEST PUSH2 0x686 JUMP JUMPDEST PUSH1 0x40 MLOAD PUSH2 0x10A SWAP2 SWAP1 PUSH2 0xF6C JUMP JUMPDEST PUSH1 0x40 MLOAD DUP1 SWAP2 SUB SWAP1 RETURN JUMPDEST PUSH2 0x12D PUSH1 0x4 DUP1 CALLDATASIZE SUB DUP2 ADD SWAP1 PUSH2 0x128 SWAP2 SWAP1 PUSH2 0xDAD JUMP JUMPDEST PUSH2 0x991 JUMP JUMPDEST PUSH1 0x40 MLOAD PUSH2 0x13A SWAP2 SWAP1 PUSH2 0xE37 JUMP JUMPDEST PUSH1 0x40 MLOAD DUP1 SWAP2 SUB SWAP1 RETURN JUMPDEST PUSH2 0x15D PUSH1 0x4 DUP1 CALLDATASIZE SUB DUP2 ADD SWAP1 PUSH2 0x158 SWAP2 SWAP1 PUSH2 0xDAD JUMP JUMPDEST PUSH2 0xBCE JUMP JUMPDEST PUSH1 0x40 MLOAD PUSH2 0x16A SWAP2 SWAP1 PUSH2 0xF8E JUMP JUMPDEST PUSH1 0x40 MLOAD DUP1 SWAP2 SUB SWAP1 RETURN JUMPDEST PUSH2 0x18D PUSH1 0x4 DUP1 CALLDATASIZE SUB DUP2 ADD SWAP1 PUSH2 0x188 SWAP2 SWAP1 PUSH2 0xDAD JUMP JUMPDEST PUSH2 0xBDE JUMP JUMPDEST PUSH1 0x40 MLOAD PUSH2 0x19A SWAP2 SWAP1 PUSH2 0xE37 JUMP JUMPDEST PUSH1 0x40 MLOAD DUP1 SWAP2 SUB SWAP1 RETURN JUMPDEST PUSH2 0x1BD PUSH1 0x4 DUP1 CALLDATASIZE SUB DUP2 ADD SWAP1 PUSH2 0x1B8 SWAP2 SWAP1 PUSH2 0xDAD JUMP JUMPDEST PUSH2 0xC43 JUMP JUMPDEST PUSH1 0x40 MLOAD PUSH2 0x1CA SWAP2 SWAP1 PUSH2 0xF8E JUMP JUMPDEST PUSH1 0x40 MLOAD DUP1 SWAP2 SUB SWAP1 RETURN JUMPDEST PUSH1 0x0 PUSH1 0x2A DUP3 MLOAD EQ PUSH2 0x219 JUMPI PUSH1 0x40 MLOAD PUSH32 0x8C379A000000000000000000000000000000000000000000000000000000000 DUP2 MSTORE PUSH1 0x4 ADD PUSH2 0x210 SWAP1 PUSH2 0x101B JUMP JUMPDEST PUSH1 0x40 MLOAD DUP1 SWAP2 SUB SWAP1 REVERT JUMPDEST PUSH1 0x0 DUP3 SWAP1 POP PUSH32 0x3000000000000000000000000000000000000000000000000000000000000000 PUSH31 0xFFFFFFFFFFFFFFFFFFFFFFFFFFFFFFFFFFFFFFFFFFFFFFFFFFFFFFFFFFFFFF NOT AND DUP2 PUSH1 0x0 DUP2 MLOAD DUP2 LT PUSH2 0x275 JUMPI PUSH2 0x274 PUSH2 0x103B JUMP JUMPDEST JUMPDEST PUSH1 0x20 ADD ADD MLOAD PUSH1 0xF8 SHR PUSH1 0xF8 SHL PUSH31 0xFFFFFFFFFFFFFFFFFFFFFFFFFFFFFFFFFFFFFFFFFFFFFFFFFFFFFFFFFFFFFF NOT AND EQ DUP1 ISZERO PUSH2 0x3BC JUMPI POP PUSH32 0x7800000000000000000000000000000000000000000000000000000000000000 PUSH31 0xFFFFFFFFFFFFFFFFFFFFFFFFFFFFFFFFFFFFFFFFFFFFFFFFFFFFFFFFFFFFFF NOT AND DUP2 PUSH1 0x1 DUP2 MLOAD DUP2 LT PUSH2 0x301 JUMPI PUSH2 0x300 PUSH2 0x103B JUMP JUMPDEST JUMPDEST PUSH1 0x20 ADD ADD MLOAD PUSH1 0xF8 SHR PUSH1 0xF8 SHL PUSH31 0xFFFFFFFFFFFFFFFFFFFFFFFFFFFFFFFFFFFFFFFFFFFFFFFFFFFFFFFFFFFFFF NOT AND EQ DUP1 PUSH2 0x3BB JUMPI POP PUSH32 0x5800000000000000000000000000000000000000000000000000000000000000 PUSH31 0xFFFFFFFFFFFFFFFFFFFFFFFFFFFFFFFFFFFFFFFFFFFFFFFFFFFFFFFFFFFFFF NOT AND DUP2 PUSH1 0x1 DUP2 MLOAD DUP2 LT PUSH2 0x38C JUMPI PUSH2 0x38B PUSH2 0x103B JUMP JUMPDEST JUMPDEST PUSH1 0x20 ADD ADD MLOAD PUSH1 0xF8 SHR PUSH1 0xF8 SHL PUSH31 0xFFFFFFFFFFFFFFFFFFFFFFFFFFFFFFFFFFFFFFFFFFFFFFFFFFFFFFFFFFFFFF NOT AND EQ JUMPDEST JUMPDEST PUSH2 0x3FB JUMPI PUSH1 0x40 MLOAD PUSH32 0x8C379A000000000000000000000000000000000000000000000000000000000 DUP2 MSTORE PUSH1 0x4 ADD PUSH2 0x3F2 SWAP1 PUSH2 0x10B6 JUMP JUMPDEST PUSH1 0x40 MLOAD DUP1 SWAP2 SUB SWAP1 REVERT JUMPDEST PUSH1 0x0 PUSH1 0x14 PUSH8 0xFFFFFFFFFFFFFFFF DUP2 GT ISZERO PUSH2 0x418 JUMPI PUSH2 0x417 PUSH2 0xC82 JUMP JUMPDEST JUMPDEST PUSH1 0x40 MLOAD SWAP1 DUP1 DUP3 MSTORE DUP1 PUSH1 0x1F ADD PUSH1 0x1F NOT AND PUSH1 0x20 ADD DUP3 ADD PUSH1 0x40 MSTORE DUP1 ISZERO PUSH2 0x44A JUMPI DUP2 PUSH1 0x20 ADD PUSH1 0x1 DUP3 MUL DUP1 CALLDATASIZE DUP4 CALLDATACOPY DUP1 DUP3 ADD SWAP2 POP POP SWAP1 POP JUMPDEST POP SWAP1 POP PUSH1 0x0 JUMPDEST PUSH1 0x14 DUP2 LT ISZERO PUSH2 0x4D8 JUMPI DUP3 PUSH1 0x2 DUP3 PUSH2 0x467 SWAP2 SWAP1 PUSH2 0x1105 JUMP JUMPDEST DUP2 MLOAD DUP2 LT PUSH2 0x478 JUMPI PUSH2 0x477 PUSH2 0x103B JUMP JUMPDEST JUMPDEST PUSH1 0x20 ADD ADD MLOAD PUSH1 0xF8 SHR PUSH1 0xF8 SHL DUP3 DUP3 DUP2 MLOAD DUP2 LT PUSH2 0x496 JUMPI PUSH2 0x495 PUSH2 0x103B JUMP JUMPDEST JUMPDEST PUSH1 0x20 ADD ADD SWAP1 PUSH31 0xFFFFFFFFFFFFFFFFFFFFFFFFFFFFFFFFFFFFFFFFFFFFFFFFFFFFFFFFFFFFFF NOT AND SWAP1 DUP2 PUSH1 0x0 BYTE SWAP1 MSTORE8 POP DUP1 DUP1 PUSH2 0x4D0 SWAP1 PUSH2 0x1139 JUMP JUMPDEST SWAP2 POP POP PUSH2 0x450 JUMP JUMPDEST POP PUSH1 0x0 PUSH1 0x14 DUP3 ADD MLOAD SWAP1 POP DUP1 SWAP4 POP POP POP POP SWAP2 SWAP1 POP JUMP JUMPDEST PUSH1 0x0 DUP1 PUSH1 0x0 DUP4 SWAP1 POP PUSH1 0x2A DUP2 MLOAD EQ PUSH2 0x539 JUMPI PUSH1 0x40 MLOAD PUSH32 0x8C379A000000000000000000000000000000000000000000000000000000000 DUP2 MSTORE PUSH1 0x4 ADD PUSH2 0x530 SWAP1 PUSH2 0x11CD JUMP JUMPDEST PUSH1 0x40 MLOAD DUP1 SWAP2 SUB SWAP1 REVERT JUMPDEST PUSH1 0x0 DUP1 DUP1 PUSH1 0x2 SWAP1 POP JUMPDEST DUP4 MLOAD DUP2 LT ISZERO PUSH2 0x677 JUMPI PUSH1 0x0 DUP5 DUP3 DUP2 MLOAD DUP2 LT PUSH2 0x560 JUMPI PUSH2 0x55F PUSH2 0x103B JUMP JUMPDEST JUMPDEST PUSH1 0x20 ADD ADD MLOAD PUSH1 0xF8 SHR PUSH1 0xF8 SHL PUSH1 0xF8 SHR SWAP1 POP PUSH1 0x30 DUP2 PUSH1 0xFF AND LT ISZERO DUP1 ISZERO PUSH2 0x588 JUMPI POP PUSH1 0x39 DUP2 PUSH1 0xFF AND GT ISZERO JUMPDEST ISZERO PUSH2 0x5A4 JUMPI PUSH1 0x30 DUP2 PUSH2 0x59A SWAP2 SWAP1 PUSH2 0x11FA JUMP JUMPDEST PUSH1 0xFF AND SWAP3 POP PUSH2 0x649 JUMP JUMPDEST PUSH1 0x41 DUP2 PUSH1 0xFF AND LT ISZERO DUP1 ISZERO PUSH2 0x5BC JUMPI POP PUSH1 0x46 DUP2 PUSH1 0xFF AND GT ISZERO JUMPDEST ISZERO PUSH2 0x5D8 JUMPI PUSH1 0x37 DUP2 PUSH2 0x5CE SWAP2 SWAP1 PUSH2 0x11FA JUMP JUMPDEST PUSH1 0xFF AND SWAP3 POP PUSH2 0x648 JUMP JUMPDEST PUSH1 0x61 DUP2 PUSH1 0xFF AND LT ISZERO DUP1 ISZERO PUSH2 0x5F0 JUMPI POP PUSH1 0x66 DUP2 PUSH1 0xFF AND GT ISZERO JUMPDEST ISZERO PUSH2 0x60C JUMPI PUSH1 0x57 DUP2 PUSH2 0x602 SWAP2 SWAP1 PUSH2 0x11FA JUMP JUMPDEST PUSH1 0xFF AND SWAP3 POP PUSH2 0x647 JUMP JUMPDEST PUSH1 0x40 MLOAD PUSH32 0x8C379A000000000000000000000000000000000000000000000000000000000 DUP2 MSTORE PUSH1 0x4 ADD PUSH2 0x63E SWAP1 PUSH2 0x127B JUMP JUMPDEST PUSH1 0x40 MLOAD DUP1 SWAP2 SUB SWAP1 REVERT JUMPDEST JUMPDEST JUMPDEST DUP3 PUSH1 0x10 DUP6 PUSH2 0x657 SWAP2 SWAP1 PUSH2 0x129B JUMP JUMPDEST PUSH2 0x661 SWAP2 SWAP1 PUSH2 0x1105 JUMP JUMPDEST SWAP4 POP POP DUP1 DUP1 PUSH2 0x66F SWAP1 PUSH2 0x1139 JUMP JUMPDEST SWAP2 POP POP PUSH2 0x542 JUMP JUMPDEST POP DUP2 DUP3 SWAP5 POP SWAP5 POP POP POP POP SWAP2 POP SWAP2 JUMP JUMPDEST PUSH1 0x60 PUSH1 0x0 DUP3 PUSH20 0xFFFFFFFFFFFFFFFFFFFFFFFFFFFFFFFFFFFFFFFF AND PUSH1 0x0 SHL SWAP1 POP PUSH1 0x0 PUSH1 0x40 MLOAD DUP1 PUSH1 0x40 ADD PUSH1 0x40 MSTORE DUP1 PUSH1 0x10 DUP2 MSTORE PUSH1 0x20 ADD PUSH32 0x3031323334353637383961626364656600000000000000000000000000000000 DUP2 MSTORE POP SWAP1 POP PUSH1 0x0 PUSH1 0x2A PUSH8 0xFFFFFFFFFFFFFFFF DUP2 GT ISZERO PUSH2 0x6FD JUMPI PUSH2 0x6FC PUSH2 0xC82 JUMP JUMPDEST JUMPDEST PUSH1 0x40 MLOAD SWAP1 DUP1 DUP3 MSTORE DUP1 PUSH1 0x1F ADD PUSH1 0x1F NOT AND PUSH1 0x20 ADD DUP3 ADD PUSH1 0x40 MSTORE DUP1 ISZERO PUSH2 0x72F JUMPI DUP2 PUSH1 0x20 ADD PUSH1 0x1 DUP3 MUL DUP1 CALLDATASIZE DUP4 CALLDATACOPY DUP1 DUP3 ADD SWAP2 POP POP SWAP1 POP JUMPDEST POP SWAP1 POP PUSH32 0x3000000000000000000000000000000000000000000000000000000000000000 DUP2 PUSH1 0x0 DUP2 MLOAD DUP2 LT PUSH2 0x767 JUMPI PUSH2 0x766 PUSH2 0x103B JUMP JUMPDEST JUMPDEST PUSH1 0x20 ADD ADD SWAP1 PUSH31 0xFFFFFFFFFFFFFFFFFFFFFFFFFFFFFFFFFFFFFFFFFFFFFFFFFFFFFFFFFFFFFF NOT AND SWAP1 DUP2 PUSH1 0x0 BYTE SWAP1 MSTORE8 POP PUSH32 0x7800000000000000000000000000000000000000000000000000000000000000 DUP2 PUSH1 0x1 DUP2 MLOAD DUP2 LT PUSH2 0x7CB JUMPI PUSH2 0x7CA PUSH2 0x103B JUMP JUMPDEST JUMPDEST PUSH1 0x20 ADD ADD SWAP1 PUSH31 0xFFFFFFFFFFFFFFFFFFFFFFFFFFFFFFFFFFFFFFFFFFFFFFFFFFFFFFFFFFFFFF NOT AND SWAP1 DUP2 PUSH1 0x0 BYTE SWAP1 MSTORE8 POP PUSH1 0x0 JUMPDEST PUSH1 0x14 DUP2 LT ISZERO PUSH2 0x985 JUMPI DUP3 PUSH1 0x4 DUP6 PUSH1 0xC DUP5 PUSH2 0x817 SWAP2 SWAP1 PUSH2 0x1105 JUMP JUMPDEST PUSH1 0x20 DUP2 LT PUSH2 0x828 JUMPI PUSH2 0x827 PUSH2 0x103B JUMP JUMPDEST JUMPDEST BYTE PUSH1 0xF8 SHL PUSH31 0xFFFFFFFFFFFFFFFFFFFFFFFFFFFFFFFFFFFFFFFFFFFFFFFFFFFFFFFFFFFFFF NOT AND SWAP1 SHR PUSH1 0xF8 SHR PUSH1 0xFF AND DUP2 MLOAD DUP2 LT PUSH2 0x867 JUMPI PUSH2 0x866 PUSH2 0x103B JUMP JUMPDEST JUMPDEST PUSH1 0x20 ADD ADD MLOAD PUSH1 0xF8 SHR PUSH1 0xF8 SHL DUP3 PUSH1 0x2 DUP4 PUSH2 0x880 SWAP2 SWAP1 PUSH2 0x129B JUMP JUMPDEST PUSH1 0x2 PUSH2 0x88C SWAP2 SWAP1 PUSH2 0x1105 JUMP JUMPDEST DUP2 MLOAD DUP2 LT PUSH2 0x89D JUMPI PUSH2 0x89C PUSH2 0x103B JUMP JUMPDEST JUMPDEST PUSH1 0x20 ADD ADD SWAP1 PUSH31 0xFFFFFFFFFFFFFFFFFFFFFFFFFFFFFFFFFFFFFFFFFFFFFFFFFFFFFFFFFFFFFF NOT AND SWAP1 DUP2 PUSH1 0x0 BYTE SWAP1 MSTORE8 POP DUP3 PUSH1 0xF PUSH1 0xF8 SHL DUP6 PUSH1 0xC DUP5 PUSH2 0x8E0 SWAP2 SWAP1 PUSH2 0x1105 JUMP JUMPDEST PUSH1 0x20 DUP2 LT PUSH2 0x8F1 JUMPI PUSH2 0x8F0 PUSH2 0x103B JUMP JUMPDEST JUMPDEST BYTE PUSH1 0xF8 SHL AND PUSH1 0xF8 SHR PUSH1 0xFF AND DUP2 MLOAD DUP2 LT PUSH2 0x90D JUMPI PUSH2 0x90C PUSH2 0x103B JUMP JUMPDEST JUMPDEST PUSH1 0x20 ADD ADD MLOAD PUSH1 0xF8 SHR PUSH1 0xF8 SHL DUP3 PUSH1 0x2 DUP4 PUSH2 0x926 SWAP2 SWAP1 PUSH2 0x129B JUMP JUMPDEST PUSH1 0x3 PUSH2 0x932 SWAP2 SWAP1 PUSH2 0x1105 JUMP JUMPDEST DUP2 MLOAD DUP2 LT PUSH2 0x943 JUMPI PUSH2 0x942 PUSH2 0x103B JUMP JUMPDEST JUMPDEST PUSH1 0x20 ADD ADD SWAP1 PUSH31 0xFFFFFFFFFFFFFFFFFFFFFFFFFFFFFFFFFFFFFFFFFFFFFFFFFFFFFFFFFFFFFF NOT AND SWAP1 DUP2 PUSH1 0x0 BYTE SWAP1 MSTORE8 POP DUP1 DUP1 PUSH2 0x97D SWAP1 PUSH2 0x1139 JUMP JUMPDEST SWAP2 POP POP PUSH2 0x7FD JUMP JUMPDEST POP DUP1 SWAP4 POP POP POP POP SWAP2 SWAP1 POP JUMP JUMPDEST PUSH1 0x0 PUSH1 0x2A DUP3 MLOAD EQ PUSH2 0x9D7 JUMPI PUSH1 0x40 MLOAD PUSH32 0x8C379A000000000000000000000000000000000000000000000000000000000 DUP2 MSTORE PUSH1 0x4 ADD PUSH2 0x9CE SWAP1 PUSH2 0x11CD JUMP JUMPDEST PUSH1 0x40 MLOAD DUP1 SWAP2 SUB SWAP1 REVERT JUMPDEST PUSH32 0x3000000000000000000000000000000000000000000000000000000000000000 PUSH31 0xFFFFFFFFFFFFFFFFFFFFFFFFFFFFFFFFFFFFFFFFFFFFFFFFFFFFFFFFFFFFFF NOT AND DUP3 PUSH1 0x0 DUP2 MLOAD DUP2 LT PUSH2 0xA2E JUMPI PUSH2 0xA2D PUSH2 0x103B JUMP JUMPDEST JUMPDEST PUSH1 0x20 ADD ADD MLOAD PUSH1 0xF8 SHR PUSH1 0xF8 SHL PUSH31 0xFFFFFFFFFFFFFFFFFFFFFFFFFFFFFFFFFFFFFFFFFFFFFFFFFFFFFFFFFFFFFF NOT AND EQ DUP1 ISZERO PUSH2 0xB75 JUMPI POP PUSH32 0x7800000000000000000000000000000000000000000000000000000000000000 PUSH31 0xFFFFFFFFFFFFFFFFFFFFFFFFFFFFFFFFFFFFFFFFFFFFFFFFFFFFFFFFFFFFFF NOT AND DUP3 PUSH1 0x1 DUP2 MLOAD DUP2 LT PUSH2 0xABA JUMPI PUSH2 0xAB9 PUSH2 0x103B JUMP JUMPDEST JUMPDEST PUSH1 0x20 ADD ADD MLOAD PUSH1 0xF8 SHR PUSH1 0xF8 SHL PUSH31 0xFFFFFFFFFFFFFFFFFFFFFFFFFFFFFFFFFFFFFFFFFFFFFFFFFFFFFFFFFFFFFF NOT AND EQ DUP1 PUSH2 0xB74 JUMPI POP PUSH32 0x5800000000000000000000000000000000000000000000000000000000000000 PUSH31 0xFFFFFFFFFFFFFFFFFFFFFFFFFFFFFFFFFFFFFFFFFFFFFFFFFFFFFFFFFFFFFF NOT AND DUP3 PUSH1 0x1 DUP2 MLOAD DUP2 LT PUSH2 0xB45 JUMPI PUSH2 0xB44 PUSH2 0x103B JUMP JUMPDEST JUMPDEST PUSH1 0x20 ADD ADD MLOAD PUSH1 0xF8 SHR PUSH1 0xF8 SHL PUSH31 0xFFFFFFFFFFFFFFFFFFFFFFFFFFFFFFFFFFFFFFFFFFFFFFFFFFFFFFFFFFFFFF NOT AND EQ JUMPDEST JUMPDEST ISZERO PUSH2 0xB8E JUMPI DUP2 PUSH2 0xB84 SWAP1 PUSH2 0x1346 JUMP JUMPDEST PUSH1 0x60 SHR SWAP1 POP PUSH2 0xBC9 JUMP JUMPDEST PUSH1 0x40 MLOAD PUSH32 0x8C379A000000000000000000000000000000000000000000000000000000000 DUP2 MSTORE PUSH1 0x4 ADD PUSH2 0xBC0 SWAP1 PUSH2 0x10B6 JUMP JUMPDEST PUSH1 0x40 MLOAD DUP1 SWAP2 SUB SWAP1 REVERT JUMPDEST SWAP2 SWAP1 POP JUMP JUMPDEST PUSH1 0x0 DUP1 DUP3 SWAP1 POP DUP1 MLOAD SWAP2 POP POP SWAP2 SWAP1 POP JUMP JUMPDEST PUSH1 0x0 PUSH1 0x2A DUP3 MLOAD SUB PUSH2 0xC03 JUMPI PUSH1 0x0 DUP3 PUSH2 0xBF5 SWAP1 PUSH2 0x1346 JUMP JUMPDEST PUSH1 0x60 SHR SWAP1 POP DUP1 SWAP2 POP POP PUSH2 0xC3E JUMP JUMPDEST PUSH1 0x40 MLOAD PUSH32 0x8C379A000000000000000000000000000000000000000000000000000000000 DUP2 MSTORE PUSH1 0x4 ADD PUSH2 0xC35 SWAP1 PUSH2 0x13F9 JUMP JUMPDEST PUSH1 0x40 MLOAD DUP1 SWAP2 SUB SWAP1 REVERT JUMPDEST SWAP2 SWAP1 POP JUMP JUMPDEST PUSH1 0x0 DUP1 DUP3 SWAP1 POP DUP1 MLOAD SWAP2 POP POP SWAP2 SWAP1 POP JUMP JUMPDEST PUSH1 0x0 PUSH1 0x40 MLOAD SWAP1 POP SWAP1 JUMP JUMPDEST PUSH1 0x0 DUP1 REVERT JUMPDEST PUSH1 0x0 DUP1 REVERT JUMPDEST PUSH1 0x0 DUP1 REVERT JUMPDEST PUSH1 0x0 DUP1 REVERT JUMPDEST PUSH1 0x0 PUSH1 0x1F NOT PUSH1 0x1F DUP4 ADD AND SWAP1 POP SWAP2 SWAP1 POP JUMP JUMPDEST PUSH32 0x4E487B7100000000000000000000000000000000000000000000000000000000 PUSH1 0x0 MSTORE PUSH1 0x41 PUSH1 0x4 MSTORE PUSH1 0x24 PUSH1 0x0 REVERT JUMPDEST PUSH2 0xCBA DUP3 PUSH2 0xC71 JUMP JUMPDEST DUP2 ADD DUP2 DUP2 LT PUSH8 0xFFFFFFFFFFFFFFFF DUP3 GT OR ISZERO PUSH2 0xCD9 JUMPI PUSH2 0xCD8 PUSH2 0xC82 JUMP JUMPDEST JUMPDEST DUP1 PUSH1 0x40 MSTORE POP POP POP JUMP JUMPDEST PUSH1 0x0 PUSH2 0xCEC PUSH2 0xC53 JUMP JUMPDEST SWAP1 POP PUSH2 0xCF8 DUP3 DUP3 PUSH2 0xCB1 JUMP JUMPDEST SWAP2 SWAP1 POP JUMP JUMPDEST PUSH1 0x0 PUSH8 0xFFFFFFFFFFFFFFFF DUP3 GT ISZERO PUSH2 0xD18 JUMPI PUSH2 0xD17 PUSH2 0xC82 JUMP JUMPDEST JUMPDEST PUSH2 0xD21 DUP3 PUSH2 0xC71 JUMP JUMPDEST SWAP1 POP PUSH1 0x20 DUP2 ADD SWAP1 POP SWAP2 SWAP1 POP JUMP JUMPDEST DUP3 DUP2 DUP4 CALLDATACOPY PUSH1 0x0 DUP4 DUP4 ADD MSTORE POP POP POP JUMP JUMPDEST PUSH1 0x0 PUSH2 0xD50 PUSH2 0xD4B DUP5 PUSH2 0xCFD JUMP JUMPDEST PUSH2 0xCE2 JUMP JUMPDEST SWAP1 POP DUP3 DUP2 MSTORE PUSH1 0x20 DUP2 ADD DUP5 DUP5 DUP5 ADD GT ISZERO PUSH2 0xD6C JUMPI PUSH2 0xD6B PUSH2 0xC6C JUMP JUMPDEST JUMPDEST PUSH2 0xD77 DUP5 DUP3 DUP6 PUSH2 0xD2E JUMP JUMPDEST POP SWAP4 SWAP3 POP POP POP JUMP JUMPDEST PUSH1 0x0 DUP3 PUSH1 0x1F DUP4 ADD SLT PUSH2 0xD94 JUMPI PUSH2 0xD93 PUSH2 0xC67 JUMP JUMPDEST JUMPDEST DUP2 CALLDATALOAD PUSH2 0xDA4 DUP5 DUP3 PUSH1 0x20 DUP7 ADD PUSH2 0xD3D JUMP JUMPDEST SWAP2 POP POP SWAP3 SWAP2 POP POP JUMP JUMPDEST PUSH1 0x0 PUSH1 0x20 DUP3 DUP5 SUB SLT ISZERO PUSH2 0xDC3 JUMPI PUSH2 0xDC2 PUSH2 0xC5D JUMP JUMPDEST JUMPDEST PUSH1 0x0 DUP3 ADD CALLDATALOAD PUSH8 0xFFFFFFFFFFFFFFFF DUP2 GT ISZERO PUSH2 0xDE1 JUMPI PUSH2 0xDE0 PUSH2 0xC62 JUMP JUMPDEST JUMPDEST PUSH2 0xDED DUP5 DUP3 DUP6 ADD PUSH2 0xD7F JUMP JUMPDEST SWAP2 POP POP SWAP3 SWAP2 POP POP JUMP JUMPDEST PUSH1 0x0 PUSH20 0xFFFFFFFFFFFFFFFFFFFFFFFFFFFFFFFFFFFFFFFF DUP3 AND SWAP1 POP SWAP2 SWAP1 POP JUMP JUMPDEST PUSH1 0x0 PUSH2 0xE21 DUP3 PUSH2 0xDF6 JUMP JUMPDEST SWAP1 POP SWAP2 SWAP1 POP JUMP JUMPDEST PUSH2 0xE31 DUP2 PUSH2 0xE16 JUMP JUMPDEST DUP3 MSTORE POP POP JUMP JUMPDEST PUSH1 0x0 PUSH1 0x20 DUP3 ADD SWAP1 POP PUSH2 0xE4C PUSH1 0x0 DUP4 ADD DUP5 PUSH2 0xE28 JUMP JUMPDEST SWAP3 SWAP2 POP POP JUMP JUMPDEST PUSH1 0x0 DUP2 SWAP1 POP SWAP2 SWAP1 POP JUMP JUMPDEST PUSH2 0xE65 DUP2 PUSH2 0xE52 JUMP JUMPDEST DUP3 MSTORE POP POP JUMP JUMPDEST PUSH1 0x0 PUSH1 0x40 DUP3 ADD SWAP1 POP PUSH2 0xE80 PUSH1 0x0 DUP4 ADD DUP6 PUSH2 0xE28 JUMP JUMPDEST PUSH2 0xE8D PUSH1 0x20 DUP4 ADD DUP5 PUSH2 0xE5C JUMP JUMPDEST SWAP4 SWAP3 POP POP POP JUMP JUMPDEST PUSH2 0xE9D DUP2 PUSH2 0xE16 JUMP JUMPDEST DUP2 EQ PUSH2 0xEA8 JUMPI PUSH1 0x0 DUP1 REVERT JUMPDEST POP JUMP JUMPDEST PUSH1 0x0 DUP2 CALLDATALOAD SWAP1 POP PUSH2 0xEBA DUP2 PUSH2 0xE94 JUMP JUMPDEST SWAP3 SWAP2 POP POP JUMP JUMPDEST PUSH1 0x0 PUSH1 0x20 DUP3 DUP5 SUB SLT ISZERO PUSH2 0xED6 JUMPI PUSH2 0xED5 PUSH2 0xC5D JUMP JUMPDEST JUMPDEST PUSH1 0x0 PUSH2 0xEE4 DUP5 DUP3 DUP6 ADD PUSH2 0xEAB JUMP JUMPDEST SWAP2 POP POP SWAP3 SWAP2 POP POP JUMP JUMPDEST PUSH1 0x0 DUP2 MLOAD SWAP1 POP SWAP2 SWAP1 POP JUMP JUMPDEST PUSH1 0x0 DUP3 DUP3 MSTORE PUSH1 0x20 DUP3 ADD SWAP1 POP SWAP3 SWAP2 POP POP JUMP JUMPDEST PUSH1 0x0 JUMPDEST DUP4 DUP2 LT ISZERO PUSH2 0xF27 JUMPI DUP1 DUP3 ADD MLOAD DUP2 DUP5 ADD MSTORE PUSH1 0x20 DUP2 ADD SWAP1 POP PUSH2 0xF0C JUMP JUMPDEST PUSH1 0x0 DUP5 DUP5 ADD MSTORE POP POP POP POP JUMP JUMPDEST PUSH1 0x0 PUSH2 0xF3E DUP3 PUSH2 0xEED JUMP JUMPDEST PUSH2 0xF48 DUP2 DUP6 PUSH2 0xEF8 JUMP JUMPDEST SWAP4 POP PUSH2 0xF58 DUP2 DUP6 PUSH1 0x20 DUP7 ADD PUSH2 0xF09 JUMP JUMPDEST PUSH2 0xF61 DUP2 PUSH2 0xC71 JUMP JUMPDEST DUP5 ADD SWAP2 POP POP SWAP3 SWAP2 POP POP JUMP JUMPDEST PUSH1 0x0 PUSH1 0x20 DUP3 ADD SWAP1 POP DUP2 DUP2 SUB PUSH1 0x0 DUP4 ADD MSTORE PUSH2 0xF86 DUP2 DUP5 PUSH2 0xF33 JUMP JUMPDEST SWAP1 POP SWAP3 SWAP2 POP POP JUMP JUMPDEST PUSH1 0x0 PUSH1 0x20 DUP3 ADD SWAP1 POP PUSH2 0xFA3 PUSH1 0x0 DUP4 ADD DUP5 PUSH2 0xE5C JUMP JUMPDEST SWAP3 SWAP2 POP POP JUMP JUMPDEST PUSH32 0x537472696E67206C656E677468206D7573742062652034322063686172616374 PUSH1 0x0 DUP3 ADD MSTORE PUSH32 0x6572730000000000000000000000000000000000000000000000000000000000 PUSH1 0x20 DUP3 ADD MSTORE POP JUMP JUMPDEST PUSH1 0x0 PUSH2 0x1005 PUSH1 0x23 DUP4 PUSH2 0xEF8 JUMP JUMPDEST SWAP2 POP PUSH2 0x1010 DUP3 PUSH2 0xFA9 JUMP JUMPDEST PUSH1 0x40 DUP3 ADD SWAP1 POP SWAP2 SWAP1 POP JUMP JUMPDEST PUSH1 0x0 PUSH1 0x20 DUP3 ADD SWAP1 POP DUP2 DUP2 SUB PUSH1 0x0 DUP4 ADD MSTORE PUSH2 0x1034 DUP2 PUSH2 0xFF8 JUMP JUMPDEST SWAP1 POP SWAP2 SWAP1 POP JUMP JUMPDEST PUSH32 0x4E487B7100000000000000000000000000000000000000000000000000000000 PUSH1 0x0 MSTORE PUSH1 0x32 PUSH1 0x4 MSTORE PUSH1 0x24 PUSH1 0x0 REVERT JUMPDEST PUSH32 0x496E76616C6964206164647265737320666F726D617400000000000000000000 PUSH1 0x0 DUP3 ADD MSTORE POP JUMP JUMPDEST PUSH1 0x0 PUSH2 0x10A0 PUSH1 0x16 DUP4 PUSH2 0xEF8 JUMP JUMPDEST SWAP2 POP PUSH2 0x10AB DUP3 PUSH2 0x106A JUMP JUMPDEST PUSH1 0x20 DUP3 ADD SWAP1 POP SWAP2 SWAP1 POP JUMP JUMPDEST PUSH1 0x0 PUSH1 0x20 DUP3 ADD SWAP1 POP DUP2 DUP2 SUB PUSH1 0x0 DUP4 ADD MSTORE PUSH2 0x10CF DUP2 PUSH2 0x1093 JUMP JUMPDEST SWAP1 POP SWAP2 SWAP1 POP JUMP JUMPDEST PUSH32 0x4E487B7100000000000000000000000000000000000000000000000000000000 PUSH1 0x0 MSTORE PUSH1 0x11 PUSH1 0x4 MSTORE PUSH1 0x24 PUSH1 0x0 REVERT JUMPDEST PUSH1 0x0 PUSH2 0x1110 DUP3 PUSH2 0xE52 JUMP JUMPDEST SWAP2 POP PUSH2 0x111B DUP4 PUSH2 0xE52 JUMP JUMPDEST SWAP3 POP DUP3 DUP3 ADD SWAP1 POP DUP1 DUP3 GT ISZERO PUSH2 0x1133 JUMPI PUSH2 0x1132 PUSH2 0x10D6 JUMP JUMPDEST JUMPDEST SWAP3 SWAP2 POP POP JUMP JUMPDEST PUSH1 0x0 PUSH2 0x1144 DUP3 PUSH2 0xE52 JUMP JUMPDEST SWAP2 POP PUSH32 0xFFFFFFFFFFFFFFFFFFFFFFFFFFFFFFFFFFFFFFFFFFFFFFFFFFFFFFFFFFFFFFFF DUP3 SUB PUSH2 0x1176 JUMPI PUSH2 0x1175 PUSH2 0x10D6 JUMP JUMPDEST JUMPDEST PUSH1 0x1 DUP3 ADD SWAP1 POP SWAP2 SWAP1 POP JUMP JUMPDEST PUSH32 0x496E76616C696420696E707574206C656E677468000000000000000000000000 PUSH1 0x0 DUP3 ADD MSTORE POP JUMP JUMPDEST PUSH1 0x0 PUSH2 0x11B7 PUSH1 0x14 DUP4 PUSH2 0xEF8 JUMP JUMPDEST SWAP2 POP PUSH2 0x11C2 DUP3 PUSH2 0x1181 JUMP JUMPDEST PUSH1 0x20 DUP3 ADD SWAP1 POP SWAP2 SWAP1 POP JUMP JUMPDEST PUSH1 0x0 PUSH1 0x20 DUP3 ADD SWAP1 POP DUP2 DUP2 SUB PUSH1 0x0 DUP4 ADD MSTORE PUSH2 0x11E6 DUP2 PUSH2 0x11AA JUMP JUMPDEST SWAP1 POP SWAP2 SWAP1 POP JUMP JUMPDEST PUSH1 0x0 PUSH1 0xFF DUP3 AND SWAP1 POP SWAP2 SWAP1 POP JUMP JUMPDEST PUSH1 0x0 PUSH2 0x1205 DUP3 PUSH2 0x11ED JUMP JUMPDEST SWAP2 POP PUSH2 0x1210 DUP4 PUSH2 0x11ED JUMP JUMPDEST SWAP3 POP DUP3 DUP3 SUB SWAP1 POP PUSH1 0xFF DUP2 GT ISZERO PUSH2 0x1229 JUMPI PUSH2 0x1228 PUSH2 0x10D6 JUMP JUMPDEST JUMPDEST SWAP3 SWAP2 POP POP JUMP JUMPDEST PUSH32 0x496E76616C69642063686172616374657220696E20696E707574000000000000 PUSH1 0x0 DUP3 ADD MSTORE POP JUMP JUMPDEST PUSH1 0x0 PUSH2 0x1265 PUSH1 0x1A DUP4 PUSH2 0xEF8 JUMP JUMPDEST SWAP2 POP PUSH2 0x1270 DUP3 PUSH2 0x122F JUMP JUMPDEST PUSH1 0x20 DUP3 ADD SWAP1 POP SWAP2 SWAP1 POP JUMP JUMPDEST PUSH1 0x0 PUSH1 0x20 DUP3 ADD SWAP1 POP DUP2 DUP2 SUB PUSH1 0x0 DUP4 ADD MSTORE PUSH2 0x1294 DUP2 PUSH2 0x1258 JUMP JUMPDEST SWAP1 POP SWAP2 SWAP1 POP JUMP JUMPDEST PUSH1 0x0 PUSH2 0x12A6 DUP3 PUSH2 0xE52 JUMP JUMPDEST SWAP2 POP PUSH2 0x12B1 DUP4 PUSH2 0xE52 JUMP JUMPDEST SWAP3 POP DUP3 DUP3 MUL PUSH2 0x12BF DUP2 PUSH2 0xE52 JUMP JUMPDEST SWAP2 POP DUP3 DUP3 DIV DUP5 EQ DUP4 ISZERO OR PUSH2 0x12D6 JUMPI PUSH2 0x12D5 PUSH2 0x10D6 JUMP JUMPDEST JUMPDEST POP SWAP3 SWAP2 POP POP JUMP JUMPDEST PUSH1 0x0 DUP2 MLOAD SWAP1 POP SWAP2 SWAP1 POP JUMP JUMPDEST PUSH1 0x0 DUP2 SWAP1 POP PUSH1 0x20 DUP3 ADD SWAP1 POP SWAP2 SWAP1 POP JUMP JUMPDEST PUSH1 0x0 PUSH32 0xFFFFFFFFFFFFFFFFFFFFFFFFFFFFFFFFFFFFFFFF000000000000000000000000 DUP3 AND SWAP1 POP SWAP2 SWAP1 POP JUMP JUMPDEST PUSH1 0x0 PUSH2 0x1330 DUP3 MLOAD PUSH2 0x12F8 JUMP JUMPDEST DUP1 SWAP2 POP POP SWAP2 SWAP1 POP JUMP JUMPDEST PUSH1 0x0 DUP3 DUP3 SHL SWAP1 POP SWAP3 SWAP2 POP POP JUMP JUMPDEST PUSH1 0x0 PUSH2 0x1351 DUP3 PUSH2 0x12DD JUMP JUMPDEST DUP3 PUSH2 0x135B DUP5 PUSH2 0x12E8 JUMP JUMPDEST SWAP1 POP PUSH2 0x1366 DUP2 PUSH2 0x1324 JUMP JUMPDEST SWAP3 POP PUSH1 0x14 DUP3 LT ISZERO PUSH2 0x13A6 JUMPI PUSH2 0x13A1 PUSH32 0xFFFFFFFFFFFFFFFFFFFFFFFFFFFFFFFFFFFFFFFF000000000000000000000000 DUP4 PUSH1 0x14 SUB PUSH1 0x8 MUL PUSH2 0x1339 JUMP JUMPDEST DUP4 AND SWAP3 POP JUMPDEST POP POP SWAP2 SWAP1 POP JUMP JUMPDEST PUSH32 0x4E6F7420666F756E640000000000000000000000000000000000000000000000 PUSH1 0x0 DUP3 ADD MSTORE POP JUMP JUMPDEST PUSH1 0x0 PUSH2 0x13E3 PUSH1 0x9 DUP4 PUSH2 0xEF8 JUMP JUMPDEST SWAP2 POP PUSH2 0x13EE DUP3 PUSH2 0x13AD JUMP JUMPDEST PUSH1 0x20 DUP3 ADD SWAP1 POP SWAP2 SWAP1 POP JUMP JUMPDEST PUSH1 0x0 PUSH1 0x20 DUP3 ADD SWAP1 POP DUP2 DUP2 SUB PUSH1 0x0 DUP4 ADD MSTORE PUSH2 0x1412 DUP2 PUSH2 0x13D6 JUMP JUMPDEST SWAP1 POP SWAP2 SWAP1 POP JUMP INVALID LOG2 PUSH5 0x6970667358 0x22 SLT KECCAK256 BYTE PUSH22 0x3F8C56233DC667C6F2EF3F2C291B13B8BE14901A16A7 0x4E DUP5 0xB7 CALLCODE 0xE2 0x1F REVERT 0xC PUSH5 0x736F6C6343 STOP ADDMOD SLT STOP CALLER "
				},
				"gasEstimates": {
					"creation": {
						"codeDepositCost": "1039800",
						"executionCost": "1080",
						"totalCost": "1040880"
					},
					"external": {
						"addressToString(address)": "infinite",
						"countCharacters(string)": "infinite",
						"numberOfBytes(string)": "infinite",
						"stringToAddress(string)": "infinite",
						"stringToAddress1(string)": "infinite",
						"stringToAddress2(string)": "infinite",
						"stringToAddress3(string)": "infinite"
					}
				},
				"methodIdentifiers": {
					"addressToString(address)": "5e57966d",
					"countCharacters(string)": "943ab9f9",
					"numberOfBytes(string)": "d08f258d",
					"stringToAddress(string)": "15706fdf",
					"stringToAddress1(string)": "a8d1ec87",
					"stringToAddress2(string)": "87b57c88",
					"stringToAddress3(string)": "333e9e00"
				}
			},
			"storageLayout": {
				"storage": [],
				"types": null
			},
			"userdoc": {
				"kind": "user",
				"methods": {},
				"version": 1
			}
		}
	}
}