{
	"VoterCandidate.sol": {
		"Voter": {
			"abi": [
				{
					"inputs": [
						{
							"internalType": "address",
							"name": "_votingSystem",
							"type": "address"
						}
					],
					"stateMutability": "nonpayable",
					"type": "constructor"
				},
				{
					"inputs": [
						{
							"internalType": "address",
							"name": "_candidate",
							"type": "address"
						}
					],
					"name": "getResults",
					"outputs": [
						{
							"internalType": "uint256",
							"name": "",
							"type": "uint256"
						}
					],
					"stateMutability": "view",
					"type": "function"
				},
				{
					"inputs": [],
					"name": "registerAsVoter",
					"outputs": [],
					"stateMutability": "nonpayable",
					"type": "function"
				},
				{
					"inputs": [],
					"name": "viewResultAsCandidate",
					"outputs": [
						{
							"internalType": "uint256",
							"name": "",
							"type": "uint256"
						}
					],
					"stateMutability": "view",
					"type": "function"
				},
				{
					"inputs": [],
					"name": "viewVoterDetails",
					"outputs": [
						{
							"internalType": "bool",
							"name": "",
							"type": "bool"
						},
						{
							"internalType": "bool",
							"name": "",
							"type": "bool"
						}
					],
					"stateMutability": "view",
					"type": "function"
				},
				{
					"inputs": [
						{
							"internalType": "address",
							"name": "_candidate",
							"type": "address"
						}
					],
					"name": "vote",
					"outputs": [],
					"stateMutability": "nonpayable",
					"type": "function"
				}
			],
			"devdoc": {
				"kind": "dev",
				"methods": {},
				"version": 1
			},
			"evm": {
				"assembly": "    /* \"VoterCandidate.sol\":94:1832  contract Voter {... */\n  mstore(0x40, 0x80)\n    /* \"VoterCandidate.sol\":679:775  constructor(address _votingSystem) {... */\n  callvalue\n  dup1\n  iszero\n  tag_1\n  jumpi\n  0x00\n  dup1\n  revert\ntag_1:\n  pop\n  mload(0x40)\n  sub(codesize, bytecodeSize)\n  dup1\n  bytecodeSize\n  dup4\n  codecopy\n  dup2\n  dup2\n  add\n  0x40\n  mstore\n  dup2\n  add\n  swap1\n  tag_2\n  swap2\n  swap1\n  tag_3\n  jump\t// in\ntag_2:\n    /* \"VoterCandidate.sol\":753:766  _votingSystem */\n  dup1\n    /* \"VoterCandidate.sol\":725:737  votingSystem */\n  0x00\n  dup1\n    /* \"VoterCandidate.sol\":725:767  votingSystem = VotingSystem(_votingSystem) */\n  0x0100\n  exp\n  dup2\n  sload\n  dup2\n  0xffffffffffffffffffffffffffffffffffffffff\n  mul\n  not\n  and\n  swap1\n  dup4\n  0xffffffffffffffffffffffffffffffffffffffff\n  and\n  mul\n  or\n  swap1\n  sstore\n  pop\n    /* \"VoterCandidate.sol\":679:775  constructor(address _votingSystem) {... */\n  pop\n    /* \"VoterCandidate.sol\":94:1832  contract Voter {... */\n  jump(tag_6)\n    /* \"#utility.yul\":88:205   */\ntag_8:\n    /* \"#utility.yul\":197:198   */\n  0x00\n    /* \"#utility.yul\":194:195   */\n  dup1\n    /* \"#utility.yul\":187:199   */\n  revert\n    /* \"#utility.yul\":334:460   */\ntag_10:\n    /* \"#utility.yul\":371:378   */\n  0x00\n    /* \"#utility.yul\":411:453   */\n  0xffffffffffffffffffffffffffffffffffffffff\n    /* \"#utility.yul\":404:409   */\n  dup3\n    /* \"#utility.yul\":400:454   */\n  and\n    /* \"#utility.yul\":389:454   */\n  swap1\n  pop\n    /* \"#utility.yul\":334:460   */\n  swap2\n  swap1\n  pop\n  jump\t// out\n    /* \"#utility.yul\":466:562   */\ntag_11:\n    /* \"#utility.yul\":503:510   */\n  0x00\n    /* \"#utility.yul\":532:556   */\n  tag_20\n    /* \"#utility.yul\":550:555   */\n  dup3\n    /* \"#utility.yul\":532:556   */\n  tag_10\n  jump\t// in\ntag_20:\n    /* \"#utility.yul\":521:556   */\n  swap1\n  pop\n    /* \"#utility.yul\":466:562   */\n  swap2\n  swap1\n  pop\n  jump\t// out\n    /* \"#utility.yul\":568:690   */\ntag_12:\n    /* \"#utility.yul\":641:665   */\n  tag_22\n    /* \"#utility.yul\":659:664   */\n  dup2\n    /* \"#utility.yul\":641:665   */\n  tag_11\n  jump\t// in\ntag_22:\n    /* \"#utility.yul\":634:639   */\n  dup2\n    /* \"#utility.yul\":631:666   */\n  eq\n    /* \"#utility.yul\":621:684   */\n  tag_23\n  jumpi\n    /* \"#utility.yul\":680:681   */\n  0x00\n    /* \"#utility.yul\":677:678   */\n  dup1\n    /* \"#utility.yul\":670:682   */\n  revert\n    /* \"#utility.yul\":621:684   */\ntag_23:\n    /* \"#utility.yul\":568:690   */\n  pop\n  jump\t// out\n    /* \"#utility.yul\":696:839   */\ntag_13:\n    /* \"#utility.yul\":753:758   */\n  0x00\n    /* \"#utility.yul\":784:790   */\n  dup2\n    /* \"#utility.yul\":778:791   */\n  mload\n    /* \"#utility.yul\":769:791   */\n  swap1\n  pop\n    /* \"#utility.yul\":800:833   */\n  tag_25\n    /* \"#utility.yul\":827:832   */\n  dup2\n    /* \"#utility.yul\":800:833   */\n  tag_12\n  jump\t// in\ntag_25:\n    /* \"#utility.yul\":696:839   */\n  swap3\n  swap2\n  pop\n  pop\n  jump\t// out\n    /* \"#utility.yul\":845:1196   */\ntag_3:\n    /* \"#utility.yul\":915:921   */\n  0x00\n    /* \"#utility.yul\":964:966   */\n  0x20\n    /* \"#utility.yul\":952:961   */\n  dup3\n    /* \"#utility.yul\":943:950   */\n  dup5\n    /* \"#utility.yul\":939:962   */\n  sub\n    /* \"#utility.yul\":935:967   */\n  slt\n    /* \"#utility.yul\":932:1051   */\n  iszero\n  tag_27\n  jumpi\n    /* \"#utility.yul\":970:1049   */\n  tag_28\n  tag_8\n  jump\t// in\ntag_28:\n    /* \"#utility.yul\":932:1051   */\ntag_27:\n    /* \"#utility.yul\":1090:1091   */\n  0x00\n    /* \"#utility.yul\":1115:1179   */\n  tag_29\n    /* \"#utility.yul\":1171:1178   */\n  dup5\n    /* \"#utility.yul\":1162:1168   */\n  dup3\n    /* \"#utility.yul\":1151:1160   */\n  dup6\n    /* \"#utility.yul\":1147:1169   */\n  add\n    /* \"#utility.yul\":1115:1179   */\n  tag_13\n  jump\t// in\ntag_29:\n    /* \"#utility.yul\":1105:1179   */\n  swap2\n  pop\n    /* \"#utility.yul\":1061:1189   */\n  pop\n    /* \"#utility.yul\":845:1196   */\n  swap3\n  swap2\n  pop\n  pop\n  jump\t// out\n    /* \"VoterCandidate.sol\":94:1832  contract Voter {... */\ntag_6:\n  dataSize(sub_0)\n  dup1\n  dataOffset(sub_0)\n  0x00\n  codecopy\n  0x00\n  return\nstop\n\nsub_0: assembly {\n        /* \"VoterCandidate.sol\":94:1832  contract Voter {... */\n      mstore(0x40, 0x80)\n      callvalue\n      dup1\n      iszero\n      tag_1\n      jumpi\n      0x00\n      dup1\n      revert\n    tag_1:\n      pop\n      jumpi(tag_2, lt(calldatasize, 0x04))\n      shr(0xe0, calldataload(0x00))\n      dup1\n      0x50bc4a98\n      eq\n      tag_3\n      jumpi\n      dup1\n      0x6dd7d8ea\n      eq\n      tag_4\n      jumpi\n      dup1\n      0x78668658\n      eq\n      tag_5\n      jumpi\n      dup1\n      0x957af7ce\n      eq\n      tag_6\n      jumpi\n      dup1\n      0xf342c4de\n      eq\n      tag_7\n      jumpi\n    tag_2:\n      0x00\n      dup1\n      revert\n        /* \"VoterCandidate.sol\":1414:1711  function getResults(address _candidate) public view returns(uint256) {... */\n    tag_3:\n      tag_8\n      0x04\n      dup1\n      calldatasize\n      sub\n      dup2\n      add\n      swap1\n      tag_9\n      swap2\n      swap1\n      tag_10\n      jump\t// in\n    tag_9:\n      tag_11\n      jump\t// in\n    tag_8:\n      mload(0x40)\n      tag_12\n      swap2\n      swap1\n      tag_13\n      jump\t// in\n    tag_12:\n      mload(0x40)\n      dup1\n      swap2\n      sub\n      swap1\n      return\n        /* \"VoterCandidate.sol\":879:1263  function vote(address _candidate) public electionInProgress {... */\n    tag_4:\n      tag_14\n      0x04\n      dup1\n      calldatasize\n      sub\n      dup2\n      add\n      swap1\n      tag_15\n      swap2\n      swap1\n      tag_10\n      jump\t// in\n    tag_15:\n      tag_16\n      jump\t// in\n    tag_14:\n      stop\n        /* \"VoterCandidate.sol\":783:871  function registerAsVoter() public {... */\n    tag_5:\n      tag_17\n      tag_18\n      jump\t// in\n    tag_17:\n      stop\n        /* \"VoterCandidate.sol\":1719:1829  function viewResultAsCandidate() public view returns(uint256) {... */\n    tag_6:\n      tag_19\n      tag_20\n      jump\t// in\n    tag_19:\n      mload(0x40)\n      tag_21\n      swap2\n      swap1\n      tag_13\n      jump\t// in\n    tag_21:\n      mload(0x40)\n      dup1\n      swap2\n      sub\n      swap1\n      return\n        /* \"VoterCandidate.sol\":1271:1406  function viewVoterDetails() public view returns(bool, bool) {... */\n    tag_7:\n      tag_22\n      tag_23\n      jump\t// in\n    tag_22:\n      mload(0x40)\n      tag_24\n      swap3\n      swap2\n      swap1\n      tag_25\n      jump\t// in\n    tag_24:\n      mload(0x40)\n      dup1\n      swap2\n      sub\n      swap1\n      return\n        /* \"VoterCandidate.sol\":1414:1711  function getResults(address _candidate) public view returns(uint256) {... */\n    tag_11:\n        /* \"VoterCandidate.sol\":1474:1481  uint256 */\n      0x00\n        /* \"VoterCandidate.sol\":1502:1514  votingSystem */\n      dup1\n      0x00\n      swap1\n      sload\n      swap1\n      0x0100\n      exp\n      swap1\n      div\n      0xffffffffffffffffffffffffffffffffffffffff\n      and\n        /* \"VoterCandidate.sol\":1502:1528  votingSystem.electionEnded */\n      0xffffffffffffffffffffffffffffffffffffffff\n      and\n      0xc94ca9e3\n        /* \"VoterCandidate.sol\":1502:1530  votingSystem.electionEnded() */\n      mload(0x40)\n      dup2\n      0xffffffff\n      and\n      0xe0\n      shl\n      dup2\n      mstore\n      0x04\n      add\n      0x20\n      mload(0x40)\n      dup1\n      dup4\n      sub\n      dup2\n      dup7\n      gas\n      staticcall\n      iszero\n      dup1\n      iszero\n      tag_28\n      jumpi\n      returndatasize\n      0x00\n      dup1\n      returndatacopy\n      revert(0x00, returndatasize)\n    tag_28:\n      pop\n      pop\n      pop\n      pop\n      mload(0x40)\n      returndatasize\n      not(0x1f)\n      0x1f\n      dup3\n      add\n      and\n      dup3\n      add\n      dup1\n      0x40\n      mstore\n      pop\n      dup2\n      add\n      swap1\n      tag_29\n      swap2\n      swap1\n      tag_30\n      jump\t// in\n    tag_29:\n        /* \"VoterCandidate.sol\":1494:1561  require(votingSystem.electionEnded(), \"Election has not ended yet\") */\n      tag_31\n      jumpi\n      mload(0x40)\n      0x08c379a000000000000000000000000000000000000000000000000000000000\n      dup2\n      mstore\n      0x04\n      add\n      tag_32\n      swap1\n      tag_33\n      jump\t// in\n    tag_32:\n      mload(0x40)\n      dup1\n      swap2\n      sub\n      swap1\n      revert\n    tag_31:\n        /* \"VoterCandidate.sol\":1580:1592  votingSystem */\n      0x00\n      dup1\n      sload\n      swap1\n      0x0100\n      exp\n      swap1\n      div\n      0xffffffffffffffffffffffffffffffffffffffff\n      and\n        /* \"VoterCandidate.sol\":1580:1614  votingSystem.isCandidateRegistered */\n      0xffffffffffffffffffffffffffffffffffffffff\n      and\n      0xf1ecdc58\n        /* \"VoterCandidate.sol\":1615:1625  _candidate */\n      dup4\n        /* \"VoterCandidate.sol\":1580:1626  votingSystem.isCandidateRegistered(_candidate) */\n      mload(0x40)\n      dup3\n      0xffffffff\n      and\n      0xe0\n      shl\n      dup2\n      mstore\n      0x04\n      add\n      tag_34\n      swap2\n      swap1\n      tag_35\n      jump\t// in\n    tag_34:\n      0x20\n      mload(0x40)\n      dup1\n      dup4\n      sub\n      dup2\n      dup7\n      gas\n      staticcall\n      iszero\n      dup1\n      iszero\n      tag_37\n      jumpi\n      returndatasize\n      0x00\n      dup1\n      returndatacopy\n      revert(0x00, returndatasize)\n    tag_37:\n      pop\n      pop\n      pop\n      pop\n      mload(0x40)\n      returndatasize\n      not(0x1f)\n      0x1f\n      dup3\n      add\n      and\n      dup3\n      add\n      dup1\n      0x40\n      mstore\n      pop\n      dup2\n      add\n      swap1\n      tag_38\n      swap2\n      swap1\n      tag_30\n      jump\t// in\n    tag_38:\n        /* \"VoterCandidate.sol\":1572:1658  require(votingSystem.isCandidateRegistered(_candidate), \"Candidate is not registered\") */\n      tag_39\n      jumpi\n      mload(0x40)\n      0x08c379a000000000000000000000000000000000000000000000000000000000\n      dup2\n      mstore\n      0x04\n      add\n      tag_40\n      swap1\n      tag_41\n      jump\t// in\n    tag_40:\n      mload(0x40)\n      dup1\n      swap2\n      sub\n      swap1\n      revert\n    tag_39:\n        /* \"VoterCandidate.sol\":1678:1691  votesReceived */\n      0x03\n        /* \"VoterCandidate.sol\":1678:1703  votesReceived[_candidate] */\n      0x00\n        /* \"VoterCandidate.sol\":1692:1702  _candidate */\n      dup4\n        /* \"VoterCandidate.sol\":1678:1703  votesReceived[_candidate] */\n      0xffffffffffffffffffffffffffffffffffffffff\n      and\n      0xffffffffffffffffffffffffffffffffffffffff\n      and\n      dup2\n      mstore\n      0x20\n      add\n      swap1\n      dup2\n      mstore\n      0x20\n      add\n      0x00\n      keccak256\n      sload\n        /* \"VoterCandidate.sol\":1671:1703  return votesReceived[_candidate] */\n      swap1\n      pop\n        /* \"VoterCandidate.sol\":1414:1711  function getResults(address _candidate) public view returns(uint256) {... */\n      swap2\n      swap1\n      pop\n      jump\t// out\n        /* \"VoterCandidate.sol\":879:1263  function vote(address _candidate) public electionInProgress {... */\n    tag_16:\n        /* \"VoterCandidate.sol\":513:525  votingSystem */\n      0x00\n      dup1\n      sload\n      swap1\n      0x0100\n      exp\n      swap1\n      div\n      0xffffffffffffffffffffffffffffffffffffffff\n      and\n        /* \"VoterCandidate.sol\":513:541  votingSystem.electionStarted */\n      0xffffffffffffffffffffffffffffffffffffffff\n      and\n      0xd5346da1\n        /* \"VoterCandidate.sol\":513:543  votingSystem.electionStarted() */\n      mload(0x40)\n      dup2\n      0xffffffff\n      and\n      0xe0\n      shl\n      dup2\n      mstore\n      0x04\n      add\n      0x20\n      mload(0x40)\n      dup1\n      dup4\n      sub\n      dup2\n      dup7\n      gas\n      staticcall\n      iszero\n      dup1\n      iszero\n      tag_44\n      jumpi\n      returndatasize\n      0x00\n      dup1\n      returndatacopy\n      revert(0x00, returndatasize)\n    tag_44:\n      pop\n      pop\n      pop\n      pop\n      mload(0x40)\n      returndatasize\n      not(0x1f)\n      0x1f\n      dup3\n      add\n      and\n      dup3\n      add\n      dup1\n      0x40\n      mstore\n      pop\n      dup2\n      add\n      swap1\n      tag_45\n      swap2\n      swap1\n      tag_30\n      jump\t// in\n    tag_45:\n        /* \"VoterCandidate.sol\":505:572  require(votingSystem.electionStarted(), \"Election has not started\") */\n      tag_46\n      jumpi\n      mload(0x40)\n      0x08c379a000000000000000000000000000000000000000000000000000000000\n      dup2\n      mstore\n      0x04\n      add\n      tag_47\n      swap1\n      tag_48\n      jump\t// in\n    tag_47:\n      mload(0x40)\n      dup1\n      swap2\n      sub\n      swap1\n      revert\n    tag_46:\n        /* \"VoterCandidate.sol\":592:604  votingSystem */\n      0x00\n      dup1\n      sload\n      swap1\n      0x0100\n      exp\n      swap1\n      div\n      0xffffffffffffffffffffffffffffffffffffffff\n      and\n        /* \"VoterCandidate.sol\":592:618  votingSystem.electionEnded */\n      0xffffffffffffffffffffffffffffffffffffffff\n      and\n      0xc94ca9e3\n        /* \"VoterCandidate.sol\":592:620  votingSystem.electionEnded() */\n      mload(0x40)\n      dup2\n      0xffffffff\n      and\n      0xe0\n      shl\n      dup2\n      mstore\n      0x04\n      add\n      0x20\n      mload(0x40)\n      dup1\n      dup4\n      sub\n      dup2\n      dup7\n      gas\n      staticcall\n      iszero\n      dup1\n      iszero\n      tag_50\n      jumpi\n      returndatasize\n      0x00\n      dup1\n      returndatacopy\n      revert(0x00, returndatasize)\n    tag_50:\n      pop\n      pop\n      pop\n      pop\n      mload(0x40)\n      returndatasize\n      not(0x1f)\n      0x1f\n      dup3\n      add\n      and\n      dup3\n      add\n      dup1\n      0x40\n      mstore\n      pop\n      dup2\n      add\n      swap1\n      tag_51\n      swap2\n      swap1\n      tag_30\n      jump\t// in\n    tag_51:\n        /* \"VoterCandidate.sol\":591:620  !votingSystem.electionEnded() */\n      iszero\n        /* \"VoterCandidate.sol\":583:651  require(!votingSystem.electionEnded(), \"Election has already ended\") */\n      tag_52\n      jumpi\n      mload(0x40)\n      0x08c379a000000000000000000000000000000000000000000000000000000000\n      dup2\n      mstore\n      0x04\n      add\n      tag_53\n      swap1\n      tag_54\n      jump\t// in\n    tag_53:\n      mload(0x40)\n      dup1\n      swap2\n      sub\n      swap1\n      revert\n    tag_52:\n        /* \"VoterCandidate.sol\":959:964  voted */\n      0x02\n        /* \"VoterCandidate.sol\":959:976  voted[msg.sender] */\n      0x00\n        /* \"VoterCandidate.sol\":965:975  msg.sender */\n      caller\n        /* \"VoterCandidate.sol\":959:976  voted[msg.sender] */\n      0xffffffffffffffffffffffffffffffffffffffff\n      and\n      0xffffffffffffffffffffffffffffffffffffffff\n      and\n      dup2\n      mstore\n      0x20\n      add\n      swap1\n      dup2\n      mstore\n      0x20\n      add\n      0x00\n      keccak256\n      0x00\n      swap1\n      sload\n      swap1\n      0x0100\n      exp\n      swap1\n      div\n      0xff\n      and\n        /* \"VoterCandidate.sol\":958:976  !voted[msg.sender] */\n      iszero\n        /* \"VoterCandidate.sol\":950:1003  require(!voted[msg.sender], \"You have already voted\") */\n      tag_56\n      jumpi\n      mload(0x40)\n      0x08c379a000000000000000000000000000000000000000000000000000000000\n      dup2\n      mstore\n      0x04\n      add\n      tag_57\n      swap1\n      tag_58\n      jump\t// in\n    tag_57:\n      mload(0x40)\n      dup1\n      swap2\n      sub\n      swap1\n      revert\n    tag_56:\n        /* \"VoterCandidate.sol\":1022:1038  registeredVoters */\n      0x01\n        /* \"VoterCandidate.sol\":1022:1050  registeredVoters[msg.sender] */\n      0x00\n        /* \"VoterCandidate.sol\":1039:1049  msg.sender */\n      caller\n        /* \"VoterCandidate.sol\":1022:1050  registeredVoters[msg.sender] */\n      0xffffffffffffffffffffffffffffffffffffffff\n      and\n      0xffffffffffffffffffffffffffffffffffffffff\n      and\n      dup2\n      mstore\n      0x20\n      add\n      swap1\n      dup2\n      mstore\n      0x20\n      add\n      0x00\n      keccak256\n      0x00\n      swap1\n      sload\n      swap1\n      0x0100\n      exp\n      swap1\n      div\n      0xff\n      and\n        /* \"VoterCandidate.sol\":1014:1083  require(registeredVoters[msg.sender], \"You are not registered voter\") */\n      tag_59\n      jumpi\n      mload(0x40)\n      0x08c379a000000000000000000000000000000000000000000000000000000000\n      dup2\n      mstore\n      0x04\n      add\n      tag_60\n      swap1\n      tag_61\n      jump\t// in\n    tag_60:\n      mload(0x40)\n      dup1\n      swap2\n      sub\n      swap1\n      revert\n    tag_59:\n        /* \"VoterCandidate.sol\":1102:1114  votingSystem */\n      0x00\n      dup1\n      sload\n      swap1\n      0x0100\n      exp\n      swap1\n      div\n      0xffffffffffffffffffffffffffffffffffffffff\n      and\n        /* \"VoterCandidate.sol\":1102:1136  votingSystem.isCandidateRegistered */\n      0xffffffffffffffffffffffffffffffffffffffff\n      and\n      0xf1ecdc58\n        /* \"VoterCandidate.sol\":1137:1147  _candidate */\n      dup3\n        /* \"VoterCandidate.sol\":1102:1148  votingSystem.isCandidateRegistered(_candidate) */\n      mload(0x40)\n      dup3\n      0xffffffff\n      and\n      0xe0\n      shl\n      dup2\n      mstore\n      0x04\n      add\n      tag_62\n      swap2\n      swap1\n      tag_35\n      jump\t// in\n    tag_62:\n      0x20\n      mload(0x40)\n      dup1\n      dup4\n      sub\n      dup2\n      dup7\n      gas\n      staticcall\n      iszero\n      dup1\n      iszero\n      tag_64\n      jumpi\n      returndatasize\n      0x00\n      dup1\n      returndatacopy\n      revert(0x00, returndatasize)\n    tag_64:\n      pop\n      pop\n      pop\n      pop\n      mload(0x40)\n      returndatasize\n      not(0x1f)\n      0x1f\n      dup3\n      add\n      and\n      dup3\n      add\n      dup1\n      0x40\n      mstore\n      pop\n      dup2\n      add\n      swap1\n      tag_65\n      swap2\n      swap1\n      tag_30\n      jump\t// in\n    tag_65:\n        /* \"VoterCandidate.sol\":1094:1180  require(votingSystem.isCandidateRegistered(_candidate), \"Candidate is not registered\") */\n      tag_66\n      jumpi\n      mload(0x40)\n      0x08c379a000000000000000000000000000000000000000000000000000000000\n      dup2\n      mstore\n      0x04\n      add\n      tag_67\n      swap1\n      tag_41\n      jump\t// in\n    tag_67:\n      mload(0x40)\n      dup1\n      swap2\n      sub\n      swap1\n      revert\n    tag_66:\n        /* \"VoterCandidate.sol\":1213:1217  true */\n      0x01\n        /* \"VoterCandidate.sol\":1193:1198  voted */\n      0x02\n        /* \"VoterCandidate.sol\":1193:1210  voted[msg.sender] */\n      0x00\n        /* \"VoterCandidate.sol\":1199:1209  msg.sender */\n      caller\n        /* \"VoterCandidate.sol\":1193:1210  voted[msg.sender] */\n      0xffffffffffffffffffffffffffffffffffffffff\n      and\n      0xffffffffffffffffffffffffffffffffffffffff\n      and\n      dup2\n      mstore\n      0x20\n      add\n      swap1\n      dup2\n      mstore\n      0x20\n      add\n      0x00\n      keccak256\n      0x00\n        /* \"VoterCandidate.sol\":1193:1217  voted[msg.sender] = true */\n      0x0100\n      exp\n      dup2\n      sload\n      dup2\n      0xff\n      mul\n      not\n      and\n      swap1\n      dup4\n      iszero\n      iszero\n      mul\n      or\n      swap1\n      sstore\n      pop\n        /* \"VoterCandidate.sol\":1228:1241  votesReceived */\n      0x03\n        /* \"VoterCandidate.sol\":1228:1253  votesReceived[_candidate] */\n      0x00\n        /* \"VoterCandidate.sol\":1242:1252  _candidate */\n      dup3\n        /* \"VoterCandidate.sol\":1228:1253  votesReceived[_candidate] */\n      0xffffffffffffffffffffffffffffffffffffffff\n      and\n      0xffffffffffffffffffffffffffffffffffffffff\n      and\n      dup2\n      mstore\n      0x20\n      add\n      swap1\n      dup2\n      mstore\n      0x20\n      add\n      0x00\n      keccak256\n      0x00\n        /* \"VoterCandidate.sol\":1228:1255  votesReceived[_candidate]++ */\n      dup2\n      sload\n      dup1\n      swap3\n      swap2\n      swap1\n      tag_68\n      swap1\n      tag_69\n      jump\t// in\n    tag_68:\n      swap2\n      swap1\n      pop\n      sstore\n      pop\n        /* \"VoterCandidate.sol\":879:1263  function vote(address _candidate) public electionInProgress {... */\n      pop\n      jump\t// out\n        /* \"VoterCandidate.sol\":783:871  function registerAsVoter() public {... */\n    tag_18:\n        /* \"VoterCandidate.sol\":859:863  true */\n      0x01\n        /* \"VoterCandidate.sol\":828:844  registeredVoters */\n      dup1\n        /* \"VoterCandidate.sol\":828:856  registeredVoters[msg.sender] */\n      0x00\n        /* \"VoterCandidate.sol\":845:855  msg.sender */\n      caller\n        /* \"VoterCandidate.sol\":828:856  registeredVoters[msg.sender] */\n      0xffffffffffffffffffffffffffffffffffffffff\n      and\n      0xffffffffffffffffffffffffffffffffffffffff\n      and\n      dup2\n      mstore\n      0x20\n      add\n      swap1\n      dup2\n      mstore\n      0x20\n      add\n      0x00\n      keccak256\n      0x00\n        /* \"VoterCandidate.sol\":828:863  registeredVoters[msg.sender] = true */\n      0x0100\n      exp\n      dup2\n      sload\n      dup2\n      0xff\n      mul\n      not\n      and\n      swap1\n      dup4\n      iszero\n      iszero\n      mul\n      or\n      swap1\n      sstore\n      pop\n        /* \"VoterCandidate.sol\":783:871  function registerAsVoter() public {... */\n      jump\t// out\n        /* \"VoterCandidate.sol\":1719:1829  function viewResultAsCandidate() public view returns(uint256) {... */\n    tag_20:\n        /* \"VoterCandidate.sol\":1772:1779  uint256 */\n      0x00\n        /* \"VoterCandidate.sol\":1799:1821  getResults(msg.sender) */\n      tag_72\n        /* \"VoterCandidate.sol\":1810:1820  msg.sender */\n      caller\n        /* \"VoterCandidate.sol\":1799:1809  getResults */\n      tag_11\n        /* \"VoterCandidate.sol\":1799:1821  getResults(msg.sender) */\n      jump\t// in\n    tag_72:\n        /* \"VoterCandidate.sol\":1792:1821  return getResults(msg.sender) */\n      swap1\n      pop\n        /* \"VoterCandidate.sol\":1719:1829  function viewResultAsCandidate() public view returns(uint256) {... */\n      swap1\n      jump\t// out\n        /* \"VoterCandidate.sol\":1271:1406  function viewVoterDetails() public view returns(bool, bool) {... */\n    tag_23:\n        /* \"VoterCandidate.sol\":1319:1323  bool */\n      0x00\n        /* \"VoterCandidate.sol\":1325:1329  bool */\n      dup1\n        /* \"VoterCandidate.sol\":1350:1366  registeredVoters */\n      0x01\n        /* \"VoterCandidate.sol\":1350:1378  registeredVoters[msg.sender] */\n      0x00\n        /* \"VoterCandidate.sol\":1367:1377  msg.sender */\n      caller\n        /* \"VoterCandidate.sol\":1350:1378  registeredVoters[msg.sender] */\n      0xffffffffffffffffffffffffffffffffffffffff\n      and\n      0xffffffffffffffffffffffffffffffffffffffff\n      and\n      dup2\n      mstore\n      0x20\n      add\n      swap1\n      dup2\n      mstore\n      0x20\n      add\n      0x00\n      keccak256\n      0x00\n      swap1\n      sload\n      swap1\n      0x0100\n      exp\n      swap1\n      div\n      0xff\n      and\n        /* \"VoterCandidate.sol\":1380:1385  voted */\n      0x02\n        /* \"VoterCandidate.sol\":1380:1397  voted[msg.sender] */\n      0x00\n        /* \"VoterCandidate.sol\":1386:1396  msg.sender */\n      caller\n        /* \"VoterCandidate.sol\":1380:1397  voted[msg.sender] */\n      0xffffffffffffffffffffffffffffffffffffffff\n      and\n      0xffffffffffffffffffffffffffffffffffffffff\n      and\n      dup2\n      mstore\n      0x20\n      add\n      swap1\n      dup2\n      mstore\n      0x20\n      add\n      0x00\n      keccak256\n      0x00\n      swap1\n      sload\n      swap1\n      0x0100\n      exp\n      swap1\n      div\n      0xff\n      and\n        /* \"VoterCandidate.sol\":1342:1398  return (registeredVoters[msg.sender], voted[msg.sender]) */\n      swap2\n      pop\n      swap2\n      pop\n        /* \"VoterCandidate.sol\":1271:1406  function viewVoterDetails() public view returns(bool, bool) {... */\n      swap1\n      swap2\n      jump\t// out\n        /* \"#utility.yul\":88:205   */\n    tag_75:\n        /* \"#utility.yul\":197:198   */\n      0x00\n        /* \"#utility.yul\":194:195   */\n      dup1\n        /* \"#utility.yul\":187:199   */\n      revert\n        /* \"#utility.yul\":334:460   */\n    tag_77:\n        /* \"#utility.yul\":371:378   */\n      0x00\n        /* \"#utility.yul\":411:453   */\n      0xffffffffffffffffffffffffffffffffffffffff\n        /* \"#utility.yul\":404:409   */\n      dup3\n        /* \"#utility.yul\":400:454   */\n      and\n        /* \"#utility.yul\":389:454   */\n      swap1\n      pop\n        /* \"#utility.yul\":334:460   */\n      swap2\n      swap1\n      pop\n      jump\t// out\n        /* \"#utility.yul\":466:562   */\n    tag_78:\n        /* \"#utility.yul\":503:510   */\n      0x00\n        /* \"#utility.yul\":532:556   */\n      tag_108\n        /* \"#utility.yul\":550:555   */\n      dup3\n        /* \"#utility.yul\":532:556   */\n      tag_77\n      jump\t// in\n    tag_108:\n        /* \"#utility.yul\":521:556   */\n      swap1\n      pop\n        /* \"#utility.yul\":466:562   */\n      swap2\n      swap1\n      pop\n      jump\t// out\n        /* \"#utility.yul\":568:690   */\n    tag_79:\n        /* \"#utility.yul\":641:665   */\n      tag_110\n        /* \"#utility.yul\":659:664   */\n      dup2\n        /* \"#utility.yul\":641:665   */\n      tag_78\n      jump\t// in\n    tag_110:\n        /* \"#utility.yul\":634:639   */\n      dup2\n        /* \"#utility.yul\":631:666   */\n      eq\n        /* \"#utility.yul\":621:684   */\n      tag_111\n      jumpi\n        /* \"#utility.yul\":680:681   */\n      0x00\n        /* \"#utility.yul\":677:678   */\n      dup1\n        /* \"#utility.yul\":670:682   */\n      revert\n        /* \"#utility.yul\":621:684   */\n    tag_111:\n        /* \"#utility.yul\":568:690   */\n      pop\n      jump\t// out\n        /* \"#utility.yul\":696:835   */\n    tag_80:\n        /* \"#utility.yul\":742:747   */\n      0x00\n        /* \"#utility.yul\":780:786   */\n      dup2\n        /* \"#utility.yul\":767:787   */\n      calldataload\n        /* \"#utility.yul\":758:787   */\n      swap1\n      pop\n        /* \"#utility.yul\":796:829   */\n      tag_113\n        /* \"#utility.yul\":823:828   */\n      dup2\n        /* \"#utility.yul\":796:829   */\n      tag_79\n      jump\t// in\n    tag_113:\n        /* \"#utility.yul\":696:835   */\n      swap3\n      swap2\n      pop\n      pop\n      jump\t// out\n        /* \"#utility.yul\":841:1170   */\n    tag_10:\n        /* \"#utility.yul\":900:906   */\n      0x00\n        /* \"#utility.yul\":949:951   */\n      0x20\n        /* \"#utility.yul\":937:946   */\n      dup3\n        /* \"#utility.yul\":928:935   */\n      dup5\n        /* \"#utility.yul\":924:947   */\n      sub\n        /* \"#utility.yul\":920:952   */\n      slt\n        /* \"#utility.yul\":917:1036   */\n      iszero\n      tag_115\n      jumpi\n        /* \"#utility.yul\":955:1034   */\n      tag_116\n      tag_75\n      jump\t// in\n    tag_116:\n        /* \"#utility.yul\":917:1036   */\n    tag_115:\n        /* \"#utility.yul\":1075:1076   */\n      0x00\n        /* \"#utility.yul\":1100:1153   */\n      tag_117\n        /* \"#utility.yul\":1145:1152   */\n      dup5\n        /* \"#utility.yul\":1136:1142   */\n      dup3\n        /* \"#utility.yul\":1125:1134   */\n      dup6\n        /* \"#utility.yul\":1121:1143   */\n      add\n        /* \"#utility.yul\":1100:1153   */\n      tag_80\n      jump\t// in\n    tag_117:\n        /* \"#utility.yul\":1090:1153   */\n      swap2\n      pop\n        /* \"#utility.yul\":1046:1163   */\n      pop\n        /* \"#utility.yul\":841:1170   */\n      swap3\n      swap2\n      pop\n      pop\n      jump\t// out\n        /* \"#utility.yul\":1176:1253   */\n    tag_81:\n        /* \"#utility.yul\":1213:1220   */\n      0x00\n        /* \"#utility.yul\":1242:1247   */\n      dup2\n        /* \"#utility.yul\":1231:1247   */\n      swap1\n      pop\n        /* \"#utility.yul\":1176:1253   */\n      swap2\n      swap1\n      pop\n      jump\t// out\n        /* \"#utility.yul\":1259:1377   */\n    tag_82:\n        /* \"#utility.yul\":1346:1370   */\n      tag_120\n        /* \"#utility.yul\":1364:1369   */\n      dup2\n        /* \"#utility.yul\":1346:1370   */\n      tag_81\n      jump\t// in\n    tag_120:\n        /* \"#utility.yul\":1341:1344   */\n      dup3\n        /* \"#utility.yul\":1334:1371   */\n      mstore\n        /* \"#utility.yul\":1259:1377   */\n      pop\n      pop\n      jump\t// out\n        /* \"#utility.yul\":1383:1605   */\n    tag_13:\n        /* \"#utility.yul\":1476:1480   */\n      0x00\n        /* \"#utility.yul\":1514:1516   */\n      0x20\n        /* \"#utility.yul\":1503:1512   */\n      dup3\n        /* \"#utility.yul\":1499:1517   */\n      add\n        /* \"#utility.yul\":1491:1517   */\n      swap1\n      pop\n        /* \"#utility.yul\":1527:1598   */\n      tag_122\n        /* \"#utility.yul\":1595:1596   */\n      0x00\n        /* \"#utility.yul\":1584:1593   */\n      dup4\n        /* \"#utility.yul\":1580:1597   */\n      add\n        /* \"#utility.yul\":1571:1577   */\n      dup5\n        /* \"#utility.yul\":1527:1598   */\n      tag_82\n      jump\t// in\n    tag_122:\n        /* \"#utility.yul\":1383:1605   */\n      swap3\n      swap2\n      pop\n      pop\n      jump\t// out\n        /* \"#utility.yul\":1611:1701   */\n    tag_83:\n        /* \"#utility.yul\":1645:1652   */\n      0x00\n        /* \"#utility.yul\":1688:1693   */\n      dup2\n        /* \"#utility.yul\":1681:1694   */\n      iszero\n        /* \"#utility.yul\":1674:1695   */\n      iszero\n        /* \"#utility.yul\":1663:1695   */\n      swap1\n      pop\n        /* \"#utility.yul\":1611:1701   */\n      swap2\n      swap1\n      pop\n      jump\t// out\n        /* \"#utility.yul\":1707:1816   */\n    tag_84:\n        /* \"#utility.yul\":1788:1809   */\n      tag_125\n        /* \"#utility.yul\":1803:1808   */\n      dup2\n        /* \"#utility.yul\":1788:1809   */\n      tag_83\n      jump\t// in\n    tag_125:\n        /* \"#utility.yul\":1783:1786   */\n      dup3\n        /* \"#utility.yul\":1776:1810   */\n      mstore\n        /* \"#utility.yul\":1707:1816   */\n      pop\n      pop\n      jump\t// out\n        /* \"#utility.yul\":1822:2130   */\n    tag_25:\n        /* \"#utility.yul\":1931:1935   */\n      0x00\n        /* \"#utility.yul\":1969:1971   */\n      0x40\n        /* \"#utility.yul\":1958:1967   */\n      dup3\n        /* \"#utility.yul\":1954:1972   */\n      add\n        /* \"#utility.yul\":1946:1972   */\n      swap1\n      pop\n        /* \"#utility.yul\":1982:2047   */\n      tag_127\n        /* \"#utility.yul\":2044:2045   */\n      0x00\n        /* \"#utility.yul\":2033:2042   */\n      dup4\n        /* \"#utility.yul\":2029:2046   */\n      add\n        /* \"#utility.yul\":2020:2026   */\n      dup6\n        /* \"#utility.yul\":1982:2047   */\n      tag_84\n      jump\t// in\n    tag_127:\n        /* \"#utility.yul\":2057:2123   */\n      tag_128\n        /* \"#utility.yul\":2119:2121   */\n      0x20\n        /* \"#utility.yul\":2108:2117   */\n      dup4\n        /* \"#utility.yul\":2104:2122   */\n      add\n        /* \"#utility.yul\":2095:2101   */\n      dup5\n        /* \"#utility.yul\":2057:2123   */\n      tag_84\n      jump\t// in\n    tag_128:\n        /* \"#utility.yul\":1822:2130   */\n      swap4\n      swap3\n      pop\n      pop\n      pop\n      jump\t// out\n        /* \"#utility.yul\":2136:2252   */\n    tag_85:\n        /* \"#utility.yul\":2206:2227   */\n      tag_130\n        /* \"#utility.yul\":2221:2226   */\n      dup2\n        /* \"#utility.yul\":2206:2227   */\n      tag_83\n      jump\t// in\n    tag_130:\n        /* \"#utility.yul\":2199:2204   */\n      dup2\n        /* \"#utility.yul\":2196:2228   */\n      eq\n        /* \"#utility.yul\":2186:2246   */\n      tag_131\n      jumpi\n        /* \"#utility.yul\":2242:2243   */\n      0x00\n        /* \"#utility.yul\":2239:2240   */\n      dup1\n        /* \"#utility.yul\":2232:2244   */\n      revert\n        /* \"#utility.yul\":2186:2246   */\n    tag_131:\n        /* \"#utility.yul\":2136:2252   */\n      pop\n      jump\t// out\n        /* \"#utility.yul\":2258:2395   */\n    tag_86:\n        /* \"#utility.yul\":2312:2317   */\n      0x00\n        /* \"#utility.yul\":2343:2349   */\n      dup2\n        /* \"#utility.yul\":2337:2350   */\n      mload\n        /* \"#utility.yul\":2328:2350   */\n      swap1\n      pop\n        /* \"#utility.yul\":2359:2389   */\n      tag_133\n        /* \"#utility.yul\":2383:2388   */\n      dup2\n        /* \"#utility.yul\":2359:2389   */\n      tag_85\n      jump\t// in\n    tag_133:\n        /* \"#utility.yul\":2258:2395   */\n      swap3\n      swap2\n      pop\n      pop\n      jump\t// out\n        /* \"#utility.yul\":2401:2746   */\n    tag_30:\n        /* \"#utility.yul\":2468:2474   */\n      0x00\n        /* \"#utility.yul\":2517:2519   */\n      0x20\n        /* \"#utility.yul\":2505:2514   */\n      dup3\n        /* \"#utility.yul\":2496:2503   */\n      dup5\n        /* \"#utility.yul\":2492:2515   */\n      sub\n        /* \"#utility.yul\":2488:2520   */\n      slt\n        /* \"#utility.yul\":2485:2604   */\n      iszero\n      tag_135\n      jumpi\n        /* \"#utility.yul\":2523:2602   */\n      tag_136\n      tag_75\n      jump\t// in\n    tag_136:\n        /* \"#utility.yul\":2485:2604   */\n    tag_135:\n        /* \"#utility.yul\":2643:2644   */\n      0x00\n        /* \"#utility.yul\":2668:2729   */\n      tag_137\n        /* \"#utility.yul\":2721:2728   */\n      dup5\n        /* \"#utility.yul\":2712:2718   */\n      dup3\n        /* \"#utility.yul\":2701:2710   */\n      dup6\n        /* \"#utility.yul\":2697:2719   */\n      add\n        /* \"#utility.yul\":2668:2729   */\n      tag_86\n      jump\t// in\n    tag_137:\n        /* \"#utility.yul\":2658:2729   */\n      swap2\n      pop\n        /* \"#utility.yul\":2614:2739   */\n      pop\n        /* \"#utility.yul\":2401:2746   */\n      swap3\n      swap2\n      pop\n      pop\n      jump\t// out\n        /* \"#utility.yul\":2752:2921   */\n    tag_87:\n        /* \"#utility.yul\":2836:2847   */\n      0x00\n        /* \"#utility.yul\":2870:2876   */\n      dup3\n        /* \"#utility.yul\":2865:2868   */\n      dup3\n        /* \"#utility.yul\":2858:2877   */\n      mstore\n        /* \"#utility.yul\":2910:2914   */\n      0x20\n        /* \"#utility.yul\":2905:2908   */\n      dup3\n        /* \"#utility.yul\":2901:2915   */\n      add\n        /* \"#utility.yul\":2886:2915   */\n      swap1\n      pop\n        /* \"#utility.yul\":2752:2921   */\n      swap3\n      swap2\n      pop\n      pop\n      jump\t// out\n        /* \"#utility.yul\":2927:3103   */\n    tag_88:\n        /* \"#utility.yul\":3067:3095   */\n      0x456c656374696f6e20686173206e6f7420656e64656420796574000000000000\n        /* \"#utility.yul\":3063:3064   */\n      0x00\n        /* \"#utility.yul\":3055:3061   */\n      dup3\n        /* \"#utility.yul\":3051:3065   */\n      add\n        /* \"#utility.yul\":3044:3096   */\n      mstore\n        /* \"#utility.yul\":2927:3103   */\n      pop\n      jump\t// out\n        /* \"#utility.yul\":3109:3475   */\n    tag_89:\n        /* \"#utility.yul\":3251:3254   */\n      0x00\n        /* \"#utility.yul\":3272:3339   */\n      tag_141\n        /* \"#utility.yul\":3336:3338   */\n      0x1a\n        /* \"#utility.yul\":3331:3334   */\n      dup4\n        /* \"#utility.yul\":3272:3339   */\n      tag_87\n      jump\t// in\n    tag_141:\n        /* \"#utility.yul\":3265:3339   */\n      swap2\n      pop\n        /* \"#utility.yul\":3348:3441   */\n      tag_142\n        /* \"#utility.yul\":3437:3440   */\n      dup3\n        /* \"#utility.yul\":3348:3441   */\n      tag_88\n      jump\t// in\n    tag_142:\n        /* \"#utility.yul\":3466:3468   */\n      0x20\n        /* \"#utility.yul\":3461:3464   */\n      dup3\n        /* \"#utility.yul\":3457:3469   */\n      add\n        /* \"#utility.yul\":3450:3469   */\n      swap1\n      pop\n        /* \"#utility.yul\":3109:3475   */\n      swap2\n      swap1\n      pop\n      jump\t// out\n        /* \"#utility.yul\":3481:3900   */\n    tag_33:\n        /* \"#utility.yul\":3647:3651   */\n      0x00\n        /* \"#utility.yul\":3685:3687   */\n      0x20\n        /* \"#utility.yul\":3674:3683   */\n      dup3\n        /* \"#utility.yul\":3670:3688   */\n      add\n        /* \"#utility.yul\":3662:3688   */\n      swap1\n      pop\n        /* \"#utility.yul\":3734:3743   */\n      dup2\n        /* \"#utility.yul\":3728:3732   */\n      dup2\n        /* \"#utility.yul\":3724:3744   */\n      sub\n        /* \"#utility.yul\":3720:3721   */\n      0x00\n        /* \"#utility.yul\":3709:3718   */\n      dup4\n        /* \"#utility.yul\":3705:3722   */\n      add\n        /* \"#utility.yul\":3698:3745   */\n      mstore\n        /* \"#utility.yul\":3762:3893   */\n      tag_144\n        /* \"#utility.yul\":3888:3892   */\n      dup2\n        /* \"#utility.yul\":3762:3893   */\n      tag_89\n      jump\t// in\n    tag_144:\n        /* \"#utility.yul\":3754:3893   */\n      swap1\n      pop\n        /* \"#utility.yul\":3481:3900   */\n      swap2\n      swap1\n      pop\n      jump\t// out\n        /* \"#utility.yul\":3906:4024   */\n    tag_90:\n        /* \"#utility.yul\":3993:4017   */\n      tag_146\n        /* \"#utility.yul\":4011:4016   */\n      dup2\n        /* \"#utility.yul\":3993:4017   */\n      tag_78\n      jump\t// in\n    tag_146:\n        /* \"#utility.yul\":3988:3991   */\n      dup3\n        /* \"#utility.yul\":3981:4018   */\n      mstore\n        /* \"#utility.yul\":3906:4024   */\n      pop\n      pop\n      jump\t// out\n        /* \"#utility.yul\":4030:4252   */\n    tag_35:\n        /* \"#utility.yul\":4123:4127   */\n      0x00\n        /* \"#utility.yul\":4161:4163   */\n      0x20\n        /* \"#utility.yul\":4150:4159   */\n      dup3\n        /* \"#utility.yul\":4146:4164   */\n      add\n        /* \"#utility.yul\":4138:4164   */\n      swap1\n      pop\n        /* \"#utility.yul\":4174:4245   */\n      tag_148\n        /* \"#utility.yul\":4242:4243   */\n      0x00\n        /* \"#utility.yul\":4231:4240   */\n      dup4\n        /* \"#utility.yul\":4227:4244   */\n      add\n        /* \"#utility.yul\":4218:4224   */\n      dup5\n        /* \"#utility.yul\":4174:4245   */\n      tag_90\n      jump\t// in\n    tag_148:\n        /* \"#utility.yul\":4030:4252   */\n      swap3\n      swap2\n      pop\n      pop\n      jump\t// out\n        /* \"#utility.yul\":4258:4435   */\n    tag_91:\n        /* \"#utility.yul\":4398:4427   */\n      0x43616e646964617465206973206e6f7420726567697374657265640000000000\n        /* \"#utility.yul\":4394:4395   */\n      0x00\n        /* \"#utility.yul\":4386:4392   */\n      dup3\n        /* \"#utility.yul\":4382:4396   */\n      add\n        /* \"#utility.yul\":4375:4428   */\n      mstore\n        /* \"#utility.yul\":4258:4435   */\n      pop\n      jump\t// out\n        /* \"#utility.yul\":4441:4807   */\n    tag_92:\n        /* \"#utility.yul\":4583:4586   */\n      0x00\n        /* \"#utility.yul\":4604:4671   */\n      tag_151\n        /* \"#utility.yul\":4668:4670   */\n      0x1b\n        /* \"#utility.yul\":4663:4666   */\n      dup4\n        /* \"#utility.yul\":4604:4671   */\n      tag_87\n      jump\t// in\n    tag_151:\n        /* \"#utility.yul\":4597:4671   */\n      swap2\n      pop\n        /* \"#utility.yul\":4680:4773   */\n      tag_152\n        /* \"#utility.yul\":4769:4772   */\n      dup3\n        /* \"#utility.yul\":4680:4773   */\n      tag_91\n      jump\t// in\n    tag_152:\n        /* \"#utility.yul\":4798:4800   */\n      0x20\n        /* \"#utility.yul\":4793:4796   */\n      dup3\n        /* \"#utility.yul\":4789:4801   */\n      add\n        /* \"#utility.yul\":4782:4801   */\n      swap1\n      pop\n        /* \"#utility.yul\":4441:4807   */\n      swap2\n      swap1\n      pop\n      jump\t// out\n        /* \"#utility.yul\":4813:5232   */\n    tag_41:\n        /* \"#utility.yul\":4979:4983   */\n      0x00\n        /* \"#utility.yul\":5017:5019   */\n      0x20\n        /* \"#utility.yul\":5006:5015   */\n      dup3\n        /* \"#utility.yul\":5002:5020   */\n      add\n        /* \"#utility.yul\":4994:5020   */\n      swap1\n      pop\n        /* \"#utility.yul\":5066:5075   */\n      dup2\n        /* \"#utility.yul\":5060:5064   */\n      dup2\n        /* \"#utility.yul\":5056:5076   */\n      sub\n        /* \"#utility.yul\":5052:5053   */\n      0x00\n        /* \"#utility.yul\":5041:5050   */\n      dup4\n        /* \"#utility.yul\":5037:5054   */\n      add\n        /* \"#utility.yul\":5030:5077   */\n      mstore\n        /* \"#utility.yul\":5094:5225   */\n      tag_154\n        /* \"#utility.yul\":5220:5224   */\n      dup2\n        /* \"#utility.yul\":5094:5225   */\n      tag_92\n      jump\t// in\n    tag_154:\n        /* \"#utility.yul\":5086:5225   */\n      swap1\n      pop\n        /* \"#utility.yul\":4813:5232   */\n      swap2\n      swap1\n      pop\n      jump\t// out\n        /* \"#utility.yul\":5238:5412   */\n    tag_93:\n        /* \"#utility.yul\":5378:5404   */\n      0x456c656374696f6e20686173206e6f7420737461727465640000000000000000\n        /* \"#utility.yul\":5374:5375   */\n      0x00\n        /* \"#utility.yul\":5366:5372   */\n      dup3\n        /* \"#utility.yul\":5362:5376   */\n      add\n        /* \"#utility.yul\":5355:5405   */\n      mstore\n        /* \"#utility.yul\":5238:5412   */\n      pop\n      jump\t// out\n        /* \"#utility.yul\":5418:5784   */\n    tag_94:\n        /* \"#utility.yul\":5560:5563   */\n      0x00\n        /* \"#utility.yul\":5581:5648   */\n      tag_157\n        /* \"#utility.yul\":5645:5647   */\n      0x18\n        /* \"#utility.yul\":5640:5643   */\n      dup4\n        /* \"#utility.yul\":5581:5648   */\n      tag_87\n      jump\t// in\n    tag_157:\n        /* \"#utility.yul\":5574:5648   */\n      swap2\n      pop\n        /* \"#utility.yul\":5657:5750   */\n      tag_158\n        /* \"#utility.yul\":5746:5749   */\n      dup3\n        /* \"#utility.yul\":5657:5750   */\n      tag_93\n      jump\t// in\n    tag_158:\n        /* \"#utility.yul\":5775:5777   */\n      0x20\n        /* \"#utility.yul\":5770:5773   */\n      dup3\n        /* \"#utility.yul\":5766:5778   */\n      add\n        /* \"#utility.yul\":5759:5778   */\n      swap1\n      pop\n        /* \"#utility.yul\":5418:5784   */\n      swap2\n      swap1\n      pop\n      jump\t// out\n        /* \"#utility.yul\":5790:6209   */\n    tag_48:\n        /* \"#utility.yul\":5956:5960   */\n      0x00\n        /* \"#utility.yul\":5994:5996   */\n      0x20\n        /* \"#utility.yul\":5983:5992   */\n      dup3\n        /* \"#utility.yul\":5979:5997   */\n      add\n        /* \"#utility.yul\":5971:5997   */\n      swap1\n      pop\n        /* \"#utility.yul\":6043:6052   */\n      dup2\n        /* \"#utility.yul\":6037:6041   */\n      dup2\n        /* \"#utility.yul\":6033:6053   */\n      sub\n        /* \"#utility.yul\":6029:6030   */\n      0x00\n        /* \"#utility.yul\":6018:6027   */\n      dup4\n        /* \"#utility.yul\":6014:6031   */\n      add\n        /* \"#utility.yul\":6007:6054   */\n      mstore\n        /* \"#utility.yul\":6071:6202   */\n      tag_160\n        /* \"#utility.yul\":6197:6201   */\n      dup2\n        /* \"#utility.yul\":6071:6202   */\n      tag_94\n      jump\t// in\n    tag_160:\n        /* \"#utility.yul\":6063:6202   */\n      swap1\n      pop\n        /* \"#utility.yul\":5790:6209   */\n      swap2\n      swap1\n      pop\n      jump\t// out\n        /* \"#utility.yul\":6215:6391   */\n    tag_95:\n        /* \"#utility.yul\":6355:6383   */\n      0x456c656374696f6e2068617320616c726561647920656e646564000000000000\n        /* \"#utility.yul\":6351:6352   */\n      0x00\n        /* \"#utility.yul\":6343:6349   */\n      dup3\n        /* \"#utility.yul\":6339:6353   */\n      add\n        /* \"#utility.yul\":6332:6384   */\n      mstore\n        /* \"#utility.yul\":6215:6391   */\n      pop\n      jump\t// out\n        /* \"#utility.yul\":6397:6763   */\n    tag_96:\n        /* \"#utility.yul\":6539:6542   */\n      0x00\n        /* \"#utility.yul\":6560:6627   */\n      tag_163\n        /* \"#utility.yul\":6624:6626   */\n      0x1a\n        /* \"#utility.yul\":6619:6622   */\n      dup4\n        /* \"#utility.yul\":6560:6627   */\n      tag_87\n      jump\t// in\n    tag_163:\n        /* \"#utility.yul\":6553:6627   */\n      swap2\n      pop\n        /* \"#utility.yul\":6636:6729   */\n      tag_164\n        /* \"#utility.yul\":6725:6728   */\n      dup3\n        /* \"#utility.yul\":6636:6729   */\n      tag_95\n      jump\t// in\n    tag_164:\n        /* \"#utility.yul\":6754:6756   */\n      0x20\n        /* \"#utility.yul\":6749:6752   */\n      dup3\n        /* \"#utility.yul\":6745:6757   */\n      add\n        /* \"#utility.yul\":6738:6757   */\n      swap1\n      pop\n        /* \"#utility.yul\":6397:6763   */\n      swap2\n      swap1\n      pop\n      jump\t// out\n        /* \"#utility.yul\":6769:7188   */\n    tag_54:\n        /* \"#utility.yul\":6935:6939   */\n      0x00\n        /* \"#utility.yul\":6973:6975   */\n      0x20\n        /* \"#utility.yul\":6962:6971   */\n      dup3\n        /* \"#utility.yul\":6958:6976   */\n      add\n        /* \"#utility.yul\":6950:6976   */\n      swap1\n      pop\n        /* \"#utility.yul\":7022:7031   */\n      dup2\n        /* \"#utility.yul\":7016:7020   */\n      dup2\n        /* \"#utility.yul\":7012:7032   */\n      sub\n        /* \"#utility.yul\":7008:7009   */\n      0x00\n        /* \"#utility.yul\":6997:7006   */\n      dup4\n        /* \"#utility.yul\":6993:7010   */\n      add\n        /* \"#utility.yul\":6986:7033   */\n      mstore\n        /* \"#utility.yul\":7050:7181   */\n      tag_166\n        /* \"#utility.yul\":7176:7180   */\n      dup2\n        /* \"#utility.yul\":7050:7181   */\n      tag_96\n      jump\t// in\n    tag_166:\n        /* \"#utility.yul\":7042:7181   */\n      swap1\n      pop\n        /* \"#utility.yul\":6769:7188   */\n      swap2\n      swap1\n      pop\n      jump\t// out\n        /* \"#utility.yul\":7194:7366   */\n    tag_97:\n        /* \"#utility.yul\":7334:7358   */\n      0x596f75206861766520616c726561647920766f74656400000000000000000000\n        /* \"#utility.yul\":7330:7331   */\n      0x00\n        /* \"#utility.yul\":7322:7328   */\n      dup3\n        /* \"#utility.yul\":7318:7332   */\n      add\n        /* \"#utility.yul\":7311:7359   */\n      mstore\n        /* \"#utility.yul\":7194:7366   */\n      pop\n      jump\t// out\n        /* \"#utility.yul\":7372:7738   */\n    tag_98:\n        /* \"#utility.yul\":7514:7517   */\n      0x00\n        /* \"#utility.yul\":7535:7602   */\n      tag_169\n        /* \"#utility.yul\":7599:7601   */\n      0x16\n        /* \"#utility.yul\":7594:7597   */\n      dup4\n        /* \"#utility.yul\":7535:7602   */\n      tag_87\n      jump\t// in\n    tag_169:\n        /* \"#utility.yul\":7528:7602   */\n      swap2\n      pop\n        /* \"#utility.yul\":7611:7704   */\n      tag_170\n        /* \"#utility.yul\":7700:7703   */\n      dup3\n        /* \"#utility.yul\":7611:7704   */\n      tag_97\n      jump\t// in\n    tag_170:\n        /* \"#utility.yul\":7729:7731   */\n      0x20\n        /* \"#utility.yul\":7724:7727   */\n      dup3\n        /* \"#utility.yul\":7720:7732   */\n      add\n        /* \"#utility.yul\":7713:7732   */\n      swap1\n      pop\n        /* \"#utility.yul\":7372:7738   */\n      swap2\n      swap1\n      pop\n      jump\t// out\n        /* \"#utility.yul\":7744:8163   */\n    tag_58:\n        /* \"#utility.yul\":7910:7914   */\n      0x00\n        /* \"#utility.yul\":7948:7950   */\n      0x20\n        /* \"#utility.yul\":7937:7946   */\n      dup3\n        /* \"#utility.yul\":7933:7951   */\n      add\n        /* \"#utility.yul\":7925:7951   */\n      swap1\n      pop\n        /* \"#utility.yul\":7997:8006   */\n      dup2\n        /* \"#utility.yul\":7991:7995   */\n      dup2\n        /* \"#utility.yul\":7987:8007   */\n      sub\n        /* \"#utility.yul\":7983:7984   */\n      0x00\n        /* \"#utility.yul\":7972:7981   */\n      dup4\n        /* \"#utility.yul\":7968:7985   */\n      add\n        /* \"#utility.yul\":7961:8008   */\n      mstore\n        /* \"#utility.yul\":8025:8156   */\n      tag_172\n        /* \"#utility.yul\":8151:8155   */\n      dup2\n        /* \"#utility.yul\":8025:8156   */\n      tag_98\n      jump\t// in\n    tag_172:\n        /* \"#utility.yul\":8017:8156   */\n      swap1\n      pop\n        /* \"#utility.yul\":7744:8163   */\n      swap2\n      swap1\n      pop\n      jump\t// out\n        /* \"#utility.yul\":8169:8347   */\n    tag_99:\n        /* \"#utility.yul\":8309:8339   */\n      0x596f7520617265206e6f74207265676973746572656420766f74657200000000\n        /* \"#utility.yul\":8305:8306   */\n      0x00\n        /* \"#utility.yul\":8297:8303   */\n      dup3\n        /* \"#utility.yul\":8293:8307   */\n      add\n        /* \"#utility.yul\":8286:8340   */\n      mstore\n        /* \"#utility.yul\":8169:8347   */\n      pop\n      jump\t// out\n        /* \"#utility.yul\":8353:8719   */\n    tag_100:\n        /* \"#utility.yul\":8495:8498   */\n      0x00\n        /* \"#utility.yul\":8516:8583   */\n      tag_175\n        /* \"#utility.yul\":8580:8582   */\n      0x1c\n        /* \"#utility.yul\":8575:8578   */\n      dup4\n        /* \"#utility.yul\":8516:8583   */\n      tag_87\n      jump\t// in\n    tag_175:\n        /* \"#utility.yul\":8509:8583   */\n      swap2\n      pop\n        /* \"#utility.yul\":8592:8685   */\n      tag_176\n        /* \"#utility.yul\":8681:8684   */\n      dup3\n        /* \"#utility.yul\":8592:8685   */\n      tag_99\n      jump\t// in\n    tag_176:\n        /* \"#utility.yul\":8710:8712   */\n      0x20\n        /* \"#utility.yul\":8705:8708   */\n      dup3\n        /* \"#utility.yul\":8701:8713   */\n      add\n        /* \"#utility.yul\":8694:8713   */\n      swap1\n      pop\n        /* \"#utility.yul\":8353:8719   */\n      swap2\n      swap1\n      pop\n      jump\t// out\n        /* \"#utility.yul\":8725:9144   */\n    tag_61:\n        /* \"#utility.yul\":8891:8895   */\n      0x00\n        /* \"#utility.yul\":8929:8931   */\n      0x20\n        /* \"#utility.yul\":8918:8927   */\n      dup3\n        /* \"#utility.yul\":8914:8932   */\n      add\n        /* \"#utility.yul\":8906:8932   */\n      swap1\n      pop\n        /* \"#utility.yul\":8978:8987   */\n      dup2\n        /* \"#utility.yul\":8972:8976   */\n      dup2\n        /* \"#utility.yul\":8968:8988   */\n      sub\n        /* \"#utility.yul\":8964:8965   */\n      0x00\n        /* \"#utility.yul\":8953:8962   */\n      dup4\n        /* \"#utility.yul\":8949:8966   */\n      add\n        /* \"#utility.yul\":8942:8989   */\n      mstore\n        /* \"#utility.yul\":9006:9137   */\n      tag_178\n        /* \"#utility.yul\":9132:9136   */\n      dup2\n        /* \"#utility.yul\":9006:9137   */\n      tag_100\n      jump\t// in\n    tag_178:\n        /* \"#utility.yul\":8998:9137   */\n      swap1\n      pop\n        /* \"#utility.yul\":8725:9144   */\n      swap2\n      swap1\n      pop\n      jump\t// out\n        /* \"#utility.yul\":9150:9330   */\n    tag_101:\n        /* \"#utility.yul\":9198:9275   */\n      0x4e487b7100000000000000000000000000000000000000000000000000000000\n        /* \"#utility.yul\":9195:9196   */\n      0x00\n        /* \"#utility.yul\":9188:9276   */\n      mstore\n        /* \"#utility.yul\":9295:9299   */\n      0x11\n        /* \"#utility.yul\":9292:9293   */\n      0x04\n        /* \"#utility.yul\":9285:9300   */\n      mstore\n        /* \"#utility.yul\":9319:9323   */\n      0x24\n        /* \"#utility.yul\":9316:9317   */\n      0x00\n        /* \"#utility.yul\":9309:9324   */\n      revert\n        /* \"#utility.yul\":9336:9569   */\n    tag_69:\n        /* \"#utility.yul\":9375:9378   */\n      0x00\n        /* \"#utility.yul\":9398:9422   */\n      tag_181\n        /* \"#utility.yul\":9416:9421   */\n      dup3\n        /* \"#utility.yul\":9398:9422   */\n      tag_81\n      jump\t// in\n    tag_181:\n        /* \"#utility.yul\":9389:9422   */\n      swap2\n      pop\n        /* \"#utility.yul\":9444:9510   */\n      0xffffffffffffffffffffffffffffffffffffffffffffffffffffffffffffffff\n        /* \"#utility.yul\":9437:9442   */\n      dup3\n        /* \"#utility.yul\":9434:9511   */\n      sub\n        /* \"#utility.yul\":9431:9534   */\n      tag_182\n      jumpi\n        /* \"#utility.yul\":9514:9532   */\n      tag_183\n      tag_101\n      jump\t// in\n    tag_183:\n        /* \"#utility.yul\":9431:9534   */\n    tag_182:\n        /* \"#utility.yul\":9561:9562   */\n      0x01\n        /* \"#utility.yul\":9554:9559   */\n      dup3\n        /* \"#utility.yul\":9550:9563   */\n      add\n        /* \"#utility.yul\":9543:9563   */\n      swap1\n      pop\n        /* \"#utility.yul\":9336:9569   */\n      swap2\n      swap1\n      pop\n      jump\t// out\n\n    auxdata: 0xa264697066735822122003cf980f79b04afef93167326da5d9268bb9bbbaff44b1771326168dee1ffc1364736f6c63430008120033\n}\n",
				"bytecode": {
					"linkReferences": {},
					"object": "608060405234801561001057600080fd5b50604051610e15380380610e15833981810160405281019061003291906100db565b806000806101000a81548173ffffffffffffffffffffffffffffffffffffffff021916908373ffffffffffffffffffffffffffffffffffffffff16021790555050610108565b600080fd5b600073ffffffffffffffffffffffffffffffffffffffff82169050919050565b60006100a88261007d565b9050919050565b6100b88161009d565b81146100c357600080fd5b50565b6000815190506100d5816100af565b92915050565b6000602082840312156100f1576100f0610078565b5b60006100ff848285016100c6565b91505092915050565b610cfe806101176000396000f3fe608060405234801561001057600080fd5b50600436106100575760003560e01c806350bc4a981461005c5780636dd7d8ea1461008c57806378668658146100a8578063957af7ce146100b2578063f342c4de146100d0575b600080fd5b61007660048036038101906100719190610890565b6100ef565b60405161008391906108d6565b60405180910390f35b6100a660048036038101906100a19190610890565b6102e0565b005b6100b061071f565b005b6100ba610778565b6040516100c791906108d6565b60405180910390f35b6100d8610788565b6040516100e692919061090c565b60405180910390f35b60008060009054906101000a900473ffffffffffffffffffffffffffffffffffffffff1673ffffffffffffffffffffffffffffffffffffffff1663c94ca9e36040518163ffffffff1660e01b8152600401602060405180830381865afa15801561015d573d6000803e3d6000fd5b505050506040513d601f19601f820116820180604052508101906101819190610961565b6101c0576040517f08c379a00000000000000000000000000000000000000000000000000000000081526004016101b7906109eb565b60405180910390fd5b60008054906101000a900473ffffffffffffffffffffffffffffffffffffffff1673ffffffffffffffffffffffffffffffffffffffff1663f1ecdc58836040518263ffffffff1660e01b81526004016102199190610a1a565b602060405180830381865afa158015610236573d6000803e3d6000fd5b505050506040513d601f19601f8201168201806040525081019061025a9190610961565b610299576040517f08c379a000000000000000000000000000000000000000000000000000000000815260040161029090610a81565b60405180910390fd5b600360008373ffffffffffffffffffffffffffffffffffffffff1673ffffffffffffffffffffffffffffffffffffffff168152602001908152602001600020549050919050565b60008054906101000a900473ffffffffffffffffffffffffffffffffffffffff1673ffffffffffffffffffffffffffffffffffffffff1663d5346da16040518163ffffffff1660e01b8152600401602060405180830381865afa15801561034b573d6000803e3d6000fd5b505050506040513d601f19601f8201168201806040525081019061036f9190610961565b6103ae576040517f08c379a00000000000000000000000000000000000000000000000000000000081526004016103a590610aed565b60405180910390fd5b60008054906101000a900473ffffffffffffffffffffffffffffffffffffffff1673ffffffffffffffffffffffffffffffffffffffff1663c94ca9e36040518163ffffffff1660e01b8152600401602060405180830381865afa158015610419573d6000803e3d6000fd5b505050506040513d601f19601f8201168201806040525081019061043d9190610961565b1561047d576040517f08c379a000000000000000000000000000000000000000000000000000000000815260040161047490610b59565b60405180910390fd5b600260003373ffffffffffffffffffffffffffffffffffffffff1673ffffffffffffffffffffffffffffffffffffffff16815260200190815260200160002060009054906101000a900460ff161561050a576040517f08c379a000000000000000000000000000000000000000000000000000000000815260040161050190610bc5565b60405180910390fd5b600160003373ffffffffffffffffffffffffffffffffffffffff1673ffffffffffffffffffffffffffffffffffffffff16815260200190815260200160002060009054906101000a900460ff16610596576040517f08c379a000000000000000000000000000000000000000000000000000000000815260040161058d90610c31565b60405180910390fd5b60008054906101000a900473ffffffffffffffffffffffffffffffffffffffff1673ffffffffffffffffffffffffffffffffffffffff1663f1ecdc58826040518263ffffffff1660e01b81526004016105ef9190610a1a565b602060405180830381865afa15801561060c573d6000803e3d6000fd5b505050506040513d601f19601f820116820180604052508101906106309190610961565b61066f576040517f08c379a000000000000000000000000000000000000000000000000000000000815260040161066690610a81565b60405180910390fd5b6001600260003373ffffffffffffffffffffffffffffffffffffffff1673ffffffffffffffffffffffffffffffffffffffff16815260200190815260200160002060006101000a81548160ff021916908315150217905550600360008273ffffffffffffffffffffffffffffffffffffffff1673ffffffffffffffffffffffffffffffffffffffff168152602001908152602001600020600081548092919061071790610c80565b919050555050565b60018060003373ffffffffffffffffffffffffffffffffffffffff1673ffffffffffffffffffffffffffffffffffffffff16815260200190815260200160002060006101000a81548160ff021916908315150217905550565b6000610783336100ef565b905090565b600080600160003373ffffffffffffffffffffffffffffffffffffffff1673ffffffffffffffffffffffffffffffffffffffff16815260200190815260200160002060009054906101000a900460ff16600260003373ffffffffffffffffffffffffffffffffffffffff1673ffffffffffffffffffffffffffffffffffffffff16815260200190815260200160002060009054906101000a900460ff16915091509091565b600080fd5b600073ffffffffffffffffffffffffffffffffffffffff82169050919050565b600061085d82610832565b9050919050565b61086d81610852565b811461087857600080fd5b50565b60008135905061088a81610864565b92915050565b6000602082840312156108a6576108a561082d565b5b60006108b48482850161087b565b91505092915050565b6000819050919050565b6108d0816108bd565b82525050565b60006020820190506108eb60008301846108c7565b92915050565b60008115159050919050565b610906816108f1565b82525050565b600060408201905061092160008301856108fd565b61092e60208301846108fd565b9392505050565b61093e816108f1565b811461094957600080fd5b50565b60008151905061095b81610935565b92915050565b6000602082840312156109775761097661082d565b5b60006109858482850161094c565b91505092915050565b600082825260208201905092915050565b7f456c656374696f6e20686173206e6f7420656e64656420796574000000000000600082015250565b60006109d5601a8361098e565b91506109e08261099f565b602082019050919050565b60006020820190508181036000830152610a04816109c8565b9050919050565b610a1481610852565b82525050565b6000602082019050610a2f6000830184610a0b565b92915050565b7f43616e646964617465206973206e6f7420726567697374657265640000000000600082015250565b6000610a6b601b8361098e565b9150610a7682610a35565b602082019050919050565b60006020820190508181036000830152610a9a81610a5e565b9050919050565b7f456c656374696f6e20686173206e6f7420737461727465640000000000000000600082015250565b6000610ad760188361098e565b9150610ae282610aa1565b602082019050919050565b60006020820190508181036000830152610b0681610aca565b9050919050565b7f456c656374696f6e2068617320616c726561647920656e646564000000000000600082015250565b6000610b43601a8361098e565b9150610b4e82610b0d565b602082019050919050565b60006020820190508181036000830152610b7281610b36565b9050919050565b7f596f75206861766520616c726561647920766f74656400000000000000000000600082015250565b6000610baf60168361098e565b9150610bba82610b79565b602082019050919050565b60006020820190508181036000830152610bde81610ba2565b9050919050565b7f596f7520617265206e6f74207265676973746572656420766f74657200000000600082015250565b6000610c1b601c8361098e565b9150610c2682610be5565b602082019050919050565b60006020820190508181036000830152610c4a81610c0e565b9050919050565b7f4e487b7100000000000000000000000000000000000000000000000000000000600052601160045260246000fd5b6000610c8b826108bd565b91507fffffffffffffffffffffffffffffffffffffffffffffffffffffffffffffffff8203610cbd57610cbc610c51565b5b60018201905091905056fea264697066735822122003cf980f79b04afef93167326da5d9268bb9bbbaff44b1771326168dee1ffc1364736f6c63430008120033",
					"opcodes": "PUSH1 0x80 PUSH1 0x40 MSTORE CALLVALUE DUP1 ISZERO PUSH2 0x10 JUMPI PUSH1 0x0 DUP1 REVERT JUMPDEST POP PUSH1 0x40 MLOAD PUSH2 0xE15 CODESIZE SUB DUP1 PUSH2 0xE15 DUP4 CODECOPY DUP2 DUP2 ADD PUSH1 0x40 MSTORE DUP2 ADD SWAP1 PUSH2 0x32 SWAP2 SWAP1 PUSH2 0xDB JUMP JUMPDEST DUP1 PUSH1 0x0 DUP1 PUSH2 0x100 EXP DUP2 SLOAD DUP2 PUSH20 0xFFFFFFFFFFFFFFFFFFFFFFFFFFFFFFFFFFFFFFFF MUL NOT AND SWAP1 DUP4 PUSH20 0xFFFFFFFFFFFFFFFFFFFFFFFFFFFFFFFFFFFFFFFF AND MUL OR SWAP1 SSTORE POP POP PUSH2 0x108 JUMP JUMPDEST PUSH1 0x0 DUP1 REVERT JUMPDEST PUSH1 0x0 PUSH20 0xFFFFFFFFFFFFFFFFFFFFFFFFFFFFFFFFFFFFFFFF DUP3 AND SWAP1 POP SWAP2 SWAP1 POP JUMP JUMPDEST PUSH1 0x0 PUSH2 0xA8 DUP3 PUSH2 0x7D JUMP JUMPDEST SWAP1 POP SWAP2 SWAP1 POP JUMP JUMPDEST PUSH2 0xB8 DUP2 PUSH2 0x9D JUMP JUMPDEST DUP2 EQ PUSH2 0xC3 JUMPI PUSH1 0x0 DUP1 REVERT JUMPDEST POP JUMP JUMPDEST PUSH1 0x0 DUP2 MLOAD SWAP1 POP PUSH2 0xD5 DUP2 PUSH2 0xAF JUMP JUMPDEST SWAP3 SWAP2 POP POP JUMP JUMPDEST PUSH1 0x0 PUSH1 0x20 DUP3 DUP5 SUB SLT ISZERO PUSH2 0xF1 JUMPI PUSH2 0xF0 PUSH2 0x78 JUMP JUMPDEST JUMPDEST PUSH1 0x0 PUSH2 0xFF DUP5 DUP3 DUP6 ADD PUSH2 0xC6 JUMP JUMPDEST SWAP2 POP POP SWAP3 SWAP2 POP POP JUMP JUMPDEST PUSH2 0xCFE DUP1 PUSH2 0x117 PUSH1 0x0 CODECOPY PUSH1 0x0 RETURN INVALID PUSH1 0x80 PUSH1 0x40 MSTORE CALLVALUE DUP1 ISZERO PUSH2 0x10 JUMPI PUSH1 0x0 DUP1 REVERT JUMPDEST POP PUSH1 0x4 CALLDATASIZE LT PUSH2 0x57 JUMPI PUSH1 0x0 CALLDATALOAD PUSH1 0xE0 SHR DUP1 PUSH4 0x50BC4A98 EQ PUSH2 0x5C JUMPI DUP1 PUSH4 0x6DD7D8EA EQ PUSH2 0x8C JUMPI DUP1 PUSH4 0x78668658 EQ PUSH2 0xA8 JUMPI DUP1 PUSH4 0x957AF7CE EQ PUSH2 0xB2 JUMPI DUP1 PUSH4 0xF342C4DE EQ PUSH2 0xD0 JUMPI JUMPDEST PUSH1 0x0 DUP1 REVERT JUMPDEST PUSH2 0x76 PUSH1 0x4 DUP1 CALLDATASIZE SUB DUP2 ADD SWAP1 PUSH2 0x71 SWAP2 SWAP1 PUSH2 0x890 JUMP JUMPDEST PUSH2 0xEF JUMP JUMPDEST PUSH1 0x40 MLOAD PUSH2 0x83 SWAP2 SWAP1 PUSH2 0x8D6 JUMP JUMPDEST PUSH1 0x40 MLOAD DUP1 SWAP2 SUB SWAP1 RETURN JUMPDEST PUSH2 0xA6 PUSH1 0x4 DUP1 CALLDATASIZE SUB DUP2 ADD SWAP1 PUSH2 0xA1 SWAP2 SWAP1 PUSH2 0x890 JUMP JUMPDEST PUSH2 0x2E0 JUMP JUMPDEST STOP JUMPDEST PUSH2 0xB0 PUSH2 0x71F JUMP JUMPDEST STOP JUMPDEST PUSH2 0xBA PUSH2 0x778 JUMP JUMPDEST PUSH1 0x40 MLOAD PUSH2 0xC7 SWAP2 SWAP1 PUSH2 0x8D6 JUMP JUMPDEST PUSH1 0x40 MLOAD DUP1 SWAP2 SUB SWAP1 RETURN JUMPDEST PUSH2 0xD8 PUSH2 0x788 JUMP JUMPDEST PUSH1 0x40 MLOAD PUSH2 0xE6 SWAP3 SWAP2 SWAP1 PUSH2 0x90C JUMP JUMPDEST PUSH1 0x40 MLOAD DUP1 SWAP2 SUB SWAP1 RETURN JUMPDEST PUSH1 0x0 DUP1 PUSH1 0x0 SWAP1 SLOAD SWAP1 PUSH2 0x100 EXP SWAP1 DIV PUSH20 0xFFFFFFFFFFFFFFFFFFFFFFFFFFFFFFFFFFFFFFFF AND PUSH20 0xFFFFFFFFFFFFFFFFFFFFFFFFFFFFFFFFFFFFFFFF AND PUSH4 0xC94CA9E3 PUSH1 0x40 MLOAD DUP2 PUSH4 0xFFFFFFFF AND PUSH1 0xE0 SHL DUP2 MSTORE PUSH1 0x4 ADD PUSH1 0x20 PUSH1 0x40 MLOAD DUP1 DUP4 SUB DUP2 DUP7 GAS STATICCALL ISZERO DUP1 ISZERO PUSH2 0x15D JUMPI RETURNDATASIZE PUSH1 0x0 DUP1 RETURNDATACOPY RETURNDATASIZE PUSH1 0x0 REVERT JUMPDEST POP POP POP POP PUSH1 0x40 MLOAD RETURNDATASIZE PUSH1 0x1F NOT PUSH1 0x1F DUP3 ADD AND DUP3 ADD DUP1 PUSH1 0x40 MSTORE POP DUP2 ADD SWAP1 PUSH2 0x181 SWAP2 SWAP1 PUSH2 0x961 JUMP JUMPDEST PUSH2 0x1C0 JUMPI PUSH1 0x40 MLOAD PUSH32 0x8C379A000000000000000000000000000000000000000000000000000000000 DUP2 MSTORE PUSH1 0x4 ADD PUSH2 0x1B7 SWAP1 PUSH2 0x9EB JUMP JUMPDEST PUSH1 0x40 MLOAD DUP1 SWAP2 SUB SWAP1 REVERT JUMPDEST PUSH1 0x0 DUP1 SLOAD SWAP1 PUSH2 0x100 EXP SWAP1 DIV PUSH20 0xFFFFFFFFFFFFFFFFFFFFFFFFFFFFFFFFFFFFFFFF AND PUSH20 0xFFFFFFFFFFFFFFFFFFFFFFFFFFFFFFFFFFFFFFFF AND PUSH4 0xF1ECDC58 DUP4 PUSH1 0x40 MLOAD DUP3 PUSH4 0xFFFFFFFF AND PUSH1 0xE0 SHL DUP2 MSTORE PUSH1 0x4 ADD PUSH2 0x219 SWAP2 SWAP1 PUSH2 0xA1A JUMP JUMPDEST PUSH1 0x20 PUSH1 0x40 MLOAD DUP1 DUP4 SUB DUP2 DUP7 GAS STATICCALL ISZERO DUP1 ISZERO PUSH2 0x236 JUMPI RETURNDATASIZE PUSH1 0x0 DUP1 RETURNDATACOPY RETURNDATASIZE PUSH1 0x0 REVERT JUMPDEST POP POP POP POP PUSH1 0x40 MLOAD RETURNDATASIZE PUSH1 0x1F NOT PUSH1 0x1F DUP3 ADD AND DUP3 ADD DUP1 PUSH1 0x40 MSTORE POP DUP2 ADD SWAP1 PUSH2 0x25A SWAP2 SWAP1 PUSH2 0x961 JUMP JUMPDEST PUSH2 0x299 JUMPI PUSH1 0x40 MLOAD PUSH32 0x8C379A000000000000000000000000000000000000000000000000000000000 DUP2 MSTORE PUSH1 0x4 ADD PUSH2 0x290 SWAP1 PUSH2 0xA81 JUMP JUMPDEST PUSH1 0x40 MLOAD DUP1 SWAP2 SUB SWAP1 REVERT JUMPDEST PUSH1 0x3 PUSH1 0x0 DUP4 PUSH20 0xFFFFFFFFFFFFFFFFFFFFFFFFFFFFFFFFFFFFFFFF AND PUSH20 0xFFFFFFFFFFFFFFFFFFFFFFFFFFFFFFFFFFFFFFFF AND DUP2 MSTORE PUSH1 0x20 ADD SWAP1 DUP2 MSTORE PUSH1 0x20 ADD PUSH1 0x0 KECCAK256 SLOAD SWAP1 POP SWAP2 SWAP1 POP JUMP JUMPDEST PUSH1 0x0 DUP1 SLOAD SWAP1 PUSH2 0x100 EXP SWAP1 DIV PUSH20 0xFFFFFFFFFFFFFFFFFFFFFFFFFFFFFFFFFFFFFFFF AND PUSH20 0xFFFFFFFFFFFFFFFFFFFFFFFFFFFFFFFFFFFFFFFF AND PUSH4 0xD5346DA1 PUSH1 0x40 MLOAD DUP2 PUSH4 0xFFFFFFFF AND PUSH1 0xE0 SHL DUP2 MSTORE PUSH1 0x4 ADD PUSH1 0x20 PUSH1 0x40 MLOAD DUP1 DUP4 SUB DUP2 DUP7 GAS STATICCALL ISZERO DUP1 ISZERO PUSH2 0x34B JUMPI RETURNDATASIZE PUSH1 0x0 DUP1 RETURNDATACOPY RETURNDATASIZE PUSH1 0x0 REVERT JUMPDEST POP POP POP POP PUSH1 0x40 MLOAD RETURNDATASIZE PUSH1 0x1F NOT PUSH1 0x1F DUP3 ADD AND DUP3 ADD DUP1 PUSH1 0x40 MSTORE POP DUP2 ADD SWAP1 PUSH2 0x36F SWAP2 SWAP1 PUSH2 0x961 JUMP JUMPDEST PUSH2 0x3AE JUMPI PUSH1 0x40 MLOAD PUSH32 0x8C379A000000000000000000000000000000000000000000000000000000000 DUP2 MSTORE PUSH1 0x4 ADD PUSH2 0x3A5 SWAP1 PUSH2 0xAED JUMP JUMPDEST PUSH1 0x40 MLOAD DUP1 SWAP2 SUB SWAP1 REVERT JUMPDEST PUSH1 0x0 DUP1 SLOAD SWAP1 PUSH2 0x100 EXP SWAP1 DIV PUSH20 0xFFFFFFFFFFFFFFFFFFFFFFFFFFFFFFFFFFFFFFFF AND PUSH20 0xFFFFFFFFFFFFFFFFFFFFFFFFFFFFFFFFFFFFFFFF AND PUSH4 0xC94CA9E3 PUSH1 0x40 MLOAD DUP2 PUSH4 0xFFFFFFFF AND PUSH1 0xE0 SHL DUP2 MSTORE PUSH1 0x4 ADD PUSH1 0x20 PUSH1 0x40 MLOAD DUP1 DUP4 SUB DUP2 DUP7 GAS STATICCALL ISZERO DUP1 ISZERO PUSH2 0x419 JUMPI RETURNDATASIZE PUSH1 0x0 DUP1 RETURNDATACOPY RETURNDATASIZE PUSH1 0x0 REVERT JUMPDEST POP POP POP POP PUSH1 0x40 MLOAD RETURNDATASIZE PUSH1 0x1F NOT PUSH1 0x1F DUP3 ADD AND DUP3 ADD DUP1 PUSH1 0x40 MSTORE POP DUP2 ADD SWAP1 PUSH2 0x43D SWAP2 SWAP1 PUSH2 0x961 JUMP JUMPDEST ISZERO PUSH2 0x47D JUMPI PUSH1 0x40 MLOAD PUSH32 0x8C379A000000000000000000000000000000000000000000000000000000000 DUP2 MSTORE PUSH1 0x4 ADD PUSH2 0x474 SWAP1 PUSH2 0xB59 JUMP JUMPDEST PUSH1 0x40 MLOAD DUP1 SWAP2 SUB SWAP1 REVERT JUMPDEST PUSH1 0x2 PUSH1 0x0 CALLER PUSH20 0xFFFFFFFFFFFFFFFFFFFFFFFFFFFFFFFFFFFFFFFF AND PUSH20 0xFFFFFFFFFFFFFFFFFFFFFFFFFFFFFFFFFFFFFFFF AND DUP2 MSTORE PUSH1 0x20 ADD SWAP1 DUP2 MSTORE PUSH1 0x20 ADD PUSH1 0x0 KECCAK256 PUSH1 0x0 SWAP1 SLOAD SWAP1 PUSH2 0x100 EXP SWAP1 DIV PUSH1 0xFF AND ISZERO PUSH2 0x50A JUMPI PUSH1 0x40 MLOAD PUSH32 0x8C379A000000000000000000000000000000000000000000000000000000000 DUP2 MSTORE PUSH1 0x4 ADD PUSH2 0x501 SWAP1 PUSH2 0xBC5 JUMP JUMPDEST PUSH1 0x40 MLOAD DUP1 SWAP2 SUB SWAP1 REVERT JUMPDEST PUSH1 0x1 PUSH1 0x0 CALLER PUSH20 0xFFFFFFFFFFFFFFFFFFFFFFFFFFFFFFFFFFFFFFFF AND PUSH20 0xFFFFFFFFFFFFFFFFFFFFFFFFFFFFFFFFFFFFFFFF AND DUP2 MSTORE PUSH1 0x20 ADD SWAP1 DUP2 MSTORE PUSH1 0x20 ADD PUSH1 0x0 KECCAK256 PUSH1 0x0 SWAP1 SLOAD SWAP1 PUSH2 0x100 EXP SWAP1 DIV PUSH1 0xFF AND PUSH2 0x596 JUMPI PUSH1 0x40 MLOAD PUSH32 0x8C379A000000000000000000000000000000000000000000000000000000000 DUP2 MSTORE PUSH1 0x4 ADD PUSH2 0x58D SWAP1 PUSH2 0xC31 JUMP JUMPDEST PUSH1 0x40 MLOAD DUP1 SWAP2 SUB SWAP1 REVERT JUMPDEST PUSH1 0x0 DUP1 SLOAD SWAP1 PUSH2 0x100 EXP SWAP1 DIV PUSH20 0xFFFFFFFFFFFFFFFFFFFFFFFFFFFFFFFFFFFFFFFF AND PUSH20 0xFFFFFFFFFFFFFFFFFFFFFFFFFFFFFFFFFFFFFFFF AND PUSH4 0xF1ECDC58 DUP3 PUSH1 0x40 MLOAD DUP3 PUSH4 0xFFFFFFFF AND PUSH1 0xE0 SHL DUP2 MSTORE PUSH1 0x4 ADD PUSH2 0x5EF SWAP2 SWAP1 PUSH2 0xA1A JUMP JUMPDEST PUSH1 0x20 PUSH1 0x40 MLOAD DUP1 DUP4 SUB DUP2 DUP7 GAS STATICCALL ISZERO DUP1 ISZERO PUSH2 0x60C JUMPI RETURNDATASIZE PUSH1 0x0 DUP1 RETURNDATACOPY RETURNDATASIZE PUSH1 0x0 REVERT JUMPDEST POP POP POP POP PUSH1 0x40 MLOAD RETURNDATASIZE PUSH1 0x1F NOT PUSH1 0x1F DUP3 ADD AND DUP3 ADD DUP1 PUSH1 0x40 MSTORE POP DUP2 ADD SWAP1 PUSH2 0x630 SWAP2 SWAP1 PUSH2 0x961 JUMP JUMPDEST PUSH2 0x66F JUMPI PUSH1 0x40 MLOAD PUSH32 0x8C379A000000000000000000000000000000000000000000000000000000000 DUP2 MSTORE PUSH1 0x4 ADD PUSH2 0x666 SWAP1 PUSH2 0xA81 JUMP JUMPDEST PUSH1 0x40 MLOAD DUP1 SWAP2 SUB SWAP1 REVERT JUMPDEST PUSH1 0x1 PUSH1 0x2 PUSH1 0x0 CALLER PUSH20 0xFFFFFFFFFFFFFFFFFFFFFFFFFFFFFFFFFFFFFFFF AND PUSH20 0xFFFFFFFFFFFFFFFFFFFFFFFFFFFFFFFFFFFFFFFF AND DUP2 MSTORE PUSH1 0x20 ADD SWAP1 DUP2 MSTORE PUSH1 0x20 ADD PUSH1 0x0 KECCAK256 PUSH1 0x0 PUSH2 0x100 EXP DUP2 SLOAD DUP2 PUSH1 0xFF MUL NOT AND SWAP1 DUP4 ISZERO ISZERO MUL OR SWAP1 SSTORE POP PUSH1 0x3 PUSH1 0x0 DUP3 PUSH20 0xFFFFFFFFFFFFFFFFFFFFFFFFFFFFFFFFFFFFFFFF AND PUSH20 0xFFFFFFFFFFFFFFFFFFFFFFFFFFFFFFFFFFFFFFFF AND DUP2 MSTORE PUSH1 0x20 ADD SWAP1 DUP2 MSTORE PUSH1 0x20 ADD PUSH1 0x0 KECCAK256 PUSH1 0x0 DUP2 SLOAD DUP1 SWAP3 SWAP2 SWAP1 PUSH2 0x717 SWAP1 PUSH2 0xC80 JUMP JUMPDEST SWAP2 SWAP1 POP SSTORE POP POP JUMP JUMPDEST PUSH1 0x1 DUP1 PUSH1 0x0 CALLER PUSH20 0xFFFFFFFFFFFFFFFFFFFFFFFFFFFFFFFFFFFFFFFF AND PUSH20 0xFFFFFFFFFFFFFFFFFFFFFFFFFFFFFFFFFFFFFFFF AND DUP2 MSTORE PUSH1 0x20 ADD SWAP1 DUP2 MSTORE PUSH1 0x20 ADD PUSH1 0x0 KECCAK256 PUSH1 0x0 PUSH2 0x100 EXP DUP2 SLOAD DUP2 PUSH1 0xFF MUL NOT AND SWAP1 DUP4 ISZERO ISZERO MUL OR SWAP1 SSTORE POP JUMP JUMPDEST PUSH1 0x0 PUSH2 0x783 CALLER PUSH2 0xEF JUMP JUMPDEST SWAP1 POP SWAP1 JUMP JUMPDEST PUSH1 0x0 DUP1 PUSH1 0x1 PUSH1 0x0 CALLER PUSH20 0xFFFFFFFFFFFFFFFFFFFFFFFFFFFFFFFFFFFFFFFF AND PUSH20 0xFFFFFFFFFFFFFFFFFFFFFFFFFFFFFFFFFFFFFFFF AND DUP2 MSTORE PUSH1 0x20 ADD SWAP1 DUP2 MSTORE PUSH1 0x20 ADD PUSH1 0x0 KECCAK256 PUSH1 0x0 SWAP1 SLOAD SWAP1 PUSH2 0x100 EXP SWAP1 DIV PUSH1 0xFF AND PUSH1 0x2 PUSH1 0x0 CALLER PUSH20 0xFFFFFFFFFFFFFFFFFFFFFFFFFFFFFFFFFFFFFFFF AND PUSH20 0xFFFFFFFFFFFFFFFFFFFFFFFFFFFFFFFFFFFFFFFF AND DUP2 MSTORE PUSH1 0x20 ADD SWAP1 DUP2 MSTORE PUSH1 0x20 ADD PUSH1 0x0 KECCAK256 PUSH1 0x0 SWAP1 SLOAD SWAP1 PUSH2 0x100 EXP SWAP1 DIV PUSH1 0xFF AND SWAP2 POP SWAP2 POP SWAP1 SWAP2 JUMP JUMPDEST PUSH1 0x0 DUP1 REVERT JUMPDEST PUSH1 0x0 PUSH20 0xFFFFFFFFFFFFFFFFFFFFFFFFFFFFFFFFFFFFFFFF DUP3 AND SWAP1 POP SWAP2 SWAP1 POP JUMP JUMPDEST PUSH1 0x0 PUSH2 0x85D DUP3 PUSH2 0x832 JUMP JUMPDEST SWAP1 POP SWAP2 SWAP1 POP JUMP JUMPDEST PUSH2 0x86D DUP2 PUSH2 0x852 JUMP JUMPDEST DUP2 EQ PUSH2 0x878 JUMPI PUSH1 0x0 DUP1 REVERT JUMPDEST POP JUMP JUMPDEST PUSH1 0x0 DUP2 CALLDATALOAD SWAP1 POP PUSH2 0x88A DUP2 PUSH2 0x864 JUMP JUMPDEST SWAP3 SWAP2 POP POP JUMP JUMPDEST PUSH1 0x0 PUSH1 0x20 DUP3 DUP5 SUB SLT ISZERO PUSH2 0x8A6 JUMPI PUSH2 0x8A5 PUSH2 0x82D JUMP JUMPDEST JUMPDEST PUSH1 0x0 PUSH2 0x8B4 DUP5 DUP3 DUP6 ADD PUSH2 0x87B JUMP JUMPDEST SWAP2 POP POP SWAP3 SWAP2 POP POP JUMP JUMPDEST PUSH1 0x0 DUP2 SWAP1 POP SWAP2 SWAP1 POP JUMP JUMPDEST PUSH2 0x8D0 DUP2 PUSH2 0x8BD JUMP JUMPDEST DUP3 MSTORE POP POP JUMP JUMPDEST PUSH1 0x0 PUSH1 0x20 DUP3 ADD SWAP1 POP PUSH2 0x8EB PUSH1 0x0 DUP4 ADD DUP5 PUSH2 0x8C7 JUMP JUMPDEST SWAP3 SWAP2 POP POP JUMP JUMPDEST PUSH1 0x0 DUP2 ISZERO ISZERO SWAP1 POP SWAP2 SWAP1 POP JUMP JUMPDEST PUSH2 0x906 DUP2 PUSH2 0x8F1 JUMP JUMPDEST DUP3 MSTORE POP POP JUMP JUMPDEST PUSH1 0x0 PUSH1 0x40 DUP3 ADD SWAP1 POP PUSH2 0x921 PUSH1 0x0 DUP4 ADD DUP6 PUSH2 0x8FD JUMP JUMPDEST PUSH2 0x92E PUSH1 0x20 DUP4 ADD DUP5 PUSH2 0x8FD JUMP JUMPDEST SWAP4 SWAP3 POP POP POP JUMP JUMPDEST PUSH2 0x93E DUP2 PUSH2 0x8F1 JUMP JUMPDEST DUP2 EQ PUSH2 0x949 JUMPI PUSH1 0x0 DUP1 REVERT JUMPDEST POP JUMP JUMPDEST PUSH1 0x0 DUP2 MLOAD SWAP1 POP PUSH2 0x95B DUP2 PUSH2 0x935 JUMP JUMPDEST SWAP3 SWAP2 POP POP JUMP JUMPDEST PUSH1 0x0 PUSH1 0x20 DUP3 DUP5 SUB SLT ISZERO PUSH2 0x977 JUMPI PUSH2 0x976 PUSH2 0x82D JUMP JUMPDEST JUMPDEST PUSH1 0x0 PUSH2 0x985 DUP5 DUP3 DUP6 ADD PUSH2 0x94C JUMP JUMPDEST SWAP2 POP POP SWAP3 SWAP2 POP POP JUMP JUMPDEST PUSH1 0x0 DUP3 DUP3 MSTORE PUSH1 0x20 DUP3 ADD SWAP1 POP SWAP3 SWAP2 POP POP JUMP JUMPDEST PUSH32 0x456C656374696F6E20686173206E6F7420656E64656420796574000000000000 PUSH1 0x0 DUP3 ADD MSTORE POP JUMP JUMPDEST PUSH1 0x0 PUSH2 0x9D5 PUSH1 0x1A DUP4 PUSH2 0x98E JUMP JUMPDEST SWAP2 POP PUSH2 0x9E0 DUP3 PUSH2 0x99F JUMP JUMPDEST PUSH1 0x20 DUP3 ADD SWAP1 POP SWAP2 SWAP1 POP JUMP JUMPDEST PUSH1 0x0 PUSH1 0x20 DUP3 ADD SWAP1 POP DUP2 DUP2 SUB PUSH1 0x0 DUP4 ADD MSTORE PUSH2 0xA04 DUP2 PUSH2 0x9C8 JUMP JUMPDEST SWAP1 POP SWAP2 SWAP1 POP JUMP JUMPDEST PUSH2 0xA14 DUP2 PUSH2 0x852 JUMP JUMPDEST DUP3 MSTORE POP POP JUMP JUMPDEST PUSH1 0x0 PUSH1 0x20 DUP3 ADD SWAP1 POP PUSH2 0xA2F PUSH1 0x0 DUP4 ADD DUP5 PUSH2 0xA0B JUMP JUMPDEST SWAP3 SWAP2 POP POP JUMP JUMPDEST PUSH32 0x43616E646964617465206973206E6F7420726567697374657265640000000000 PUSH1 0x0 DUP3 ADD MSTORE POP JUMP JUMPDEST PUSH1 0x0 PUSH2 0xA6B PUSH1 0x1B DUP4 PUSH2 0x98E JUMP JUMPDEST SWAP2 POP PUSH2 0xA76 DUP3 PUSH2 0xA35 JUMP JUMPDEST PUSH1 0x20 DUP3 ADD SWAP1 POP SWAP2 SWAP1 POP JUMP JUMPDEST PUSH1 0x0 PUSH1 0x20 DUP3 ADD SWAP1 POP DUP2 DUP2 SUB PUSH1 0x0 DUP4 ADD MSTORE PUSH2 0xA9A DUP2 PUSH2 0xA5E JUMP JUMPDEST SWAP1 POP SWAP2 SWAP1 POP JUMP JUMPDEST PUSH32 0x456C656374696F6E20686173206E6F7420737461727465640000000000000000 PUSH1 0x0 DUP3 ADD MSTORE POP JUMP JUMPDEST PUSH1 0x0 PUSH2 0xAD7 PUSH1 0x18 DUP4 PUSH2 0x98E JUMP JUMPDEST SWAP2 POP PUSH2 0xAE2 DUP3 PUSH2 0xAA1 JUMP JUMPDEST PUSH1 0x20 DUP3 ADD SWAP1 POP SWAP2 SWAP1 POP JUMP JUMPDEST PUSH1 0x0 PUSH1 0x20 DUP3 ADD SWAP1 POP DUP2 DUP2 SUB PUSH1 0x0 DUP4 ADD MSTORE PUSH2 0xB06 DUP2 PUSH2 0xACA JUMP JUMPDEST SWAP1 POP SWAP2 SWAP1 POP JUMP JUMPDEST PUSH32 0x456C656374696F6E2068617320616C726561647920656E646564000000000000 PUSH1 0x0 DUP3 ADD MSTORE POP JUMP JUMPDEST PUSH1 0x0 PUSH2 0xB43 PUSH1 0x1A DUP4 PUSH2 0x98E JUMP JUMPDEST SWAP2 POP PUSH2 0xB4E DUP3 PUSH2 0xB0D JUMP JUMPDEST PUSH1 0x20 DUP3 ADD SWAP1 POP SWAP2 SWAP1 POP JUMP JUMPDEST PUSH1 0x0 PUSH1 0x20 DUP3 ADD SWAP1 POP DUP2 DUP2 SUB PUSH1 0x0 DUP4 ADD MSTORE PUSH2 0xB72 DUP2 PUSH2 0xB36 JUMP JUMPDEST SWAP1 POP SWAP2 SWAP1 POP JUMP JUMPDEST PUSH32 0x596F75206861766520616C726561647920766F74656400000000000000000000 PUSH1 0x0 DUP3 ADD MSTORE POP JUMP JUMPDEST PUSH1 0x0 PUSH2 0xBAF PUSH1 0x16 DUP4 PUSH2 0x98E JUMP JUMPDEST SWAP2 POP PUSH2 0xBBA DUP3 PUSH2 0xB79 JUMP JUMPDEST PUSH1 0x20 DUP3 ADD SWAP1 POP SWAP2 SWAP1 POP JUMP JUMPDEST PUSH1 0x0 PUSH1 0x20 DUP3 ADD SWAP1 POP DUP2 DUP2 SUB PUSH1 0x0 DUP4 ADD MSTORE PUSH2 0xBDE DUP2 PUSH2 0xBA2 JUMP JUMPDEST SWAP1 POP SWAP2 SWAP1 POP JUMP JUMPDEST PUSH32 0x596F7520617265206E6F74207265676973746572656420766F74657200000000 PUSH1 0x0 DUP3 ADD MSTORE POP JUMP JUMPDEST PUSH1 0x0 PUSH2 0xC1B PUSH1 0x1C DUP4 PUSH2 0x98E JUMP JUMPDEST SWAP2 POP PUSH2 0xC26 DUP3 PUSH2 0xBE5 JUMP JUMPDEST PUSH1 0x20 DUP3 ADD SWAP1 POP SWAP2 SWAP1 POP JUMP JUMPDEST PUSH1 0x0 PUSH1 0x20 DUP3 ADD SWAP1 POP DUP2 DUP2 SUB PUSH1 0x0 DUP4 ADD MSTORE PUSH2 0xC4A DUP2 PUSH2 0xC0E JUMP JUMPDEST SWAP1 POP SWAP2 SWAP1 POP JUMP JUMPDEST PUSH32 0x4E487B7100000000000000000000000000000000000000000000000000000000 PUSH1 0x0 MSTORE PUSH1 0x11 PUSH1 0x4 MSTORE PUSH1 0x24 PUSH1 0x0 REVERT JUMPDEST PUSH1 0x0 PUSH2 0xC8B DUP3 PUSH2 0x8BD JUMP JUMPDEST SWAP2 POP PUSH32 0xFFFFFFFFFFFFFFFFFFFFFFFFFFFFFFFFFFFFFFFFFFFFFFFFFFFFFFFFFFFFFFFF DUP3 SUB PUSH2 0xCBD JUMPI PUSH2 0xCBC PUSH2 0xC51 JUMP JUMPDEST JUMPDEST PUSH1 0x1 DUP3 ADD SWAP1 POP SWAP2 SWAP1 POP JUMP INVALID LOG2 PUSH5 0x6970667358 0x22 SLT KECCAK256 SUB 0xCF SWAP9 0xF PUSH26 0xB04AFEF93167326DA5D9268BB9BBBAFF44B1771326168DEE1FFC SGT PUSH5 0x736F6C6343 STOP ADDMOD SLT STOP CALLER "
				},
				"gasEstimates": {
					"creation": {
						"codeDepositCost": "665200",
						"executionCost": "infinite",
						"totalCost": "infinite"
					},
					"external": {
						"getResults(address)": "infinite",
						"registerAsVoter()": "24522",
						"viewResultAsCandidate()": "infinite",
						"viewVoterDetails()": "infinite",
						"vote(address)": "infinite"
					}
				},
				"methodIdentifiers": {
					"getResults(address)": "50bc4a98",
					"registerAsVoter()": "78668658",
					"viewResultAsCandidate()": "957af7ce",
					"viewVoterDetails()": "f342c4de",
					"vote(address)": "6dd7d8ea"
				}
			},
			"storageLayout": {
				"storage": [
					{
						"astId": 5,
						"contract": "VoterCandidate.sol:Voter",
						"label": "votingSystem",
						"offset": 0,
						"slot": "0",
						"type": "t_contract(VotingSystem)387"
					},
					{
						"astId": 9,
						"contract": "VoterCandidate.sol:Voter",
						"label": "registeredVoters",
						"offset": 0,
						"slot": "1",
						"type": "t_mapping(t_address,t_bool)"
					},
					{
						"astId": 13,
						"contract": "VoterCandidate.sol:Voter",
						"label": "voted",
						"offset": 0,
						"slot": "2",
						"type": "t_mapping(t_address,t_bool)"
					},
					{
						"astId": 17,
						"contract": "VoterCandidate.sol:Voter",
						"label": "votesReceived",
						"offset": 0,
						"slot": "3",
						"type": "t_mapping(t_address,t_uint256)"
					}
				],
				"types": {
					"t_address": {
						"encoding": "inplace",
						"label": "address",
						"numberOfBytes": "20"
					},
					"t_bool": {
						"encoding": "inplace",
						"label": "bool",
						"numberOfBytes": "1"
					},
					"t_contract(VotingSystem)387": {
						"encoding": "inplace",
						"label": "contract VotingSystem",
						"numberOfBytes": "20"
					},
					"t_mapping(t_address,t_bool)": {
						"encoding": "mapping",
						"key": "t_address",
						"label": "mapping(address => bool)",
						"numberOfBytes": "32",
						"value": "t_bool"
					},
					"t_mapping(t_address,t_uint256)": {
						"encoding": "mapping",
						"key": "t_address",
						"label": "mapping(address => uint256)",
						"numberOfBytes": "32",
						"value": "t_uint256"
					},
					"t_uint256": {
						"encoding": "inplace",
						"label": "uint256",
						"numberOfBytes": "32"
					}
				}
			},
			"userdoc": {
				"kind": "user",
				"methods": {},
				"version": 1
			}
		}
	}
}